{
  "fileName": "Constants.sol",
  "contractName": "Constants",
  "source": "// SPDX-License-Identifier: MIT\npragma solidity ^0.6.12;\n\n\ncontract Constants {\n    uint public constant MAX_CONTRACT_REWARD_BP = 30000; // 300%\n\n    uint public constant LP_FEE_BP = 1000; // 10%\n    uint public constant REF_COMMISSION_BP = 700; // 10%\n\n    // Ref and sponsor pools\n    uint public constant REF_POOL_FEE_BP = 50; // 0.5%, goes to ref pool from each deposit\n    uint public constant SPONSOR_POOL_FEE_BP = 50; // 0.5%, goes to sponsor pool from each deposit\n\n    uint public constant EXIT_PENALTY_BP = 5000; // 50%, deduct from user's initial deposit on exit\n\n    // Contract bonus\n    uint public constant MAX_CONTRACT_BONUS_BP = 300; // maximum bonus a user can get 3%\n    uint public constant CONTRACT_BONUS_UNIT = 100;    // For each 100 token balance of contract, gives\n    uint public constant CONTRACT_BONUS_PER_UNIT_BP = 1; // 0.01% extra interest\n\n    // Hold bonus\n    uint public constant MAX_HOLD_BONUS_BP = 100; // Maximum 1% hold bonus\n    uint public constant HOLD_BONUS_UNIT = 43200; // 12 hours\n    uint public constant HOLD_BONUS_PER_UNIT_BP = 2; // 0.02% hold bonus for each 12 hours of hold\n\n    uint public constant REWARD_THRESHOLD_BP = 300; // // User will only get hold bonus if his rewards are more then 3% of his deposit\n\n    uint public constant MAX_WITHDRAWAL_OVER_REWARD_THRESHOLD_BP = 300; // Max daily withdrawal limit if user is above 10%\n\n    uint public constant DEV_FEE_BP = 5000; // 5%\n}\n",
  "sourcePath": "contracts/Constants.sol",
  "abi": [
    {
      "inputs": [],
      "name": "CONTRACT_BONUS_PER_UNIT_BP",
      "outputs": [
        {
          "internalType": "uint256",
          "name": "",
          "type": "uint256"
        }
      ],
      "stateMutability": "view",
      "type": "function"
    },
    {
      "inputs": [],
      "name": "CONTRACT_BONUS_UNIT",
      "outputs": [
        {
          "internalType": "uint256",
          "name": "",
          "type": "uint256"
        }
      ],
      "stateMutability": "view",
      "type": "function"
    },
    {
      "inputs": [],
      "name": "DEV_FEE_BP",
      "outputs": [
        {
          "internalType": "uint256",
          "name": "",
          "type": "uint256"
        }
      ],
      "stateMutability": "view",
      "type": "function"
    },
    {
      "inputs": [],
      "name": "EXIT_PENALTY_BP",
      "outputs": [
        {
          "internalType": "uint256",
          "name": "",
          "type": "uint256"
        }
      ],
      "stateMutability": "view",
      "type": "function"
    },
    {
      "inputs": [],
      "name": "HOLD_BONUS_PER_UNIT_BP",
      "outputs": [
        {
          "internalType": "uint256",
          "name": "",
          "type": "uint256"
        }
      ],
      "stateMutability": "view",
      "type": "function"
    },
    {
      "inputs": [],
      "name": "HOLD_BONUS_UNIT",
      "outputs": [
        {
          "internalType": "uint256",
          "name": "",
          "type": "uint256"
        }
      ],
      "stateMutability": "view",
      "type": "function"
    },
    {
      "inputs": [],
      "name": "LP_FEE_BP",
      "outputs": [
        {
          "internalType": "uint256",
          "name": "",
          "type": "uint256"
        }
      ],
      "stateMutability": "view",
      "type": "function"
    },
    {
      "inputs": [],
      "name": "MAX_CONTRACT_BONUS_BP",
      "outputs": [
        {
          "internalType": "uint256",
          "name": "",
          "type": "uint256"
        }
      ],
      "stateMutability": "view",
      "type": "function"
    },
    {
      "inputs": [],
      "name": "MAX_CONTRACT_REWARD_BP",
      "outputs": [
        {
          "internalType": "uint256",
          "name": "",
          "type": "uint256"
        }
      ],
      "stateMutability": "view",
      "type": "function"
    },
    {
      "inputs": [],
      "name": "MAX_HOLD_BONUS_BP",
      "outputs": [
        {
          "internalType": "uint256",
          "name": "",
          "type": "uint256"
        }
      ],
      "stateMutability": "view",
      "type": "function"
    },
    {
      "inputs": [],
      "name": "MAX_WITHDRAWAL_OVER_REWARD_THRESHOLD_BP",
      "outputs": [
        {
          "internalType": "uint256",
          "name": "",
          "type": "uint256"
        }
      ],
      "stateMutability": "view",
      "type": "function"
    },
    {
      "inputs": [],
      "name": "REF_COMMISSION_BP",
      "outputs": [
        {
          "internalType": "uint256",
          "name": "",
          "type": "uint256"
        }
      ],
      "stateMutability": "view",
      "type": "function"
    },
    {
      "inputs": [],
      "name": "REF_POOL_FEE_BP",
      "outputs": [
        {
          "internalType": "uint256",
          "name": "",
          "type": "uint256"
        }
      ],
      "stateMutability": "view",
      "type": "function"
    },
    {
      "inputs": [],
      "name": "REWARD_THRESHOLD_BP",
      "outputs": [
        {
          "internalType": "uint256",
          "name": "",
          "type": "uint256"
        }
      ],
      "stateMutability": "view",
      "type": "function"
    },
    {
      "inputs": [],
      "name": "SPONSOR_POOL_FEE_BP",
      "outputs": [
        {
          "internalType": "uint256",
          "name": "",
          "type": "uint256"
        }
      ],
      "stateMutability": "view",
      "type": "function"
    }
  ],
  "bytecode": "0x608060405234801561001057600080fd5b5061019a806100206000396000f3fe608060405234801561001057600080fd5b50600436106100c55760003560e01c806303162d2c146100ca5780630781235a146100e45780630ac39f72146100ec5780630f9fa6aa146100e457806312dd5fe4146100e4578063498dc5b5146100f457806369da94d8146100fc5780639b6eec7d146100f4578063a00d498014610104578063a13a801a1461010c578063aaf1a0da1461010c578063b963ddb414610114578063d902f40c1461011c578063e523141114610124578063f48e595a14610124575b600080fd5b6100d261012c565b60408051918252519081900360200190f35b6100d2610132565b6100d2610138565b6100d261013d565b6100d2610143565b6100d2610149565b6100d261014f565b6100d2610154565b6100d261015a565b6100d261015f565b61a8c081565b61012c81565b600281565b61138881565b61753081565b6103e881565b603281565b6102bc81565b600181565b60648156fea26469706673582212208f6003b2ee8575dc2519fbf4945103200f7da34dc5ad5d402de0d0bed13d87a364736f6c634300060c0033",
  "compiler": {
    "name": "solc",
    "version": "0.6.12+commit.27d51765.Emscripten.clang",
    "optimizer": {
      "enabled": true,
      "runs": 1
    },
    "evmVersion": "petersburg"
  }
}