{
  "fileName": "Constants.sol",
  "contractName": "Constants",
  "source": "// SPDX-License-Identifier: MIT\npragma solidity ^0.6.12;\n\n\ncontract Constants {\n    uint public constant MAX_CONTRACT_REWARD_BP = 37455; // 374.55%\n\n    uint public constant LP_FEE_BP = 5; // 5%\n    uint public constant REF_COMMISSION_BP = 800; // 8%\n\n    // Ref and sponsor pools\n    uint public constant REF_POOL_FEE_BP = 50; // 0.5%, goes to ref pool from each deposit\n    uint public constant SPONSOR_POOL_FEE_BP = 50; // 0.5%, goes to sponsor pool from each deposit\n\n    uint public constant EXIT_PENALTY_BP = 5000; // 50%, deduct from user's initial deposit on exit\n\n    // Contract bonus\n    uint public constant MAX_CONTRACT_BONUS_BP = 300; // maximum bonus a user can get 3%\n    uint public constant CONTRACT_BONUS_UNIT = 250;    // For each 250 token balance of contract, gives\n    uint public constant CONTRACT_BONUS_PER_UNIT_BP = 1; // 0.01% extra interest\n\n    // Hold bonus\n    uint public constant MAX_HOLD_BONUS_BP = 100; // Maximum 1% hold bonus\n    uint public constant HOLD_BONUS_UNIT = 43200; // 12 hours\n    uint public constant HOLD_BONUS_PER_UNIT_BP = 2; // 0.02% hold bonus for each 12 hours of hold\n\n    uint public constant REWARD_THRESHOLD_BP = 300; // User will only get hold bonus if his rewards are more then 3% of his deposit\n\n    uint public constant MAX_WITHDRAWAL_OVER_REWARD_THRESHOLD_BP = 300; // Max daily withdrawal limit if user is above REWARD_THRESHOLD_BP\n\n    uint public constant DEV_FEE_BP = 500; // 5%\n}\n",
  "sourcePath": "contracts/Constants.sol",
  "abi": [
    {
      "inputs": [],
      "name": "CONTRACT_BONUS_PER_UNIT_BP",
      "outputs": [
        {
          "internalType": "uint256",
          "name": "",
          "type": "uint256"
        }
      ],
      "stateMutability": "view",
      "type": "function"
    },
    {
      "inputs": [],
      "name": "CONTRACT_BONUS_UNIT",
      "outputs": [
        {
          "internalType": "uint256",
          "name": "",
          "type": "uint256"
        }
      ],
      "stateMutability": "view",
      "type": "function"
    },
    {
      "inputs": [],
      "name": "DEV_FEE_BP",
      "outputs": [
        {
          "internalType": "uint256",
          "name": "",
          "type": "uint256"
        }
      ],
      "stateMutability": "view",
      "type": "function"
    },
    {
      "inputs": [],
      "name": "EXIT_PENALTY_BP",
      "outputs": [
        {
          "internalType": "uint256",
          "name": "",
          "type": "uint256"
        }
      ],
      "stateMutability": "view",
      "type": "function"
    },
    {
      "inputs": [],
      "name": "HOLD_BONUS_PER_UNIT_BP",
      "outputs": [
        {
          "internalType": "uint256",
          "name": "",
          "type": "uint256"
        }
      ],
      "stateMutability": "view",
      "type": "function"
    },
    {
      "inputs": [],
      "name": "HOLD_BONUS_UNIT",
      "outputs": [
        {
          "internalType": "uint256",
          "name": "",
          "type": "uint256"
        }
      ],
      "stateMutability": "view",
      "type": "function"
    },
    {
      "inputs": [],
      "name": "LP_FEE_BP",
      "outputs": [
        {
          "internalType": "uint256",
          "name": "",
          "type": "uint256"
        }
      ],
      "stateMutability": "view",
      "type": "function"
    },
    {
      "inputs": [],
      "name": "MAX_CONTRACT_BONUS_BP",
      "outputs": [
        {
          "internalType": "uint256",
          "name": "",
          "type": "uint256"
        }
      ],
      "stateMutability": "view",
      "type": "function"
    },
    {
      "inputs": [],
      "name": "MAX_CONTRACT_REWARD_BP",
      "outputs": [
        {
          "internalType": "uint256",
          "name": "",
          "type": "uint256"
        }
      ],
      "stateMutability": "view",
      "type": "function"
    },
    {
      "inputs": [],
      "name": "MAX_HOLD_BONUS_BP",
      "outputs": [
        {
          "internalType": "uint256",
          "name": "",
          "type": "uint256"
        }
      ],
      "stateMutability": "view",
      "type": "function"
    },
    {
      "inputs": [],
      "name": "MAX_WITHDRAWAL_OVER_REWARD_THRESHOLD_BP",
      "outputs": [
        {
          "internalType": "uint256",
          "name": "",
          "type": "uint256"
        }
      ],
      "stateMutability": "view",
      "type": "function"
    },
    {
      "inputs": [],
      "name": "REF_COMMISSION_BP",
      "outputs": [
        {
          "internalType": "uint256",
          "name": "",
          "type": "uint256"
        }
      ],
      "stateMutability": "view",
      "type": "function"
    },
    {
      "inputs": [],
      "name": "REF_POOL_FEE_BP",
      "outputs": [
        {
          "internalType": "uint256",
          "name": "",
          "type": "uint256"
        }
      ],
      "stateMutability": "view",
      "type": "function"
    },
    {
      "inputs": [],
      "name": "REWARD_THRESHOLD_BP",
      "outputs": [
        {
          "internalType": "uint256",
          "name": "",
          "type": "uint256"
        }
      ],
      "stateMutability": "view",
      "type": "function"
    },
    {
      "inputs": [],
      "name": "SPONSOR_POOL_FEE_BP",
      "outputs": [
        {
          "internalType": "uint256",
          "name": "",
          "type": "uint256"
        }
      ],
      "stateMutability": "view",
      "type": "function"
    }
  ],
  "bytecode": "0x608060405234801561001057600080fd5b506101b4806100206000396000f3fe608060405234801561001057600080fd5b50600436106100c55760003560e01c806303162d2c146100ca5780630781235a146100e45780630ac39f72146100ec5780630f9fa6aa146100e457806312dd5fe4146100e4578063498dc5b5146100f457806369da94d8146100fc5780639b6eec7d14610104578063a00d49801461010c578063a13a801a14610114578063aaf1a0da14610114578063b963ddb41461011c578063d902f40c14610124578063e52314111461012c578063f48e595a14610134575b600080fd5b6100d261013c565b60408051918252519081900360200190f35b6100d2610142565b6100d2610148565b6100d261014d565b6100d2610153565b6100d2610159565b6100d261015f565b6100d2610164565b6100d2610169565b6100d261016f565b6100d2610174565b6100d2610179565b61a8c081565b61012c81565b600281565b61138881565b61924f81565b6101f481565b600581565b603281565b61032081565b600181565b606481565b60fa8156fea2646970667358221220e7de368c186643bb35f500cc16158c2332bc1e80e74fa8cec0e8a0e508cca5fa64736f6c634300060c0033",
  "compiler": {
    "name": "solc",
    "version": "0.6.12+commit.27d51765.Emscripten.clang",
    "optimizer": {
      "enabled": true,
      "runs": 1
    },
    "evmVersion": "petersburg"
  }
}