{
  "fileName": "CustomSortedLinkedList.sol",
  "contractName": "CustomSortedLinkedList",
  "source": "pragma solidity ^0.6.12;\n\ncontract CustomSortedLinkedList {\n\n    struct Item {\n        uint score;\n        address next;\n    }\n\n    mapping(address => Item) public items;\n\n    struct ArrayItem {\n        address current;\n        uint score;\n        uint next;\n    }\n\n    ArrayItem[13] itemsArray;\n\n    address constant public GUARD = address(0);\n\n    function addItem(address user, uint score, address prev) public {\n        require(_verify(score, prev));\n        Item memory item;\n        item.score = score;\n        item.next = items[prev].next;\n        items[user] = item;\n        items[prev].next = user;\n    }\n\n    function addArrayItem(address user, uint score, uint prev) public {\n        ArrayItem memory item;\n        item.score = score;\n        item.next = itemsArray[prev].next;\n        item.current = user;\n\n        itemsArray[itemsArray.length] = item;\n\n        itemsArray[prev].next = itemsArray.length;\n    }\n\n//    function getArrayList() public view returns (uint[] memory) {\n//\n//    }\n\n    function _verify(uint score, address prev) internal view returns (bool) {\n        return prev == GUARD ||\n        (score <= items[prev].score && score > items[items[prev].next].score);\n    }\n\n    function getList(uint k) public view returns (uint[] memory) {\n        uint[] memory list = new uint[](k);\n        Item memory currItem = items[GUARD];\n        uint i = 0;\n        while (currItem.next != GUARD && i < k) {\n            list[i] = currItem.score;\n            currItem = items[currItem.next];\n            i++;\n        }\n        return list;\n    }\n}\n",
  "sourcePath": "contracts/SortedLinkedList/CustomSortedLinkedList.sol",
  "abi": [
    {
      "inputs": [],
      "name": "GUARD",
      "outputs": [
        {
          "internalType": "address",
          "name": "",
          "type": "address"
        }
      ],
      "stateMutability": "view",
      "type": "function"
    },
    {
      "inputs": [
        {
          "internalType": "address",
          "name": "user",
          "type": "address"
        },
        {
          "internalType": "uint256",
          "name": "score",
          "type": "uint256"
        },
        {
          "internalType": "uint256",
          "name": "prev",
          "type": "uint256"
        }
      ],
      "name": "addArrayItem",
      "outputs": [],
      "stateMutability": "nonpayable",
      "type": "function"
    },
    {
      "inputs": [
        {
          "internalType": "address",
          "name": "user",
          "type": "address"
        },
        {
          "internalType": "uint256",
          "name": "score",
          "type": "uint256"
        },
        {
          "internalType": "address",
          "name": "prev",
          "type": "address"
        }
      ],
      "name": "addItem",
      "outputs": [],
      "stateMutability": "nonpayable",
      "type": "function"
    },
    {
      "inputs": [
        {
          "internalType": "uint256",
          "name": "k",
          "type": "uint256"
        }
      ],
      "name": "getList",
      "outputs": [
        {
          "internalType": "uint256[]",
          "name": "",
          "type": "uint256[]"
        }
      ],
      "stateMutability": "view",
      "type": "function"
    },
    {
      "inputs": [
        {
          "internalType": "address",
          "name": "",
          "type": "address"
        }
      ],
      "name": "items",
      "outputs": [
        {
          "internalType": "uint256",
          "name": "score",
          "type": "uint256"
        },
        {
          "internalType": "address",
          "name": "next",
          "type": "address"
        }
      ],
      "stateMutability": "view",
      "type": "function"
    }
  ],
  "bytecode": "0x608060405234801561001057600080fd5b5061049f806100206000396000f3fe608060405234801561001057600080fd5b50600436106100575760003560e01c80631ab5b3831461005c5780637e5a9e49146100c9578063d321411c14610101578063fe3348f914610148578063ff7e9d201461016c575b600080fd5b6100796004803603602081101561007257600080fd5b503561019e565b60408051602080825283518183015283519192839290830191858101910280838360005b838110156100b557818101518382015260200161009d565b505050509050019250505060405180910390f35b6100ff600480360360608110156100df57600080fd5b506001600160a01b038135811691602081013591604090910135166102e1565b005b6101276004803603602081101561011757600080fd5b50356001600160a01b0316610360565b604080519283526001600160a01b0390911660208301528051918290030190f35b610150610382565b604080516001600160a01b039092168252519081900360200190f35b6100ff6004803603606081101561018257600080fd5b506001600160a01b038135169060208101359060400135610387565b606080826001600160401b03811180156101b757600080fd5b506040519080825280602002602001820160405280156101e1578160200160208202803683370190505b5090506101ec610428565b5060008080526020818152604080518082019091527fad3228b676f7d3cd4284a5443f17f1962b36e491b30a40b2405849e597ba5fb55481527fad3228b676f7d3cd4284a5443f17f1962b36e491b30a40b2405849e597ba5fb6546001600160a01b031691810191909152905b60208201516001600160a01b03161580159061027457508481105b156102d857816000015183828151811061028a57fe5b602090810291909101810191909152918201516001600160a01b0390811660009081528084526040908190208151808301909252805482526001908101549092169381019390935201610259565b50909392505050565b6102eb82826103c3565b6102f457600080fd5b6102fc610428565b9182526001600160a01b0390811660008181526020818152604080832060019081018054871684890190815298871680865293859052918420965187559651959096018054959094166001600160a01b031995861617909355528254909116179055565b600060208190529081526040902080546001909101546001600160a01b031682565b600081565b61038f61043f565b60208101839052600182600d81106103a357fe5b600302016002015460408201526001600160a01b0384168152806001600dfe5b60006001600160a01b038216158061042157506001600160a01b038216600090815260208190526040902054831180159061042157506001600160a01b03808316600090815260208190526040808220600101549092168152205483115b9392505050565b604080518082019091526000808252602082015290565b604051806060016040528060006001600160a01b031681526020016000815260200160008152509056fea2646970667358221220784882868280940793ab9a436bad19efb5dad2b87f09cc374dcdd3159b31304564736f6c634300060c0033",
  "compiler": {
    "name": "solc",
    "version": "0.6.12+commit.27d51765.Emscripten.clang",
    "optimizer": {
      "enabled": true,
      "runs": 1
    },
    "evmVersion": "petersburg"
  }
}