{
  "fileName": "FourRXFinance.sol",
  "contractName": "FourRXFinance",
  "source": "// SPDX-License-Identifier: MIT\npragma solidity ^0.6.12;\n\npragma experimental ABIEncoderV2;\nimport \"@openzeppelin/contracts/token/ERC20/IERC20.sol\";\nimport \"./Insurance.sol\";\n\n/// @title 4RX Finance Staking DAPP Contract\n/// @notice Available functionality: Deposit, Withdraw, ExitProgram, Insure Stake\n/// @dev\ncontract FourRXFinance is Insurance {\n\n    constructor(address fourRXTokenAddress) public {\n        fourRXToken = IERC20(fourRXTokenAddress);\n\n        // Ref Bonus // 12 Max Participants\n        refPoolBonuses.push(2000); // 20%\n        refPoolBonuses.push(1700); // 17%\n        refPoolBonuses.push(1400); // 14%\n        refPoolBonuses.push(1100); // 11%\n        refPoolBonuses.push(1000); // 10%\n        refPoolBonuses.push(700); // 7%\n        refPoolBonuses.push(600); // 6%\n        refPoolBonuses.push(500); // 5%\n        refPoolBonuses.push(400); // 4%\n        refPoolBonuses.push(300); // 3%\n        refPoolBonuses.push(200); // 2%\n        refPoolBonuses.push(100); // 1%\n\n        // Sponsor Pool // 10 Max Participants\n        sponsorPoolBonuses.push(3000); // 30%\n        sponsorPoolBonuses.push(2000); // 20%\n        sponsorPoolBonuses.push(1200); // 12%\n        sponsorPoolBonuses.push(1000); // 10%\n        sponsorPoolBonuses.push(800); // 8%\n        sponsorPoolBonuses.push(700); // 7%\n        sponsorPoolBonuses.push(600); // 6%\n        sponsorPoolBonuses.push(400); // 4%\n        sponsorPoolBonuses.push(200); // 2%\n        sponsorPoolBonuses.push(100); // 1%\n\n        _resetPools();\n\n        poolCycle = 0;\n    }\n\n    function deposit(uint amount, address uplinkAddress, uint8 uplinkStakeId) external {\n        // 2k\n        require(\n            uplinkAddress == address(0) ||\n            (users[uplinkAddress].wallet != address(0) && users[uplinkAddress].stakes[uplinkStakeId].active)\n        ); // Either uplink must be registered and be a active deposit, 0 address\n\n        User storage user = users[msg.sender];\n        // 1k\n        if (users[msg.sender].stakes.length > 0) {\n            require(amount >= users[msg.sender].stakes[user.stakes.length - 1].deposit.mul(2)); // deposit amount must be greater 2x then last deposit\n        }\n        // 30k\n        require(fourRXToken.transferFrom(msg.sender, address(this), amount));\n        // 66k\n        drawPool(); // Draw old pool if qualified, and we're pretty sure that this stake is going to be created\n\n        uint depositReward = _calcDepositRewards(amount);\n\n        Stake memory stake;\n\n        user.wallet = msg.sender;\n\n        stake.id = uint8(user.stakes.length);\n        stake.active = true;\n        stake.interestCountFrom = uint32(block.timestamp);\n        stake.holdFrom = uint32(block.timestamp);\n\n        stake.deposit = amount.sub(_calcPercentage(amount, LP_FEE_BP)).add(depositReward); // Deduct LP Commission + add deposit rewards\n\n        // 33k\n        _updateSponsorPoolUsers(user, stake);\n        // 54k\n        if (uplinkAddress != address(0)) {\n            _distributeReferralReward(amount, stake, uplinkAddress, uplinkStakeId);\n        }\n\n        user.stakes.push(stake);\n        // 12k\n        refPoolBalance = refPoolBalance.add(_calcPercentage(amount, REF_POOL_FEE_BP));\n        // 20k\n        sponsorPoolBalance = sponsorPoolBalance.add(_calcPercentage(amount, SPONSOR_POOL_FEE_BP));\n\n        // 14k\n        devBalance = devBalance.add(_calcPercentage(amount, DEV_FEE_BP));\n\n        uint currentContractBalance = fourRXToken.balanceOf(address(this));\n\n        if (currentContractBalance > maxContractBalance) {\n            maxContractBalance = currentContractBalance;\n        }\n\n        // 54k\n        totalDepositRewards = totalDepositRewards.add(depositReward);\n\n        emit Deposit(msg.sender, amount, uplinkAddress, uplinkStakeId);\n    }\n\n\n    function balanceOf(address _userAddress, uint stakeId) external view returns (uint) {\n        require(users[_userAddress].wallet == _userAddress);\n        User memory user = users[_userAddress];\n\n        return _calcRewards(user.stakes[stakeId]).sub(user.stakes[stakeId].withdrawn);\n    }\n\n    function withdraw(uint stakeId) external {\n        User storage user = users[msg.sender];\n        Stake storage stake = user.stakes[stakeId];\n        require(user.wallet == msg.sender && stake.active); // stake should be active\n\n        require(stake.lastWithdrawalAt + 1 days < block.timestamp); // we only allow one withdrawal each day\n\n        uint availableAmount = _calcRewards(stake).sub(stake.withdrawn).sub(stake.penalty);\n\n        require(availableAmount > 0);\n\n        uint penalty = _calcPenalty(stake, availableAmount);\n\n        if (penalty == 0) {\n            availableAmount = availableAmount.sub(_calcPercentage(stake.deposit, REWARD_THRESHOLD_BP)); // Only allow withdrawal if available is more then 10% of base\n\n            uint maxAllowedWithdrawal = _calcPercentage(stake.deposit, MAX_WITHDRAWAL_OVER_REWARD_THRESHOLD_BP);\n\n            if (availableAmount > maxAllowedWithdrawal) {\n                availableAmount = maxAllowedWithdrawal;\n            }\n        }\n\n        if (isInInsuranceState) {\n            availableAmount = _getInsuredAvailableAmount(stake, availableAmount);\n        }\n\n        availableAmount = availableAmount.sub(penalty);\n\n        fourRXToken.transfer(user.wallet, availableAmount);\n\n        stake.withdrawn = stake.withdrawn.add(availableAmount);\n        stake.lastWithdrawalAt = uint32(block.timestamp);\n        stake.holdFrom = uint32(block.timestamp);\n\n        stake.penalty = stake.penalty.add(penalty);\n\n        if (stake.withdrawn >= _calcPercentage(stake.deposit, MAX_CONTRACT_REWARD_BP)) {\n            stake.active = false; // if stake has withdrawn equals to or more then the max amount, then mark stake in-active\n        }\n\n        _checkForBaseInsuranceTrigger();\n\n        emit Withdrawn(user.wallet, availableAmount);\n    }\n\n    function exitProgram(uint stakeId) external {\n        User storage user = users[msg.sender];\n        require(user.wallet == msg.sender);\n        Stake storage stake = user.stakes[stakeId];\n        uint availableAmount = stake.deposit;\n        uint penaltyAmount = _calcPercentage(stake.deposit, EXIT_PENALTY_BP);\n\n        availableAmount = availableAmount.sub(penaltyAmount);\n\n        uint withdrawn = stake.withdrawn.add(stake.penalty);\n        require(withdrawn <= availableAmount);\n        availableAmount = availableAmount.sub(withdrawn);\n\n        fourRXToken.transfer(user.wallet, availableAmount);\n\n        stake.active = false;\n        stake.withdrawn = stake.withdrawn.add(availableAmount);\n        stake.penalty = stake.penalty.add(penaltyAmount);\n\n        totalExited = totalExited.add(1);\n\n        emit Exited(user.wallet, stakeId, availableAmount);\n    }\n\n    function insureStake(uint stakeId) external {\n        User storage user = users[msg.sender];\n        require(user.wallet == msg.sender);\n        Stake storage stake = user.stakes[stakeId];\n        _insureStake(user.wallet, stake);\n    }\n\n    // Getters\n\n    function getUser(address userAddress) external view returns (User memory) {\n        return users[userAddress];\n    }\n\n    function getContractInfo() external view returns (uint, bool, uint, uint) {\n        return (maxContractBalance, isInInsuranceState, totalDepositRewards, totalExited);\n    }\n\n    function withdrawDevFee(address withdrawingAddress, uint amount) external {\n        require(msg.sender == devAddress);\n        require(amount <= devBalance);\n        fourRXToken.transfer(withdrawingAddress, amount);\n        devBalance = devBalance.sub(amount);\n    }\n\n    function updateDevAddress(address newDevAddress) external {\n        require(msg.sender == devAddress);\n        devAddress = newDevAddress;\n    }\n}\n",
  "sourcePath": "contracts/FourRXFinance.sol",
  "abi": [
    {
      "inputs": [
        {
          "internalType": "address",
          "name": "fourRXTokenAddress",
          "type": "address"
        }
      ],
      "stateMutability": "nonpayable",
      "type": "constructor"
    },
    {
      "anonymous": false,
      "inputs": [
        {
          "indexed": false,
          "internalType": "address",
          "name": "user",
          "type": "address"
        },
        {
          "indexed": false,
          "internalType": "uint256",
          "name": "amount",
          "type": "uint256"
        },
        {
          "indexed": false,
          "internalType": "address",
          "name": "uplinkAddress",
          "type": "address"
        },
        {
          "indexed": false,
          "internalType": "uint256",
          "name": "uplinkStakeId",
          "type": "uint256"
        }
      ],
      "name": "Deposit",
      "type": "event"
    },
    {
      "anonymous": false,
      "inputs": [
        {
          "indexed": false,
          "internalType": "address",
          "name": "user",
          "type": "address"
        },
        {
          "indexed": false,
          "internalType": "uint256",
          "name": "stakeId",
          "type": "uint256"
        },
        {
          "indexed": false,
          "internalType": "uint256",
          "name": "amount",
          "type": "uint256"
        }
      ],
      "name": "Exited",
      "type": "event"
    },
    {
      "anonymous": false,
      "inputs": [
        {
          "indexed": false,
          "internalType": "uint256",
          "name": "refPoolAmount",
          "type": "uint256"
        },
        {
          "indexed": false,
          "internalType": "uint256",
          "name": "sponsorPoolAmount",
          "type": "uint256"
        }
      ],
      "name": "PoolDrawn",
      "type": "event"
    },
    {
      "anonymous": false,
      "inputs": [
        {
          "indexed": false,
          "internalType": "address",
          "name": "user",
          "type": "address"
        },
        {
          "indexed": false,
          "internalType": "uint256",
          "name": "amount",
          "type": "uint256"
        }
      ],
      "name": "ReInvest",
      "type": "event"
    },
    {
      "anonymous": false,
      "inputs": [
        {
          "indexed": false,
          "internalType": "address",
          "name": "user",
          "type": "address"
        },
        {
          "indexed": false,
          "internalType": "uint256",
          "name": "amount",
          "type": "uint256"
        }
      ],
      "name": "Withdrawn",
      "type": "event"
    },
    {
      "inputs": [],
      "name": "CONTRACT_BONUS_PER_UNIT_BP",
      "outputs": [
        {
          "internalType": "uint256",
          "name": "",
          "type": "uint256"
        }
      ],
      "stateMutability": "view",
      "type": "function"
    },
    {
      "inputs": [],
      "name": "CONTRACT_BONUS_UNIT",
      "outputs": [
        {
          "internalType": "uint256",
          "name": "",
          "type": "uint256"
        }
      ],
      "stateMutability": "view",
      "type": "function"
    },
    {
      "inputs": [],
      "name": "DAY",
      "outputs": [
        {
          "internalType": "uint256",
          "name": "",
          "type": "uint256"
        }
      ],
      "stateMutability": "view",
      "type": "function"
    },
    {
      "inputs": [],
      "name": "DEV_FEE_BP",
      "outputs": [
        {
          "internalType": "uint256",
          "name": "",
          "type": "uint256"
        }
      ],
      "stateMutability": "view",
      "type": "function"
    },
    {
      "inputs": [],
      "name": "EXIT_PENALTY_BP",
      "outputs": [
        {
          "internalType": "uint256",
          "name": "",
          "type": "uint256"
        }
      ],
      "stateMutability": "view",
      "type": "function"
    },
    {
      "inputs": [],
      "name": "HOLD_BONUS_PER_UNIT_BP",
      "outputs": [
        {
          "internalType": "uint256",
          "name": "",
          "type": "uint256"
        }
      ],
      "stateMutability": "view",
      "type": "function"
    },
    {
      "inputs": [],
      "name": "HOLD_BONUS_UNIT",
      "outputs": [
        {
          "internalType": "uint256",
          "name": "",
          "type": "uint256"
        }
      ],
      "stateMutability": "view",
      "type": "function"
    },
    {
      "inputs": [],
      "name": "LP_FEE_BP",
      "outputs": [
        {
          "internalType": "uint256",
          "name": "",
          "type": "uint256"
        }
      ],
      "stateMutability": "view",
      "type": "function"
    },
    {
      "inputs": [],
      "name": "MAX_CONTRACT_BONUS_BP",
      "outputs": [
        {
          "internalType": "uint256",
          "name": "",
          "type": "uint256"
        }
      ],
      "stateMutability": "view",
      "type": "function"
    },
    {
      "inputs": [],
      "name": "MAX_CONTRACT_REWARD_BP",
      "outputs": [
        {
          "internalType": "uint256",
          "name": "",
          "type": "uint256"
        }
      ],
      "stateMutability": "view",
      "type": "function"
    },
    {
      "inputs": [],
      "name": "MAX_HOLD_BONUS_BP",
      "outputs": [
        {
          "internalType": "uint256",
          "name": "",
          "type": "uint256"
        }
      ],
      "stateMutability": "view",
      "type": "function"
    },
    {
      "inputs": [],
      "name": "MAX_REF_POOL_USERS",
      "outputs": [
        {
          "internalType": "uint8",
          "name": "",
          "type": "uint8"
        }
      ],
      "stateMutability": "view",
      "type": "function"
    },
    {
      "inputs": [],
      "name": "MAX_SPONSOR_POOL_USERS",
      "outputs": [
        {
          "internalType": "uint8",
          "name": "",
          "type": "uint8"
        }
      ],
      "stateMutability": "view",
      "type": "function"
    },
    {
      "inputs": [],
      "name": "MAX_WITHDRAWAL_OVER_REWARD_THRESHOLD_BP",
      "outputs": [
        {
          "internalType": "uint256",
          "name": "",
          "type": "uint256"
        }
      ],
      "stateMutability": "view",
      "type": "function"
    },
    {
      "inputs": [],
      "name": "PERCENT_MULTIPLIER",
      "outputs": [
        {
          "internalType": "uint256",
          "name": "",
          "type": "uint256"
        }
      ],
      "stateMutability": "view",
      "type": "function"
    },
    {
      "inputs": [],
      "name": "REF_COMMISSION_BP",
      "outputs": [
        {
          "internalType": "uint256",
          "name": "",
          "type": "uint256"
        }
      ],
      "stateMutability": "view",
      "type": "function"
    },
    {
      "inputs": [],
      "name": "REF_POOL_FEE_BP",
      "outputs": [
        {
          "internalType": "uint256",
          "name": "",
          "type": "uint256"
        }
      ],
      "stateMutability": "view",
      "type": "function"
    },
    {
      "inputs": [],
      "name": "REWARD_THRESHOLD_BP",
      "outputs": [
        {
          "internalType": "uint256",
          "name": "",
          "type": "uint256"
        }
      ],
      "stateMutability": "view",
      "type": "function"
    },
    {
      "inputs": [],
      "name": "SPONSOR_POOL_FEE_BP",
      "outputs": [
        {
          "internalType": "uint256",
          "name": "",
          "type": "uint256"
        }
      ],
      "stateMutability": "view",
      "type": "function"
    },
    {
      "inputs": [
        {
          "internalType": "address",
          "name": "user",
          "type": "address"
        },
        {
          "internalType": "uint256",
          "name": "amount",
          "type": "uint256"
        },
        {
          "internalType": "uint8",
          "name": "stakeId",
          "type": "uint8"
        }
      ],
      "name": "_addRefPoolRecord",
      "outputs": [],
      "stateMutability": "nonpayable",
      "type": "function"
    },
    {
      "inputs": [],
      "name": "_cleanRefPoolUsers",
      "outputs": [],
      "stateMutability": "nonpayable",
      "type": "function"
    },
    {
      "inputs": [
        {
          "internalType": "address",
          "name": "_userAddress",
          "type": "address"
        },
        {
          "internalType": "uint256",
          "name": "stakeId",
          "type": "uint256"
        }
      ],
      "name": "balanceOf",
      "outputs": [
        {
          "internalType": "uint256",
          "name": "",
          "type": "uint256"
        }
      ],
      "stateMutability": "view",
      "type": "function"
    },
    {
      "inputs": [
        {
          "internalType": "uint256",
          "name": "amount",
          "type": "uint256"
        },
        {
          "internalType": "address",
          "name": "uplinkAddress",
          "type": "address"
        },
        {
          "internalType": "uint8",
          "name": "uplinkStakeId",
          "type": "uint8"
        }
      ],
      "name": "deposit",
      "outputs": [],
      "stateMutability": "nonpayable",
      "type": "function"
    },
    {
      "inputs": [],
      "name": "devAddress",
      "outputs": [
        {
          "internalType": "address",
          "name": "",
          "type": "address"
        }
      ],
      "stateMutability": "view",
      "type": "function"
    },
    {
      "inputs": [],
      "name": "devBalance",
      "outputs": [
        {
          "internalType": "uint256",
          "name": "",
          "type": "uint256"
        }
      ],
      "stateMutability": "view",
      "type": "function"
    },
    {
      "inputs": [],
      "name": "drawPool",
      "outputs": [],
      "stateMutability": "nonpayable",
      "type": "function"
    },
    {
      "inputs": [
        {
          "internalType": "uint256",
          "name": "stakeId",
          "type": "uint256"
        }
      ],
      "name": "exitProgram",
      "outputs": [],
      "stateMutability": "nonpayable",
      "type": "function"
    },
    {
      "inputs": [],
      "name": "fourRXToken",
      "outputs": [
        {
          "internalType": "contract IERC20",
          "name": "",
          "type": "address"
        }
      ],
      "stateMutability": "view",
      "type": "function"
    },
    {
      "inputs": [],
      "name": "getContractInfo",
      "outputs": [
        {
          "internalType": "uint256",
          "name": "",
          "type": "uint256"
        },
        {
          "internalType": "bool",
          "name": "",
          "type": "bool"
        },
        {
          "internalType": "uint256",
          "name": "",
          "type": "uint256"
        },
        {
          "internalType": "uint256",
          "name": "",
          "type": "uint256"
        }
      ],
      "stateMutability": "view",
      "type": "function"
    },
    {
      "inputs": [],
      "name": "getPoolInfo",
      "outputs": [
        {
          "internalType": "uint32",
          "name": "",
          "type": "uint32"
        },
        {
          "internalType": "uint16",
          "name": "",
          "type": "uint16"
        },
        {
          "internalType": "uint256",
          "name": "",
          "type": "uint256"
        },
        {
          "internalType": "uint256",
          "name": "",
          "type": "uint256"
        }
      ],
      "stateMutability": "view",
      "type": "function"
    },
    {
      "inputs": [],
      "name": "getPoolParticipants",
      "outputs": [
        {
          "internalType": "address[]",
          "name": "",
          "type": "address[]"
        },
        {
          "internalType": "uint8[]",
          "name": "",
          "type": "uint8[]"
        },
        {
          "internalType": "uint256[]",
          "name": "",
          "type": "uint256[]"
        },
        {
          "internalType": "address[]",
          "name": "",
          "type": "address[]"
        },
        {
          "internalType": "uint8[]",
          "name": "",
          "type": "uint8[]"
        },
        {
          "internalType": "uint256[]",
          "name": "",
          "type": "uint256[]"
        }
      ],
      "stateMutability": "view",
      "type": "function"
    },
    {
      "inputs": [
        {
          "internalType": "address",
          "name": "userAddress",
          "type": "address"
        }
      ],
      "name": "getUser",
      "outputs": [
        {
          "components": [
            {
              "internalType": "address",
              "name": "wallet",
              "type": "address"
            },
            {
              "components": [
                {
                  "internalType": "uint8",
                  "name": "id",
                  "type": "uint8"
                },
                {
                  "internalType": "bool",
                  "name": "active",
                  "type": "bool"
                },
                {
                  "internalType": "bool",
                  "name": "optInInsured",
                  "type": "bool"
                },
                {
                  "internalType": "uint32",
                  "name": "holdFrom",
                  "type": "uint32"
                },
                {
                  "internalType": "uint32",
                  "name": "interestCountFrom",
                  "type": "uint32"
                },
                {
                  "internalType": "uint32",
                  "name": "lastWithdrawalAt",
                  "type": "uint32"
                },
                {
                  "internalType": "uint256",
                  "name": "deposit",
                  "type": "uint256"
                },
                {
                  "internalType": "uint256",
                  "name": "withdrawn",
                  "type": "uint256"
                },
                {
                  "internalType": "uint256",
                  "name": "penalty",
                  "type": "uint256"
                },
                {
                  "internalType": "uint256",
                  "name": "rewards",
                  "type": "uint256"
                }
              ],
              "internalType": "struct SharedVariables.Stake[]",
              "name": "stakes",
              "type": "tuple[]"
            }
          ],
          "internalType": "struct SharedVariables.User",
          "name": "",
          "type": "tuple"
        }
      ],
      "stateMutability": "view",
      "type": "function"
    },
    {
      "inputs": [
        {
          "internalType": "uint256",
          "name": "stakeId",
          "type": "uint256"
        }
      ],
      "name": "insureStake",
      "outputs": [],
      "stateMutability": "nonpayable",
      "type": "function"
    },
    {
      "inputs": [],
      "name": "isInInsuranceState",
      "outputs": [
        {
          "internalType": "bool",
          "name": "",
          "type": "bool"
        }
      ],
      "stateMutability": "view",
      "type": "function"
    },
    {
      "inputs": [],
      "name": "maxContractBalance",
      "outputs": [
        {
          "internalType": "uint256",
          "name": "",
          "type": "uint256"
        }
      ],
      "stateMutability": "view",
      "type": "function"
    },
    {
      "inputs": [],
      "name": "poolCycle",
      "outputs": [
        {
          "internalType": "uint16",
          "name": "",
          "type": "uint16"
        }
      ],
      "stateMutability": "view",
      "type": "function"
    },
    {
      "inputs": [],
      "name": "poolDrewAt",
      "outputs": [
        {
          "internalType": "uint32",
          "name": "",
          "type": "uint32"
        }
      ],
      "stateMutability": "view",
      "type": "function"
    },
    {
      "inputs": [],
      "name": "refPoolBalance",
      "outputs": [
        {
          "internalType": "uint256",
          "name": "",
          "type": "uint256"
        }
      ],
      "stateMutability": "view",
      "type": "function"
    },
    {
      "inputs": [
        {
          "internalType": "uint256",
          "name": "",
          "type": "uint256"
        }
      ],
      "name": "refPoolBonuses",
      "outputs": [
        {
          "internalType": "uint256",
          "name": "",
          "type": "uint256"
        }
      ],
      "stateMutability": "view",
      "type": "function"
    },
    {
      "inputs": [
        {
          "internalType": "uint256",
          "name": "",
          "type": "uint256"
        }
      ],
      "name": "refPoolUsers",
      "outputs": [
        {
          "internalType": "address",
          "name": "user",
          "type": "address"
        },
        {
          "internalType": "uint16",
          "name": "next",
          "type": "uint16"
        },
        {
          "internalType": "uint8",
          "name": "id",
          "type": "uint8"
        },
        {
          "internalType": "uint256",
          "name": "score",
          "type": "uint256"
        }
      ],
      "stateMutability": "view",
      "type": "function"
    },
    {
      "inputs": [],
      "name": "sponsorPoolBalance",
      "outputs": [
        {
          "internalType": "uint256",
          "name": "",
          "type": "uint256"
        }
      ],
      "stateMutability": "view",
      "type": "function"
    },
    {
      "inputs": [
        {
          "internalType": "uint256",
          "name": "",
          "type": "uint256"
        }
      ],
      "name": "sponsorPoolBonuses",
      "outputs": [
        {
          "internalType": "uint256",
          "name": "",
          "type": "uint256"
        }
      ],
      "stateMutability": "view",
      "type": "function"
    },
    {
      "inputs": [
        {
          "internalType": "uint256",
          "name": "",
          "type": "uint256"
        }
      ],
      "name": "sponsorPoolUsers",
      "outputs": [
        {
          "internalType": "address",
          "name": "user",
          "type": "address"
        },
        {
          "internalType": "uint16",
          "name": "next",
          "type": "uint16"
        },
        {
          "internalType": "uint8",
          "name": "id",
          "type": "uint8"
        },
        {
          "internalType": "uint256",
          "name": "score",
          "type": "uint256"
        }
      ],
      "stateMutability": "view",
      "type": "function"
    },
    {
      "inputs": [],
      "name": "totalDepositRewards",
      "outputs": [
        {
          "internalType": "uint256",
          "name": "",
          "type": "uint256"
        }
      ],
      "stateMutability": "view",
      "type": "function"
    },
    {
      "inputs": [],
      "name": "totalExited",
      "outputs": [
        {
          "internalType": "uint256",
          "name": "",
          "type": "uint256"
        }
      ],
      "stateMutability": "view",
      "type": "function"
    },
    {
      "inputs": [
        {
          "internalType": "address",
          "name": "newDevAddress",
          "type": "address"
        }
      ],
      "name": "updateDevAddress",
      "outputs": [],
      "stateMutability": "nonpayable",
      "type": "function"
    },
    {
      "inputs": [
        {
          "internalType": "address",
          "name": "",
          "type": "address"
        }
      ],
      "name": "users",
      "outputs": [
        {
          "internalType": "address",
          "name": "wallet",
          "type": "address"
        }
      ],
      "stateMutability": "view",
      "type": "function"
    },
    {
      "inputs": [
        {
          "internalType": "uint256",
          "name": "stakeId",
          "type": "uint256"
        }
      ],
      "name": "withdraw",
      "outputs": [],
      "stateMutability": "nonpayable",
      "type": "function"
    },
    {
      "inputs": [
        {
          "internalType": "address",
          "name": "withdrawingAddress",
          "type": "address"
        },
        {
          "internalType": "uint256",
          "name": "amount",
          "type": "uint256"
        }
      ],
      "name": "withdrawDevFee",
      "outputs": [],
      "stateMutability": "nonpayable",
      "type": "function"
    }
  ],
  "bytecode": "0x6080604052600580546001600160a01b0319167364b8cb4c04ba902010856d913b4e5df940748bf2179055600e805460ff191690553480156200004157600080fd5b5060405162006174380380620061748339810160408190526200006491620003c8565b600480546001600160a01b0319166001600160a01b03831617905560078054600181810183556107d07fa66cc928b5edb82af9bd49922954155ab7b0942694bea4ce44661d9a8736c688928301819055835480830185556106a49084015583548083018555610578908401558354808301855561044c90840155835480830185556103e8908401819055845480840186556102bc90850181905585548085018755610258908601819055865480860188556101f490870155865480860188556101909087018190558754808701895561012c908801558754808701895560c890880181905588548088019099556064989097018890556008805480880182556000829052610bb87ff3f7a9fe364faab93b216da50a3214154f22a0a2b415b23a84c8169e8b636ee39182015581548089018355810196909655805480880182556104b0908701558054808801825586019490945583548087018555610320908601558354808701855585019290925582548086018455840155815480850183558301558054808401825582019390935582549182019092550155620002086200021a565b50600a805461ffff19169055620003f8565b620002246200026c565b6200022e62000292565b6000600b819055600c55600a805461ffff1965ffffffff000019909116620100004263ffffffff160217908116600161ffff92831601909116179055565b6200027960008062000376565b620002906000620002b760201b62001dbb1760201c565b565b620002a06001600062000376565b620002906001620002b760201b62001dbb1760201c565b604080516080810182526000808252602080830182815293830182815260608401838152865460018181018955978552929093209351600290920290930180549451935160ff167601000000000000000000000000000000000000000000000260ff60b01b1961ffff95909516740100000000000000000000000000000000000000000261ffff60a01b196001600160a01b03949094166001600160a01b03199097169690961792909216949094179290921691909117825551910155565b50805460008255600202906000526020600020908101906200039991906200039c565b50565b5b80821115620003c45780546001600160b81b0319168155600060018201556002016200039d565b5090565b600060208284031215620003da578081fd5b81516001600160a01b0381168114620003f1578182fd5b9392505050565b615d6c80620004086000396000f3fe608060405234801561001057600080fd5b506004361061023a5760003560e01c8062fdd58e1461023f57806303162d2c146102685780630781235a146102705780630ac39f72146102785780630f9fa6aa1461027057806312dd5fe414610270578063195c41a01461028057806327cfe8561461028a5780632e1a7d4d146102925780633ad10ef6146102a55780633df936c9146102ba57806346c27f65146102c2578063498dc5b5146102d75780634e8cfa60146102df57806360246c88146102f457806363b815fa1461030c57806365fcb49e1461031457806369da94d81461031c5780636f77926b146103245780637247b2b9146103445780637c8415901461034c5780637cc1f86714610354578063850337621461036c57806389c5077f1461037f57806391994b2c146103925780639b6eec7d1461039a5780639c236aa8146103a2578063a00d4980146103c5578063a0708a64146103cd578063a13a801a146103e0578063a87430ba146103e8578063a9122af7146103fb578063aaf1a0da146103e0578063b727284114610403578063b7ec8d4b1461041d578063b963ddb414610430578063c37b95a014610438578063cabea10d1461044b578063cd9a1b6314610460578063d3b04a2714610468578063d5766ebd1461047b578063d82daec71461048e578063d902f40c14610496578063df5a75ef1461049e578063e5231411146104b1578063e7204ffb146104b9578063ed56f6a1146104c1578063f48e595a146104d4578063fd0b8252146104dc575b600080fd5b61025261024d3660046157c8565b6104f1565b60405161025f9190615c9a565b60405180910390f35b610252610679565b61025261067f565b610252610685565b61028861068a565b005b6102526106a2565b6102886102a0366004615853565b6106a9565b6102ad610ad4565b60405161025f9190615974565b610252610ae3565b6102ca610ae9565b60405161025f9190615ac1565b610252610af2565b6102e7610af8565b60405161025f9190615d04565b6102fc610afd565b60405161025f9493929190615cdd565b610252610b1b565b610252610b21565b610252610b27565b6103376103323660046157ad565b610b2d565b60405161025f9190615b95565b610252610c43565b6102e7610c49565b61035c610c4e565b60405161025f9493929190615ca3565b61028861037a3660046157ad565b610c66565b61028861038d3660046157c8565b610c9f565b610252610d5d565b610252610d63565b6103b56103b0366004615853565b610d69565b60405161025f94939291906159d8565b610252610db4565b6102886103db3660046157f2565b610db9565b610252610ded565b6102ad6103f63660046157ad565b610df2565b6102ad610e0d565b61040b610e1c565b60405161025f96959493929190615a3f565b61028861042b366004615883565b611239565b61025261176f565b610288610446366004615853565b611775565b6104536117d5565b60405161025f9190615c8b565b6102526117df565b610288610476366004615853565b6117e5565b610252610489366004615853565b6119a6565b6102526119c4565b6102526119ca565b6102526104ac366004615853565b6119cf565b6102526119dc565b6102886119e1565b6103b56104cf366004615853565b611d97565b610252611da4565b6104e4611da9565b60405161025f9190615ccc565b6001600160a01b038083166000818152600660205260408120549092161461051857600080fd5b6105206156b5565b6001600160a01b038085166000908152600660209081526040808320815180830183528154909516855260018101805483518186028101860190945280845291948685019491929184015b82821015610620576000848152602090819020604080516101408101825260058602909201805460ff8082168552610100808304821615158688015262010000830490911615159385019390935263ffffffff6301000000820481166060860152600160381b820481166080860152600160581b9091041660a084015260018082015460c0850152600282015460e085015260038201549284019290925260040154610120830152908352909201910161056b565b5050505081525050905061066f8160200151848151811061063d57fe5b602002602001015160e001516106698360200151868151811061065c57fe5b6020026020010151611e56565b90611eb7565b9150505b92915050565b61a8c081565b61012c81565b600281565b610696600160006156cd565b6106a06001611dbb565b565b6201518081565b336000908152600660205260408120600181018054919291849081106106cb57fe5b60009182526020909120835460059092020191506001600160a01b0316331480156106fc57508054610100900460ff165b61070557600080fd5b805442600160581b90910463ffffffff9081166201518001161061072857600080fd5b600381015460028201546040805161014081018252845460ff808216835261010080830482161515602085015262010000830490911615159383019390935263ffffffff6301000000820481166060840152600160381b820481166080840152600160581b9091041660a0820152600185015460c082015260e0810183905290810183905260048401546101208201526000926107cd92909161066991908290611e56565b9050600081116107dc57600080fd5b6040805161014081018252835460ff808216835261010080830482161515602085015262010000830490911615159383019390935263ffffffff6301000000820481166060840152600160381b820481166080840152600160581b9091041660a0820152600184015460c0820152600284015460e082015260038401549181019190915260048301546101208201526000906108789083611f00565b9050806108bd57610899610892846001015461012c611f4e565b8390611eb7565b915060006108ad846001015461012c611f4e565b9050808311156108bb578092505b505b600e5460ff1615610964576040805161014081018252845460ff808216835261010080830482161515602085015262010000830490911615159383019390935263ffffffff6301000000820481166060840152600160381b820481166080840152600160581b9091041660a0820152600185015460c0820152600285015460e082015260038501549181019190915260048401546101208201526109619083611f60565b91505b61096e8282611eb7565b60048054865460405163a9059cbb60e01b81529395506001600160a01b039182169363a9059cbb936109a69390921691879101615a05565b602060405180830381600087803b1580156109c057600080fd5b505af11580156109d4573d6000803e3d6000fd5b505050506040513d601f19601f820116820180604052508101906109f89190615833565b506002830154610a089083612006565b6002840155825463ffffffff60581b1916600160581b4263ffffffff9081169182029290921766ffffffff00000019166301000000919091021784556003840154610a5591839061200616565b60038401556001830154610a6b9061924f611f4e565b836002015410610a7f57825461ff00191683555b610a87612034565b83546040517f7084f5476618d8e60b11ef0d7d3f06914655adb8793e28ff7f018d4c76d505d591610ac5916001600160a01b03909116908590615a05565b60405180910390a15050505050565b6005546001600160a01b031681565b600c5481565b600e5460ff1681565b61138881565b600a81565b600a54600c54600b5463ffffffff620100008404169261ffff169293565b61271081565b60095481565b61924f81565b610b356156b5565b6001600160a01b038083166000908152600660209081526040808320815180830183528154909516855260018101805483518186028101860190945280845291948685019491929184015b82821015610c35576000848152602090819020604080516101408101825260058602909201805460ff8082168552610100808304821615158688015262010000830490911615159385019390935263ffffffff6301000000820481166060860152600160381b820481166080860152600160581b9091041660a084015260018082015460c0850152600282015460e0850152600382015492840192909252600401546101208301529083529092019101610b80565b505050915250909392505050565b60025481565b600c81565b600954600e5460025460035460ff9092169190919293565b6005546001600160a01b03163314610c7d57600080fd5b600580546001600160a01b0319166001600160a01b0392909216919091179055565b6005546001600160a01b03163314610cb657600080fd5b600d54811115610cc557600080fd5b6004805460405163a9059cbb60e01b81526001600160a01b039091169163a9059cbb91610cf6918691869101615a05565b602060405180830381600087803b158015610d1057600080fd5b505af1158015610d24573d6000803e3d6000fd5b505050506040513d601f19601f82011682018060405250810190610d489190615833565b50600d54610d569082611eb7565b600d555050565b60035481565b6101f481565b60008181548110610d7657fe5b6000918252602090912060029091020180546001909101546001600160a01b0382169250600160a01b820461ffff1691600160b01b900460ff169084565b600581565b610dc5600184836120e4565b610ddb57610dd6600184848461221c565b610de8565b610de86001848484612359565b505050565b603281565b6006602052600090815260409020546001600160a01b031681565b6004546001600160a01b031681565b6060808080808080600a604051908082528060200260200182016040528015610e4f578160200160208202803683370190505b5060408051600a8082526101608201909252919250606091906020820161014080368337505060408051600a808252610160820190925292935060609291506020820161014080368337505060408051600c8082526101a0820190925292935060609291506020820161018080368337505060408051600c8082526101a0820190925292935060609291506020820161018080368337505060408051600c8082526101a08201909252929350606092915060208201610180803683370190505090506000610f1b6156f1565b60008261ffff1681548110610f2c57fe5b60009182526020918290206040805160808101825260029390930290910180546001600160a01b0381168452600160a01b810461ffff1694840194909452600160b01b90930460ff1690820152600190910154606082015290505b600a61ffff8316108015610fa25750602081015161ffff1615155b156110a0576000816020015161ffff1681548110610fbc57fe5b60009182526020918290206040805160808101825260029390930290910180546001600160a01b038116808552600160a01b820461ffff90811696860196909652600160b01b90910460ff16928401929092526001015460608301528a51919350918a9190851690811061102c57fe5b60200260200101906001600160a01b031690816001600160a01b0316815250508060400151878361ffff168151811061106157fe5b602002602001019060ff16908160ff16815250508060600151868361ffff168151811061108a57fe5b6020908102919091010152600190910190610f87565b600180546000935083906110b057fe5b60009182526020918290206040805160808101825260029390930290910180546001600160a01b0381168452600160a01b810461ffff1694840194909452600160b01b90930460ff1690820152600190910154606082015290505b600c61ffff83161080156111265750602081015161ffff1615155b15611224576001816020015161ffff168154811061114057fe5b60009182526020918290206040805160808101825260029390930290910180546001600160a01b038116808552600160a01b820461ffff90811696860196909652600160b01b90910460ff169284019290925260010154606083015287519193509187919085169081106111b057fe5b60200260200101906001600160a01b031690816001600160a01b0316815250508060400151848361ffff16815181106111e557fe5b602002602001019060ff16908160ff16815250508060600151838361ffff168151811061120e57fe5b602090810291909101015260019091019061110b565b50959c949b5092995090975095509350915050565b6001600160a01b03821615806112b257506001600160a01b0382811660009081526006602052604090205416158015906112b257506001600160a01b0382166000908152600660205260409020600101805460ff831690811061129857fe5b6000918252602090912060059091020154610100900460ff165b6112bb57600080fd5b3360009081526006602052604090206001810154156113305733600090815260066020526040902060018281015491018054611324926002929160001990910190811061130457fe5b9060005260206000209060050201600101546124d290919063ffffffff16565b84101561133057600080fd5b600480546040516323b872dd60e01b81526001600160a01b03909116916323b872dd9161136391339130918a9101615988565b602060405180830381600087803b15801561137d57600080fd5b505af1158015611391573d6000803e3d6000fd5b505050506040513d601f19601f820116820180604052508101906113b59190615833565b6113be57600080fd5b6113c66119e1565b60006113d18561250c565b90506113db615718565b82546001600160a01b0319163317835560018084015460ff168252602082015263ffffffff421660808201819052606082015261142d82611427611420896005611f4e565b8990611eb7565b90612006565b60c082015260408051808201825284546001600160a01b03168152600185018054835160208281028201810190955281815261153494889381860193909160009084015b82821015611526576000848152602090819020604080516101408101825260058602909201805460ff8082168552610100808304821615158688015262010000830490911615159385019390935263ffffffff6301000000820481166060860152600160381b820481166080860152600160581b9091041660a084015260018082015460c0850152600282015460e0850152600382015492840192909252600401546101208301529083529092019101611471565b5050505081525050826125d0565b6001600160a01b0385161561154f5761154f868287876125e4565b6001838101805480830182556000918252602091829020845160059092020180549285015160408601516060870151608088015160a089015160ff1990971660ff9096169590951761ff00191661010093151584021762ff0000191662010000921515929092029190911766ffffffff0000001916630100000063ffffffff928316021763ffffffff60381b1916600160381b948216949094029390931763ffffffff60581b1916600160581b939094169290920292909217825560c08401519282019290925560e0830151600282015590820151600382015561012082015160049091015561164c611643876032611f4e565b600b5490612006565b600b5561166661165d876032611f4e565b600c5490612006565b600c55611681611678876101f4611f4e565b600d5490612006565b600d55600480546040516370a0823160e01b81526000926001600160a01b03909216916370a08231916116b691309101615974565b60206040518083038186803b1580156116ce57600080fd5b505afa1580156116e2573d6000803e3d6000fd5b505050506040513d601f19601f82011682018060405250810190611706919061586b565b90506009548111156117185760098190555b6002546117259084612006565b6002556040517fd2f8022f659fd9c8c558f30c00fd5ee7038f7cb56da45095c3e0e7d48b3e0c4b9061175e9033908a908a908a906159ac565b60405180910390a150505050505050565b61032081565b336000818152600660205260409020805490916001600160a01b039091161461179d57600080fd5b60008160010183815481106117ae57fe5b6000918252602090912083546005909202019150610de8906001600160a01b031682612750565b600a5461ffff1681565b600d5481565b336000818152600660205260409020805490916001600160a01b039091161461180d57600080fd5b600081600101838154811061181e57fe5b6000918252602082206001600590920201908101549092509061184382611388611f4e565b905061184f8282611eb7565b9150600061186e8460030154856002015461200690919063ffffffff16565b90508281111561187d57600080fd5b6118878382611eb7565b60048054875460405163a9059cbb60e01b81529396506001600160a01b039182169363a9059cbb936118bf9390921691889101615a05565b602060405180830381600087803b1580156118d957600080fd5b505af11580156118ed573d6000803e3d6000fd5b505050506040513d601f19601f820116820180604052508101906119119190615833565b50835461ff0019168455600284015461192a9084612006565b6002850155600384015461193e9083612006565b60038086019190915554611953906001612006565b60035584546040517fba49bb5279636ff80eebc4fcda6a47bdf6053db74c3719cc3f9cc54e44b2878b91611996916001600160a01b039091169089908790615a1e565b60405180910390a1505050505050565b600781815481106119b357fe5b600091825260209091200154905081565b600b5481565b600181565b600881815481106119b357fe5b606481565b600a546201518063ffffffff62010000909204821601164211156106a057611a076156f1565b6001600081548110611a1557fe5b600091825260208083206040805160808101825260029490940290910180546001600160a01b0381168552600160a01b810461ffff1693850193909352600160b01b90920460ff169083015260010154606082015291505b600c61ffff8216108015611a885750602082015161ffff1615155b15611be1576001826020015161ffff1681548110611aa257fe5b600091825260209182902060408051608081018252600290930290910180546001600160a01b038116845261ffff600160a01b820481169585019590955260ff600160b01b9091041691830191909152600101546060820152600b5460078054929550611b8793611b2993908616908110611b1957fe5b9060005260206000200154611f4e565b6006600085600001516001600160a01b03166001600160a01b03168152602001908152602001600020600101846040015160ff1681548110611b6757fe5b90600052602060002090600502016004015461200690919063ffffffff16565b6006600084600001516001600160a01b03166001600160a01b03168152602001908152602001600020600101836040015160ff1681548110611bc557fe5b6000918252602090912060046005909202010155600101611a6d565b60008081548110611bee57fe5b600091825260208083206040805160808101825260029490940290910180546001600160a01b0381168552600160a01b810461ffff1693850193909352600160b01b90920460ff1690830152600101546060820152925090505b600a61ffff8216108015611c635750602082015161ffff1615155b15611d4e576000826020015161ffff1681548110611c7d57fe5b600091825260209182902060408051608081018252600290930290910180546001600160a01b038116845261ffff600160a01b820481169585019590955260ff600160b01b9091041691830191909152600101546060820152600c5460088054929550611cf493611b2993908616908110611b1957fe5b6006600084600001516001600160a01b03166001600160a01b03168152602001908152602001600020600101836040015160ff1681548110611d3257fe5b6000918252602090912060046005909202010155600101611c48565b7f505fb5b242804521f868b1210d5697cefabaa21c3f697207aa5c02dc549116e2600b54600c54604051611d83929190615cbe565b60405180910390a1611d9361282c565b5050565b60018181548110610d7657fe5b60fa81565b600a5462010000900463ffffffff1681565b604080516080810182526000808252602080830182815293830182815260608401838152865460018181018955978552929093209351600290920290930180549451935160ff16600160b01b0260ff60b01b1961ffff95909516600160a01b0261ffff60a01b196001600160a01b03949094166001600160a01b03199097169690961792909216949094179290921691909117825551910155565b600080611e628361287a565b905061012c611e758460c00151836128ce565b10611e9057611e8d611e86846128e0565b8290612006565b90505b6000611ea28460c0015161924f611f4e565b905080821115611eb0578091505b5092915050565b6000611ef983836040518060400160405280601e81526020017f536166654d6174683a207375627472616374696f6e206f766572666c6f77000081525061293e565b9392505050565b600080611f118460c00151846128ce565b905061012c8110611f26576000915050610673565b61066f83611f4e611f4561012c611f3f866127106124d2565b9061296a565b61271090611eb7565b6000611ef9612710611f3f85856124d2565b60408201516000908290610dac9015611f7857506127105b6000611f888660c0015183611f4e565b9050611fa68661010001518760e0015161200690919063ffffffff16565b811015611fb257600080fd5b80611fd3876101000151611427868a60e0015161200690919063ffffffff16565b1115611ffc57611ff98661010001516106698860e0015184611eb790919063ffffffff16565b92505b5090949350505050565b600082820183811015611ef95760405162461bcd60e51b815260040161202b90615b1f565b60405180910390fd5b612042600954610dac611f4e565b600480546040516370a0823160e01b81526001600160a01b03909116916370a082319161207191309101615974565b60206040518083038186803b15801561208957600080fd5b505afa15801561209d573d6000803e3d6000fd5b505050506040513d601f19601f820116820180604052508101906120c1919061586b565b116120d857600e805460ff191660011790556106a0565b600e805460ff19169055565b60006120ee6156f1565b84600061ffff16815481106120ff57fe5b600091825260208083206040805160808101825260029490940290910180546001600160a01b0381168552600160a01b810461ffff1693850193909352600160b01b90920460ff169083015260010154606082015291505b602082015161ffff161561221357846001600160a01b031682600001516001600160a01b031614801561219357508360ff16826040015160ff16145b156121a057506001612213565b85826020015161ffff16815481106121b457fe5b60009182526020918290206040805160808101825260029390930290910180546001600160a01b0381168452600160a01b810461ffff1694840194909452600160b01b90930460ff169082015260019091015460608201529150612157565b95945050505050565b600061222885846129a9565b9050612235858483612ad3565b61223e57600080fd5b846040518060800160405280866001600160a01b03168152602001878461ffff168154811061226957fe5b600091825260208083206002928302015461ffff600160a01b918290048116865260ff808b168785015260409687018c9052885460018181018b559987529584902088519690950290940180549388015196880151909416600160b01b0260ff60b01b199690911690910261ffff60a01b196001600160a01b039095166001600160a01b03199093169290921793909316179290921617815560609091015190820155855461231791611eb7565b858261ffff168154811061232757fe5b906000526020600020906002020160000160146101000a81548161ffff021916908361ffff1602179055505050505050565b600080612367868685612b68565b915091508161ffff16868261ffff168154811061238057fe5b6000918252602090912060029091020154600160a01b900461ffff16146123a657600080fd5b846001600160a01b0316868361ffff16815481106123c057fe5b60009182526020909120600290910201546001600160a01b0316146123e457600080fd5b8260ff16868361ffff16815481106123f857fe5b6000918252602090912060029091020154600160b01b900460ff161461241d57600080fd5b612451868361ffff168154811061243057fe5b9060005260206000209060020201600101548561200690919063ffffffff16565b9350858261ffff168154811061246357fe5b906000526020600020906002020160000160149054906101000a900461ffff16868261ffff168154811061249357fe5b906000526020600020906002020160000160146101000a81548161ffff021916908361ffff1602179055506124ca8686868661221c565b505050505050565b6000826124e157506000610673565b828202828482816124ee57fe5b0414611ef95760405162461bcd60e51b815260040161202b90615b54565b60008060af831115612520575060326125c6565b6096831115612531575060286125c6565b6087831115612542575060236125c6565b60778311156125535750601e6125c6565b6064831115612564575060196125c6565b6059831115612575575060146125c6565b604b8311156125865750600f6125c6565b603b8311156125975750600a6125c6565b602d8311156125a8575060056125c6565b60148311156125b9575060026125c6565b60098311156125c6575060015b611ef98382611f4e565b815160c08201518251611d93929190612cab565b6001600160a01b03821660009081526006602052604081209061260986610320611f4e565b905061262181836001018560ff1681548110611b6757fe5b826001018460ff168154811061263357fe5b600091825260208083206004600590930201919091019290925560408051808201825285546001600160a01b031681526001860180548351818702810187019094528084526124ca959294889486850194909392919084015b82821015612741576000848152602090819020604080516101408101825260058602909201805460ff8082168552610100808304821615158688015262010000830490911615159385019390935263ffffffff6301000000820481166060860152600160381b820481166080860152600160581b9091041660a084015260018082015460c0850152600282015460e085015260038201549284019290925260040154610120830152908352909201910161268c565b50505050815250508685612cb8565b805462010000900460ff1615801561276e57508054610100900460ff165b61277757600080fd5b60045460018201546001600160a01b03909116906323b872dd90849030906127a1906103e8611f4e565b6040518463ffffffff1660e01b81526004016127bf93929190615988565b602060405180830381600087803b1580156127d957600080fd5b505af11580156127ed573d6000803e3d6000fd5b505050506040513d601f19601f820116820180604052508101906128119190615833565b61281a57600080fd5b805462ff000019166201000017905550565b612834612ccb565b61283c61068a565b6000600b819055600c55600a805461ffff1965ffffffff000019909116620100004263ffffffff160217908116600161ffff92831601909116179055565b6000806128a18360c00151611f4e61289c866080015163ffffffff1642612ce0565b612cf3565b905060006128ae84612d26565b90506000612213826114278588610120015161200690919063ffffffff16565b6000611ef983611f3f846127106124d2565b60008061290a61a8c0611f3f62015180612904876060015163ffffffff1642612ce0565b906124d2565b905060006129198260026124d2565b90506064811115612928575060645b6129368460c0015182611f4e565b949350505050565b600081848411156129625760405162461bcd60e51b815260040161202b9190615acc565b505050900390565b6000611ef983836040518060400160405280601a815260200179536166654d6174683a206469766973696f6e206279207a65726f60301b815250612dd7565b60006129b36156f1565b83600061ffff16815481106129c457fe5b600091825260208083206040805160808101825260029490940290910180546001600160a01b0381168552600160a01b810461ffff1693850193909352600160b01b90920460ff169083015260010154606082015291505b602082015161ffff1615801590612a5757508385836020015161ffff1681548110612a4357fe5b906000526020600020906002020160010154115b1561066f575060208101518454859061ffff8316908110612a7457fe5b60009182526020918290206040805160808101825260029390930290910180546001600160a01b0381168452600160a01b810461ffff1694840194909452600160b01b90930460ff169082015260019091015460608201529150612a1c565b600061ffff821615806129365750838261ffff1681548110612af157fe5b9060005260206000209060020201600101548311158015612936575083848361ffff1681548110612b1e57fe5b906000526020600020906002020160000160149054906101000a900461ffff1661ffff1681548110612b4c57fe5b9060005260206000209060020201600101548311949350505050565b600080612b736156f1565b85600061ffff1681548110612b8457fe5b600091825260208083206040805160808101825260029490940290910180546001600160a01b0381168552600160a01b810461ffff1693850193909352600160b01b90920460ff16908301526001015460608201529150805b602083015161ffff1615801590612c1f5750866001600160a01b031683600001516001600160a01b0316148015612c1d57508560ff16836040015160ff16145b155b15612c9e575060208201518754909190889061ffff8416908110612c3f57fe5b60009182526020918290206040805160808101825260029390930290910180546001600160a01b0381168452600160a01b810461ffff1694840194909452600160b01b90930460ff169082015260019091015460608201529250612bdd565b9097909650945050505050565b610de8600084848461221c565b610de883600001518360c0015183610db9565b612cd66000806156cd565b6106a06000611dbb565b6000611ef962015180611f3f8486611eb7565b600061016d821115612d0457600080fd5b612d0c612e0e565b8281518110612d1757fe5b60200260200101519050919050565b600480546040516370a0823160e01b81526000928392612db89260fa92611f3f926001926001600160a01b03909116916370a0823191612d6891309101615974565b60206040518083038186803b158015612d8057600080fd5b505afa158015612d94573d6000803e3d6000fd5b505050506040513d601f19601f82011682018060405250810190612904919061586b565b905061012c811115612dc9575061012c5b611ef98360c0015182611f4e565b60008183612df85760405162461bcd60e51b815260040161202b9190615acc565b506000838581612e0457fe5b0495945050505050565b606080612e1e61016d6001612006565b6001600160401b0381118015612e3357600080fd5b50604051908082528060200260200182016040528015612e5d578160200160208202803683370190505b509050600081600081518110612e6f57fe5b602002602001018181525050600181600181518110612e8a57fe5b602002602001018181525050600281600281518110612ea557fe5b602002602001018181525050600381600381518110612ec057fe5b602002602001018181525050600481600481518110612edb57fe5b602002602001018181525050600681600581518110612ef657fe5b602002602001018181525050600881600681518110612f1157fe5b602002602001018181525050600a81600781518110612f2c57fe5b602002602001018181525050600d81600881518110612f4757fe5b602002602001018181525050601081600981518110612f6257fe5b602002602001018181525050601481600a81518110612f7d57fe5b602002602001018181525050601881600b81518110612f9857fe5b602002602001018181525050601c81600c81518110612fb357fe5b602002602001018181525050602181600d81518110612fce57fe5b602002602001018181525050602681600e81518110612fe957fe5b602002602001018181525050602b81600f8151811061300457fe5b60200260200101818152505060318160108151811061301f57fe5b60200260200101818152505060378160118151811061303a57fe5b602002602001018181525050603d8160128151811061305557fe5b60200260200101818152505060448160138151811061307057fe5b602002602001018181525050604b8160148151811061308b57fe5b6020026020010181815250506053816015815181106130a657fe5b602002602001018181525050605b816016815181106130c157fe5b6020026020010181815250506063816017815181106130dc57fe5b602002602001018181525050606c816018815181106130f757fe5b60200260200101818152505060758160198151811061311257fe5b602002602001018181525050607f81601a8151811061312d57fe5b602002602001018181525050608981601b8151811061314857fe5b602002602001018181525050609381601c8151811061316357fe5b602002602001018181525050609e81601d8151811061317e57fe5b60200260200101818152505060a981601e8151811061319957fe5b60200260200101818152505060b481601f815181106131b457fe5b60200260200101818152505060c0816020815181106131cf57fe5b60200260200101818152505060cc816021815181106131ea57fe5b60200260200101818152505060d98160228151811061320557fe5b60200260200101818152505060e68160238151811061322057fe5b60200260200101818152505060f38160248151811061323b57fe5b6020026020010181815250506101018160258151811061325757fe5b60200260200101818152505061010f8160268151811061327357fe5b60200260200101818152505061011e8160278151811061328f57fe5b60200260200101818152505061012d816028815181106132ab57fe5b60200260200101818152505061013c816029815181106132c757fe5b60200260200101818152505061014c81602a815181106132e357fe5b60200260200101818152505061015c81602b815181106132ff57fe5b60200260200101818152505061016d81602c8151811061331b57fe5b60200260200101818152505061017e81602d8151811061333757fe5b60200260200101818152505061018f81602e8151811061335357fe5b6020026020010181815250506101a181602f8151811061336f57fe5b6020026020010181815250506101b38160308151811061338b57fe5b6020026020010181815250506101c6816031815181106133a757fe5b6020026020010181815250506101d9816032815181106133c357fe5b6020026020010181815250506101ed816033815181106133df57fe5b602002602001018181525050610201816034815181106133fb57fe5b6020026020010181815250506102158160358151811061341757fe5b60200260200101818152505061022a8160368151811061343357fe5b60200260200101818152505061023f8160378151811061344f57fe5b6020026020010181815250506102558160388151811061346b57fe5b60200260200101818152505061026b8160398151811061348757fe5b60200260200101818152505061028181603a815181106134a357fe5b60200260200101818152505061029881603b815181106134bf57fe5b6020026020010181815250506102af81603c815181106134db57fe5b6020026020010181815250506102c781603d815181106134f757fe5b6020026020010181815250506102df81603e8151811061351357fe5b6020026020010181815250506102f881603f8151811061352f57fe5b6020026020010181815250506103118160408151811061354b57fe5b60200260200101818152505061032a8160418151811061356757fe5b6020026020010181815250506103448160428151811061358357fe5b60200260200101818152505061035e8160438151811061359f57fe5b602002602001018181525050610379816044815181106135bb57fe5b602002602001018181525050610394816045815181106135d757fe5b6020026020010181815250506103b0816046815181106135f357fe5b6020026020010181815250506103cc8160478151811061360f57fe5b6020026020010181815250506103e98160488151811061362b57fe5b6020026020010181815250506104068160498151811061364757fe5b60200260200101818152505061042481604a8151811061366357fe5b60200260200101818152505061044281604b8151811061367f57fe5b60200260200101818152505061046081604c8151811061369b57fe5b60200260200101818152505061047f81604d815181106136b757fe5b60200260200101818152505061049e81604e815181106136d357fe5b6020026020010181815250506104be81604f815181106136ef57fe5b6020026020010181815250506104de8160508151811061370b57fe5b6020026020010181815250506104ff8160518151811061372757fe5b6020026020010181815250506105208160528151811061374357fe5b6020026020010181815250506105428160538151811061375f57fe5b6020026020010181815250506105648160548151811061377b57fe5b6020026020010181815250506105878160558151811061379757fe5b6020026020010181815250506105aa816056815181106137b357fe5b6020026020010181815250506105ce816057815181106137cf57fe5b6020026020010181815250506105f2816058815181106137eb57fe5b6020026020010181815250506106168160598151811061380757fe5b60200260200101818152505061063b81605a8151811061382357fe5b60200260200101818152505061066081605b8151811061383f57fe5b60200260200101818152505061068681605c8151811061385b57fe5b6020026020010181815250506106ac81605d8151811061387757fe5b6020026020010181815250506106d381605e8151811061389357fe5b6020026020010181815250506106fa81605f815181106138af57fe5b602002602001018181525050610722816060815181106138cb57fe5b60200260200101818152505061074a816061815181106138e757fe5b6020026020010181815250506107738160628151811061390357fe5b60200260200101818152505061079c8160638151811061391f57fe5b6020026020010181815250506107c68160648151811061393b57fe5b6020026020010181815250506107f08160658151811061395757fe5b60200260200101818152505061081b8160668151811061397357fe5b6020026020010181815250506108468160678151811061398f57fe5b602002602001018181525050610872816068815181106139ab57fe5b60200260200101818152505061089e816069815181106139c757fe5b6020026020010181815250506108cb81606a815181106139e357fe5b6020026020010181815250506108f881606b815181106139ff57fe5b60200260200101818152505061092681606c81518110613a1b57fe5b60200260200101818152505061095481606d81518110613a3757fe5b60200260200101818152505061098381606e81518110613a5357fe5b6020026020010181815250506109b281606f81518110613a6f57fe5b6020026020010181815250506109e281607081518110613a8b57fe5b602002602001018181525050610a1281607181518110613aa757fe5b602002602001018181525050610a4381607281518110613ac357fe5b602002602001018181525050610a7481607381518110613adf57fe5b602002602001018181525050610aa681607481518110613afb57fe5b602002602001018181525050610ad881607581518110613b1757fe5b602002602001018181525050610b0b81607681518110613b3357fe5b602002602001018181525050610b3f81607781518110613b4f57fe5b602002602001018181525050610b7381607881518110613b6b57fe5b602002602001018181525050610ba881607981518110613b8757fe5b602002602001018181525050610bdd81607a81518110613ba357fe5b602002602001018181525050610c1381607b81518110613bbf57fe5b602002602001018181525050610c4981607c81518110613bdb57fe5b602002602001018181525050610c8081607d81518110613bf757fe5b602002602001018181525050610cb781607e81518110613c1357fe5b602002602001018181525050610cef81607f81518110613c2f57fe5b602002602001018181525050610d2781608081518110613c4b57fe5b602002602001018181525050610d6081608181518110613c6757fe5b602002602001018181525050610d9981608281518110613c8357fe5b602002602001018181525050610dd381608381518110613c9f57fe5b602002602001018181525050610e0e81608481518110613cbb57fe5b602002602001018181525050610e4981608581518110613cd757fe5b602002602001018181525050610e8581608681518110613cf357fe5b602002602001018181525050610ec181608781518110613d0f57fe5b602002602001018181525050610efe81608881518110613d2b57fe5b602002602001018181525050610f3b81608981518110613d4757fe5b602002602001018181525050610f7981608a81518110613d6357fe5b602002602001018181525050610fb881608b81518110613d7f57fe5b602002602001018181525050610ff781608c81518110613d9b57fe5b60200260200101818152505061103781608d81518110613db757fe5b60200260200101818152505061107781608e81518110613dd357fe5b6020026020010181815250506110b881608f81518110613def57fe5b6020026020010181815250506110f981609081518110613e0b57fe5b60200260200101818152505061113b81609181518110613e2757fe5b60200260200101818152505061117e81609281518110613e4357fe5b6020026020010181815250506111c181609381518110613e5f57fe5b60200260200101818152505061120581609481518110613e7b57fe5b60200260200101818152505061124981609581518110613e9757fe5b60200260200101818152505061128e81609681518110613eb357fe5b6020026020010181815250506112d381609781518110613ecf57fe5b60200260200101818152505061131981609881518110613eeb57fe5b60200260200101818152505061136081609981518110613f0757fe5b6020026020010181815250506113a781609a81518110613f2357fe5b6020026020010181815250506113ef81609b81518110613f3f57fe5b60200260200101818152505061143781609c81518110613f5b57fe5b60200260200101818152505061148081609d81518110613f7757fe5b6020026020010181815250506114ca81609e81518110613f9357fe5b60200260200101818152505061151481609f81518110613faf57fe5b60200260200101818152505061155f8160a081518110613fcb57fe5b6020026020010181815250506115ab8160a181518110613fe757fe5b6020026020010181815250506115f78160a28151811061400357fe5b6020026020010181815250506116448160a38151811061401f57fe5b6020026020010181815250506116918160a48151811061403b57fe5b6020026020010181815250506116df8160a58151811061405757fe5b60200260200101818152505061172e8160a68151811061407357fe5b60200260200101818152505061177d8160a78151811061408f57fe5b6020026020010181815250506117cd8160a8815181106140ab57fe5b60200260200101818152505061181d8160a9815181106140c757fe5b60200260200101818152505061186e8160aa815181106140e357fe5b6020026020010181815250506118c08160ab815181106140ff57fe5b6020026020010181815250506119128160ac8151811061411b57fe5b6020026020010181815250506119658160ad8151811061413757fe5b6020026020010181815250506119b98160ae8151811061415357fe5b602002602001018181525050611a0d8160af8151811061416f57fe5b602002602001018181525050611a628160b08151811061418b57fe5b602002602001018181525050611ab88160b1815181106141a757fe5b602002602001018181525050611b0e8160b2815181106141c357fe5b602002602001018181525050611b658160b3815181106141df57fe5b602002602001018181525050611bbd8160b4815181106141fb57fe5b602002602001018181525050611c158160b58151811061421757fe5b602002602001018181525050611c6e8160b68151811061423357fe5b602002602001018181525050611cc88160b78151811061424f57fe5b602002602001018181525050611d228160b88151811061426b57fe5b602002602001018181525050611d7d8160b98151811061428757fe5b602002602001018181525050611dd98160ba815181106142a357fe5b602002602001018181525050611e358160bb815181106142bf57fe5b602002602001018181525050611e928160bc815181106142db57fe5b602002602001018181525050611ef08160bd815181106142f757fe5b602002602001018181525050611f4e8160be8151811061431357fe5b602002602001018181525050611fad8160bf8151811061432f57fe5b60200260200101818152505061200d8160c08151811061434b57fe5b60200260200101818152505061206d8160c18151811061436757fe5b6020026020010181815250506120ce8160c28151811061438357fe5b6020026020010181815250506121308160c38151811061439f57fe5b6020026020010181815250506121928160c4815181106143bb57fe5b6020026020010181815250506121f58160c5815181106143d757fe5b6020026020010181815250506122598160c6815181106143f357fe5b6020026020010181815250506122bd8160c78151811061440f57fe5b6020026020010181815250506123228160c88151811061442b57fe5b6020026020010181815250506123888160c98151811061444757fe5b6020026020010181815250506123ef8160ca8151811061446357fe5b6020026020010181815250506124568160cb8151811061447f57fe5b6020026020010181815250506124be8160cc8151811061449b57fe5b6020026020010181815250506125278160cd815181106144b757fe5b6020026020010181815250506125908160ce815181106144d357fe5b6020026020010181815250506125fa8160cf815181106144ef57fe5b6020026020010181815250506126658160d08151811061450b57fe5b6020026020010181815250506126d18160d18151811061452757fe5b60200260200101818152505061273d8160d28151811061454357fe5b6020026020010181815250506127aa8160d38151811061455f57fe5b6020026020010181815250506128188160d48151811061457b57fe5b6020026020010181815250506128868160d58151811061459757fe5b6020026020010181815250506128f58160d6815181106145b357fe5b6020026020010181815250506129658160d7815181106145cf57fe5b6020026020010181815250506129d68160d8815181106145eb57fe5b602002602001018181525050612a478160d98151811061460757fe5b602002602001018181525050612ab98160da8151811061462357fe5b602002602001018181525050612b2c8160db8151811061463f57fe5b602002602001018181525050612ba08160dc8151811061465b57fe5b602002602001018181525050612c148160dd8151811061467757fe5b602002602001018181525050612c898160de8151811061469357fe5b602002602001018181525050612cff8160df815181106146af57fe5b602002602001018181525050612d768160e0815181106146cb57fe5b602002602001018181525050612ded8160e1815181106146e757fe5b602002602001018181525050612e658160e28151811061470357fe5b602002602001018181525050612ede8160e38151811061471f57fe5b602002602001018181525050612f588160e48151811061473b57fe5b602002602001018181525050612fd38160e58151811061475757fe5b60200260200101818152505061304e8160e68151811061477357fe5b6020026020010181815250506130ca8160e78151811061478f57fe5b6020026020010181815250506131478160e8815181106147ab57fe5b6020026020010181815250506131c58160e9815181106147c757fe5b6020026020010181815250506132438160ea815181106147e357fe5b6020026020010181815250506132c28160eb815181106147ff57fe5b6020026020010181815250506133428160ec8151811061481b57fe5b6020026020010181815250506133c38160ed8151811061483757fe5b6020026020010181815250506134458160ee8151811061485357fe5b6020026020010181815250506134c78160ef8151811061486f57fe5b60200260200101818152505061354a8160f08151811061488b57fe5b6020026020010181815250506135ce8160f1815181106148a757fe5b6020026020010181815250506136538160f2815181106148c357fe5b6020026020010181815250506136d98160f3815181106148df57fe5b6020026020010181815250506137608160f4815181106148fb57fe5b6020026020010181815250506137e78160f58151811061491757fe5b60200260200101818152505061386f8160f68151811061493357fe5b6020026020010181815250506138f88160f78151811061494f57fe5b6020026020010181815250506139828160f88151811061496b57fe5b602002602001018181525050613a0d8160f98151811061498757fe5b602002602001018181525050613a998160fa815181106149a357fe5b602002602001018181525050613b258160fb815181106149bf57fe5b602002602001018181525050613bb28160fc815181106149db57fe5b602002602001018181525050613c408160fd815181106149f757fe5b602002602001018181525050613ccf8160fe81518110614a1357fe5b602002602001018181525050613d5f8160ff81518110614a2f57fe5b602002602001018181525050613df08161010081518110614a4c57fe5b602002602001018181525050613e818161010181518110614a6957fe5b602002602001018181525050613f138161010281518110614a8657fe5b602002602001018181525050613fa68161010381518110614aa357fe5b60200260200101818152505061403a8161010481518110614ac057fe5b6020026020010181815250506140cf8161010581518110614add57fe5b6020026020010181815250506141658161010681518110614afa57fe5b6020026020010181815250506141fc8161010781518110614b1757fe5b6020026020010181815250506142948161010881518110614b3457fe5b60200260200101818152505061432c8161010981518110614b5157fe5b6020026020010181815250506143c58161010a81518110614b6e57fe5b60200260200101818152505061445f8161010b81518110614b8b57fe5b6020026020010181815250506144fa8161010c81518110614ba857fe5b6020026020010181815250506145968161010d81518110614bc557fe5b6020026020010181815250506146338161010e81518110614be257fe5b6020026020010181815250506146d18161010f81518110614bff57fe5b6020026020010181815250506147708161011081518110614c1c57fe5b6020026020010181815250506148108161011181518110614c3957fe5b6020026020010181815250506148b08161011281518110614c5657fe5b6020026020010181815250506149518161011381518110614c7357fe5b6020026020010181815250506149f38161011481518110614c9057fe5b602002602001018181525050614a968161011581518110614cad57fe5b602002602001018181525050614b3a8161011681518110614cca57fe5b602002602001018181525050614bdf8161011781518110614ce757fe5b602002602001018181525050614c858161011881518110614d0457fe5b602002602001018181525050614d2c8161011981518110614d2157fe5b602002602001018181525050614dd48161011a81518110614d3e57fe5b602002602001018181525050614e7d8161011b81518110614d5b57fe5b602002602001018181525050614f278161011c81518110614d7857fe5b602002602001018181525050614fd28161011d81518110614d9557fe5b60200260200101818152505061507e8161011e81518110614db257fe5b60200260200101818152505061512b8161011f81518110614dcf57fe5b6020026020010181815250506151d98161012081518110614dec57fe5b6020026020010181815250506152878161012181518110614e0957fe5b6020026020010181815250506153368161012281518110614e2657fe5b6020026020010181815250506153e68161012381518110614e4357fe5b6020026020010181815250506154978161012481518110614e6057fe5b6020026020010181815250506155498161012581518110614e7d57fe5b6020026020010181815250506155fc8161012681518110614e9a57fe5b6020026020010181815250506156b08161012781518110614eb757fe5b6020026020010181815250506157658161012881518110614ed457fe5b60200260200101818152505061581b8161012981518110614ef157fe5b6020026020010181815250506158d28161012a81518110614f0e57fe5b60200260200101818152505061598a8161012b81518110614f2b57fe5b602002602001018181525050615a438161012c81518110614f4857fe5b602002602001018181525050615afd8161012d81518110614f6557fe5b602002602001018181525050615bb88161012e81518110614f8257fe5b602002602001018181525050615c748161012f81518110614f9f57fe5b602002602001018181525050615d318161013081518110614fbc57fe5b602002602001018181525050615def8161013181518110614fd957fe5b602002602001018181525050615eae8161013281518110614ff657fe5b602002602001018181525050615f6e816101338151811061501357fe5b60200260200101818152505061602f816101348151811061503057fe5b6020026020010181815250506160f1816101358151811061504d57fe5b6020026020010181815250506161b4816101368151811061506a57fe5b602002602001018181525050616278816101378151811061508757fe5b60200260200101818152505061633d81610138815181106150a457fe5b60200260200101818152505061640381610139815181106150c157fe5b6020026020010181815250506164cb8161013a815181106150de57fe5b6020026020010181815250506165948161013b815181106150fb57fe5b60200260200101818152505061665e8161013c8151811061511857fe5b6020026020010181815250506167298161013d8151811061513557fe5b6020026020010181815250506167f58161013e8151811061515257fe5b6020026020010181815250506168c28161013f8151811061516f57fe5b602002602001018181525050616990816101408151811061518c57fe5b602002602001018181525050616a5f81610141815181106151a957fe5b602002602001018181525050616b2f81610142815181106151c657fe5b602002602001018181525050616c0081610143815181106151e357fe5b602002602001018181525050616cd2816101448151811061520057fe5b602002602001018181525050616da5816101458151811061521d57fe5b602002602001018181525050616e79816101468151811061523a57fe5b602002602001018181525050616f4e816101478151811061525757fe5b602002602001018181525050617025816101488151811061527457fe5b6020026020010181815250506170fd816101498151811061529157fe5b6020026020010181815250506171d68161014a815181106152ae57fe5b6020026020010181815250506172b08161014b815181106152cb57fe5b60200260200101818152505061738b8161014c815181106152e857fe5b6020026020010181815250506174678161014d8151811061530557fe5b6020026020010181815250506175448161014e8151811061532257fe5b6020026020010181815250506176228161014f8151811061533f57fe5b602002602001018181525050617701816101508151811061535c57fe5b6020026020010181815250506177e2816101518151811061537957fe5b6020026020010181815250506178c4816101528151811061539657fe5b6020026020010181815250506179a781610153815181106153b357fe5b602002602001018181525050617a8b81610154815181106153d057fe5b602002602001018181525050617b7081610155815181106153ed57fe5b602002602001018181525050617c56816101568151811061540a57fe5b602002602001018181525050617d3d816101578151811061542757fe5b602002602001018181525050617e26816101588151811061544457fe5b602002602001018181525050617f10816101598151811061546157fe5b602002602001018181525050617ffb8161015a8151811061547e57fe5b6020026020010181815250506180e78161015b8151811061549b57fe5b6020026020010181815250506181d48161015c815181106154b857fe5b6020026020010181815250506182c38161015d815181106154d557fe5b6020026020010181815250506183b38161015e815181106154f257fe5b6020026020010181815250506184a48161015f8151811061550f57fe5b602002602001018181525050618596816101608151811061552c57fe5b602002602001018181525050618689816101618151811061554957fe5b60200260200101818152505061877d816101628151811061556657fe5b602002602001018181525050618873816101638151811061558357fe5b60200260200101818152505061896a81610164815181106155a057fe5b602002602001018181525050618a6281610165815181106155bd57fe5b602002602001018181525050618b5b81610166815181106155da57fe5b602002602001018181525050618c5681610167815181106155f757fe5b602002602001018181525050618d52816101688151811061561457fe5b602002602001018181525050618e4f816101698151811061563157fe5b602002602001018181525050618f4d8161016a8151811061564e57fe5b60200260200101818152505061904c8161016b8151811061566b57fe5b60200260200101818152505061914d8161016c8151811061568857fe5b60200260200101818152505061924f8161016d815181106156a557fe5b6020908102919091010152905090565b60408051808201909152600081526060602082015290565b50805460008255600202906000526020600020908101906156ee919061576c565b50565b60408051608081018252600080825260208201819052918101829052606081019190915290565b6040805161014081018252600080825260208201819052918101829052606081018290526080810182905260a0810182905260c0810182905260e08101829052610100810182905261012081019190915290565b5b808211156157925780546001600160b81b03191681556000600182015560020161576d565b5090565b80356001600160a01b038116811461067357600080fd5b6000602082840312156157be578081fd5b611ef98383615796565b600080604083850312156157da578081fd5b6157e48484615796565b946020939093013593505050565b600080600060608486031215615806578081fd5b833561581181615d12565b925060208401359150604084013561582881615d27565b809150509250925092565b600060208284031215615844578081fd5b81518015158114611ef9578182fd5b600060208284031215615864578081fd5b5035919050565b60006020828403121561587c578081fd5b5051919050565b600080600060608486031215615897578283fd5b8335925060208401356158a981615d12565b9150604084013561582881615d27565b6000815180845260208085019450808401835b838110156158f15781516001600160a01b0316875295820195908201906001016158cc565b509495945050505050565b6000815180845260208085019450808401835b838110156158f15781518752958201959082019060010161590f565b6000815180845260208085019450808401835b838110156158f157815160ff168752958201959082019060010161593e565b15159052565b63ffffffff169052565b60ff169052565b6001600160a01b0391909116815260200190565b6001600160a01b039384168152919092166020820152604081019190915260600190565b6001600160a01b03948516815260208101939093529216604082015260ff909116606082015260800190565b6001600160a01b0394909416845261ffff92909216602084015260ff166040830152606082015260800190565b6001600160a01b03929092168252602082015260400190565b6001600160a01b039390931683526020830191909152604082015260600190565b600060c08252615a5260c08301896158b9565b8281036020840152615a64818961592b565b90508281036040840152615a7881886158fc565b90508281036060840152615a8c81876158b9565b90508281036080840152615aa0818661592b565b905082810360a0840152615ab481856158fc565b9998505050505050505050565b901515815260200190565b6000602080835283518082850152825b81811015615af857858101830151858201604001528201615adc565b81811115615b095783604083870101525b50601f01601f1916929092016040019392505050565b6020808252601b908201527a536166654d6174683a206164646974696f6e206f766572666c6f7760281b604082015260600190565b60208082526021908201527f536166654d6174683a206d756c7469706c69636174696f6e206f766572666c6f6040820152607760f81b606082015260800190565b602080825282516001600160a01b031682820152828101516040808401819052815160608086018290526000949390926080929185019183880190875b81811015615c7c578451615be784825161596d565b88810151615bf78a86018261595d565b5084810151615c088686018261595d565b5087810151615c1989860182615963565b5086810151615c2a88860182615963565b5060a080820151615c3d82870182615963565b505060c0818101519085015260e08082015190850152610100808201519085015261012090810151908401529387019361014090920191600101615bd2565b50909998505050505050505050565b61ffff91909116815260200190565b90815260200190565b93845291151560208401526040830152606082015260800190565b918252602082015260400190565b63ffffffff91909116815260200190565b63ffffffff94909416845261ffff9290921660208401526040830152606082015260800190565b60ff91909116815260200190565b6001600160a01b03811681146156ee57600080fd5b60ff811681146156ee57600080fdfea2646970667358221220e5b14552291d3a7dfc70434885a0437cee1c34b4889b2cdfe6cd0bd0b038e65964736f6c634300060c0033",
  "compiler": {
    "name": "solc",
    "version": "0.6.12+commit.27d51765.Emscripten.clang",
    "optimizer": {
      "enabled": true,
      "runs": 1
    },
    "evmVersion": "petersburg"
  }
}