{
  "fileName": "FourRXFinance.sol",
  "contractName": "FourRXFinance",
  "source": "// SPDX-License-Identifier: MIT\npragma solidity ^0.6.12;\npragma experimental ABIEncoderV2;\n\nimport '@openzeppelin/contracts/token/ERC20/IERC20.sol';\nimport \"./Insurance.sol\";\n\ncontract FourRXFinance is Insurance {\n\n    constructor(address fourRXTokenAddress) public {\n        fourRXToken = IERC20(fourRXTokenAddress);\n\n        refPoolBonuses.push(2000);\n        refPoolBonuses.push(1700);\n        refPoolBonuses.push(1400);\n        refPoolBonuses.push(1100);\n        refPoolBonuses.push(1000);\n        refPoolBonuses.push(700);\n        refPoolBonuses.push(600);\n        refPoolBonuses.push(500);\n        refPoolBonuses.push(400);\n        refPoolBonuses.push(300);\n        refPoolBonuses.push(200);\n        refPoolBonuses.push(100);\n\n        sponsorPoolBonuses.push(3000);\n        sponsorPoolBonuses.push(2000);\n        sponsorPoolBonuses.push(1200);\n        sponsorPoolBonuses.push(1000);\n        sponsorPoolBonuses.push(800);\n        sponsorPoolBonuses.push(700);\n        sponsorPoolBonuses.push(600);\n        sponsorPoolBonuses.push(400);\n        sponsorPoolBonuses.push(200);\n        sponsorPoolBonuses.push(100);\n\n        _resetPools();\n    }\n\n    function deposit(uint amount, address uplinkAddress, uint uplinkId) external {\n        require((users[uplinkAddress].registered && users[uplinkAddress].investments[uplinkId].active) || uplinkAddress == address(0)); // Either uplink must be registered and be a active deposit, 0 address\n\n        User storage user = users[msg.sender];\n\n        if (users[msg.sender].investments.length > 0) {\n            require(amount > users[msg.sender].investments[user.investments.length - 1].deposit.mul(2)); // deposit amount must be greater 2x then last deposit\n        }\n\n        require(fourRXToken.transferFrom(msg.sender, address(this), amount));\n\n        uint depositReward = _calcDepositRewards(amount);\n\n        Investment memory investment;\n\n        user.wallet = msg.sender;\n        user.registered = true;\n\n        investment.id = user.investments.length;\n        investment.active = true;\n        investment.interestCountFrom = block.timestamp;\n        investment.holdFrom = block.timestamp;\n\n        investment.deposit = amount.sub(_calcPercentage(amount, lpCommission)).add(depositReward); // Deduct LP Commission + add deposit rewards\n        investment.uplink.uplinkAddress = uplinkAddress;\n        investment.uplink.uplinkInvestmentId = uplinkId;\n\n        investment.sponsorPool.cycle = poolCycle;\n        investment.sponsorPool.amount = amount;\n\n        _updateSponsorPoolUsers(user, investment);\n\n        _distributeReferralReward(amount, investment);\n\n        user.investments.push(investment);\n\n        refPoolBalance = refPoolBalance.add(_calcPercentage(amount, depositRefPoolCommission));\n        sponsorPoolBalance = sponsorPoolBalance.add(_calcPercentage(amount, depositSponsorPoolCommission));\n\n        drawPool();\n\n        fourRXToken.transfer(devAddress, _calcPercentage(amount, devCommission));\n\n        uint currentContractBalance = fourRXToken.balanceOf(address(this));\n\n        if (currentContractBalance > maxContractBalance) {\n            maxContractBalance = currentContractBalance;\n        }\n\n        totalDeposits = totalDeposits.add(amount);\n        totalInvestments = totalInvestments.add(1);\n        totalActiveInvestments = totalActiveInvestments.add(1);\n        totalDepositRewards = totalDepositRewards.add(depositReward);\n\n        emit Deposit(msg.sender, uplinkAddress, amount);\n    }\n\n\n    function balanceOf(address _userAddress, uint investmentId) external view returns (uint) {\n        require(users[_userAddress].wallet == _userAddress);\n        User memory user = users[_userAddress];\n\n        return _calcRewards(user.investments[investmentId]).sub(user.investments[investmentId].withdrawn);\n    }\n\n    function withdraw(uint investmentId) external {\n        User storage user = users[msg.sender];\n        Investment storage investment = user.investments[investmentId];\n        require(user.wallet == msg.sender && investment.active); // investment should be active\n\n        require(investment.lastWithdrawalAt + 1 days < block.timestamp); // we only allow one withdrawal each day\n\n        uint availableAmount = _calcRewards(investment).sub(investment.withdrawn).sub(investment.penalty);\n\n        require(availableAmount > 0);\n\n        uint penalty = _calcPenalty(investment, availableAmount);\n\n        if (penalty == 0) {\n            availableAmount = availableAmount.sub(_calcPercentage(investment.deposit, holdBonusUnlocksAt)); // Only allow withdrawal if available is more then 10% of base\n\n            uint maxAllowedWithdrawal = _calcPercentage(investment.deposit, maxWithdrawalOverTenPercent);\n\n            if (availableAmount > maxAllowedWithdrawal) {\n                availableAmount = maxAllowedWithdrawal;\n            }\n        }\n\n        if (isInInsuranceState) {\n            availableAmount = getInsuredAvailableAmount(investment, availableAmount);\n        }\n\n        availableAmount = availableAmount.sub(penalty);\n\n        fourRXToken.transfer(user.wallet, availableAmount);\n\n        investment.withdrawn = investment.withdrawn.add(availableAmount);\n        investment.lastWithdrawalAt = block.timestamp;\n        investment.holdFrom = block.timestamp;\n\n        investment.penalty = investment.penalty.add(penalty);\n\n        totalPenalty = totalPenalty.add(penalty);\n\n        if (investment.withdrawn >= _calcPercentage(investment.deposit, maxContractRewards)) {\n            investment.active = false; // if investment has withdrawn equals to or more then the max amount, then mark investment in-active\n            totalActiveInvestments = totalActiveInvestments.sub(1);\n        }\n\n        checkForBaseInsuranceTrigger();\n\n        totalWithdrawn = totalWithdrawn.add(availableAmount);\n\n        emit Withdraw(user.wallet, availableAmount);\n    }\n\n    function exitProgram(uint investmentId) external {\n        User storage user = users[msg.sender];\n        require(user.wallet == msg.sender);\n        Investment storage investment = user.investments[investmentId];\n        uint availableAmount = investment.deposit;\n        uint penaltyAmount = _calcPercentage(investment.deposit, exitPenalty);\n\n        availableAmount = availableAmount.sub(penaltyAmount);\n\n        uint withdrawn = investment.withdrawn.add(investment.penalty);\n        require(withdrawn <= availableAmount);\n        availableAmount = availableAmount.sub(withdrawn); // @todo: discuss this new implementation with Assaf\n\n        fourRXToken.transfer(user.wallet, availableAmount);\n\n        investment.active = false;\n        investment.withdrawn = investment.withdrawn.add(availableAmount);\n        investment.penalty = investment.penalty.add(penaltyAmount);\n\n        totalActiveInvestments = totalActiveInvestments.sub(1);\n        totalExited = totalExited.add(1);\n\n        totalWithdrawn = totalWithdrawn.add(availableAmount);\n        totalPenalty = totalPenalty.add(penaltyAmount);\n\n        emit Exited(user.wallet);\n    }\n\n    function insureInvestment(uint investmentId) external {\n        User storage user = users[msg.sender];\n        require(user.wallet == msg.sender);\n        Investment storage investment = user.investments[investmentId];\n        _insureInvestment(investment);\n    }\n\n    function getUser(address userAddress) external view returns (User memory) {\n        return users[userAddress];\n    }\n\n    function getPoolInfo() external view returns (uint, uint, uint, uint, PoolUser[10] memory, PoolUser[12] memory) {\n        return (poolDrewAt, poolCycle, sponsorPoolBalance, refPoolBalance, sponsorPoolUsers, refPoolUsers);\n    }\n\n    function getContractInfo() external view returns (uint, uint, uint, uint, uint, uint, uint, uint, uint, uint, uint) {\n        return (maxContractBalance, totalDeposits, totalWithdrawn, totalInvestments, totalActiveInvestments, totalRefRewards, totalRefPoolRewards, totalSponsorPoolRewards, totalDepositRewards, totalPenalty, totalExited);\n    }\n}\n",
  "sourcePath": "contracts/FourRXFinance.sol",
  "abi": [
    {
      "inputs": [
        {
          "internalType": "address",
          "name": "fourRXTokenAddress",
          "type": "address"
        }
      ],
      "stateMutability": "nonpayable",
      "type": "constructor"
    },
    {
      "anonymous": false,
      "inputs": [
        {
          "indexed": false,
          "internalType": "address",
          "name": "user",
          "type": "address"
        },
        {
          "indexed": false,
          "internalType": "address",
          "name": "uplink",
          "type": "address"
        },
        {
          "indexed": false,
          "internalType": "uint256",
          "name": "amount",
          "type": "uint256"
        }
      ],
      "name": "Deposit",
      "type": "event"
    },
    {
      "anonymous": false,
      "inputs": [
        {
          "indexed": false,
          "internalType": "address",
          "name": "user",
          "type": "address"
        }
      ],
      "name": "Exited",
      "type": "event"
    },
    {
      "anonymous": false,
      "inputs": [
        {
          "indexed": false,
          "internalType": "address",
          "name": "user",
          "type": "address"
        },
        {
          "indexed": false,
          "internalType": "uint256",
          "name": "amount",
          "type": "uint256"
        }
      ],
      "name": "ReInvest",
      "type": "event"
    },
    {
      "anonymous": false,
      "inputs": [
        {
          "indexed": false,
          "internalType": "address",
          "name": "user",
          "type": "address"
        },
        {
          "indexed": false,
          "internalType": "uint256",
          "name": "amount",
          "type": "uint256"
        }
      ],
      "name": "Withdraw",
      "type": "event"
    },
    {
      "inputs": [
        {
          "internalType": "address",
          "name": "_userAddress",
          "type": "address"
        },
        {
          "internalType": "uint256",
          "name": "investmentId",
          "type": "uint256"
        }
      ],
      "name": "balanceOf",
      "outputs": [
        {
          "internalType": "uint256",
          "name": "",
          "type": "uint256"
        }
      ],
      "stateMutability": "view",
      "type": "function"
    },
    {
      "inputs": [
        {
          "internalType": "uint256",
          "name": "amount",
          "type": "uint256"
        },
        {
          "internalType": "address",
          "name": "uplinkAddress",
          "type": "address"
        },
        {
          "internalType": "uint256",
          "name": "uplinkId",
          "type": "uint256"
        }
      ],
      "name": "deposit",
      "outputs": [],
      "stateMutability": "nonpayable",
      "type": "function"
    },
    {
      "inputs": [
        {
          "internalType": "uint256",
          "name": "",
          "type": "uint256"
        }
      ],
      "name": "depositBonuses",
      "outputs": [
        {
          "internalType": "uint256",
          "name": "",
          "type": "uint256"
        }
      ],
      "stateMutability": "view",
      "type": "function"
    },
    {
      "inputs": [
        {
          "internalType": "uint256",
          "name": "investmentId",
          "type": "uint256"
        }
      ],
      "name": "exitProgram",
      "outputs": [],
      "stateMutability": "nonpayable",
      "type": "function"
    },
    {
      "inputs": [],
      "name": "getContractInfo",
      "outputs": [
        {
          "internalType": "uint256",
          "name": "",
          "type": "uint256"
        },
        {
          "internalType": "uint256",
          "name": "",
          "type": "uint256"
        },
        {
          "internalType": "uint256",
          "name": "",
          "type": "uint256"
        },
        {
          "internalType": "uint256",
          "name": "",
          "type": "uint256"
        },
        {
          "internalType": "uint256",
          "name": "",
          "type": "uint256"
        },
        {
          "internalType": "uint256",
          "name": "",
          "type": "uint256"
        },
        {
          "internalType": "uint256",
          "name": "",
          "type": "uint256"
        },
        {
          "internalType": "uint256",
          "name": "",
          "type": "uint256"
        },
        {
          "internalType": "uint256",
          "name": "",
          "type": "uint256"
        },
        {
          "internalType": "uint256",
          "name": "",
          "type": "uint256"
        },
        {
          "internalType": "uint256",
          "name": "",
          "type": "uint256"
        }
      ],
      "stateMutability": "view",
      "type": "function"
    },
    {
      "inputs": [],
      "name": "getPoolInfo",
      "outputs": [
        {
          "internalType": "uint256",
          "name": "",
          "type": "uint256"
        },
        {
          "internalType": "uint256",
          "name": "",
          "type": "uint256"
        },
        {
          "internalType": "uint256",
          "name": "",
          "type": "uint256"
        },
        {
          "internalType": "uint256",
          "name": "",
          "type": "uint256"
        },
        {
          "components": [
            {
              "internalType": "address",
              "name": "user",
              "type": "address"
            },
            {
              "internalType": "uint256",
              "name": "investmentId",
              "type": "uint256"
            }
          ],
          "internalType": "struct SharedVariables.PoolUser[10]",
          "name": "",
          "type": "tuple[10]"
        },
        {
          "components": [
            {
              "internalType": "address",
              "name": "user",
              "type": "address"
            },
            {
              "internalType": "uint256",
              "name": "investmentId",
              "type": "uint256"
            }
          ],
          "internalType": "struct SharedVariables.PoolUser[12]",
          "name": "",
          "type": "tuple[12]"
        }
      ],
      "stateMutability": "view",
      "type": "function"
    },
    {
      "inputs": [
        {
          "internalType": "address",
          "name": "userAddress",
          "type": "address"
        }
      ],
      "name": "getUser",
      "outputs": [
        {
          "components": [
            {
              "internalType": "address",
              "name": "wallet",
              "type": "address"
            },
            {
              "internalType": "bool",
              "name": "registered",
              "type": "bool"
            },
            {
              "components": [
                {
                  "internalType": "uint256",
                  "name": "id",
                  "type": "uint256"
                },
                {
                  "internalType": "bool",
                  "name": "active",
                  "type": "bool"
                },
                {
                  "internalType": "uint256",
                  "name": "interestCountFrom",
                  "type": "uint256"
                },
                {
                  "internalType": "uint256",
                  "name": "holdFrom",
                  "type": "uint256"
                },
                {
                  "internalType": "uint256",
                  "name": "deposit",
                  "type": "uint256"
                },
                {
                  "components": [
                    {
                      "internalType": "address",
                      "name": "uplinkAddress",
                      "type": "address"
                    },
                    {
                      "internalType": "uint256",
                      "name": "uplinkInvestmentId",
                      "type": "uint256"
                    }
                  ],
                  "internalType": "struct SharedVariables.Uplink",
                  "name": "uplink",
                  "type": "tuple"
                },
                {
                  "internalType": "uint256",
                  "name": "refCommission",
                  "type": "uint256"
                },
                {
                  "internalType": "uint256",
                  "name": "refPoolRewards",
                  "type": "uint256"
                },
                {
                  "internalType": "uint256",
                  "name": "sponsorPoolRewards",
                  "type": "uint256"
                },
                {
                  "internalType": "uint256",
                  "name": "lastWithdrawalAt",
                  "type": "uint256"
                },
                {
                  "components": [
                    {
                      "internalType": "uint256",
                      "name": "cycle",
                      "type": "uint256"
                    },
                    {
                      "internalType": "uint256",
                      "name": "amount",
                      "type": "uint256"
                    }
                  ],
                  "internalType": "struct SharedVariables.RefPool",
                  "name": "refPool",
                  "type": "tuple"
                },
                {
                  "components": [
                    {
                      "internalType": "uint256",
                      "name": "cycle",
                      "type": "uint256"
                    },
                    {
                      "internalType": "uint256",
                      "name": "amount",
                      "type": "uint256"
                    }
                  ],
                  "internalType": "struct SharedVariables.SponsorPool",
                  "name": "sponsorPool",
                  "type": "tuple"
                },
                {
                  "internalType": "uint256",
                  "name": "withdrawn",
                  "type": "uint256"
                },
                {
                  "internalType": "bool",
                  "name": "optInInsured",
                  "type": "bool"
                },
                {
                  "internalType": "uint256",
                  "name": "penalty",
                  "type": "uint256"
                }
              ],
              "internalType": "struct SharedVariables.Investment[]",
              "name": "investments",
              "type": "tuple[]"
            }
          ],
          "internalType": "struct SharedVariables.User",
          "name": "",
          "type": "tuple"
        }
      ],
      "stateMutability": "view",
      "type": "function"
    },
    {
      "inputs": [
        {
          "internalType": "uint256",
          "name": "investmentId",
          "type": "uint256"
        }
      ],
      "name": "insureInvestment",
      "outputs": [],
      "stateMutability": "nonpayable",
      "type": "function"
    },
    {
      "inputs": [
        {
          "internalType": "uint256",
          "name": "",
          "type": "uint256"
        }
      ],
      "name": "refPoolBonuses",
      "outputs": [
        {
          "internalType": "uint256",
          "name": "",
          "type": "uint256"
        }
      ],
      "stateMutability": "view",
      "type": "function"
    },
    {
      "inputs": [
        {
          "internalType": "uint256",
          "name": "",
          "type": "uint256"
        }
      ],
      "name": "refPoolUsers",
      "outputs": [
        {
          "internalType": "address",
          "name": "user",
          "type": "address"
        },
        {
          "internalType": "uint256",
          "name": "investmentId",
          "type": "uint256"
        }
      ],
      "stateMutability": "view",
      "type": "function"
    },
    {
      "inputs": [
        {
          "internalType": "uint256",
          "name": "",
          "type": "uint256"
        }
      ],
      "name": "sponsorPoolBonuses",
      "outputs": [
        {
          "internalType": "uint256",
          "name": "",
          "type": "uint256"
        }
      ],
      "stateMutability": "view",
      "type": "function"
    },
    {
      "inputs": [
        {
          "internalType": "uint256",
          "name": "",
          "type": "uint256"
        }
      ],
      "name": "sponsorPoolUsers",
      "outputs": [
        {
          "internalType": "address",
          "name": "user",
          "type": "address"
        },
        {
          "internalType": "uint256",
          "name": "investmentId",
          "type": "uint256"
        }
      ],
      "stateMutability": "view",
      "type": "function"
    },
    {
      "inputs": [
        {
          "internalType": "uint256",
          "name": "investmentId",
          "type": "uint256"
        }
      ],
      "name": "withdraw",
      "outputs": [],
      "stateMutability": "nonpayable",
      "type": "function"
    }
  ],
  "bytecode": "0x60806040526127106000818155600190815562030d406002908155620151806003556175306005556103e860068190556102bc6007556113886008819055600980546001600160a01b0319167364b8cb4c04ba902010856d913b4e5df940748bf21790556032600a819055600b55600c5561012c600d8190556064600e819055600f949094556010929092556011929092556012819055601355610dac6053556054805460ff19169055605555605655348015620000bc57600080fd5b506040516200522438038062005224833981016040819052620000df916200036e565b600480546001600160a01b0319166001600160a01b03831617905560468054600181810183556107d07f128667f541fed74a8429f9d592c26c2c6a4beb9ae5ead9912c98b2595c842310928301819055835480830185556106a49084015583548083018555610578908401558354808301855561044c90840155835480830185556103e8908401819055845480840186556102bc90850181905585548085018755610258908601819055865480860188556101f490870155865480860188556101909087018190558754808701895561012c908801558754808701895560c890880181905588548088019099556064989097018890556047805480880182556000829052610bb87fc43c1e24e1884c4e28a16bbd9506f60b5ca9f18fc90635e729d3cfe13abcf0019182015581548089018355810196909655805480880182556104b0908701558054808801825586019490945583548087018555610320908601558354808701855585019290925582548086018455840155815480850183558301558054808401825582019390935582549182019092550155620002836200028a565b506200039e565b60005b604654811015620002f3576000601982600c8110620002a857fe5b6002020180546001600160a01b0319166001600160a01b03929092169190911790556000601982600c8110620002da57fe5b600202016001018190555080806001019150506200028d565b5060005b6047548110156200035d576000603182600a81106200031257fe5b6002020180546001600160a01b0319166001600160a01b03929092169190911790556000601982600c81106200034457fe5b60020201600101819055508080600101915050620002f7565b506000601781905560185542601655565b60006020828403121562000380578081fd5b81516001600160a01b038116811462000397578182fd5b9392505050565b614e7680620003ae6000396000f3fe608060405234801561001057600080fd5b50600436106100ae5760003560e01c8062fdd58e146100b35780632e1a7d4d146100dc5780633481cb15146100f157806348a91a241461010457806360246c88146101175780636f77926b146101315780637cc1f867146101515780639c236aa814610170578063bc157ac114610191578063d3b04a27146101a4578063d5766ebd146101b7578063df5a75ef146101ca578063ed56f6a1146101dd575b600080fd5b6100c66100c1366004614a1c565b6101f0565b6040516100d39190614d63565b60405180910390f35b6100ef6100ea366004614a66565b6103ef565b005b6100ef6100ff366004614a66565b610944565b6100c6610112366004614a66565b61099b565b61011f6109b9565b6040516100d396959493929190614d6c565b61014461013f366004614a01565b610aac565b6040516100d39190614c26565b610159610c38565b6040516100d39b9a99989796959493929190614df2565b61018361017e366004614a66565b610c66565b6040516100d3929190614b44565b6100ef61019f366004614a96565b610c8f565b6100ef6101b2366004614a66565b61133c565b6100c66101c5366004614a66565b611531565b6100c66101d8366004614a66565b61153e565b6101836101eb366004614a66565b61154b565b6001600160a01b038083166000818152604560205260408120549092161461021757600080fd5b61021f6148b2565b6001600160a01b038481166000908152604560209081526040808320815160608101835281549586168152600160a01b90950460ff1615158584015260018101805483518186028101860185528181529295938701949293919290919084015b82821015610395576000848152602090819020604080516101e081018252601286029092018054835260018082015460ff90811615158587015260028301548585015260038301546060860152600483015460808601528351808501855260058401546001600160a01b0316815260068401548188015260a0860152600783015460c0860152600883015460e08601526009830154610100860152600a83015461012086015283518085018552600b8401548152600c840154818801526101408601528351808501909452600d8301548452600e83015484870152610160850193909352600f820154610180850152601082015490921615156101a0840152601101546101c0830152908352909201910161027f565b505050508152505090506103e5816040015184815181106103b257fe5b602002602001015161018001516103df836040015186815181106103d257fe5b6020026020010151611558565b906115b9565b9150505b92915050565b3360009081526045602052604081206001810180549192918490811061041157fe5b60009182526020909120835460129092020191506001600160a01b0316331480156104405750600181015460ff165b61044957600080fd5b4281600a015462015180011061045e57600080fd5b6011810154600f820154604080516101e08101825284548152600185015460ff908116151560208084019190915260028701548385015260038701546060840152600487015460808401528351808501855260058801546001600160a01b0316815260068801548183015260a0840152600787015460c0840152600887015460e08401526009870154610100840152600a87015461012084015283518085018552600b8801548152600c880154818301526101408401528351808501909452600d8701548452600e870154908401526101608201929092526101808101839052601085015490911615156101a08201526101c0810183905260009261056b9290916103df91908290611558565b90506000811161057a57600080fd5b604080516101e08101825283548152600184015460ff908116151560208084019190915260028601548385015260038601546060840152600486015460808401528351808501855260058701546001600160a01b0316815260068701548183015260a0840152600786015460c0840152600886015460e08401526009860154610100840152600a86015461012084015283518085018552600b8701548152600c870154818301526101408401528351808501909452600d8601548452600e86015490840152610160820192909252600f840154610180820152601084015490911615156101a082015260118301546101c082015260009061067b9083611602565b9050806106c05761069c610695846004015460125461164d565b83906115b9565b915060006106b0846004015460135461164d565b9050808311156106be578092505b505b60545460ff16156107cc57604080516101e08101825284548152600185015460ff908116151560208084019190915260028701548385015260038701546060840152600487015460808401528351808501855260058801546001600160a01b0316815260068801548183015260a0840152600787015460c0840152600887015460e08401526009870154610100840152600a87015461012084015283518085018552600b8801548152600c880154818301526101408401528351808501909452600d8701548452600e87015490840152610160820192909252600f850154610180820152601085015490911615156101a082015260118401546101c08201526107c99083611684565b91505b6107d682826115b9565b60048054865460405163a9059cbb60e01b81529395506001600160a01b039182169363a9059cbb9361080e9390921691879101614b44565b602060405180830381600087803b15801561082857600080fd5b505af115801561083c573d6000803e3d6000fd5b505050506040513d601f19601f820116820180604052508101906108609190614a46565b50600f83015461087090836116ea565b600f84015542600a84018190556003840155601183015461089190826116ea565b60118401556051546108a390826116ea565b60515560048301546005546108b8919061164d565b83600f0154106108df576001808401805460ff19169055604c546108db916115b9565b604c555b6108e7611718565b604a546108f490836116ea565b604a5583546040517f884edad9ce6fa2440d8a54cc123490eb96d2768479d49ff9c7366125a942436491610935916001600160a01b03909116908590614b44565b60405180910390a15050505050565b336000818152604560205260409020805490916001600160a01b039091161461096c57600080fd5b600081600101838154811061097d57fe5b90600052602060002090601202019050610996816117c9565b505050565b604881815481106109a857fe5b600091825260209091200154905081565b6000806000806109c76148d1565b6109cf6148ff565b60165460155460185460175460408051610140810190915260319060199082600a6000835b82821015610a35576040805180820190915260028302850180546001600160a01b0316825260019081015460208084019190915291835290920191016109f4565b5050604080516101808101909152929450839150600c90506000835b82821015610a92576040805180820190915260028302850180546001600160a01b031682526001908101546020808401919091529183529092019101610a51565b505050509050955095509550955095509550909192939495565b610ab46148b2565b6001600160a01b038281166000908152604560209081526040808320815160608101835281549586168152600160a01b90950460ff1615158584015260018101805483518186028101860185528181529295938701949293919290919084015b82821015610c2a576000848152602090819020604080516101e081018252601286029092018054835260018082015460ff90811615158587015260028301548585015260038301546060860152600483015460808601528351808501855260058401546001600160a01b0316815260068401548188015260a0860152600783015460c0860152600883015460e08601526009830154610100860152600a83015461012086015283518085018552600b8401548152600c840154818801526101408601528351808501909452600d8301548452600e83015484870152610160850193909352600f820154610180850152601082015490921615156101a0840152601101546101c08301529083529092019101610b14565b505050915250909392505050565b601454604954604a54604b54604c54604d54604e54604f54605054605154605254909192939495969798999a565b603181600a8110610c7357fe5b6002020180546001909101546001600160a01b03909116915082565b6001600160a01b038216600090815260456020526040902054600160a01b900460ff168015610cf857506001600160a01b0382166000908152604560205260409020600101805482908110610ce057fe5b600091825260209091206001601290920201015460ff165b80610d0a57506001600160a01b038216155b610d1357600080fd5b336000908152604560205260409020600181015415610d875733600090815260456020526040902060018281015491018054610d7c9260029291600019909101908110610d5c57fe5b90600052602060002090601202016004015461181e90919063ffffffff16565b8411610d8757600080fd5b600480546040516323b872dd60e01b81526001600160a01b03909116916323b872dd91610dba91339130918a9101614b20565b602060405180830381600087803b158015610dd457600080fd5b505af1158015610de8573d6000803e3d6000fd5b505050506040513d601f19601f82011682018060405250810190610e0c9190614a46565b610e1557600080fd5b6000610e2085611858565b9050610e2a61492d565b825460ff60a01b196001600160a01b0319909116331716600160a01b1783556001808401548252602082015242604082018190526060820152600654610e88908390610e8290610e7b908a9061164d565b89906115b9565b906116ea565b608082015260a0810180516001600160a01b038781169091529051602090810186905260155461016084018051919091525181018890526040805160608101825286549384168152600160a01b90930460ff16151583830152600186018054825181850281018501845281815261102c9594899486019391929060009084015b8282101561101e576000848152602090819020604080516101e081018252601286029092018054835260018082015460ff90811615158587015260028301548585015260038301546060860152600483015460808601528351808501855260058401546001600160a01b0316815260068401548188015260a0860152600783015460c0860152600883015460e08601526009830154610100860152600a83015461012086015283518085018552600b8401548152600c840154818801526101408601528351808501909452600d8301548452600e83015484870152610160850193909352600f820154610180850152601082015490921615156101a0840152601101546101c08301529083529092019101610f08565b50505050815250508261192d565b6110368682611c33565b6001808401805480830182556000918252602091829020845160129092020190815581840151928101805493151560ff1994851617905560408401516002820155606084015160038201556080840151600482015560a084015180516005830180546001600160a01b039092166001600160a01b0319909216919091179055820151600682015560c0840151600782015560e084015160088201556101008401516009820155610120840151600a808301919091556101408501518051600b840155830151600c8301556101608501518051600d84015590920151600e820155610180840151600f8201556101a084015160108201805491151591909416179092556101c0830151601190920191909155546111609061115790889061164d565b601754906116ea565b60178190555061117e61117587600b5461164d565b601854906116ea565b601855611189611f0a565b6004546009546008546001600160a01b039283169263a9059cbb9216906111b1908a9061164d565b6040518363ffffffff1660e01b81526004016111ce929190614b44565b602060405180830381600087803b1580156111e857600080fd5b505af11580156111fc573d6000803e3d6000fd5b505050506040513d601f19601f820116820180604052508101906112209190614a46565b50600480546040516370a0823160e01b81526000926001600160a01b03909216916370a082319161125391309101614b0c565b60206040518083038186803b15801561126b57600080fd5b505afa15801561127f573d6000803e3d6000fd5b505050506040513d601f19601f820116820180604052508101906112a39190614a7e565b90506014548111156112b55760148190555b6049546112c290886116ea565b604955604b546112d39060016116ea565b604b55604c546112e49060016116ea565b604c556050546112f490846116ea565b6050556040517f5548c837ab068cf56a2c2479df0882a4922fd203edb7517321831d95078c5f629061132b90339089908b90614b20565b60405180910390a150505050505050565b336000818152604560205260409020805490916001600160a01b039091161461136457600080fd5b600081600101838154811061137557fe5b9060005260206000209060120201905060008160040154905060006113a08360040154600c5461164d565b90506113ac82826115b9565b915060006113cb846011015485600f01546116ea90919063ffffffff16565b9050828111156113da57600080fd5b6113e483826115b9565b60048054875460405163a9059cbb60e01b81529396506001600160a01b039182169363a9059cbb9361141c9390921691889101614b44565b602060405180830381600087803b15801561143657600080fd5b505af115801561144a573d6000803e3d6000fd5b505050506040513d601f19601f8201168201806040525081019061146e9190614a46565b5060018401805460ff19169055600f84015461148a90846116ea565b600f850155601184015461149e90836116ea565b6011850155604c546114b19060016115b9565b604c556052546114c29060016116ea565b605255604a546114d290846116ea565b604a556051546114e290836116ea565b60515584546040517faa5cfc974bd759f818e3e18a4afc9d79daaa0722158497792100a1fddd13e19391611521916001600160a01b0390911690614b0c565b60405180910390a1505050505050565b604681815481106109a857fe5b604781815481106109a857fe5b601981600c8110610c7357fe5b60008061156483612163565b90506012546115778460800151836121de565b106115925761158f611588846121f9565b82906116ea565b90505b60006115a4846080015160055461164d565b9050808211156115b2578091505b5092915050565b60006115fb83836040518060400160405280601e81526020017f536166654d6174683a207375627472616374696f6e206f766572666c6f770000815250612255565b9392505050565b6000806116138460800151846121de565b905060125481106116285760009150506103e9565b60c88110156116455761163d836119c861164d565b9150506103e9565b6103e583610ce45b600060015482101561165e57600080fd5b60025482111561166d57600080fd5b6000546115fb9061167e858561181e565b90612281565b6053546101a0830151600091901561169b57506056545b60006116ab85608001518361164d565b905084610180015181106116be57600080fd5b61018085015181906116d090866116ea565b11156116e157846101800151810393505b50919392505050565b6000828201838110156115fb5760405162461bcd60e51b815260040161170f90614bb0565b60405180910390fd5b61172660145460535461164d565b600480546040516370a0823160e01b81526001600160a01b03909116916370a082319161175591309101614b0c565b60206040518083038186803b15801561176d57600080fd5b505afa158015611781573d6000803e3d6000fd5b505050506040513d601f19601f820116820180604052508101906117a59190614a7e565b116117bc576054805460ff191660011790556117c7565b6054805460ff191690555b565b601081015460ff161580156117e25750600181015460ff165b6117eb57600080fd5b6118096117fe826004015460555461164d565b6004830154906115b9565b6004820155601001805460ff19166001179055565b60008261182d575060006103e9565b8282028284828161183a57fe5b04146115fb5760405162461bcd60e51b815260040161170f90614be5565b600080624c4b4083111561186e57506032611923565b620f424083111561188157506028611923565b620c350083111561189457506023611923565b6207a1208311156118a75750601e611923565b6203d0908311156118ba57506019611923565b620186a08311156118cd57506014611923565b61c3508311156118df5750600f611923565b6161a88311156118f15750600a611923565b61271083111561190357506005611923565b61138883111561191557506002611923565b6107d0831115611923575060015b6115fb838261164d565b6000603161193d600a60016115b9565b600a811061194757fe5b60020201546001600160a01b031614806119e8575060456000603161196e600a60016115b9565b600a811061197857fe5b60020201546001600160a01b0316815260208101919091526040016000206001908101906031906119ab90600a906115b9565b600a81106119b557fe5b6002020160010154815481106119c757fe5b9060005260206000209060120201600d016001015481610160015160200151115b15611c2f576119f56149b9565b60005b600a811015611c2c576000603182600a8110611a1057fe5b60020201546001600160a01b03161415611a74578351603182600a8110611a3357fe5b6002020180546001600160a01b0319166001600160a01b03929092169190911790558251603182600a8110611a6457fe5b6002020160010181905550611c2c565b60456000603183600a8110611a8557fe5b60020201546001600160a01b031681526020810191909152604001600020600101603182600a8110611ab357fe5b600202016001015481548110611ac557fe5b9060005260206000209060120201600d0160010154836101600151602001511115611c2457603181600a8110611af757fe5b604080518082019091526002919091029190910180546001600160a01b031682526001015460208201528451909250603182600a8110611b3357fe5b6002020180546001600160a01b0319166001600160a01b03929092169190911790558251603182600a8110611b6457fe5b6002020160010181905550611b776149b9565b815b600a831015611c1d5783516001600160a01b0316611b9657611c1d565b603181600a8110611ba357fe5b604080518082019091526002919091029190910180546001600160a01b03168252600101546020820152915083603182600a8110611bdd57fe5b82516002919091029190910180546001600160a01b0319166001600160a01b03909216919091178155602090910151600191820155919350839101611b79565b5050611c2c565b6001016119f8565b50505b5050565b60a0810151516001600160a01b031615801590611c9a575060a081018051516001600160a01b0316600090815260456020908152604090912091510151600190910180549091908110611c8257fe5b600091825260209091206001601290920201015460ff165b15611c2f5760a0810151516001600160a01b03166000908152604560205260408120600754909190611ccd90859061164d565b9050611d0a81836001018560a001516020015181548110611cea57fe5b9060005260206000209060120201600701546116ea90919063ffffffff16565b826001018460a001516020015181548110611d2157fe5b60009182526020909120600760129092020101556015546101408401515114611d5c5760155461014084018051919091525160006020909101525b61014083015160200151611d7090856116ea565b6101408401516020908101919091526040805160608101825284546001600160a01b0381168252600160a01b900460ff161515818401526001850180548351818602810186018552818152611ef495939488949086019391929060009084015b82821015611ee6576000848152602090819020604080516101e081018252601286029092018054835260018082015460ff90811615158587015260028301548585015260038301546060860152600483015460808601528351808501855260058401546001600160a01b0316815260068401548188015260a0860152600783015460c0860152600883015460e08601526009830154610100860152600a83015461012086015283518085018552600b8401548152600c840154818801526101408601528351808501909452600d8301548452600e83015484870152610160850193909352600f820154610180850152601082015490921615156101a0840152601101546101c08301529083529092019101611dd0565b5050505081525050846122c0565b604d54611f0190826116ea565b604d5550505050565b60165462015180014211156117c75760005b600c81101561202f576000601982600c8110611f3457fe5b60020201546001600160a01b03161415611f4d5761202f565b600060456000601984600c8110611f6057fe5b60020201546001600160a01b03168152602081019190915260400160002060175460468054929350611fef92611fac92919086908110611f9c57fe5b906000526020600020015461164d565b82600101601985600c8110611fbd57fe5b600202016001015481548110611fcf57fe5b9060005260206000209060120201600801546116ea90919063ffffffff16565b81600101601984600c811061200057fe5b60020201600101548154811061201257fe5b600091825260209091206008601290920201015550600101611f1c565b5060005b600a811015612136576000603182600a811061204b57fe5b60020201546001600160a01b0316141561206457612136565b600060456000603184600a811061207757fe5b60020201546001600160a01b031681526020810191909152604001600020601854604780549293506120f6926120b392919086908110611f9c57fe5b82600101603185600a81106120c457fe5b6002020160010154815481106120d657fe5b9060005260206000209060120201600901546116ea90919063ffffffff16565b81600101603184600a811061210757fe5b60020201600101548154811061211957fe5b600091825260209091206009601290920201015550600101612033565b50601754604e54612146916116ea565b604e55601854604f54612158916116ea565b604f556117c7612550565b6000806121828361010001518460e001516116ea90919063ffffffff16565b905060008360c00151905060006121b285608001516121ad6121a888604001514261262c565b612640565b61164d565b905060006121bf86612686565b905060006121d382610e82858189896116ea565b979650505050505050565b60006115fb8361167e6000548561181e90919063ffffffff16565b600080612215600261220f85606001514261262c565b9061181e565b9050600061222e6010548361181e90919063ffffffff16565b905060115481111561223f57506011545b61224d84608001518261164d565b949350505050565b600081848411156122795760405162461bcd60e51b815260040161170f9190614b5d565b505050900390565b60006115fb83836040518060400160405280601a815260200179536166654d6174683a206469766973696f6e206279207a65726f60301b81525061273b565b602f546001600160a01b031615806123235750602f546001600160a01b0316600090815260456020526040902060305460019091018054909190811061230257fe5b9060005260206000209060120201600b016001015481610140015160200151115b15611c2f576123306149b9565b60005b600c811015611c2c576000601982600c811061234b57fe5b60020201546001600160a01b0316141561239f578351601982600c811061236e57fe5b6002020180546001600160a01b0319166001600160a01b03929092169190911790558251601982600c8110611a6457fe5b60456000601983600c81106123b057fe5b60020201546001600160a01b031681526020810191909152604001600020600101601982600c81106123de57fe5b6002020160010154815481106123f057fe5b9060005260206000209060120201600b016001015483610140015160200151111561254857601981600c811061242257fe5b604080518082019091526002919091029190910180546001600160a01b031682526001015460208201528451909250601982600c811061245e57fe5b6002020180546001600160a01b0319166001600160a01b03929092169190911790558251601982600c811061248f57fe5b60020201600101819055506124a26149b9565b815b600c831015611c1d5783516001600160a01b03166124c157611c1d565b601981600c81106124ce57fe5b604080518082019091526002919091029190910180546001600160a01b03168252600101546020820152915083601982600c811061250857fe5b82516002919091029190910180546001600160a01b0319166001600160a01b039092169190911781556020909101516001918201559193508391016124a4565b600101612333565b60005b6046548110156125b5576000601982600c811061256c57fe5b6002020180546001600160a01b0319166001600160a01b03929092169190911790556000601982600c811061259d57fe5b60020201600101819055508080600101915050612553565b5060005b60475481101561261b576000603182600a81106125d257fe5b6002020180546001600160a01b0319166001600160a01b03929092169190911790556000601982600c811061260357fe5b600202016001018190555080806001019150506125b9565b506000601781905560185542601655565b6003546000906115fb9061167e84866115b9565b600061012d821061265057600080fd5b606061265a612772565b905060606126678261482a565b905080848151811061267557fe5b602002602001015192505050919050565b600f54600e54600480546040516370a0823160e01b8152600094859461271c94919361220f9391926001600160a01b03909116916370a08231916126cc91309101614b0c565b60206040518083038186803b1580156126e457600080fd5b505afa1580156126f8573d6000803e3d6000fd5b505050506040513d601f19601f8201168201806040525081019061167e9190614a7e565b9050600d5481111561272d5750600d545b6115fb83608001518261164d565b6000818361275c5760405162461bcd60e51b815260040161170f9190614b5d565b50600083858161276857fe5b0495945050505050565b6040805161012d8082526125c08201909252606091829190602082016125a0803683370190505090506000816000815181106127aa57fe5b6020026020010181815250506001816001815181106127c557fe5b6020026020010181815250506002816002815181106127e057fe5b6020026020010181815250506003816003815181106127fb57fe5b60200260200101818152505060048160048151811061281657fe5b60200260200101818152505060058160058151811061283157fe5b60200260200101818152505060068160068151811061284c57fe5b60200260200101818152505060068160078151811061286757fe5b60200260200101818152505060078160088151811061288257fe5b60200260200101818152505060088160098151811061289d57fe5b602002602001018181525050600981600a815181106128b857fe5b602002602001018181525050600a81600b815181106128d357fe5b602002602001018181525050600b81600c815181106128ee57fe5b602002602001018181525050600c81600d8151811061290957fe5b602002602001018181525050600d81600e8151811061292457fe5b602002602001018181525050600e81600f8151811061293f57fe5b602002602001018181525050600f8160108151811061295a57fe5b60200260200101818152505060108160118151811061297557fe5b60200260200101818152505060128160128151811061299057fe5b6020026020010181815250506013816013815181106129ab57fe5b6020026020010181815250506014816014815181106129c657fe5b6020026020010181815250506015816015815181106129e157fe5b6020026020010181815250506016816016815181106129fc57fe5b602002602001018181525050601781601781518110612a1757fe5b602002602001018181525050601881601881518110612a3257fe5b602002602001018181525050601981601981518110612a4d57fe5b602002602001018181525050601a81601a81518110612a6857fe5b602002602001018181525050601b81601b81518110612a8357fe5b602002602001018181525050601d81601c81518110612a9e57fe5b602002602001018181525050601e81601d81518110612ab957fe5b602002602001018181525050601f81601e81518110612ad457fe5b602002602001018181525050602081601f81518110612aef57fe5b602002602001018181525050602181602081518110612b0a57fe5b602002602001018181525050602281602181518110612b2557fe5b602002602001018181525050602481602281518110612b4057fe5b602002602001018181525050602581602381518110612b5b57fe5b602002602001018181525050602681602481518110612b7657fe5b602002602001018181525050602781602581518110612b9157fe5b602002602001018181525050602981602681518110612bac57fe5b602002602001018181525050602a81602781518110612bc757fe5b602002602001018181525050602b81602881518110612be257fe5b602002602001018181525050602c81602981518110612bfd57fe5b602002602001018181525050602e81602a81518110612c1857fe5b602002602001018181525050602f81602b81518110612c3357fe5b602002602001018181525050603081602c81518110612c4e57fe5b602002602001018181525050603281602d81518110612c6957fe5b602002602001018181525050603381602e81518110612c8457fe5b602002602001018181525050603481602f81518110612c9f57fe5b602002602001018181525050603681603081518110612cba57fe5b602002602001018181525050603781603181518110612cd557fe5b602002602001018181525050603981603281518110612cf057fe5b602002602001018181525050603a81603381518110612d0b57fe5b602002602001018181525050603b81603481518110612d2657fe5b602002602001018181525050603d81603581518110612d4157fe5b602002602001018181525050603e81603681518110612d5c57fe5b602002602001018181525050604081603781518110612d7757fe5b602002602001018181525050604181603881518110612d9257fe5b602002602001018181525050604381603981518110612dad57fe5b602002602001018181525050604481603a81518110612dc857fe5b602002602001018181525050604681603b81518110612de357fe5b602002602001018181525050604781603c81518110612dfe57fe5b602002602001018181525050604981603d81518110612e1957fe5b602002602001018181525050604a81603e81518110612e3457fe5b602002602001018181525050604c81603f81518110612e4f57fe5b602002602001018181525050604d81604081518110612e6a57fe5b602002602001018181525050604f81604181518110612e8557fe5b602002602001018181525050605181604281518110612ea057fe5b602002602001018181525050605281604381518110612ebb57fe5b602002602001018181525050605481604481518110612ed657fe5b602002602001018181525050605681604581518110612ef157fe5b602002602001018181525050605781604681518110612f0c57fe5b602002602001018181525050605981604781518110612f2757fe5b602002602001018181525050605b81604881518110612f4257fe5b602002602001018181525050605c81604981518110612f5d57fe5b602002602001018181525050605e81604a81518110612f7857fe5b602002602001018181525050606081604b81518110612f9357fe5b602002602001018181525050606281604c81518110612fae57fe5b602002602001018181525050606381604d81518110612fc957fe5b602002602001018181525050606581604e81518110612fe457fe5b602002602001018181525050606781604f81518110612fff57fe5b60200260200101818152505060698160508151811061301a57fe5b602002602001018181525050606b8160518151811061303557fe5b602002602001018181525050606c8160528151811061305057fe5b602002602001018181525050606e8160538151811061306b57fe5b60200260200101818152505060708160548151811061308657fe5b6020026020010181815250506072816055815181106130a157fe5b6020026020010181815250506074816056815181106130bc57fe5b6020026020010181815250506076816057815181106130d757fe5b6020026020010181815250506078816058815181106130f257fe5b602002602001018181525050607a8160598151811061310d57fe5b602002602001018181525050607c81605a8151811061312857fe5b602002602001018181525050607e81605a8151811061314357fe5b602002602001018181525050608081605c8151811061315e57fe5b602002602001018181525050608281605d8151811061317957fe5b602002602001018181525050608481605e8151811061319457fe5b602002602001018181525050608681605f815181106131af57fe5b6020026020010181815250506088816060815181106131ca57fe5b602002602001018181525050608a816061815181106131e557fe5b602002602001018181525050608d8160628151811061320057fe5b602002602001018181525050608f8160638151811061321b57fe5b60200260200101818152505060918160648151811061323657fe5b60200260200101818152505060938160658151811061325157fe5b60200260200101818152505060958160668151811061326c57fe5b60200260200101818152505060988160678151811061328757fe5b602002602001018181525050609a816068815181106132a257fe5b602002602001018181525050609c816069815181106132bd57fe5b602002602001018181525050609f81606a815181106132d857fe5b60200260200101818152505060a181606b815181106132f357fe5b60200260200101818152505060a381606c8151811061330e57fe5b60200260200101818152505060a681606d8151811061332957fe5b60200260200101818152505060a881606e8151811061334457fe5b60200260200101818152505060aa81606f8151811061335f57fe5b60200260200101818152505060ad8160708151811061337a57fe5b60200260200101818152505060af8160718151811061339557fe5b60200260200101818152505060b2816072815181106133b057fe5b60200260200101818152505060b4816073815181106133cb57fe5b60200260200101818152505060b7816074815181106133e657fe5b60200260200101818152505060b98160758151811061340157fe5b60200260200101818152505060bc8160768151811061341c57fe5b60200260200101818152505060be8160778151811061343757fe5b60200260200101818152505060c18160788151811061345257fe5b60200260200101818152505060c48160798151811061346d57fe5b60200260200101818152505060c681607a8151811061348857fe5b60200260200101818152505060c981607b815181106134a357fe5b60200260200101818152505060cc81607c815181106134be57fe5b60200260200101818152505060ce81607d815181106134d957fe5b60200260200101818152505060d181607e815181106134f457fe5b60200260200101818152505060d481607f8151811061350f57fe5b60200260200101818152505060d78160808151811061352a57fe5b60200260200101818152505060da8160818151811061354557fe5b60200260200101818152505060dd8160828151811061356057fe5b60200260200101818152505060df8160838151811061357b57fe5b60200260200101818152505060e28160848151811061359657fe5b60200260200101818152505060e5816085815181106135b157fe5b60200260200101818152505060e8816086815181106135cc57fe5b60200260200101818152505060eb816087815181106135e757fe5b60200260200101818152505060ee8160888151811061360257fe5b60200260200101818152505060f18160898151811061361d57fe5b60200260200101818152505060f481608a8151811061363857fe5b60200260200101818152505060f781608b8151811061365357fe5b60200260200101818152505060fb81608c8151811061366e57fe5b60200260200101818152505060fe81608d8151811061368957fe5b60200260200101818152505061010181608e815181106136a557fe5b60200260200101818152505061010481608f815181106136c157fe5b602002602001018181525050610107816090815181106136dd57fe5b60200260200101818152505061010b816091815181106136f957fe5b60200260200101818152505061010e8160928151811061371557fe5b6020026020010181815250506101118160938151811061373157fe5b6020026020010181815250506101158160948151811061374d57fe5b6020026020010181815250506101188160958151811061376957fe5b60200260200101818152505061011b8160968151811061378557fe5b60200260200101818152505061011f816097815181106137a157fe5b602002602001018181525050610122816098815181106137bd57fe5b602002602001018181525050610126816099815181106137d957fe5b60200260200101818152505061012981609a815181106137f557fe5b60200260200101818152505061012d81609b8151811061381157fe5b60200260200101818152505061013181609c8151811061382d57fe5b60200260200101818152505061013481609d8151811061384957fe5b60200260200101818152505061013881609e8151811061386557fe5b60200260200101818152505061013c81609f8151811061388157fe5b60200260200101818152505061013f8160a08151811061389d57fe5b6020026020010181815250506101438160a1815181106138b957fe5b6020026020010181815250506101478160a2815181106138d557fe5b60200260200101818152505061014b8160a3815181106138f157fe5b60200260200101818152505061014f8160a48151811061390d57fe5b6020026020010181815250506101538160a58151811061392957fe5b6020026020010181815250506101578160a68151811061394557fe5b60200260200101818152505061015b8160a78151811061396157fe5b60200260200101818152505061015f8160a88151811061397d57fe5b6020026020010181815250506101638160a98151811061399957fe5b6020026020010181815250506101678160aa815181106139b557fe5b60200260200101818152505061016b8160ab815181106139d157fe5b60200260200101818152505061016f8160ac815181106139ed57fe5b6020026020010181815250506101738160ad81518110613a0957fe5b6020026020010181815250506101778160ae81518110613a2557fe5b60200260200101818152505061017c8160af81518110613a4157fe5b6020026020010181815250506101808160b081518110613a5d57fe5b6020026020010181815250506101848160b181518110613a7957fe5b6020026020010181815250506101898160b281518110613a9557fe5b60200260200101818152505061018d8160b381518110613ab157fe5b6020026020010181815250506101928160b481518110613acd57fe5b6020026020010181815250506101968160b581518110613ae957fe5b60200260200101818152505061019b8160b681518110613b0557fe5b60200260200101818152505061019f8160b781518110613b2157fe5b6020026020010181815250506101a48160b881518110613b3d57fe5b6020026020010181815250506101a98160b981518110613b5957fe5b6020026020010181815250506101ad8160ba81518110613b7557fe5b6020026020010181815250506101b28160bb81518110613b9157fe5b6020026020010181815250506101b78160bc81518110613bad57fe5b6020026020010181815250506101bc8160bd81518110613bc957fe5b6020026020010181815250506101c18160be81518110613be557fe5b6020026020010181815250506101c68160bf81518110613c0157fe5b6020026020010181815250506101cb8160c081518110613c1d57fe5b6020026020010181815250506101d08160c181518110613c3957fe5b6020026020010181815250506101d58160c281518110613c5557fe5b6020026020010181815250506101da8160c381518110613c7157fe5b6020026020010181815250506101df8160c481518110613c8d57fe5b6020026020010181815250506101e48160c581518110613ca957fe5b6020026020010181815250506101e98160c681518110613cc557fe5b6020026020010181815250506101ef8160c781518110613ce157fe5b6020026020010181815250506101f48160c881518110613cfd57fe5b6020026020010181815250506101fa8160c981518110613d1957fe5b6020026020010181815250506101ff8160ca81518110613d3557fe5b6020026020010181815250506102048160cb81518110613d5157fe5b60200260200101818152505061020a8160cc81518110613d6d57fe5b6020026020010181815250506102108160cd81518110613d8957fe5b6020026020010181815250506102158160ce81518110613da557fe5b60200260200101818152505061021b8160cf81518110613dc157fe5b6020026020010181815250506102218160d081518110613ddd57fe5b6020026020010181815250506102278160d181518110613df957fe5b60200260200101818152505061022c8160d281518110613e1557fe5b6020026020010181815250506102328160d381518110613e3157fe5b6020026020010181815250506102388160d481518110613e4d57fe5b60200260200101818152505061023e8160d581518110613e6957fe5b6020026020010181815250506102448160d681518110613e8557fe5b60200260200101818152505061024a8160d781518110613ea157fe5b6020026020010181815250506102518160d881518110613ebd57fe5b6020026020010181815250506102578160d981518110613ed957fe5b60200260200101818152505061025d8160da81518110613ef557fe5b6020026020010181815250506102638160db81518110613f1157fe5b60200260200101818152505061026a8160dc81518110613f2d57fe5b6020026020010181815250506102708160dd81518110613f4957fe5b6020026020010181815250506102778160de81518110613f6557fe5b60200260200101818152505061027d8160df81518110613f8157fe5b6020026020010181815250506102848160e081518110613f9d57fe5b60200260200101818152505061028b8160e181518110613fb957fe5b6020026020010181815250506102928160e281518110613fd557fe5b6020026020010181815250506102988160e381518110613ff157fe5b60200260200101818152505061029f8160e48151811061400d57fe5b6020026020010181815250506102a68160e58151811061402957fe5b6020026020010181815250506102ad8160e68151811061404557fe5b6020026020010181815250506102b48160e78151811061406157fe5b6020026020010181815250506102bb8160e88151811061407d57fe5b6020026020010181815250506102c38160e98151811061409957fe5b6020026020010181815250506102ca8160ea815181106140b557fe5b6020026020010181815250506102d18160eb815181106140d157fe5b6020026020010181815250506102d98160ec815181106140ed57fe5b6020026020010181815250506102e08160ed8151811061410957fe5b6020026020010181815250506102e88160ee8151811061412557fe5b6020026020010181815250506102ef8160ef8151811061414157fe5b6020026020010181815250506102f78160f08151811061415d57fe5b6020026020010181815250506102ff8160f18151811061417957fe5b6020026020010181815250506103068160f28151811061419557fe5b60200260200101818152505061030e8160f3815181106141b157fe5b6020026020010181815250506103168160f4815181106141cd57fe5b60200260200101818152505061031e8160f5815181106141e957fe5b6020026020010181815250506103268160f68151811061420557fe5b60200260200101818152505061032e8160f78151811061422157fe5b6020026020010181815250506103378160f88151811061423d57fe5b60200260200101818152505061033f8160f98151811061425957fe5b6020026020010181815250506103478160fa8151811061427557fe5b6020026020010181815250506103508160fb8151811061429157fe5b6020026020010181815250506103588160fc815181106142ad57fe5b6020026020010181815250506103618160fd815181106142c957fe5b60200260200101818152505061036a8160fe815181106142e557fe5b6020026020010181815250506103728160ff8151811061430157fe5b60200260200101818152505061037b816101008151811061431e57fe5b602002602001018181525050610384816101018151811061433b57fe5b60200260200101818152505061038d816101028151811061435857fe5b602002602001018181525050610396816101038151811061437557fe5b60200260200101818152505061039f816101048151811061439257fe5b6020026020010181815250506103a981610105815181106143af57fe5b6020026020010181815250506103b281610106815181106143cc57fe5b6020026020010181815250506103bb81610107815181106143e957fe5b6020026020010181815250506103c5816101088151811061440657fe5b6020026020010181815250506103ce816101098151811061442357fe5b6020026020010181815250506103d88161010a8151811061444057fe5b6020026020010181815250506103e28161010b8151811061445d57fe5b6020026020010181815250506103ec8161010c8151811061447a57fe5b6020026020010181815250506103f68161010d8151811061449757fe5b6020026020010181815250506104008161010e815181106144b457fe5b60200260200101818152505061040a8161010f815181106144d157fe5b60200260200101818152505061041481610110815181106144ee57fe5b60200260200101818152505061041e816101118151811061450b57fe5b602002602001018181525050610429816101128151811061452857fe5b602002602001018181525050610433816101138151811061454557fe5b60200260200101818152505061043e816101148151811061456257fe5b602002602001018181525050610448816101158151811061457f57fe5b602002602001018181525050610453816101168151811061459c57fe5b60200260200101818152505061045e81610117815181106145b957fe5b60200260200101818152505061046981610118815181106145d657fe5b60200260200101818152505061047481610119815181106145f357fe5b60200260200101818152505061047f8161011a8151811061461057fe5b60200260200101818152505061048a8161011b8151811061462d57fe5b6020026020010181815250506104968161011c8151811061464a57fe5b6020026020010181815250506104a18161011d8151811061466757fe5b6020026020010181815250506104ad8161011e8151811061468457fe5b6020026020010181815250506104b88161011f815181106146a157fe5b6020026020010181815250506104c481610120815181106146be57fe5b6020026020010181815250506104d081610121815181106146db57fe5b6020026020010181815250506104dc81610122815181106146f857fe5b6020026020010181815250506104e8816101238151811061471557fe5b6020026020010181815250506104f4816101248151811061473257fe5b602002602001018181525050610501816101258151811061474f57fe5b60200260200101818152505061050d816101268151811061476c57fe5b60200260200101818152505061051a816101278151811061478957fe5b60200260200101818152505061052681610128815181106147a657fe5b60200260200101818152505061053381610129815181106147c357fe5b6020026020010181815250506105408161012a815181106147e057fe5b60200260200101818152505061054d8161012b815181106147fd57fe5b60200260200101818152505061055a8161012c8151811061481a57fe5b6020908102919091010152905090565b6040805161012d8082526125c08201909252606091829190602082016125a0803683370190505090506000805b61012d8110156148a95761488785828151811061487057fe5b6020026020010151836116ea90919063ffffffff16565b91508183828151811061489657fe5b6020908102919091010152600101614857565b50909392505050565b6040805160608082018352600080835260208301529181019190915290565b604051806101400160405280600a905b6148e96149b9565b8152602001906001900390816148e15790505090565b604051806101800160405280600c905b6149176149b9565b81526020019060019003908161490f5790505090565b604051806101e00160405280600081526020016000151581526020016000815260200160008152602001600081526020016149666149b9565b81526020016000815260200160008152602001600081526020016000815260200161498f6149d0565b815260200161499c6149d0565b815260200160008152602001600015158152602001600081525090565b604080518082019091526000808252602082015290565b604051806040016040528060008152602001600081525090565b80356001600160a01b03811681146103e957600080fd5b600060208284031215614a12578081fd5b6115fb83836149ea565b60008060408385031215614a2e578081fd5b614a3884846149ea565b946020939093013593505050565b600060208284031215614a57578081fd5b815180151581146115fb578182fd5b600060208284031215614a77578081fd5b5035919050565b600060208284031215614a8f578081fd5b5051919050565b600080600060608486031215614aaa578081fd5b83359250614abb85602086016149ea565b9150604084013590509250925092565b6000614ad78383614ae5565b505060400190565b15159052565b80516001600160a01b03168252602090810151910152565b80518252602090810151910152565b6001600160a01b0391909116815260200190565b6001600160a01b039384168152919092166020820152604081019190915260600190565b6001600160a01b03929092168252602082015260400190565b6000602080835283518082850152825b81811015614b8957858101830151858201604001528201614b6d565b81811115614b9a5783604083870101525b50601f01601f1916929092016040019392505050565b6020808252601b908201527a536166654d6174683a206164646974696f6e206f766572666c6f7760281b604082015260600190565b60208082526021908201527f536166654d6174683a206d756c7469706c69636174696f6e206f766572666c6f6040820152607760f81b606082015260800190565b602080825282516001600160a01b0316828201528281015115156040808401919091528084015160608085018190528151608080870182905260009594909360a0939086019284890190885b81811015614d535785518051845289810151614c908b860182614adf565b5085810151868501528481015185850152888101518985015287810151614cb989860182614ae5565b5060c081015160e085810191909152810151610100808601919091528101516101208086019190915281015161014080860191909152810151610160614d0181870183614afd565b82015190506101a0614d1586820183614afd565b6101808301516101e08701528201519050614d34610200860182614adf565b506101c001516102208401529488019461024090920191600101614c72565b50909a9950505050505050505050565b90815260200190565b60006106008201905087825260208781840152866040840152856060840152608083018560005b600a811015614db557614da7838351614acb565b925090830190600101614d93565b50505061030083018460005b600c811015614de357614dd5838351614acb565b925090830190600101614dc1565b50505050979650505050505050565b9a8b5260208b019990995260408a01979097526060890195909552608088019390935260a087019190915260c086015260e0850152610100840152610120830152610140820152610160019056fea26469706673582212201be84749496987ab006490aee70572c9f6b4cd8aefcf7c6b71ed339f814302c364736f6c634300060c0033",
  "compiler": {
    "name": "solc",
    "version": "0.6.12+commit.27d51765.Emscripten.clang",
    "optimizer": {
      "enabled": true,
      "runs": 1
    },
    "evmVersion": "petersburg"
  }
}