{
  "fileName": "FourRXFinance.sol",
  "contractName": "FourRXFinance",
  "source": "// SPDX-License-Identifier: MIT\npragma solidity ^0.6.12;\npragma experimental ABIEncoderV2;\n\nimport \"@openzeppelin/contracts/token/ERC20/IERC20.sol\";\nimport \"./Insurance.sol\";\n\n/// @title 4RX Finance Staking DAPP Contract\n/// @notice Available functionality: Deposit, Withdraw, ExitProgram, Insure Stake\n/// @dev\ncontract FourRXFinance is Insurance {\n\n    constructor(address fourRXTokenAddress) public {\n        fourRXToken = IERC20(fourRXTokenAddress);\n\n        // Ref Bonus // 12 Max Participants\n        refPoolBonuses.push(2000); // 20%\n        refPoolBonuses.push(1700); // 17%\n        refPoolBonuses.push(1400); // 14%\n        refPoolBonuses.push(1100); // 11%\n        refPoolBonuses.push(1000); // 10%\n        refPoolBonuses.push(700); // 7%\n        refPoolBonuses.push(600); // 6%\n        refPoolBonuses.push(500); // 5%\n        refPoolBonuses.push(400); // 4%\n        refPoolBonuses.push(300); // 3%\n        refPoolBonuses.push(200); // 2%\n        refPoolBonuses.push(100); // 1%\n\n        // Sponsor Pool // 10 Max Participants\n        sponsorPoolBonuses.push(3000); // 30%\n        sponsorPoolBonuses.push(2000); // 20%\n        sponsorPoolBonuses.push(1200); // 12%\n        sponsorPoolBonuses.push(1000); // 10%\n        sponsorPoolBonuses.push(800); // 8%\n        sponsorPoolBonuses.push(700); // 7%\n        sponsorPoolBonuses.push(600); // 6%\n        sponsorPoolBonuses.push(400); // 4%\n        sponsorPoolBonuses.push(200); // 2%\n        sponsorPoolBonuses.push(100); // 1%\n\n        _resetPools();\n\n        poolCycle = 0;\n    }\n\n    function deposit(uint amount, address uplinkAddress, uint uplinkStakeId) external {\n        // 2k\n        require(\n            uplinkAddress == address(0) ||\n            (users[uplinkAddress].wallet != address(0) && users[uplinkAddress].stakes[uplinkStakeId].active)\n        ); // Either uplink must be registered and be a active deposit, 0 address\n\n        User storage user = users[msg.sender];\n        // 1k\n        if (users[msg.sender].stakes.length > 0) {\n            require(amount >= users[msg.sender].stakes[user.stakes.length - 1].deposit.mul(2)); // deposit amount must be greater 2x then last deposit\n        }\n        // 30k\n        require(fourRXToken.transferFrom(msg.sender, address(this), amount));\n        // 66k\n        drawPool(); // Draw old pool if qualified, and we're pretty sure that this stake is going to be created\n\n        uint depositReward = _calcDepositRewards(amount);\n\n        Stake memory stake;\n\n        user.wallet = msg.sender;\n\n        stake.id = uint8(user.stakes.length);\n        stake.active = true;\n        stake.interestCountFrom = uint32(block.timestamp);\n        stake.holdFrom = uint32(block.timestamp);\n\n        stake.deposit = amount.sub(_calcPercentage(amount, LP_FEE_BP)).add(depositReward); // Deduct LP Commission + add deposit rewards\n\n        stake.sponsorPool.cycle = poolCycle;\n        stake.sponsorPool.amount = amount;\n        // 33k\n        _updateSponsorPoolUsers(user, stake);\n        // 54k\n        if (uplinkAddress != address(0)) {\n            _distributeReferralReward(amount, stake, uplinkAddress, uplinkStakeId);\n        }\n\n        user.stakes.push(stake);\n        // 12k\n        refPoolBalance = refPoolBalance.add(_calcPercentage(amount, REF_POOL_FEE_BP));\n        // 20k\n        sponsorPoolBalance = sponsorPoolBalance.add(_calcPercentage(amount, SPONSOR_POOL_FEE_BP));\n\n        // 14k\n        devBalance = devBalance.add(_calcPercentage(amount, DEV_FEE_BP));\n\n        uint currentContractBalance = fourRXToken.balanceOf(address(this));\n\n        if (currentContractBalance > maxContractBalance) {\n            maxContractBalance = currentContractBalance;\n        }\n\n        // 54k\n        totalDepositRewards = totalDepositRewards.add(depositReward);\n\n        emit Deposit(msg.sender, amount, uplinkAddress, uplinkStakeId);\n    }\n\n\n    function balanceOf(address _userAddress, uint stakeId) external view returns (uint) {\n        require(users[_userAddress].wallet == _userAddress);\n        User memory user = users[_userAddress];\n\n        return _calcRewards(user.stakes[stakeId]).sub(user.stakes[stakeId].withdrawn);\n    }\n\n    function withdraw(uint stakeId) external {\n        User storage user = users[msg.sender];\n        Stake storage stake = user.stakes[stakeId];\n        require(user.wallet == msg.sender && stake.active); // stake should be active\n\n        require(stake.lastWithdrawalAt + 1 days < block.timestamp); // we only allow one withdrawal each day\n\n        uint availableAmount = _calcRewards(stake).sub(stake.withdrawn).sub(stake.penalty);\n\n        require(availableAmount > 0);\n\n        uint penalty = _calcPenalty(stake, availableAmount);\n\n        if (penalty == 0) {\n            availableAmount = availableAmount.sub(_calcPercentage(stake.deposit, REWARD_THRESHOLD_BP)); // Only allow withdrawal if available is more then 10% of base\n\n            uint maxAllowedWithdrawal = _calcPercentage(stake.deposit, MAX_WITHDRAWAL_OVER_REWARD_THRESHOLD_BP);\n\n            if (availableAmount > maxAllowedWithdrawal) {\n                availableAmount = maxAllowedWithdrawal;\n            }\n        }\n\n        if (isInInsuranceState) {\n            availableAmount = _getInsuredAvailableAmount(stake, availableAmount);\n        }\n\n        availableAmount = availableAmount.sub(penalty);\n\n        fourRXToken.transfer(user.wallet, availableAmount);\n\n        stake.withdrawn = stake.withdrawn.add(availableAmount);\n        stake.lastWithdrawalAt = uint32(block.timestamp);\n        stake.holdFrom = uint32(block.timestamp);\n\n        stake.penalty = stake.penalty.add(penalty);\n\n        if (stake.withdrawn >= _calcPercentage(stake.deposit, MAX_CONTRACT_REWARD_BP)) {\n            stake.active = false; // if stake has withdrawn equals to or more then the max amount, then mark stake in-active\n        }\n\n        _checkForBaseInsuranceTrigger();\n\n        emit Withdrawn(user.wallet, availableAmount);\n    }\n\n    function exitProgram(uint stakeId) external {\n        User storage user = users[msg.sender];\n        require(user.wallet == msg.sender);\n        Stake storage stake = user.stakes[stakeId];\n        uint availableAmount = stake.deposit;\n        uint penaltyAmount = _calcPercentage(stake.deposit, EXIT_PENALTY_BP);\n\n        availableAmount = availableAmount.sub(penaltyAmount);\n\n        uint withdrawn = stake.withdrawn.add(stake.penalty);\n        require(withdrawn <= availableAmount);\n        availableAmount = availableAmount.sub(withdrawn);\n\n        fourRXToken.transfer(user.wallet, availableAmount);\n\n        stake.active = false;\n        stake.withdrawn = stake.withdrawn.add(availableAmount);\n        stake.penalty = stake.penalty.add(penaltyAmount);\n\n        totalExited = totalExited.add(1);\n\n        emit Exited(user.wallet, stakeId, availableAmount);\n    }\n\n    function insureStake(uint stakeId) external {\n        User storage user = users[msg.sender];\n        require(user.wallet == msg.sender);\n        Stake storage stake = user.stakes[stakeId];\n        _insureStake(user.wallet, stake);\n    }\n\n    // Getters\n\n    function getUser(address userAddress) external view returns (User memory) {\n        return users[userAddress];\n    }\n\n    function getPoolInfo() external view returns (uint, uint, uint, uint, PoolUser[10] memory, PoolUser[12] memory) {\n        return (poolDrewAt, poolCycle, sponsorPoolBalance, refPoolBalance, sponsorPoolUsers, refPoolUsers);\n    }\n\n    function getContractInfo() external view returns (uint, bool, uint, uint) {\n        return (maxContractBalance, isInInsuranceState, totalDepositRewards, totalExited);\n    }\n\n    function withdrawDevFee(address withdrawingAddress, uint amount) external {\n        require(msg.sender == devAddress);\n        require(amount <= devBalance);\n        fourRXToken.transfer(withdrawingAddress, amount);\n        devBalance = devBalance.sub(amount);\n    }\n\n    function updateDevAddress(address newDevAddress) external {\n        require(msg.sender == devAddress);\n        devAddress = newDevAddress;\n    }\n}\n",
  "sourcePath": "contracts/FourRXFinance.sol",
  "abi": [
    {
      "inputs": [
        {
          "internalType": "address",
          "name": "fourRXTokenAddress",
          "type": "address"
        }
      ],
      "stateMutability": "nonpayable",
      "type": "constructor"
    },
    {
      "anonymous": false,
      "inputs": [
        {
          "indexed": false,
          "internalType": "address",
          "name": "user",
          "type": "address"
        },
        {
          "indexed": false,
          "internalType": "uint256",
          "name": "amount",
          "type": "uint256"
        },
        {
          "indexed": false,
          "internalType": "address",
          "name": "uplinkAddress",
          "type": "address"
        },
        {
          "indexed": false,
          "internalType": "uint256",
          "name": "uplinkStakeId",
          "type": "uint256"
        }
      ],
      "name": "Deposit",
      "type": "event"
    },
    {
      "anonymous": false,
      "inputs": [
        {
          "indexed": false,
          "internalType": "address",
          "name": "user",
          "type": "address"
        },
        {
          "indexed": false,
          "internalType": "uint256",
          "name": "stakeId",
          "type": "uint256"
        },
        {
          "indexed": false,
          "internalType": "uint256",
          "name": "amount",
          "type": "uint256"
        }
      ],
      "name": "Exited",
      "type": "event"
    },
    {
      "anonymous": false,
      "inputs": [
        {
          "indexed": false,
          "internalType": "uint256",
          "name": "refPoolAmount",
          "type": "uint256"
        },
        {
          "indexed": false,
          "internalType": "uint256",
          "name": "sponsirPoolAmount",
          "type": "uint256"
        }
      ],
      "name": "PoolDrawn",
      "type": "event"
    },
    {
      "anonymous": false,
      "inputs": [
        {
          "indexed": false,
          "internalType": "address",
          "name": "user",
          "type": "address"
        },
        {
          "indexed": false,
          "internalType": "uint256",
          "name": "amount",
          "type": "uint256"
        }
      ],
      "name": "ReInvest",
      "type": "event"
    },
    {
      "anonymous": false,
      "inputs": [
        {
          "indexed": false,
          "internalType": "address",
          "name": "user",
          "type": "address"
        },
        {
          "indexed": false,
          "internalType": "uint256",
          "name": "amount",
          "type": "uint256"
        }
      ],
      "name": "Withdrawn",
      "type": "event"
    },
    {
      "inputs": [],
      "name": "CONTRACT_BONUS_PER_UNIT_BP",
      "outputs": [
        {
          "internalType": "uint256",
          "name": "",
          "type": "uint256"
        }
      ],
      "stateMutability": "view",
      "type": "function"
    },
    {
      "inputs": [],
      "name": "CONTRACT_BONUS_UNIT",
      "outputs": [
        {
          "internalType": "uint256",
          "name": "",
          "type": "uint256"
        }
      ],
      "stateMutability": "view",
      "type": "function"
    },
    {
      "inputs": [],
      "name": "DAY",
      "outputs": [
        {
          "internalType": "uint256",
          "name": "",
          "type": "uint256"
        }
      ],
      "stateMutability": "view",
      "type": "function"
    },
    {
      "inputs": [],
      "name": "DEV_FEE_BP",
      "outputs": [
        {
          "internalType": "uint256",
          "name": "",
          "type": "uint256"
        }
      ],
      "stateMutability": "view",
      "type": "function"
    },
    {
      "inputs": [],
      "name": "EXIT_PENALTY_BP",
      "outputs": [
        {
          "internalType": "uint256",
          "name": "",
          "type": "uint256"
        }
      ],
      "stateMutability": "view",
      "type": "function"
    },
    {
      "inputs": [],
      "name": "HOLD_BONUS_PER_UNIT_BP",
      "outputs": [
        {
          "internalType": "uint256",
          "name": "",
          "type": "uint256"
        }
      ],
      "stateMutability": "view",
      "type": "function"
    },
    {
      "inputs": [],
      "name": "HOLD_BONUS_UNIT",
      "outputs": [
        {
          "internalType": "uint256",
          "name": "",
          "type": "uint256"
        }
      ],
      "stateMutability": "view",
      "type": "function"
    },
    {
      "inputs": [],
      "name": "LP_FEE_BP",
      "outputs": [
        {
          "internalType": "uint256",
          "name": "",
          "type": "uint256"
        }
      ],
      "stateMutability": "view",
      "type": "function"
    },
    {
      "inputs": [],
      "name": "MAX_CONTRACT_BONUS_BP",
      "outputs": [
        {
          "internalType": "uint256",
          "name": "",
          "type": "uint256"
        }
      ],
      "stateMutability": "view",
      "type": "function"
    },
    {
      "inputs": [],
      "name": "MAX_CONTRACT_REWARD_BP",
      "outputs": [
        {
          "internalType": "uint256",
          "name": "",
          "type": "uint256"
        }
      ],
      "stateMutability": "view",
      "type": "function"
    },
    {
      "inputs": [],
      "name": "MAX_HOLD_BONUS_BP",
      "outputs": [
        {
          "internalType": "uint256",
          "name": "",
          "type": "uint256"
        }
      ],
      "stateMutability": "view",
      "type": "function"
    },
    {
      "inputs": [],
      "name": "MAX_WITHDRAWAL_OVER_REWARD_THRESHOLD_BP",
      "outputs": [
        {
          "internalType": "uint256",
          "name": "",
          "type": "uint256"
        }
      ],
      "stateMutability": "view",
      "type": "function"
    },
    {
      "inputs": [],
      "name": "PERCENT_MULTIPLIER",
      "outputs": [
        {
          "internalType": "uint256",
          "name": "",
          "type": "uint256"
        }
      ],
      "stateMutability": "view",
      "type": "function"
    },
    {
      "inputs": [],
      "name": "REF_COMMISSION_BP",
      "outputs": [
        {
          "internalType": "uint256",
          "name": "",
          "type": "uint256"
        }
      ],
      "stateMutability": "view",
      "type": "function"
    },
    {
      "inputs": [],
      "name": "REF_POOL_FEE_BP",
      "outputs": [
        {
          "internalType": "uint256",
          "name": "",
          "type": "uint256"
        }
      ],
      "stateMutability": "view",
      "type": "function"
    },
    {
      "inputs": [],
      "name": "REWARD_THRESHOLD_BP",
      "outputs": [
        {
          "internalType": "uint256",
          "name": "",
          "type": "uint256"
        }
      ],
      "stateMutability": "view",
      "type": "function"
    },
    {
      "inputs": [],
      "name": "SPONSOR_POOL_FEE_BP",
      "outputs": [
        {
          "internalType": "uint256",
          "name": "",
          "type": "uint256"
        }
      ],
      "stateMutability": "view",
      "type": "function"
    },
    {
      "inputs": [
        {
          "internalType": "address",
          "name": "_userAddress",
          "type": "address"
        },
        {
          "internalType": "uint256",
          "name": "stakeId",
          "type": "uint256"
        }
      ],
      "name": "balanceOf",
      "outputs": [
        {
          "internalType": "uint256",
          "name": "",
          "type": "uint256"
        }
      ],
      "stateMutability": "view",
      "type": "function"
    },
    {
      "inputs": [
        {
          "internalType": "uint256",
          "name": "amount",
          "type": "uint256"
        },
        {
          "internalType": "address",
          "name": "uplinkAddress",
          "type": "address"
        },
        {
          "internalType": "uint256",
          "name": "uplinkStakeId",
          "type": "uint256"
        }
      ],
      "name": "deposit",
      "outputs": [],
      "stateMutability": "nonpayable",
      "type": "function"
    },
    {
      "inputs": [],
      "name": "devAddress",
      "outputs": [
        {
          "internalType": "address",
          "name": "",
          "type": "address"
        }
      ],
      "stateMutability": "view",
      "type": "function"
    },
    {
      "inputs": [],
      "name": "devBalance",
      "outputs": [
        {
          "internalType": "uint256",
          "name": "",
          "type": "uint256"
        }
      ],
      "stateMutability": "view",
      "type": "function"
    },
    {
      "inputs": [],
      "name": "drawPool",
      "outputs": [],
      "stateMutability": "nonpayable",
      "type": "function"
    },
    {
      "inputs": [
        {
          "internalType": "uint256",
          "name": "stakeId",
          "type": "uint256"
        }
      ],
      "name": "exitProgram",
      "outputs": [],
      "stateMutability": "nonpayable",
      "type": "function"
    },
    {
      "inputs": [],
      "name": "fourRXToken",
      "outputs": [
        {
          "internalType": "contract IERC20",
          "name": "",
          "type": "address"
        }
      ],
      "stateMutability": "view",
      "type": "function"
    },
    {
      "inputs": [],
      "name": "getContractInfo",
      "outputs": [
        {
          "internalType": "uint256",
          "name": "",
          "type": "uint256"
        },
        {
          "internalType": "bool",
          "name": "",
          "type": "bool"
        },
        {
          "internalType": "uint256",
          "name": "",
          "type": "uint256"
        },
        {
          "internalType": "uint256",
          "name": "",
          "type": "uint256"
        }
      ],
      "stateMutability": "view",
      "type": "function"
    },
    {
      "inputs": [],
      "name": "getPoolInfo",
      "outputs": [
        {
          "internalType": "uint256",
          "name": "",
          "type": "uint256"
        },
        {
          "internalType": "uint256",
          "name": "",
          "type": "uint256"
        },
        {
          "internalType": "uint256",
          "name": "",
          "type": "uint256"
        },
        {
          "internalType": "uint256",
          "name": "",
          "type": "uint256"
        },
        {
          "components": [
            {
              "internalType": "address",
              "name": "user",
              "type": "address"
            },
            {
              "internalType": "uint8",
              "name": "stakeId",
              "type": "uint8"
            }
          ],
          "internalType": "struct SharedVariables.PoolUser[10]",
          "name": "",
          "type": "tuple[10]"
        },
        {
          "components": [
            {
              "internalType": "address",
              "name": "user",
              "type": "address"
            },
            {
              "internalType": "uint8",
              "name": "stakeId",
              "type": "uint8"
            }
          ],
          "internalType": "struct SharedVariables.PoolUser[12]",
          "name": "",
          "type": "tuple[12]"
        }
      ],
      "stateMutability": "view",
      "type": "function"
    },
    {
      "inputs": [
        {
          "internalType": "address",
          "name": "userAddress",
          "type": "address"
        }
      ],
      "name": "getUser",
      "outputs": [
        {
          "components": [
            {
              "internalType": "address",
              "name": "wallet",
              "type": "address"
            },
            {
              "components": [
                {
                  "internalType": "uint8",
                  "name": "id",
                  "type": "uint8"
                },
                {
                  "internalType": "bool",
                  "name": "active",
                  "type": "bool"
                },
                {
                  "internalType": "bool",
                  "name": "optInInsured",
                  "type": "bool"
                },
                {
                  "internalType": "uint32",
                  "name": "holdFrom",
                  "type": "uint32"
                },
                {
                  "internalType": "uint32",
                  "name": "interestCountFrom",
                  "type": "uint32"
                },
                {
                  "internalType": "uint32",
                  "name": "lastWithdrawalAt",
                  "type": "uint32"
                },
                {
                  "internalType": "uint256",
                  "name": "deposit",
                  "type": "uint256"
                },
                {
                  "internalType": "uint256",
                  "name": "withdrawn",
                  "type": "uint256"
                },
                {
                  "internalType": "uint256",
                  "name": "penalty",
                  "type": "uint256"
                },
                {
                  "internalType": "uint256",
                  "name": "refCommission",
                  "type": "uint256"
                },
                {
                  "internalType": "uint256",
                  "name": "refPoolRewards",
                  "type": "uint256"
                },
                {
                  "internalType": "uint256",
                  "name": "sponsorPoolRewards",
                  "type": "uint256"
                },
                {
                  "components": [
                    {
                      "internalType": "uint16",
                      "name": "cycle",
                      "type": "uint16"
                    },
                    {
                      "internalType": "uint256",
                      "name": "amount",
                      "type": "uint256"
                    }
                  ],
                  "internalType": "struct SharedVariables.Pool",
                  "name": "refPool",
                  "type": "tuple"
                },
                {
                  "components": [
                    {
                      "internalType": "uint16",
                      "name": "cycle",
                      "type": "uint16"
                    },
                    {
                      "internalType": "uint256",
                      "name": "amount",
                      "type": "uint256"
                    }
                  ],
                  "internalType": "struct SharedVariables.Pool",
                  "name": "sponsorPool",
                  "type": "tuple"
                }
              ],
              "internalType": "struct SharedVariables.Stake[]",
              "name": "stakes",
              "type": "tuple[]"
            }
          ],
          "internalType": "struct SharedVariables.User",
          "name": "",
          "type": "tuple"
        }
      ],
      "stateMutability": "view",
      "type": "function"
    },
    {
      "inputs": [
        {
          "internalType": "uint256",
          "name": "stakeId",
          "type": "uint256"
        }
      ],
      "name": "insureStake",
      "outputs": [],
      "stateMutability": "nonpayable",
      "type": "function"
    },
    {
      "inputs": [],
      "name": "isInInsuranceState",
      "outputs": [
        {
          "internalType": "bool",
          "name": "",
          "type": "bool"
        }
      ],
      "stateMutability": "view",
      "type": "function"
    },
    {
      "inputs": [],
      "name": "maxContractBalance",
      "outputs": [
        {
          "internalType": "uint256",
          "name": "",
          "type": "uint256"
        }
      ],
      "stateMutability": "view",
      "type": "function"
    },
    {
      "inputs": [],
      "name": "poolCycle",
      "outputs": [
        {
          "internalType": "uint16",
          "name": "",
          "type": "uint16"
        }
      ],
      "stateMutability": "view",
      "type": "function"
    },
    {
      "inputs": [],
      "name": "poolDrewAt",
      "outputs": [
        {
          "internalType": "uint32",
          "name": "",
          "type": "uint32"
        }
      ],
      "stateMutability": "view",
      "type": "function"
    },
    {
      "inputs": [],
      "name": "refPoolBalance",
      "outputs": [
        {
          "internalType": "uint256",
          "name": "",
          "type": "uint256"
        }
      ],
      "stateMutability": "view",
      "type": "function"
    },
    {
      "inputs": [
        {
          "internalType": "uint256",
          "name": "",
          "type": "uint256"
        }
      ],
      "name": "refPoolBonuses",
      "outputs": [
        {
          "internalType": "uint256",
          "name": "",
          "type": "uint256"
        }
      ],
      "stateMutability": "view",
      "type": "function"
    },
    {
      "inputs": [
        {
          "internalType": "uint256",
          "name": "",
          "type": "uint256"
        }
      ],
      "name": "refPoolUsers",
      "outputs": [
        {
          "internalType": "address",
          "name": "user",
          "type": "address"
        },
        {
          "internalType": "uint8",
          "name": "stakeId",
          "type": "uint8"
        }
      ],
      "stateMutability": "view",
      "type": "function"
    },
    {
      "inputs": [],
      "name": "sponsorPoolBalance",
      "outputs": [
        {
          "internalType": "uint256",
          "name": "",
          "type": "uint256"
        }
      ],
      "stateMutability": "view",
      "type": "function"
    },
    {
      "inputs": [
        {
          "internalType": "uint256",
          "name": "",
          "type": "uint256"
        }
      ],
      "name": "sponsorPoolBonuses",
      "outputs": [
        {
          "internalType": "uint256",
          "name": "",
          "type": "uint256"
        }
      ],
      "stateMutability": "view",
      "type": "function"
    },
    {
      "inputs": [
        {
          "internalType": "uint256",
          "name": "",
          "type": "uint256"
        }
      ],
      "name": "sponsorPoolUsers",
      "outputs": [
        {
          "internalType": "address",
          "name": "user",
          "type": "address"
        },
        {
          "internalType": "uint8",
          "name": "stakeId",
          "type": "uint8"
        }
      ],
      "stateMutability": "view",
      "type": "function"
    },
    {
      "inputs": [],
      "name": "totalDepositRewards",
      "outputs": [
        {
          "internalType": "uint256",
          "name": "",
          "type": "uint256"
        }
      ],
      "stateMutability": "view",
      "type": "function"
    },
    {
      "inputs": [],
      "name": "totalExited",
      "outputs": [
        {
          "internalType": "uint256",
          "name": "",
          "type": "uint256"
        }
      ],
      "stateMutability": "view",
      "type": "function"
    },
    {
      "inputs": [
        {
          "internalType": "address",
          "name": "newDevAddress",
          "type": "address"
        }
      ],
      "name": "updateDevAddress",
      "outputs": [],
      "stateMutability": "nonpayable",
      "type": "function"
    },
    {
      "inputs": [
        {
          "internalType": "address",
          "name": "",
          "type": "address"
        }
      ],
      "name": "users",
      "outputs": [
        {
          "internalType": "address",
          "name": "wallet",
          "type": "address"
        }
      ],
      "stateMutability": "view",
      "type": "function"
    },
    {
      "inputs": [
        {
          "internalType": "uint256",
          "name": "stakeId",
          "type": "uint256"
        }
      ],
      "name": "withdraw",
      "outputs": [],
      "stateMutability": "nonpayable",
      "type": "function"
    },
    {
      "inputs": [
        {
          "internalType": "address",
          "name": "withdrawingAddress",
          "type": "address"
        },
        {
          "internalType": "uint256",
          "name": "amount",
          "type": "uint256"
        }
      ],
      "name": "withdrawDevFee",
      "outputs": [],
      "stateMutability": "nonpayable",
      "type": "function"
    }
  ],
  "bytecode": "0x6080604052600380546001600160a01b0319167364b8cb4c04ba902010856d913b4e5df940748bf21790556022805460ff191690553480156200004157600080fd5b5060405162005c7038038062005c708339810160408190526200006491620002b9565b600280546001600160a01b0319166001600160a01b038316179055601b8054600181810183556107d07f3ad8aa4f87544323a9d1e5dd902f40c356527a7955687113db5f9a85ad579dc1928301819055835480830185556106a49084015583548083018555610578908401558354808301855561044c90840155835480830185556103e8908401819055845480840186556102bc90850181905585548085018755610258908601819055865480860188556101f490870155865480860188556101909087018190558754808701895561012c908801558754808701895560c89088018190558854808801909955606498909701889055601c805480880182556000829052610bb87f0e4562a10381dec21b205ed72637e6b1b523bdd0e4d4d50af5cd23dd4500a2119182015581548089018355810196909655805480880182556104b0908701558054808801825586019490945583548087018555610320908601558354808701855585019290925582548086018455840155815480850183558301558054808401825582019390935582549182019092550155620002086200021a565b50601e805461ffff19169055620002e9565b620002286005600062000274565b620002366011600062000288565b6000601f819055602055601e805461ffff1965ffffffff000019909116620100004263ffffffff160217908116600161ffff92831601909116179055565b506200028590600c81019062000294565b50565b506200028590600a8101905b5b80821115620002b55780546001600160a81b031916815560010162000295565b5090565b600060208284031215620002cb578081fd5b81516001600160a01b0381168114620002e2578182fd5b9392505050565b61597780620002f96000396000f3fe608060405234801561001057600080fd5b50600436106102035760003560e01c8062fdd58e1461020857806303162d2c146102315780630781235a146102395780630ac39f72146102415780630f9fa6aa1461023957806312dd5fe41461023957806327cfe856146102495780632e1a7d4d146102515780633ad10ef6146102665780633df936c91461027b57806346c27f6514610283578063498dc5b51461029857806360246c88146102a057806363b815fa146102ba57806365fcb49e146102c257806369da94d8146102ca5780636f77926b146102d25780637247b2b9146102f25780637cc1f867146102fa578063850337621461031257806389c5077f1461032557806391994b2c146103385780639b6eec7d146103405780639c236aa814610348578063a00d498014610369578063a13a801a14610371578063a87430ba14610379578063a9122af71461038c578063aaf1a0da14610371578063b963ddb414610394578063bc157ac11461039c578063c37b95a0146103af578063cabea10d146103c2578063cd9a1b63146103d7578063d3b04a27146103df578063d5766ebd146103f2578063d82daec714610405578063d902f40c1461040d578063df5a75ef14610415578063e523141114610428578063e7204ffb14610430578063ed56f6a114610438578063f48e595a1461044b578063fd0b825214610453575b600080fd5b61021b6102163660046154ae565b610468565b6040516102289190615878565b60405180910390f35b61021b61064f565b61021b610655565b61021b61065b565b61021b610660565b61026461025f3660046154f8565b610667565b005b61026e610bb4565b60405161022891906155a7565b61021b610bc3565b61028b610bc9565b604051610228919061565f565b61021b610bd2565b6102a8610bd8565b604051610228969594939291906158aa565b61021b610ce2565b61021b610ce8565b61021b610cee565b6102e56102e0366004615493565b610cf4565b6040516102289190615733565b61021b610e69565b610302610e6f565b6040516102289493929190615881565b610264610320366004615493565b610e87565b6102646103333660046154ae565b610ec0565b61021b610f7f565b61021b610f85565b61035b6103563660046154f8565b610f8b565b604051610228929190615643565b61021b610fb3565b61021b610fb8565b61026e610387366004615493565b610fbd565b61026e610fd8565b61021b610fe7565b6102646103aa366004615528565b610fed565b6102646103bd3660046154f8565b6115f7565b6103ca61165c565b6040516102289190615869565b61021b611666565b6102646103ed3660046154f8565b61166c565b61021b6104003660046154f8565b611829565b61021b611847565b61021b61184d565b61021b6104233660046154f8565b611852565b61021b61185f565b610264611864565b61035b6104463660046154f8565b611af3565b61021b611b00565b61045b611b05565b6040516102289190615930565b6001600160a01b038083166000818152600460205260408120549092161461048f57600080fd5b61049761531e565b6001600160a01b038085166000908152600460209081526040808320815180830183528154909516855260018101805483518186028101860190945280845291948685019491929184015b828210156105f6576000848152602090819020604080516101c081018252600b8602909201805460ff8082168552610100808304821615158688015262010000830490911615158585015263ffffffff6301000000830481166060870152600160381b830481166080870152600160581b90920490911660a085015260018083015460c0860152600283015460e086015260038301549185019190915260048201546101208501526005820154610140850152600682015461016085015282518084018452600783015461ffff908116825260088401548288015261018086019190915283518085019094526009830154168352600a90910154828501526101a083019190915290835290920191016104e2565b505050508152505090506106458160200151848151811061061357fe5b602002602001015160e0015161063f8360200151868151811061063257fe5b6020026020010151611b17565b90611b78565b9150505b92915050565b61a8c081565b61012c81565b600281565b6201518081565b3360009081526004602052604081206001810180549192918490811061068957fe5b600091825260209091208354600b9092020191506001600160a01b0316331480156106ba57508054610100900460ff165b6106c357600080fd5b805442600160581b90910463ffffffff908116620151800116106106e657600080fd5b60038101546002820154604080516101c081018252845460ff80821683526101008083048216151560208086019190915262010000840490921615158486015263ffffffff6301000000840481166060860152600160381b840481166080860152600160581b90930490921660a0840152600187015460c084015260e0830185905290820185905260048601546101208301526005860154610140830152600686015461016083015282518084018452600787015461ffff908116825260088801548284015261018084019190915283518085019094526009870154168352600a860154908301526101a08101919091526000926107ec92909161063f91908290611b17565b9050600081116107fb57600080fd5b604080516101c081018252835460ff80821683526101008083048216151560208086019190915262010000840490921615158486015263ffffffff6301000000840481166060860152600160381b840481166080860152600160581b90930490921660a0840152600186015460c0840152600286015460e084015260038601549183019190915260048501546101208301526005850154610140830152600685015461016083015282518084018452600786015461ffff908116825260088701548284015261018084019190915283518085019094526009860154168352600a850154908301526101a08101919091526000906108f89083611bc1565b90508061093d57610919610912846001015461012c611c0f565b8390611b78565b9150600061092d846001015461012c611c0f565b90508083111561093b578092505b505b60225460ff1615610a4557604080516101c081018252845460ff80821683526101008083048216151560208086019190915262010000840490921615158486015263ffffffff6301000000840481166060860152600160381b840481166080860152600160581b90930490921660a0840152600187015460c0840152600287015460e084015260038701549183019190915260048601546101208301526005860154610140830152600686015461016083015282518084018452600787015461ffff908116825260088801548284015261018084019190915283518085019094526009870154168352600a860154908301526101a0810191909152610a429083611c21565b91505b610a4f8282611b78565b600254855460405163a9059cbb60e01b81529294506001600160a01b039182169263a9059cbb92610a869216908690600401615609565b602060405180830381600087803b158015610aa057600080fd5b505af1158015610ab4573d6000803e3d6000fd5b505050506040513d601f19601f82011682018060405250810190610ad891906154d8565b506002830154610ae89083611cc7565b6002840155825463ffffffff60581b1916600160581b4263ffffffff9081169182029290921766ffffffff00000019166301000000919091021784556003840154610b35918390611cc716565b60038401556001830154610b4b9061924f611c0f565b836002015410610b5f57825461ff00191683555b610b67611cf5565b83546040517f7084f5476618d8e60b11ef0d7d3f06914655adb8793e28ff7f018d4c76d505d591610ba5916001600160a01b03909116908590615609565b60405180910390a15050505050565b6003546001600160a01b031681565b60205481565b60225460ff1681565b61138881565b600080600080610be6615336565b610bee615364565b601e54602054601f5460408051610140810190915263ffffffff620100008504169361ffff1692919060119060059082600a6000835b82821015610c685760408051808201909152848301546001600160a01b0381168252600160a01b900460ff1660208083019190915290825260019092019101610c24565b5050604080516101808101909152929450839150600c90506000835b82821015610cc85760408051808201909152848301546001600160a01b0381168252600160a01b900460ff1660208083019190915290825260019092019101610c84565b505050509050955095509550955095509550909192939495565b61271081565b601d5481565b61924f81565b610cfc61531e565b6001600160a01b038083166000908152600460209081526040808320815180830183528154909516855260018101805483518186028101860190945280845291948685019491929184015b82821015610e5b576000848152602090819020604080516101c081018252600b8602909201805460ff8082168552610100808304821615158688015262010000830490911615158585015263ffffffff6301000000830481166060870152600160381b830481166080870152600160581b90920490911660a085015260018083015460c0860152600283015460e086015260038301549185019190915260048201546101208501526005820154610140850152600682015461016085015282518084018452600783015461ffff908116825260088401548288015261018086019190915283518085019094526009830154168352600a90910154828501526101a08301919091529083529092019101610d47565b505050915250909392505050565b60005481565b601d5460225460005460015460ff9092169190919293565b6003546001600160a01b03163314610e9e57600080fd5b600380546001600160a01b0319166001600160a01b0392909216919091179055565b6003546001600160a01b03163314610ed757600080fd5b602154811115610ee657600080fd5b60025460405163a9059cbb60e01b81526001600160a01b039091169063a9059cbb90610f189085908590600401615609565b602060405180830381600087803b158015610f3257600080fd5b505af1158015610f46573d6000803e3d6000fd5b505050506040513d601f19601f82011682018060405250810190610f6a91906154d8565b50602154610f789082611b78565b6021555050565b60015481565b6101f481565b601181600a8110610f9857fe5b01546001600160a01b0381169150600160a01b900460ff1682565b600581565b603281565b6004602052600090815260409020546001600160a01b031681565b6002546001600160a01b031681565b61032081565b6001600160a01b038216158061106357506001600160a01b03828116600090815260046020526040902054161580159061106357506001600160a01b038216600090815260046020526040902060010180548290811061104957fe5b60009182526020909120600b9091020154610100900460ff165b61106c57600080fd5b3360009081526004602052604090206001810154156110e157336000908152600460205260409020600182810154910180546110d592600292916000199091019081106110b557fe5b90600052602060002090600b020160010154611da690919063ffffffff16565b8410156110e157600080fd5b6002546040516323b872dd60e01b81526001600160a01b03909116906323b872dd90611115903390309089906004016155bb565b602060405180830381600087803b15801561112f57600080fd5b505af1158015611143573d6000803e3d6000fd5b505050506040513d601f19601f8201168201806040525081019061116791906154d8565b61117057600080fd5b611178611864565b600061118385611de0565b905061118d615392565b82546001600160a01b0319163317835560018084015460ff168252602082015263ffffffff42166080820181905260608201526111df826111d96111d2896005611c0f565b8990611b78565b90611cc7565b60c0820152601e546101a08201805161ffff90921690915251602090810187905260408051808201825285546001600160a01b0316815260018601805483518186028101860190945280845261136294929388938581019391929060009084015b82821015611354576000848152602090819020604080516101c081018252600b8602909201805460ff8082168552610100808304821615158688015262010000830490911615158585015263ffffffff6301000000830481166060870152600160381b830481166080870152600160581b90920490911660a085015260018083015460c0860152600283015460e086015260038301549185019190915260048201546101208501526005820154610140850152600682015461016085015282518084018452600783015461ffff908116825260088401548288015261018086019190915283518085019094526009830154168352600a90910154828501526101a08301919091529083529092019101611240565b505050508152505082611ea4565b6001600160a01b0385161561137d5761137d868287876121d3565b60018381018054808301825560009182526020918290208451600b9092020180548584015160408701516060880151608089015160a08a015160ff1990951660ff9097169690961761ff00191661010093151584021762ff0000191662010000921515929092029190911766ffffffff0000001916630100000063ffffffff928316021763ffffffff60381b1916600160381b958216959095029490941763ffffffff60581b1916600160581b949092169390930217815560c08501519381019390935560e084015160028401558301516003830155610120830151600483015561014083015160058301556101608301516006830155610180830151805160078401805461ffff1990811661ffff938416179091559183015160088501556101a085015180516009860180549094169216919091179091550151600a909101556114d56114cc876032611c0f565b601f5490611cc7565b601f556114ef6114e6876032611c0f565b60205490611cc7565b60205561150a611501876101f4611c0f565b60215490611cc7565b6021556002546040516370a0823160e01b81526000916001600160a01b0316906370a082319061153e9030906004016155a7565b60206040518083038186803b15801561155657600080fd5b505afa15801561156a573d6000803e3d6000fd5b505050506040513d601f19601f8201168201806040525081019061158e9190615510565b9050601d548111156115a057601d8190555b6000546115ad9084611cc7565b6000556040517fd2f8022f659fd9c8c558f30c00fd5ee7038f7cb56da45095c3e0e7d48b3e0c4b906115e69033908a908a908a906155df565b60405180910390a150505050505050565b336000818152600460205260409020805490916001600160a01b039091161461161f57600080fd5b600081600101838154811061163057fe5b600091825260209091208354600b909202019150611657906001600160a01b031682612411565b505050565b601e5461ffff1681565b60215481565b336000818152600460205260409020805490916001600160a01b039091161461169457600080fd5b60008160010183815481106116a557fe5b6000918252602082206001600b9092020190810154909250906116ca82611388611c0f565b90506116d68282611b78565b915060006116f584600301548560020154611cc790919063ffffffff16565b90508281111561170457600080fd5b61170e8382611b78565b600254865460405163a9059cbb60e01b81529295506001600160a01b039182169263a9059cbb926117459216908790600401615609565b602060405180830381600087803b15801561175f57600080fd5b505af1158015611773573d6000803e3d6000fd5b505050506040513d601f19601f8201168201806040525081019061179791906154d8565b50835461ff001916845560028401546117b09084611cc7565b600285015560038401546117c49083611cc7565b6003850155600180546117d691611cc7565b60015584546040517fba49bb5279636ff80eebc4fcda6a47bdf6053db74c3719cc3f9cc54e44b2878b91611819916001600160a01b039091169089908790615622565b60405180910390a1505050505050565b601b818154811061183657fe5b600091825260209091200154905081565b601f5481565b600181565b601c818154811061183657fe5b606481565b601e546201518063ffffffff6201000090920482160116421115611af15760005b600c81101561199e576000600582600c811061189d57fe5b01546001600160a01b031614156118b35761199e565b600060046000600584600c81106118c657fe5b01546001600160a01b031681526020810191909152604001600020601f54601b80549293506119589261190f929190869081106118ff57fe5b9060005260206000200154611c0f565b82600101600585600c811061192057fe5b01548154600160a01b90910460ff1690811061193857fe5b90600052602060002090600b020160050154611cc790919063ffffffff16565b81600101600584600c811061196957fe5b01548154600160a01b90910460ff1690811061198157fe5b600091825260209091206005600b90920201015550600101611885565b5060005b600a811015611aab576000601182600a81106119ba57fe5b01546001600160a01b031614156119d057611aab565b600060046000601184600a81106119e357fe5b01546001600160a01b031681526020808201929092526040016000209054601c8054929350611a6592611a1c929190869081106118ff57fe5b82600101601185600a8110611a2d57fe5b01548154600160a01b90910460ff16908110611a4557fe5b90600052602060002090600b020160060154611cc790919063ffffffff16565b81600101601184600a8110611a7657fe5b01548154600160a01b90910460ff16908110611a8e57fe5b600091825260209091206006600b909202010155506001016119a2565b507f505fb5b242804521f868b1210d5697cefabaa21c3f697207aa5c02dc549116e2601f54602054604051611ae192919061589c565b60405180910390a1611af16124ed565b565b600581600c8110610f9857fe5b60fa81565b601e5462010000900463ffffffff1681565b600080611b2383612543565b905061012c611b368460c00151836125c1565b10611b5157611b4e611b47846125d3565b8290611cc7565b90505b6000611b638460c0015161924f611c0f565b905080821115611b71578091505b5092915050565b6000611bba83836040518060400160405280601e81526020017f536166654d6174683a207375627472616374696f6e206f766572666c6f770000815250612631565b9392505050565b600080611bd28460c00151846125c1565b905061012c8110611be7576000915050610649565b61064583611c0f611c0661012c611c0086612710611da6565b9061265d565b61271090611b78565b6000611bba612710611c008585611da6565b60408201516000908290610dac9015611c3957506127105b6000611c498660c0015183611c0f565b9050611c678661010001518760e00151611cc790919063ffffffff16565b811015611c7357600080fd5b80611c948761010001516111d9868a60e00151611cc790919063ffffffff16565b1115611cbd57611cba86610100015161063f8860e0015184611b7890919063ffffffff16565b92505b5090949350505050565b600082820183811015611bba5760405162461bcd60e51b8152600401611cec906156bd565b60405180910390fd5b611d03601d54610dac611c0f565b6002546040516370a0823160e01b81526001600160a01b03909116906370a0823190611d339030906004016155a7565b60206040518083038186803b158015611d4b57600080fd5b505afa158015611d5f573d6000803e3d6000fd5b505050506040513d601f19601f82011682018060405250810190611d839190615510565b11611d9a576022805460ff19166001179055611af1565b6022805460ff19169055565b600082611db557506000610649565b82820282848281611dc257fe5b0414611bba5760405162461bcd60e51b8152600401611cec906156f2565b60008060af831115611df457506032611e9a565b6096831115611e0557506028611e9a565b6087831115611e1657506023611e9a565b6077831115611e275750601e611e9a565b6064831115611e3857506019611e9a565b6059831115611e4957506014611e9a565b604b831115611e5a5750600f611e9a565b603b831115611e6b5750600a611e9a565b602d831115611e7c57506005611e9a565b6014831115611e8d57506002611e9a565b6009831115611e9a575060015b611bba8382611c0f565b60006011611eb4600a6001611b78565b600a8110611ebe57fe5b01546001600160a01b03161480611f5f5750600460006011611ee2600a6001611b78565b600a8110611eec57fe5b01546001600160a01b031681526020810191909152604001600020600190810190601190611f1c90600a90611b78565b600a8110611f2657fe5b01548154600160a01b90910460ff16908110611f3e57fe5b90600052602060002090600b020160090160010154816101a0015160200151115b156121cf57611f6c615425565b60005b600a8110156121cc576000601182600a8110611f8757fe5b01546001600160a01b03161415611ff8578351601182600a8110611fa757fe5b0180546001600160a01b0319166001600160a01b03929092169190911790558251601182600a8110611fd557fe5b01805460ff92909216600160a01b0260ff60a01b199092169190911790556121cc565b60046000601183600a811061200957fe5b01546001600160a01b031681526020810191909152604001600020600101601182600a811061203457fe5b01548154600160a01b90910460ff1690811061204c57fe5b90600052602060002090600b020160090160010154836101a001516020015111156121c457601181600a811061207e57fe5b604080518082019091529101546001600160a01b0381168252600160a01b900460ff1660208201528451909250601182600a81106120b857fe5b0180546001600160a01b0319166001600160a01b03929092169190911790558251601182600a81106120e657fe5b01805460ff92909216600160a01b0260ff60a01b1990921691909117905561210c615425565b815b600a8310156121bd5783516001600160a01b031661212b576121bd565b601181600a811061213857fe5b604080518082019091529101546001600160a01b0381168252600160a01b900460ff166020820152915083601182600a811061217057fe5b82519101805460209093015160ff16600160a01b0260ff60a01b196001600160a01b039093166001600160a01b03199094169390931791909116919091179055909250829060010161210e565b50506121cc565b600101611f6f565b50505b5050565b6001600160a01b0382166000908152600460205260408120906121f886610320611c0f565b905061222d8183600101858154811061220d57fe5b90600052602060002090600b020160040154611cc790919063ffffffff16565b82600101848154811061223c57fe5b600091825260209091206004600b909202010155601e546101808601515161ffff90811691161461228457601e546101808601805161ffff9092169091525160006020909101525b610180850151602001516122989087611cc7565b61018086015160209081019190915260408051808201825284546001600160a01b0316815260018501805483518186028101860190945280845261240994929387938581019391929060009084015b828210156123fb576000848152602090819020604080516101c081018252600b8602909201805460ff8082168552610100808304821615158688015262010000830490911615158585015263ffffffff6301000000830481166060870152600160381b830481166080870152600160581b90920490911660a085015260018083015460c0860152600283015460e086015260038301549185019190915260048201546101208501526005820154610140850152600682015461016085015282518084018452600783015461ffff908116825260088401548288015261018086019190915283518085019094526009830154168352600a90910154828501526101a083019190915290835290920191016122e7565b50505050815250508661269c565b505050505050565b805462010000900460ff1615801561242f57508054610100900460ff165b61243857600080fd5b60025460018201546001600160a01b03909116906323b872dd9084903090612462906103e8611c0f565b6040518463ffffffff1660e01b8152600401612480939291906155bb565b602060405180830381600087803b15801561249a57600080fd5b505af11580156124ae573d6000803e3d6000fd5b505050506040513d601f19601f820116820180604052508101906124d291906154d8565b6124db57600080fd5b805462ff000019166201000017905550565b6124f96005600061543c565b6125056011600061544e565b6000601f819055602055601e805461ffff1965ffffffff000019909116620100004263ffffffff160217908116600161ffff92831601909116179055565b600080612563836101600151846101400151611cc790919063ffffffff16565b90506000836101200151905060006125958560c00151611c0f612590886080015163ffffffff1642612948565b61295b565b905060006125a28661298e565b905060006125b6826111d985818989611cc7565b979650505050505050565b6000611bba83611c0084612710611da6565b6000806125fd61a8c0611c00620151806125f7876060015163ffffffff1642612948565b90611da6565b9050600061260c826002611da6565b9050606481111561261b575060645b6126298460c0015182611c0f565b949350505050565b600081848411156126555760405162461bcd60e51b8152600401611cec919061566a565b505050900390565b6000611bba83836040518060400160405280601a815260200179536166654d6174683a206469766973696f6e206279207a65726f60301b815250612a40565b6010546001600160a01b0316158061270557506010546001600160a01b038116600090815260046020526040902060010180549091600160a01b900460ff169081106126e457fe5b90600052602060002090600b02016007016001015481610180015160200151115b156121cf57612712615425565b60005b600c8110156121cc576000600582600c811061272d57fe5b01546001600160a01b0316141561277b578351600582600c811061274d57fe5b0180546001600160a01b0319166001600160a01b03929092169190911790558251600582600c8110611fd557fe5b60046000600583600c811061278c57fe5b01546001600160a01b031681526020810191909152604001600020600101600582600c81106127b757fe5b01548154600160a01b90910460ff169081106127cf57fe5b90600052602060002090600b02016007016001015483610180015160200151111561294057600581600c811061280157fe5b604080518082019091529101546001600160a01b0381168252600160a01b900460ff1660208201528451909250600582600c811061283b57fe5b0180546001600160a01b0319166001600160a01b03929092169190911790558251600582600c811061286957fe5b01805460ff92909216600160a01b0260ff60a01b1990921691909117905561288f615425565b815b600c8310156121bd5783516001600160a01b03166128ae576121bd565b600581600c81106128bb57fe5b604080518082019091529101546001600160a01b0381168252600160a01b900460ff166020820152915083600582600c81106128f357fe5b82519101805460209093015160ff16600160a01b0260ff60a01b196001600160a01b039093166001600160a01b031990941693909317919091169190911790559092508290600101612891565b600101612715565b6000611bba62015180611c008486611b78565b600061016d82111561296c57600080fd5b612974612a77565b828151811061297f57fe5b60200260200101519050919050565b6002546040516370a0823160e01b81526000918291612a219160fa91611c00916001916001600160a01b03909116906370a08231906129d19030906004016155a7565b60206040518083038186803b1580156129e957600080fd5b505afa1580156129fd573d6000803e3d6000fd5b505050506040513d601f19601f820116820180604052508101906125f79190615510565b905061012c811115612a32575061012c5b611bba8360c0015182611c0f565b60008183612a615760405162461bcd60e51b8152600401611cec919061566a565b506000838581612a6d57fe5b0495945050505050565b606080612a8761016d6001611cc7565b6001600160401b0381118015612a9c57600080fd5b50604051908082528060200260200182016040528015612ac6578160200160208202803683370190505b509050600081600081518110612ad857fe5b602002602001018181525050600181600181518110612af357fe5b602002602001018181525050600281600281518110612b0e57fe5b602002602001018181525050600381600381518110612b2957fe5b602002602001018181525050600481600481518110612b4457fe5b602002602001018181525050600681600581518110612b5f57fe5b602002602001018181525050600881600681518110612b7a57fe5b602002602001018181525050600a81600781518110612b9557fe5b602002602001018181525050600d81600881518110612bb057fe5b602002602001018181525050601081600981518110612bcb57fe5b602002602001018181525050601481600a81518110612be657fe5b602002602001018181525050601881600b81518110612c0157fe5b602002602001018181525050601c81600c81518110612c1c57fe5b602002602001018181525050602181600d81518110612c3757fe5b602002602001018181525050602681600e81518110612c5257fe5b602002602001018181525050602b81600f81518110612c6d57fe5b602002602001018181525050603181601081518110612c8857fe5b602002602001018181525050603781601181518110612ca357fe5b602002602001018181525050603d81601281518110612cbe57fe5b602002602001018181525050604481601381518110612cd957fe5b602002602001018181525050604b81601481518110612cf457fe5b602002602001018181525050605381601581518110612d0f57fe5b602002602001018181525050605b81601681518110612d2a57fe5b602002602001018181525050606381601781518110612d4557fe5b602002602001018181525050606c81601881518110612d6057fe5b602002602001018181525050607581601981518110612d7b57fe5b602002602001018181525050607f81601a81518110612d9657fe5b602002602001018181525050608981601b81518110612db157fe5b602002602001018181525050609381601c81518110612dcc57fe5b602002602001018181525050609e81601d81518110612de757fe5b60200260200101818152505060a981601e81518110612e0257fe5b60200260200101818152505060b481601f81518110612e1d57fe5b60200260200101818152505060c081602081518110612e3857fe5b60200260200101818152505060cc81602181518110612e5357fe5b60200260200101818152505060d981602281518110612e6e57fe5b60200260200101818152505060e681602381518110612e8957fe5b60200260200101818152505060f381602481518110612ea457fe5b60200260200101818152505061010181602581518110612ec057fe5b60200260200101818152505061010f81602681518110612edc57fe5b60200260200101818152505061011e81602781518110612ef857fe5b60200260200101818152505061012d81602881518110612f1457fe5b60200260200101818152505061013c81602981518110612f3057fe5b60200260200101818152505061014c81602a81518110612f4c57fe5b60200260200101818152505061015c81602b81518110612f6857fe5b60200260200101818152505061016d81602c81518110612f8457fe5b60200260200101818152505061017e81602d81518110612fa057fe5b60200260200101818152505061018f81602e81518110612fbc57fe5b6020026020010181815250506101a181602f81518110612fd857fe5b6020026020010181815250506101b381603081518110612ff457fe5b6020026020010181815250506101c68160318151811061301057fe5b6020026020010181815250506101d98160328151811061302c57fe5b6020026020010181815250506101ed8160338151811061304857fe5b6020026020010181815250506102018160348151811061306457fe5b6020026020010181815250506102158160358151811061308057fe5b60200260200101818152505061022a8160368151811061309c57fe5b60200260200101818152505061023f816037815181106130b857fe5b602002602001018181525050610255816038815181106130d457fe5b60200260200101818152505061026b816039815181106130f057fe5b60200260200101818152505061028181603a8151811061310c57fe5b60200260200101818152505061029881603b8151811061312857fe5b6020026020010181815250506102af81603c8151811061314457fe5b6020026020010181815250506102c781603d8151811061316057fe5b6020026020010181815250506102df81603e8151811061317c57fe5b6020026020010181815250506102f881603f8151811061319857fe5b602002602001018181525050610311816040815181106131b457fe5b60200260200101818152505061032a816041815181106131d057fe5b602002602001018181525050610344816042815181106131ec57fe5b60200260200101818152505061035e8160438151811061320857fe5b6020026020010181815250506103798160448151811061322457fe5b6020026020010181815250506103948160458151811061324057fe5b6020026020010181815250506103b08160468151811061325c57fe5b6020026020010181815250506103cc8160478151811061327857fe5b6020026020010181815250506103e98160488151811061329457fe5b602002602001018181525050610406816049815181106132b057fe5b60200260200101818152505061042481604a815181106132cc57fe5b60200260200101818152505061044281604b815181106132e857fe5b60200260200101818152505061046081604c8151811061330457fe5b60200260200101818152505061047f81604d8151811061332057fe5b60200260200101818152505061049e81604e8151811061333c57fe5b6020026020010181815250506104be81604f8151811061335857fe5b6020026020010181815250506104de8160508151811061337457fe5b6020026020010181815250506104ff8160518151811061339057fe5b602002602001018181525050610520816052815181106133ac57fe5b602002602001018181525050610542816053815181106133c857fe5b602002602001018181525050610564816054815181106133e457fe5b6020026020010181815250506105878160558151811061340057fe5b6020026020010181815250506105aa8160568151811061341c57fe5b6020026020010181815250506105ce8160578151811061343857fe5b6020026020010181815250506105f28160588151811061345457fe5b6020026020010181815250506106168160598151811061347057fe5b60200260200101818152505061063b81605a8151811061348c57fe5b60200260200101818152505061066081605b815181106134a857fe5b60200260200101818152505061068681605c815181106134c457fe5b6020026020010181815250506106ac81605d815181106134e057fe5b6020026020010181815250506106d381605e815181106134fc57fe5b6020026020010181815250506106fa81605f8151811061351857fe5b6020026020010181815250506107228160608151811061353457fe5b60200260200101818152505061074a8160618151811061355057fe5b6020026020010181815250506107738160628151811061356c57fe5b60200260200101818152505061079c8160638151811061358857fe5b6020026020010181815250506107c6816064815181106135a457fe5b6020026020010181815250506107f0816065815181106135c057fe5b60200260200101818152505061081b816066815181106135dc57fe5b602002602001018181525050610846816067815181106135f857fe5b6020026020010181815250506108728160688151811061361457fe5b60200260200101818152505061089e8160698151811061363057fe5b6020026020010181815250506108cb81606a8151811061364c57fe5b6020026020010181815250506108f881606b8151811061366857fe5b60200260200101818152505061092681606c8151811061368457fe5b60200260200101818152505061095481606d815181106136a057fe5b60200260200101818152505061098381606e815181106136bc57fe5b6020026020010181815250506109b281606f815181106136d857fe5b6020026020010181815250506109e2816070815181106136f457fe5b602002602001018181525050610a128160718151811061371057fe5b602002602001018181525050610a438160728151811061372c57fe5b602002602001018181525050610a748160738151811061374857fe5b602002602001018181525050610aa68160748151811061376457fe5b602002602001018181525050610ad88160758151811061378057fe5b602002602001018181525050610b0b8160768151811061379c57fe5b602002602001018181525050610b3f816077815181106137b857fe5b602002602001018181525050610b73816078815181106137d457fe5b602002602001018181525050610ba8816079815181106137f057fe5b602002602001018181525050610bdd81607a8151811061380c57fe5b602002602001018181525050610c1381607b8151811061382857fe5b602002602001018181525050610c4981607c8151811061384457fe5b602002602001018181525050610c8081607d8151811061386057fe5b602002602001018181525050610cb781607e8151811061387c57fe5b602002602001018181525050610cef81607f8151811061389857fe5b602002602001018181525050610d27816080815181106138b457fe5b602002602001018181525050610d60816081815181106138d057fe5b602002602001018181525050610d99816082815181106138ec57fe5b602002602001018181525050610dd38160838151811061390857fe5b602002602001018181525050610e0e8160848151811061392457fe5b602002602001018181525050610e498160858151811061394057fe5b602002602001018181525050610e858160868151811061395c57fe5b602002602001018181525050610ec18160878151811061397857fe5b602002602001018181525050610efe8160888151811061399457fe5b602002602001018181525050610f3b816089815181106139b057fe5b602002602001018181525050610f7981608a815181106139cc57fe5b602002602001018181525050610fb881608b815181106139e857fe5b602002602001018181525050610ff781608c81518110613a0457fe5b60200260200101818152505061103781608d81518110613a2057fe5b60200260200101818152505061107781608e81518110613a3c57fe5b6020026020010181815250506110b881608f81518110613a5857fe5b6020026020010181815250506110f981609081518110613a7457fe5b60200260200101818152505061113b81609181518110613a9057fe5b60200260200101818152505061117e81609281518110613aac57fe5b6020026020010181815250506111c181609381518110613ac857fe5b60200260200101818152505061120581609481518110613ae457fe5b60200260200101818152505061124981609581518110613b0057fe5b60200260200101818152505061128e81609681518110613b1c57fe5b6020026020010181815250506112d381609781518110613b3857fe5b60200260200101818152505061131981609881518110613b5457fe5b60200260200101818152505061136081609981518110613b7057fe5b6020026020010181815250506113a781609a81518110613b8c57fe5b6020026020010181815250506113ef81609b81518110613ba857fe5b60200260200101818152505061143781609c81518110613bc457fe5b60200260200101818152505061148081609d81518110613be057fe5b6020026020010181815250506114ca81609e81518110613bfc57fe5b60200260200101818152505061151481609f81518110613c1857fe5b60200260200101818152505061155f8160a081518110613c3457fe5b6020026020010181815250506115ab8160a181518110613c5057fe5b6020026020010181815250506115f78160a281518110613c6c57fe5b6020026020010181815250506116448160a381518110613c8857fe5b6020026020010181815250506116918160a481518110613ca457fe5b6020026020010181815250506116df8160a581518110613cc057fe5b60200260200101818152505061172e8160a681518110613cdc57fe5b60200260200101818152505061177d8160a781518110613cf857fe5b6020026020010181815250506117cd8160a881518110613d1457fe5b60200260200101818152505061181d8160a981518110613d3057fe5b60200260200101818152505061186e8160aa81518110613d4c57fe5b6020026020010181815250506118c08160ab81518110613d6857fe5b6020026020010181815250506119128160ac81518110613d8457fe5b6020026020010181815250506119658160ad81518110613da057fe5b6020026020010181815250506119b98160ae81518110613dbc57fe5b602002602001018181525050611a0d8160af81518110613dd857fe5b602002602001018181525050611a628160b081518110613df457fe5b602002602001018181525050611ab88160b181518110613e1057fe5b602002602001018181525050611b0e8160b281518110613e2c57fe5b602002602001018181525050611b658160b381518110613e4857fe5b602002602001018181525050611bbd8160b481518110613e6457fe5b602002602001018181525050611c158160b581518110613e8057fe5b602002602001018181525050611c6e8160b681518110613e9c57fe5b602002602001018181525050611cc88160b781518110613eb857fe5b602002602001018181525050611d228160b881518110613ed457fe5b602002602001018181525050611d7d8160b981518110613ef057fe5b602002602001018181525050611dd98160ba81518110613f0c57fe5b602002602001018181525050611e358160bb81518110613f2857fe5b602002602001018181525050611e928160bc81518110613f4457fe5b602002602001018181525050611ef08160bd81518110613f6057fe5b602002602001018181525050611f4e8160be81518110613f7c57fe5b602002602001018181525050611fad8160bf81518110613f9857fe5b60200260200101818152505061200d8160c081518110613fb457fe5b60200260200101818152505061206d8160c181518110613fd057fe5b6020026020010181815250506120ce8160c281518110613fec57fe5b6020026020010181815250506121308160c38151811061400857fe5b6020026020010181815250506121928160c48151811061402457fe5b6020026020010181815250506121f58160c58151811061404057fe5b6020026020010181815250506122598160c68151811061405c57fe5b6020026020010181815250506122bd8160c78151811061407857fe5b6020026020010181815250506123228160c88151811061409457fe5b6020026020010181815250506123888160c9815181106140b057fe5b6020026020010181815250506123ef8160ca815181106140cc57fe5b6020026020010181815250506124568160cb815181106140e857fe5b6020026020010181815250506124be8160cc8151811061410457fe5b6020026020010181815250506125278160cd8151811061412057fe5b6020026020010181815250506125908160ce8151811061413c57fe5b6020026020010181815250506125fa8160cf8151811061415857fe5b6020026020010181815250506126658160d08151811061417457fe5b6020026020010181815250506126d18160d18151811061419057fe5b60200260200101818152505061273d8160d2815181106141ac57fe5b6020026020010181815250506127aa8160d3815181106141c857fe5b6020026020010181815250506128188160d4815181106141e457fe5b6020026020010181815250506128868160d58151811061420057fe5b6020026020010181815250506128f58160d68151811061421c57fe5b6020026020010181815250506129658160d78151811061423857fe5b6020026020010181815250506129d68160d88151811061425457fe5b602002602001018181525050612a478160d98151811061427057fe5b602002602001018181525050612ab98160da8151811061428c57fe5b602002602001018181525050612b2c8160db815181106142a857fe5b602002602001018181525050612ba08160dc815181106142c457fe5b602002602001018181525050612c148160dd815181106142e057fe5b602002602001018181525050612c898160de815181106142fc57fe5b602002602001018181525050612cff8160df8151811061431857fe5b602002602001018181525050612d768160e08151811061433457fe5b602002602001018181525050612ded8160e18151811061435057fe5b602002602001018181525050612e658160e28151811061436c57fe5b602002602001018181525050612ede8160e38151811061438857fe5b602002602001018181525050612f588160e4815181106143a457fe5b602002602001018181525050612fd38160e5815181106143c057fe5b60200260200101818152505061304e8160e6815181106143dc57fe5b6020026020010181815250506130ca8160e7815181106143f857fe5b6020026020010181815250506131478160e88151811061441457fe5b6020026020010181815250506131c58160e98151811061443057fe5b6020026020010181815250506132438160ea8151811061444c57fe5b6020026020010181815250506132c28160eb8151811061446857fe5b6020026020010181815250506133428160ec8151811061448457fe5b6020026020010181815250506133c38160ed815181106144a057fe5b6020026020010181815250506134458160ee815181106144bc57fe5b6020026020010181815250506134c78160ef815181106144d857fe5b60200260200101818152505061354a8160f0815181106144f457fe5b6020026020010181815250506135ce8160f18151811061451057fe5b6020026020010181815250506136538160f28151811061452c57fe5b6020026020010181815250506136d98160f38151811061454857fe5b6020026020010181815250506137608160f48151811061456457fe5b6020026020010181815250506137e78160f58151811061458057fe5b60200260200101818152505061386f8160f68151811061459c57fe5b6020026020010181815250506138f88160f7815181106145b857fe5b6020026020010181815250506139828160f8815181106145d457fe5b602002602001018181525050613a0d8160f9815181106145f057fe5b602002602001018181525050613a998160fa8151811061460c57fe5b602002602001018181525050613b258160fb8151811061462857fe5b602002602001018181525050613bb28160fc8151811061464457fe5b602002602001018181525050613c408160fd8151811061466057fe5b602002602001018181525050613ccf8160fe8151811061467c57fe5b602002602001018181525050613d5f8160ff8151811061469857fe5b602002602001018181525050613df081610100815181106146b557fe5b602002602001018181525050613e8181610101815181106146d257fe5b602002602001018181525050613f1381610102815181106146ef57fe5b602002602001018181525050613fa6816101038151811061470c57fe5b60200260200101818152505061403a816101048151811061472957fe5b6020026020010181815250506140cf816101058151811061474657fe5b602002602001018181525050614165816101068151811061476357fe5b6020026020010181815250506141fc816101078151811061478057fe5b602002602001018181525050614294816101088151811061479d57fe5b60200260200101818152505061432c81610109815181106147ba57fe5b6020026020010181815250506143c58161010a815181106147d757fe5b60200260200101818152505061445f8161010b815181106147f457fe5b6020026020010181815250506144fa8161010c8151811061481157fe5b6020026020010181815250506145968161010d8151811061482e57fe5b6020026020010181815250506146338161010e8151811061484b57fe5b6020026020010181815250506146d18161010f8151811061486857fe5b602002602001018181525050614770816101108151811061488557fe5b60200260200101818152505061481081610111815181106148a257fe5b6020026020010181815250506148b081610112815181106148bf57fe5b60200260200101818152505061495181610113815181106148dc57fe5b6020026020010181815250506149f381610114815181106148f957fe5b602002602001018181525050614a96816101158151811061491657fe5b602002602001018181525050614b3a816101168151811061493357fe5b602002602001018181525050614bdf816101178151811061495057fe5b602002602001018181525050614c85816101188151811061496d57fe5b602002602001018181525050614d2c816101198151811061498a57fe5b602002602001018181525050614dd48161011a815181106149a757fe5b602002602001018181525050614e7d8161011b815181106149c457fe5b602002602001018181525050614f278161011c815181106149e157fe5b602002602001018181525050614fd28161011d815181106149fe57fe5b60200260200101818152505061507e8161011e81518110614a1b57fe5b60200260200101818152505061512b8161011f81518110614a3857fe5b6020026020010181815250506151d98161012081518110614a5557fe5b6020026020010181815250506152878161012181518110614a7257fe5b6020026020010181815250506153368161012281518110614a8f57fe5b6020026020010181815250506153e68161012381518110614aac57fe5b6020026020010181815250506154978161012481518110614ac957fe5b6020026020010181815250506155498161012581518110614ae657fe5b6020026020010181815250506155fc8161012681518110614b0357fe5b6020026020010181815250506156b08161012781518110614b2057fe5b6020026020010181815250506157658161012881518110614b3d57fe5b60200260200101818152505061581b8161012981518110614b5a57fe5b6020026020010181815250506158d28161012a81518110614b7757fe5b60200260200101818152505061598a8161012b81518110614b9457fe5b602002602001018181525050615a438161012c81518110614bb157fe5b602002602001018181525050615afd8161012d81518110614bce57fe5b602002602001018181525050615bb88161012e81518110614beb57fe5b602002602001018181525050615c748161012f81518110614c0857fe5b602002602001018181525050615d318161013081518110614c2557fe5b602002602001018181525050615def8161013181518110614c4257fe5b602002602001018181525050615eae8161013281518110614c5f57fe5b602002602001018181525050615f6e8161013381518110614c7c57fe5b60200260200101818152505061602f8161013481518110614c9957fe5b6020026020010181815250506160f18161013581518110614cb657fe5b6020026020010181815250506161b48161013681518110614cd357fe5b6020026020010181815250506162788161013781518110614cf057fe5b60200260200101818152505061633d8161013881518110614d0d57fe5b6020026020010181815250506164038161013981518110614d2a57fe5b6020026020010181815250506164cb8161013a81518110614d4757fe5b6020026020010181815250506165948161013b81518110614d6457fe5b60200260200101818152505061665e8161013c81518110614d8157fe5b6020026020010181815250506167298161013d81518110614d9e57fe5b6020026020010181815250506167f58161013e81518110614dbb57fe5b6020026020010181815250506168c28161013f81518110614dd857fe5b6020026020010181815250506169908161014081518110614df557fe5b602002602001018181525050616a5f8161014181518110614e1257fe5b602002602001018181525050616b2f8161014281518110614e2f57fe5b602002602001018181525050616c008161014381518110614e4c57fe5b602002602001018181525050616cd28161014481518110614e6957fe5b602002602001018181525050616da58161014581518110614e8657fe5b602002602001018181525050616e798161014681518110614ea357fe5b602002602001018181525050616f4e8161014781518110614ec057fe5b6020026020010181815250506170258161014881518110614edd57fe5b6020026020010181815250506170fd8161014981518110614efa57fe5b6020026020010181815250506171d68161014a81518110614f1757fe5b6020026020010181815250506172b08161014b81518110614f3457fe5b60200260200101818152505061738b8161014c81518110614f5157fe5b6020026020010181815250506174678161014d81518110614f6e57fe5b6020026020010181815250506175448161014e81518110614f8b57fe5b6020026020010181815250506176228161014f81518110614fa857fe5b6020026020010181815250506177018161015081518110614fc557fe5b6020026020010181815250506177e28161015181518110614fe257fe5b6020026020010181815250506178c48161015281518110614fff57fe5b6020026020010181815250506179a7816101538151811061501c57fe5b602002602001018181525050617a8b816101548151811061503957fe5b602002602001018181525050617b70816101558151811061505657fe5b602002602001018181525050617c56816101568151811061507357fe5b602002602001018181525050617d3d816101578151811061509057fe5b602002602001018181525050617e2681610158815181106150ad57fe5b602002602001018181525050617f1081610159815181106150ca57fe5b602002602001018181525050617ffb8161015a815181106150e757fe5b6020026020010181815250506180e78161015b8151811061510457fe5b6020026020010181815250506181d48161015c8151811061512157fe5b6020026020010181815250506182c38161015d8151811061513e57fe5b6020026020010181815250506183b38161015e8151811061515b57fe5b6020026020010181815250506184a48161015f8151811061517857fe5b602002602001018181525050618596816101608151811061519557fe5b60200260200101818152505061868981610161815181106151b257fe5b60200260200101818152505061877d81610162815181106151cf57fe5b60200260200101818152505061887381610163815181106151ec57fe5b60200260200101818152505061896a816101648151811061520957fe5b602002602001018181525050618a62816101658151811061522657fe5b602002602001018181525050618b5b816101668151811061524357fe5b602002602001018181525050618c56816101678151811061526057fe5b602002602001018181525050618d52816101688151811061527d57fe5b602002602001018181525050618e4f816101698151811061529a57fe5b602002602001018181525050618f4d8161016a815181106152b757fe5b60200260200101818152505061904c8161016b815181106152d457fe5b60200260200101818152505061914d8161016c815181106152f157fe5b60200260200101818152505061924f8161016d8151811061530e57fe5b6020908102919091010152905090565b60408051808201909152600081526060602082015290565b604051806101400160405280600a905b61534e615425565b8152602001906001900390816153465790505090565b604051806101800160405280600c905b61537c615425565b8152602001906001900390816153745790505090565b604051806101c00160405280600060ff168152602001600015158152602001600015158152602001600063ffffffff168152602001600063ffffffff168152602001600063ffffffff168152602001600081526020016000815260200160008152602001600081526020016000815260200160008152602001615413615425565b8152602001615420615425565b905290565b604080518082019091526000808252602082015290565b5061544b90600c810190615459565b50565b5061544b90600a8101905b5b808211156154785780546001600160a81b031916815560010161545a565b5090565b80356001600160a01b038116811461064957600080fd5b6000602082840312156154a4578081fd5b611bba838361547c565b600080604083850312156154c0578081fd5b6154ca848461547c565b946020939093013593505050565b6000602082840312156154e9578081fd5b81518015158114611bba578182fd5b600060208284031215615509578081fd5b5035919050565b600060208284031215615521578081fd5b5051919050565b60008060006060848603121561553c578081fd5b8335925061554d856020860161547c565b9150604084013590509250925092565b80516001600160a01b0316825260209081015160ff169082015260400190565b15159052565b805161ffff168252602090810151910152565b63ffffffff169052565b60ff169052565b6001600160a01b0391909116815260200190565b6001600160a01b039384168152919092166020820152604081019190915260600190565b6001600160a01b039485168152602081019390935292166040820152606081019190915260800190565b6001600160a01b03929092168252602082015260400190565b6001600160a01b039390931683526020830191909152604082015260600190565b6001600160a01b0392909216825260ff16602082015260400190565b901515815260200190565b6000602080835283518082850152825b818110156156965785810183015185820160400152820161567a565b818111156156a75783604083870101525b50601f01601f1916929092016040019392505050565b6020808252601b908201527a536166654d6174683a206164646974696f6e206f766572666c6f7760281b604082015260600190565b60208082526021908201527f536166654d6174683a206d756c7469706c69636174696f6e206f766572666c6f6040820152607760f81b606082015260800190565b602080825282516001600160a01b031682820152828101516040808401819052815160608086018290526000949390926080929185019183880190875b8181101561585a5784516157858482516155a0565b888101516157958a86018261557d565b50848101516157a68686018261557d565b50878101516157b789860182615596565b50868101516157c888860182615596565b5060a0808201516157db82870182615596565b505060c0818101519085015260e0808201519085015261010080820151908501526101208082015190850152610140808201519085015261016080820151908501526101808082015161583082870182615583565b50506101a001516158456101c0850182615583565b50938701936102009290920191600101615770565b50909998505050505050505050565b61ffff91909116815260200190565b90815260200190565b93845291151560208401526040830152606082015260800190565b918252602082015260400190565b60006106008201905087825260208781840152866040840152856060840152608083018560005b600a8110156158f3576158e583835161555d565b9250908301906001016158d1565b50505061030083018460005b600c8110156159215761591383835161555d565b9250908301906001016158ff565b50505050979650505050505050565b63ffffffff9190911681526020019056fea26469706673582212201d7f515848b50846a6416f0fe3f6b1868c223843ccef4d300217b591f3b260c564736f6c634300060c0033",
  "compiler": {
    "name": "solc",
    "version": "0.6.12+commit.27d51765.Emscripten.clang",
    "optimizer": {
      "enabled": true,
      "runs": 1
    },
    "evmVersion": "petersburg"
  }
}