{
  "fileName": "FourRXFinance.sol",
  "contractName": "FourRXFinance",
  "source": "// SPDX-License-Identifier: MIT\npragma solidity ^0.6.12;\npragma experimental ABIEncoderV2;\n\nimport \"@openzeppelin/contracts/token/ERC20/IERC20.sol\";\nimport \"./Insurance.sol\";\n\n/// @title 4RX Finance Staking DAPP Contract\n/// @notice Available functionality: Deposit, Withdraw, ExitProgram, Insure Stake\n/// @dev\ncontract FourRXFinance is Insurance {\n\n    constructor(address fourRXTokenAddress) public {\n        fourRXToken = IERC20(fourRXTokenAddress);\n\n        // Ref Bonus // 12 Max Participants\n        refPoolBonuses.push(2000); // 20%\n        refPoolBonuses.push(1700); // 17%\n        refPoolBonuses.push(1400); // 14%\n        refPoolBonuses.push(1100); // 11%\n        refPoolBonuses.push(1000); // 10%\n        refPoolBonuses.push(700); // 7%\n        refPoolBonuses.push(600); // 6%\n        refPoolBonuses.push(500); // 5%\n        refPoolBonuses.push(400); // 4%\n        refPoolBonuses.push(300); // 3%\n        refPoolBonuses.push(200); // 2%\n        refPoolBonuses.push(100); // 1%\n\n        // Sponsor Pool // 10 Max Participants\n        sponsorPoolBonuses.push(3000); // 30%\n        sponsorPoolBonuses.push(2000); // 20%\n        sponsorPoolBonuses.push(1200); // 12%\n        sponsorPoolBonuses.push(1000); // 10%\n        sponsorPoolBonuses.push(800); // 8%\n        sponsorPoolBonuses.push(700); // 7%\n        sponsorPoolBonuses.push(600); // 6%\n        sponsorPoolBonuses.push(400); // 4%\n        sponsorPoolBonuses.push(200); // 2%\n        sponsorPoolBonuses.push(100); // 1%\n\n        _resetPools();\n\n        poolCycle = 0;\n    }\n\n    function deposit(uint amount, address uplinkAddress, uint uplinkStakeId) external {\n        // 2k\n        require(\n            (users[uplinkAddress].wallet != address(0) && users[uplinkAddress].stakes[uplinkStakeId].active) ||\n            uplinkAddress == address(0)\n        ); // Either uplink must be registered and be a active deposit, 0 address\n\n        User storage user = users[msg.sender];\n        // 1k\n        if (users[msg.sender].stakes.length > 0) {\n            require(amount >= users[msg.sender].stakes[user.stakes.length - 1].deposit.mul(2)); // deposit amount must be greater 2x then last deposit\n        }\n        // 30k\n        require(fourRXToken.transferFrom(msg.sender, address(this), amount));\n        // 66k\n        drawPool(); // Draw old pool if qualified, and we're pretty sure that this stake is going to be created\n\n        uint depositReward = _calcDepositRewards(amount);\n\n        Stake memory stake;\n\n        user.wallet = msg.sender;\n\n        stake.id = user.stakes.length;\n        stake.active = true;\n        stake.interestCountFrom = block.timestamp;\n        stake.holdFrom = block.timestamp;\n\n        stake.deposit = amount.sub(_calcPercentage(amount, LP_FEE_BP)).add(depositReward); // Deduct LP Commission + add deposit rewards\n        stake.uplink.uplinkAddress = uplinkAddress;\n        stake.uplink.uplinkStakeId = uplinkStakeId;\n\n        stake.sponsorPool.cycle = poolCycle;\n        stake.sponsorPool.amount = amount;\n        // 33k\n        _updateSponsorPoolUsers(user, stake);\n        // 54k\n        _distributeReferralReward(amount, stake);\n\n        user.stakes.push(stake);\n        // 52k\n        refPoolBalance = refPoolBalance.add(_calcPercentage(amount, REF_POOL_FEE_BP));\n        sponsorPoolBalance = sponsorPoolBalance.add(_calcPercentage(amount, SPONSOR_POOL_FEE_BP));\n        // 30k\n        fourRXToken.transfer(devAddress, _calcPercentage(amount, DEV_FEE_BP));\n\n        uint currentContractBalance = fourRXToken.balanceOf(address(this));\n\n        if (currentContractBalance > maxContractBalance) {\n            maxContractBalance = currentContractBalance;\n        }\n        // 54k\n\n        totalDepositRewards = totalDepositRewards.add(depositReward);\n\n        emit Deposit(msg.sender, amount, uplinkAddress, uplinkStakeId);\n    }\n\n\n    function balanceOf(address _userAddress, uint stakeId) external view returns (uint) {\n        require(users[_userAddress].wallet == _userAddress);\n        User memory user = users[_userAddress];\n\n        return _calcRewards(user.stakes[stakeId]).sub(user.stakes[stakeId].withdrawn);\n    }\n\n    function withdraw(uint stakeId) external {\n        User storage user = users[msg.sender];\n        Stake storage stake = user.stakes[stakeId];\n        require(user.wallet == msg.sender && stake.active); // stake should be active\n\n        require(stake.lastWithdrawalAt + 1 days < block.timestamp); // we only allow one withdrawal each day\n\n        uint availableAmount = _calcRewards(stake).sub(stake.withdrawn).sub(stake.penalty);\n\n        require(availableAmount > 0);\n\n        uint penalty = _calcPenalty(stake, availableAmount);\n\n        if (penalty == 0) {\n            availableAmount = availableAmount.sub(_calcPercentage(stake.deposit, REWARD_THRESHOLD_BP)); // Only allow withdrawal if available is more then 10% of base\n\n            uint maxAllowedWithdrawal = _calcPercentage(stake.deposit, MAX_WITHDRAWAL_OVER_REWARD_THRESHOLD_BP);\n\n            if (availableAmount > maxAllowedWithdrawal) {\n                availableAmount = maxAllowedWithdrawal;\n            }\n        }\n\n        if (isInInsuranceState) {\n            availableAmount = _getInsuredAvailableAmount(stake, availableAmount);\n        }\n\n        availableAmount = availableAmount.sub(penalty);\n\n        fourRXToken.transfer(user.wallet, availableAmount);\n\n        stake.withdrawn = stake.withdrawn.add(availableAmount);\n        stake.lastWithdrawalAt = block.timestamp;\n        stake.holdFrom = block.timestamp;\n\n        stake.penalty = stake.penalty.add(penalty);\n\n        if (stake.withdrawn >= _calcPercentage(stake.deposit, MAX_CONTRACT_REWARD_BP)) {\n            stake.active = false; // if stake has withdrawn equals to or more then the max amount, then mark stake in-active\n        }\n\n        _checkForBaseInsuranceTrigger();\n\n        emit Withdrawn(user.wallet, availableAmount);\n    }\n\n    function exitProgram(uint stakeId) external {\n        User storage user = users[msg.sender];\n        require(user.wallet == msg.sender);\n        Stake storage stake = user.stakes[stakeId];\n        uint availableAmount = stake.deposit;\n        uint penaltyAmount = _calcPercentage(stake.deposit, EXIT_PENALTY_BP);\n\n        availableAmount = availableAmount.sub(penaltyAmount);\n\n        uint withdrawn = stake.withdrawn.add(stake.penalty);\n        require(withdrawn <= availableAmount);\n        availableAmount = availableAmount.sub(withdrawn);\n\n        fourRXToken.transfer(user.wallet, availableAmount);\n\n        stake.active = false;\n        stake.withdrawn = stake.withdrawn.add(availableAmount);\n        stake.penalty = stake.penalty.add(penaltyAmount);\n\n        totalExited = totalExited.add(1);\n\n        emit Exited(user.wallet, stakeId, availableAmount);\n    }\n\n    function insureStake(uint stakeId) external {\n        User storage user = users[msg.sender];\n        require(user.wallet == msg.sender);\n        Stake storage stake = user.stakes[stakeId];\n        _insureStake(user.wallet, stake);\n    }\n\n    // Getters\n\n    function getUser(address userAddress) external view returns (User memory) {\n        return users[userAddress];\n    }\n\n    function getPoolInfo() external view returns (uint, uint, uint, uint, PoolUser[10] memory, PoolUser[12] memory) {\n        return (poolDrewAt, poolCycle, sponsorPoolBalance, refPoolBalance, sponsorPoolUsers, refPoolUsers);\n    }\n\n    function getContractInfo() external view returns (uint, bool, uint, uint) {\n        return (maxContractBalance, isInInsuranceState, totalDepositRewards, totalExited);\n    }\n}\n",
  "sourcePath": "contracts/FourRXFinance.sol",
  "abi": [
    {
      "inputs": [
        {
          "internalType": "address",
          "name": "fourRXTokenAddress",
          "type": "address"
        }
      ],
      "stateMutability": "nonpayable",
      "type": "constructor"
    },
    {
      "anonymous": false,
      "inputs": [
        {
          "indexed": false,
          "internalType": "address",
          "name": "user",
          "type": "address"
        },
        {
          "indexed": false,
          "internalType": "uint256",
          "name": "amount",
          "type": "uint256"
        },
        {
          "indexed": false,
          "internalType": "address",
          "name": "uplinkAddress",
          "type": "address"
        },
        {
          "indexed": false,
          "internalType": "uint256",
          "name": "uplinkStakeId",
          "type": "uint256"
        }
      ],
      "name": "Deposit",
      "type": "event"
    },
    {
      "anonymous": false,
      "inputs": [
        {
          "indexed": false,
          "internalType": "address",
          "name": "user",
          "type": "address"
        },
        {
          "indexed": false,
          "internalType": "uint256",
          "name": "stakeId",
          "type": "uint256"
        },
        {
          "indexed": false,
          "internalType": "uint256",
          "name": "amount",
          "type": "uint256"
        }
      ],
      "name": "Exited",
      "type": "event"
    },
    {
      "anonymous": false,
      "inputs": [
        {
          "indexed": false,
          "internalType": "uint256",
          "name": "refPoolAmount",
          "type": "uint256"
        },
        {
          "indexed": false,
          "internalType": "uint256",
          "name": "sponsirPoolAmount",
          "type": "uint256"
        }
      ],
      "name": "PoolDrawn",
      "type": "event"
    },
    {
      "anonymous": false,
      "inputs": [
        {
          "indexed": false,
          "internalType": "address",
          "name": "user",
          "type": "address"
        },
        {
          "indexed": false,
          "internalType": "uint256",
          "name": "amount",
          "type": "uint256"
        }
      ],
      "name": "ReInvest",
      "type": "event"
    },
    {
      "anonymous": false,
      "inputs": [
        {
          "indexed": false,
          "internalType": "address",
          "name": "user",
          "type": "address"
        },
        {
          "indexed": false,
          "internalType": "uint256",
          "name": "amount",
          "type": "uint256"
        }
      ],
      "name": "Withdrawn",
      "type": "event"
    },
    {
      "inputs": [],
      "name": "CONTRACT_BONUS_PER_UNIT_BP",
      "outputs": [
        {
          "internalType": "uint256",
          "name": "",
          "type": "uint256"
        }
      ],
      "stateMutability": "view",
      "type": "function"
    },
    {
      "inputs": [],
      "name": "CONTRACT_BONUS_UNIT",
      "outputs": [
        {
          "internalType": "uint256",
          "name": "",
          "type": "uint256"
        }
      ],
      "stateMutability": "view",
      "type": "function"
    },
    {
      "inputs": [],
      "name": "DAY",
      "outputs": [
        {
          "internalType": "uint256",
          "name": "",
          "type": "uint256"
        }
      ],
      "stateMutability": "view",
      "type": "function"
    },
    {
      "inputs": [],
      "name": "DEV_FEE_BP",
      "outputs": [
        {
          "internalType": "uint256",
          "name": "",
          "type": "uint256"
        }
      ],
      "stateMutability": "view",
      "type": "function"
    },
    {
      "inputs": [],
      "name": "EXIT_PENALTY_BP",
      "outputs": [
        {
          "internalType": "uint256",
          "name": "",
          "type": "uint256"
        }
      ],
      "stateMutability": "view",
      "type": "function"
    },
    {
      "inputs": [],
      "name": "HOLD_BONUS_PER_UNIT_BP",
      "outputs": [
        {
          "internalType": "uint256",
          "name": "",
          "type": "uint256"
        }
      ],
      "stateMutability": "view",
      "type": "function"
    },
    {
      "inputs": [],
      "name": "HOLD_BONUS_UNIT",
      "outputs": [
        {
          "internalType": "uint256",
          "name": "",
          "type": "uint256"
        }
      ],
      "stateMutability": "view",
      "type": "function"
    },
    {
      "inputs": [],
      "name": "LP_FEE_BP",
      "outputs": [
        {
          "internalType": "uint256",
          "name": "",
          "type": "uint256"
        }
      ],
      "stateMutability": "view",
      "type": "function"
    },
    {
      "inputs": [],
      "name": "MAX_CONTRACT_BONUS_BP",
      "outputs": [
        {
          "internalType": "uint256",
          "name": "",
          "type": "uint256"
        }
      ],
      "stateMutability": "view",
      "type": "function"
    },
    {
      "inputs": [],
      "name": "MAX_CONTRACT_REWARD_BP",
      "outputs": [
        {
          "internalType": "uint256",
          "name": "",
          "type": "uint256"
        }
      ],
      "stateMutability": "view",
      "type": "function"
    },
    {
      "inputs": [],
      "name": "MAX_HOLD_BONUS_BP",
      "outputs": [
        {
          "internalType": "uint256",
          "name": "",
          "type": "uint256"
        }
      ],
      "stateMutability": "view",
      "type": "function"
    },
    {
      "inputs": [],
      "name": "MAX_WITHDRAWAL_OVER_REWARD_THRESHOLD_BP",
      "outputs": [
        {
          "internalType": "uint256",
          "name": "",
          "type": "uint256"
        }
      ],
      "stateMutability": "view",
      "type": "function"
    },
    {
      "inputs": [],
      "name": "PERCENT_MULTIPLIER",
      "outputs": [
        {
          "internalType": "uint256",
          "name": "",
          "type": "uint256"
        }
      ],
      "stateMutability": "view",
      "type": "function"
    },
    {
      "inputs": [],
      "name": "REF_COMMISSION_BP",
      "outputs": [
        {
          "internalType": "uint256",
          "name": "",
          "type": "uint256"
        }
      ],
      "stateMutability": "view",
      "type": "function"
    },
    {
      "inputs": [],
      "name": "REF_POOL_FEE_BP",
      "outputs": [
        {
          "internalType": "uint256",
          "name": "",
          "type": "uint256"
        }
      ],
      "stateMutability": "view",
      "type": "function"
    },
    {
      "inputs": [],
      "name": "REWARD_THRESHOLD_BP",
      "outputs": [
        {
          "internalType": "uint256",
          "name": "",
          "type": "uint256"
        }
      ],
      "stateMutability": "view",
      "type": "function"
    },
    {
      "inputs": [],
      "name": "SPONSOR_POOL_FEE_BP",
      "outputs": [
        {
          "internalType": "uint256",
          "name": "",
          "type": "uint256"
        }
      ],
      "stateMutability": "view",
      "type": "function"
    },
    {
      "inputs": [
        {
          "internalType": "address",
          "name": "_userAddress",
          "type": "address"
        },
        {
          "internalType": "uint256",
          "name": "stakeId",
          "type": "uint256"
        }
      ],
      "name": "balanceOf",
      "outputs": [
        {
          "internalType": "uint256",
          "name": "",
          "type": "uint256"
        }
      ],
      "stateMutability": "view",
      "type": "function"
    },
    {
      "inputs": [
        {
          "internalType": "uint256",
          "name": "amount",
          "type": "uint256"
        },
        {
          "internalType": "address",
          "name": "uplinkAddress",
          "type": "address"
        },
        {
          "internalType": "uint256",
          "name": "uplinkStakeId",
          "type": "uint256"
        }
      ],
      "name": "deposit",
      "outputs": [],
      "stateMutability": "nonpayable",
      "type": "function"
    },
    {
      "inputs": [],
      "name": "devAddress",
      "outputs": [
        {
          "internalType": "address",
          "name": "",
          "type": "address"
        }
      ],
      "stateMutability": "view",
      "type": "function"
    },
    {
      "inputs": [],
      "name": "drawPool",
      "outputs": [],
      "stateMutability": "nonpayable",
      "type": "function"
    },
    {
      "inputs": [
        {
          "internalType": "uint256",
          "name": "stakeId",
          "type": "uint256"
        }
      ],
      "name": "exitProgram",
      "outputs": [],
      "stateMutability": "nonpayable",
      "type": "function"
    },
    {
      "inputs": [],
      "name": "fourRXToken",
      "outputs": [
        {
          "internalType": "contract IERC20",
          "name": "",
          "type": "address"
        }
      ],
      "stateMutability": "view",
      "type": "function"
    },
    {
      "inputs": [],
      "name": "getContractInfo",
      "outputs": [
        {
          "internalType": "uint256",
          "name": "",
          "type": "uint256"
        },
        {
          "internalType": "bool",
          "name": "",
          "type": "bool"
        },
        {
          "internalType": "uint256",
          "name": "",
          "type": "uint256"
        },
        {
          "internalType": "uint256",
          "name": "",
          "type": "uint256"
        }
      ],
      "stateMutability": "view",
      "type": "function"
    },
    {
      "inputs": [],
      "name": "getPoolInfo",
      "outputs": [
        {
          "internalType": "uint256",
          "name": "",
          "type": "uint256"
        },
        {
          "internalType": "uint256",
          "name": "",
          "type": "uint256"
        },
        {
          "internalType": "uint256",
          "name": "",
          "type": "uint256"
        },
        {
          "internalType": "uint256",
          "name": "",
          "type": "uint256"
        },
        {
          "components": [
            {
              "internalType": "address",
              "name": "user",
              "type": "address"
            },
            {
              "internalType": "uint256",
              "name": "stakeId",
              "type": "uint256"
            }
          ],
          "internalType": "struct SharedVariables.PoolUser[10]",
          "name": "",
          "type": "tuple[10]"
        },
        {
          "components": [
            {
              "internalType": "address",
              "name": "user",
              "type": "address"
            },
            {
              "internalType": "uint256",
              "name": "stakeId",
              "type": "uint256"
            }
          ],
          "internalType": "struct SharedVariables.PoolUser[12]",
          "name": "",
          "type": "tuple[12]"
        }
      ],
      "stateMutability": "view",
      "type": "function"
    },
    {
      "inputs": [
        {
          "internalType": "address",
          "name": "userAddress",
          "type": "address"
        }
      ],
      "name": "getUser",
      "outputs": [
        {
          "components": [
            {
              "internalType": "address",
              "name": "wallet",
              "type": "address"
            },
            {
              "components": [
                {
                  "internalType": "uint256",
                  "name": "id",
                  "type": "uint256"
                },
                {
                  "internalType": "bool",
                  "name": "active",
                  "type": "bool"
                },
                {
                  "internalType": "bool",
                  "name": "optInInsured",
                  "type": "bool"
                },
                {
                  "internalType": "uint256",
                  "name": "holdFrom",
                  "type": "uint256"
                },
                {
                  "internalType": "uint256",
                  "name": "deposit",
                  "type": "uint256"
                },
                {
                  "internalType": "uint256",
                  "name": "withdrawn",
                  "type": "uint256"
                },
                {
                  "internalType": "uint256",
                  "name": "penalty",
                  "type": "uint256"
                },
                {
                  "internalType": "uint256",
                  "name": "refCommission",
                  "type": "uint256"
                },
                {
                  "internalType": "uint256",
                  "name": "refPoolRewards",
                  "type": "uint256"
                },
                {
                  "internalType": "uint256",
                  "name": "sponsorPoolRewards",
                  "type": "uint256"
                },
                {
                  "internalType": "uint256",
                  "name": "interestCountFrom",
                  "type": "uint256"
                },
                {
                  "internalType": "uint256",
                  "name": "lastWithdrawalAt",
                  "type": "uint256"
                },
                {
                  "components": [
                    {
                      "internalType": "address",
                      "name": "uplinkAddress",
                      "type": "address"
                    },
                    {
                      "internalType": "uint256",
                      "name": "uplinkStakeId",
                      "type": "uint256"
                    }
                  ],
                  "internalType": "struct SharedVariables.Uplink",
                  "name": "uplink",
                  "type": "tuple"
                },
                {
                  "components": [
                    {
                      "internalType": "uint256",
                      "name": "cycle",
                      "type": "uint256"
                    },
                    {
                      "internalType": "uint256",
                      "name": "amount",
                      "type": "uint256"
                    }
                  ],
                  "internalType": "struct SharedVariables.Pool",
                  "name": "refPool",
                  "type": "tuple"
                },
                {
                  "components": [
                    {
                      "internalType": "uint256",
                      "name": "cycle",
                      "type": "uint256"
                    },
                    {
                      "internalType": "uint256",
                      "name": "amount",
                      "type": "uint256"
                    }
                  ],
                  "internalType": "struct SharedVariables.Pool",
                  "name": "sponsorPool",
                  "type": "tuple"
                }
              ],
              "internalType": "struct SharedVariables.Stake[]",
              "name": "stakes",
              "type": "tuple[]"
            }
          ],
          "internalType": "struct SharedVariables.User",
          "name": "",
          "type": "tuple"
        }
      ],
      "stateMutability": "view",
      "type": "function"
    },
    {
      "inputs": [
        {
          "internalType": "uint256",
          "name": "stakeId",
          "type": "uint256"
        }
      ],
      "name": "insureStake",
      "outputs": [],
      "stateMutability": "nonpayable",
      "type": "function"
    },
    {
      "inputs": [],
      "name": "isInInsuranceState",
      "outputs": [
        {
          "internalType": "bool",
          "name": "",
          "type": "bool"
        }
      ],
      "stateMutability": "view",
      "type": "function"
    },
    {
      "inputs": [],
      "name": "maxContractBalance",
      "outputs": [
        {
          "internalType": "uint256",
          "name": "",
          "type": "uint256"
        }
      ],
      "stateMutability": "view",
      "type": "function"
    },
    {
      "inputs": [],
      "name": "poolCycle",
      "outputs": [
        {
          "internalType": "uint256",
          "name": "",
          "type": "uint256"
        }
      ],
      "stateMutability": "view",
      "type": "function"
    },
    {
      "inputs": [],
      "name": "poolDrewAt",
      "outputs": [
        {
          "internalType": "uint256",
          "name": "",
          "type": "uint256"
        }
      ],
      "stateMutability": "view",
      "type": "function"
    },
    {
      "inputs": [],
      "name": "refPoolBalance",
      "outputs": [
        {
          "internalType": "uint256",
          "name": "",
          "type": "uint256"
        }
      ],
      "stateMutability": "view",
      "type": "function"
    },
    {
      "inputs": [
        {
          "internalType": "uint256",
          "name": "",
          "type": "uint256"
        }
      ],
      "name": "refPoolBonuses",
      "outputs": [
        {
          "internalType": "uint256",
          "name": "",
          "type": "uint256"
        }
      ],
      "stateMutability": "view",
      "type": "function"
    },
    {
      "inputs": [
        {
          "internalType": "uint256",
          "name": "",
          "type": "uint256"
        }
      ],
      "name": "refPoolUsers",
      "outputs": [
        {
          "internalType": "address",
          "name": "user",
          "type": "address"
        },
        {
          "internalType": "uint256",
          "name": "stakeId",
          "type": "uint256"
        }
      ],
      "stateMutability": "view",
      "type": "function"
    },
    {
      "inputs": [],
      "name": "sponsorPoolBalance",
      "outputs": [
        {
          "internalType": "uint256",
          "name": "",
          "type": "uint256"
        }
      ],
      "stateMutability": "view",
      "type": "function"
    },
    {
      "inputs": [
        {
          "internalType": "uint256",
          "name": "",
          "type": "uint256"
        }
      ],
      "name": "sponsorPoolBonuses",
      "outputs": [
        {
          "internalType": "uint256",
          "name": "",
          "type": "uint256"
        }
      ],
      "stateMutability": "view",
      "type": "function"
    },
    {
      "inputs": [
        {
          "internalType": "uint256",
          "name": "",
          "type": "uint256"
        }
      ],
      "name": "sponsorPoolUsers",
      "outputs": [
        {
          "internalType": "address",
          "name": "user",
          "type": "address"
        },
        {
          "internalType": "uint256",
          "name": "stakeId",
          "type": "uint256"
        }
      ],
      "stateMutability": "view",
      "type": "function"
    },
    {
      "inputs": [],
      "name": "totalDepositRewards",
      "outputs": [
        {
          "internalType": "uint256",
          "name": "",
          "type": "uint256"
        }
      ],
      "stateMutability": "view",
      "type": "function"
    },
    {
      "inputs": [],
      "name": "totalExited",
      "outputs": [
        {
          "internalType": "uint256",
          "name": "",
          "type": "uint256"
        }
      ],
      "stateMutability": "view",
      "type": "function"
    },
    {
      "inputs": [
        {
          "internalType": "address",
          "name": "",
          "type": "address"
        }
      ],
      "name": "users",
      "outputs": [
        {
          "internalType": "address",
          "name": "wallet",
          "type": "address"
        }
      ],
      "stateMutability": "view",
      "type": "function"
    },
    {
      "inputs": [
        {
          "internalType": "uint256",
          "name": "stakeId",
          "type": "uint256"
        }
      ],
      "name": "withdraw",
      "outputs": [],
      "stateMutability": "nonpayable",
      "type": "function"
    }
  ],
  "bytecode": "0x6080604052600380546001600160a01b0319167364b8cb4c04ba902010856d913b4e5df940748bf21790556038805460ff191690553480156200004157600080fd5b5060405162005b4e38038062005b4e8339810160408190526200006491620002f8565b600280546001600160a01b0319166001600160a01b03831617905560318054600181810183556107d07fc54045fa7c6ec765e825df7f9e9bf9dec12c5cef146f93a5eee56772ee647fbc928301819055835480830185556106a49084015583548083018555610578908401558354808301855561044c90840155835480830185556103e8908401819055845480840186556102bc90850181905585548085018755610258908601819055865480860188556101f490870155865480860188556101909087018190558754808701895561012c908801558754808701895560c890880181905588548088019099556064989097018890556032805480880182556000829052610bb87f11df491316f14931039edfd4f8964c9a443b862f02d4c7611d18c2bc4e6ff6979182015581548089018355810196909655805480880182556104b09087015580548088018255860194909455835480870185556103209086015583548087018555850192909255825480860184558401558154808501835583015580548084018255820193909355825491820190925501556200020862000214565b50600060345562000328565b60005b6031548110156200027d576000600582600c81106200023257fe5b6002020180546001600160a01b0319166001600160a01b03929092169190911790556000600582600c81106200026457fe5b6002020160010181905550808060010191505062000217565b5060005b603254811015620002e7576000601d82600a81106200029c57fe5b6002020180546001600160a01b0319166001600160a01b03929092169190911790556000600582600c8110620002ce57fe5b6002020160010181905550808060010191505062000281565b506000603681905560375542603555565b6000602082840312156200030a578081fd5b81516001600160a01b038116811462000321578182fd5b9392505050565b61581680620003386000396000f3fe608060405234801561001057600080fd5b50600436106101e25760003560e01c8062fdd58e146101e757806303162d2c146102105780630781235a146102185780630ac39f72146102205780630f9fa6aa1461021857806312dd5fe41461021857806327cfe856146102285780632e1a7d4d146102305780633ad10ef6146102455780633df936c91461025a57806346c27f6514610262578063498dc5b51461027757806360246c881461027f57806363b815fa1461029957806365fcb49e146102a157806369da94d8146102a95780636f77926b146102b15780637247b2b9146102d15780637cc1f867146102d957806391994b2c146102f15780639b6eec7d146102f95780639c236aa814610301578063a00d498014610322578063a13a801a1461032a578063a87430ba14610332578063a9122af714610345578063aaf1a0da1461032a578063b963ddb41461034d578063bc157ac114610355578063c37b95a014610368578063cabea10d1461037b578063d3b04a2714610383578063d5766ebd14610396578063d82daec7146103a9578063d902f40c146103b1578063df5a75ef146103b9578063e5231411146103cc578063e7204ffb146103d4578063ed56f6a1146103dc578063f48e595a146103ef578063fd0b8252146103f7575b600080fd5b6101fa6101f536600461539a565b6103ff565b6040516102079190615724565b60405180910390f35b6101fa6105e8565b6101fa6105ee565b6101fa6105f4565b6101fa6105f9565b61024361023e3660046153e4565b610600565b005b61024d610b2c565b604051610207919061548a565b6101fa610b3b565b61026a610b41565b6040516102079190615526565b6101fa610b4a565b610287610b50565b60405161020796959493929190615756565b6101fa610c43565b6101fa610c49565b6101fa610c4f565b6102c46102bf36600461537f565b610c55565b60405161020791906155fa565b6101fa610dcc565b6102e1610dd2565b604051610207949392919061572d565b6101fa610dea565b6101fa610df0565b61031461030f3660046153e4565b610df6565b6040516102079291906154ec565b6101fa610e1f565b6101fa610e24565b61024d61034036600461537f565b610e29565b61024d610e44565b6101fa610e53565b610243610363366004615414565b610e59565b6102436103763660046153e4565b611499565b6101fa6114fe565b6102436103913660046153e4565b611504565b6101fa6103a43660046153e4565b6116c4565b6101fa6116e2565b6101fa6116e8565b6101fa6103c73660046153e4565b6116ed565b6101fa6116fa565b6102436116ff565b6103146103ea3660046153e4565b611973565b6101fa611980565b6101fa611985565b6001600160a01b038083166000818152600460205260408120549092161461042657600080fd5b61042e615238565b6001600160a01b038085166000908152600460209081526040808320815180830183528154909516855260018101805483518186028101860190945280845291948685019491929184015b8282101561058f576000848152602090819020604080516101e081018252601186029092018054835260018082015460ff80821615158688015261010091829004161515858501526002830154606086015260038301546080860152600483015460a0860152600583015460c0860152600683015460e086015260078301549085015260088201546101208501526009820154610140850152600a82015461016085015282518084018452600b8301546001600160a01b03168152600c8301548187015261018085015282518084018452600d8301548152600e830154818701526101a08501528251808401909352600f8201548352601090910154828501526101c08301919091529083529092019101610479565b505050508152505090506105de816020015184815181106105ac57fe5b602002602001015160a001516105d8836020015186815181106105cb57fe5b602002602001015161198b565b906119ec565b9150505b92915050565b61a8c081565b61012c81565b600281565b6201518081565b3360009081526004602052604081206001810180549192918490811061062257fe5b60009182526020909120835460119092020191506001600160a01b0316331480156106515750600181015460ff165b61065a57600080fd5b4281600a015462015180011061066f57600080fd5b60058101546004820154604080516101e08101825284548152600185015460ff808216151560208085019190915261010092839004909116151583850152600287015460608401526003870154608084015260a0830185905260c08301869052600687015460e084015260078701549183019190915260088601546101208301526009860154610140830152600a86015461016083015282518084018452600b8701546001600160a01b03168152600c8701548183015261018083015282518084018452600d8701548152600e870154818301526101a08301528251808401909352600f86015483526010860154908301526101c081019190915260009261077f9290916105d89190829061198b565b90506000811161078e57600080fd5b604080516101e08101825283548152600184015460ff8082161515602080850191909152610100928390049091161515838501526002860154606084015260038601546080840152600486015460a0840152600586015460c0840152600686015460e084015260078601549183019190915260088501546101208301526009850154610140830152600a85015461016083015282518084018452600b8601546001600160a01b03168152600c8601548183015261018083015282518084018452600d8601548152600e860154818301526101a08301528251808401909352600f85015483526010850154908301526101c08101919091526000906108929083611a35565b9050806108d7576108b36108ac846003015461012c611a83565b83906119ec565b915060006108c7846003015461012c611a83565b9050808311156108d5578092505b505b60385460ff16156109e657604080516101e08101825284548152600185015460ff8082161515602080850191909152610100928390049091161515838501526002870154606084015260038701546080840152600487015460a0840152600587015460c0840152600687015460e084015260078701549183019190915260088601546101208301526009860154610140830152600a86015461016083015282518084018452600b8701546001600160a01b03168152600c8701548183015261018083015282518084018452600d8701548152600e870154818301526101a08301528251808401909352600f86015483526010860154908301526101c08101919091526109e39083611a95565b91505b6109f082826119ec565b600254855460405163a9059cbb60e01b81529294506001600160a01b039182169263a9059cbb92610a2792169086906004016154ec565b602060405180830381600087803b158015610a4157600080fd5b505af1158015610a55573d6000803e3d6000fd5b505050506040513d601f19601f82011682018060405250810190610a7991906153c4565b506004830154610a899083611b38565b600484015542600a840181905560028401556005830154610aaa9082611b38565b60058401556003830154610ac09061924f611a83565b836004015410610ad75760018301805460ff191690555b610adf611b66565b83546040517f7084f5476618d8e60b11ef0d7d3f06914655adb8793e28ff7f018d4c76d505d591610b1d916001600160a01b039091169085906154ec565b60405180910390a15050505050565b6003546001600160a01b031681565b60375481565b60385460ff1681565b61138881565b600080600080610b5e615250565b610b6661527e565b603554603454603754603654604080516101408101909152601d9060059082600a6000835b82821015610bcc576040805180820190915260028302850180546001600160a01b031682526001908101546020808401919091529183529092019101610b8b565b5050604080516101808101909152929450839150600c90506000835b82821015610c29576040805180820190915260028302850180546001600160a01b031682526001908101546020808401919091529183529092019101610be8565b505050509050955095509550955095509550909192939495565b61271081565b60335481565b61924f81565b610c5d615238565b6001600160a01b038083166000908152600460209081526040808320815180830183528154909516855260018101805483518186028101860190945280845291948685019491929184015b82821015610dbe576000848152602090819020604080516101e081018252601186029092018054835260018082015460ff80821615158688015261010091829004161515858501526002830154606086015260038301546080860152600483015460a0860152600583015460c0860152600683015460e086015260078301549085015260088201546101208501526009820154610140850152600a82015461016085015282518084018452600b8301546001600160a01b03168152600c8301548187015261018085015282518084018452600d8301548152600e830154818701526101a08501528251808401909352600f8201548352601090910154828501526101c08301919091529083529092019101610ca8565b505050915250909392505050565b60005481565b60335460385460005460015460ff9092169190919293565b60015481565b6101f481565b601d81600a8110610e0357fe5b6002020180546001909101546001600160a01b03909116915082565b600581565b603281565b6004602052600090815260409020546001600160a01b031681565b6002546001600160a01b031681565b61032081565b6001600160a01b038281166000908152600460205260409020541615801590610ebc57506001600160a01b0382166000908152600460205260409020600101805482908110610ea457fe5b600091825260209091206001601190920201015460ff165b80610ece57506001600160a01b038216155b610ed757600080fd5b336000908152600460205260409020600181015415610f4c5733600090815260046020526040902060018281015491018054610f409260029291600019909101908110610f2057fe5b906000526020600020906011020160030154611c1790919063ffffffff16565b841015610f4c57600080fd5b6002546040516323b872dd60e01b81526001600160a01b03909116906323b872dd90610f809033903090899060040161549e565b602060405180830381600087803b158015610f9a57600080fd5b505af1158015610fae573d6000803e3d6000fd5b505050506040513d601f19601f82011682018060405250810190610fd291906153c4565b610fdb57600080fd5b610fe36116ff565b6000610fee85611c51565b9050610ff86152ac565b82546001600160a01b031916331783556001808401548252602082015242610140820181905260608201526110428261103c611035896005611a83565b89906119ec565b90611b38565b6080820152610180810180516001600160a01b03808816909152905160209081018690526034546101c08401805191909152518101889052604080518082018252865490931683526001860180548251818502810185019093528083526111d894938893858201939092909160009084015b828210156111ca576000848152602090819020604080516101e081018252601186029092018054835260018082015460ff80821615158688015261010091829004161515858501526002830154606086015260038301546080860152600483015460a0860152600583015460c0860152600683015460e086015260078301549085015260088201546101208501526009820154610140850152600a82015461016085015282518084018452600b8301546001600160a01b03168152600c8301548187015261018085015282518084018452600d8301548152600e830154818701526101a08501528251808401909352600f8201548352601090910154828501526101c083019190915290835290920191016110b4565b505050508152505082611d15565b6111e2868261201b565b60018381018054808301825560009182526020918290208451601190920201908155838201519281018054604086015160ff199091169415159490941761ff0019166101009415158502179055606084015160028201556080840151600382015560a0840151600482015560c0840151600582015560e0840151600682015591830151600783015561012083015160088301556101408301516009830155610160830151600a8301556101808301518051600b840180546001600160a01b0319166001600160a01b03909216919091179055810151600c8301556101a08301518051600d840155810151600e8301556101c08301518051600f84015501516010909101556112fd6112f4876032611a83565b60365490611b38565b60365561131761130e876032611a83565b60375490611b38565b6037556002546003546001600160a01b039182169163a9059cbb911661133f896101f4611a83565b6040518363ffffffff1660e01b815260040161135c9291906154ec565b602060405180830381600087803b15801561137657600080fd5b505af115801561138a573d6000803e3d6000fd5b505050506040513d601f19601f820116820180604052508101906113ae91906153c4565b506002546040516370a0823160e01b81526000916001600160a01b0316906370a08231906113e090309060040161548a565b60206040518083038186803b1580156113f857600080fd5b505afa15801561140c573d6000803e3d6000fd5b505050506040513d601f19601f8201168201806040525081019061143091906153fc565b90506033548111156114425760338190555b60005461144f9084611b38565b6000556040517fd2f8022f659fd9c8c558f30c00fd5ee7038f7cb56da45095c3e0e7d48b3e0c4b906114889033908a908a908a906154c2565b60405180910390a150505050505050565b336000818152600460205260409020805490916001600160a01b03909116146114c157600080fd5b60008160010183815481106114d257fe5b60009182526020909120835460119092020191506114f9906001600160a01b0316826122cc565b505050565b60345481565b336000818152600460205260409020805490916001600160a01b039091161461152c57600080fd5b600081600101838154811061153d57fe5b6000918252602082206003601190920201908101549092509061156282611388611a83565b905061156e82826119ec565b9150600061158d84600501548560040154611b3890919063ffffffff16565b90508281111561159c57600080fd5b6115a683826119ec565b600254865460405163a9059cbb60e01b81529295506001600160a01b039182169263a9059cbb926115dd92169087906004016154ec565b602060405180830381600087803b1580156115f757600080fd5b505af115801561160b573d6000803e3d6000fd5b505050506040513d601f19601f8201168201806040525081019061162f91906153c4565b5060018401805460ff19169055600484015461164b9084611b38565b6004850155600584015461165f9083611b38565b60058501556001805461167191611b38565b60015584546040517fba49bb5279636ff80eebc4fcda6a47bdf6053db74c3719cc3f9cc54e44b2878b916116b4916001600160a01b039091169089908790615505565b60405180910390a1505050505050565b603181815481106116d157fe5b600091825260209091200154905081565b60365481565b600181565b603281815481106116d157fe5b606481565b60355462015180014211156119715760005b600c811015611824576000600582600c811061172957fe5b60020201546001600160a01b0316141561174257611824565b600060046000600584600c811061175557fe5b60020201546001600160a01b031681526020810191909152604001600020603654603180549293506117e4926117a19291908690811061179157fe5b9060005260206000200154611a83565b82600101600585600c81106117b257fe5b6002020160010154815481106117c457fe5b906000526020600020906011020160070154611b3890919063ffffffff16565b81600101600584600c81106117f557fe5b60020201600101548154811061180757fe5b600091825260209091206007601190920201015550600101611711565b5060005b600a81101561192b576000601d82600a811061184057fe5b60020201546001600160a01b031614156118595761192b565b600060046000601d84600a811061186c57fe5b60020201546001600160a01b031681526020810191909152604001600020603754603280549293506118eb926118a89291908690811061179157fe5b82600101601d85600a81106118b957fe5b6002020160010154815481106118cb57fe5b906000526020600020906011020160080154611b3890919063ffffffff16565b81600101601d84600a81106118fc57fe5b60020201600101548154811061190e57fe5b600091825260209091206008601190920201015550600101611828565b507f505fb5b242804521f868b1210d5697cefabaa21c3f697207aa5c02dc549116e2603654603754604051611961929190615748565b60405180910390a16119716123a9565b565b600581600c8110610e0357fe5b60fa81565b60355481565b60008061199783612485565b905061012c6119aa8460800151836124fd565b106119c5576119c26119bb8461250f565b8290611b38565b90505b60006119d7846080015161924f611a83565b9050808211156119e5578091505b5092915050565b6000611a2e83836040518060400160405280601e81526020017f536166654d6174683a207375627472616374696f6e206f766572666c6f770000815250612567565b9392505050565b600080611a468460800151846124fd565b905061012c8110611a5b5760009150506105e2565b6105de83611a83611a7a61012c611a7486612710611c17565b90612593565b612710906119ec565b6000611a2e612710611a748585611c17565b60408201516000908290610dac9015611aad57506127105b6000611abd866080015183611a83565b9050611ada8660c001518760a00151611b3890919063ffffffff16565b811015611ae657600080fd5b80611b068760c0015161103c868a60a00151611b3890919063ffffffff16565b1115611b2e57611b2b8660c001516105d88860a00151846119ec90919063ffffffff16565b92505b5090949350505050565b600082820183811015611a2e5760405162461bcd60e51b8152600401611b5d90615584565b60405180910390fd5b611b74603354610dac611a83565b6002546040516370a0823160e01b81526001600160a01b03909116906370a0823190611ba490309060040161548a565b60206040518083038186803b158015611bbc57600080fd5b505afa158015611bd0573d6000803e3d6000fd5b505050506040513d601f19601f82011682018060405250810190611bf491906153fc565b11611c0b576038805460ff19166001179055611971565b6038805460ff19169055565b600082611c26575060006105e2565b82820282848281611c3357fe5b0414611a2e5760405162461bcd60e51b8152600401611b5d906155b9565b60008060af831115611c6557506032611d0b565b6096831115611c7657506028611d0b565b6087831115611c8757506023611d0b565b6077831115611c985750601e611d0b565b6064831115611ca957506019611d0b565b6059831115611cba57506014611d0b565b604b831115611ccb5750600f611d0b565b603b831115611cdc5750600a611d0b565b602d831115611ced57506005611d0b565b6014831115611cfe57506002611d0b565b6009831115611d0b575060015b611a2e8382611a83565b6000601d611d25600a60016119ec565b600a8110611d2f57fe5b60020201546001600160a01b03161480611dd0575060046000601d611d56600a60016119ec565b600a8110611d6057fe5b60020201546001600160a01b031681526020810191909152604001600020600190810190601d90611d9390600a906119ec565b600a8110611d9d57fe5b600202016001015481548110611daf57fe5b9060005260206000209060110201600f0160010154816101c0015160200151115b1561201757611ddd615337565b60005b600a811015612014576000601d82600a8110611df857fe5b60020201546001600160a01b03161415611e5c578351601d82600a8110611e1b57fe5b6002020180546001600160a01b0319166001600160a01b03929092169190911790558251601d82600a8110611e4c57fe5b6002020160010181905550612014565b60046000601d83600a8110611e6d57fe5b60020201546001600160a01b031681526020810191909152604001600020600101601d82600a8110611e9b57fe5b600202016001015481548110611ead57fe5b9060005260206000209060110201600f0160010154836101c0015160200151111561200c57601d81600a8110611edf57fe5b604080518082019091526002919091029190910180546001600160a01b031682526001015460208201528451909250601d82600a8110611f1b57fe5b6002020180546001600160a01b0319166001600160a01b03929092169190911790558251601d82600a8110611f4c57fe5b6002020160010181905550611f5f615337565b815b600a8310156120055783516001600160a01b0316611f7e57612005565b601d81600a8110611f8b57fe5b604080518082019091526002919091029190910180546001600160a01b03168252600101546020820152915083601d82600a8110611fc557fe5b82516002919091029190910180546001600160a01b0319166001600160a01b03909216919091178155602090910151600191820155919350839101611f61565b5050612014565b600101611de0565b50505b5050565b610180810151516001600160a01b031615801590612084575061018081018051516001600160a01b031660009081526004602090815260409091209151015160019091018054909190811061206c57fe5b600091825260209091206001601190920201015460ff165b1561201757610180810151516001600160a01b03166000908152600460205260408120906120b484610320611a83565b90506120f2818360010185610180015160200151815481106120d257fe5b906000526020600020906011020160060154611b3890919063ffffffff16565b82600101846101800151602001518154811061210a57fe5b60009182526020909120600660119092020101556034546101a08401515114612145576034546101a084018051919091525160006020909101525b6101a0830151602001516121599085611b38565b6101a084015160209081019190915260408051808201825284546001600160a01b0316815260018501805483518186028101860190945280845261201494929387938581019391929060009084015b828210156122be576000848152602090819020604080516101e081018252601186029092018054835260018082015460ff80821615158688015261010091829004161515858501526002830154606086015260038301546080860152600483015460a0860152600583015460c0860152600683015460e086015260078301549085015260088201546101208501526009820154610140850152600a82015461016085015282518084018452600b8301546001600160a01b03168152600c8301548187015261018085015282518084018452600d8301548152600e830154818701526101a08501528251808401909352600f8201548352601090910154828501526101c083019190915290835290920191016121a8565b5050505081525050846125d2565b6001810154610100900460ff161580156122ea5750600181015460ff165b6122f357600080fd5b60025460038201546001600160a01b03909116906323b872dd908490309061231d906103e8611a83565b6040518463ffffffff1660e01b815260040161233b9392919061549e565b602060405180830381600087803b15801561235557600080fd5b505af1158015612369573d6000803e3d6000fd5b505050506040513d601f19601f8201168201806040525081019061238d91906153c4565b61239657600080fd5b600101805461ff00191661010017905550565b60005b60315481101561240e576000600582600c81106123c557fe5b6002020180546001600160a01b0319166001600160a01b03929092169190911790556000600582600c81106123f657fe5b600202016001018190555080806001019150506123ac565b5060005b603254811015612474576000601d82600a811061242b57fe5b6002020180546001600160a01b0319166001600160a01b03929092169190911790556000600582600c811061245c57fe5b60020201600101819055508080600101915050612412565b506000603681905560375542603555565b6000806124a5836101200151846101000151611b3890919063ffffffff16565b905060008360e00151905060006124d18560800151611a836124cc88610140015142612862565b612875565b905060006124de866128a8565b905060006124f28261103c85818989611b38565b979650505050505050565b6000611a2e83611a7484612710611c17565b60008061253361a8c0611a746201518061252d876060015142612862565b90611c17565b90506000612542826002611c17565b90506064811115612551575060645b61255f846080015182611a83565b949350505050565b6000818484111561258b5760405162461bcd60e51b8152600401611b5d9190615531565b505050900390565b6000611a2e83836040518060400160405280601a815260200179536166654d6174683a206469766973696f6e206279207a65726f60301b81525061295a565b601b546001600160a01b031615806126355750601b546001600160a01b03166000908152600460205260409020601c5460019091018054909190811061261457fe5b9060005260206000209060110201600d0160010154816101a0015160200151115b1561201757612642615337565b60005b600c811015612014576000600582600c811061265d57fe5b60020201546001600160a01b031614156126b1578351600582600c811061268057fe5b6002020180546001600160a01b0319166001600160a01b03929092169190911790558251600582600c8110611e4c57fe5b60046000600583600c81106126c257fe5b60020201546001600160a01b031681526020810191909152604001600020600101600582600c81106126f057fe5b60020201600101548154811061270257fe5b9060005260206000209060110201600d0160010154836101a0015160200151111561285a57600581600c811061273457fe5b604080518082019091526002919091029190910180546001600160a01b031682526001015460208201528451909250600582600c811061277057fe5b6002020180546001600160a01b0319166001600160a01b03929092169190911790558251600582600c81106127a157fe5b60020201600101819055506127b4615337565b815b600c8310156120055783516001600160a01b03166127d357612005565b600581600c81106127e057fe5b604080518082019091526002919091029190910180546001600160a01b03168252600101546020820152915083600582600c811061281a57fe5b82516002919091029190910180546001600160a01b0319166001600160a01b039092169190911781556020909101516001918201559193508391016127b6565b600101612645565b6000611a2e62015180611a7484866119ec565b600061016d82111561288657600080fd5b61288e612991565b828151811061289957fe5b60200260200101519050919050565b6002546040516370a0823160e01b8152600091829161293b9160fa91611a74916001916001600160a01b03909116906370a08231906128eb90309060040161548a565b60206040518083038186803b15801561290357600080fd5b505afa158015612917573d6000803e3d6000fd5b505050506040513d601f19601f8201168201806040525081019061252d91906153fc565b905061012c81111561294c575061012c5b611a2e836080015182611a83565b6000818361297b5760405162461bcd60e51b8152600401611b5d9190615531565b50600083858161298757fe5b0495945050505050565b6060806129a161016d6001611b38565b6001600160401b03811180156129b657600080fd5b506040519080825280602002602001820160405280156129e0578160200160208202803683370190505b5090506000816000815181106129f257fe5b602002602001018181525050600181600181518110612a0d57fe5b602002602001018181525050600281600281518110612a2857fe5b602002602001018181525050600381600381518110612a4357fe5b602002602001018181525050600481600481518110612a5e57fe5b602002602001018181525050600681600581518110612a7957fe5b602002602001018181525050600881600681518110612a9457fe5b602002602001018181525050600a81600781518110612aaf57fe5b602002602001018181525050600d81600881518110612aca57fe5b602002602001018181525050601081600981518110612ae557fe5b602002602001018181525050601481600a81518110612b0057fe5b602002602001018181525050601881600b81518110612b1b57fe5b602002602001018181525050601c81600c81518110612b3657fe5b602002602001018181525050602181600d81518110612b5157fe5b602002602001018181525050602681600e81518110612b6c57fe5b602002602001018181525050602b81600f81518110612b8757fe5b602002602001018181525050603181601081518110612ba257fe5b602002602001018181525050603781601181518110612bbd57fe5b602002602001018181525050603d81601281518110612bd857fe5b602002602001018181525050604481601381518110612bf357fe5b602002602001018181525050604b81601481518110612c0e57fe5b602002602001018181525050605381601581518110612c2957fe5b602002602001018181525050605b81601681518110612c4457fe5b602002602001018181525050606381601781518110612c5f57fe5b602002602001018181525050606c81601881518110612c7a57fe5b602002602001018181525050607581601981518110612c9557fe5b602002602001018181525050607f81601a81518110612cb057fe5b602002602001018181525050608981601b81518110612ccb57fe5b602002602001018181525050609381601c81518110612ce657fe5b602002602001018181525050609e81601d81518110612d0157fe5b60200260200101818152505060a981601e81518110612d1c57fe5b60200260200101818152505060b481601f81518110612d3757fe5b60200260200101818152505060c081602081518110612d5257fe5b60200260200101818152505060cc81602181518110612d6d57fe5b60200260200101818152505060d981602281518110612d8857fe5b60200260200101818152505060e681602381518110612da357fe5b60200260200101818152505060f381602481518110612dbe57fe5b60200260200101818152505061010181602581518110612dda57fe5b60200260200101818152505061010f81602681518110612df657fe5b60200260200101818152505061011e81602781518110612e1257fe5b60200260200101818152505061012d81602881518110612e2e57fe5b60200260200101818152505061013c81602981518110612e4a57fe5b60200260200101818152505061014c81602a81518110612e6657fe5b60200260200101818152505061015c81602b81518110612e8257fe5b60200260200101818152505061016d81602c81518110612e9e57fe5b60200260200101818152505061017e81602d81518110612eba57fe5b60200260200101818152505061018f81602e81518110612ed657fe5b6020026020010181815250506101a181602f81518110612ef257fe5b6020026020010181815250506101b381603081518110612f0e57fe5b6020026020010181815250506101c681603181518110612f2a57fe5b6020026020010181815250506101d981603281518110612f4657fe5b6020026020010181815250506101ed81603381518110612f6257fe5b60200260200101818152505061020181603481518110612f7e57fe5b60200260200101818152505061021581603581518110612f9a57fe5b60200260200101818152505061022a81603681518110612fb657fe5b60200260200101818152505061023f81603781518110612fd257fe5b60200260200101818152505061025581603881518110612fee57fe5b60200260200101818152505061026b8160398151811061300a57fe5b60200260200101818152505061028181603a8151811061302657fe5b60200260200101818152505061029881603b8151811061304257fe5b6020026020010181815250506102af81603c8151811061305e57fe5b6020026020010181815250506102c781603d8151811061307a57fe5b6020026020010181815250506102df81603e8151811061309657fe5b6020026020010181815250506102f881603f815181106130b257fe5b602002602001018181525050610311816040815181106130ce57fe5b60200260200101818152505061032a816041815181106130ea57fe5b6020026020010181815250506103448160428151811061310657fe5b60200260200101818152505061035e8160438151811061312257fe5b6020026020010181815250506103798160448151811061313e57fe5b6020026020010181815250506103948160458151811061315a57fe5b6020026020010181815250506103b08160468151811061317657fe5b6020026020010181815250506103cc8160478151811061319257fe5b6020026020010181815250506103e9816048815181106131ae57fe5b602002602001018181525050610406816049815181106131ca57fe5b60200260200101818152505061042481604a815181106131e657fe5b60200260200101818152505061044281604b8151811061320257fe5b60200260200101818152505061046081604c8151811061321e57fe5b60200260200101818152505061047f81604d8151811061323a57fe5b60200260200101818152505061049e81604e8151811061325657fe5b6020026020010181815250506104be81604f8151811061327257fe5b6020026020010181815250506104de8160508151811061328e57fe5b6020026020010181815250506104ff816051815181106132aa57fe5b602002602001018181525050610520816052815181106132c657fe5b602002602001018181525050610542816053815181106132e257fe5b602002602001018181525050610564816054815181106132fe57fe5b6020026020010181815250506105878160558151811061331a57fe5b6020026020010181815250506105aa8160568151811061333657fe5b6020026020010181815250506105ce8160578151811061335257fe5b6020026020010181815250506105f28160588151811061336e57fe5b6020026020010181815250506106168160598151811061338a57fe5b60200260200101818152505061063b81605a815181106133a657fe5b60200260200101818152505061066081605b815181106133c257fe5b60200260200101818152505061068681605c815181106133de57fe5b6020026020010181815250506106ac81605d815181106133fa57fe5b6020026020010181815250506106d381605e8151811061341657fe5b6020026020010181815250506106fa81605f8151811061343257fe5b6020026020010181815250506107228160608151811061344e57fe5b60200260200101818152505061074a8160618151811061346a57fe5b6020026020010181815250506107738160628151811061348657fe5b60200260200101818152505061079c816063815181106134a257fe5b6020026020010181815250506107c6816064815181106134be57fe5b6020026020010181815250506107f0816065815181106134da57fe5b60200260200101818152505061081b816066815181106134f657fe5b6020026020010181815250506108468160678151811061351257fe5b6020026020010181815250506108728160688151811061352e57fe5b60200260200101818152505061089e8160698151811061354a57fe5b6020026020010181815250506108cb81606a8151811061356657fe5b6020026020010181815250506108f881606b8151811061358257fe5b60200260200101818152505061092681606c8151811061359e57fe5b60200260200101818152505061095481606d815181106135ba57fe5b60200260200101818152505061098381606e815181106135d657fe5b6020026020010181815250506109b281606f815181106135f257fe5b6020026020010181815250506109e28160708151811061360e57fe5b602002602001018181525050610a128160718151811061362a57fe5b602002602001018181525050610a438160728151811061364657fe5b602002602001018181525050610a748160738151811061366257fe5b602002602001018181525050610aa68160748151811061367e57fe5b602002602001018181525050610ad88160758151811061369a57fe5b602002602001018181525050610b0b816076815181106136b657fe5b602002602001018181525050610b3f816077815181106136d257fe5b602002602001018181525050610b73816078815181106136ee57fe5b602002602001018181525050610ba88160798151811061370a57fe5b602002602001018181525050610bdd81607a8151811061372657fe5b602002602001018181525050610c1381607b8151811061374257fe5b602002602001018181525050610c4981607c8151811061375e57fe5b602002602001018181525050610c8081607d8151811061377a57fe5b602002602001018181525050610cb781607e8151811061379657fe5b602002602001018181525050610cef81607f815181106137b257fe5b602002602001018181525050610d27816080815181106137ce57fe5b602002602001018181525050610d60816081815181106137ea57fe5b602002602001018181525050610d998160828151811061380657fe5b602002602001018181525050610dd38160838151811061382257fe5b602002602001018181525050610e0e8160848151811061383e57fe5b602002602001018181525050610e498160858151811061385a57fe5b602002602001018181525050610e858160868151811061387657fe5b602002602001018181525050610ec18160878151811061389257fe5b602002602001018181525050610efe816088815181106138ae57fe5b602002602001018181525050610f3b816089815181106138ca57fe5b602002602001018181525050610f7981608a815181106138e657fe5b602002602001018181525050610fb881608b8151811061390257fe5b602002602001018181525050610ff781608c8151811061391e57fe5b60200260200101818152505061103781608d8151811061393a57fe5b60200260200101818152505061107781608e8151811061395657fe5b6020026020010181815250506110b881608f8151811061397257fe5b6020026020010181815250506110f98160908151811061398e57fe5b60200260200101818152505061113b816091815181106139aa57fe5b60200260200101818152505061117e816092815181106139c657fe5b6020026020010181815250506111c1816093815181106139e257fe5b602002602001018181525050611205816094815181106139fe57fe5b60200260200101818152505061124981609581518110613a1a57fe5b60200260200101818152505061128e81609681518110613a3657fe5b6020026020010181815250506112d381609781518110613a5257fe5b60200260200101818152505061131981609881518110613a6e57fe5b60200260200101818152505061136081609981518110613a8a57fe5b6020026020010181815250506113a781609a81518110613aa657fe5b6020026020010181815250506113ef81609b81518110613ac257fe5b60200260200101818152505061143781609c81518110613ade57fe5b60200260200101818152505061148081609d81518110613afa57fe5b6020026020010181815250506114ca81609e81518110613b1657fe5b60200260200101818152505061151481609f81518110613b3257fe5b60200260200101818152505061155f8160a081518110613b4e57fe5b6020026020010181815250506115ab8160a181518110613b6a57fe5b6020026020010181815250506115f78160a281518110613b8657fe5b6020026020010181815250506116448160a381518110613ba257fe5b6020026020010181815250506116918160a481518110613bbe57fe5b6020026020010181815250506116df8160a581518110613bda57fe5b60200260200101818152505061172e8160a681518110613bf657fe5b60200260200101818152505061177d8160a781518110613c1257fe5b6020026020010181815250506117cd8160a881518110613c2e57fe5b60200260200101818152505061181d8160a981518110613c4a57fe5b60200260200101818152505061186e8160aa81518110613c6657fe5b6020026020010181815250506118c08160ab81518110613c8257fe5b6020026020010181815250506119128160ac81518110613c9e57fe5b6020026020010181815250506119658160ad81518110613cba57fe5b6020026020010181815250506119b98160ae81518110613cd657fe5b602002602001018181525050611a0d8160af81518110613cf257fe5b602002602001018181525050611a628160b081518110613d0e57fe5b602002602001018181525050611ab88160b181518110613d2a57fe5b602002602001018181525050611b0e8160b281518110613d4657fe5b602002602001018181525050611b658160b381518110613d6257fe5b602002602001018181525050611bbd8160b481518110613d7e57fe5b602002602001018181525050611c158160b581518110613d9a57fe5b602002602001018181525050611c6e8160b681518110613db657fe5b602002602001018181525050611cc88160b781518110613dd257fe5b602002602001018181525050611d228160b881518110613dee57fe5b602002602001018181525050611d7d8160b981518110613e0a57fe5b602002602001018181525050611dd98160ba81518110613e2657fe5b602002602001018181525050611e358160bb81518110613e4257fe5b602002602001018181525050611e928160bc81518110613e5e57fe5b602002602001018181525050611ef08160bd81518110613e7a57fe5b602002602001018181525050611f4e8160be81518110613e9657fe5b602002602001018181525050611fad8160bf81518110613eb257fe5b60200260200101818152505061200d8160c081518110613ece57fe5b60200260200101818152505061206d8160c181518110613eea57fe5b6020026020010181815250506120ce8160c281518110613f0657fe5b6020026020010181815250506121308160c381518110613f2257fe5b6020026020010181815250506121928160c481518110613f3e57fe5b6020026020010181815250506121f58160c581518110613f5a57fe5b6020026020010181815250506122598160c681518110613f7657fe5b6020026020010181815250506122bd8160c781518110613f9257fe5b6020026020010181815250506123228160c881518110613fae57fe5b6020026020010181815250506123888160c981518110613fca57fe5b6020026020010181815250506123ef8160ca81518110613fe657fe5b6020026020010181815250506124568160cb8151811061400257fe5b6020026020010181815250506124be8160cc8151811061401e57fe5b6020026020010181815250506125278160cd8151811061403a57fe5b6020026020010181815250506125908160ce8151811061405657fe5b6020026020010181815250506125fa8160cf8151811061407257fe5b6020026020010181815250506126658160d08151811061408e57fe5b6020026020010181815250506126d18160d1815181106140aa57fe5b60200260200101818152505061273d8160d2815181106140c657fe5b6020026020010181815250506127aa8160d3815181106140e257fe5b6020026020010181815250506128188160d4815181106140fe57fe5b6020026020010181815250506128868160d58151811061411a57fe5b6020026020010181815250506128f58160d68151811061413657fe5b6020026020010181815250506129658160d78151811061415257fe5b6020026020010181815250506129d68160d88151811061416e57fe5b602002602001018181525050612a478160d98151811061418a57fe5b602002602001018181525050612ab98160da815181106141a657fe5b602002602001018181525050612b2c8160db815181106141c257fe5b602002602001018181525050612ba08160dc815181106141de57fe5b602002602001018181525050612c148160dd815181106141fa57fe5b602002602001018181525050612c898160de8151811061421657fe5b602002602001018181525050612cff8160df8151811061423257fe5b602002602001018181525050612d768160e08151811061424e57fe5b602002602001018181525050612ded8160e18151811061426a57fe5b602002602001018181525050612e658160e28151811061428657fe5b602002602001018181525050612ede8160e3815181106142a257fe5b602002602001018181525050612f588160e4815181106142be57fe5b602002602001018181525050612fd38160e5815181106142da57fe5b60200260200101818152505061304e8160e6815181106142f657fe5b6020026020010181815250506130ca8160e78151811061431257fe5b6020026020010181815250506131478160e88151811061432e57fe5b6020026020010181815250506131c58160e98151811061434a57fe5b6020026020010181815250506132438160ea8151811061436657fe5b6020026020010181815250506132c28160eb8151811061438257fe5b6020026020010181815250506133428160ec8151811061439e57fe5b6020026020010181815250506133c38160ed815181106143ba57fe5b6020026020010181815250506134458160ee815181106143d657fe5b6020026020010181815250506134c78160ef815181106143f257fe5b60200260200101818152505061354a8160f08151811061440e57fe5b6020026020010181815250506135ce8160f18151811061442a57fe5b6020026020010181815250506136538160f28151811061444657fe5b6020026020010181815250506136d98160f38151811061446257fe5b6020026020010181815250506137608160f48151811061447e57fe5b6020026020010181815250506137e78160f58151811061449a57fe5b60200260200101818152505061386f8160f6815181106144b657fe5b6020026020010181815250506138f88160f7815181106144d257fe5b6020026020010181815250506139828160f8815181106144ee57fe5b602002602001018181525050613a0d8160f98151811061450a57fe5b602002602001018181525050613a998160fa8151811061452657fe5b602002602001018181525050613b258160fb8151811061454257fe5b602002602001018181525050613bb28160fc8151811061455e57fe5b602002602001018181525050613c408160fd8151811061457a57fe5b602002602001018181525050613ccf8160fe8151811061459657fe5b602002602001018181525050613d5f8160ff815181106145b257fe5b602002602001018181525050613df081610100815181106145cf57fe5b602002602001018181525050613e8181610101815181106145ec57fe5b602002602001018181525050613f13816101028151811061460957fe5b602002602001018181525050613fa6816101038151811061462657fe5b60200260200101818152505061403a816101048151811061464357fe5b6020026020010181815250506140cf816101058151811061466057fe5b602002602001018181525050614165816101068151811061467d57fe5b6020026020010181815250506141fc816101078151811061469a57fe5b60200260200101818152505061429481610108815181106146b757fe5b60200260200101818152505061432c81610109815181106146d457fe5b6020026020010181815250506143c58161010a815181106146f157fe5b60200260200101818152505061445f8161010b8151811061470e57fe5b6020026020010181815250506144fa8161010c8151811061472b57fe5b6020026020010181815250506145968161010d8151811061474857fe5b6020026020010181815250506146338161010e8151811061476557fe5b6020026020010181815250506146d18161010f8151811061478257fe5b602002602001018181525050614770816101108151811061479f57fe5b60200260200101818152505061481081610111815181106147bc57fe5b6020026020010181815250506148b081610112815181106147d957fe5b60200260200101818152505061495181610113815181106147f657fe5b6020026020010181815250506149f3816101148151811061481357fe5b602002602001018181525050614a96816101158151811061483057fe5b602002602001018181525050614b3a816101168151811061484d57fe5b602002602001018181525050614bdf816101178151811061486a57fe5b602002602001018181525050614c85816101188151811061488757fe5b602002602001018181525050614d2c81610119815181106148a457fe5b602002602001018181525050614dd48161011a815181106148c157fe5b602002602001018181525050614e7d8161011b815181106148de57fe5b602002602001018181525050614f278161011c815181106148fb57fe5b602002602001018181525050614fd28161011d8151811061491857fe5b60200260200101818152505061507e8161011e8151811061493557fe5b60200260200101818152505061512b8161011f8151811061495257fe5b6020026020010181815250506151d9816101208151811061496f57fe5b602002602001018181525050615287816101218151811061498c57fe5b60200260200101818152505061533681610122815181106149a957fe5b6020026020010181815250506153e681610123815181106149c657fe5b60200260200101818152505061549781610124815181106149e357fe5b6020026020010181815250506155498161012581518110614a0057fe5b6020026020010181815250506155fc8161012681518110614a1d57fe5b6020026020010181815250506156b08161012781518110614a3a57fe5b6020026020010181815250506157658161012881518110614a5757fe5b60200260200101818152505061581b8161012981518110614a7457fe5b6020026020010181815250506158d28161012a81518110614a9157fe5b60200260200101818152505061598a8161012b81518110614aae57fe5b602002602001018181525050615a438161012c81518110614acb57fe5b602002602001018181525050615afd8161012d81518110614ae857fe5b602002602001018181525050615bb88161012e81518110614b0557fe5b602002602001018181525050615c748161012f81518110614b2257fe5b602002602001018181525050615d318161013081518110614b3f57fe5b602002602001018181525050615def8161013181518110614b5c57fe5b602002602001018181525050615eae8161013281518110614b7957fe5b602002602001018181525050615f6e8161013381518110614b9657fe5b60200260200101818152505061602f8161013481518110614bb357fe5b6020026020010181815250506160f18161013581518110614bd057fe5b6020026020010181815250506161b48161013681518110614bed57fe5b6020026020010181815250506162788161013781518110614c0a57fe5b60200260200101818152505061633d8161013881518110614c2757fe5b6020026020010181815250506164038161013981518110614c4457fe5b6020026020010181815250506164cb8161013a81518110614c6157fe5b6020026020010181815250506165948161013b81518110614c7e57fe5b60200260200101818152505061665e8161013c81518110614c9b57fe5b6020026020010181815250506167298161013d81518110614cb857fe5b6020026020010181815250506167f58161013e81518110614cd557fe5b6020026020010181815250506168c28161013f81518110614cf257fe5b6020026020010181815250506169908161014081518110614d0f57fe5b602002602001018181525050616a5f8161014181518110614d2c57fe5b602002602001018181525050616b2f8161014281518110614d4957fe5b602002602001018181525050616c008161014381518110614d6657fe5b602002602001018181525050616cd28161014481518110614d8357fe5b602002602001018181525050616da58161014581518110614da057fe5b602002602001018181525050616e798161014681518110614dbd57fe5b602002602001018181525050616f4e8161014781518110614dda57fe5b6020026020010181815250506170258161014881518110614df757fe5b6020026020010181815250506170fd8161014981518110614e1457fe5b6020026020010181815250506171d68161014a81518110614e3157fe5b6020026020010181815250506172b08161014b81518110614e4e57fe5b60200260200101818152505061738b8161014c81518110614e6b57fe5b6020026020010181815250506174678161014d81518110614e8857fe5b6020026020010181815250506175448161014e81518110614ea557fe5b6020026020010181815250506176228161014f81518110614ec257fe5b6020026020010181815250506177018161015081518110614edf57fe5b6020026020010181815250506177e28161015181518110614efc57fe5b6020026020010181815250506178c48161015281518110614f1957fe5b6020026020010181815250506179a78161015381518110614f3657fe5b602002602001018181525050617a8b8161015481518110614f5357fe5b602002602001018181525050617b708161015581518110614f7057fe5b602002602001018181525050617c568161015681518110614f8d57fe5b602002602001018181525050617d3d8161015781518110614faa57fe5b602002602001018181525050617e268161015881518110614fc757fe5b602002602001018181525050617f108161015981518110614fe457fe5b602002602001018181525050617ffb8161015a8151811061500157fe5b6020026020010181815250506180e78161015b8151811061501e57fe5b6020026020010181815250506181d48161015c8151811061503b57fe5b6020026020010181815250506182c38161015d8151811061505857fe5b6020026020010181815250506183b38161015e8151811061507557fe5b6020026020010181815250506184a48161015f8151811061509257fe5b60200260200101818152505061859681610160815181106150af57fe5b60200260200101818152505061868981610161815181106150cc57fe5b60200260200101818152505061877d81610162815181106150e957fe5b602002602001018181525050618873816101638151811061510657fe5b60200260200101818152505061896a816101648151811061512357fe5b602002602001018181525050618a62816101658151811061514057fe5b602002602001018181525050618b5b816101668151811061515d57fe5b602002602001018181525050618c56816101678151811061517a57fe5b602002602001018181525050618d52816101688151811061519757fe5b602002602001018181525050618e4f81610169815181106151b457fe5b602002602001018181525050618f4d8161016a815181106151d157fe5b60200260200101818152505061904c8161016b815181106151ee57fe5b60200260200101818152505061914d8161016c8151811061520b57fe5b60200260200101818152505061924f8161016d8151811061522857fe5b6020908102919091010152905090565b60408051808201909152600081526060602082015290565b604051806101400160405280600a905b615268615337565b8152602001906001900390816152605790505090565b604051806101800160405280600c905b615296615337565b81526020019060019003908161528e5790505090565b604051806101e0016040528060008152602001600015158152602001600015158152602001600081526020016000815260200160008152602001600081526020016000815260200160008152602001600081526020016000815260200160008152602001615318615337565b815260200161532561534e565b815260200161533261534e565b905290565b604080518082019091526000808252602082015290565b604051806040016040528060008152602001600081525090565b80356001600160a01b03811681146105e257600080fd5b600060208284031215615390578081fd5b611a2e8383615368565b600080604083850312156153ac578081fd5b6153b68484615368565b946020939093013593505050565b6000602082840312156153d5578081fd5b81518015158114611a2e578182fd5b6000602082840312156153f5578081fd5b5035919050565b60006020828403121561540d578081fd5b5051919050565b600080600060608486031215615428578081fd5b833592506154398560208601615368565b9150604084013590509250925092565b60006154558383615463565b505060400190565b15159052565b80516001600160a01b03168252602090810151910152565b80518252602090810151910152565b6001600160a01b0391909116815260200190565b6001600160a01b039384168152919092166020820152604081019190915260600190565b6001600160a01b039485168152602081019390935292166040820152606081019190915260800190565b6001600160a01b03929092168252602082015260400190565b6001600160a01b039390931683526020830191909152604082015260600190565b901515815260200190565b6000602080835283518082850152825b8181101561555d57858101830151858201604001528201615541565b8181111561556e5783604083870101525b50601f01601f1916929092016040019392505050565b6020808252601b908201527a536166654d6174683a206164646974696f6e206f766572666c6f7760281b604082015260600190565b60208082526021908201527f536166654d6174683a206d756c7469706c69636174696f6e206f766572666c6f6040820152607760f81b606082015260800190565b602080825282516001600160a01b031682820152828101516040808401819052815160608086018290526000949390926080929185019183880190875b8181101561571557845180518452888101516156558a86018261545d565b50848101516156668686018261545d565b508088015184890152868101518785015260a0808201519085015260c0808201519085015260e080820151908501526101008082015190850152610120808201519085015261014080820151908501526101608082015190850152610180808201516156d482870182615463565b50506101a08101516101c06156eb8187018361547b565b9190910151905061570061020085018261547b565b50938701936102409290920191600101615637565b50909998505050505050505050565b90815260200190565b93845291151560208401526040830152606082015260800190565b918252602082015260400190565b6000610600820190508782526020878184015260408781850152866060850152608084018660005b600a8110156157a257615792838351615463565b918301919084019060010161577e565b5050505061030083018460005b600c8110156157d1576157c3838351615449565b9250908301906001016157af565b5050505097965050505050505056fea2646970667358221220197dfe52e4a916f9fc9e7fb8ed832bfac48149321b6488da1f1c7a8b39bc99f064736f6c634300060c0033",
  "compiler": {
    "name": "solc",
    "version": "0.6.12+commit.27d51765.Emscripten.clang",
    "optimizer": {
      "enabled": true,
      "runs": 1
    },
    "evmVersion": "petersburg"
  }
}