{
  "fileName": "FourRXFinance.sol",
  "contractName": "FourRXFinance",
  "source": "// SPDX-License-Identifier: MIT\npragma solidity ^0.6.12;\npragma experimental ABIEncoderV2;\n\nimport \"@openzeppelin/contracts/token/ERC20/IERC20.sol\";\nimport \"./Insurance.sol\";\n\ncontract FourRXFinance is Insurance {\n\n    constructor(address fourRXTokenAddress) public {\n        fourRXToken = IERC20(fourRXTokenAddress);\n\n        refPoolBonuses.push(2000);\n        refPoolBonuses.push(1700);\n        refPoolBonuses.push(1400);\n        refPoolBonuses.push(1100);\n        refPoolBonuses.push(1000);\n        refPoolBonuses.push(700);\n        refPoolBonuses.push(600);\n        refPoolBonuses.push(500);\n        refPoolBonuses.push(400);\n        refPoolBonuses.push(300);\n        refPoolBonuses.push(200);\n        refPoolBonuses.push(100);\n\n        sponsorPoolBonuses.push(3000);\n        sponsorPoolBonuses.push(2000);\n        sponsorPoolBonuses.push(1200);\n        sponsorPoolBonuses.push(1000);\n        sponsorPoolBonuses.push(800);\n        sponsorPoolBonuses.push(700);\n        sponsorPoolBonuses.push(600);\n        sponsorPoolBonuses.push(400);\n        sponsorPoolBonuses.push(200);\n        sponsorPoolBonuses.push(100);\n\n        _resetPools();\n    }\n\n    function deposit(uint amount, address uplinkAddress, uint uplinkId) external {\n        require(\n            (users[uplinkAddress].registered && users[uplinkAddress].investments[uplinkId].active) ||\n            uplinkAddress == address(0)\n        ); // Either uplink must be registered and be a active deposit, 0 address\n\n        User storage user = users[msg.sender];\n\n        if (users[msg.sender].investments.length > 0) {\n            require(amount > users[msg.sender].investments[user.investments.length - 1].deposit.mul(2)); // deposit amount must be greater 2x then last deposit\n        }\n\n        require(fourRXToken.transferFrom(msg.sender, address(this), amount));\n\n        uint depositReward = _calcDepositRewards(amount);\n\n        Investment memory investment;\n\n        user.wallet = msg.sender;\n        user.registered = true;\n\n        investment.id = user.investments.length;\n        investment.active = true;\n        investment.interestCountFrom = block.timestamp;\n        investment.holdFrom = block.timestamp;\n\n        investment.deposit = amount.sub(_calcPercentage(amount, lpCommission)).add(depositReward); // Deduct LP Commission + add deposit rewards\n        investment.uplink.uplinkAddress = uplinkAddress;\n        investment.uplink.uplinkInvestmentId = uplinkId;\n\n        investment.sponsorPool.cycle = poolCycle;\n        investment.sponsorPool.amount = amount;\n\n        _updateSponsorPoolUsers(user, investment);\n\n        _distributeReferralReward(amount, investment);\n\n        user.investments.push(investment);\n\n        refPoolBalance = refPoolBalance.add(_calcPercentage(amount, depositRefPoolCommission));\n        sponsorPoolBalance = sponsorPoolBalance.add(_calcPercentage(amount, depositSponsorPoolCommission));\n\n        drawPool();\n\n        fourRXToken.transfer(devAddress, _calcPercentage(amount, devCommission));\n\n        uint currentContractBalance = fourRXToken.balanceOf(address(this));\n\n        if (currentContractBalance > maxContractBalance) {\n            maxContractBalance = currentContractBalance;\n        }\n\n        totalDeposits = totalDeposits.add(amount);\n        totalInvestments = totalInvestments.add(1);\n        totalActiveInvestments = totalActiveInvestments.add(1);\n        totalDepositRewards = totalDepositRewards.add(depositReward);\n\n        emit Deposit(msg.sender, uplinkAddress, amount);\n    }\n\n\n    function balanceOf(address _userAddress, uint investmentId) external view returns (uint) {\n        require(users[_userAddress].wallet == _userAddress);\n        User memory user = users[_userAddress];\n\n        return _calcRewards(user.investments[investmentId]).sub(user.investments[investmentId].withdrawn);\n    }\n\n    function withdraw(uint investmentId) external {\n        User storage user = users[msg.sender];\n        Investment storage investment = user.investments[investmentId];\n        require(user.wallet == msg.sender && investment.active); // investment should be active\n\n        require(investment.lastWithdrawalAt + 1 days < block.timestamp); // we only allow one withdrawal each day\n\n        uint availableAmount = _calcRewards(investment).sub(investment.withdrawn).sub(investment.penalty);\n\n        require(availableAmount > 0);\n\n        uint penalty = _calcPenalty(investment, availableAmount);\n\n        if (penalty == 0) {\n            availableAmount = availableAmount.sub(_calcPercentage(investment.deposit, holdBonusUnlocksAt)); // Only allow withdrawal if available is more then 10% of base\n\n            uint maxAllowedWithdrawal = _calcPercentage(investment.deposit, maxWithdrawalOverTenPercent);\n\n            if (availableAmount > maxAllowedWithdrawal) {\n                availableAmount = maxAllowedWithdrawal;\n            }\n        }\n\n        if (isInInsuranceState) {\n            availableAmount = getInsuredAvailableAmount(investment, availableAmount);\n        }\n\n        availableAmount = availableAmount.sub(penalty);\n\n        fourRXToken.transfer(user.wallet, availableAmount);\n\n        investment.withdrawn = investment.withdrawn.add(availableAmount);\n        investment.lastWithdrawalAt = block.timestamp;\n        investment.holdFrom = block.timestamp;\n\n        investment.penalty = investment.penalty.add(penalty);\n\n        totalPenalty = totalPenalty.add(penalty);\n\n        if (investment.withdrawn >= _calcPercentage(investment.deposit, maxContractRewards)) {\n            investment.active = false; // if investment has withdrawn equals to or more then the max amount, then mark investment in-active\n            totalActiveInvestments = totalActiveInvestments.sub(1);\n        }\n\n        checkForBaseInsuranceTrigger();\n\n        totalWithdrawn = totalWithdrawn.add(availableAmount);\n\n        emit Withdraw(user.wallet, availableAmount);\n    }\n\n    function exitProgram(uint investmentId) external {\n        User storage user = users[msg.sender];\n        require(user.wallet == msg.sender);\n        Investment storage investment = user.investments[investmentId];\n        uint availableAmount = investment.deposit;\n        uint penaltyAmount = _calcPercentage(investment.deposit, exitPenalty);\n\n        availableAmount = availableAmount.sub(penaltyAmount);\n\n        uint withdrawn = investment.withdrawn.add(investment.penalty);\n        require(withdrawn <= availableAmount);\n        availableAmount = availableAmount.sub(withdrawn); // @todo: discuss this new implementation with Assaf\n\n        fourRXToken.transfer(user.wallet, availableAmount);\n\n        investment.active = false;\n        investment.withdrawn = investment.withdrawn.add(availableAmount);\n        investment.penalty = investment.penalty.add(penaltyAmount);\n\n        totalActiveInvestments = totalActiveInvestments.sub(1);\n        totalExited = totalExited.add(1);\n\n        totalWithdrawn = totalWithdrawn.add(availableAmount);\n        totalPenalty = totalPenalty.add(penaltyAmount);\n\n        emit Exited(user.wallet);\n    }\n\n    function insureInvestment(uint investmentId) external {\n        User storage user = users[msg.sender];\n        require(user.wallet == msg.sender);\n        Investment storage investment = user.investments[investmentId];\n        _insureInvestment(investment);\n    }\n\n    function getUser(address userAddress) external view returns (User memory) {\n        return users[userAddress];\n    }\n\n    function getPoolInfo() external view returns (uint, uint, uint, uint, PoolUser[10] memory, PoolUser[12] memory) {\n        return (poolDrewAt, poolCycle, sponsorPoolBalance, refPoolBalance, sponsorPoolUsers, refPoolUsers);\n    }\n\n    function getContractInfo() external view returns (uint, uint, uint, uint, uint, uint, uint, uint, uint, uint, uint) {\n        return (maxContractBalance, totalDeposits, totalWithdrawn, totalInvestments, totalActiveInvestments, totalRefRewards, totalRefPoolRewards, totalSponsorPoolRewards, totalDepositRewards, totalPenalty, totalExited);\n    }\n}\n",
  "sourcePath": "contracts/FourRXFinance.sol",
  "abi": [
    {
      "inputs": [
        {
          "internalType": "address",
          "name": "fourRXTokenAddress",
          "type": "address"
        }
      ],
      "stateMutability": "nonpayable",
      "type": "constructor"
    },
    {
      "anonymous": false,
      "inputs": [
        {
          "indexed": false,
          "internalType": "address",
          "name": "user",
          "type": "address"
        },
        {
          "indexed": false,
          "internalType": "address",
          "name": "uplink",
          "type": "address"
        },
        {
          "indexed": false,
          "internalType": "uint256",
          "name": "amount",
          "type": "uint256"
        }
      ],
      "name": "Deposit",
      "type": "event"
    },
    {
      "anonymous": false,
      "inputs": [
        {
          "indexed": false,
          "internalType": "address",
          "name": "user",
          "type": "address"
        }
      ],
      "name": "Exited",
      "type": "event"
    },
    {
      "anonymous": false,
      "inputs": [
        {
          "indexed": false,
          "internalType": "address",
          "name": "user",
          "type": "address"
        },
        {
          "indexed": false,
          "internalType": "uint256",
          "name": "amount",
          "type": "uint256"
        }
      ],
      "name": "ReInvest",
      "type": "event"
    },
    {
      "anonymous": false,
      "inputs": [
        {
          "indexed": false,
          "internalType": "address",
          "name": "user",
          "type": "address"
        },
        {
          "indexed": false,
          "internalType": "uint256",
          "name": "amount",
          "type": "uint256"
        }
      ],
      "name": "Withdraw",
      "type": "event"
    },
    {
      "inputs": [
        {
          "internalType": "address",
          "name": "_userAddress",
          "type": "address"
        },
        {
          "internalType": "uint256",
          "name": "investmentId",
          "type": "uint256"
        }
      ],
      "name": "balanceOf",
      "outputs": [
        {
          "internalType": "uint256",
          "name": "",
          "type": "uint256"
        }
      ],
      "stateMutability": "view",
      "type": "function"
    },
    {
      "inputs": [],
      "name": "contractBonusUnit",
      "outputs": [
        {
          "internalType": "uint256",
          "name": "",
          "type": "uint256"
        }
      ],
      "stateMutability": "view",
      "type": "function"
    },
    {
      "inputs": [],
      "name": "contractBonusUnitBonus",
      "outputs": [
        {
          "internalType": "uint256",
          "name": "",
          "type": "uint256"
        }
      ],
      "stateMutability": "view",
      "type": "function"
    },
    {
      "inputs": [
        {
          "internalType": "uint256",
          "name": "amount",
          "type": "uint256"
        },
        {
          "internalType": "address",
          "name": "uplinkAddress",
          "type": "address"
        },
        {
          "internalType": "uint256",
          "name": "uplinkId",
          "type": "uint256"
        }
      ],
      "name": "deposit",
      "outputs": [],
      "stateMutability": "nonpayable",
      "type": "function"
    },
    {
      "inputs": [
        {
          "internalType": "uint256",
          "name": "",
          "type": "uint256"
        }
      ],
      "name": "depositBonuses",
      "outputs": [
        {
          "internalType": "uint256",
          "name": "",
          "type": "uint256"
        }
      ],
      "stateMutability": "view",
      "type": "function"
    },
    {
      "inputs": [],
      "name": "depositRefPoolCommission",
      "outputs": [
        {
          "internalType": "uint256",
          "name": "",
          "type": "uint256"
        }
      ],
      "stateMutability": "view",
      "type": "function"
    },
    {
      "inputs": [],
      "name": "depositSponsorPoolCommission",
      "outputs": [
        {
          "internalType": "uint256",
          "name": "",
          "type": "uint256"
        }
      ],
      "stateMutability": "view",
      "type": "function"
    },
    {
      "inputs": [],
      "name": "devAddress",
      "outputs": [
        {
          "internalType": "address",
          "name": "",
          "type": "address"
        }
      ],
      "stateMutability": "view",
      "type": "function"
    },
    {
      "inputs": [],
      "name": "devCommission",
      "outputs": [
        {
          "internalType": "uint256",
          "name": "",
          "type": "uint256"
        }
      ],
      "stateMutability": "view",
      "type": "function"
    },
    {
      "inputs": [],
      "name": "exitPenalty",
      "outputs": [
        {
          "internalType": "uint256",
          "name": "",
          "type": "uint256"
        }
      ],
      "stateMutability": "view",
      "type": "function"
    },
    {
      "inputs": [
        {
          "internalType": "uint256",
          "name": "investmentId",
          "type": "uint256"
        }
      ],
      "name": "exitProgram",
      "outputs": [],
      "stateMutability": "nonpayable",
      "type": "function"
    },
    {
      "inputs": [],
      "name": "fourRXToken",
      "outputs": [
        {
          "internalType": "contract IERC20",
          "name": "",
          "type": "address"
        }
      ],
      "stateMutability": "view",
      "type": "function"
    },
    {
      "inputs": [],
      "name": "getContractInfo",
      "outputs": [
        {
          "internalType": "uint256",
          "name": "",
          "type": "uint256"
        },
        {
          "internalType": "uint256",
          "name": "",
          "type": "uint256"
        },
        {
          "internalType": "uint256",
          "name": "",
          "type": "uint256"
        },
        {
          "internalType": "uint256",
          "name": "",
          "type": "uint256"
        },
        {
          "internalType": "uint256",
          "name": "",
          "type": "uint256"
        },
        {
          "internalType": "uint256",
          "name": "",
          "type": "uint256"
        },
        {
          "internalType": "uint256",
          "name": "",
          "type": "uint256"
        },
        {
          "internalType": "uint256",
          "name": "",
          "type": "uint256"
        },
        {
          "internalType": "uint256",
          "name": "",
          "type": "uint256"
        },
        {
          "internalType": "uint256",
          "name": "",
          "type": "uint256"
        },
        {
          "internalType": "uint256",
          "name": "",
          "type": "uint256"
        }
      ],
      "stateMutability": "view",
      "type": "function"
    },
    {
      "inputs": [],
      "name": "getPoolInfo",
      "outputs": [
        {
          "internalType": "uint256",
          "name": "",
          "type": "uint256"
        },
        {
          "internalType": "uint256",
          "name": "",
          "type": "uint256"
        },
        {
          "internalType": "uint256",
          "name": "",
          "type": "uint256"
        },
        {
          "internalType": "uint256",
          "name": "",
          "type": "uint256"
        },
        {
          "components": [
            {
              "internalType": "address",
              "name": "user",
              "type": "address"
            },
            {
              "internalType": "uint256",
              "name": "investmentId",
              "type": "uint256"
            }
          ],
          "internalType": "struct SharedVariables.PoolUser[10]",
          "name": "",
          "type": "tuple[10]"
        },
        {
          "components": [
            {
              "internalType": "address",
              "name": "user",
              "type": "address"
            },
            {
              "internalType": "uint256",
              "name": "investmentId",
              "type": "uint256"
            }
          ],
          "internalType": "struct SharedVariables.PoolUser[12]",
          "name": "",
          "type": "tuple[12]"
        }
      ],
      "stateMutability": "view",
      "type": "function"
    },
    {
      "inputs": [
        {
          "internalType": "address",
          "name": "userAddress",
          "type": "address"
        }
      ],
      "name": "getUser",
      "outputs": [
        {
          "components": [
            {
              "internalType": "address",
              "name": "wallet",
              "type": "address"
            },
            {
              "internalType": "bool",
              "name": "registered",
              "type": "bool"
            },
            {
              "components": [
                {
                  "internalType": "uint256",
                  "name": "id",
                  "type": "uint256"
                },
                {
                  "internalType": "bool",
                  "name": "active",
                  "type": "bool"
                },
                {
                  "internalType": "uint256",
                  "name": "interestCountFrom",
                  "type": "uint256"
                },
                {
                  "internalType": "uint256",
                  "name": "holdFrom",
                  "type": "uint256"
                },
                {
                  "internalType": "uint256",
                  "name": "deposit",
                  "type": "uint256"
                },
                {
                  "components": [
                    {
                      "internalType": "address",
                      "name": "uplinkAddress",
                      "type": "address"
                    },
                    {
                      "internalType": "uint256",
                      "name": "uplinkInvestmentId",
                      "type": "uint256"
                    }
                  ],
                  "internalType": "struct SharedVariables.Uplink",
                  "name": "uplink",
                  "type": "tuple"
                },
                {
                  "internalType": "uint256",
                  "name": "refCommission",
                  "type": "uint256"
                },
                {
                  "internalType": "uint256",
                  "name": "refPoolRewards",
                  "type": "uint256"
                },
                {
                  "internalType": "uint256",
                  "name": "sponsorPoolRewards",
                  "type": "uint256"
                },
                {
                  "internalType": "uint256",
                  "name": "lastWithdrawalAt",
                  "type": "uint256"
                },
                {
                  "components": [
                    {
                      "internalType": "uint256",
                      "name": "cycle",
                      "type": "uint256"
                    },
                    {
                      "internalType": "uint256",
                      "name": "amount",
                      "type": "uint256"
                    }
                  ],
                  "internalType": "struct SharedVariables.RefPool",
                  "name": "refPool",
                  "type": "tuple"
                },
                {
                  "components": [
                    {
                      "internalType": "uint256",
                      "name": "cycle",
                      "type": "uint256"
                    },
                    {
                      "internalType": "uint256",
                      "name": "amount",
                      "type": "uint256"
                    }
                  ],
                  "internalType": "struct SharedVariables.SponsorPool",
                  "name": "sponsorPool",
                  "type": "tuple"
                },
                {
                  "internalType": "uint256",
                  "name": "withdrawn",
                  "type": "uint256"
                },
                {
                  "internalType": "bool",
                  "name": "optInInsured",
                  "type": "bool"
                },
                {
                  "internalType": "uint256",
                  "name": "penalty",
                  "type": "uint256"
                }
              ],
              "internalType": "struct SharedVariables.Investment[]",
              "name": "investments",
              "type": "tuple[]"
            }
          ],
          "internalType": "struct SharedVariables.User",
          "name": "",
          "type": "tuple"
        }
      ],
      "stateMutability": "view",
      "type": "function"
    },
    {
      "inputs": [],
      "name": "holdBonusUnitBonus",
      "outputs": [
        {
          "internalType": "uint256",
          "name": "",
          "type": "uint256"
        }
      ],
      "stateMutability": "view",
      "type": "function"
    },
    {
      "inputs": [],
      "name": "holdBonusUnlocksAt",
      "outputs": [
        {
          "internalType": "uint256",
          "name": "",
          "type": "uint256"
        }
      ],
      "stateMutability": "view",
      "type": "function"
    },
    {
      "inputs": [
        {
          "internalType": "uint256",
          "name": "investmentId",
          "type": "uint256"
        }
      ],
      "name": "insureInvestment",
      "outputs": [],
      "stateMutability": "nonpayable",
      "type": "function"
    },
    {
      "inputs": [],
      "name": "isInInsuranceState",
      "outputs": [
        {
          "internalType": "bool",
          "name": "",
          "type": "bool"
        }
      ],
      "stateMutability": "view",
      "type": "function"
    },
    {
      "inputs": [],
      "name": "lpCommission",
      "outputs": [
        {
          "internalType": "uint256",
          "name": "",
          "type": "uint256"
        }
      ],
      "stateMutability": "view",
      "type": "function"
    },
    {
      "inputs": [],
      "name": "maxContractBalance",
      "outputs": [
        {
          "internalType": "uint256",
          "name": "",
          "type": "uint256"
        }
      ],
      "stateMutability": "view",
      "type": "function"
    },
    {
      "inputs": [],
      "name": "maxContractBonus",
      "outputs": [
        {
          "internalType": "uint256",
          "name": "",
          "type": "uint256"
        }
      ],
      "stateMutability": "view",
      "type": "function"
    },
    {
      "inputs": [],
      "name": "maxContractRewards",
      "outputs": [
        {
          "internalType": "uint256",
          "name": "",
          "type": "uint256"
        }
      ],
      "stateMutability": "view",
      "type": "function"
    },
    {
      "inputs": [],
      "name": "maxHoldBonus",
      "outputs": [
        {
          "internalType": "uint256",
          "name": "",
          "type": "uint256"
        }
      ],
      "stateMutability": "view",
      "type": "function"
    },
    {
      "inputs": [],
      "name": "maxWithdrawalOverTenPercent",
      "outputs": [
        {
          "internalType": "uint256",
          "name": "",
          "type": "uint256"
        }
      ],
      "stateMutability": "view",
      "type": "function"
    },
    {
      "inputs": [],
      "name": "poolCycle",
      "outputs": [
        {
          "internalType": "uint256",
          "name": "",
          "type": "uint256"
        }
      ],
      "stateMutability": "view",
      "type": "function"
    },
    {
      "inputs": [],
      "name": "poolDrewAt",
      "outputs": [
        {
          "internalType": "uint256",
          "name": "",
          "type": "uint256"
        }
      ],
      "stateMutability": "view",
      "type": "function"
    },
    {
      "inputs": [],
      "name": "refCommission",
      "outputs": [
        {
          "internalType": "uint256",
          "name": "",
          "type": "uint256"
        }
      ],
      "stateMutability": "view",
      "type": "function"
    },
    {
      "inputs": [],
      "name": "refPoolBalance",
      "outputs": [
        {
          "internalType": "uint256",
          "name": "",
          "type": "uint256"
        }
      ],
      "stateMutability": "view",
      "type": "function"
    },
    {
      "inputs": [
        {
          "internalType": "uint256",
          "name": "",
          "type": "uint256"
        }
      ],
      "name": "refPoolBonuses",
      "outputs": [
        {
          "internalType": "uint256",
          "name": "",
          "type": "uint256"
        }
      ],
      "stateMutability": "view",
      "type": "function"
    },
    {
      "inputs": [
        {
          "internalType": "uint256",
          "name": "",
          "type": "uint256"
        }
      ],
      "name": "refPoolUsers",
      "outputs": [
        {
          "internalType": "address",
          "name": "user",
          "type": "address"
        },
        {
          "internalType": "uint256",
          "name": "investmentId",
          "type": "uint256"
        }
      ],
      "stateMutability": "view",
      "type": "function"
    },
    {
      "inputs": [],
      "name": "sponsorPoolBalance",
      "outputs": [
        {
          "internalType": "uint256",
          "name": "",
          "type": "uint256"
        }
      ],
      "stateMutability": "view",
      "type": "function"
    },
    {
      "inputs": [
        {
          "internalType": "uint256",
          "name": "",
          "type": "uint256"
        }
      ],
      "name": "sponsorPoolBonuses",
      "outputs": [
        {
          "internalType": "uint256",
          "name": "",
          "type": "uint256"
        }
      ],
      "stateMutability": "view",
      "type": "function"
    },
    {
      "inputs": [
        {
          "internalType": "uint256",
          "name": "",
          "type": "uint256"
        }
      ],
      "name": "sponsorPoolUsers",
      "outputs": [
        {
          "internalType": "address",
          "name": "user",
          "type": "address"
        },
        {
          "internalType": "uint256",
          "name": "investmentId",
          "type": "uint256"
        }
      ],
      "stateMutability": "view",
      "type": "function"
    },
    {
      "inputs": [],
      "name": "totalActiveInvestments",
      "outputs": [
        {
          "internalType": "uint256",
          "name": "",
          "type": "uint256"
        }
      ],
      "stateMutability": "view",
      "type": "function"
    },
    {
      "inputs": [],
      "name": "totalDepositRewards",
      "outputs": [
        {
          "internalType": "uint256",
          "name": "",
          "type": "uint256"
        }
      ],
      "stateMutability": "view",
      "type": "function"
    },
    {
      "inputs": [],
      "name": "totalDeposits",
      "outputs": [
        {
          "internalType": "uint256",
          "name": "",
          "type": "uint256"
        }
      ],
      "stateMutability": "view",
      "type": "function"
    },
    {
      "inputs": [],
      "name": "totalExited",
      "outputs": [
        {
          "internalType": "uint256",
          "name": "",
          "type": "uint256"
        }
      ],
      "stateMutability": "view",
      "type": "function"
    },
    {
      "inputs": [],
      "name": "totalInvestments",
      "outputs": [
        {
          "internalType": "uint256",
          "name": "",
          "type": "uint256"
        }
      ],
      "stateMutability": "view",
      "type": "function"
    },
    {
      "inputs": [],
      "name": "totalPenalty",
      "outputs": [
        {
          "internalType": "uint256",
          "name": "",
          "type": "uint256"
        }
      ],
      "stateMutability": "view",
      "type": "function"
    },
    {
      "inputs": [],
      "name": "totalRefPoolRewards",
      "outputs": [
        {
          "internalType": "uint256",
          "name": "",
          "type": "uint256"
        }
      ],
      "stateMutability": "view",
      "type": "function"
    },
    {
      "inputs": [],
      "name": "totalRefRewards",
      "outputs": [
        {
          "internalType": "uint256",
          "name": "",
          "type": "uint256"
        }
      ],
      "stateMutability": "view",
      "type": "function"
    },
    {
      "inputs": [],
      "name": "totalSponsorPoolRewards",
      "outputs": [
        {
          "internalType": "uint256",
          "name": "",
          "type": "uint256"
        }
      ],
      "stateMutability": "view",
      "type": "function"
    },
    {
      "inputs": [],
      "name": "totalWithdrawn",
      "outputs": [
        {
          "internalType": "uint256",
          "name": "",
          "type": "uint256"
        }
      ],
      "stateMutability": "view",
      "type": "function"
    },
    {
      "inputs": [
        {
          "internalType": "address",
          "name": "",
          "type": "address"
        }
      ],
      "name": "users",
      "outputs": [
        {
          "internalType": "address",
          "name": "wallet",
          "type": "address"
        },
        {
          "internalType": "bool",
          "name": "registered",
          "type": "bool"
        }
      ],
      "stateMutability": "view",
      "type": "function"
    },
    {
      "inputs": [
        {
          "internalType": "uint256",
          "name": "investmentId",
          "type": "uint256"
        }
      ],
      "name": "withdraw",
      "outputs": [],
      "stateMutability": "nonpayable",
      "type": "function"
    }
  ],
  "bytecode": "0x60806040526127106000818155600190815562030d406002908155620151806003556175306005556103e860068190556102bc6007556113886008819055600980546001600160a01b0319167364b8cb4c04ba902010856d913b4e5df940748bf21790556032600a819055600b55600c5561012c600d8190556064600e819055600f949094556010929092556011929092556012819055601355610dac6053556054805460ff19169055605555605655348015620000bc57600080fd5b50604051620055ee380380620055ee833981016040819052620000df916200036e565b600480546001600160a01b0319166001600160a01b03831617905560468054600181810183556107d07f128667f541fed74a8429f9d592c26c2c6a4beb9ae5ead9912c98b2595c842310928301819055835480830185556106a49084015583548083018555610578908401558354808301855561044c90840155835480830185556103e8908401819055845480840186556102bc90850181905585548085018755610258908601819055865480860188556101f490870155865480860188556101909087018190558754808701895561012c908801558754808701895560c890880181905588548088019099556064989097018890556047805480880182556000829052610bb87fc43c1e24e1884c4e28a16bbd9506f60b5ca9f18fc90635e729d3cfe13abcf0019182015581548089018355810196909655805480880182556104b0908701558054808801825586019490945583548087018555610320908601558354808701855585019290925582548086018455840155815480850183558301558054808401825582019390935582549182019092550155620002836200028a565b506200039e565b60005b604654811015620002f3576000601982600c8110620002a857fe5b6002020180546001600160a01b0319166001600160a01b03929092169190911790556000601982600c8110620002da57fe5b600202016001018190555080806001019150506200028d565b5060005b6047548110156200035d576000603182600a81106200031257fe5b6002020180546001600160a01b0319166001600160a01b03929092169190911790556000601982600c81106200034457fe5b60020201600101819055508080600101915050620002f7565b506000601781905560185542601655565b60006020828403121562000380578081fd5b81516001600160a01b038116811462000397578182fd5b9392505050565b61524080620003ae6000396000f3fe608060405234801561001057600080fd5b50600436106102195760003560e01c8062fdd58e1461021e5780630a32e91e1461024757806316768ffc1461024f57806324cf3682146102575780632669e8ea1461025f5780632673ebf7146102675780632e1a7d4d1461026f5780632eed8483146102845780633481cb151461028c57806335ccbdbe1461029f5780633ad10ef6146102a75780633df936c9146102bc57806346c27f65146102c457806348a91a24146102d95780634b319713146102ec5780634c170552146102f457806360246c88146102fc578063648441b61461031657806365fcb49e1461031e57806369cde4c0146103265780636f77926b1461032e57806370fd37cf1461034e5780637247b2b9146103565780637cc1f8671461035e5780637d8820971461037d5780638876bb3e146103855780638b7e1a351461038d57806391994b2c146103955780639c236aa81461039d578063a63f4bdb146103be578063a87430ba146103c6578063a9122af7146103e7578063acd2e1c0146103ef578063bc157ac1146103f7578063bfe0e0201461040a578063c572e26714610412578063cabea10d1461041a578063d3b04a2714610422578063d5766ebd14610435578063d82daec714610448578063df5a75ef14610450578063e6af61c814610463578063ebb7f5861461046b578063ed56f6a114610473578063ee8a449814610486578063fd0b82521461048e575b600080fd5b61023161022c366004614dc0565b610496565b60405161023e919061512d565b60405180910390f35b610231610695565b61023161069b565b6102316106a1565b6102316106a7565b6102316106ad565b61028261027d366004614e0a565b6106b3565b005b610231610c08565b61028261029a366004614e0a565b610c0e565b610231610c65565b6102af610c6b565b60405161023e9190614eb0565b610231610c7a565b6102cc610c80565b60405161023e9190614f1c565b6102316102e7366004614e0a565b610c89565b610231610ca7565b610231610cad565b610304610cb3565b60405161023e96959493929190615136565b610231610da6565b610231610dac565b610231610db2565b61034161033c366004614da5565b610db8565b60405161023e9190614ff0565b610231610f44565b610231610f4a565b610366610f50565b60405161023e9b9a999897969594939291906151bc565b610231610f7e565b610231610f84565b610231610f8a565b610231610f90565b6103b06103ab366004614e0a565b610f96565b60405161023e929190614f03565b610231610fbf565b6103d96103d4366004614da5565b610fc5565b60405161023e929190614ee8565b6102af610fec565b610231610ffb565b610282610405366004614e3a565b611001565b6102316116ae565b6102316116b4565b6102316116ba565b610282610430366004614e0a565b6116c0565b610231610443366004614e0a565b6118b5565b6102316118c2565b61023161045e366004614e0a565b6118c8565b6102316118d5565b6102316118db565b6103b0610481366004614e0a565b6118e1565b6102316118ee565b6102316118f4565b6001600160a01b03808316600081815260456020526040812054909216146104bd57600080fd5b6104c5614c56565b6001600160a01b038481166000908152604560209081526040808320815160608101835281549586168152600160a01b90950460ff1615158584015260018101805483518186028101860185528181529295938701949293919290919084015b8282101561063b576000848152602090819020604080516101e081018252601286029092018054835260018082015460ff90811615158587015260028301548585015260038301546060860152600483015460808601528351808501855260058401546001600160a01b0316815260068401548188015260a0860152600783015460c0860152600883015460e08601526009830154610100860152600a83015461012086015283518085018552600b8401548152600c840154818801526101408601528351808501909452600d8301548452600e83015484870152610160850193909352600f820154610180850152601082015490921615156101a0840152601101546101c08301529083529092019101610525565b5050505081525050905061068b8160400151848151811061065857fe5b602002602001015161018001516106858360400151868151811061067857fe5b60200260200101516118fa565b9061195b565b9150505b92915050565b60085481565b600d5481565b604c5481565b600c5481565b604e5481565b336000908152604560205260408120600181018054919291849081106106d557fe5b60009182526020909120835460129092020191506001600160a01b0316331480156107045750600181015460ff165b61070d57600080fd5b4281600a015462015180011061072257600080fd5b6011810154600f820154604080516101e08101825284548152600185015460ff908116151560208084019190915260028701548385015260038701546060840152600487015460808401528351808501855260058801546001600160a01b0316815260068801548183015260a0840152600787015460c0840152600887015460e08401526009870154610100840152600a87015461012084015283518085018552600b8801548152600c880154818301526101408401528351808501909452600d8701548452600e870154908401526101608201929092526101808101839052601085015490911615156101a08201526101c0810183905260009261082f929091610685919082906118fa565b90506000811161083e57600080fd5b604080516101e08101825283548152600184015460ff908116151560208084019190915260028601548385015260038601546060840152600486015460808401528351808501855260058701546001600160a01b0316815260068701548183015260a0840152600786015460c0840152600886015460e08401526009860154610100840152600a86015461012084015283518085018552600b8701548152600c870154818301526101408401528351808501909452600d8601548452600e86015490840152610160820192909252600f840154610180820152601084015490911615156101a082015260118301546101c082015260009061093f90836119a4565b9050806109845761096061095984600401546012546119ef565b839061195b565b9150600061097484600401546013546119ef565b905080831115610982578092505b505b60545460ff1615610a9057604080516101e08101825284548152600185015460ff908116151560208084019190915260028701548385015260038701546060840152600487015460808401528351808501855260058801546001600160a01b0316815260068801548183015260a0840152600787015460c0840152600887015460e08401526009870154610100840152600a87015461012084015283518085018552600b8801548152600c880154818301526101408401528351808501909452600d8701548452600e87015490840152610160820192909252600f850154610180820152601085015490911615156101a082015260118401546101c0820152610a8d9083611a26565b91505b610a9a828261195b565b60048054865460405163a9059cbb60e01b81529395506001600160a01b039182169363a9059cbb93610ad29390921691879101614f03565b602060405180830381600087803b158015610aec57600080fd5b505af1158015610b00573d6000803e3d6000fd5b505050506040513d601f19601f82011682018060405250810190610b249190614dea565b50600f830154610b349083611a8e565b600f84015542600a840181905560038401556011830154610b559082611a8e565b6011840155605154610b679082611a8e565b6051556004830154600554610b7c91906119ef565b83600f015410610ba3576001808401805460ff19169055604c54610b9f9161195b565b604c555b610bab611abc565b604a54610bb89083611a8e565b604a5583546040517f884edad9ce6fa2440d8a54cc123490eb96d2768479d49ff9c7366125a942436491610bf9916001600160a01b03909116908590614f03565b60405180910390a15050505050565b60135481565b336000818152604560205260409020805490916001600160a01b0390911614610c3657600080fd5b6000816001018381548110610c4757fe5b90600052602060002090601202019050610c6081611b6d565b505050565b600b5481565b6009546001600160a01b031681565b60185481565b60545460ff1681565b60488181548110610c9657fe5b600091825260209091200154905081565b604a5481565b600e5481565b600080600080610cc1614c75565b610cc9614ca3565b60165460155460185460175460408051610140810190915260319060199082600a6000835b82821015610d2f576040805180820190915260028302850180546001600160a01b031682526001908101546020808401919091529183529092019101610cee565b5050604080516101808101909152929450839150600c90506000835b82821015610d8c576040805180820190915260028302850180546001600160a01b031682526001908101546020808401919091529183529092019101610d4b565b505050509050955095509550955095509550909192939495565b60105481565b60145481565b60125481565b610dc0614c56565b6001600160a01b038281166000908152604560209081526040808320815160608101835281549586168152600160a01b90950460ff1615158584015260018101805483518186028101860185528181529295938701949293919290919084015b82821015610f36576000848152602090819020604080516101e081018252601286029092018054835260018082015460ff90811615158587015260028301548585015260038301546060860152600483015460808601528351808501855260058401546001600160a01b0316815260068401548188015260a0860152600783015460c0860152600883015460e08601526009830154610100860152600a83015461012086015283518085018552600b8401548152600c840154818801526101408601528351808501909452600d8301548452600e83015484870152610160850193909352600f820154610180850152601082015490921615156101a0840152601101546101c08301529083529092019101610e20565b505050915250909392505050565b604b5481565b60505481565b601454604954604a54604b54604c54604d54604e54604f54605054605154605254909192939495969798999a565b60495481565b604f5481565b60115481565b60525481565b603181600a8110610fa357fe5b6002020180546001909101546001600160a01b03909116915082565b60055481565b6045602052600090815260409020546001600160a01b03811690600160a01b900460ff1682565b6004546001600160a01b031681565b600a5481565b6001600160a01b038216600090815260456020526040902054600160a01b900460ff16801561106a57506001600160a01b038216600090815260456020526040902060010180548290811061105257fe5b600091825260209091206001601290920201015460ff165b8061107c57506001600160a01b038216155b61108557600080fd5b3360009081526045602052604090206001810154156110f957336000908152604560205260409020600182810154910180546110ee92600292916000199091019081106110ce57fe5b906000526020600020906012020160040154611bc290919063ffffffff16565b84116110f957600080fd5b600480546040516323b872dd60e01b81526001600160a01b03909116916323b872dd9161112c91339130918a9101614ec4565b602060405180830381600087803b15801561114657600080fd5b505af115801561115a573d6000803e3d6000fd5b505050506040513d601f19601f8201168201806040525081019061117e9190614dea565b61118757600080fd5b600061119285611bfc565b905061119c614cd1565b825460ff60a01b196001600160a01b0319909116331716600160a01b17835560018084015482526020820152426040820181905260608201526006546111fa9083906111f4906111ed908a906119ef565b899061195b565b90611a8e565b608082015260a0810180516001600160a01b038781169091529051602090810186905260155461016084018051919091525181018890526040805160608101825286549384168152600160a01b90930460ff16151583830152600186018054825181850281018501845281815261139e9594899486019391929060009084015b82821015611390576000848152602090819020604080516101e081018252601286029092018054835260018082015460ff90811615158587015260028301548585015260038301546060860152600483015460808601528351808501855260058401546001600160a01b0316815260068401548188015260a0860152600783015460c0860152600883015460e08601526009830154610100860152600a83015461012086015283518085018552600b8401548152600c840154818801526101408601528351808501909452600d8301548452600e83015484870152610160850193909352600f820154610180850152601082015490921615156101a0840152601101546101c0830152908352909201910161127a565b505050508152505082611cd1565b6113a88682611fd7565b6001808401805480830182556000918252602091829020845160129092020190815581840151928101805493151560ff1994851617905560408401516002820155606084015160038201556080840151600482015560a084015180516005830180546001600160a01b039092166001600160a01b0319909216919091179055820151600682015560c0840151600782015560e084015160088201556101008401516009820155610120840151600a808301919091556101408501518051600b840155830151600c8301556101608501518051600d84015590920151600e820155610180840151600f8201556101a084015160108201805491151591909416179092556101c0830151601190920191909155546114d2906114c99088906119ef565b60175490611a8e565b6017819055506114f06114e787600b546119ef565b60185490611a8e565b6018556114fb6122ae565b6004546009546008546001600160a01b039283169263a9059cbb921690611523908a906119ef565b6040518363ffffffff1660e01b8152600401611540929190614f03565b602060405180830381600087803b15801561155a57600080fd5b505af115801561156e573d6000803e3d6000fd5b505050506040513d601f19601f820116820180604052508101906115929190614dea565b50600480546040516370a0823160e01b81526000926001600160a01b03909216916370a08231916115c591309101614eb0565b60206040518083038186803b1580156115dd57600080fd5b505afa1580156115f1573d6000803e3d6000fd5b505050506040513d601f19601f820116820180604052508101906116159190614e22565b90506014548111156116275760148190555b6049546116349088611a8e565b604955604b54611645906001611a8e565b604b55604c54611656906001611a8e565b604c556050546116669084611a8e565b6050556040517f5548c837ab068cf56a2c2479df0882a4922fd203edb7517321831d95078c5f629061169d90339089908b90614ec4565b60405180910390a150505050505050565b604d5481565b600f5481565b60155481565b336000818152604560205260409020805490916001600160a01b03909116146116e857600080fd5b60008160010183815481106116f957fe5b9060005260206000209060120201905060008160040154905060006117248360040154600c546119ef565b9050611730828261195b565b9150600061174f846011015485600f0154611a8e90919063ffffffff16565b90508281111561175e57600080fd5b611768838261195b565b60048054875460405163a9059cbb60e01b81529396506001600160a01b039182169363a9059cbb936117a09390921691889101614f03565b602060405180830381600087803b1580156117ba57600080fd5b505af11580156117ce573d6000803e3d6000fd5b505050506040513d601f19601f820116820180604052508101906117f29190614dea565b5060018401805460ff19169055600f84015461180e9084611a8e565b600f85015560118401546118229083611a8e565b6011850155604c5461183590600161195b565b604c55605254611846906001611a8e565b605255604a546118569084611a8e565b604a556051546118669083611a8e565b60515584546040517faa5cfc974bd759f818e3e18a4afc9d79daaa0722158497792100a1fddd13e193916118a5916001600160a01b0390911690614eb0565b60405180910390a1505050505050565b60468181548110610c9657fe5b60175481565b60478181548110610c9657fe5b60515481565b60065481565b601981600c8110610fa357fe5b60075481565b60165481565b60008061190683612507565b9050601254611919846080015183612582565b106119345761193161192a8461259d565b8290611a8e565b90505b600061194684608001516005546119ef565b905080821115611954578091505b5092915050565b600061199d83836040518060400160405280601e81526020017f536166654d6174683a207375627472616374696f6e206f766572666c6f7700008152506125f9565b9392505050565b6000806119b5846080015184612582565b905060125481106119ca57600091505061068f565b60c88110156119e7576119df836119c86119ef565b91505061068f565b61068b83610ce45b6000600154821015611a0057600080fd5b600254821115611a0f57600080fd5b60005461199d90611a208585611bc2565b90612625565b6053546101a0830151600091839115611a3e57506056545b6000611a4e8660800151836119ef565b90508561018001518110611a6157600080fd5b6101808601518190611a739085611a8e565b1115611a8457856101800151810392505b5090949350505050565b60008282018381101561199d5760405162461bcd60e51b8152600401611ab390614f7a565b60405180910390fd5b611aca6014546053546119ef565b600480546040516370a0823160e01b81526001600160a01b03909116916370a0823191611af991309101614eb0565b60206040518083038186803b158015611b1157600080fd5b505afa158015611b25573d6000803e3d6000fd5b505050506040513d601f19601f82011682018060405250810190611b499190614e22565b11611b60576054805460ff19166001179055611b6b565b6054805460ff191690555b565b601081015460ff16158015611b865750600181015460ff165b611b8f57600080fd5b611bad611ba282600401546055546119ef565b60048301549061195b565b6004820155601001805460ff19166001179055565b600082611bd15750600061068f565b82820282848281611bde57fe5b041461199d5760405162461bcd60e51b8152600401611ab390614faf565b600080624c4b40831115611c1257506032611cc7565b620f4240831115611c2557506028611cc7565b620c3500831115611c3857506023611cc7565b6207a120831115611c4b5750601e611cc7565b6203d090831115611c5e57506019611cc7565b620186a0831115611c7157506014611cc7565b61c350831115611c835750600f611cc7565b6161a8831115611c955750600a611cc7565b612710831115611ca757506005611cc7565b611388831115611cb957506002611cc7565b6107d0831115611cc7575060015b61199d83826119ef565b60006031611ce1600a600161195b565b600a8110611ceb57fe5b60020201546001600160a01b03161480611d8c5750604560006031611d12600a600161195b565b600a8110611d1c57fe5b60020201546001600160a01b031681526020810191909152604001600020600190810190603190611d4f90600a9061195b565b600a8110611d5957fe5b600202016001015481548110611d6b57fe5b9060005260206000209060120201600d016001015481610160015160200151115b15611fd357611d99614d5d565b60005b600a811015611fd0576000603182600a8110611db457fe5b60020201546001600160a01b03161415611e18578351603182600a8110611dd757fe5b6002020180546001600160a01b0319166001600160a01b03929092169190911790558251603182600a8110611e0857fe5b6002020160010181905550611fd0565b60456000603183600a8110611e2957fe5b60020201546001600160a01b031681526020810191909152604001600020600101603182600a8110611e5757fe5b600202016001015481548110611e6957fe5b9060005260206000209060120201600d0160010154836101600151602001511115611fc857603181600a8110611e9b57fe5b604080518082019091526002919091029190910180546001600160a01b031682526001015460208201528451909250603182600a8110611ed757fe5b6002020180546001600160a01b0319166001600160a01b03929092169190911790558251603182600a8110611f0857fe5b6002020160010181905550611f1b614d5d565b815b600a831015611fc15783516001600160a01b0316611f3a57611fc1565b603181600a8110611f4757fe5b604080518082019091526002919091029190910180546001600160a01b03168252600101546020820152915083603182600a8110611f8157fe5b82516002919091029190910180546001600160a01b0319166001600160a01b03909216919091178155602090910151600191820155919350839101611f1d565b5050611fd0565b600101611d9c565b50505b5050565b60a0810151516001600160a01b03161580159061203e575060a081018051516001600160a01b031660009081526045602090815260409091209151015160019091018054909190811061202657fe5b600091825260209091206001601290920201015460ff165b15611fd35760a0810151516001600160a01b031660009081526045602052604081206007549091906120719085906119ef565b90506120ae81836001018560a00151602001518154811061208e57fe5b906000526020600020906012020160070154611a8e90919063ffffffff16565b826001018460a0015160200151815481106120c557fe5b600091825260209091206007601290920201015560155461014084015151146121005760155461014084018051919091525160006020909101525b610140830151602001516121149085611a8e565b6101408401516020908101919091526040805160608101825284546001600160a01b0381168252600160a01b900460ff16151581840152600185018054835181860281018601855281815261229895939488949086019391929060009084015b8282101561228a576000848152602090819020604080516101e081018252601286029092018054835260018082015460ff90811615158587015260028301548585015260038301546060860152600483015460808601528351808501855260058401546001600160a01b0316815260068401548188015260a0860152600783015460c0860152600883015460e08601526009830154610100860152600a83015461012086015283518085018552600b8401548152600c840154818801526101408601528351808501909452600d8301548452600e83015484870152610160850193909352600f820154610180850152601082015490921615156101a0840152601101546101c08301529083529092019101612174565b505050508152505084612664565b604d546122a59082611a8e565b604d5550505050565b6016546201518001421115611b6b5760005b600c8110156123d3576000601982600c81106122d857fe5b60020201546001600160a01b031614156122f1576123d3565b600060456000601984600c811061230457fe5b60020201546001600160a01b03168152602081019190915260400160002060175460468054929350612393926123509291908690811061234057fe5b90600052602060002001546119ef565b82600101601985600c811061236157fe5b60020201600101548154811061237357fe5b906000526020600020906012020160080154611a8e90919063ffffffff16565b81600101601984600c81106123a457fe5b6002020160010154815481106123b657fe5b6000918252602090912060086012909202010155506001016122c0565b5060005b600a8110156124da576000603182600a81106123ef57fe5b60020201546001600160a01b03161415612408576124da565b600060456000603184600a811061241b57fe5b60020201546001600160a01b0316815260208101919091526040016000206018546047805492935061249a926124579291908690811061234057fe5b82600101603185600a811061246857fe5b60020201600101548154811061247a57fe5b906000526020600020906012020160090154611a8e90919063ffffffff16565b81600101603184600a81106124ab57fe5b6002020160010154815481106124bd57fe5b6000918252602090912060096012909202010155506001016123d7565b50601754604e546124ea91611a8e565b604e55601854604f546124fc91611a8e565b604f55611b6b6128f4565b6000806125268361010001518460e00151611a8e90919063ffffffff16565b905060008360c0015190506000612556856080015161255161254c8860400151426129d0565b6129e4565b6119ef565b9050600061256386612a2a565b90506000612577826111f485818989611a8e565b979650505050505050565b600061199d83611a2060005485611bc290919063ffffffff16565b6000806125b960026125b38560600151426129d0565b90611bc2565b905060006125d260105483611bc290919063ffffffff16565b90506011548111156125e357506011545b6125f18460800151826119ef565b949350505050565b6000818484111561261d5760405162461bcd60e51b8152600401611ab39190614f27565b505050900390565b600061199d83836040518060400160405280601a815260200179536166654d6174683a206469766973696f6e206279207a65726f60301b815250612adf565b602f546001600160a01b031615806126c75750602f546001600160a01b031660009081526045602052604090206030546001909101805490919081106126a657fe5b9060005260206000209060120201600b016001015481610140015160200151115b15611fd3576126d4614d5d565b60005b600c811015611fd0576000601982600c81106126ef57fe5b60020201546001600160a01b03161415612743578351601982600c811061271257fe5b6002020180546001600160a01b0319166001600160a01b03929092169190911790558251601982600c8110611e0857fe5b60456000601983600c811061275457fe5b60020201546001600160a01b031681526020810191909152604001600020600101601982600c811061278257fe5b60020201600101548154811061279457fe5b9060005260206000209060120201600b01600101548361014001516020015111156128ec57601981600c81106127c657fe5b604080518082019091526002919091029190910180546001600160a01b031682526001015460208201528451909250601982600c811061280257fe5b6002020180546001600160a01b0319166001600160a01b03929092169190911790558251601982600c811061283357fe5b6002020160010181905550612846614d5d565b815b600c831015611fc15783516001600160a01b031661286557611fc1565b601981600c811061287257fe5b604080518082019091526002919091029190910180546001600160a01b03168252600101546020820152915083601982600c81106128ac57fe5b82516002919091029190910180546001600160a01b0319166001600160a01b03909216919091178155602090910151600191820155919350839101612848565b6001016126d7565b60005b604654811015612959576000601982600c811061291057fe5b6002020180546001600160a01b0319166001600160a01b03929092169190911790556000601982600c811061294157fe5b600202016001018190555080806001019150506128f7565b5060005b6047548110156129bf576000603182600a811061297657fe5b6002020180546001600160a01b0319166001600160a01b03929092169190911790556000601982600c81106129a757fe5b6002020160010181905550808060010191505061295d565b506000601781905560185542601655565b60035460009061199d90611a20848661195b565b600061012d82106129f457600080fd5b60606129fe612b16565b90506060612a0b82614bce565b9050808481518110612a1957fe5b602002602001015192505050919050565b600f54600e54600480546040516370a0823160e01b81526000948594612ac09491936125b39391926001600160a01b03909116916370a0823191612a7091309101614eb0565b60206040518083038186803b158015612a8857600080fd5b505afa158015612a9c573d6000803e3d6000fd5b505050506040513d601f19601f82011682018060405250810190611a209190614e22565b9050600d54811115612ad15750600d545b61199d8360800151826119ef565b60008183612b005760405162461bcd60e51b8152600401611ab39190614f27565b506000838581612b0c57fe5b0495945050505050565b6040805161012d8082526125c08201909252606091829190602082016125a080368337019050509050600081600081518110612b4e57fe5b602002602001018181525050600181600181518110612b6957fe5b602002602001018181525050600281600281518110612b8457fe5b602002602001018181525050600381600381518110612b9f57fe5b602002602001018181525050600481600481518110612bba57fe5b602002602001018181525050600581600581518110612bd557fe5b602002602001018181525050600681600681518110612bf057fe5b602002602001018181525050600681600781518110612c0b57fe5b602002602001018181525050600781600881518110612c2657fe5b602002602001018181525050600881600981518110612c4157fe5b602002602001018181525050600981600a81518110612c5c57fe5b602002602001018181525050600a81600b81518110612c7757fe5b602002602001018181525050600b81600c81518110612c9257fe5b602002602001018181525050600c81600d81518110612cad57fe5b602002602001018181525050600d81600e81518110612cc857fe5b602002602001018181525050600e81600f81518110612ce357fe5b602002602001018181525050600f81601081518110612cfe57fe5b602002602001018181525050601081601181518110612d1957fe5b602002602001018181525050601281601281518110612d3457fe5b602002602001018181525050601381601381518110612d4f57fe5b602002602001018181525050601481601481518110612d6a57fe5b602002602001018181525050601581601581518110612d8557fe5b602002602001018181525050601681601681518110612da057fe5b602002602001018181525050601781601781518110612dbb57fe5b602002602001018181525050601881601881518110612dd657fe5b602002602001018181525050601981601981518110612df157fe5b602002602001018181525050601a81601a81518110612e0c57fe5b602002602001018181525050601b81601b81518110612e2757fe5b602002602001018181525050601d81601c81518110612e4257fe5b602002602001018181525050601e81601d81518110612e5d57fe5b602002602001018181525050601f81601e81518110612e7857fe5b602002602001018181525050602081601f81518110612e9357fe5b602002602001018181525050602181602081518110612eae57fe5b602002602001018181525050602281602181518110612ec957fe5b602002602001018181525050602481602281518110612ee457fe5b602002602001018181525050602581602381518110612eff57fe5b602002602001018181525050602681602481518110612f1a57fe5b602002602001018181525050602781602581518110612f3557fe5b602002602001018181525050602981602681518110612f5057fe5b602002602001018181525050602a81602781518110612f6b57fe5b602002602001018181525050602b81602881518110612f8657fe5b602002602001018181525050602c81602981518110612fa157fe5b602002602001018181525050602e81602a81518110612fbc57fe5b602002602001018181525050602f81602b81518110612fd757fe5b602002602001018181525050603081602c81518110612ff257fe5b602002602001018181525050603281602d8151811061300d57fe5b602002602001018181525050603381602e8151811061302857fe5b602002602001018181525050603481602f8151811061304357fe5b60200260200101818152505060368160308151811061305e57fe5b60200260200101818152505060378160318151811061307957fe5b60200260200101818152505060398160328151811061309457fe5b602002602001018181525050603a816033815181106130af57fe5b602002602001018181525050603b816034815181106130ca57fe5b602002602001018181525050603d816035815181106130e557fe5b602002602001018181525050603e8160368151811061310057fe5b60200260200101818152505060408160378151811061311b57fe5b60200260200101818152505060418160388151811061313657fe5b60200260200101818152505060438160398151811061315157fe5b602002602001018181525050604481603a8151811061316c57fe5b602002602001018181525050604681603b8151811061318757fe5b602002602001018181525050604781603c815181106131a257fe5b602002602001018181525050604981603d815181106131bd57fe5b602002602001018181525050604a81603e815181106131d857fe5b602002602001018181525050604c81603f815181106131f357fe5b602002602001018181525050604d8160408151811061320e57fe5b602002602001018181525050604f8160418151811061322957fe5b60200260200101818152505060518160428151811061324457fe5b60200260200101818152505060528160438151811061325f57fe5b60200260200101818152505060548160448151811061327a57fe5b60200260200101818152505060568160458151811061329557fe5b6020026020010181815250506057816046815181106132b057fe5b6020026020010181815250506059816047815181106132cb57fe5b602002602001018181525050605b816048815181106132e657fe5b602002602001018181525050605c8160498151811061330157fe5b602002602001018181525050605e81604a8151811061331c57fe5b602002602001018181525050606081604b8151811061333757fe5b602002602001018181525050606281604c8151811061335257fe5b602002602001018181525050606381604d8151811061336d57fe5b602002602001018181525050606581604e8151811061338857fe5b602002602001018181525050606781604f815181106133a357fe5b6020026020010181815250506069816050815181106133be57fe5b602002602001018181525050606b816051815181106133d957fe5b602002602001018181525050606c816052815181106133f457fe5b602002602001018181525050606e8160538151811061340f57fe5b60200260200101818152505060708160548151811061342a57fe5b60200260200101818152505060728160558151811061344557fe5b60200260200101818152505060748160568151811061346057fe5b60200260200101818152505060768160578151811061347b57fe5b60200260200101818152505060788160588151811061349657fe5b602002602001018181525050607a816059815181106134b157fe5b602002602001018181525050607c81605a815181106134cc57fe5b602002602001018181525050607e81605a815181106134e757fe5b602002602001018181525050608081605c8151811061350257fe5b602002602001018181525050608281605d8151811061351d57fe5b602002602001018181525050608481605e8151811061353857fe5b602002602001018181525050608681605f8151811061355357fe5b60200260200101818152505060888160608151811061356e57fe5b602002602001018181525050608a8160618151811061358957fe5b602002602001018181525050608d816062815181106135a457fe5b602002602001018181525050608f816063815181106135bf57fe5b6020026020010181815250506091816064815181106135da57fe5b6020026020010181815250506093816065815181106135f557fe5b60200260200101818152505060958160668151811061361057fe5b60200260200101818152505060988160678151811061362b57fe5b602002602001018181525050609a8160688151811061364657fe5b602002602001018181525050609c8160698151811061366157fe5b602002602001018181525050609f81606a8151811061367c57fe5b60200260200101818152505060a181606b8151811061369757fe5b60200260200101818152505060a381606c815181106136b257fe5b60200260200101818152505060a681606d815181106136cd57fe5b60200260200101818152505060a881606e815181106136e857fe5b60200260200101818152505060aa81606f8151811061370357fe5b60200260200101818152505060ad8160708151811061371e57fe5b60200260200101818152505060af8160718151811061373957fe5b60200260200101818152505060b28160728151811061375457fe5b60200260200101818152505060b48160738151811061376f57fe5b60200260200101818152505060b78160748151811061378a57fe5b60200260200101818152505060b9816075815181106137a557fe5b60200260200101818152505060bc816076815181106137c057fe5b60200260200101818152505060be816077815181106137db57fe5b60200260200101818152505060c1816078815181106137f657fe5b60200260200101818152505060c48160798151811061381157fe5b60200260200101818152505060c681607a8151811061382c57fe5b60200260200101818152505060c981607b8151811061384757fe5b60200260200101818152505060cc81607c8151811061386257fe5b60200260200101818152505060ce81607d8151811061387d57fe5b60200260200101818152505060d181607e8151811061389857fe5b60200260200101818152505060d481607f815181106138b357fe5b60200260200101818152505060d7816080815181106138ce57fe5b60200260200101818152505060da816081815181106138e957fe5b60200260200101818152505060dd8160828151811061390457fe5b60200260200101818152505060df8160838151811061391f57fe5b60200260200101818152505060e28160848151811061393a57fe5b60200260200101818152505060e58160858151811061395557fe5b60200260200101818152505060e88160868151811061397057fe5b60200260200101818152505060eb8160878151811061398b57fe5b60200260200101818152505060ee816088815181106139a657fe5b60200260200101818152505060f1816089815181106139c157fe5b60200260200101818152505060f481608a815181106139dc57fe5b60200260200101818152505060f781608b815181106139f757fe5b60200260200101818152505060fb81608c81518110613a1257fe5b60200260200101818152505060fe81608d81518110613a2d57fe5b60200260200101818152505061010181608e81518110613a4957fe5b60200260200101818152505061010481608f81518110613a6557fe5b60200260200101818152505061010781609081518110613a8157fe5b60200260200101818152505061010b81609181518110613a9d57fe5b60200260200101818152505061010e81609281518110613ab957fe5b60200260200101818152505061011181609381518110613ad557fe5b60200260200101818152505061011581609481518110613af157fe5b60200260200101818152505061011881609581518110613b0d57fe5b60200260200101818152505061011b81609681518110613b2957fe5b60200260200101818152505061011f81609781518110613b4557fe5b60200260200101818152505061012281609881518110613b6157fe5b60200260200101818152505061012681609981518110613b7d57fe5b60200260200101818152505061012981609a81518110613b9957fe5b60200260200101818152505061012d81609b81518110613bb557fe5b60200260200101818152505061013181609c81518110613bd157fe5b60200260200101818152505061013481609d81518110613bed57fe5b60200260200101818152505061013881609e81518110613c0957fe5b60200260200101818152505061013c81609f81518110613c2557fe5b60200260200101818152505061013f8160a081518110613c4157fe5b6020026020010181815250506101438160a181518110613c5d57fe5b6020026020010181815250506101478160a281518110613c7957fe5b60200260200101818152505061014b8160a381518110613c9557fe5b60200260200101818152505061014f8160a481518110613cb157fe5b6020026020010181815250506101538160a581518110613ccd57fe5b6020026020010181815250506101578160a681518110613ce957fe5b60200260200101818152505061015b8160a781518110613d0557fe5b60200260200101818152505061015f8160a881518110613d2157fe5b6020026020010181815250506101638160a981518110613d3d57fe5b6020026020010181815250506101678160aa81518110613d5957fe5b60200260200101818152505061016b8160ab81518110613d7557fe5b60200260200101818152505061016f8160ac81518110613d9157fe5b6020026020010181815250506101738160ad81518110613dad57fe5b6020026020010181815250506101778160ae81518110613dc957fe5b60200260200101818152505061017c8160af81518110613de557fe5b6020026020010181815250506101808160b081518110613e0157fe5b6020026020010181815250506101848160b181518110613e1d57fe5b6020026020010181815250506101898160b281518110613e3957fe5b60200260200101818152505061018d8160b381518110613e5557fe5b6020026020010181815250506101928160b481518110613e7157fe5b6020026020010181815250506101968160b581518110613e8d57fe5b60200260200101818152505061019b8160b681518110613ea957fe5b60200260200101818152505061019f8160b781518110613ec557fe5b6020026020010181815250506101a48160b881518110613ee157fe5b6020026020010181815250506101a98160b981518110613efd57fe5b6020026020010181815250506101ad8160ba81518110613f1957fe5b6020026020010181815250506101b28160bb81518110613f3557fe5b6020026020010181815250506101b78160bc81518110613f5157fe5b6020026020010181815250506101bc8160bd81518110613f6d57fe5b6020026020010181815250506101c18160be81518110613f8957fe5b6020026020010181815250506101c68160bf81518110613fa557fe5b6020026020010181815250506101cb8160c081518110613fc157fe5b6020026020010181815250506101d08160c181518110613fdd57fe5b6020026020010181815250506101d58160c281518110613ff957fe5b6020026020010181815250506101da8160c38151811061401557fe5b6020026020010181815250506101df8160c48151811061403157fe5b6020026020010181815250506101e48160c58151811061404d57fe5b6020026020010181815250506101e98160c68151811061406957fe5b6020026020010181815250506101ef8160c78151811061408557fe5b6020026020010181815250506101f48160c8815181106140a157fe5b6020026020010181815250506101fa8160c9815181106140bd57fe5b6020026020010181815250506101ff8160ca815181106140d957fe5b6020026020010181815250506102048160cb815181106140f557fe5b60200260200101818152505061020a8160cc8151811061411157fe5b6020026020010181815250506102108160cd8151811061412d57fe5b6020026020010181815250506102158160ce8151811061414957fe5b60200260200101818152505061021b8160cf8151811061416557fe5b6020026020010181815250506102218160d08151811061418157fe5b6020026020010181815250506102278160d18151811061419d57fe5b60200260200101818152505061022c8160d2815181106141b957fe5b6020026020010181815250506102328160d3815181106141d557fe5b6020026020010181815250506102388160d4815181106141f157fe5b60200260200101818152505061023e8160d58151811061420d57fe5b6020026020010181815250506102448160d68151811061422957fe5b60200260200101818152505061024a8160d78151811061424557fe5b6020026020010181815250506102518160d88151811061426157fe5b6020026020010181815250506102578160d98151811061427d57fe5b60200260200101818152505061025d8160da8151811061429957fe5b6020026020010181815250506102638160db815181106142b557fe5b60200260200101818152505061026a8160dc815181106142d157fe5b6020026020010181815250506102708160dd815181106142ed57fe5b6020026020010181815250506102778160de8151811061430957fe5b60200260200101818152505061027d8160df8151811061432557fe5b6020026020010181815250506102848160e08151811061434157fe5b60200260200101818152505061028b8160e18151811061435d57fe5b6020026020010181815250506102928160e28151811061437957fe5b6020026020010181815250506102988160e38151811061439557fe5b60200260200101818152505061029f8160e4815181106143b157fe5b6020026020010181815250506102a68160e5815181106143cd57fe5b6020026020010181815250506102ad8160e6815181106143e957fe5b6020026020010181815250506102b48160e78151811061440557fe5b6020026020010181815250506102bb8160e88151811061442157fe5b6020026020010181815250506102c38160e98151811061443d57fe5b6020026020010181815250506102ca8160ea8151811061445957fe5b6020026020010181815250506102d18160eb8151811061447557fe5b6020026020010181815250506102d98160ec8151811061449157fe5b6020026020010181815250506102e08160ed815181106144ad57fe5b6020026020010181815250506102e88160ee815181106144c957fe5b6020026020010181815250506102ef8160ef815181106144e557fe5b6020026020010181815250506102f78160f08151811061450157fe5b6020026020010181815250506102ff8160f18151811061451d57fe5b6020026020010181815250506103068160f28151811061453957fe5b60200260200101818152505061030e8160f38151811061455557fe5b6020026020010181815250506103168160f48151811061457157fe5b60200260200101818152505061031e8160f58151811061458d57fe5b6020026020010181815250506103268160f6815181106145a957fe5b60200260200101818152505061032e8160f7815181106145c557fe5b6020026020010181815250506103378160f8815181106145e157fe5b60200260200101818152505061033f8160f9815181106145fd57fe5b6020026020010181815250506103478160fa8151811061461957fe5b6020026020010181815250506103508160fb8151811061463557fe5b6020026020010181815250506103588160fc8151811061465157fe5b6020026020010181815250506103618160fd8151811061466d57fe5b60200260200101818152505061036a8160fe8151811061468957fe5b6020026020010181815250506103728160ff815181106146a557fe5b60200260200101818152505061037b81610100815181106146c257fe5b60200260200101818152505061038481610101815181106146df57fe5b60200260200101818152505061038d81610102815181106146fc57fe5b602002602001018181525050610396816101038151811061471957fe5b60200260200101818152505061039f816101048151811061473657fe5b6020026020010181815250506103a9816101058151811061475357fe5b6020026020010181815250506103b2816101068151811061477057fe5b6020026020010181815250506103bb816101078151811061478d57fe5b6020026020010181815250506103c581610108815181106147aa57fe5b6020026020010181815250506103ce81610109815181106147c757fe5b6020026020010181815250506103d88161010a815181106147e457fe5b6020026020010181815250506103e28161010b8151811061480157fe5b6020026020010181815250506103ec8161010c8151811061481e57fe5b6020026020010181815250506103f68161010d8151811061483b57fe5b6020026020010181815250506104008161010e8151811061485857fe5b60200260200101818152505061040a8161010f8151811061487557fe5b602002602001018181525050610414816101108151811061489257fe5b60200260200101818152505061041e81610111815181106148af57fe5b60200260200101818152505061042981610112815181106148cc57fe5b60200260200101818152505061043381610113815181106148e957fe5b60200260200101818152505061043e816101148151811061490657fe5b602002602001018181525050610448816101158151811061492357fe5b602002602001018181525050610453816101168151811061494057fe5b60200260200101818152505061045e816101178151811061495d57fe5b602002602001018181525050610469816101188151811061497a57fe5b602002602001018181525050610474816101198151811061499757fe5b60200260200101818152505061047f8161011a815181106149b457fe5b60200260200101818152505061048a8161011b815181106149d157fe5b6020026020010181815250506104968161011c815181106149ee57fe5b6020026020010181815250506104a18161011d81518110614a0b57fe5b6020026020010181815250506104ad8161011e81518110614a2857fe5b6020026020010181815250506104b88161011f81518110614a4557fe5b6020026020010181815250506104c48161012081518110614a6257fe5b6020026020010181815250506104d08161012181518110614a7f57fe5b6020026020010181815250506104dc8161012281518110614a9c57fe5b6020026020010181815250506104e88161012381518110614ab957fe5b6020026020010181815250506104f48161012481518110614ad657fe5b6020026020010181815250506105018161012581518110614af357fe5b60200260200101818152505061050d8161012681518110614b1057fe5b60200260200101818152505061051a8161012781518110614b2d57fe5b6020026020010181815250506105268161012881518110614b4a57fe5b6020026020010181815250506105338161012981518110614b6757fe5b6020026020010181815250506105408161012a81518110614b8457fe5b60200260200101818152505061054d8161012b81518110614ba157fe5b60200260200101818152505061055a8161012c81518110614bbe57fe5b6020908102919091010152905090565b6040805161012d8082526125c08201909252606091829190602082016125a0803683370190505090506000805b61012d811015614c4d57614c2b858281518110614c1457fe5b602002602001015183611a8e90919063ffffffff16565b915081838281518110614c3a57fe5b6020908102919091010152600101614bfb565b50909392505050565b6040805160608082018352600080835260208301529181019190915290565b604051806101400160405280600a905b614c8d614d5d565b815260200190600190039081614c855790505090565b604051806101800160405280600c905b614cbb614d5d565b815260200190600190039081614cb35790505090565b604051806101e0016040528060008152602001600015158152602001600081526020016000815260200160008152602001614d0a614d5d565b815260200160008152602001600081526020016000815260200160008152602001614d33614d74565b8152602001614d40614d74565b815260200160008152602001600015158152602001600081525090565b604080518082019091526000808252602082015290565b604051806040016040528060008152602001600081525090565b80356001600160a01b038116811461068f57600080fd5b600060208284031215614db6578081fd5b61199d8383614d8e565b60008060408385031215614dd2578081fd5b614ddc8484614d8e565b946020939093013593505050565b600060208284031215614dfb578081fd5b8151801515811461199d578182fd5b600060208284031215614e1b578081fd5b5035919050565b600060208284031215614e33578081fd5b5051919050565b600080600060608486031215614e4e578081fd5b83359250614e5f8560208601614d8e565b9150604084013590509250925092565b6000614e7b8383614e89565b505060400190565b15159052565b80516001600160a01b03168252602090810151910152565b80518252602090810151910152565b6001600160a01b0391909116815260200190565b6001600160a01b039384168152919092166020820152604081019190915260600190565b6001600160a01b039290921682521515602082015260400190565b6001600160a01b03929092168252602082015260400190565b901515815260200190565b6000602080835283518082850152825b81811015614f5357858101830151858201604001528201614f37565b81811115614f645783604083870101525b50601f01601f1916929092016040019392505050565b6020808252601b908201527a536166654d6174683a206164646974696f6e206f766572666c6f7760281b604082015260600190565b60208082526021908201527f536166654d6174683a206d756c7469706c69636174696f6e206f766572666c6f6040820152607760f81b606082015260800190565b602080825282516001600160a01b0316828201528281015115156040808401919091528084015160608085018190528151608080870182905260009594909360a0939086019284890190885b8181101561511d578551805184528981015161505a8b860182614e83565b508581015186850152848101518585015288810151898501528781015161508389860182614e89565b5060c081015160e0858101919091528101516101008086019190915281015161012080860191909152810151610140808601919091528101516101606150cb81870183614ea1565b82015190506101a06150df86820183614ea1565b6101808301516101e087015282015190506150fe610200860182614e83565b506101c00151610220840152948801946102409092019160010161503c565b50909a9950505050505050505050565b90815260200190565b60006106008201905087825260208781840152866040840152856060840152608083018560005b600a81101561517f57615171838351614e6f565b92509083019060010161515d565b50505061030083018460005b600c8110156151ad5761519f838351614e6f565b92509083019060010161518b565b50505050979650505050505050565b9a8b5260208b019990995260408a01979097526060890195909552608088019390935260a087019190915260c086015260e0850152610100840152610120830152610140820152610160019056fea2646970667358221220a540619945dbbf3acf4b3e1f247f36beb0500b6645446a2ebe0247882c008b6264736f6c634300060c0033",
  "compiler": {
    "name": "solc",
    "version": "0.6.12+commit.27d51765.Emscripten.clang",
    "optimizer": {
      "enabled": true,
      "runs": 1
    },
    "evmVersion": "petersburg"
  }
}