{
  "fileName": "FourRXFinance.sol",
  "contractName": "FourRXFinance",
  "source": "// SPDX-License-Identifier: MIT\npragma solidity ^0.6.12;\npragma experimental ABIEncoderV2;\n\nimport \"@openzeppelin/contracts/token/ERC20/IERC20.sol\";\nimport \"./Insurance.sol\";\n\n/// @title 4RX Finance Staking DAPP Contract\n/// @notice Available functionality: Deposit, Withdraw, ExitProgram, Insure Stake\n/// @dev\ncontract FourRXFinance is Insurance {\n\n    constructor(address fourRXTokenAddress) public {\n        fourRXToken = IERC20(fourRXTokenAddress);\n\n        // Ref Bonus // 12 Max Participants\n        refPoolBonuses.push(2000); // 20%\n        refPoolBonuses.push(1700); // 17%\n        refPoolBonuses.push(1400); // 14%\n        refPoolBonuses.push(1100); // 11%\n        refPoolBonuses.push(1000); // 10%\n        refPoolBonuses.push(700); // 7%\n        refPoolBonuses.push(600); // 6%\n        refPoolBonuses.push(500); // 5%\n        refPoolBonuses.push(400); // 4%\n        refPoolBonuses.push(300); // 3%\n        refPoolBonuses.push(200); // 2%\n        refPoolBonuses.push(100); // 1%\n\n        // Sponsor Pool // 10 Max Participants\n        sponsorPoolBonuses.push(3000); // 30%\n        sponsorPoolBonuses.push(2000); // 20%\n        sponsorPoolBonuses.push(1200); // 12%\n        sponsorPoolBonuses.push(1000); // 10%\n        sponsorPoolBonuses.push(800); // 8%\n        sponsorPoolBonuses.push(700); // 7%\n        sponsorPoolBonuses.push(600); // 6%\n        sponsorPoolBonuses.push(400); // 4%\n        sponsorPoolBonuses.push(200); // 2%\n        sponsorPoolBonuses.push(100); // 1%\n\n        _resetPools();\n\n        poolCycle = 0;\n    }\n\n    function deposit(uint amount, address uplinkAddress, uint uplinkStakeId) external {\n        // 2k\n        require(\n            (users[uplinkAddress].wallet != address(0) && users[uplinkAddress].stakes[uplinkStakeId].active) ||\n            uplinkAddress == address(0)\n        ); // Either uplink must be registered and be a active deposit, 0 address\n\n        User storage user = users[msg.sender];\n        // 1k\n        if (users[msg.sender].stakes.length > 0) {\n            require(amount >= users[msg.sender].stakes[user.stakes.length - 1].deposit.mul(2)); // deposit amount must be greater 2x then last deposit\n        }\n        // 30k\n        require(fourRXToken.transferFrom(msg.sender, address(this), amount));\n        // 66k\n        drawPool(); // Draw old pool if qualified, and we're pretty sure that this stake is going to be created\n\n        uint depositReward = _calcDepositRewards(amount);\n\n        Stake memory stake;\n\n        user.wallet = msg.sender;\n\n        stake.id = user.stakes.length;\n        stake.active = true;\n        stake.interestCountFrom = block.timestamp;\n        stake.holdFrom = block.timestamp;\n\n        stake.deposit = amount.sub(_calcPercentage(amount, LP_FEE_BP)).add(depositReward); // Deduct LP Commission + add deposit rewards\n        stake.uplink.uplinkAddress = uplinkAddress;\n        stake.uplink.uplinkStakeId = uplinkStakeId;\n\n        stake.sponsorPool.cycle = poolCycle;\n        stake.sponsorPool.amount = amount;\n        // 33k\n        _updateSponsorPoolUsers(user, stake);\n        // 54k\n        _distributeReferralReward(amount, stake);\n\n        user.stakes.push(stake);\n        // 52k\n        refPoolBalance = refPoolBalance.add(_calcPercentage(amount, REF_POOL_FEE_BP));\n        sponsorPoolBalance = sponsorPoolBalance.add(_calcPercentage(amount, SPONSOR_POOL_FEE_BP));\n        // 30k\n        fourRXToken.transfer(devAddress, _calcPercentage(amount, DEV_FEE_BP));\n\n        uint currentContractBalance = fourRXToken.balanceOf(address(this));\n\n        if (currentContractBalance > maxContractBalance) {\n            maxContractBalance = currentContractBalance;\n        }\n        // 54k\n        totalDeposits = totalDeposits.add(amount);\n        totalStakes = totalStakes.add(1);\n        totalActiveStakes = totalActiveStakes.add(1);\n        totalDepositRewards = totalDepositRewards.add(depositReward);\n\n        emit Deposit(msg.sender, uplinkAddress, amount);\n    }\n\n\n    function balanceOf(address _userAddress, uint stakeId) external view returns (uint) {\n        require(users[_userAddress].wallet == _userAddress);\n        User memory user = users[_userAddress];\n\n        return _calcRewards(user.stakes[stakeId]).sub(user.stakes[stakeId].withdrawn);\n    }\n\n    function withdraw(uint stakeId) external {\n        User storage user = users[msg.sender];\n        Stake storage stake = user.stakes[stakeId];\n        require(user.wallet == msg.sender && stake.active); // stake should be active\n\n        require(stake.lastWithdrawalAt + 1 days < block.timestamp); // we only allow one withdrawal each day\n\n        uint availableAmount = _calcRewards(stake).sub(stake.withdrawn).sub(stake.penalty);\n\n        require(availableAmount > 0);\n\n        uint penalty = _calcPenalty(stake, availableAmount);\n\n        if (penalty == 0) {\n            availableAmount = availableAmount.sub(_calcPercentage(stake.deposit, REWARD_THRESHOLD_BP)); // Only allow withdrawal if available is more then 10% of base\n\n            uint maxAllowedWithdrawal = _calcPercentage(stake.deposit, MAX_WITHDRAWAL_OVER_REWARD_THRESHOLD_BP);\n\n            if (availableAmount > maxAllowedWithdrawal) {\n                availableAmount = maxAllowedWithdrawal;\n            }\n        }\n\n        if (isInInsuranceState) {\n            availableAmount = _getInsuredAvailableAmount(stake, availableAmount);\n        }\n\n        availableAmount = availableAmount.sub(penalty);\n\n        fourRXToken.transfer(user.wallet, availableAmount);\n\n        stake.withdrawn = stake.withdrawn.add(availableAmount);\n        stake.lastWithdrawalAt = block.timestamp;\n        stake.holdFrom = block.timestamp;\n\n        stake.penalty = stake.penalty.add(penalty);\n\n        totalPenalty = totalPenalty.add(penalty);\n\n        if (stake.withdrawn >= _calcPercentage(stake.deposit, MAX_CONTRACT_REWARD_BP)) {\n            stake.active = false; // if stake has withdrawn equals to or more then the max amount, then mark stake in-active\n            totalActiveStakes = totalActiveStakes.sub(1);\n        }\n\n        _checkForBaseInsuranceTrigger();\n\n        totalWithdrawn = totalWithdrawn.add(availableAmount);\n\n        emit Withdraw(user.wallet, availableAmount);\n    }\n\n    function exitProgram(uint stakeId) external {\n        User storage user = users[msg.sender];\n        require(user.wallet == msg.sender);\n        Stake storage stake = user.stakes[stakeId];\n        uint availableAmount = stake.deposit;\n        uint penaltyAmount = _calcPercentage(stake.deposit, EXIT_PENALTY_BP);\n\n        availableAmount = availableAmount.sub(penaltyAmount);\n\n        uint withdrawn = stake.withdrawn.add(stake.penalty);\n        require(withdrawn <= availableAmount);\n        availableAmount = availableAmount.sub(withdrawn);\n\n        fourRXToken.transfer(user.wallet, availableAmount);\n\n        stake.active = false;\n        stake.withdrawn = stake.withdrawn.add(availableAmount);\n        stake.penalty = stake.penalty.add(penaltyAmount);\n\n        totalActiveStakes = totalActiveStakes.sub(1);\n        totalExited = totalExited.add(1);\n\n        totalWithdrawn = totalWithdrawn.add(availableAmount);\n        totalPenalty = totalPenalty.add(penaltyAmount);\n\n        emit Exited(user.wallet);\n    }\n\n    function insureStake(uint stakeId) external {\n        User storage user = users[msg.sender];\n        require(user.wallet == msg.sender);\n        Stake storage stake = user.stakes[stakeId];\n        _insureStake(user.wallet, stake);\n    }\n\n    // Getters\n\n    function getUser(address userAddress) external view returns (User memory) {\n        return users[userAddress];\n    }\n\n    function getPoolInfo() external view returns (uint, uint, uint, uint, PoolUser[10] memory, PoolUser[12] memory) {\n        return (poolDrewAt, poolCycle, sponsorPoolBalance, refPoolBalance, sponsorPoolUsers, refPoolUsers);\n    }\n\n    function getContractInfo() external view returns (uint, bool, uint, uint, uint, uint, uint, uint, uint, uint, uint, uint) {\n        return (maxContractBalance, isInInsuranceState, totalDeposits, totalWithdrawn, totalStakes, totalActiveStakes, totalRefRewards, totalRefPoolRewards, totalSponsorPoolRewards, totalDepositRewards, totalPenalty, totalExited);\n    }\n}\n",
  "sourcePath": "contracts/FourRXFinance.sol",
  "abi": [
    {
      "inputs": [
        {
          "internalType": "address",
          "name": "fourRXTokenAddress",
          "type": "address"
        }
      ],
      "stateMutability": "nonpayable",
      "type": "constructor"
    },
    {
      "anonymous": false,
      "inputs": [
        {
          "indexed": false,
          "internalType": "address",
          "name": "user",
          "type": "address"
        },
        {
          "indexed": false,
          "internalType": "address",
          "name": "uplink",
          "type": "address"
        },
        {
          "indexed": false,
          "internalType": "uint256",
          "name": "amount",
          "type": "uint256"
        }
      ],
      "name": "Deposit",
      "type": "event"
    },
    {
      "anonymous": false,
      "inputs": [
        {
          "indexed": false,
          "internalType": "address",
          "name": "user",
          "type": "address"
        }
      ],
      "name": "Exited",
      "type": "event"
    },
    {
      "anonymous": false,
      "inputs": [
        {
          "indexed": false,
          "internalType": "address",
          "name": "user",
          "type": "address"
        },
        {
          "indexed": false,
          "internalType": "uint256",
          "name": "amount",
          "type": "uint256"
        }
      ],
      "name": "ReInvest",
      "type": "event"
    },
    {
      "anonymous": false,
      "inputs": [
        {
          "indexed": false,
          "internalType": "address",
          "name": "user",
          "type": "address"
        },
        {
          "indexed": false,
          "internalType": "uint256",
          "name": "amount",
          "type": "uint256"
        }
      ],
      "name": "Withdraw",
      "type": "event"
    },
    {
      "inputs": [],
      "name": "CONTRACT_BONUS_PER_UNIT_BP",
      "outputs": [
        {
          "internalType": "uint256",
          "name": "",
          "type": "uint256"
        }
      ],
      "stateMutability": "view",
      "type": "function"
    },
    {
      "inputs": [],
      "name": "CONTRACT_BONUS_UNIT",
      "outputs": [
        {
          "internalType": "uint256",
          "name": "",
          "type": "uint256"
        }
      ],
      "stateMutability": "view",
      "type": "function"
    },
    {
      "inputs": [],
      "name": "DAY",
      "outputs": [
        {
          "internalType": "uint256",
          "name": "",
          "type": "uint256"
        }
      ],
      "stateMutability": "view",
      "type": "function"
    },
    {
      "inputs": [],
      "name": "DEV_FEE_BP",
      "outputs": [
        {
          "internalType": "uint256",
          "name": "",
          "type": "uint256"
        }
      ],
      "stateMutability": "view",
      "type": "function"
    },
    {
      "inputs": [],
      "name": "EXIT_PENALTY_BP",
      "outputs": [
        {
          "internalType": "uint256",
          "name": "",
          "type": "uint256"
        }
      ],
      "stateMutability": "view",
      "type": "function"
    },
    {
      "inputs": [],
      "name": "HOLD_BONUS_PER_UNIT_BP",
      "outputs": [
        {
          "internalType": "uint256",
          "name": "",
          "type": "uint256"
        }
      ],
      "stateMutability": "view",
      "type": "function"
    },
    {
      "inputs": [],
      "name": "HOLD_BONUS_UNIT",
      "outputs": [
        {
          "internalType": "uint256",
          "name": "",
          "type": "uint256"
        }
      ],
      "stateMutability": "view",
      "type": "function"
    },
    {
      "inputs": [],
      "name": "LP_FEE_BP",
      "outputs": [
        {
          "internalType": "uint256",
          "name": "",
          "type": "uint256"
        }
      ],
      "stateMutability": "view",
      "type": "function"
    },
    {
      "inputs": [],
      "name": "MAX_CONTRACT_BONUS_BP",
      "outputs": [
        {
          "internalType": "uint256",
          "name": "",
          "type": "uint256"
        }
      ],
      "stateMutability": "view",
      "type": "function"
    },
    {
      "inputs": [],
      "name": "MAX_CONTRACT_REWARD_BP",
      "outputs": [
        {
          "internalType": "uint256",
          "name": "",
          "type": "uint256"
        }
      ],
      "stateMutability": "view",
      "type": "function"
    },
    {
      "inputs": [],
      "name": "MAX_HOLD_BONUS_BP",
      "outputs": [
        {
          "internalType": "uint256",
          "name": "",
          "type": "uint256"
        }
      ],
      "stateMutability": "view",
      "type": "function"
    },
    {
      "inputs": [],
      "name": "MAX_WITHDRAWAL_OVER_REWARD_THRESHOLD_BP",
      "outputs": [
        {
          "internalType": "uint256",
          "name": "",
          "type": "uint256"
        }
      ],
      "stateMutability": "view",
      "type": "function"
    },
    {
      "inputs": [],
      "name": "PERCENT_MULTIPLIER",
      "outputs": [
        {
          "internalType": "uint256",
          "name": "",
          "type": "uint256"
        }
      ],
      "stateMutability": "view",
      "type": "function"
    },
    {
      "inputs": [],
      "name": "REF_COMMISSION_BP",
      "outputs": [
        {
          "internalType": "uint256",
          "name": "",
          "type": "uint256"
        }
      ],
      "stateMutability": "view",
      "type": "function"
    },
    {
      "inputs": [],
      "name": "REF_POOL_FEE_BP",
      "outputs": [
        {
          "internalType": "uint256",
          "name": "",
          "type": "uint256"
        }
      ],
      "stateMutability": "view",
      "type": "function"
    },
    {
      "inputs": [],
      "name": "REWARD_THRESHOLD_BP",
      "outputs": [
        {
          "internalType": "uint256",
          "name": "",
          "type": "uint256"
        }
      ],
      "stateMutability": "view",
      "type": "function"
    },
    {
      "inputs": [],
      "name": "SPONSOR_POOL_FEE_BP",
      "outputs": [
        {
          "internalType": "uint256",
          "name": "",
          "type": "uint256"
        }
      ],
      "stateMutability": "view",
      "type": "function"
    },
    {
      "inputs": [
        {
          "internalType": "address",
          "name": "_userAddress",
          "type": "address"
        },
        {
          "internalType": "uint256",
          "name": "stakeId",
          "type": "uint256"
        }
      ],
      "name": "balanceOf",
      "outputs": [
        {
          "internalType": "uint256",
          "name": "",
          "type": "uint256"
        }
      ],
      "stateMutability": "view",
      "type": "function"
    },
    {
      "inputs": [
        {
          "internalType": "uint256",
          "name": "amount",
          "type": "uint256"
        },
        {
          "internalType": "address",
          "name": "uplinkAddress",
          "type": "address"
        },
        {
          "internalType": "uint256",
          "name": "uplinkStakeId",
          "type": "uint256"
        }
      ],
      "name": "deposit",
      "outputs": [],
      "stateMutability": "nonpayable",
      "type": "function"
    },
    {
      "inputs": [],
      "name": "devAddress",
      "outputs": [
        {
          "internalType": "address",
          "name": "",
          "type": "address"
        }
      ],
      "stateMutability": "view",
      "type": "function"
    },
    {
      "inputs": [],
      "name": "drawPool",
      "outputs": [],
      "stateMutability": "nonpayable",
      "type": "function"
    },
    {
      "inputs": [
        {
          "internalType": "uint256",
          "name": "stakeId",
          "type": "uint256"
        }
      ],
      "name": "exitProgram",
      "outputs": [],
      "stateMutability": "nonpayable",
      "type": "function"
    },
    {
      "inputs": [],
      "name": "fourRXToken",
      "outputs": [
        {
          "internalType": "contract IERC20",
          "name": "",
          "type": "address"
        }
      ],
      "stateMutability": "view",
      "type": "function"
    },
    {
      "inputs": [],
      "name": "getContractInfo",
      "outputs": [
        {
          "internalType": "uint256",
          "name": "",
          "type": "uint256"
        },
        {
          "internalType": "bool",
          "name": "",
          "type": "bool"
        },
        {
          "internalType": "uint256",
          "name": "",
          "type": "uint256"
        },
        {
          "internalType": "uint256",
          "name": "",
          "type": "uint256"
        },
        {
          "internalType": "uint256",
          "name": "",
          "type": "uint256"
        },
        {
          "internalType": "uint256",
          "name": "",
          "type": "uint256"
        },
        {
          "internalType": "uint256",
          "name": "",
          "type": "uint256"
        },
        {
          "internalType": "uint256",
          "name": "",
          "type": "uint256"
        },
        {
          "internalType": "uint256",
          "name": "",
          "type": "uint256"
        },
        {
          "internalType": "uint256",
          "name": "",
          "type": "uint256"
        },
        {
          "internalType": "uint256",
          "name": "",
          "type": "uint256"
        },
        {
          "internalType": "uint256",
          "name": "",
          "type": "uint256"
        }
      ],
      "stateMutability": "view",
      "type": "function"
    },
    {
      "inputs": [],
      "name": "getPoolInfo",
      "outputs": [
        {
          "internalType": "uint256",
          "name": "",
          "type": "uint256"
        },
        {
          "internalType": "uint256",
          "name": "",
          "type": "uint256"
        },
        {
          "internalType": "uint256",
          "name": "",
          "type": "uint256"
        },
        {
          "internalType": "uint256",
          "name": "",
          "type": "uint256"
        },
        {
          "components": [
            {
              "internalType": "address",
              "name": "user",
              "type": "address"
            },
            {
              "internalType": "uint256",
              "name": "stakeId",
              "type": "uint256"
            }
          ],
          "internalType": "struct SharedVariables.PoolUser[10]",
          "name": "",
          "type": "tuple[10]"
        },
        {
          "components": [
            {
              "internalType": "address",
              "name": "user",
              "type": "address"
            },
            {
              "internalType": "uint256",
              "name": "stakeId",
              "type": "uint256"
            }
          ],
          "internalType": "struct SharedVariables.PoolUser[12]",
          "name": "",
          "type": "tuple[12]"
        }
      ],
      "stateMutability": "view",
      "type": "function"
    },
    {
      "inputs": [
        {
          "internalType": "address",
          "name": "userAddress",
          "type": "address"
        }
      ],
      "name": "getUser",
      "outputs": [
        {
          "components": [
            {
              "internalType": "address",
              "name": "wallet",
              "type": "address"
            },
            {
              "components": [
                {
                  "internalType": "uint256",
                  "name": "id",
                  "type": "uint256"
                },
                {
                  "internalType": "bool",
                  "name": "active",
                  "type": "bool"
                },
                {
                  "internalType": "bool",
                  "name": "optInInsured",
                  "type": "bool"
                },
                {
                  "internalType": "uint256",
                  "name": "holdFrom",
                  "type": "uint256"
                },
                {
                  "internalType": "uint256",
                  "name": "deposit",
                  "type": "uint256"
                },
                {
                  "internalType": "uint256",
                  "name": "withdrawn",
                  "type": "uint256"
                },
                {
                  "internalType": "uint256",
                  "name": "penalty",
                  "type": "uint256"
                },
                {
                  "internalType": "uint256",
                  "name": "refCommission",
                  "type": "uint256"
                },
                {
                  "internalType": "uint256",
                  "name": "refPoolRewards",
                  "type": "uint256"
                },
                {
                  "internalType": "uint256",
                  "name": "sponsorPoolRewards",
                  "type": "uint256"
                },
                {
                  "internalType": "uint256",
                  "name": "interestCountFrom",
                  "type": "uint256"
                },
                {
                  "internalType": "uint256",
                  "name": "lastWithdrawalAt",
                  "type": "uint256"
                },
                {
                  "components": [
                    {
                      "internalType": "address",
                      "name": "uplinkAddress",
                      "type": "address"
                    },
                    {
                      "internalType": "uint256",
                      "name": "uplinkStakeId",
                      "type": "uint256"
                    }
                  ],
                  "internalType": "struct SharedVariables.Uplink",
                  "name": "uplink",
                  "type": "tuple"
                },
                {
                  "components": [
                    {
                      "internalType": "uint256",
                      "name": "cycle",
                      "type": "uint256"
                    },
                    {
                      "internalType": "uint256",
                      "name": "amount",
                      "type": "uint256"
                    }
                  ],
                  "internalType": "struct SharedVariables.Pool",
                  "name": "refPool",
                  "type": "tuple"
                },
                {
                  "components": [
                    {
                      "internalType": "uint256",
                      "name": "cycle",
                      "type": "uint256"
                    },
                    {
                      "internalType": "uint256",
                      "name": "amount",
                      "type": "uint256"
                    }
                  ],
                  "internalType": "struct SharedVariables.Pool",
                  "name": "sponsorPool",
                  "type": "tuple"
                }
              ],
              "internalType": "struct SharedVariables.Stake[]",
              "name": "stakes",
              "type": "tuple[]"
            }
          ],
          "internalType": "struct SharedVariables.User",
          "name": "",
          "type": "tuple"
        }
      ],
      "stateMutability": "view",
      "type": "function"
    },
    {
      "inputs": [
        {
          "internalType": "uint256",
          "name": "stakeId",
          "type": "uint256"
        }
      ],
      "name": "insureStake",
      "outputs": [],
      "stateMutability": "nonpayable",
      "type": "function"
    },
    {
      "inputs": [],
      "name": "isInInsuranceState",
      "outputs": [
        {
          "internalType": "bool",
          "name": "",
          "type": "bool"
        }
      ],
      "stateMutability": "view",
      "type": "function"
    },
    {
      "inputs": [],
      "name": "maxContractBalance",
      "outputs": [
        {
          "internalType": "uint256",
          "name": "",
          "type": "uint256"
        }
      ],
      "stateMutability": "view",
      "type": "function"
    },
    {
      "inputs": [],
      "name": "poolCycle",
      "outputs": [
        {
          "internalType": "uint256",
          "name": "",
          "type": "uint256"
        }
      ],
      "stateMutability": "view",
      "type": "function"
    },
    {
      "inputs": [],
      "name": "poolDrewAt",
      "outputs": [
        {
          "internalType": "uint256",
          "name": "",
          "type": "uint256"
        }
      ],
      "stateMutability": "view",
      "type": "function"
    },
    {
      "inputs": [],
      "name": "refPoolBalance",
      "outputs": [
        {
          "internalType": "uint256",
          "name": "",
          "type": "uint256"
        }
      ],
      "stateMutability": "view",
      "type": "function"
    },
    {
      "inputs": [
        {
          "internalType": "uint256",
          "name": "",
          "type": "uint256"
        }
      ],
      "name": "refPoolBonuses",
      "outputs": [
        {
          "internalType": "uint256",
          "name": "",
          "type": "uint256"
        }
      ],
      "stateMutability": "view",
      "type": "function"
    },
    {
      "inputs": [
        {
          "internalType": "uint256",
          "name": "",
          "type": "uint256"
        }
      ],
      "name": "refPoolUsers",
      "outputs": [
        {
          "internalType": "address",
          "name": "user",
          "type": "address"
        },
        {
          "internalType": "uint256",
          "name": "stakeId",
          "type": "uint256"
        }
      ],
      "stateMutability": "view",
      "type": "function"
    },
    {
      "inputs": [],
      "name": "sponsorPoolBalance",
      "outputs": [
        {
          "internalType": "uint256",
          "name": "",
          "type": "uint256"
        }
      ],
      "stateMutability": "view",
      "type": "function"
    },
    {
      "inputs": [
        {
          "internalType": "uint256",
          "name": "",
          "type": "uint256"
        }
      ],
      "name": "sponsorPoolBonuses",
      "outputs": [
        {
          "internalType": "uint256",
          "name": "",
          "type": "uint256"
        }
      ],
      "stateMutability": "view",
      "type": "function"
    },
    {
      "inputs": [
        {
          "internalType": "uint256",
          "name": "",
          "type": "uint256"
        }
      ],
      "name": "sponsorPoolUsers",
      "outputs": [
        {
          "internalType": "address",
          "name": "user",
          "type": "address"
        },
        {
          "internalType": "uint256",
          "name": "stakeId",
          "type": "uint256"
        }
      ],
      "stateMutability": "view",
      "type": "function"
    },
    {
      "inputs": [],
      "name": "totalActiveStakes",
      "outputs": [
        {
          "internalType": "uint256",
          "name": "",
          "type": "uint256"
        }
      ],
      "stateMutability": "view",
      "type": "function"
    },
    {
      "inputs": [],
      "name": "totalDepositRewards",
      "outputs": [
        {
          "internalType": "uint256",
          "name": "",
          "type": "uint256"
        }
      ],
      "stateMutability": "view",
      "type": "function"
    },
    {
      "inputs": [],
      "name": "totalDeposits",
      "outputs": [
        {
          "internalType": "uint256",
          "name": "",
          "type": "uint256"
        }
      ],
      "stateMutability": "view",
      "type": "function"
    },
    {
      "inputs": [],
      "name": "totalExited",
      "outputs": [
        {
          "internalType": "uint256",
          "name": "",
          "type": "uint256"
        }
      ],
      "stateMutability": "view",
      "type": "function"
    },
    {
      "inputs": [],
      "name": "totalPenalty",
      "outputs": [
        {
          "internalType": "uint256",
          "name": "",
          "type": "uint256"
        }
      ],
      "stateMutability": "view",
      "type": "function"
    },
    {
      "inputs": [],
      "name": "totalRefPoolRewards",
      "outputs": [
        {
          "internalType": "uint256",
          "name": "",
          "type": "uint256"
        }
      ],
      "stateMutability": "view",
      "type": "function"
    },
    {
      "inputs": [],
      "name": "totalRefRewards",
      "outputs": [
        {
          "internalType": "uint256",
          "name": "",
          "type": "uint256"
        }
      ],
      "stateMutability": "view",
      "type": "function"
    },
    {
      "inputs": [],
      "name": "totalSponsorPoolRewards",
      "outputs": [
        {
          "internalType": "uint256",
          "name": "",
          "type": "uint256"
        }
      ],
      "stateMutability": "view",
      "type": "function"
    },
    {
      "inputs": [],
      "name": "totalStakes",
      "outputs": [
        {
          "internalType": "uint256",
          "name": "",
          "type": "uint256"
        }
      ],
      "stateMutability": "view",
      "type": "function"
    },
    {
      "inputs": [],
      "name": "totalWithdrawn",
      "outputs": [
        {
          "internalType": "uint256",
          "name": "",
          "type": "uint256"
        }
      ],
      "stateMutability": "view",
      "type": "function"
    },
    {
      "inputs": [
        {
          "internalType": "address",
          "name": "",
          "type": "address"
        }
      ],
      "name": "users",
      "outputs": [
        {
          "internalType": "address",
          "name": "wallet",
          "type": "address"
        }
      ],
      "stateMutability": "view",
      "type": "function"
    },
    {
      "inputs": [
        {
          "internalType": "uint256",
          "name": "stakeId",
          "type": "uint256"
        }
      ],
      "name": "withdraw",
      "outputs": [],
      "stateMutability": "nonpayable",
      "type": "function"
    }
  ],
  "bytecode": "0x60806040908152600b80546001600160a01b0319167364b8cb4c04ba902010856d913b4e5df940748bf2179055805460ff191690553480156200004157600080fd5b5060405162005c9738038062005c978339810160408190526200006491620002f8565b600a80546001600160a01b0319166001600160a01b03831617905560398054600181810183556107d07fdc16fef70f8d5ddbc01ee3d903d1e69c18a3c7be080eb86a81e0578814ee58d3928301819055835480830185556106a49084015583548083018555610578908401558354808301855561044c90840155835480830185556103e8908401819055845480840186556102bc90850181905585548085018755610258908601819055865480860188556101f490870155865480860188556101909087018190558754808701895561012c908801558754808701895560c89088018190558854808801909955606498909701889055603a805480880182556000829052610bb87fa2999d817b6757290b50e8ecf3fa939673403dd35c97de392fdb343b4015ce9e9182015581548089018355810196909655805480880182556104b09087015580548088018255860194909455835480870185556103209086015583548087018555850192909255825480860184558401558154808501835583015580548084018255820193909355825491820190925501556200020862000214565b506000603c5562000328565b60005b6039548110156200027d576000600d82600c81106200023257fe5b6002020180546001600160a01b0319166001600160a01b03929092169190911790556000600d82600c81106200026457fe5b6002020160010181905550808060010191505062000217565b5060005b603a54811015620002e7576000602582600a81106200029c57fe5b6002020180546001600160a01b0319166001600160a01b03929092169190911790556000600d82600c8110620002ce57fe5b6002020160010181905550808060010191505062000281565b506000603e819055603f5542603d55565b6000602082840312156200030a578081fd5b81516001600160a01b038116811462000321578182fd5b9392505050565b61595f80620003386000396000f3fe608060405234801561001057600080fd5b506004361061023a5760003560e01c8062fdd58e1461023f57806303162d2c146102685780630781235a146102705780630ac39f72146102785780630f9fa6aa1461027057806312dd5fe4146102705780631f079e01146102805780632673ebf71461028857806327cfe856146102905780632e1a7d4d146102985780633ad10ef6146102ad5780633df936c9146102c257806346c27f65146102ca578063498dc5b5146102df5780634b319713146102e757806360246c88146102ef57806363b815fa1461030957806365fcb49e1461031157806369da94d8146103195780636f77926b146103215780637247b2b9146103415780637cc1f867146103495780637d882097146103695780638876bb3e1461037157806391994b2c146103795780639b6eec7d146103815780639c236aa814610389578063a00d4980146103aa578063a13a801a146103b2578063a87430ba146103ba578063a9122af7146103cd578063aaf1a0da146103b2578063b963ddb4146103d5578063bc157ac1146103dd578063bf9befb1146103f0578063bfe0e020146103f8578063c37b95a014610400578063cabea10d14610413578063d3b04a271461041b578063d5766ebd1461042e578063d82daec714610441578063d902f40c14610449578063df5a75ef14610451578063e523141114610464578063e6af61c81461046c578063e7204ffb14610474578063ed56f6a11461047c578063f48e595a1461048f578063fd0b825214610497575b600080fd5b61025261024d366004615515565b61049f565b60405161025f9190615840565b60405180910390f35b610252610688565b61025261068e565b610252610694565b610252610699565b61025261069f565b6102526106a5565b6102ab6102a636600461555f565b6106ac565b005b6102b5610c08565b60405161025f91906155f1565b610252610c17565b6102d2610c1d565b60405161025f9190615642565b610252610c26565b610252610c2c565b6102f7610c32565b60405161025f9695949392919061589d565b610252610d25565b610252610d2b565b610252610d31565b61033461032f3660046154fa565b610d37565b60405161025f9190615716565b610252610eae565b610351610eb4565b60405161025f9c9b9a99989796959493929190615849565b610252610eec565b610252610ef2565b610252610ef8565b610252610efe565b61039c61039736600461555f565b610f04565b60405161025f929190615629565b610252610f2d565b610252610f32565b6102b56103c83660046154fa565b610f37565b6102b5610f52565b610252610f61565b6102ab6103eb36600461558f565b610f67565b6102526115d7565b6102526115dd565b6102ab61040e36600461555f565b6115e3565b610252611648565b6102ab61042936600461555f565b61164e565b61025261043c36600461555f565b61183c565b61025261185a565b610252611860565b61025261045f36600461555f565b611865565b610252611872565b610252611877565b6102ab61187d565b61039c61048a36600461555f565b611ad8565b610252611ae5565b610252611aea565b6001600160a01b038083166000818152600c6020526040812054909216146104c657600080fd5b6104ce6153b3565b6001600160a01b038085166000908152600c60209081526040808320815180830183528154909516855260018101805483518186028101860190945280845291948685019491929184015b8282101561062f576000848152602090819020604080516101e081018252601186029092018054835260018082015460ff80821615158688015261010091829004161515858501526002830154606086015260038301546080860152600483015460a0860152600583015460c0860152600683015460e086015260078301549085015260088201546101208501526009820154610140850152600a82015461016085015282518084018452600b8301546001600160a01b03168152600c8301548187015261018085015282518084018452600d8301548152600e830154818701526101a08501528251808401909352600f8201548352601090910154828501526101c08301919091529083529092019101610519565b5050505081525050905061067e8160200151848151811061064c57fe5b602002602001015160a001516106788360200151868151811061066b57fe5b6020026020010151611af0565b90611b51565b9150505b92915050565b61a8c081565b61012c81565b600281565b60035481565b60055481565b6201518081565b336000908152600c60205260408120600181018054919291849081106106ce57fe5b60009182526020909120835460119092020191506001600160a01b0316331480156106fd5750600181015460ff165b61070657600080fd5b4281600a015462015180011061071b57600080fd5b60058101546004820154604080516101e08101825284548152600185015460ff808216151560208085019190915261010092839004909116151583850152600287015460608401526003870154608084015260a0830185905260c08301869052600687015460e084015260078701549183019190915260088601546101208301526009860154610140830152600a86015461016083015282518084018452600b8701546001600160a01b03168152600c8701548183015261018083015282518084018452600d8701548152600e870154818301526101a08301528251808401909352600f86015483526010860154908301526101c081019190915260009261082b92909161067891908290611af0565b90506000811161083a57600080fd5b604080516101e08101825283548152600184015460ff8082161515602080850191909152610100928390049091161515838501526002860154606084015260038601546080840152600486015460a0840152600586015460c0840152600686015460e084015260078601549183019190915260088501546101208301526009850154610140830152600a85015461016083015282518084018452600b8601546001600160a01b03168152600c8601548183015261018083015282518084018452600d8601548152600e860154818301526101a08301528251808401909352600f85015483526010850154908301526101c081019190915260009061093e9083611b9a565b9050806109835761095f610958846003015461012c611be8565b8390611b51565b91506000610973846003015461012c611be8565b905080831115610981578092505b505b60405460ff1615610a9257604080516101e08101825284548152600185015460ff8082161515602080850191909152610100928390049091161515838501526002870154606084015260038701546080840152600487015460a0840152600587015460c0840152600687015460e084015260078701549183019190915260088601546101208301526009860154610140830152600a86015461016083015282518084018452600b8701546001600160a01b03168152600c8701548183015261018083015282518084018452600d8701548152600e870154818301526101a08301528251808401909352600f86015483526010860154908301526101c0810191909152610a8f9083611bfa565b91505b610a9c8282611b51565b600a54855460405163a9059cbb60e01b81529294506001600160a01b039182169263a9059cbb92610ad39216908690600401615629565b602060405180830381600087803b158015610aed57600080fd5b505af1158015610b01573d6000803e3d6000fd5b505050506040513d601f19601f82011682018060405250810190610b25919061553f565b506004830154610b359083611c9d565b600484015542600a840181905560028401556005830154610b569082611c9d565b6005840155600854610b689082611c9d565b6008556003830154610b7c9061924f611be8565b836004015410610ba3576001808401805460ff19169055600354610b9f91611b51565b6003555b610bab611ccb565b600154610bb89083611c9d565b60015583546040517f884edad9ce6fa2440d8a54cc123490eb96d2768479d49ff9c7366125a942436491610bf9916001600160a01b03909116908590615629565b60405180910390a15050505050565b600b546001600160a01b031681565b603f5481565b60405460ff1681565b61138881565b60015481565b600080600080610c406153cb565b610c486153f9565b603d54603c54603f54603e54604080516101408101909152602590600d9082600a6000835b82821015610cae576040805180820190915260028302850180546001600160a01b031682526001908101546020808401919091529183529092019101610c6d565b5050604080516101808101909152929450839150600c90506000835b82821015610d0b576040805180820190915260028302850180546001600160a01b031682526001908101546020808401919091529183529092019101610cca565b505050509050955095509550955095509550909192939495565b61271081565b603b5481565b61924f81565b610d3f6153b3565b6001600160a01b038083166000908152600c60209081526040808320815180830183528154909516855260018101805483518186028101860190945280845291948685019491929184015b82821015610ea0576000848152602090819020604080516101e081018252601186029092018054835260018082015460ff80821615158688015261010091829004161515858501526002830154606086015260038301546080860152600483015460a0860152600583015460c0860152600683015460e086015260078301549085015260088201546101208501526009820154610140850152600a82015461016085015282518084018452600b8301546001600160a01b03168152600c8301548187015261018085015282518084018452600d8301548152600e830154818701526101a08501528251808401909352600f8201548352601090910154828501526101c08301919091529083529092019101610d8a565b505050915250909392505050565b60075481565b603b5460405460005460015460025460035460045460055460065460075460085460095460ff909a1699909192939495969798999a9b565b60005481565b60065481565b60095481565b6101f481565b602581600a8110610f1157fe5b6002020180546001909101546001600160a01b03909116915082565b600581565b603281565b600c602052600090815260409020546001600160a01b031681565b600a546001600160a01b031681565b61032081565b6001600160a01b038281166000908152600c60205260409020541615801590610fca57506001600160a01b0382166000908152600c60205260409020600101805482908110610fb257fe5b600091825260209091206001601190920201015460ff165b80610fdc57506001600160a01b038216155b610fe557600080fd5b336000908152600c6020526040902060018101541561105a57336000908152600c602052604090206001828101549101805461104e926002929160001990910190811061102e57fe5b906000526020600020906011020160030154611d7c90919063ffffffff16565b84101561105a57600080fd5b600a546040516323b872dd60e01b81526001600160a01b03909116906323b872dd9061108e90339030908990600401615605565b602060405180830381600087803b1580156110a857600080fd5b505af11580156110bc573d6000803e3d6000fd5b505050506040513d601f19601f820116820180604052508101906110e0919061553f565b6110e957600080fd5b6110f161187d565b60006110fc85611db6565b9050611106615427565b82546001600160a01b031916331783556001808401548252602082015242610140820181905260608201526111508261114a611143896005611be8565b8990611b51565b90611c9d565b6080820152610180810180516001600160a01b0380881690915290516020908101869052603c546101c08401805191909152518101889052604080518082018252865490931683526001860180548251818502810185019093528083526112e694938893858201939092909160009084015b828210156112d8576000848152602090819020604080516101e081018252601186029092018054835260018082015460ff80821615158688015261010091829004161515858501526002830154606086015260038301546080860152600483015460a0860152600583015460c0860152600683015460e086015260078301549085015260088201546101208501526009820154610140850152600a82015461016085015282518084018452600b8301546001600160a01b03168152600c8301548187015261018085015282518084018452600d8301548152600e830154818701526101a08501528251808401909352600f8201548352601090910154828501526101c083019190915290835290920191016111c2565b505050508152505082611e7a565b6112f08682612180565b60018381018054808301825560009182526020918290208451601190920201908155838201519281018054604086015160ff199091169415159490941761ff0019166101009415158502179055606084015160028201556080840151600382015560a0840151600482015560c0840151600582015560e0840151600682015591830151600783015561012083015160088301556101408301516009830155610160830151600a8301556101808301518051600b840180546001600160a01b0319166001600160a01b03909216919091179055810151600c8301556101a08301518051600d840155810151600e8301556101c08301518051600f840155015160109091015561140b611402876032611be8565b603e5490611c9d565b603e5561142561141c876032611be8565b603f5490611c9d565b603f55600a54600b546001600160a01b039182169163a9059cbb911661144d896101f4611be8565b6040518363ffffffff1660e01b815260040161146a929190615629565b602060405180830381600087803b15801561148457600080fd5b505af1158015611498573d6000803e3d6000fd5b505050506040513d601f19601f820116820180604052508101906114bc919061553f565b50600a546040516370a0823160e01b81526000916001600160a01b0316906370a08231906114ee9030906004016155f1565b60206040518083038186803b15801561150657600080fd5b505afa15801561151a573d6000803e3d6000fd5b505050506040513d601f19601f8201168201806040525081019061153e9190615577565b9050603b5481111561155057603b8190555b60005461155d9088611c9d565b60005560025461156e906001611c9d565b60025560035461157f906001611c9d565b60035560075461158f9084611c9d565b6007556040517f5548c837ab068cf56a2c2479df0882a4922fd203edb7517321831d95078c5f62906115c690339089908b90615605565b60405180910390a150505050505050565b60025481565b60045481565b336000818152600c60205260409020805490916001600160a01b039091161461160b57600080fd5b600081600101838154811061161c57fe5b6000918252602090912083546011909202019150611643906001600160a01b031682612447565b505050565b603c5481565b336000818152600c60205260409020805490916001600160a01b039091161461167657600080fd5b600081600101838154811061168757fe5b600091825260208220600360119092020190810154909250906116ac82611388611be8565b90506116b88282611b51565b915060006116d784600501548560040154611c9d90919063ffffffff16565b9050828111156116e657600080fd5b6116f08382611b51565b600a54865460405163a9059cbb60e01b81529295506001600160a01b039182169263a9059cbb926117279216908790600401615629565b602060405180830381600087803b15801561174157600080fd5b505af1158015611755573d6000803e3d6000fd5b505050506040513d601f19601f82011682018060405250810190611779919061553f565b5060018401805460ff1916905560048401546117959084611c9d565b600485015560058401546117a99083611c9d565b60058501556003546117bc906001611b51565b6003556009546117cd906001611c9d565b6009556001546117dd9084611c9d565b6001556008546117ed9083611c9d565b60085584546040517faa5cfc974bd759f818e3e18a4afc9d79daaa0722158497792100a1fddd13e1939161182c916001600160a01b03909116906155f1565b60405180910390a1505050505050565b6039818154811061184957fe5b600091825260209091200154905081565b603e5481565b600181565b603a818154811061184957fe5b606481565b60085481565b603d546201518001421115611ad65760005b600c8110156119a2576000600d82600c81106118a757fe5b60020201546001600160a01b031614156118c0576119a2565b6000600c6000600d84600c81106118d357fe5b60020201546001600160a01b031681526020810191909152604001600020603e54603980549293506119629261191f9291908690811061190f57fe5b9060005260206000200154611be8565b82600101600d85600c811061193057fe5b60020201600101548154811061194257fe5b906000526020600020906011020160070154611c9d90919063ffffffff16565b81600101600d84600c811061197357fe5b60020201600101548154811061198557fe5b60009182526020909120600760119092020101555060010161188f565b5060005b600a811015611aa9576000602582600a81106119be57fe5b60020201546001600160a01b031614156119d757611aa9565b6000600c6000602584600a81106119ea57fe5b60020201546001600160a01b031681526020810191909152604001600020603f54603a8054929350611a6992611a269291908690811061190f57fe5b82600101602585600a8110611a3757fe5b600202016001015481548110611a4957fe5b906000526020600020906011020160080154611c9d90919063ffffffff16565b81600101602584600a8110611a7a57fe5b600202016001015481548110611a8c57fe5b6000918252602090912060086011909202010155506001016119a6565b50603e54600554611ab991611c9d565b600555603f54600654611acb91611c9d565b600655611ad6612524565b565b600d81600c8110610f1157fe5b60fa81565b603d5481565b600080611afc83612600565b905061012c611b0f846080015183612678565b10611b2a57611b27611b208461268a565b8290611c9d565b90505b6000611b3c846080015161924f611be8565b905080821115611b4a578091505b5092915050565b6000611b9383836040518060400160405280601e81526020017f536166654d6174683a207375627472616374696f6e206f766572666c6f7700008152506126e2565b9392505050565b600080611bab846080015184612678565b905061012c8110611bc0576000915050610682565b61067e83611be8611bdf61012c611bd986612710611d7c565b9061270e565b61271090611b51565b6000611b93612710611bd98585611d7c565b60408201516000908290610dac9015611c1257506127105b6000611c22866080015183611be8565b9050611c3f8660c001518760a00151611c9d90919063ffffffff16565b811015611c4b57600080fd5b80611c6b8760c0015161114a868a60a00151611c9d90919063ffffffff16565b1115611c9357611c908660c001516106788860a0015184611b5190919063ffffffff16565b92505b5090949350505050565b600082820183811015611b935760405162461bcd60e51b8152600401611cc2906156a0565b60405180910390fd5b611cd9603b54610dac611be8565b600a546040516370a0823160e01b81526001600160a01b03909116906370a0823190611d099030906004016155f1565b60206040518083038186803b158015611d2157600080fd5b505afa158015611d35573d6000803e3d6000fd5b505050506040513d601f19601f82011682018060405250810190611d599190615577565b11611d70576040805460ff19166001179055611ad6565b6040805460ff19169055565b600082611d8b57506000610682565b82820282848281611d9857fe5b0414611b935760405162461bcd60e51b8152600401611cc2906156d5565b60008060af831115611dca57506032611e70565b6096831115611ddb57506028611e70565b6087831115611dec57506023611e70565b6077831115611dfd5750601e611e70565b6064831115611e0e57506019611e70565b6059831115611e1f57506014611e70565b604b831115611e305750600f611e70565b603b831115611e415750600a611e70565b602d831115611e5257506005611e70565b6014831115611e6357506002611e70565b6009831115611e70575060015b611b938382611be8565b60006025611e8a600a6001611b51565b600a8110611e9457fe5b60020201546001600160a01b03161480611f355750600c60006025611ebb600a6001611b51565b600a8110611ec557fe5b60020201546001600160a01b031681526020810191909152604001600020600190810190602590611ef890600a90611b51565b600a8110611f0257fe5b600202016001015481548110611f1457fe5b9060005260206000209060110201600f0160010154816101c0015160200151115b1561217c57611f426154b2565b60005b600a811015612179576000602582600a8110611f5d57fe5b60020201546001600160a01b03161415611fc1578351602582600a8110611f8057fe5b6002020180546001600160a01b0319166001600160a01b03929092169190911790558251602582600a8110611fb157fe5b6002020160010181905550612179565b600c6000602583600a8110611fd257fe5b60020201546001600160a01b031681526020810191909152604001600020600101602582600a811061200057fe5b60020201600101548154811061201257fe5b9060005260206000209060110201600f0160010154836101c0015160200151111561217157602581600a811061204457fe5b604080518082019091526002919091029190910180546001600160a01b031682526001015460208201528451909250602582600a811061208057fe5b6002020180546001600160a01b0319166001600160a01b03929092169190911790558251602582600a81106120b157fe5b60020201600101819055506120c46154b2565b815b600a83101561216a5783516001600160a01b03166120e35761216a565b602581600a81106120f057fe5b604080518082019091526002919091029190910180546001600160a01b03168252600101546020820152915083602582600a811061212a57fe5b82516002919091029190910180546001600160a01b0319166001600160a01b039092169190911781556020909101516001918201559193508391016120c6565b5050612179565b600101611f45565b50505b5050565b610180810151516001600160a01b0316158015906121e9575061018081018051516001600160a01b03166000908152600c60209081526040909120915101516001909101805490919081106121d157fe5b600091825260209091206001601190920201015460ff165b1561217c57610180810151516001600160a01b03166000908152600c602052604081209061221984610320611be8565b90506122578183600101856101800151602001518154811061223757fe5b906000526020600020906011020160060154611c9d90919063ffffffff16565b82600101846101800151602001518154811061226f57fe5b6000918252602090912060066011909202010155603c546101a084015151146122aa57603c546101a084018051919091525160006020909101525b6101a0830151602001516122be9085611c9d565b6101a084015160209081019190915260408051808201825284546001600160a01b0316815260018501805483518186028101860190945280845261243194929387938581019391929060009084015b82821015612423576000848152602090819020604080516101e081018252601186029092018054835260018082015460ff80821615158688015261010091829004161515858501526002830154606086015260038301546080860152600483015460a0860152600583015460c0860152600683015460e086015260078301549085015260088201546101208501526009820154610140850152600a82015461016085015282518084018452600b8301546001600160a01b03168152600c8301548187015261018085015282518084018452600d8301548152600e830154818701526101a08501528251808401909352600f8201548352601090910154828501526101c0830191909152908352909201910161230d565b50505050815250508461274d565b60045461243e9082611c9d565b60045550505050565b6001810154610100900460ff161580156124655750600181015460ff165b61246e57600080fd5b600a5460038201546001600160a01b03909116906323b872dd9084903090612498906103e8611be8565b6040518463ffffffff1660e01b81526004016124b693929190615605565b602060405180830381600087803b1580156124d057600080fd5b505af11580156124e4573d6000803e3d6000fd5b505050506040513d601f19601f82011682018060405250810190612508919061553f565b61251157600080fd5b600101805461ff00191661010017905550565b60005b603954811015612589576000600d82600c811061254057fe5b6002020180546001600160a01b0319166001600160a01b03929092169190911790556000600d82600c811061257157fe5b60020201600101819055508080600101915050612527565b5060005b603a548110156125ef576000602582600a81106125a657fe5b6002020180546001600160a01b0319166001600160a01b03929092169190911790556000600d82600c81106125d757fe5b6002020160010181905550808060010191505061258d565b506000603e819055603f5542603d55565b600080612620836101200151846101000151611c9d90919063ffffffff16565b905060008360e001519050600061264c8560800151611be8612647886101400151426129dd565b6129f0565b9050600061265986612a23565b9050600061266d8261114a85818989611c9d565b979650505050505050565b6000611b9383611bd984612710611d7c565b6000806126ae61a8c0611bd9620151806126a88760600151426129dd565b90611d7c565b905060006126bd826002611d7c565b905060648111156126cc575060645b6126da846080015182611be8565b949350505050565b600081848411156127065760405162461bcd60e51b8152600401611cc2919061564d565b505050900390565b6000611b9383836040518060400160405280601a815260200179536166654d6174683a206469766973696f6e206279207a65726f60301b815250612ad5565b6023546001600160a01b031615806127b057506023546001600160a01b03166000908152600c6020526040902060245460019091018054909190811061278f57fe5b9060005260206000209060110201600d0160010154816101a0015160200151115b1561217c576127bd6154b2565b60005b600c811015612179576000600d82600c81106127d857fe5b60020201546001600160a01b0316141561282c578351600d82600c81106127fb57fe5b6002020180546001600160a01b0319166001600160a01b03929092169190911790558251600d82600c8110611fb157fe5b600c6000600d83600c811061283d57fe5b60020201546001600160a01b031681526020810191909152604001600020600101600d82600c811061286b57fe5b60020201600101548154811061287d57fe5b9060005260206000209060110201600d0160010154836101a001516020015111156129d557600d81600c81106128af57fe5b604080518082019091526002919091029190910180546001600160a01b031682526001015460208201528451909250600d82600c81106128eb57fe5b6002020180546001600160a01b0319166001600160a01b03929092169190911790558251600d82600c811061291c57fe5b600202016001018190555061292f6154b2565b815b600c83101561216a5783516001600160a01b031661294e5761216a565b600d81600c811061295b57fe5b604080518082019091526002919091029190910180546001600160a01b03168252600101546020820152915083600d82600c811061299557fe5b82516002919091029190910180546001600160a01b0319166001600160a01b03909216919091178155602090910151600191820155919350839101612931565b6001016127c0565b6000611b9362015180611bd98486611b51565b600061016d821115612a0157600080fd5b612a09612b0c565b8281518110612a1457fe5b60200260200101519050919050565b600a546040516370a0823160e01b81526000918291612ab69160fa91611bd9916001916001600160a01b03909116906370a0823190612a669030906004016155f1565b60206040518083038186803b158015612a7e57600080fd5b505afa158015612a92573d6000803e3d6000fd5b505050506040513d601f19601f820116820180604052508101906126a89190615577565b905061012c811115612ac7575061012c5b611b93836080015182611be8565b60008183612af65760405162461bcd60e51b8152600401611cc2919061564d565b506000838581612b0257fe5b0495945050505050565b606080612b1c61016d6001611c9d565b6001600160401b0381118015612b3157600080fd5b50604051908082528060200260200182016040528015612b5b578160200160208202803683370190505b509050600081600081518110612b6d57fe5b602002602001018181525050600181600181518110612b8857fe5b602002602001018181525050600281600281518110612ba357fe5b602002602001018181525050600381600381518110612bbe57fe5b602002602001018181525050600481600481518110612bd957fe5b602002602001018181525050600681600581518110612bf457fe5b602002602001018181525050600881600681518110612c0f57fe5b602002602001018181525050600a81600781518110612c2a57fe5b602002602001018181525050600d81600881518110612c4557fe5b602002602001018181525050601081600981518110612c6057fe5b602002602001018181525050601481600a81518110612c7b57fe5b602002602001018181525050601881600b81518110612c9657fe5b602002602001018181525050601c81600c81518110612cb157fe5b602002602001018181525050602181600d81518110612ccc57fe5b602002602001018181525050602681600e81518110612ce757fe5b602002602001018181525050602b81600f81518110612d0257fe5b602002602001018181525050603181601081518110612d1d57fe5b602002602001018181525050603781601181518110612d3857fe5b602002602001018181525050603d81601281518110612d5357fe5b602002602001018181525050604481601381518110612d6e57fe5b602002602001018181525050604b81601481518110612d8957fe5b602002602001018181525050605381601581518110612da457fe5b602002602001018181525050605b81601681518110612dbf57fe5b602002602001018181525050606381601781518110612dda57fe5b602002602001018181525050606c81601881518110612df557fe5b602002602001018181525050607581601981518110612e1057fe5b602002602001018181525050607f81601a81518110612e2b57fe5b602002602001018181525050608981601b81518110612e4657fe5b602002602001018181525050609381601c81518110612e6157fe5b602002602001018181525050609e81601d81518110612e7c57fe5b60200260200101818152505060a981601e81518110612e9757fe5b60200260200101818152505060b481601f81518110612eb257fe5b60200260200101818152505060c081602081518110612ecd57fe5b60200260200101818152505060cc81602181518110612ee857fe5b60200260200101818152505060d981602281518110612f0357fe5b60200260200101818152505060e681602381518110612f1e57fe5b60200260200101818152505060f381602481518110612f3957fe5b60200260200101818152505061010181602581518110612f5557fe5b60200260200101818152505061010f81602681518110612f7157fe5b60200260200101818152505061011e81602781518110612f8d57fe5b60200260200101818152505061012d81602881518110612fa957fe5b60200260200101818152505061013c81602981518110612fc557fe5b60200260200101818152505061014c81602a81518110612fe157fe5b60200260200101818152505061015c81602b81518110612ffd57fe5b60200260200101818152505061016d81602c8151811061301957fe5b60200260200101818152505061017e81602d8151811061303557fe5b60200260200101818152505061018f81602e8151811061305157fe5b6020026020010181815250506101a181602f8151811061306d57fe5b6020026020010181815250506101b38160308151811061308957fe5b6020026020010181815250506101c6816031815181106130a557fe5b6020026020010181815250506101d9816032815181106130c157fe5b6020026020010181815250506101ed816033815181106130dd57fe5b602002602001018181525050610201816034815181106130f957fe5b6020026020010181815250506102158160358151811061311557fe5b60200260200101818152505061022a8160368151811061313157fe5b60200260200101818152505061023f8160378151811061314d57fe5b6020026020010181815250506102558160388151811061316957fe5b60200260200101818152505061026b8160398151811061318557fe5b60200260200101818152505061028181603a815181106131a157fe5b60200260200101818152505061029881603b815181106131bd57fe5b6020026020010181815250506102af81603c815181106131d957fe5b6020026020010181815250506102c781603d815181106131f557fe5b6020026020010181815250506102df81603e8151811061321157fe5b6020026020010181815250506102f881603f8151811061322d57fe5b6020026020010181815250506103118160408151811061324957fe5b60200260200101818152505061032a8160418151811061326557fe5b6020026020010181815250506103448160428151811061328157fe5b60200260200101818152505061035e8160438151811061329d57fe5b602002602001018181525050610379816044815181106132b957fe5b602002602001018181525050610394816045815181106132d557fe5b6020026020010181815250506103b0816046815181106132f157fe5b6020026020010181815250506103cc8160478151811061330d57fe5b6020026020010181815250506103e98160488151811061332957fe5b6020026020010181815250506104068160498151811061334557fe5b60200260200101818152505061042481604a8151811061336157fe5b60200260200101818152505061044281604b8151811061337d57fe5b60200260200101818152505061046081604c8151811061339957fe5b60200260200101818152505061047f81604d815181106133b557fe5b60200260200101818152505061049e81604e815181106133d157fe5b6020026020010181815250506104be81604f815181106133ed57fe5b6020026020010181815250506104de8160508151811061340957fe5b6020026020010181815250506104ff8160518151811061342557fe5b6020026020010181815250506105208160528151811061344157fe5b6020026020010181815250506105428160538151811061345d57fe5b6020026020010181815250506105648160548151811061347957fe5b6020026020010181815250506105878160558151811061349557fe5b6020026020010181815250506105aa816056815181106134b157fe5b6020026020010181815250506105ce816057815181106134cd57fe5b6020026020010181815250506105f2816058815181106134e957fe5b6020026020010181815250506106168160598151811061350557fe5b60200260200101818152505061063b81605a8151811061352157fe5b60200260200101818152505061066081605b8151811061353d57fe5b60200260200101818152505061068681605c8151811061355957fe5b6020026020010181815250506106ac81605d8151811061357557fe5b6020026020010181815250506106d381605e8151811061359157fe5b6020026020010181815250506106fa81605f815181106135ad57fe5b602002602001018181525050610722816060815181106135c957fe5b60200260200101818152505061074a816061815181106135e557fe5b6020026020010181815250506107738160628151811061360157fe5b60200260200101818152505061079c8160638151811061361d57fe5b6020026020010181815250506107c68160648151811061363957fe5b6020026020010181815250506107f08160658151811061365557fe5b60200260200101818152505061081b8160668151811061367157fe5b6020026020010181815250506108468160678151811061368d57fe5b602002602001018181525050610872816068815181106136a957fe5b60200260200101818152505061089e816069815181106136c557fe5b6020026020010181815250506108cb81606a815181106136e157fe5b6020026020010181815250506108f881606b815181106136fd57fe5b60200260200101818152505061092681606c8151811061371957fe5b60200260200101818152505061095481606d8151811061373557fe5b60200260200101818152505061098381606e8151811061375157fe5b6020026020010181815250506109b281606f8151811061376d57fe5b6020026020010181815250506109e28160708151811061378957fe5b602002602001018181525050610a12816071815181106137a557fe5b602002602001018181525050610a43816072815181106137c157fe5b602002602001018181525050610a74816073815181106137dd57fe5b602002602001018181525050610aa6816074815181106137f957fe5b602002602001018181525050610ad88160758151811061381557fe5b602002602001018181525050610b0b8160768151811061383157fe5b602002602001018181525050610b3f8160778151811061384d57fe5b602002602001018181525050610b738160788151811061386957fe5b602002602001018181525050610ba88160798151811061388557fe5b602002602001018181525050610bdd81607a815181106138a157fe5b602002602001018181525050610c1381607b815181106138bd57fe5b602002602001018181525050610c4981607c815181106138d957fe5b602002602001018181525050610c8081607d815181106138f557fe5b602002602001018181525050610cb781607e8151811061391157fe5b602002602001018181525050610cef81607f8151811061392d57fe5b602002602001018181525050610d278160808151811061394957fe5b602002602001018181525050610d608160818151811061396557fe5b602002602001018181525050610d998160828151811061398157fe5b602002602001018181525050610dd38160838151811061399d57fe5b602002602001018181525050610e0e816084815181106139b957fe5b602002602001018181525050610e49816085815181106139d557fe5b602002602001018181525050610e85816086815181106139f157fe5b602002602001018181525050610ec181608781518110613a0d57fe5b602002602001018181525050610efe81608881518110613a2957fe5b602002602001018181525050610f3b81608981518110613a4557fe5b602002602001018181525050610f7981608a81518110613a6157fe5b602002602001018181525050610fb881608b81518110613a7d57fe5b602002602001018181525050610ff781608c81518110613a9957fe5b60200260200101818152505061103781608d81518110613ab557fe5b60200260200101818152505061107781608e81518110613ad157fe5b6020026020010181815250506110b881608f81518110613aed57fe5b6020026020010181815250506110f981609081518110613b0957fe5b60200260200101818152505061113b81609181518110613b2557fe5b60200260200101818152505061117e81609281518110613b4157fe5b6020026020010181815250506111c181609381518110613b5d57fe5b60200260200101818152505061120581609481518110613b7957fe5b60200260200101818152505061124981609581518110613b9557fe5b60200260200101818152505061128e81609681518110613bb157fe5b6020026020010181815250506112d381609781518110613bcd57fe5b60200260200101818152505061131981609881518110613be957fe5b60200260200101818152505061136081609981518110613c0557fe5b6020026020010181815250506113a781609a81518110613c2157fe5b6020026020010181815250506113ef81609b81518110613c3d57fe5b60200260200101818152505061143781609c81518110613c5957fe5b60200260200101818152505061148081609d81518110613c7557fe5b6020026020010181815250506114ca81609e81518110613c9157fe5b60200260200101818152505061151481609f81518110613cad57fe5b60200260200101818152505061155f8160a081518110613cc957fe5b6020026020010181815250506115ab8160a181518110613ce557fe5b6020026020010181815250506115f78160a281518110613d0157fe5b6020026020010181815250506116448160a381518110613d1d57fe5b6020026020010181815250506116918160a481518110613d3957fe5b6020026020010181815250506116df8160a581518110613d5557fe5b60200260200101818152505061172e8160a681518110613d7157fe5b60200260200101818152505061177d8160a781518110613d8d57fe5b6020026020010181815250506117cd8160a881518110613da957fe5b60200260200101818152505061181d8160a981518110613dc557fe5b60200260200101818152505061186e8160aa81518110613de157fe5b6020026020010181815250506118c08160ab81518110613dfd57fe5b6020026020010181815250506119128160ac81518110613e1957fe5b6020026020010181815250506119658160ad81518110613e3557fe5b6020026020010181815250506119b98160ae81518110613e5157fe5b602002602001018181525050611a0d8160af81518110613e6d57fe5b602002602001018181525050611a628160b081518110613e8957fe5b602002602001018181525050611ab88160b181518110613ea557fe5b602002602001018181525050611b0e8160b281518110613ec157fe5b602002602001018181525050611b658160b381518110613edd57fe5b602002602001018181525050611bbd8160b481518110613ef957fe5b602002602001018181525050611c158160b581518110613f1557fe5b602002602001018181525050611c6e8160b681518110613f3157fe5b602002602001018181525050611cc88160b781518110613f4d57fe5b602002602001018181525050611d228160b881518110613f6957fe5b602002602001018181525050611d7d8160b981518110613f8557fe5b602002602001018181525050611dd98160ba81518110613fa157fe5b602002602001018181525050611e358160bb81518110613fbd57fe5b602002602001018181525050611e928160bc81518110613fd957fe5b602002602001018181525050611ef08160bd81518110613ff557fe5b602002602001018181525050611f4e8160be8151811061401157fe5b602002602001018181525050611fad8160bf8151811061402d57fe5b60200260200101818152505061200d8160c08151811061404957fe5b60200260200101818152505061206d8160c18151811061406557fe5b6020026020010181815250506120ce8160c28151811061408157fe5b6020026020010181815250506121308160c38151811061409d57fe5b6020026020010181815250506121928160c4815181106140b957fe5b6020026020010181815250506121f58160c5815181106140d557fe5b6020026020010181815250506122598160c6815181106140f157fe5b6020026020010181815250506122bd8160c78151811061410d57fe5b6020026020010181815250506123228160c88151811061412957fe5b6020026020010181815250506123888160c98151811061414557fe5b6020026020010181815250506123ef8160ca8151811061416157fe5b6020026020010181815250506124568160cb8151811061417d57fe5b6020026020010181815250506124be8160cc8151811061419957fe5b6020026020010181815250506125278160cd815181106141b557fe5b6020026020010181815250506125908160ce815181106141d157fe5b6020026020010181815250506125fa8160cf815181106141ed57fe5b6020026020010181815250506126658160d08151811061420957fe5b6020026020010181815250506126d18160d18151811061422557fe5b60200260200101818152505061273d8160d28151811061424157fe5b6020026020010181815250506127aa8160d38151811061425d57fe5b6020026020010181815250506128188160d48151811061427957fe5b6020026020010181815250506128868160d58151811061429557fe5b6020026020010181815250506128f58160d6815181106142b157fe5b6020026020010181815250506129658160d7815181106142cd57fe5b6020026020010181815250506129d68160d8815181106142e957fe5b602002602001018181525050612a478160d98151811061430557fe5b602002602001018181525050612ab98160da8151811061432157fe5b602002602001018181525050612b2c8160db8151811061433d57fe5b602002602001018181525050612ba08160dc8151811061435957fe5b602002602001018181525050612c148160dd8151811061437557fe5b602002602001018181525050612c898160de8151811061439157fe5b602002602001018181525050612cff8160df815181106143ad57fe5b602002602001018181525050612d768160e0815181106143c957fe5b602002602001018181525050612ded8160e1815181106143e557fe5b602002602001018181525050612e658160e28151811061440157fe5b602002602001018181525050612ede8160e38151811061441d57fe5b602002602001018181525050612f588160e48151811061443957fe5b602002602001018181525050612fd38160e58151811061445557fe5b60200260200101818152505061304e8160e68151811061447157fe5b6020026020010181815250506130ca8160e78151811061448d57fe5b6020026020010181815250506131478160e8815181106144a957fe5b6020026020010181815250506131c58160e9815181106144c557fe5b6020026020010181815250506132438160ea815181106144e157fe5b6020026020010181815250506132c28160eb815181106144fd57fe5b6020026020010181815250506133428160ec8151811061451957fe5b6020026020010181815250506133c38160ed8151811061453557fe5b6020026020010181815250506134458160ee8151811061455157fe5b6020026020010181815250506134c78160ef8151811061456d57fe5b60200260200101818152505061354a8160f08151811061458957fe5b6020026020010181815250506135ce8160f1815181106145a557fe5b6020026020010181815250506136538160f2815181106145c157fe5b6020026020010181815250506136d98160f3815181106145dd57fe5b6020026020010181815250506137608160f4815181106145f957fe5b6020026020010181815250506137e78160f58151811061461557fe5b60200260200101818152505061386f8160f68151811061463157fe5b6020026020010181815250506138f88160f78151811061464d57fe5b6020026020010181815250506139828160f88151811061466957fe5b602002602001018181525050613a0d8160f98151811061468557fe5b602002602001018181525050613a998160fa815181106146a157fe5b602002602001018181525050613b258160fb815181106146bd57fe5b602002602001018181525050613bb28160fc815181106146d957fe5b602002602001018181525050613c408160fd815181106146f557fe5b602002602001018181525050613ccf8160fe8151811061471157fe5b602002602001018181525050613d5f8160ff8151811061472d57fe5b602002602001018181525050613df0816101008151811061474a57fe5b602002602001018181525050613e81816101018151811061476757fe5b602002602001018181525050613f13816101028151811061478457fe5b602002602001018181525050613fa681610103815181106147a157fe5b60200260200101818152505061403a81610104815181106147be57fe5b6020026020010181815250506140cf81610105815181106147db57fe5b60200260200101818152505061416581610106815181106147f857fe5b6020026020010181815250506141fc816101078151811061481557fe5b602002602001018181525050614294816101088151811061483257fe5b60200260200101818152505061432c816101098151811061484f57fe5b6020026020010181815250506143c58161010a8151811061486c57fe5b60200260200101818152505061445f8161010b8151811061488957fe5b6020026020010181815250506144fa8161010c815181106148a657fe5b6020026020010181815250506145968161010d815181106148c357fe5b6020026020010181815250506146338161010e815181106148e057fe5b6020026020010181815250506146d18161010f815181106148fd57fe5b602002602001018181525050614770816101108151811061491a57fe5b602002602001018181525050614810816101118151811061493757fe5b6020026020010181815250506148b0816101128151811061495457fe5b602002602001018181525050614951816101138151811061497157fe5b6020026020010181815250506149f3816101148151811061498e57fe5b602002602001018181525050614a9681610115815181106149ab57fe5b602002602001018181525050614b3a81610116815181106149c857fe5b602002602001018181525050614bdf81610117815181106149e557fe5b602002602001018181525050614c858161011881518110614a0257fe5b602002602001018181525050614d2c8161011981518110614a1f57fe5b602002602001018181525050614dd48161011a81518110614a3c57fe5b602002602001018181525050614e7d8161011b81518110614a5957fe5b602002602001018181525050614f278161011c81518110614a7657fe5b602002602001018181525050614fd28161011d81518110614a9357fe5b60200260200101818152505061507e8161011e81518110614ab057fe5b60200260200101818152505061512b8161011f81518110614acd57fe5b6020026020010181815250506151d98161012081518110614aea57fe5b6020026020010181815250506152878161012181518110614b0757fe5b6020026020010181815250506153368161012281518110614b2457fe5b6020026020010181815250506153e68161012381518110614b4157fe5b6020026020010181815250506154978161012481518110614b5e57fe5b6020026020010181815250506155498161012581518110614b7b57fe5b6020026020010181815250506155fc8161012681518110614b9857fe5b6020026020010181815250506156b08161012781518110614bb557fe5b6020026020010181815250506157658161012881518110614bd257fe5b60200260200101818152505061581b8161012981518110614bef57fe5b6020026020010181815250506158d28161012a81518110614c0c57fe5b60200260200101818152505061598a8161012b81518110614c2957fe5b602002602001018181525050615a438161012c81518110614c4657fe5b602002602001018181525050615afd8161012d81518110614c6357fe5b602002602001018181525050615bb88161012e81518110614c8057fe5b602002602001018181525050615c748161012f81518110614c9d57fe5b602002602001018181525050615d318161013081518110614cba57fe5b602002602001018181525050615def8161013181518110614cd757fe5b602002602001018181525050615eae8161013281518110614cf457fe5b602002602001018181525050615f6e8161013381518110614d1157fe5b60200260200101818152505061602f8161013481518110614d2e57fe5b6020026020010181815250506160f18161013581518110614d4b57fe5b6020026020010181815250506161b48161013681518110614d6857fe5b6020026020010181815250506162788161013781518110614d8557fe5b60200260200101818152505061633d8161013881518110614da257fe5b6020026020010181815250506164038161013981518110614dbf57fe5b6020026020010181815250506164cb8161013a81518110614ddc57fe5b6020026020010181815250506165948161013b81518110614df957fe5b60200260200101818152505061665e8161013c81518110614e1657fe5b6020026020010181815250506167298161013d81518110614e3357fe5b6020026020010181815250506167f58161013e81518110614e5057fe5b6020026020010181815250506168c28161013f81518110614e6d57fe5b6020026020010181815250506169908161014081518110614e8a57fe5b602002602001018181525050616a5f8161014181518110614ea757fe5b602002602001018181525050616b2f8161014281518110614ec457fe5b602002602001018181525050616c008161014381518110614ee157fe5b602002602001018181525050616cd28161014481518110614efe57fe5b602002602001018181525050616da58161014581518110614f1b57fe5b602002602001018181525050616e798161014681518110614f3857fe5b602002602001018181525050616f4e8161014781518110614f5557fe5b6020026020010181815250506170258161014881518110614f7257fe5b6020026020010181815250506170fd8161014981518110614f8f57fe5b6020026020010181815250506171d68161014a81518110614fac57fe5b6020026020010181815250506172b08161014b81518110614fc957fe5b60200260200101818152505061738b8161014c81518110614fe657fe5b6020026020010181815250506174678161014d8151811061500357fe5b6020026020010181815250506175448161014e8151811061502057fe5b6020026020010181815250506176228161014f8151811061503d57fe5b602002602001018181525050617701816101508151811061505a57fe5b6020026020010181815250506177e2816101518151811061507757fe5b6020026020010181815250506178c4816101528151811061509457fe5b6020026020010181815250506179a781610153815181106150b157fe5b602002602001018181525050617a8b81610154815181106150ce57fe5b602002602001018181525050617b7081610155815181106150eb57fe5b602002602001018181525050617c56816101568151811061510857fe5b602002602001018181525050617d3d816101578151811061512557fe5b602002602001018181525050617e26816101588151811061514257fe5b602002602001018181525050617f10816101598151811061515f57fe5b602002602001018181525050617ffb8161015a8151811061517c57fe5b6020026020010181815250506180e78161015b8151811061519957fe5b6020026020010181815250506181d48161015c815181106151b657fe5b6020026020010181815250506182c38161015d815181106151d357fe5b6020026020010181815250506183b38161015e815181106151f057fe5b6020026020010181815250506184a48161015f8151811061520d57fe5b602002602001018181525050618596816101608151811061522a57fe5b602002602001018181525050618689816101618151811061524757fe5b60200260200101818152505061877d816101628151811061526457fe5b602002602001018181525050618873816101638151811061528157fe5b60200260200101818152505061896a816101648151811061529e57fe5b602002602001018181525050618a6281610165815181106152bb57fe5b602002602001018181525050618b5b81610166815181106152d857fe5b602002602001018181525050618c5681610167815181106152f557fe5b602002602001018181525050618d52816101688151811061531257fe5b602002602001018181525050618e4f816101698151811061532f57fe5b602002602001018181525050618f4d8161016a8151811061534c57fe5b60200260200101818152505061904c8161016b8151811061536957fe5b60200260200101818152505061914d8161016c8151811061538657fe5b60200260200101818152505061924f8161016d815181106153a357fe5b6020908102919091010152905090565b60408051808201909152600081526060602082015290565b604051806101400160405280600a905b6153e36154b2565b8152602001906001900390816153db5790505090565b604051806101800160405280600c905b6154116154b2565b8152602001906001900390816154095790505090565b604051806101e00160405280600081526020016000151581526020016000151581526020016000815260200160008152602001600081526020016000815260200160008152602001600081526020016000815260200160008152602001600081526020016154936154b2565b81526020016154a06154c9565b81526020016154ad6154c9565b905290565b604080518082019091526000808252602082015290565b604051806040016040528060008152602001600081525090565b80356001600160a01b038116811461068257600080fd5b60006020828403121561550b578081fd5b611b9383836154e3565b60008060408385031215615527578081fd5b61553184846154e3565b946020939093013593505050565b600060208284031215615550578081fd5b81518015158114611b93578182fd5b600060208284031215615570578081fd5b5035919050565b600060208284031215615588578081fd5b5051919050565b6000806000606084860312156155a3578081fd5b833592506155b485602086016154e3565b9150604084013590509250925092565b15159052565b80516001600160a01b03168252602090810151910152565b80518252602090810151910152565b6001600160a01b0391909116815260200190565b6001600160a01b039384168152919092166020820152604081019190915260600190565b6001600160a01b03929092168252602082015260400190565b901515815260200190565b6000602080835283518082850152825b818110156156795785810183015185820160400152820161565d565b8181111561568a5783604083870101525b50601f01601f1916929092016040019392505050565b6020808252601b908201527a536166654d6174683a206164646974696f6e206f766572666c6f7760281b604082015260600190565b60208082526021908201527f536166654d6174683a206d756c7469706c69636174696f6e206f766572666c6f6040820152607760f81b606082015260800190565b602080825282516001600160a01b031682820152828101516040808401819052815160608086018290526000949390926080929185019183880190875b8181101561583157845180518452888101516157718a8601826155c4565b5084810151615782868601826155c4565b508088015184890152868101518785015260a0808201519085015260c0808201519085015260e080820151908501526101008082015190850152610120808201519085015261014080820151908501526101608082015190850152610180808201516157f0828701826155ca565b50506101a08101516101c0615807818701836155e2565b9190910151905061581c6102008501826155e2565b50938701936102409290920191600101615753565b50909998505050505050505050565b90815260200190565b9b8c5299151560208c015260408b019890985260608a0196909652608089019490945260a088019290925260c087015260e08601526101008501526101208401526101408301526101608201526101800190565b6000610600820190508782526020878184015260408781850152866060850152608084018660005b600a8110156158e9576158d98383516155ca565b91830191908401906001016158c5565b50505061030084018560005b600c811015615919576159098383516155ca565b91830191908401906001016158f5565b505050505097965050505050505056fea2646970667358221220265d8e57137082104a66250f3d40433d47df4b5782065c6fccb5ee3c08e3840f64736f6c634300060c0033",
  "compiler": {
    "name": "solc",
    "version": "0.6.12+commit.27d51765.Emscripten.clang",
    "optimizer": {
      "enabled": true,
      "runs": 1
    },
    "evmVersion": "petersburg"
  }
}