{
  "fileName": "FourRXFinance.sol",
  "contractName": "FourRXFinance",
  "source": "// SPDX-License-Identifier: MIT\npragma solidity ^0.6.12;\npragma experimental ABIEncoderV2;\n\nimport \"@openzeppelin/contracts/token/ERC20/IERC20.sol\";\nimport \"./Insurance.sol\";\n\ncontract FourRXFinance is Insurance {\n\n    constructor(address fourRXTokenAddress) public {\n        fourRXToken = IERC20(fourRXTokenAddress);\n\n        refPoolBonuses.push(2000);\n        refPoolBonuses.push(1700);\n        refPoolBonuses.push(1400);\n        refPoolBonuses.push(1100);\n        refPoolBonuses.push(1000);\n        refPoolBonuses.push(700);\n        refPoolBonuses.push(600);\n        refPoolBonuses.push(500);\n        refPoolBonuses.push(400);\n        refPoolBonuses.push(300);\n        refPoolBonuses.push(200);\n        refPoolBonuses.push(100);\n\n        sponsorPoolBonuses.push(3000);\n        sponsorPoolBonuses.push(2000);\n        sponsorPoolBonuses.push(1200);\n        sponsorPoolBonuses.push(1000);\n        sponsorPoolBonuses.push(800);\n        sponsorPoolBonuses.push(700);\n        sponsorPoolBonuses.push(600);\n        sponsorPoolBonuses.push(400);\n        sponsorPoolBonuses.push(200);\n        sponsorPoolBonuses.push(100);\n\n        _resetPools();\n\n        poolCycle = 0;\n    }\n\n    function deposit(uint amount, address uplinkAddress, uint uplinkId) external {\n        require(\n            (users[uplinkAddress].wallet == uplinkAddress && users[uplinkAddress].stakes[uplinkId].active) ||\n            uplinkAddress == address(0)\n        ); // Either uplink must be registered and be a active deposit, 0 address\n\n        User storage user = users[msg.sender];\n\n        if (users[msg.sender].stakes.length > 0) {\n            require(amount > users[msg.sender].stakes[user.stakes.length - 1].deposit.mul(2)); // deposit amount must be greater 2x then last deposit\n        }\n\n        require(fourRXToken.transferFrom(msg.sender, address(this), amount));\n\n        uint depositReward = _calcDepositRewards(amount);\n\n        Stake memory stake;\n\n        user.wallet = msg.sender;\n\n        stake.id = user.stakes.length;\n        stake.active = true;\n        stake.interestCountFrom = block.timestamp;\n        stake.holdFrom = block.timestamp;\n\n        stake.deposit = amount.sub(_calcPercentage(amount, LP_FEE_BP)).add(depositReward); // Deduct LP Commission + add deposit rewards\n        stake.uplink.uplinkAddress = uplinkAddress;\n        stake.uplink.uplinkInvestmentId = uplinkId;\n\n        stake.sponsorPool.cycle = poolCycle;\n        stake.sponsorPool.amount = amount;\n\n        _updateSponsorPoolUsers(user, stake);\n\n        _distributeReferralReward(amount, stake);\n\n        user.stakes.push(stake);\n\n        refPoolBalance = refPoolBalance.add(_calcPercentage(amount, REF_POOL_FEE_BP));\n        sponsorPoolBalance = sponsorPoolBalance.add(_calcPercentage(amount, SPONSOR_POOL_FEE_BP));\n\n        drawPool();\n\n        fourRXToken.transfer(devAddress, _calcPercentage(amount, DEV_FEE_BP));\n\n        uint currentContractBalance = fourRXToken.balanceOf(address(this));\n\n        if (currentContractBalance > maxContractBalance) {\n            maxContractBalance = currentContractBalance;\n        }\n\n        totalDeposits = totalDeposits.add(amount);\n        totalInvestments = totalInvestments.add(1);\n        totalActiveInvestments = totalActiveInvestments.add(1);\n        totalDepositRewards = totalDepositRewards.add(depositReward);\n\n        emit Deposit(msg.sender, uplinkAddress, amount);\n    }\n\n\n    function balanceOf(address _userAddress, uint stakeId) external view returns (uint) {\n        require(users[_userAddress].wallet == _userAddress);\n        User memory user = users[_userAddress];\n\n        return _calcRewards(user.stakes[stakeId]).sub(user.stakes[stakeId].withdrawn);\n    }\n\n    function withdraw(uint stakeId) external {\n        User storage user = users[msg.sender];\n        Stake storage stake = user.stakes[stakeId];\n        require(user.wallet == msg.sender && stake.active); // stake should be active\n\n        require(stake.lastWithdrawalAt + 1 days < block.timestamp); // we only allow one withdrawal each day\n\n        uint availableAmount = _calcRewards(stake).sub(stake.withdrawn).sub(stake.penalty);\n\n        require(availableAmount > 0);\n\n        uint penalty = _calcPenalty(stake, availableAmount);\n\n        if (penalty == 0) {\n            availableAmount = availableAmount.sub(_calcPercentage(stake.deposit, REWARD_THRESHOLD_BP)); // Only allow withdrawal if available is more then 10% of base\n\n            uint maxAllowedWithdrawal = _calcPercentage(stake.deposit, MAX_WITHDRAWAL_OVER_REWARD_THRESHOLD_BP);\n\n            if (availableAmount > maxAllowedWithdrawal) {\n                availableAmount = maxAllowedWithdrawal;\n            }\n        }\n\n        if (isInInsuranceState) {\n            availableAmount = getInsuredAvailableAmount(stake, availableAmount);\n        }\n\n        availableAmount = availableAmount.sub(penalty);\n\n        fourRXToken.transfer(user.wallet, availableAmount);\n\n        stake.withdrawn = stake.withdrawn.add(availableAmount);\n        stake.lastWithdrawalAt = block.timestamp;\n        stake.holdFrom = block.timestamp;\n\n        stake.penalty = stake.penalty.add(penalty);\n\n        totalPenalty = totalPenalty.add(penalty);\n\n        if (stake.withdrawn >= _calcPercentage(stake.deposit, MAX_CONTRACT_REWARD_BP)) {\n            stake.active = false; // if stake has withdrawn equals to or more then the max amount, then mark stake in-active\n            totalActiveInvestments = totalActiveInvestments.sub(1);\n        }\n\n        checkForBaseInsuranceTrigger();\n\n        totalWithdrawn = totalWithdrawn.add(availableAmount);\n\n        emit Withdraw(user.wallet, availableAmount);\n    }\n\n    function exitProgram(uint stakeId) external {\n        User storage user = users[msg.sender];\n        require(user.wallet == msg.sender);\n        Stake storage stake = user.stakes[stakeId];\n        uint availableAmount = stake.deposit;\n        uint penaltyAmount = _calcPercentage(stake.deposit, EXIT_PENALTY_BP);\n\n        availableAmount = availableAmount.sub(penaltyAmount);\n\n        uint withdrawn = stake.withdrawn.add(stake.penalty);\n        require(withdrawn <= availableAmount);\n        availableAmount = availableAmount.sub(withdrawn); // @todo: discuss this new implementation with Assaf\n\n        fourRXToken.transfer(user.wallet, availableAmount);\n\n        stake.active = false;\n        stake.withdrawn = stake.withdrawn.add(availableAmount);\n        stake.penalty = stake.penalty.add(penaltyAmount);\n\n        totalActiveInvestments = totalActiveInvestments.sub(1);\n        totalExited = totalExited.add(1);\n\n        totalWithdrawn = totalWithdrawn.add(availableAmount);\n        totalPenalty = totalPenalty.add(penaltyAmount);\n\n        emit Exited(user.wallet);\n    }\n\n    function insureInvestment(uint stakeId) external {\n        User storage user = users[msg.sender];\n        require(user.wallet == msg.sender);\n        Stake storage stake = user.stakes[stakeId];\n        _insureInvestment(stake);\n    }\n\n    function getUser(address userAddress) external view returns (User memory) {\n        return users[userAddress];\n    }\n\n    function getPoolInfo() external view returns (uint, uint, uint, uint, PoolUser[10] memory, PoolUser[12] memory) {\n        return (poolDrewAt, poolCycle, sponsorPoolBalance, refPoolBalance, sponsorPoolUsers, refPoolUsers);\n    }\n\n    function getContractInfo() external view returns (uint, uint, uint, uint, uint, uint, uint, uint, uint, uint, uint) {\n        return (maxContractBalance, totalDeposits, totalWithdrawn, totalInvestments, totalActiveInvestments, totalRefRewards, totalRefPoolRewards, totalSponsorPoolRewards, totalDepositRewards, totalPenalty, totalExited);\n    }\n}\n",
  "sourcePath": "contracts/FourRXFinance.sol",
  "abi": [
    {
      "inputs": [
        {
          "internalType": "address",
          "name": "fourRXTokenAddress",
          "type": "address"
        }
      ],
      "stateMutability": "nonpayable",
      "type": "constructor"
    },
    {
      "anonymous": false,
      "inputs": [
        {
          "indexed": false,
          "internalType": "address",
          "name": "user",
          "type": "address"
        },
        {
          "indexed": false,
          "internalType": "address",
          "name": "uplink",
          "type": "address"
        },
        {
          "indexed": false,
          "internalType": "uint256",
          "name": "amount",
          "type": "uint256"
        }
      ],
      "name": "Deposit",
      "type": "event"
    },
    {
      "anonymous": false,
      "inputs": [
        {
          "indexed": false,
          "internalType": "address",
          "name": "user",
          "type": "address"
        }
      ],
      "name": "Exited",
      "type": "event"
    },
    {
      "anonymous": false,
      "inputs": [
        {
          "indexed": false,
          "internalType": "address",
          "name": "user",
          "type": "address"
        },
        {
          "indexed": false,
          "internalType": "uint256",
          "name": "amount",
          "type": "uint256"
        }
      ],
      "name": "ReInvest",
      "type": "event"
    },
    {
      "anonymous": false,
      "inputs": [
        {
          "indexed": false,
          "internalType": "address",
          "name": "user",
          "type": "address"
        },
        {
          "indexed": false,
          "internalType": "uint256",
          "name": "amount",
          "type": "uint256"
        }
      ],
      "name": "Withdraw",
      "type": "event"
    },
    {
      "inputs": [],
      "name": "CONTRACT_BONUS_PER_UNIT_BP",
      "outputs": [
        {
          "internalType": "uint256",
          "name": "",
          "type": "uint256"
        }
      ],
      "stateMutability": "view",
      "type": "function"
    },
    {
      "inputs": [],
      "name": "CONTRACT_BONUS_UNIT",
      "outputs": [
        {
          "internalType": "uint256",
          "name": "",
          "type": "uint256"
        }
      ],
      "stateMutability": "view",
      "type": "function"
    },
    {
      "inputs": [],
      "name": "DAY",
      "outputs": [
        {
          "internalType": "uint256",
          "name": "",
          "type": "uint256"
        }
      ],
      "stateMutability": "view",
      "type": "function"
    },
    {
      "inputs": [],
      "name": "DEV_FEE_BP",
      "outputs": [
        {
          "internalType": "uint256",
          "name": "",
          "type": "uint256"
        }
      ],
      "stateMutability": "view",
      "type": "function"
    },
    {
      "inputs": [],
      "name": "EXIT_PENALTY_BP",
      "outputs": [
        {
          "internalType": "uint256",
          "name": "",
          "type": "uint256"
        }
      ],
      "stateMutability": "view",
      "type": "function"
    },
    {
      "inputs": [],
      "name": "HOLD_BONUS_PER_UNIT_BP",
      "outputs": [
        {
          "internalType": "uint256",
          "name": "",
          "type": "uint256"
        }
      ],
      "stateMutability": "view",
      "type": "function"
    },
    {
      "inputs": [],
      "name": "HOLD_BONUS_UNIT",
      "outputs": [
        {
          "internalType": "uint256",
          "name": "",
          "type": "uint256"
        }
      ],
      "stateMutability": "view",
      "type": "function"
    },
    {
      "inputs": [],
      "name": "LP_FEE_BP",
      "outputs": [
        {
          "internalType": "uint256",
          "name": "",
          "type": "uint256"
        }
      ],
      "stateMutability": "view",
      "type": "function"
    },
    {
      "inputs": [],
      "name": "MAX_CONTRACT_BONUS_BP",
      "outputs": [
        {
          "internalType": "uint256",
          "name": "",
          "type": "uint256"
        }
      ],
      "stateMutability": "view",
      "type": "function"
    },
    {
      "inputs": [],
      "name": "MAX_CONTRACT_REWARD_BP",
      "outputs": [
        {
          "internalType": "uint256",
          "name": "",
          "type": "uint256"
        }
      ],
      "stateMutability": "view",
      "type": "function"
    },
    {
      "inputs": [],
      "name": "MAX_HOLD_BONUS_BP",
      "outputs": [
        {
          "internalType": "uint256",
          "name": "",
          "type": "uint256"
        }
      ],
      "stateMutability": "view",
      "type": "function"
    },
    {
      "inputs": [],
      "name": "MAX_WITHDRAWAL_OVER_REWARD_THRESHOLD_BP",
      "outputs": [
        {
          "internalType": "uint256",
          "name": "",
          "type": "uint256"
        }
      ],
      "stateMutability": "view",
      "type": "function"
    },
    {
      "inputs": [],
      "name": "REF_COMMISSION_BP",
      "outputs": [
        {
          "internalType": "uint256",
          "name": "",
          "type": "uint256"
        }
      ],
      "stateMutability": "view",
      "type": "function"
    },
    {
      "inputs": [],
      "name": "REF_POOL_FEE_BP",
      "outputs": [
        {
          "internalType": "uint256",
          "name": "",
          "type": "uint256"
        }
      ],
      "stateMutability": "view",
      "type": "function"
    },
    {
      "inputs": [],
      "name": "REWARD_THRESHOLD_BP",
      "outputs": [
        {
          "internalType": "uint256",
          "name": "",
          "type": "uint256"
        }
      ],
      "stateMutability": "view",
      "type": "function"
    },
    {
      "inputs": [],
      "name": "SPONSOR_POOL_FEE_BP",
      "outputs": [
        {
          "internalType": "uint256",
          "name": "",
          "type": "uint256"
        }
      ],
      "stateMutability": "view",
      "type": "function"
    },
    {
      "inputs": [
        {
          "internalType": "address",
          "name": "_userAddress",
          "type": "address"
        },
        {
          "internalType": "uint256",
          "name": "stakeId",
          "type": "uint256"
        }
      ],
      "name": "balanceOf",
      "outputs": [
        {
          "internalType": "uint256",
          "name": "",
          "type": "uint256"
        }
      ],
      "stateMutability": "view",
      "type": "function"
    },
    {
      "inputs": [
        {
          "internalType": "uint256",
          "name": "amount",
          "type": "uint256"
        },
        {
          "internalType": "address",
          "name": "uplinkAddress",
          "type": "address"
        },
        {
          "internalType": "uint256",
          "name": "uplinkId",
          "type": "uint256"
        }
      ],
      "name": "deposit",
      "outputs": [],
      "stateMutability": "nonpayable",
      "type": "function"
    },
    {
      "inputs": [
        {
          "internalType": "uint256",
          "name": "",
          "type": "uint256"
        }
      ],
      "name": "depositBonuses",
      "outputs": [
        {
          "internalType": "uint256",
          "name": "",
          "type": "uint256"
        }
      ],
      "stateMutability": "view",
      "type": "function"
    },
    {
      "inputs": [],
      "name": "devAddress",
      "outputs": [
        {
          "internalType": "address",
          "name": "",
          "type": "address"
        }
      ],
      "stateMutability": "view",
      "type": "function"
    },
    {
      "inputs": [
        {
          "internalType": "uint256",
          "name": "stakeId",
          "type": "uint256"
        }
      ],
      "name": "exitProgram",
      "outputs": [],
      "stateMutability": "nonpayable",
      "type": "function"
    },
    {
      "inputs": [],
      "name": "fourRXToken",
      "outputs": [
        {
          "internalType": "contract IERC20",
          "name": "",
          "type": "address"
        }
      ],
      "stateMutability": "view",
      "type": "function"
    },
    {
      "inputs": [],
      "name": "getContractInfo",
      "outputs": [
        {
          "internalType": "uint256",
          "name": "",
          "type": "uint256"
        },
        {
          "internalType": "uint256",
          "name": "",
          "type": "uint256"
        },
        {
          "internalType": "uint256",
          "name": "",
          "type": "uint256"
        },
        {
          "internalType": "uint256",
          "name": "",
          "type": "uint256"
        },
        {
          "internalType": "uint256",
          "name": "",
          "type": "uint256"
        },
        {
          "internalType": "uint256",
          "name": "",
          "type": "uint256"
        },
        {
          "internalType": "uint256",
          "name": "",
          "type": "uint256"
        },
        {
          "internalType": "uint256",
          "name": "",
          "type": "uint256"
        },
        {
          "internalType": "uint256",
          "name": "",
          "type": "uint256"
        },
        {
          "internalType": "uint256",
          "name": "",
          "type": "uint256"
        },
        {
          "internalType": "uint256",
          "name": "",
          "type": "uint256"
        }
      ],
      "stateMutability": "view",
      "type": "function"
    },
    {
      "inputs": [],
      "name": "getPoolInfo",
      "outputs": [
        {
          "internalType": "uint256",
          "name": "",
          "type": "uint256"
        },
        {
          "internalType": "uint256",
          "name": "",
          "type": "uint256"
        },
        {
          "internalType": "uint256",
          "name": "",
          "type": "uint256"
        },
        {
          "internalType": "uint256",
          "name": "",
          "type": "uint256"
        },
        {
          "components": [
            {
              "internalType": "address",
              "name": "user",
              "type": "address"
            },
            {
              "internalType": "uint256",
              "name": "stakeId",
              "type": "uint256"
            }
          ],
          "internalType": "struct SharedVariables.PoolUser[10]",
          "name": "",
          "type": "tuple[10]"
        },
        {
          "components": [
            {
              "internalType": "address",
              "name": "user",
              "type": "address"
            },
            {
              "internalType": "uint256",
              "name": "stakeId",
              "type": "uint256"
            }
          ],
          "internalType": "struct SharedVariables.PoolUser[12]",
          "name": "",
          "type": "tuple[12]"
        }
      ],
      "stateMutability": "view",
      "type": "function"
    },
    {
      "inputs": [
        {
          "internalType": "address",
          "name": "userAddress",
          "type": "address"
        }
      ],
      "name": "getUser",
      "outputs": [
        {
          "components": [
            {
              "internalType": "address",
              "name": "wallet",
              "type": "address"
            },
            {
              "components": [
                {
                  "internalType": "uint256",
                  "name": "id",
                  "type": "uint256"
                },
                {
                  "internalType": "bool",
                  "name": "active",
                  "type": "bool"
                },
                {
                  "internalType": "bool",
                  "name": "optInInsured",
                  "type": "bool"
                },
                {
                  "internalType": "uint256",
                  "name": "holdFrom",
                  "type": "uint256"
                },
                {
                  "internalType": "uint256",
                  "name": "deposit",
                  "type": "uint256"
                },
                {
                  "internalType": "uint256",
                  "name": "withdrawn",
                  "type": "uint256"
                },
                {
                  "internalType": "uint256",
                  "name": "penalty",
                  "type": "uint256"
                },
                {
                  "internalType": "uint256",
                  "name": "refCommission",
                  "type": "uint256"
                },
                {
                  "internalType": "uint256",
                  "name": "refPoolRewards",
                  "type": "uint256"
                },
                {
                  "internalType": "uint256",
                  "name": "sponsorPoolRewards",
                  "type": "uint256"
                },
                {
                  "internalType": "uint256",
                  "name": "interestCountFrom",
                  "type": "uint256"
                },
                {
                  "internalType": "uint256",
                  "name": "lastWithdrawalAt",
                  "type": "uint256"
                },
                {
                  "components": [
                    {
                      "internalType": "address",
                      "name": "uplinkAddress",
                      "type": "address"
                    },
                    {
                      "internalType": "uint256",
                      "name": "uplinkInvestmentId",
                      "type": "uint256"
                    }
                  ],
                  "internalType": "struct SharedVariables.Uplink",
                  "name": "uplink",
                  "type": "tuple"
                },
                {
                  "components": [
                    {
                      "internalType": "uint256",
                      "name": "cycle",
                      "type": "uint256"
                    },
                    {
                      "internalType": "uint256",
                      "name": "amount",
                      "type": "uint256"
                    }
                  ],
                  "internalType": "struct SharedVariables.Pool",
                  "name": "refPool",
                  "type": "tuple"
                },
                {
                  "components": [
                    {
                      "internalType": "uint256",
                      "name": "cycle",
                      "type": "uint256"
                    },
                    {
                      "internalType": "uint256",
                      "name": "amount",
                      "type": "uint256"
                    }
                  ],
                  "internalType": "struct SharedVariables.Pool",
                  "name": "sponsorPool",
                  "type": "tuple"
                }
              ],
              "internalType": "struct SharedVariables.Stake[]",
              "name": "stakes",
              "type": "tuple[]"
            }
          ],
          "internalType": "struct SharedVariables.User",
          "name": "",
          "type": "tuple"
        }
      ],
      "stateMutability": "view",
      "type": "function"
    },
    {
      "inputs": [
        {
          "internalType": "uint256",
          "name": "stakeId",
          "type": "uint256"
        }
      ],
      "name": "insureInvestment",
      "outputs": [],
      "stateMutability": "nonpayable",
      "type": "function"
    },
    {
      "inputs": [],
      "name": "isInInsuranceState",
      "outputs": [
        {
          "internalType": "bool",
          "name": "",
          "type": "bool"
        }
      ],
      "stateMutability": "view",
      "type": "function"
    },
    {
      "inputs": [],
      "name": "maxContractBalance",
      "outputs": [
        {
          "internalType": "uint256",
          "name": "",
          "type": "uint256"
        }
      ],
      "stateMutability": "view",
      "type": "function"
    },
    {
      "inputs": [],
      "name": "poolCycle",
      "outputs": [
        {
          "internalType": "uint256",
          "name": "",
          "type": "uint256"
        }
      ],
      "stateMutability": "view",
      "type": "function"
    },
    {
      "inputs": [],
      "name": "poolDrewAt",
      "outputs": [
        {
          "internalType": "uint256",
          "name": "",
          "type": "uint256"
        }
      ],
      "stateMutability": "view",
      "type": "function"
    },
    {
      "inputs": [],
      "name": "refPoolBalance",
      "outputs": [
        {
          "internalType": "uint256",
          "name": "",
          "type": "uint256"
        }
      ],
      "stateMutability": "view",
      "type": "function"
    },
    {
      "inputs": [
        {
          "internalType": "uint256",
          "name": "",
          "type": "uint256"
        }
      ],
      "name": "refPoolBonuses",
      "outputs": [
        {
          "internalType": "uint256",
          "name": "",
          "type": "uint256"
        }
      ],
      "stateMutability": "view",
      "type": "function"
    },
    {
      "inputs": [
        {
          "internalType": "uint256",
          "name": "",
          "type": "uint256"
        }
      ],
      "name": "refPoolUsers",
      "outputs": [
        {
          "internalType": "address",
          "name": "user",
          "type": "address"
        },
        {
          "internalType": "uint256",
          "name": "stakeId",
          "type": "uint256"
        }
      ],
      "stateMutability": "view",
      "type": "function"
    },
    {
      "inputs": [],
      "name": "sponsorPoolBalance",
      "outputs": [
        {
          "internalType": "uint256",
          "name": "",
          "type": "uint256"
        }
      ],
      "stateMutability": "view",
      "type": "function"
    },
    {
      "inputs": [
        {
          "internalType": "uint256",
          "name": "",
          "type": "uint256"
        }
      ],
      "name": "sponsorPoolBonuses",
      "outputs": [
        {
          "internalType": "uint256",
          "name": "",
          "type": "uint256"
        }
      ],
      "stateMutability": "view",
      "type": "function"
    },
    {
      "inputs": [
        {
          "internalType": "uint256",
          "name": "",
          "type": "uint256"
        }
      ],
      "name": "sponsorPoolUsers",
      "outputs": [
        {
          "internalType": "address",
          "name": "user",
          "type": "address"
        },
        {
          "internalType": "uint256",
          "name": "stakeId",
          "type": "uint256"
        }
      ],
      "stateMutability": "view",
      "type": "function"
    },
    {
      "inputs": [],
      "name": "totalActiveInvestments",
      "outputs": [
        {
          "internalType": "uint256",
          "name": "",
          "type": "uint256"
        }
      ],
      "stateMutability": "view",
      "type": "function"
    },
    {
      "inputs": [],
      "name": "totalDepositRewards",
      "outputs": [
        {
          "internalType": "uint256",
          "name": "",
          "type": "uint256"
        }
      ],
      "stateMutability": "view",
      "type": "function"
    },
    {
      "inputs": [],
      "name": "totalDeposits",
      "outputs": [
        {
          "internalType": "uint256",
          "name": "",
          "type": "uint256"
        }
      ],
      "stateMutability": "view",
      "type": "function"
    },
    {
      "inputs": [],
      "name": "totalExited",
      "outputs": [
        {
          "internalType": "uint256",
          "name": "",
          "type": "uint256"
        }
      ],
      "stateMutability": "view",
      "type": "function"
    },
    {
      "inputs": [],
      "name": "totalInvestments",
      "outputs": [
        {
          "internalType": "uint256",
          "name": "",
          "type": "uint256"
        }
      ],
      "stateMutability": "view",
      "type": "function"
    },
    {
      "inputs": [],
      "name": "totalPenalty",
      "outputs": [
        {
          "internalType": "uint256",
          "name": "",
          "type": "uint256"
        }
      ],
      "stateMutability": "view",
      "type": "function"
    },
    {
      "inputs": [],
      "name": "totalRefPoolRewards",
      "outputs": [
        {
          "internalType": "uint256",
          "name": "",
          "type": "uint256"
        }
      ],
      "stateMutability": "view",
      "type": "function"
    },
    {
      "inputs": [],
      "name": "totalRefRewards",
      "outputs": [
        {
          "internalType": "uint256",
          "name": "",
          "type": "uint256"
        }
      ],
      "stateMutability": "view",
      "type": "function"
    },
    {
      "inputs": [],
      "name": "totalSponsorPoolRewards",
      "outputs": [
        {
          "internalType": "uint256",
          "name": "",
          "type": "uint256"
        }
      ],
      "stateMutability": "view",
      "type": "function"
    },
    {
      "inputs": [],
      "name": "totalWithdrawn",
      "outputs": [
        {
          "internalType": "uint256",
          "name": "",
          "type": "uint256"
        }
      ],
      "stateMutability": "view",
      "type": "function"
    },
    {
      "inputs": [
        {
          "internalType": "address",
          "name": "",
          "type": "address"
        }
      ],
      "name": "users",
      "outputs": [
        {
          "internalType": "address",
          "name": "wallet",
          "type": "address"
        }
      ],
      "stateMutability": "view",
      "type": "function"
    },
    {
      "inputs": [
        {
          "internalType": "uint256",
          "name": "stakeId",
          "type": "uint256"
        }
      ],
      "name": "withdraw",
      "outputs": [],
      "stateMutability": "nonpayable",
      "type": "function"
    }
  ],
  "bytecode": "0x6080604052600b80546001600160a01b0319167364b8cb4c04ba902010856d913b4e5df940748bf21790556041805460ff191690553480156200004157600080fd5b5060405162005477380380620054778339810160408190526200006491620002f8565b600a80546001600160a01b0319166001600160a01b03831617905560398054600181810183556107d07fdc16fef70f8d5ddbc01ee3d903d1e69c18a3c7be080eb86a81e0578814ee58d3928301819055835480830185556106a49084015583548083018555610578908401558354808301855561044c90840155835480830185556103e8908401819055845480840186556102bc90850181905585548085018755610258908601819055865480860188556101f490870155865480860188556101909087018190558754808701895561012c908801558754808701895560c89088018190558854808801909955606498909701889055603a805480880182556000829052610bb87fa2999d817b6757290b50e8ecf3fa939673403dd35c97de392fdb343b4015ce9e9182015581548089018355810196909655805480880182556104b09087015580548088018255860194909455835480870185556103209086015583548087018555850192909255825480860184558401558154808501835583015580548084018255820193909355825491820190925501556200020862000214565b506000603d5562000328565b60005b6039548110156200027d576000600d82600c81106200023257fe5b6002020180546001600160a01b0319166001600160a01b03929092169190911790556000600d82600c81106200026457fe5b6002020160010181905550808060010191505062000217565b5060005b603a54811015620002e7576000602582600a81106200029c57fe5b6002020180546001600160a01b0319166001600160a01b03929092169190911790556000600d82600c8110620002ce57fe5b6002020160010181905550808060010191505062000281565b506000603f81905560405542603e55565b6000602082840312156200030a578081fd5b81516001600160a01b038116811462000321578182fd5b9392505050565b61513f80620003386000396000f3fe608060405234801561001057600080fd5b506004361061022f5760003560e01c8062fdd58e1461023457806303162d2c1461025d5780630781235a146102655780630ac39f721461026d5780630f9fa6aa1461026557806312dd5fe41461026557806324cf3682146102755780632673ebf71461027d57806327cfe856146102855780632e1a7d4d1461028d5780633481cb15146102a25780633ad10ef6146102b55780633df936c9146102ca57806346c27f65146102d257806348a91a24146102e7578063498dc5b5146102fa5780634b3197131461030257806360246c881461030a57806365fcb49e1461032457806369da94d81461032c5780636f77926b1461033457806370fd37cf146103545780637247b2b91461035c5780637cc1f867146103645780637d882097146103835780638876bb3e1461038b57806391994b2c146103935780639b6eec7d146102fa5780639c236aa81461039b578063a00d4980146103bc578063a13a801a146103c4578063a87430ba146103cc578063a9122af7146103df578063aaf1a0da146103c4578063b963ddb4146103e7578063bc157ac1146103ef578063bfe0e02014610402578063cabea10d1461040a578063d3b04a2714610412578063d5766ebd14610425578063d82daec714610438578063d902f40c14610440578063df5a75ef14610448578063e52314111461045b578063e6af61c814610463578063ed56f6a11461046b578063f48e595a1461045b578063fd0b82521461047e575b600080fd5b610247610242366004614ce9565b610486565b6040516102549190615028565b60405180910390f35b61024761066f565b610247610675565b61024761067b565b610247610680565b610247610686565b61024761068c565b6102a061029b366004614d33565b610693565b005b6102a06102b0366004614d33565b610bef565b6102bd610c46565b6040516102549190614dd9565b610247610c55565b6102da610c5b565b6040516102549190614e2a565b6102476102f5366004614d33565b610c64565b610247610c82565b610247610c88565b610312610c8e565b60405161025496959493929190615031565b610247610d82565b610247610d88565b610347610342366004614cce565b610d8e565b6040516102549190614efe565b610247610f05565b610247610f0b565b61036c610f11565b6040516102549b9a999897969594939291906150bb565b610247610f3f565b610247610f45565b610247610f4b565b6103ae6103a9366004614d33565b610f51565b604051610254929190614e11565b610247610f7a565b610247610f80565b6102bd6103da366004614cce565b610f85565b6102bd610fa0565b610247610faf565b6102a06103fd366004614d63565b610fb5565b610247611626565b61024761162c565b6102a0610420366004614d33565b611632565b610247610433366004614d33565b611820565b61024761182d565b610247611833565b610247610456366004614d33565b611838565b610247611845565b61024761184a565b6103ae610479366004614d33565b611850565b61024761185d565b6001600160a01b038083166000818152600c6020526040812054909216146104ad57600080fd5b6104b5614b87565b6001600160a01b038085166000908152600c60209081526040808320815180830183528154909516855260018101805483518186028101860190945280845291948685019491929184015b82821015610616576000848152602090819020604080516101e081018252601186029092018054835260018082015460ff80821615158688015261010091829004161515858501526002830154606086015260038301546080860152600483015460a0860152600583015460c0860152600683015460e086015260078301549085015260088201546101208501526009820154610140850152600a82015461016085015282518084018452600b8301546001600160a01b03168152600c8301548187015261018085015282518084018452600d8301548152600e830154818701526101a08501528251808401909352600f8201548352601090910154828501526101c08301919091529083529092019101610500565b505050508152505090506106658160200151848151811061063357fe5b602002602001015160a0015161065f8360200151868151811061065257fe5b6020026020010151611863565b906118c4565b9150505b92915050565b61a8c081565b61012c81565b600281565b60035481565b60055481565b6201518081565b336000908152600c60205260408120600181018054919291849081106106b557fe5b60009182526020909120835460119092020191506001600160a01b0316331480156106e45750600181015460ff165b6106ed57600080fd5b4281600a015462015180011061070257600080fd5b60058101546004820154604080516101e08101825284548152600185015460ff808216151560208085019190915261010092839004909116151583850152600287015460608401526003870154608084015260a0830185905260c08301869052600687015460e084015260078701549183019190915260088601546101208301526009860154610140830152600a86015461016083015282518084018452600b8701546001600160a01b03168152600c8701548183015261018083015282518084018452600d8701548152600e870154818301526101a08301528251808401909352600f86015483526010860154908301526101c081019190915260009261081292909161065f91908290611863565b90506000811161082157600080fd5b604080516101e08101825283548152600184015460ff8082161515602080850191909152610100928390049091161515838501526002860154606084015260038601546080840152600486015460a0840152600586015460c0840152600686015460e084015260078601549183019190915260088501546101208301526009850154610140830152600a85015461016083015282518084018452600b8601546001600160a01b03168152600c8601548183015261018083015282518084018452600d8601548152600e860154818301526101a08301528251808401909352600f85015483526010850154908301526101c0810191909152600090610925908361190d565b90508061096a5761094661093f846003015461012c611958565b83906118c4565b9150600061095a846003015461012c611958565b905080831115610968578092505b505b60415460ff1615610a7957604080516101e08101825284548152600185015460ff8082161515602080850191909152610100928390049091161515838501526002870154606084015260038701546080840152600487015460a0840152600587015460c0840152600687015460e084015260078701549183019190915260088601546101208301526009860154610140830152600a86015461016083015282518084018452600b8701546001600160a01b03168152600c8701548183015261018083015282518084018452600d8701548152600e870154818301526101a08301528251808401909352600f86015483526010860154908301526101c0810191909152610a769083611970565b91505b610a8382826118c4565b600a54855460405163a9059cbb60e01b81529294506001600160a01b039182169263a9059cbb92610aba9216908690600401614e11565b602060405180830381600087803b158015610ad457600080fd5b505af1158015610ae8573d6000803e3d6000fd5b505050506040513d601f19601f82011682018060405250810190610b0c9190614d13565b506004830154610b1c90836119d5565b600484015542600a840181905560028401556005830154610b3d90826119d5565b6005840155600854610b4f90826119d5565b6008556003830154610b6390617530611958565b836004015410610b8a576001808401805460ff19169055600354610b86916118c4565b6003555b610b92611a03565b600154610b9f90836119d5565b60015583546040517f884edad9ce6fa2440d8a54cc123490eb96d2768479d49ff9c7366125a942436491610be0916001600160a01b03909116908590614e11565b60405180910390a15050505050565b336000818152600c60205260409020805490916001600160a01b0390911614610c1757600080fd5b6000816001018381548110610c2857fe5b90600052602060002090601102019050610c4181611ab5565b505050565b600b546001600160a01b031681565b60405481565b60415460ff1681565b603b8181548110610c7157fe5b600091825260209091200154905081565b61138881565b60015481565b600080600080610c9c614b9f565b610ca4614bcd565b603e54603d5460408054603f54825161014081019093529091602590600d9082600a6000835b82821015610d0b576040805180820190915260028302850180546001600160a01b031682526001908101546020808401919091529183529092019101610cca565b5050604080516101808101909152929450839150600c90506000835b82821015610d68576040805180820190915260028302850180546001600160a01b031682526001908101546020808401919091529183529092019101610d27565b505050509050955095509550955095509550909192939495565b603c5481565b61753081565b610d96614b87565b6001600160a01b038083166000908152600c60209081526040808320815180830183528154909516855260018101805483518186028101860190945280845291948685019491929184015b82821015610ef7576000848152602090819020604080516101e081018252601186029092018054835260018082015460ff80821615158688015261010091829004161515858501526002830154606086015260038301546080860152600483015460a0860152600583015460c0860152600683015460e086015260078301549085015260088201546101208501526009820154610140850152600a82015461016085015282518084018452600b8301546001600160a01b03168152600c8301548187015261018085015282518084018452600d8301548152600e830154818701526101a08501528251808401909352600f8201548352601090910154828501526101c08301919091529083529092019101610de1565b505050915250909392505050565b60025481565b60075481565b603c54600054600154600254600354600454600554600654600754600854600954909192939495969798999a565b60005481565b60065481565b60095481565b602581600a8110610f5e57fe5b6002020180546001909101546001600160a01b03909116915082565b6103e881565b603281565b600c602052600090815260409020546001600160a01b031681565b600a546001600160a01b031681565b6102bc81565b6001600160a01b038083166000818152600c602052604090205490911614801561101957506001600160a01b0382166000908152600c6020526040902060010180548290811061100157fe5b600091825260209091206001601190920201015460ff165b8061102b57506001600160a01b038216155b61103457600080fd5b336000908152600c602052604090206001810154156110a857336000908152600c602052604090206001828101549101805461109d926002929160001990910190811061107d57fe5b906000526020600020906011020160030154611b1190919063ffffffff16565b84116110a857600080fd5b600a546040516323b872dd60e01b81526001600160a01b03909116906323b872dd906110dc90339030908990600401614ded565b602060405180830381600087803b1580156110f657600080fd5b505af115801561110a573d6000803e3d6000fd5b505050506040513d601f19601f8201168201806040525081019061112e9190614d13565b61113757600080fd5b600061114285611b4b565b905061114c614bfb565b82546001600160a01b031916331783556001808401548252602082015242610140820181905260608201526111978261119161118a896103e8611958565b89906118c4565b906119d5565b6080820152610180810180516001600160a01b0380881690915290516020908101869052603d546101c084018051919091525181018890526040805180820182528654909316835260018601805482518185028101850190935280835261132d94938893858201939092909160009084015b8282101561131f576000848152602090819020604080516101e081018252601186029092018054835260018082015460ff80821615158688015261010091829004161515858501526002830154606086015260038301546080860152600483015460a0860152600583015460c0860152600683015460e086015260078301549085015260088201546101208501526009820154610140850152600a82015461016085015282518084018452600b8301546001600160a01b03168152600c8301548187015261018085015282518084018452600d8301548152600e830154818701526101a08501528251808401909352600f8201548352601090910154828501526101c08301919091529083529092019101611209565b505050508152505082611c20565b6113378682611f26565b60018381018054808301825560009182526020918290208451601190920201908155838201519281018054604086015160ff199091169415159490941761ff0019166101009415158502179055606084015160028201556080840151600382015560a0840151600482015560c0840151600582015560e0840151600682015591830151600783015561012083015160088301556101408301516009830155610160830151600a8301556101808301518051600b840180546001600160a01b0319166001600160a01b03909216919091179055810151600c8301556101a08301518051600d840155810151600e8301556101c08301518051600f8401550151601090910155611452611449876032611958565b603f54906119d5565b603f5561146c611463876032611958565b604054906119d5565b6040556114776121ed565b600a54600b546001600160a01b039182169163a9059cbb911661149c89611388611958565b6040518363ffffffff1660e01b81526004016114b9929190614e11565b602060405180830381600087803b1580156114d357600080fd5b505af11580156114e7573d6000803e3d6000fd5b505050506040513d601f19601f8201168201806040525081019061150b9190614d13565b50600a546040516370a0823160e01b81526000916001600160a01b0316906370a082319061153d903090600401614dd9565b60206040518083038186803b15801561155557600080fd5b505afa158015611569573d6000803e3d6000fd5b505050506040513d601f19601f8201168201806040525081019061158d9190614d4b565b9050603c5481111561159f57603c8190555b6000546115ac90886119d5565b6000556002546115bd9060016119d5565b6002556003546115ce9060016119d5565b6003556007546115de90846119d5565b6007556040517f5548c837ab068cf56a2c2479df0882a4922fd203edb7517321831d95078c5f629061161590339089908b90614ded565b60405180910390a150505050505050565b60045481565b603d5481565b336000818152600c60205260409020805490916001600160a01b039091161461165a57600080fd5b600081600101838154811061166b57fe5b6000918252602082206003601190920201908101549092509061169082611388611958565b905061169c82826118c4565b915060006116bb846005015485600401546119d590919063ffffffff16565b9050828111156116ca57600080fd5b6116d483826118c4565b600a54865460405163a9059cbb60e01b81529295506001600160a01b039182169263a9059cbb9261170b9216908790600401614e11565b602060405180830381600087803b15801561172557600080fd5b505af1158015611739573d6000803e3d6000fd5b505050506040513d601f19601f8201168201806040525081019061175d9190614d13565b5060018401805460ff19169055600484015461177990846119d5565b6004850155600584015461178d90836119d5565b60058501556003546117a09060016118c4565b6003556009546117b19060016119d5565b6009556001546117c190846119d5565b6001556008546117d190836119d5565b60085584546040517faa5cfc974bd759f818e3e18a4afc9d79daaa0722158497792100a1fddd13e19391611810916001600160a01b0390911690614dd9565b60405180910390a1505050505050565b60398181548110610c7157fe5b603f5481565b600181565b603a8181548110610c7157fe5b606481565b60085481565b600d81600c8110610f5e57fe5b603e5481565b60008061186f83612447565b905061012c6118828460800151836124c4565b1061189d5761189a611893846124d6565b82906119d5565b90505b60006118af8460800151617530611958565b9050808211156118bd578091505b5092915050565b600061190683836040518060400160405280601e81526020017f536166654d6174683a207375627472616374696f6e206f766572666c6f77000081525061252e565b9392505050565b60008061191e8460800151846124c4565b905061012c8110611933576000915050610669565b60c881101561195057611948836119c8611958565b915050610669565b61066583610ce45b600061190661271061196a8585611b11565b9061255a565b60408201516000908290610dac901561198857506127105b6000611998866080015183611958565b90508560a0015181106119aa57600080fd5b60a086015181906119bb90856119d5565b11156119cb578560a00151810392505b5090949350505050565b6000828201838110156119065760405162461bcd60e51b81526004016119fa90614e88565b60405180910390fd5b611a11603c54610dac611958565b600a546040516370a0823160e01b81526001600160a01b03909116906370a0823190611a41903090600401614dd9565b60206040518083038186803b158015611a5957600080fd5b505afa158015611a6d573d6000803e3d6000fd5b505050506040513d601f19601f82011682018060405250810190611a919190614d4b565b11611aa8576041805460ff19166001179055611ab3565b6041805460ff191690555b565b6001810154610100900460ff16158015611ad35750600181015460ff165b611adc57600080fd5b611afa611aef82600301546103e8611958565b6003830154906118c4565b6003820155600101805461ff001916610100179055565b600082611b2057506000610669565b82820282848281611b2d57fe5b04146119065760405162461bcd60e51b81526004016119fa90614ebd565b600080624c4b40831115611b6157506032611c16565b620f4240831115611b7457506028611c16565b620c3500831115611b8757506023611c16565b6207a120831115611b9a5750601e611c16565b6203d090831115611bad57506019611c16565b620186a0831115611bc057506014611c16565b61c350831115611bd25750600f611c16565b6161a8831115611be45750600a611c16565b612710831115611bf657506005611c16565b611388831115611c0857506002611c16565b6107d0831115611c16575060015b6119068382611958565b60006025611c30600a60016118c4565b600a8110611c3a57fe5b60020201546001600160a01b03161480611cdb5750600c60006025611c61600a60016118c4565b600a8110611c6b57fe5b60020201546001600160a01b031681526020810191909152604001600020600190810190602590611c9e90600a906118c4565b600a8110611ca857fe5b600202016001015481548110611cba57fe5b9060005260206000209060110201600f0160010154816101c0015160200151115b15611f2257611ce8614c86565b60005b600a811015611f1f576000602582600a8110611d0357fe5b60020201546001600160a01b03161415611d67578351602582600a8110611d2657fe5b6002020180546001600160a01b0319166001600160a01b03929092169190911790558251602582600a8110611d5757fe5b6002020160010181905550611f1f565b600c6000602583600a8110611d7857fe5b60020201546001600160a01b031681526020810191909152604001600020600101602582600a8110611da657fe5b600202016001015481548110611db857fe5b9060005260206000209060110201600f0160010154836101c00151602001511115611f1757602581600a8110611dea57fe5b604080518082019091526002919091029190910180546001600160a01b031682526001015460208201528451909250602582600a8110611e2657fe5b6002020180546001600160a01b0319166001600160a01b03929092169190911790558251602582600a8110611e5757fe5b6002020160010181905550611e6a614c86565b815b600a831015611f105783516001600160a01b0316611e8957611f10565b602581600a8110611e9657fe5b604080518082019091526002919091029190910180546001600160a01b03168252600101546020820152915083602582600a8110611ed057fe5b82516002919091029190910180546001600160a01b0319166001600160a01b03909216919091178155602090910151600191820155919350839101611e6c565b5050611f1f565b600101611ceb565b50505b5050565b610180810151516001600160a01b031615801590611f8f575061018081018051516001600160a01b03166000908152600c6020908152604090912091510151600190910180549091908110611f7757fe5b600091825260209091206001601190920201015460ff165b15611f2257610180810151516001600160a01b03166000908152600c6020526040812090611fbf846102bc611958565b9050611ffd81836001018561018001516020015181548110611fdd57fe5b9060005260206000209060110201600601546119d590919063ffffffff16565b82600101846101800151602001518154811061201557fe5b6000918252602090912060066011909202010155603d546101a0840151511461205057603d546101a084018051919091525160006020909101525b6101a08301516020015161206490856119d5565b6101a084015160209081019190915260408051808201825284546001600160a01b031681526001850180548351818602810186019094528084526121d794929387938581019391929060009084015b828210156121c9576000848152602090819020604080516101e081018252601186029092018054835260018082015460ff80821615158688015261010091829004161515858501526002830154606086015260038301546080860152600483015460a0860152600583015460c0860152600683015460e086015260078301549085015260088201546101208501526009820154610140850152600a82015461016085015282518084018452600b8301546001600160a01b03168152600c8301548187015261018085015282518084018452600d8301548152600e830154818701526101a08501528251808401909352600f8201548352601090910154828501526101c083019190915290835290920191016120b3565b505050508152505084612599565b6004546121e490826119d5565b60045550505050565b603e546201518001421115611ab35760005b600c811015612312576000600d82600c811061221757fe5b60020201546001600160a01b0316141561223057612312565b6000600c6000600d84600c811061224357fe5b60020201546001600160a01b031681526020810191909152604001600020603f54603980549293506122d29261228f9291908690811061227f57fe5b9060005260206000200154611958565b82600101600d85600c81106122a057fe5b6002020160010154815481106122b257fe5b9060005260206000209060110201600701546119d590919063ffffffff16565b81600101600d84600c81106122e357fe5b6002020160010154815481106122f557fe5b6000918252602090912060076011909202010155506001016121ff565b5060005b600a81101561241a576000602582600a811061232e57fe5b60020201546001600160a01b031614156123475761241a565b6000600c6000602584600a811061235a57fe5b60020201546001600160a01b03168152602081019190915260409081016000209054603a80549293506123da926123979291908690811061227f57fe5b82600101602585600a81106123a857fe5b6002020160010154815481106123ba57fe5b9060005260206000209060110201600801546119d590919063ffffffff16565b81600101602584600a81106123eb57fe5b6002020160010154815481106123fd57fe5b600091825260209091206008601190920201015550600101612316565b50603f5460055461242a916119d5565b60055560405460065461243c916119d5565b600655611ab3612829565b6000806124678361012001518461010001516119d590919063ffffffff16565b905060008360e0015190506000612498856080015161249361248e88610140015142612905565b612918565b611958565b905060006124a58661295e565b905060006124b982611191858189896119d5565b979650505050505050565b60006119068361196a84612710611b11565b6000806124fa61a8c061196a620151806124f4876060015142612905565b90611b11565b90506000612509826002611b11565b90506064811115612518575060645b612526846080015182611958565b949350505050565b600081848411156125525760405162461bcd60e51b81526004016119fa9190614e35565b505050900390565b600061190683836040518060400160405280601a815260200179536166654d6174683a206469766973696f6e206279207a65726f60301b815250612a10565b6023546001600160a01b031615806125fc57506023546001600160a01b03166000908152600c602052604090206024546001909101805490919081106125db57fe5b9060005260206000209060110201600d0160010154816101a0015160200151115b15611f2257612609614c86565b60005b600c811015611f1f576000600d82600c811061262457fe5b60020201546001600160a01b03161415612678578351600d82600c811061264757fe5b6002020180546001600160a01b0319166001600160a01b03929092169190911790558251600d82600c8110611d5757fe5b600c6000600d83600c811061268957fe5b60020201546001600160a01b031681526020810191909152604001600020600101600d82600c81106126b757fe5b6002020160010154815481106126c957fe5b9060005260206000209060110201600d0160010154836101a0015160200151111561282157600d81600c81106126fb57fe5b604080518082019091526002919091029190910180546001600160a01b031682526001015460208201528451909250600d82600c811061273757fe5b6002020180546001600160a01b0319166001600160a01b03929092169190911790558251600d82600c811061276857fe5b600202016001018190555061277b614c86565b815b600c831015611f105783516001600160a01b031661279a57611f10565b600d81600c81106127a757fe5b604080518082019091526002919091029190910180546001600160a01b03168252600101546020820152915083600d82600c81106127e157fe5b82516002919091029190910180546001600160a01b0319166001600160a01b0390921691909117815560209091015160019182015591935083910161277d565b60010161260c565b60005b60395481101561288e576000600d82600c811061284557fe5b6002020180546001600160a01b0319166001600160a01b03929092169190911790556000600d82600c811061287657fe5b6002020160010181905550808060010191505061282c565b5060005b603a548110156128f4576000602582600a81106128ab57fe5b6002020180546001600160a01b0319166001600160a01b03929092169190911790556000600d82600c81106128dc57fe5b60020201600101819055508080600101915050612892565b506000603f81905560405542603e55565b60006119066201518061196a84866118c4565b600061012d821061292857600080fd5b6060612932612a47565b9050606061293f82614aff565b905080848151811061294d57fe5b602002602001015192505050919050565b600a546040516370a0823160e01b815260009182916129f19160649161196a916001916001600160a01b03909116906370a08231906129a1903090600401614dd9565b60206040518083038186803b1580156129b957600080fd5b505afa1580156129cd573d6000803e3d6000fd5b505050506040513d601f19601f820116820180604052508101906124f49190614d4b565b905061012c811115612a02575061012c5b611906836080015182611958565b60008183612a315760405162461bcd60e51b81526004016119fa9190614e35565b506000838581612a3d57fe5b0495945050505050565b6040805161012d8082526125c08201909252606091829190602082016125a080368337019050509050600081600081518110612a7f57fe5b602002602001018181525050600181600181518110612a9a57fe5b602002602001018181525050600281600281518110612ab557fe5b602002602001018181525050600381600381518110612ad057fe5b602002602001018181525050600481600481518110612aeb57fe5b602002602001018181525050600581600581518110612b0657fe5b602002602001018181525050600681600681518110612b2157fe5b602002602001018181525050600681600781518110612b3c57fe5b602002602001018181525050600781600881518110612b5757fe5b602002602001018181525050600881600981518110612b7257fe5b602002602001018181525050600981600a81518110612b8d57fe5b602002602001018181525050600a81600b81518110612ba857fe5b602002602001018181525050600b81600c81518110612bc357fe5b602002602001018181525050600c81600d81518110612bde57fe5b602002602001018181525050600d81600e81518110612bf957fe5b602002602001018181525050600e81600f81518110612c1457fe5b602002602001018181525050600f81601081518110612c2f57fe5b602002602001018181525050601081601181518110612c4a57fe5b602002602001018181525050601281601281518110612c6557fe5b602002602001018181525050601381601381518110612c8057fe5b602002602001018181525050601481601481518110612c9b57fe5b602002602001018181525050601581601581518110612cb657fe5b602002602001018181525050601681601681518110612cd157fe5b602002602001018181525050601781601781518110612cec57fe5b602002602001018181525050601881601881518110612d0757fe5b602002602001018181525050601981601981518110612d2257fe5b602002602001018181525050601a81601a81518110612d3d57fe5b602002602001018181525050601b81601b81518110612d5857fe5b602002602001018181525050601d81601c81518110612d7357fe5b602002602001018181525050601e81601d81518110612d8e57fe5b602002602001018181525050601f81601e81518110612da957fe5b602002602001018181525050602081601f81518110612dc457fe5b602002602001018181525050602181602081518110612ddf57fe5b602002602001018181525050602281602181518110612dfa57fe5b602002602001018181525050602481602281518110612e1557fe5b602002602001018181525050602581602381518110612e3057fe5b602002602001018181525050602681602481518110612e4b57fe5b602002602001018181525050602781602581518110612e6657fe5b602002602001018181525050602981602681518110612e8157fe5b602002602001018181525050602a81602781518110612e9c57fe5b602002602001018181525050602b81602881518110612eb757fe5b602002602001018181525050602c81602981518110612ed257fe5b602002602001018181525050602e81602a81518110612eed57fe5b602002602001018181525050602f81602b81518110612f0857fe5b602002602001018181525050603081602c81518110612f2357fe5b602002602001018181525050603281602d81518110612f3e57fe5b602002602001018181525050603381602e81518110612f5957fe5b602002602001018181525050603481602f81518110612f7457fe5b602002602001018181525050603681603081518110612f8f57fe5b602002602001018181525050603781603181518110612faa57fe5b602002602001018181525050603981603281518110612fc557fe5b602002602001018181525050603a81603381518110612fe057fe5b602002602001018181525050603b81603481518110612ffb57fe5b602002602001018181525050603d8160358151811061301657fe5b602002602001018181525050603e8160368151811061303157fe5b60200260200101818152505060408160378151811061304c57fe5b60200260200101818152505060418160388151811061306757fe5b60200260200101818152505060438160398151811061308257fe5b602002602001018181525050604481603a8151811061309d57fe5b602002602001018181525050604681603b815181106130b857fe5b602002602001018181525050604781603c815181106130d357fe5b602002602001018181525050604981603d815181106130ee57fe5b602002602001018181525050604a81603e8151811061310957fe5b602002602001018181525050604c81603f8151811061312457fe5b602002602001018181525050604d8160408151811061313f57fe5b602002602001018181525050604f8160418151811061315a57fe5b60200260200101818152505060518160428151811061317557fe5b60200260200101818152505060528160438151811061319057fe5b6020026020010181815250506054816044815181106131ab57fe5b6020026020010181815250506056816045815181106131c657fe5b6020026020010181815250506057816046815181106131e157fe5b6020026020010181815250506059816047815181106131fc57fe5b602002602001018181525050605b8160488151811061321757fe5b602002602001018181525050605c8160498151811061323257fe5b602002602001018181525050605e81604a8151811061324d57fe5b602002602001018181525050606081604b8151811061326857fe5b602002602001018181525050606281604c8151811061328357fe5b602002602001018181525050606381604d8151811061329e57fe5b602002602001018181525050606581604e815181106132b957fe5b602002602001018181525050606781604f815181106132d457fe5b6020026020010181815250506069816050815181106132ef57fe5b602002602001018181525050606b8160518151811061330a57fe5b602002602001018181525050606c8160528151811061332557fe5b602002602001018181525050606e8160538151811061334057fe5b60200260200101818152505060708160548151811061335b57fe5b60200260200101818152505060728160558151811061337657fe5b60200260200101818152505060748160568151811061339157fe5b6020026020010181815250506076816057815181106133ac57fe5b6020026020010181815250506078816058815181106133c757fe5b602002602001018181525050607a816059815181106133e257fe5b602002602001018181525050607c81605a815181106133fd57fe5b602002602001018181525050607e81605a8151811061341857fe5b602002602001018181525050608081605c8151811061343357fe5b602002602001018181525050608281605d8151811061344e57fe5b602002602001018181525050608481605e8151811061346957fe5b602002602001018181525050608681605f8151811061348457fe5b60200260200101818152505060888160608151811061349f57fe5b602002602001018181525050608a816061815181106134ba57fe5b602002602001018181525050608d816062815181106134d557fe5b602002602001018181525050608f816063815181106134f057fe5b60200260200101818152505060918160648151811061350b57fe5b60200260200101818152505060938160658151811061352657fe5b60200260200101818152505060958160668151811061354157fe5b60200260200101818152505060988160678151811061355c57fe5b602002602001018181525050609a8160688151811061357757fe5b602002602001018181525050609c8160698151811061359257fe5b602002602001018181525050609f81606a815181106135ad57fe5b60200260200101818152505060a181606b815181106135c857fe5b60200260200101818152505060a381606c815181106135e357fe5b60200260200101818152505060a681606d815181106135fe57fe5b60200260200101818152505060a881606e8151811061361957fe5b60200260200101818152505060aa81606f8151811061363457fe5b60200260200101818152505060ad8160708151811061364f57fe5b60200260200101818152505060af8160718151811061366a57fe5b60200260200101818152505060b28160728151811061368557fe5b60200260200101818152505060b4816073815181106136a057fe5b60200260200101818152505060b7816074815181106136bb57fe5b60200260200101818152505060b9816075815181106136d657fe5b60200260200101818152505060bc816076815181106136f157fe5b60200260200101818152505060be8160778151811061370c57fe5b60200260200101818152505060c18160788151811061372757fe5b60200260200101818152505060c48160798151811061374257fe5b60200260200101818152505060c681607a8151811061375d57fe5b60200260200101818152505060c981607b8151811061377857fe5b60200260200101818152505060cc81607c8151811061379357fe5b60200260200101818152505060ce81607d815181106137ae57fe5b60200260200101818152505060d181607e815181106137c957fe5b60200260200101818152505060d481607f815181106137e457fe5b60200260200101818152505060d7816080815181106137ff57fe5b60200260200101818152505060da8160818151811061381a57fe5b60200260200101818152505060dd8160828151811061383557fe5b60200260200101818152505060df8160838151811061385057fe5b60200260200101818152505060e28160848151811061386b57fe5b60200260200101818152505060e58160858151811061388657fe5b60200260200101818152505060e8816086815181106138a157fe5b60200260200101818152505060eb816087815181106138bc57fe5b60200260200101818152505060ee816088815181106138d757fe5b60200260200101818152505060f1816089815181106138f257fe5b60200260200101818152505060f481608a8151811061390d57fe5b60200260200101818152505060f781608b8151811061392857fe5b60200260200101818152505060fb81608c8151811061394357fe5b60200260200101818152505060fe81608d8151811061395e57fe5b60200260200101818152505061010181608e8151811061397a57fe5b60200260200101818152505061010481608f8151811061399657fe5b602002602001018181525050610107816090815181106139b257fe5b60200260200101818152505061010b816091815181106139ce57fe5b60200260200101818152505061010e816092815181106139ea57fe5b60200260200101818152505061011181609381518110613a0657fe5b60200260200101818152505061011581609481518110613a2257fe5b60200260200101818152505061011881609581518110613a3e57fe5b60200260200101818152505061011b81609681518110613a5a57fe5b60200260200101818152505061011f81609781518110613a7657fe5b60200260200101818152505061012281609881518110613a9257fe5b60200260200101818152505061012681609981518110613aae57fe5b60200260200101818152505061012981609a81518110613aca57fe5b60200260200101818152505061012d81609b81518110613ae657fe5b60200260200101818152505061013181609c81518110613b0257fe5b60200260200101818152505061013481609d81518110613b1e57fe5b60200260200101818152505061013881609e81518110613b3a57fe5b60200260200101818152505061013c81609f81518110613b5657fe5b60200260200101818152505061013f8160a081518110613b7257fe5b6020026020010181815250506101438160a181518110613b8e57fe5b6020026020010181815250506101478160a281518110613baa57fe5b60200260200101818152505061014b8160a381518110613bc657fe5b60200260200101818152505061014f8160a481518110613be257fe5b6020026020010181815250506101538160a581518110613bfe57fe5b6020026020010181815250506101578160a681518110613c1a57fe5b60200260200101818152505061015b8160a781518110613c3657fe5b60200260200101818152505061015f8160a881518110613c5257fe5b6020026020010181815250506101638160a981518110613c6e57fe5b6020026020010181815250506101678160aa81518110613c8a57fe5b60200260200101818152505061016b8160ab81518110613ca657fe5b60200260200101818152505061016f8160ac81518110613cc257fe5b6020026020010181815250506101738160ad81518110613cde57fe5b6020026020010181815250506101778160ae81518110613cfa57fe5b60200260200101818152505061017c8160af81518110613d1657fe5b6020026020010181815250506101808160b081518110613d3257fe5b6020026020010181815250506101848160b181518110613d4e57fe5b6020026020010181815250506101898160b281518110613d6a57fe5b60200260200101818152505061018d8160b381518110613d8657fe5b6020026020010181815250506101928160b481518110613da257fe5b6020026020010181815250506101968160b581518110613dbe57fe5b60200260200101818152505061019b8160b681518110613dda57fe5b60200260200101818152505061019f8160b781518110613df657fe5b6020026020010181815250506101a48160b881518110613e1257fe5b6020026020010181815250506101a98160b981518110613e2e57fe5b6020026020010181815250506101ad8160ba81518110613e4a57fe5b6020026020010181815250506101b28160bb81518110613e6657fe5b6020026020010181815250506101b78160bc81518110613e8257fe5b6020026020010181815250506101bc8160bd81518110613e9e57fe5b6020026020010181815250506101c18160be81518110613eba57fe5b6020026020010181815250506101c68160bf81518110613ed657fe5b6020026020010181815250506101cb8160c081518110613ef257fe5b6020026020010181815250506101d08160c181518110613f0e57fe5b6020026020010181815250506101d58160c281518110613f2a57fe5b6020026020010181815250506101da8160c381518110613f4657fe5b6020026020010181815250506101df8160c481518110613f6257fe5b6020026020010181815250506101e48160c581518110613f7e57fe5b6020026020010181815250506101e98160c681518110613f9a57fe5b6020026020010181815250506101ef8160c781518110613fb657fe5b6020026020010181815250506101f48160c881518110613fd257fe5b6020026020010181815250506101fa8160c981518110613fee57fe5b6020026020010181815250506101ff8160ca8151811061400a57fe5b6020026020010181815250506102048160cb8151811061402657fe5b60200260200101818152505061020a8160cc8151811061404257fe5b6020026020010181815250506102108160cd8151811061405e57fe5b6020026020010181815250506102158160ce8151811061407a57fe5b60200260200101818152505061021b8160cf8151811061409657fe5b6020026020010181815250506102218160d0815181106140b257fe5b6020026020010181815250506102278160d1815181106140ce57fe5b60200260200101818152505061022c8160d2815181106140ea57fe5b6020026020010181815250506102328160d38151811061410657fe5b6020026020010181815250506102388160d48151811061412257fe5b60200260200101818152505061023e8160d58151811061413e57fe5b6020026020010181815250506102448160d68151811061415a57fe5b60200260200101818152505061024a8160d78151811061417657fe5b6020026020010181815250506102518160d88151811061419257fe5b6020026020010181815250506102578160d9815181106141ae57fe5b60200260200101818152505061025d8160da815181106141ca57fe5b6020026020010181815250506102638160db815181106141e657fe5b60200260200101818152505061026a8160dc8151811061420257fe5b6020026020010181815250506102708160dd8151811061421e57fe5b6020026020010181815250506102778160de8151811061423a57fe5b60200260200101818152505061027d8160df8151811061425657fe5b6020026020010181815250506102848160e08151811061427257fe5b60200260200101818152505061028b8160e18151811061428e57fe5b6020026020010181815250506102928160e2815181106142aa57fe5b6020026020010181815250506102988160e3815181106142c657fe5b60200260200101818152505061029f8160e4815181106142e257fe5b6020026020010181815250506102a68160e5815181106142fe57fe5b6020026020010181815250506102ad8160e68151811061431a57fe5b6020026020010181815250506102b48160e78151811061433657fe5b6020026020010181815250506102bb8160e88151811061435257fe5b6020026020010181815250506102c38160e98151811061436e57fe5b6020026020010181815250506102ca8160ea8151811061438a57fe5b6020026020010181815250506102d18160eb815181106143a657fe5b6020026020010181815250506102d98160ec815181106143c257fe5b6020026020010181815250506102e08160ed815181106143de57fe5b6020026020010181815250506102e88160ee815181106143fa57fe5b6020026020010181815250506102ef8160ef8151811061441657fe5b6020026020010181815250506102f78160f08151811061443257fe5b6020026020010181815250506102ff8160f18151811061444e57fe5b6020026020010181815250506103068160f28151811061446a57fe5b60200260200101818152505061030e8160f38151811061448657fe5b6020026020010181815250506103168160f4815181106144a257fe5b60200260200101818152505061031e8160f5815181106144be57fe5b6020026020010181815250506103268160f6815181106144da57fe5b60200260200101818152505061032e8160f7815181106144f657fe5b6020026020010181815250506103378160f88151811061451257fe5b60200260200101818152505061033f8160f98151811061452e57fe5b6020026020010181815250506103478160fa8151811061454a57fe5b6020026020010181815250506103508160fb8151811061456657fe5b6020026020010181815250506103588160fc8151811061458257fe5b6020026020010181815250506103618160fd8151811061459e57fe5b60200260200101818152505061036a8160fe815181106145ba57fe5b6020026020010181815250506103728160ff815181106145d657fe5b60200260200101818152505061037b81610100815181106145f357fe5b602002602001018181525050610384816101018151811061461057fe5b60200260200101818152505061038d816101028151811061462d57fe5b602002602001018181525050610396816101038151811061464a57fe5b60200260200101818152505061039f816101048151811061466757fe5b6020026020010181815250506103a9816101058151811061468457fe5b6020026020010181815250506103b281610106815181106146a157fe5b6020026020010181815250506103bb81610107815181106146be57fe5b6020026020010181815250506103c581610108815181106146db57fe5b6020026020010181815250506103ce81610109815181106146f857fe5b6020026020010181815250506103d88161010a8151811061471557fe5b6020026020010181815250506103e28161010b8151811061473257fe5b6020026020010181815250506103ec8161010c8151811061474f57fe5b6020026020010181815250506103f68161010d8151811061476c57fe5b6020026020010181815250506104008161010e8151811061478957fe5b60200260200101818152505061040a8161010f815181106147a657fe5b60200260200101818152505061041481610110815181106147c357fe5b60200260200101818152505061041e81610111815181106147e057fe5b60200260200101818152505061042981610112815181106147fd57fe5b602002602001018181525050610433816101138151811061481a57fe5b60200260200101818152505061043e816101148151811061483757fe5b602002602001018181525050610448816101158151811061485457fe5b602002602001018181525050610453816101168151811061487157fe5b60200260200101818152505061045e816101178151811061488e57fe5b60200260200101818152505061046981610118815181106148ab57fe5b60200260200101818152505061047481610119815181106148c857fe5b60200260200101818152505061047f8161011a815181106148e557fe5b60200260200101818152505061048a8161011b8151811061490257fe5b6020026020010181815250506104968161011c8151811061491f57fe5b6020026020010181815250506104a18161011d8151811061493c57fe5b6020026020010181815250506104ad8161011e8151811061495957fe5b6020026020010181815250506104b88161011f8151811061497657fe5b6020026020010181815250506104c4816101208151811061499357fe5b6020026020010181815250506104d081610121815181106149b057fe5b6020026020010181815250506104dc81610122815181106149cd57fe5b6020026020010181815250506104e881610123815181106149ea57fe5b6020026020010181815250506104f48161012481518110614a0757fe5b6020026020010181815250506105018161012581518110614a2457fe5b60200260200101818152505061050d8161012681518110614a4157fe5b60200260200101818152505061051a8161012781518110614a5e57fe5b6020026020010181815250506105268161012881518110614a7b57fe5b6020026020010181815250506105338161012981518110614a9857fe5b6020026020010181815250506105408161012a81518110614ab557fe5b60200260200101818152505061054d8161012b81518110614ad257fe5b60200260200101818152505061055a8161012c81518110614aef57fe5b6020908102919091010152905090565b6040805161012d8082526125c08201909252606091829190602082016125a0803683370190505090506000805b61012d811015614b7e57614b5c858281518110614b4557fe5b6020026020010151836119d590919063ffffffff16565b915081838281518110614b6b57fe5b6020908102919091010152600101614b2c565b50909392505050565b60408051808201909152600081526060602082015290565b604051806101400160405280600a905b614bb7614c86565b815260200190600190039081614baf5790505090565b604051806101800160405280600c905b614be5614c86565b815260200190600190039081614bdd5790505090565b604051806101e0016040528060008152602001600015158152602001600015158152602001600081526020016000815260200160008152602001600081526020016000815260200160008152602001600081526020016000815260200160008152602001614c67614c86565b8152602001614c74614c9d565b8152602001614c81614c9d565b905290565b604080518082019091526000808252602082015290565b604051806040016040528060008152602001600081525090565b80356001600160a01b038116811461066957600080fd5b600060208284031215614cdf578081fd5b6119068383614cb7565b60008060408385031215614cfb578081fd5b614d058484614cb7565b946020939093013593505050565b600060208284031215614d24578081fd5b81518015158114611906578182fd5b600060208284031215614d44578081fd5b5035919050565b600060208284031215614d5c578081fd5b5051919050565b600080600060608486031215614d77578081fd5b83359250614d888560208601614cb7565b9150604084013590509250925092565b6000614da48383614db2565b505060400190565b15159052565b80516001600160a01b03168252602090810151910152565b80518252602090810151910152565b6001600160a01b0391909116815260200190565b6001600160a01b039384168152919092166020820152604081019190915260600190565b6001600160a01b03929092168252602082015260400190565b901515815260200190565b6000602080835283518082850152825b81811015614e6157858101830151858201604001528201614e45565b81811115614e725783604083870101525b50601f01601f1916929092016040019392505050565b6020808252601b908201527a536166654d6174683a206164646974696f6e206f766572666c6f7760281b604082015260600190565b60208082526021908201527f536166654d6174683a206d756c7469706c69636174696f6e206f766572666c6f6040820152607760f81b606082015260800190565b602080825282516001600160a01b031682820152828101516040808401819052815160608086018290526000949390926080929185019183880190875b818110156150195784518051845288810151614f598a860182614dac565b5084810151614f6a86860182614dac565b508088015184890152868101518785015260a0808201519085015260c0808201519085015260e08082015190850152610100808201519085015261012080820151908501526101408082015190850152610160808201519085015261018080820151614fd882870182614db2565b50506101a08101516101c0614fef81870183614dca565b91909101519050615004610200850182614dca565b50938701936102409290920191600101614f3b565b50909998505050505050505050565b90815260200190565b6000610600820190508782526020878184015260408781850152866060850152608084018660005b600a81101561507b5761506d838351614d98565b925090840190600101615059565b50505061030084018560005b600c8110156150ab5761509b838351614db2565b9183019190840190600101615087565b5050505050979650505050505050565b9a8b5260208b019990995260408a01979097526060890195909552608088019390935260a087019190915260c086015260e0850152610100840152610120830152610140820152610160019056fea26469706673582212204a53dab394df6f82ef45b47a1947a097dbe4d632d6704caf11fe6051713f3a6c64736f6c634300060c0033",
  "compiler": {
    "name": "solc",
    "version": "0.6.12+commit.27d51765.Emscripten.clang",
    "optimizer": {
      "enabled": true,
      "runs": 1
    },
    "evmVersion": "petersburg"
  }
}