{
  "fileName": "FourRXFinance.sol",
  "contractName": "FourRXFinance",
  "source": "// SPDX-License-Identifier: MIT\npragma solidity ^0.6.12;\npragma experimental ABIEncoderV2;\n\nimport \"@openzeppelin/contracts/token/ERC20/IERC20.sol\";\nimport \"./Insurance.sol\";\n\n\ncontract FourRXFinance is Insurance {\n\n    constructor(address fourRXTokenAddress) public {\n        fourRXToken = IERC20(fourRXTokenAddress);\n\n        refPoolBonuses.push(2000);\n        refPoolBonuses.push(1700);\n        refPoolBonuses.push(1400);\n        refPoolBonuses.push(1100);\n        refPoolBonuses.push(1000);\n        refPoolBonuses.push(700);\n        refPoolBonuses.push(600);\n        refPoolBonuses.push(500);\n        refPoolBonuses.push(400);\n        refPoolBonuses.push(300);\n        refPoolBonuses.push(200);\n        refPoolBonuses.push(100);\n\n        sponsorPoolBonuses.push(3000);\n        sponsorPoolBonuses.push(2000);\n        sponsorPoolBonuses.push(1200);\n        sponsorPoolBonuses.push(1000);\n        sponsorPoolBonuses.push(800);\n        sponsorPoolBonuses.push(700);\n        sponsorPoolBonuses.push(600);\n        sponsorPoolBonuses.push(400);\n        sponsorPoolBonuses.push(200);\n        sponsorPoolBonuses.push(100);\n\n        _resetPools();\n\n        poolCycle = 0;\n    }\n\n    function deposit(uint amount, address uplinkAddress, uint uplinkStakeId) external {\n        require(\n            (users[uplinkAddress].wallet != address(0) && users[uplinkAddress].stakes[uplinkStakeId].active) ||\n            uplinkAddress == address(0)\n        ); // Either uplink must be registered and be a active deposit, 0 address\n\n        User storage user = users[msg.sender];\n\n        if (users[msg.sender].stakes.length > 0) {\n            require(amount > users[msg.sender].stakes[user.stakes.length - 1].deposit.mul(2)); // deposit amount must be greater 2x then last deposit\n        }\n\n        require(fourRXToken.transferFrom(msg.sender, address(this), amount));\n\n        uint depositReward = _calcDepositRewards(amount);\n\n        Stake memory stake;\n\n        user.wallet = msg.sender;\n\n        stake.id = user.stakes.length;\n        stake.active = true;\n        stake.interestCountFrom = block.timestamp;\n        stake.holdFrom = block.timestamp;\n\n        stake.deposit = amount.sub(_calcPercentage(amount, LP_FEE_BP)).add(depositReward); // Deduct LP Commission + add deposit rewards\n        stake.uplink.uplinkAddress = uplinkAddress;\n        stake.uplink.uplinkStakeId = uplinkStakeId;\n\n        stake.sponsorPool.cycle = poolCycle;\n        stake.sponsorPool.amount = amount;\n\n        _updateSponsorPoolUsers(user, stake);\n\n        _distributeReferralReward(amount, stake);\n\n        user.stakes.push(stake);\n\n        refPoolBalance = refPoolBalance.add(_calcPercentage(amount, REF_POOL_FEE_BP));\n        sponsorPoolBalance = sponsorPoolBalance.add(_calcPercentage(amount, SPONSOR_POOL_FEE_BP));\n\n        _drawPool();\n\n        fourRXToken.transfer(devAddress, _calcPercentage(amount, DEV_FEE_BP));\n\n        uint currentContractBalance = fourRXToken.balanceOf(address(this));\n\n        if (currentContractBalance > maxContractBalance) {\n            maxContractBalance = currentContractBalance;\n        }\n\n        totalDeposits = totalDeposits.add(amount);\n        totalStakes = totalStakes.add(1);\n        totalActiveStakes = totalActiveStakes.add(1);\n        totalDepositRewards = totalDepositRewards.add(depositReward);\n\n        emit Deposit(msg.sender, uplinkAddress, amount);\n    }\n\n\n    function balanceOf(address _userAddress, uint stakeId) external view returns (uint) {\n        require(users[_userAddress].wallet == _userAddress);\n        User memory user = users[_userAddress];\n\n        return _calcRewards(user.stakes[stakeId]).sub(user.stakes[stakeId].withdrawn);\n    }\n\n    function withdraw(uint stakeId) external {\n        User storage user = users[msg.sender];\n        Stake storage stake = user.stakes[stakeId];\n        require(user.wallet == msg.sender && stake.active); // stake should be active\n\n        require(stake.lastWithdrawalAt + 1 days < block.timestamp); // we only allow one withdrawal each day\n\n        uint availableAmount = _calcRewards(stake).sub(stake.withdrawn).sub(stake.penalty);\n\n        require(availableAmount > 0);\n\n        uint penalty = _calcPenalty(stake, availableAmount);\n\n        if (penalty == 0) {\n            availableAmount = availableAmount.sub(_calcPercentage(stake.deposit, REWARD_THRESHOLD_BP)); // Only allow withdrawal if available is more then 10% of base\n\n            uint maxAllowedWithdrawal = _calcPercentage(stake.deposit, MAX_WITHDRAWAL_OVER_REWARD_THRESHOLD_BP);\n\n            if (availableAmount > maxAllowedWithdrawal) {\n                availableAmount = maxAllowedWithdrawal;\n            }\n        }\n\n        if (isInInsuranceState) {\n            availableAmount = _getInsuredAvailableAmount(stake, availableAmount);\n        }\n\n        availableAmount = availableAmount.sub(penalty);\n\n        fourRXToken.transfer(user.wallet, availableAmount);\n\n        stake.withdrawn = stake.withdrawn.add(availableAmount);\n        stake.lastWithdrawalAt = block.timestamp;\n        stake.holdFrom = block.timestamp;\n\n        stake.penalty = stake.penalty.add(penalty);\n\n        totalPenalty = totalPenalty.add(penalty);\n\n        if (stake.withdrawn >= _calcPercentage(stake.deposit, MAX_CONTRACT_REWARD_BP)) {\n            stake.active = false; // if stake has withdrawn equals to or more then the max amount, then mark stake in-active\n            totalActiveStakes = totalActiveStakes.sub(1);\n        }\n\n        _checkForBaseInsuranceTrigger();\n\n        totalWithdrawn = totalWithdrawn.add(availableAmount);\n\n        emit Withdraw(user.wallet, availableAmount);\n    }\n\n    function exitProgram(uint stakeId) external {\n        User storage user = users[msg.sender];\n        require(user.wallet == msg.sender);\n        Stake storage stake = user.stakes[stakeId];\n        uint availableAmount = stake.deposit;\n        uint penaltyAmount = _calcPercentage(stake.deposit, EXIT_PENALTY_BP);\n\n        availableAmount = availableAmount.sub(penaltyAmount);\n\n        uint withdrawn = stake.withdrawn.add(stake.penalty);\n        require(withdrawn <= availableAmount);\n        availableAmount = availableAmount.sub(withdrawn); // @todo: discuss this new implementation with Assaf\n\n        fourRXToken.transfer(user.wallet, availableAmount);\n\n        stake.active = false;\n        stake.withdrawn = stake.withdrawn.add(availableAmount);\n        stake.penalty = stake.penalty.add(penaltyAmount);\n\n        totalActiveStakes = totalActiveStakes.sub(1);\n        totalExited = totalExited.add(1);\n\n        totalWithdrawn = totalWithdrawn.add(availableAmount);\n        totalPenalty = totalPenalty.add(penaltyAmount);\n\n        emit Exited(user.wallet);\n    }\n\n    function insureStake(uint stakeId) external {\n        User storage user = users[msg.sender];\n        require(user.wallet == msg.sender);\n        Stake storage stake = user.stakes[stakeId];\n        _insureStake(stake);\n    }\n\n    function getUser(address userAddress) external view returns (User memory) {\n        return users[userAddress];\n    }\n\n    function getPoolInfo() external view returns (uint, uint, uint, uint, PoolUser[10] memory, PoolUser[12] memory) {\n        return (poolDrewAt, poolCycle, sponsorPoolBalance, refPoolBalance, sponsorPoolUsers, refPoolUsers);\n    }\n\n    function getContractInfo() external view returns (uint, uint, uint, uint, uint, uint, uint, uint, uint, uint, uint) {\n        return (maxContractBalance, totalDeposits, totalWithdrawn, totalStakes, totalActiveStakes, totalRefRewards, totalRefPoolRewards, totalSponsorPoolRewards, totalDepositRewards, totalPenalty, totalExited);\n    }\n}\n",
  "sourcePath": "contracts/FourRXFinance.sol",
  "abi": [
    {
      "inputs": [
        {
          "internalType": "address",
          "name": "fourRXTokenAddress",
          "type": "address"
        }
      ],
      "stateMutability": "nonpayable",
      "type": "constructor"
    },
    {
      "anonymous": false,
      "inputs": [
        {
          "indexed": false,
          "internalType": "address",
          "name": "user",
          "type": "address"
        },
        {
          "indexed": false,
          "internalType": "address",
          "name": "uplink",
          "type": "address"
        },
        {
          "indexed": false,
          "internalType": "uint256",
          "name": "amount",
          "type": "uint256"
        }
      ],
      "name": "Deposit",
      "type": "event"
    },
    {
      "anonymous": false,
      "inputs": [
        {
          "indexed": false,
          "internalType": "address",
          "name": "user",
          "type": "address"
        }
      ],
      "name": "Exited",
      "type": "event"
    },
    {
      "anonymous": false,
      "inputs": [
        {
          "indexed": false,
          "internalType": "address",
          "name": "user",
          "type": "address"
        },
        {
          "indexed": false,
          "internalType": "uint256",
          "name": "amount",
          "type": "uint256"
        }
      ],
      "name": "ReInvest",
      "type": "event"
    },
    {
      "anonymous": false,
      "inputs": [
        {
          "indexed": false,
          "internalType": "address",
          "name": "user",
          "type": "address"
        },
        {
          "indexed": false,
          "internalType": "uint256",
          "name": "amount",
          "type": "uint256"
        }
      ],
      "name": "Withdraw",
      "type": "event"
    },
    {
      "inputs": [],
      "name": "CONTRACT_BONUS_PER_UNIT_BP",
      "outputs": [
        {
          "internalType": "uint256",
          "name": "",
          "type": "uint256"
        }
      ],
      "stateMutability": "view",
      "type": "function"
    },
    {
      "inputs": [],
      "name": "CONTRACT_BONUS_UNIT",
      "outputs": [
        {
          "internalType": "uint256",
          "name": "",
          "type": "uint256"
        }
      ],
      "stateMutability": "view",
      "type": "function"
    },
    {
      "inputs": [],
      "name": "DAY",
      "outputs": [
        {
          "internalType": "uint256",
          "name": "",
          "type": "uint256"
        }
      ],
      "stateMutability": "view",
      "type": "function"
    },
    {
      "inputs": [],
      "name": "DEV_FEE_BP",
      "outputs": [
        {
          "internalType": "uint256",
          "name": "",
          "type": "uint256"
        }
      ],
      "stateMutability": "view",
      "type": "function"
    },
    {
      "inputs": [],
      "name": "EXIT_PENALTY_BP",
      "outputs": [
        {
          "internalType": "uint256",
          "name": "",
          "type": "uint256"
        }
      ],
      "stateMutability": "view",
      "type": "function"
    },
    {
      "inputs": [],
      "name": "HOLD_BONUS_PER_UNIT_BP",
      "outputs": [
        {
          "internalType": "uint256",
          "name": "",
          "type": "uint256"
        }
      ],
      "stateMutability": "view",
      "type": "function"
    },
    {
      "inputs": [],
      "name": "HOLD_BONUS_UNIT",
      "outputs": [
        {
          "internalType": "uint256",
          "name": "",
          "type": "uint256"
        }
      ],
      "stateMutability": "view",
      "type": "function"
    },
    {
      "inputs": [],
      "name": "LP_FEE_BP",
      "outputs": [
        {
          "internalType": "uint256",
          "name": "",
          "type": "uint256"
        }
      ],
      "stateMutability": "view",
      "type": "function"
    },
    {
      "inputs": [],
      "name": "MAX_CONTRACT_BONUS_BP",
      "outputs": [
        {
          "internalType": "uint256",
          "name": "",
          "type": "uint256"
        }
      ],
      "stateMutability": "view",
      "type": "function"
    },
    {
      "inputs": [],
      "name": "MAX_CONTRACT_REWARD_BP",
      "outputs": [
        {
          "internalType": "uint256",
          "name": "",
          "type": "uint256"
        }
      ],
      "stateMutability": "view",
      "type": "function"
    },
    {
      "inputs": [],
      "name": "MAX_HOLD_BONUS_BP",
      "outputs": [
        {
          "internalType": "uint256",
          "name": "",
          "type": "uint256"
        }
      ],
      "stateMutability": "view",
      "type": "function"
    },
    {
      "inputs": [],
      "name": "MAX_WITHDRAWAL_OVER_REWARD_THRESHOLD_BP",
      "outputs": [
        {
          "internalType": "uint256",
          "name": "",
          "type": "uint256"
        }
      ],
      "stateMutability": "view",
      "type": "function"
    },
    {
      "inputs": [],
      "name": "PERCENT_MULTIPLIER",
      "outputs": [
        {
          "internalType": "uint256",
          "name": "",
          "type": "uint256"
        }
      ],
      "stateMutability": "view",
      "type": "function"
    },
    {
      "inputs": [],
      "name": "REF_COMMISSION_BP",
      "outputs": [
        {
          "internalType": "uint256",
          "name": "",
          "type": "uint256"
        }
      ],
      "stateMutability": "view",
      "type": "function"
    },
    {
      "inputs": [],
      "name": "REF_POOL_FEE_BP",
      "outputs": [
        {
          "internalType": "uint256",
          "name": "",
          "type": "uint256"
        }
      ],
      "stateMutability": "view",
      "type": "function"
    },
    {
      "inputs": [],
      "name": "REWARD_THRESHOLD_BP",
      "outputs": [
        {
          "internalType": "uint256",
          "name": "",
          "type": "uint256"
        }
      ],
      "stateMutability": "view",
      "type": "function"
    },
    {
      "inputs": [],
      "name": "SPONSOR_POOL_FEE_BP",
      "outputs": [
        {
          "internalType": "uint256",
          "name": "",
          "type": "uint256"
        }
      ],
      "stateMutability": "view",
      "type": "function"
    },
    {
      "inputs": [
        {
          "internalType": "address",
          "name": "_userAddress",
          "type": "address"
        },
        {
          "internalType": "uint256",
          "name": "stakeId",
          "type": "uint256"
        }
      ],
      "name": "balanceOf",
      "outputs": [
        {
          "internalType": "uint256",
          "name": "",
          "type": "uint256"
        }
      ],
      "stateMutability": "view",
      "type": "function"
    },
    {
      "inputs": [
        {
          "internalType": "uint256",
          "name": "amount",
          "type": "uint256"
        },
        {
          "internalType": "address",
          "name": "uplinkAddress",
          "type": "address"
        },
        {
          "internalType": "uint256",
          "name": "uplinkStakeId",
          "type": "uint256"
        }
      ],
      "name": "deposit",
      "outputs": [],
      "stateMutability": "nonpayable",
      "type": "function"
    },
    {
      "inputs": [
        {
          "internalType": "uint256",
          "name": "",
          "type": "uint256"
        }
      ],
      "name": "depositBonuses",
      "outputs": [
        {
          "internalType": "uint256",
          "name": "",
          "type": "uint256"
        }
      ],
      "stateMutability": "view",
      "type": "function"
    },
    {
      "inputs": [],
      "name": "devAddress",
      "outputs": [
        {
          "internalType": "address",
          "name": "",
          "type": "address"
        }
      ],
      "stateMutability": "view",
      "type": "function"
    },
    {
      "inputs": [
        {
          "internalType": "uint256",
          "name": "stakeId",
          "type": "uint256"
        }
      ],
      "name": "exitProgram",
      "outputs": [],
      "stateMutability": "nonpayable",
      "type": "function"
    },
    {
      "inputs": [],
      "name": "fourRXToken",
      "outputs": [
        {
          "internalType": "contract IERC20",
          "name": "",
          "type": "address"
        }
      ],
      "stateMutability": "view",
      "type": "function"
    },
    {
      "inputs": [],
      "name": "getContractInfo",
      "outputs": [
        {
          "internalType": "uint256",
          "name": "",
          "type": "uint256"
        },
        {
          "internalType": "uint256",
          "name": "",
          "type": "uint256"
        },
        {
          "internalType": "uint256",
          "name": "",
          "type": "uint256"
        },
        {
          "internalType": "uint256",
          "name": "",
          "type": "uint256"
        },
        {
          "internalType": "uint256",
          "name": "",
          "type": "uint256"
        },
        {
          "internalType": "uint256",
          "name": "",
          "type": "uint256"
        },
        {
          "internalType": "uint256",
          "name": "",
          "type": "uint256"
        },
        {
          "internalType": "uint256",
          "name": "",
          "type": "uint256"
        },
        {
          "internalType": "uint256",
          "name": "",
          "type": "uint256"
        },
        {
          "internalType": "uint256",
          "name": "",
          "type": "uint256"
        },
        {
          "internalType": "uint256",
          "name": "",
          "type": "uint256"
        }
      ],
      "stateMutability": "view",
      "type": "function"
    },
    {
      "inputs": [],
      "name": "getPoolInfo",
      "outputs": [
        {
          "internalType": "uint256",
          "name": "",
          "type": "uint256"
        },
        {
          "internalType": "uint256",
          "name": "",
          "type": "uint256"
        },
        {
          "internalType": "uint256",
          "name": "",
          "type": "uint256"
        },
        {
          "internalType": "uint256",
          "name": "",
          "type": "uint256"
        },
        {
          "components": [
            {
              "internalType": "address",
              "name": "user",
              "type": "address"
            },
            {
              "internalType": "uint256",
              "name": "stakeId",
              "type": "uint256"
            }
          ],
          "internalType": "struct SharedVariables.PoolUser[10]",
          "name": "",
          "type": "tuple[10]"
        },
        {
          "components": [
            {
              "internalType": "address",
              "name": "user",
              "type": "address"
            },
            {
              "internalType": "uint256",
              "name": "stakeId",
              "type": "uint256"
            }
          ],
          "internalType": "struct SharedVariables.PoolUser[12]",
          "name": "",
          "type": "tuple[12]"
        }
      ],
      "stateMutability": "view",
      "type": "function"
    },
    {
      "inputs": [
        {
          "internalType": "address",
          "name": "userAddress",
          "type": "address"
        }
      ],
      "name": "getUser",
      "outputs": [
        {
          "components": [
            {
              "internalType": "address",
              "name": "wallet",
              "type": "address"
            },
            {
              "components": [
                {
                  "internalType": "uint256",
                  "name": "id",
                  "type": "uint256"
                },
                {
                  "internalType": "bool",
                  "name": "active",
                  "type": "bool"
                },
                {
                  "internalType": "bool",
                  "name": "optInInsured",
                  "type": "bool"
                },
                {
                  "internalType": "uint256",
                  "name": "holdFrom",
                  "type": "uint256"
                },
                {
                  "internalType": "uint256",
                  "name": "deposit",
                  "type": "uint256"
                },
                {
                  "internalType": "uint256",
                  "name": "withdrawn",
                  "type": "uint256"
                },
                {
                  "internalType": "uint256",
                  "name": "penalty",
                  "type": "uint256"
                },
                {
                  "internalType": "uint256",
                  "name": "refCommission",
                  "type": "uint256"
                },
                {
                  "internalType": "uint256",
                  "name": "refPoolRewards",
                  "type": "uint256"
                },
                {
                  "internalType": "uint256",
                  "name": "sponsorPoolRewards",
                  "type": "uint256"
                },
                {
                  "internalType": "uint256",
                  "name": "interestCountFrom",
                  "type": "uint256"
                },
                {
                  "internalType": "uint256",
                  "name": "lastWithdrawalAt",
                  "type": "uint256"
                },
                {
                  "components": [
                    {
                      "internalType": "address",
                      "name": "uplinkAddress",
                      "type": "address"
                    },
                    {
                      "internalType": "uint256",
                      "name": "uplinkStakeId",
                      "type": "uint256"
                    }
                  ],
                  "internalType": "struct SharedVariables.Uplink",
                  "name": "uplink",
                  "type": "tuple"
                },
                {
                  "components": [
                    {
                      "internalType": "uint256",
                      "name": "cycle",
                      "type": "uint256"
                    },
                    {
                      "internalType": "uint256",
                      "name": "amount",
                      "type": "uint256"
                    }
                  ],
                  "internalType": "struct SharedVariables.Pool",
                  "name": "refPool",
                  "type": "tuple"
                },
                {
                  "components": [
                    {
                      "internalType": "uint256",
                      "name": "cycle",
                      "type": "uint256"
                    },
                    {
                      "internalType": "uint256",
                      "name": "amount",
                      "type": "uint256"
                    }
                  ],
                  "internalType": "struct SharedVariables.Pool",
                  "name": "sponsorPool",
                  "type": "tuple"
                }
              ],
              "internalType": "struct SharedVariables.Stake[]",
              "name": "stakes",
              "type": "tuple[]"
            }
          ],
          "internalType": "struct SharedVariables.User",
          "name": "",
          "type": "tuple"
        }
      ],
      "stateMutability": "view",
      "type": "function"
    },
    {
      "inputs": [
        {
          "internalType": "uint256",
          "name": "stakeId",
          "type": "uint256"
        }
      ],
      "name": "insureStake",
      "outputs": [],
      "stateMutability": "nonpayable",
      "type": "function"
    },
    {
      "inputs": [],
      "name": "isInInsuranceState",
      "outputs": [
        {
          "internalType": "bool",
          "name": "",
          "type": "bool"
        }
      ],
      "stateMutability": "view",
      "type": "function"
    },
    {
      "inputs": [],
      "name": "maxContractBalance",
      "outputs": [
        {
          "internalType": "uint256",
          "name": "",
          "type": "uint256"
        }
      ],
      "stateMutability": "view",
      "type": "function"
    },
    {
      "inputs": [],
      "name": "poolCycle",
      "outputs": [
        {
          "internalType": "uint256",
          "name": "",
          "type": "uint256"
        }
      ],
      "stateMutability": "view",
      "type": "function"
    },
    {
      "inputs": [],
      "name": "poolDrewAt",
      "outputs": [
        {
          "internalType": "uint256",
          "name": "",
          "type": "uint256"
        }
      ],
      "stateMutability": "view",
      "type": "function"
    },
    {
      "inputs": [],
      "name": "refPoolBalance",
      "outputs": [
        {
          "internalType": "uint256",
          "name": "",
          "type": "uint256"
        }
      ],
      "stateMutability": "view",
      "type": "function"
    },
    {
      "inputs": [
        {
          "internalType": "uint256",
          "name": "",
          "type": "uint256"
        }
      ],
      "name": "refPoolBonuses",
      "outputs": [
        {
          "internalType": "uint256",
          "name": "",
          "type": "uint256"
        }
      ],
      "stateMutability": "view",
      "type": "function"
    },
    {
      "inputs": [
        {
          "internalType": "uint256",
          "name": "",
          "type": "uint256"
        }
      ],
      "name": "refPoolUsers",
      "outputs": [
        {
          "internalType": "address",
          "name": "user",
          "type": "address"
        },
        {
          "internalType": "uint256",
          "name": "stakeId",
          "type": "uint256"
        }
      ],
      "stateMutability": "view",
      "type": "function"
    },
    {
      "inputs": [],
      "name": "sponsorPoolBalance",
      "outputs": [
        {
          "internalType": "uint256",
          "name": "",
          "type": "uint256"
        }
      ],
      "stateMutability": "view",
      "type": "function"
    },
    {
      "inputs": [
        {
          "internalType": "uint256",
          "name": "",
          "type": "uint256"
        }
      ],
      "name": "sponsorPoolBonuses",
      "outputs": [
        {
          "internalType": "uint256",
          "name": "",
          "type": "uint256"
        }
      ],
      "stateMutability": "view",
      "type": "function"
    },
    {
      "inputs": [
        {
          "internalType": "uint256",
          "name": "",
          "type": "uint256"
        }
      ],
      "name": "sponsorPoolUsers",
      "outputs": [
        {
          "internalType": "address",
          "name": "user",
          "type": "address"
        },
        {
          "internalType": "uint256",
          "name": "stakeId",
          "type": "uint256"
        }
      ],
      "stateMutability": "view",
      "type": "function"
    },
    {
      "inputs": [],
      "name": "totalActiveStakes",
      "outputs": [
        {
          "internalType": "uint256",
          "name": "",
          "type": "uint256"
        }
      ],
      "stateMutability": "view",
      "type": "function"
    },
    {
      "inputs": [],
      "name": "totalDepositRewards",
      "outputs": [
        {
          "internalType": "uint256",
          "name": "",
          "type": "uint256"
        }
      ],
      "stateMutability": "view",
      "type": "function"
    },
    {
      "inputs": [],
      "name": "totalDeposits",
      "outputs": [
        {
          "internalType": "uint256",
          "name": "",
          "type": "uint256"
        }
      ],
      "stateMutability": "view",
      "type": "function"
    },
    {
      "inputs": [],
      "name": "totalExited",
      "outputs": [
        {
          "internalType": "uint256",
          "name": "",
          "type": "uint256"
        }
      ],
      "stateMutability": "view",
      "type": "function"
    },
    {
      "inputs": [],
      "name": "totalPenalty",
      "outputs": [
        {
          "internalType": "uint256",
          "name": "",
          "type": "uint256"
        }
      ],
      "stateMutability": "view",
      "type": "function"
    },
    {
      "inputs": [],
      "name": "totalRefPoolRewards",
      "outputs": [
        {
          "internalType": "uint256",
          "name": "",
          "type": "uint256"
        }
      ],
      "stateMutability": "view",
      "type": "function"
    },
    {
      "inputs": [],
      "name": "totalRefRewards",
      "outputs": [
        {
          "internalType": "uint256",
          "name": "",
          "type": "uint256"
        }
      ],
      "stateMutability": "view",
      "type": "function"
    },
    {
      "inputs": [],
      "name": "totalSponsorPoolRewards",
      "outputs": [
        {
          "internalType": "uint256",
          "name": "",
          "type": "uint256"
        }
      ],
      "stateMutability": "view",
      "type": "function"
    },
    {
      "inputs": [],
      "name": "totalStakes",
      "outputs": [
        {
          "internalType": "uint256",
          "name": "",
          "type": "uint256"
        }
      ],
      "stateMutability": "view",
      "type": "function"
    },
    {
      "inputs": [],
      "name": "totalWithdrawn",
      "outputs": [
        {
          "internalType": "uint256",
          "name": "",
          "type": "uint256"
        }
      ],
      "stateMutability": "view",
      "type": "function"
    },
    {
      "inputs": [
        {
          "internalType": "address",
          "name": "",
          "type": "address"
        }
      ],
      "name": "users",
      "outputs": [
        {
          "internalType": "address",
          "name": "wallet",
          "type": "address"
        }
      ],
      "stateMutability": "view",
      "type": "function"
    },
    {
      "inputs": [
        {
          "internalType": "uint256",
          "name": "stakeId",
          "type": "uint256"
        }
      ],
      "name": "withdraw",
      "outputs": [],
      "stateMutability": "nonpayable",
      "type": "function"
    }
  ],
  "bytecode": "0x6080604052600b80546001600160a01b0319167364b8cb4c04ba902010856d913b4e5df940748bf21790556041805460ff191690553480156200004157600080fd5b5060405162005487380380620054878339810160408190526200006491620002f8565b600a80546001600160a01b0319166001600160a01b03831617905560398054600181810183556107d07fdc16fef70f8d5ddbc01ee3d903d1e69c18a3c7be080eb86a81e0578814ee58d3928301819055835480830185556106a49084015583548083018555610578908401558354808301855561044c90840155835480830185556103e8908401819055845480840186556102bc90850181905585548085018755610258908601819055865480860188556101f490870155865480860188556101909087018190558754808701895561012c908801558754808701895560c89088018190558854808801909955606498909701889055603a805480880182556000829052610bb87fa2999d817b6757290b50e8ecf3fa939673403dd35c97de392fdb343b4015ce9e9182015581548089018355810196909655805480880182556104b09087015580548088018255860194909455835480870185556103209086015583548087018555850192909255825480860184558401558154808501835583015580548084018255820193909355825491820190925501556200020862000214565b506000603d5562000328565b60005b6039548110156200027d576000600d82600c81106200023257fe5b6002020180546001600160a01b0319166001600160a01b03929092169190911790556000600d82600c81106200026457fe5b6002020160010181905550808060010191505062000217565b5060005b603a54811015620002e7576000602582600a81106200029c57fe5b6002020180546001600160a01b0319166001600160a01b03929092169190911790556000600d82600c8110620002ce57fe5b6002020160010181905550808060010191505062000281565b506000603f81905560405542603e55565b6000602082840312156200030a578081fd5b81516001600160a01b038116811462000321578182fd5b9392505050565b61514f80620003386000396000f3fe608060405234801561001057600080fd5b506004361061023a5760003560e01c8062fdd58e1461023f57806303162d2c146102685780630781235a146102705780630ac39f72146102785780630f9fa6aa1461027057806312dd5fe4146102705780631f079e01146102805780632673ebf71461028857806327cfe856146102905780632e1a7d4d146102985780633ad10ef6146102ad5780633df936c9146102c257806346c27f65146102ca57806348a91a24146102df578063498dc5b5146102f25780634b319713146102fa57806360246c881461030257806363b815fa1461031c57806365fcb49e1461032457806369da94d81461032c5780636f77926b146103345780637247b2b9146103545780637cc1f8671461035c5780637d8820971461037b5780638876bb3e1461038357806391994b2c1461038b5780639b6eec7d146102f25780639c236aa814610393578063a00d4980146103b4578063a13a801a146103bc578063a87430ba146103c4578063a9122af7146103d7578063aaf1a0da146103bc578063b963ddb4146103df578063bc157ac1146103e7578063bf9befb1146103fa578063bfe0e02014610402578063c37b95a01461040a578063cabea10d1461041d578063d3b04a2714610425578063d5766ebd14610438578063d82daec71461044b578063d902f40c14610453578063df5a75ef1461045b578063e52314111461046e578063e6af61c814610476578063ed56f6a11461047e578063f48e595a1461046e578063fd0b825214610491575b600080fd5b61025261024d366004614cf9565b610499565b60405161025f9190615038565b60405180910390f35b610252610682565b610252610688565b61025261068e565b610252610693565b610252610699565b61025261069f565b6102ab6102a6366004614d43565b6106a6565b005b6102b5610c02565b60405161025f9190614de9565b610252610c11565b6102d2610c17565b60405161025f9190614e3a565b6102526102ed366004614d43565b610c20565b610252610c3e565b610252610c44565b61030a610c4a565b60405161025f96959493929190615041565b610252610d3e565b610252610d44565b610252610d4a565b610347610342366004614cde565b610d50565b60405161025f9190614f0e565b610252610ec7565b610364610ecd565b60405161025f9b9a999897969594939291906150cb565b610252610efb565b610252610f01565b610252610f07565b6103a66103a1366004614d43565b610f0d565b60405161025f929190614e21565b610252610f36565b610252610f3c565b6102b56103d2366004614cde565b610f41565b6102b5610f5c565b610252610f6b565b6102ab6103f5366004614d73565b610f71565b6102526115e1565b6102526115e7565b6102ab610418366004614d43565b6115ed565b610252611644565b6102ab610433366004614d43565b61164a565b610252610446366004614d43565b611838565b610252611845565b61025261184b565b610252610469366004614d43565b611850565b61025261185d565b610252611862565b6103a661048c366004614d43565b611868565b610252611875565b6001600160a01b038083166000818152600c6020526040812054909216146104c057600080fd5b6104c8614b97565b6001600160a01b038085166000908152600c60209081526040808320815180830183528154909516855260018101805483518186028101860190945280845291948685019491929184015b82821015610629576000848152602090819020604080516101e081018252601186029092018054835260018082015460ff80821615158688015261010091829004161515858501526002830154606086015260038301546080860152600483015460a0860152600583015460c0860152600683015460e086015260078301549085015260088201546101208501526009820154610140850152600a82015461016085015282518084018452600b8301546001600160a01b03168152600c8301548187015261018085015282518084018452600d8301548152600e830154818701526101a08501528251808401909352600f8201548352601090910154828501526101c08301919091529083529092019101610513565b505050508152505090506106788160200151848151811061064657fe5b602002602001015160a001516106728360200151868151811061066557fe5b602002602001015161187b565b906118dc565b9150505b92915050565b61a8c081565b61012c81565b600281565b60035481565b60055481565b6201518081565b336000908152600c60205260408120600181018054919291849081106106c857fe5b60009182526020909120835460119092020191506001600160a01b0316331480156106f75750600181015460ff165b61070057600080fd5b4281600a015462015180011061071557600080fd5b60058101546004820154604080516101e08101825284548152600185015460ff808216151560208085019190915261010092839004909116151583850152600287015460608401526003870154608084015260a0830185905260c08301869052600687015460e084015260078701549183019190915260088601546101208301526009860154610140830152600a86015461016083015282518084018452600b8701546001600160a01b03168152600c8701548183015261018083015282518084018452600d8701548152600e870154818301526101a08301528251808401909352600f86015483526010860154908301526101c08101919091526000926108259290916106729190829061187b565b90506000811161083457600080fd5b604080516101e08101825283548152600184015460ff8082161515602080850191909152610100928390049091161515838501526002860154606084015260038601546080840152600486015460a0840152600586015460c0840152600686015460e084015260078601549183019190915260088501546101208301526009850154610140830152600a85015461016083015282518084018452600b8601546001600160a01b03168152600c8601548183015261018083015282518084018452600d8601548152600e860154818301526101a08301528251808401909352600f85015483526010850154908301526101c08101919091526000906109389083611925565b90508061097d57610959610952846003015461012c611973565b83906118dc565b9150600061096d846003015461012c611973565b90508083111561097b578092505b505b60415460ff1615610a8c57604080516101e08101825284548152600185015460ff8082161515602080850191909152610100928390049091161515838501526002870154606084015260038701546080840152600487015460a0840152600587015460c0840152600687015460e084015260078701549183019190915260088601546101208301526009860154610140830152600a86015461016083015282518084018452600b8701546001600160a01b03168152600c8701548183015261018083015282518084018452600d8701548152600e870154818301526101a08301528251808401909352600f86015483526010860154908301526101c0810191909152610a899083611985565b91505b610a9682826118dc565b600a54855460405163a9059cbb60e01b81529294506001600160a01b039182169263a9059cbb92610acd9216908690600401614e21565b602060405180830381600087803b158015610ae757600080fd5b505af1158015610afb573d6000803e3d6000fd5b505050506040513d601f19601f82011682018060405250810190610b1f9190614d23565b506004830154610b2f90836119ea565b600484015542600a840181905560028401556005830154610b5090826119ea565b6005840155600854610b6290826119ea565b6008556003830154610b7690617530611973565b836004015410610b9d576001808401805460ff19169055600354610b99916118dc565b6003555b610ba5611a18565b600154610bb290836119ea565b60015583546040517f884edad9ce6fa2440d8a54cc123490eb96d2768479d49ff9c7366125a942436491610bf3916001600160a01b03909116908590614e21565b60405180910390a15050505050565b600b546001600160a01b031681565b60405481565b60415460ff1681565b603b8181548110610c2d57fe5b600091825260209091200154905081565b61138881565b60015481565b600080600080610c58614baf565b610c60614bdd565b603e54603d5460408054603f54825161014081019093529091602590600d9082600a6000835b82821015610cc7576040805180820190915260028302850180546001600160a01b031682526001908101546020808401919091529183529092019101610c86565b5050604080516101808101909152929450839150600c90506000835b82821015610d24576040805180820190915260028302850180546001600160a01b031682526001908101546020808401919091529183529092019101610ce3565b505050509050955095509550955095509550909192939495565b61271081565b603c5481565b61753081565b610d58614b97565b6001600160a01b038083166000908152600c60209081526040808320815180830183528154909516855260018101805483518186028101860190945280845291948685019491929184015b82821015610eb9576000848152602090819020604080516101e081018252601186029092018054835260018082015460ff80821615158688015261010091829004161515858501526002830154606086015260038301546080860152600483015460a0860152600583015460c0860152600683015460e086015260078301549085015260088201546101208501526009820154610140850152600a82015461016085015282518084018452600b8301546001600160a01b03168152600c8301548187015261018085015282518084018452600d8301548152600e830154818701526101a08501528251808401909352600f8201548352601090910154828501526101c08301919091529083529092019101610da3565b505050915250909392505050565b60075481565b603c54600054600154600254600354600454600554600654600754600854600954909192939495969798999a565b60005481565b60065481565b60095481565b602581600a8110610f1a57fe5b6002020180546001909101546001600160a01b03909116915082565b6103e881565b603281565b600c602052600090815260409020546001600160a01b031681565b600a546001600160a01b031681565b6102bc81565b6001600160a01b038281166000908152600c60205260409020541615801590610fd457506001600160a01b0382166000908152600c60205260409020600101805482908110610fbc57fe5b600091825260209091206001601190920201015460ff165b80610fe657506001600160a01b038216155b610fef57600080fd5b336000908152600c6020526040902060018101541561106357336000908152600c6020526040902060018281015491018054611058926002929160001990910190811061103857fe5b906000526020600020906011020160030154611aca90919063ffffffff16565b841161106357600080fd5b600a546040516323b872dd60e01b81526001600160a01b03909116906323b872dd9061109790339030908990600401614dfd565b602060405180830381600087803b1580156110b157600080fd5b505af11580156110c5573d6000803e3d6000fd5b505050506040513d601f19601f820116820180604052508101906110e99190614d23565b6110f257600080fd5b60006110fd85611b04565b9050611107614c0b565b82546001600160a01b031916331783556001808401548252602082015242610140820181905260608201526111528261114c611145896103e8611973565b89906118dc565b906119ea565b6080820152610180810180516001600160a01b0380881690915290516020908101869052603d546101c08401805191909152518101889052604080518082018252865490931683526001860180548251818502810185019093528083526112e894938893858201939092909160009084015b828210156112da576000848152602090819020604080516101e081018252601186029092018054835260018082015460ff80821615158688015261010091829004161515858501526002830154606086015260038301546080860152600483015460a0860152600583015460c0860152600683015460e086015260078301549085015260088201546101208501526009820154610140850152600a82015461016085015282518084018452600b8301546001600160a01b03168152600c8301548187015261018085015282518084018452600d8301548152600e830154818701526101a08501528251808401909352600f8201548352601090910154828501526101c083019190915290835290920191016111c4565b505050508152505082611bd9565b6112f28682611edf565b60018381018054808301825560009182526020918290208451601190920201908155838201519281018054604086015160ff199091169415159490941761ff0019166101009415158502179055606084015160028201556080840151600382015560a0840151600482015560c0840151600582015560e0840151600682015591830151600783015561012083015160088301556101408301516009830155610160830151600a8301556101808301518051600b840180546001600160a01b0319166001600160a01b03909216919091179055810151600c8301556101a08301518051600d840155810151600e8301556101c08301518051600f840155015160109091015561140d611404876032611973565b603f54906119ea565b603f5561142761141e876032611973565b604054906119ea565b6040556114326121a6565b600a54600b546001600160a01b039182169163a9059cbb911661145789611388611973565b6040518363ffffffff1660e01b8152600401611474929190614e21565b602060405180830381600087803b15801561148e57600080fd5b505af11580156114a2573d6000803e3d6000fd5b505050506040513d601f19601f820116820180604052508101906114c69190614d23565b50600a546040516370a0823160e01b81526000916001600160a01b0316906370a08231906114f8903090600401614de9565b60206040518083038186803b15801561151057600080fd5b505afa158015611524573d6000803e3d6000fd5b505050506040513d601f19601f820116820180604052508101906115489190614d5b565b9050603c5481111561155a57603c8190555b60005461156790886119ea565b6000556002546115789060016119ea565b6002556003546115899060016119ea565b60035560075461159990846119ea565b6007556040517f5548c837ab068cf56a2c2479df0882a4922fd203edb7517321831d95078c5f62906115d090339089908b90614dfd565b60405180910390a150505050505050565b60025481565b60045481565b336000818152600c60205260409020805490916001600160a01b039091161461161557600080fd5b600081600101838154811061162657fe5b9060005260206000209060110201905061163f81612400565b505050565b603d5481565b336000818152600c60205260409020805490916001600160a01b039091161461167257600080fd5b600081600101838154811061168357fe5b600091825260208220600360119092020190810154909250906116a882611388611973565b90506116b482826118dc565b915060006116d3846005015485600401546119ea90919063ffffffff16565b9050828111156116e257600080fd5b6116ec83826118dc565b600a54865460405163a9059cbb60e01b81529295506001600160a01b039182169263a9059cbb926117239216908790600401614e21565b602060405180830381600087803b15801561173d57600080fd5b505af1158015611751573d6000803e3d6000fd5b505050506040513d601f19601f820116820180604052508101906117759190614d23565b5060018401805460ff19169055600484015461179190846119ea565b600485015560058401546117a590836119ea565b60058501556003546117b89060016118dc565b6003556009546117c99060016119ea565b6009556001546117d990846119ea565b6001556008546117e990836119ea565b60085584546040517faa5cfc974bd759f818e3e18a4afc9d79daaa0722158497792100a1fddd13e19391611828916001600160a01b0390911690614de9565b60405180910390a1505050505050565b60398181548110610c2d57fe5b603f5481565b600181565b603a8181548110610c2d57fe5b606481565b60085481565b600d81600c8110610f1a57fe5b603e5481565b6000806118878361245c565b905061012c61189a8460800151836124d4565b106118b5576118b26118ab846124e6565b82906119ea565b90505b60006118c78460800151617530611973565b9050808211156118d5578091505b5092915050565b600061191e83836040518060400160405280601e81526020017f536166654d6174683a207375627472616374696f6e206f766572666c6f77000081525061253e565b9392505050565b6000806119368460800151846124d4565b905061012c811061194b57600091505061067c565b6106788361197361196a61012c61196486612710611aca565b9061256a565b612710906118dc565b600061191e6127106119648585611aca565b60408201516000908290610dac901561199d57506127105b60006119ad866080015183611973565b90508560a0015181106119bf57600080fd5b60a086015181906119d090856119ea565b11156119e0578560a00151810392505b5090949350505050565b60008282018381101561191e5760405162461bcd60e51b8152600401611a0f90614e98565b60405180910390fd5b611a26603c54610dac611973565b600a546040516370a0823160e01b81526001600160a01b03909116906370a0823190611a56903090600401614de9565b60206040518083038186803b158015611a6e57600080fd5b505afa158015611a82573d6000803e3d6000fd5b505050506040513d601f19601f82011682018060405250810190611aa69190614d5b565b11611abd576041805460ff19166001179055611ac8565b6041805460ff191690555b565b600082611ad95750600061067c565b82820282848281611ae657fe5b041461191e5760405162461bcd60e51b8152600401611a0f90614ecd565b600080624c4b40831115611b1a57506032611bcf565b620f4240831115611b2d57506028611bcf565b620c3500831115611b4057506023611bcf565b6207a120831115611b535750601e611bcf565b6203d090831115611b6657506019611bcf565b620186a0831115611b7957506014611bcf565b61c350831115611b8b5750600f611bcf565b6161a8831115611b9d5750600a611bcf565b612710831115611baf57506005611bcf565b611388831115611bc157506002611bcf565b6107d0831115611bcf575060015b61191e8382611973565b60006025611be9600a60016118dc565b600a8110611bf357fe5b60020201546001600160a01b03161480611c945750600c60006025611c1a600a60016118dc565b600a8110611c2457fe5b60020201546001600160a01b031681526020810191909152604001600020600190810190602590611c5790600a906118dc565b600a8110611c6157fe5b600202016001015481548110611c7357fe5b9060005260206000209060110201600f0160010154816101c0015160200151115b15611edb57611ca1614c96565b60005b600a811015611ed8576000602582600a8110611cbc57fe5b60020201546001600160a01b03161415611d20578351602582600a8110611cdf57fe5b6002020180546001600160a01b0319166001600160a01b03929092169190911790558251602582600a8110611d1057fe5b6002020160010181905550611ed8565b600c6000602583600a8110611d3157fe5b60020201546001600160a01b031681526020810191909152604001600020600101602582600a8110611d5f57fe5b600202016001015481548110611d7157fe5b9060005260206000209060110201600f0160010154836101c00151602001511115611ed057602581600a8110611da357fe5b604080518082019091526002919091029190910180546001600160a01b031682526001015460208201528451909250602582600a8110611ddf57fe5b6002020180546001600160a01b0319166001600160a01b03929092169190911790558251602582600a8110611e1057fe5b6002020160010181905550611e23614c96565b815b600a831015611ec95783516001600160a01b0316611e4257611ec9565b602581600a8110611e4f57fe5b604080518082019091526002919091029190910180546001600160a01b03168252600101546020820152915083602582600a8110611e8957fe5b82516002919091029190910180546001600160a01b0319166001600160a01b03909216919091178155602090910151600191820155919350839101611e25565b5050611ed8565b600101611ca4565b50505b5050565b610180810151516001600160a01b031615801590611f48575061018081018051516001600160a01b03166000908152600c6020908152604090912091510151600190910180549091908110611f3057fe5b600091825260209091206001601190920201015460ff165b15611edb57610180810151516001600160a01b03166000908152600c6020526040812090611f78846102bc611973565b9050611fb681836001018561018001516020015181548110611f9657fe5b9060005260206000209060110201600601546119ea90919063ffffffff16565b826001018461018001516020015181548110611fce57fe5b6000918252602090912060066011909202010155603d546101a0840151511461200957603d546101a084018051919091525160006020909101525b6101a08301516020015161201d90856119ea565b6101a084015160209081019190915260408051808201825284546001600160a01b0316815260018501805483518186028101860190945280845261219094929387938581019391929060009084015b82821015612182576000848152602090819020604080516101e081018252601186029092018054835260018082015460ff80821615158688015261010091829004161515858501526002830154606086015260038301546080860152600483015460a0860152600583015460c0860152600683015460e086015260078301549085015260088201546101208501526009820154610140850152600a82015461016085015282518084018452600b8301546001600160a01b03168152600c8301548187015261018085015282518084018452600d8301548152600e830154818701526101a08501528251808401909352600f8201548352601090910154828501526101c0830191909152908352909201910161206c565b5050505081525050846125a9565b60045461219d90826119ea565b60045550505050565b603e546201518001421115611ac85760005b600c8110156122cb576000600d82600c81106121d057fe5b60020201546001600160a01b031614156121e9576122cb565b6000600c6000600d84600c81106121fc57fe5b60020201546001600160a01b031681526020810191909152604001600020603f546039805492935061228b926122489291908690811061223857fe5b9060005260206000200154611973565b82600101600d85600c811061225957fe5b60020201600101548154811061226b57fe5b9060005260206000209060110201600701546119ea90919063ffffffff16565b81600101600d84600c811061229c57fe5b6002020160010154815481106122ae57fe5b6000918252602090912060076011909202010155506001016121b8565b5060005b600a8110156123d3576000602582600a81106122e757fe5b60020201546001600160a01b03161415612300576123d3565b6000600c6000602584600a811061231357fe5b60020201546001600160a01b03168152602081019190915260409081016000209054603a8054929350612393926123509291908690811061223857fe5b82600101602585600a811061236157fe5b60020201600101548154811061237357fe5b9060005260206000209060110201600801546119ea90919063ffffffff16565b81600101602584600a81106123a457fe5b6002020160010154815481106123b657fe5b6000918252602090912060086011909202010155506001016122cf565b50603f546005546123e3916119ea565b6005556040546006546123f5916119ea565b600655611ac8612839565b6001810154610100900460ff1615801561241e5750600181015460ff165b61242757600080fd5b61244561243a82600301546103e8611973565b6003830154906118dc565b6003820155600101805461ff001916610100179055565b60008061247c8361012001518461010001516119ea90919063ffffffff16565b905060008360e00151905060006124a885608001516119736124a388610140015142612915565b612928565b905060006124b58661296e565b905060006124c98261114c858189896119ea565b979650505050505050565b600061191e8361196484612710611aca565b60008061250a61a8c061196462015180612504876060015142612915565b90611aca565b90506000612519826002611aca565b90506064811115612528575060645b612536846080015182611973565b949350505050565b600081848411156125625760405162461bcd60e51b8152600401611a0f9190614e45565b505050900390565b600061191e83836040518060400160405280601a815260200179536166654d6174683a206469766973696f6e206279207a65726f60301b815250612a20565b6023546001600160a01b0316158061260c57506023546001600160a01b03166000908152600c602052604090206024546001909101805490919081106125eb57fe5b9060005260206000209060110201600d0160010154816101a0015160200151115b15611edb57612619614c96565b60005b600c811015611ed8576000600d82600c811061263457fe5b60020201546001600160a01b03161415612688578351600d82600c811061265757fe5b6002020180546001600160a01b0319166001600160a01b03929092169190911790558251600d82600c8110611d1057fe5b600c6000600d83600c811061269957fe5b60020201546001600160a01b031681526020810191909152604001600020600101600d82600c81106126c757fe5b6002020160010154815481106126d957fe5b9060005260206000209060110201600d0160010154836101a0015160200151111561283157600d81600c811061270b57fe5b604080518082019091526002919091029190910180546001600160a01b031682526001015460208201528451909250600d82600c811061274757fe5b6002020180546001600160a01b0319166001600160a01b03929092169190911790558251600d82600c811061277857fe5b600202016001018190555061278b614c96565b815b600c831015611ec95783516001600160a01b03166127aa57611ec9565b600d81600c81106127b757fe5b604080518082019091526002919091029190910180546001600160a01b03168252600101546020820152915083600d82600c81106127f157fe5b82516002919091029190910180546001600160a01b0319166001600160a01b0390921691909117815560209091015160019182015591935083910161278d565b60010161261c565b60005b60395481101561289e576000600d82600c811061285557fe5b6002020180546001600160a01b0319166001600160a01b03929092169190911790556000600d82600c811061288657fe5b6002020160010181905550808060010191505061283c565b5060005b603a54811015612904576000602582600a81106128bb57fe5b6002020180546001600160a01b0319166001600160a01b03929092169190911790556000600d82600c81106128ec57fe5b600202016001018190555080806001019150506128a2565b506000603f81905560405542603e55565b600061191e6201518061196484866118dc565b600061012d821061293857600080fd5b6060612942612a57565b9050606061294f82614b0f565b905080848151811061295d57fe5b602002602001015192505050919050565b600a546040516370a0823160e01b81526000918291612a0191606491611964916001916001600160a01b03909116906370a08231906129b1903090600401614de9565b60206040518083038186803b1580156129c957600080fd5b505afa1580156129dd573d6000803e3d6000fd5b505050506040513d601f19601f820116820180604052508101906125049190614d5b565b905061012c811115612a12575061012c5b61191e836080015182611973565b60008183612a415760405162461bcd60e51b8152600401611a0f9190614e45565b506000838581612a4d57fe5b0495945050505050565b6040805161012d8082526125c08201909252606091829190602082016125a080368337019050509050600081600081518110612a8f57fe5b602002602001018181525050600181600181518110612aaa57fe5b602002602001018181525050600281600281518110612ac557fe5b602002602001018181525050600381600381518110612ae057fe5b602002602001018181525050600481600481518110612afb57fe5b602002602001018181525050600581600581518110612b1657fe5b602002602001018181525050600681600681518110612b3157fe5b602002602001018181525050600681600781518110612b4c57fe5b602002602001018181525050600781600881518110612b6757fe5b602002602001018181525050600881600981518110612b8257fe5b602002602001018181525050600981600a81518110612b9d57fe5b602002602001018181525050600a81600b81518110612bb857fe5b602002602001018181525050600b81600c81518110612bd357fe5b602002602001018181525050600c81600d81518110612bee57fe5b602002602001018181525050600d81600e81518110612c0957fe5b602002602001018181525050600e81600f81518110612c2457fe5b602002602001018181525050600f81601081518110612c3f57fe5b602002602001018181525050601081601181518110612c5a57fe5b602002602001018181525050601281601281518110612c7557fe5b602002602001018181525050601381601381518110612c9057fe5b602002602001018181525050601481601481518110612cab57fe5b602002602001018181525050601581601581518110612cc657fe5b602002602001018181525050601681601681518110612ce157fe5b602002602001018181525050601781601781518110612cfc57fe5b602002602001018181525050601881601881518110612d1757fe5b602002602001018181525050601981601981518110612d3257fe5b602002602001018181525050601a81601a81518110612d4d57fe5b602002602001018181525050601b81601b81518110612d6857fe5b602002602001018181525050601d81601c81518110612d8357fe5b602002602001018181525050601e81601d81518110612d9e57fe5b602002602001018181525050601f81601e81518110612db957fe5b602002602001018181525050602081601f81518110612dd457fe5b602002602001018181525050602181602081518110612def57fe5b602002602001018181525050602281602181518110612e0a57fe5b602002602001018181525050602481602281518110612e2557fe5b602002602001018181525050602581602381518110612e4057fe5b602002602001018181525050602681602481518110612e5b57fe5b602002602001018181525050602781602581518110612e7657fe5b602002602001018181525050602981602681518110612e9157fe5b602002602001018181525050602a81602781518110612eac57fe5b602002602001018181525050602b81602881518110612ec757fe5b602002602001018181525050602c81602981518110612ee257fe5b602002602001018181525050602e81602a81518110612efd57fe5b602002602001018181525050602f81602b81518110612f1857fe5b602002602001018181525050603081602c81518110612f3357fe5b602002602001018181525050603281602d81518110612f4e57fe5b602002602001018181525050603381602e81518110612f6957fe5b602002602001018181525050603481602f81518110612f8457fe5b602002602001018181525050603681603081518110612f9f57fe5b602002602001018181525050603781603181518110612fba57fe5b602002602001018181525050603981603281518110612fd557fe5b602002602001018181525050603a81603381518110612ff057fe5b602002602001018181525050603b8160348151811061300b57fe5b602002602001018181525050603d8160358151811061302657fe5b602002602001018181525050603e8160368151811061304157fe5b60200260200101818152505060408160378151811061305c57fe5b60200260200101818152505060418160388151811061307757fe5b60200260200101818152505060438160398151811061309257fe5b602002602001018181525050604481603a815181106130ad57fe5b602002602001018181525050604681603b815181106130c857fe5b602002602001018181525050604781603c815181106130e357fe5b602002602001018181525050604981603d815181106130fe57fe5b602002602001018181525050604a81603e8151811061311957fe5b602002602001018181525050604c81603f8151811061313457fe5b602002602001018181525050604d8160408151811061314f57fe5b602002602001018181525050604f8160418151811061316a57fe5b60200260200101818152505060518160428151811061318557fe5b6020026020010181815250506052816043815181106131a057fe5b6020026020010181815250506054816044815181106131bb57fe5b6020026020010181815250506056816045815181106131d657fe5b6020026020010181815250506057816046815181106131f157fe5b60200260200101818152505060598160478151811061320c57fe5b602002602001018181525050605b8160488151811061322757fe5b602002602001018181525050605c8160498151811061324257fe5b602002602001018181525050605e81604a8151811061325d57fe5b602002602001018181525050606081604b8151811061327857fe5b602002602001018181525050606281604c8151811061329357fe5b602002602001018181525050606381604d815181106132ae57fe5b602002602001018181525050606581604e815181106132c957fe5b602002602001018181525050606781604f815181106132e457fe5b6020026020010181815250506069816050815181106132ff57fe5b602002602001018181525050606b8160518151811061331a57fe5b602002602001018181525050606c8160528151811061333557fe5b602002602001018181525050606e8160538151811061335057fe5b60200260200101818152505060708160548151811061336b57fe5b60200260200101818152505060728160558151811061338657fe5b6020026020010181815250506074816056815181106133a157fe5b6020026020010181815250506076816057815181106133bc57fe5b6020026020010181815250506078816058815181106133d757fe5b602002602001018181525050607a816059815181106133f257fe5b602002602001018181525050607c81605a8151811061340d57fe5b602002602001018181525050607e81605a8151811061342857fe5b602002602001018181525050608081605c8151811061344357fe5b602002602001018181525050608281605d8151811061345e57fe5b602002602001018181525050608481605e8151811061347957fe5b602002602001018181525050608681605f8151811061349457fe5b6020026020010181815250506088816060815181106134af57fe5b602002602001018181525050608a816061815181106134ca57fe5b602002602001018181525050608d816062815181106134e557fe5b602002602001018181525050608f8160638151811061350057fe5b60200260200101818152505060918160648151811061351b57fe5b60200260200101818152505060938160658151811061353657fe5b60200260200101818152505060958160668151811061355157fe5b60200260200101818152505060988160678151811061356c57fe5b602002602001018181525050609a8160688151811061358757fe5b602002602001018181525050609c816069815181106135a257fe5b602002602001018181525050609f81606a815181106135bd57fe5b60200260200101818152505060a181606b815181106135d857fe5b60200260200101818152505060a381606c815181106135f357fe5b60200260200101818152505060a681606d8151811061360e57fe5b60200260200101818152505060a881606e8151811061362957fe5b60200260200101818152505060aa81606f8151811061364457fe5b60200260200101818152505060ad8160708151811061365f57fe5b60200260200101818152505060af8160718151811061367a57fe5b60200260200101818152505060b28160728151811061369557fe5b60200260200101818152505060b4816073815181106136b057fe5b60200260200101818152505060b7816074815181106136cb57fe5b60200260200101818152505060b9816075815181106136e657fe5b60200260200101818152505060bc8160768151811061370157fe5b60200260200101818152505060be8160778151811061371c57fe5b60200260200101818152505060c18160788151811061373757fe5b60200260200101818152505060c48160798151811061375257fe5b60200260200101818152505060c681607a8151811061376d57fe5b60200260200101818152505060c981607b8151811061378857fe5b60200260200101818152505060cc81607c815181106137a357fe5b60200260200101818152505060ce81607d815181106137be57fe5b60200260200101818152505060d181607e815181106137d957fe5b60200260200101818152505060d481607f815181106137f457fe5b60200260200101818152505060d78160808151811061380f57fe5b60200260200101818152505060da8160818151811061382a57fe5b60200260200101818152505060dd8160828151811061384557fe5b60200260200101818152505060df8160838151811061386057fe5b60200260200101818152505060e28160848151811061387b57fe5b60200260200101818152505060e58160858151811061389657fe5b60200260200101818152505060e8816086815181106138b157fe5b60200260200101818152505060eb816087815181106138cc57fe5b60200260200101818152505060ee816088815181106138e757fe5b60200260200101818152505060f18160898151811061390257fe5b60200260200101818152505060f481608a8151811061391d57fe5b60200260200101818152505060f781608b8151811061393857fe5b60200260200101818152505060fb81608c8151811061395357fe5b60200260200101818152505060fe81608d8151811061396e57fe5b60200260200101818152505061010181608e8151811061398a57fe5b60200260200101818152505061010481608f815181106139a657fe5b602002602001018181525050610107816090815181106139c257fe5b60200260200101818152505061010b816091815181106139de57fe5b60200260200101818152505061010e816092815181106139fa57fe5b60200260200101818152505061011181609381518110613a1657fe5b60200260200101818152505061011581609481518110613a3257fe5b60200260200101818152505061011881609581518110613a4e57fe5b60200260200101818152505061011b81609681518110613a6a57fe5b60200260200101818152505061011f81609781518110613a8657fe5b60200260200101818152505061012281609881518110613aa257fe5b60200260200101818152505061012681609981518110613abe57fe5b60200260200101818152505061012981609a81518110613ada57fe5b60200260200101818152505061012d81609b81518110613af657fe5b60200260200101818152505061013181609c81518110613b1257fe5b60200260200101818152505061013481609d81518110613b2e57fe5b60200260200101818152505061013881609e81518110613b4a57fe5b60200260200101818152505061013c81609f81518110613b6657fe5b60200260200101818152505061013f8160a081518110613b8257fe5b6020026020010181815250506101438160a181518110613b9e57fe5b6020026020010181815250506101478160a281518110613bba57fe5b60200260200101818152505061014b8160a381518110613bd657fe5b60200260200101818152505061014f8160a481518110613bf257fe5b6020026020010181815250506101538160a581518110613c0e57fe5b6020026020010181815250506101578160a681518110613c2a57fe5b60200260200101818152505061015b8160a781518110613c4657fe5b60200260200101818152505061015f8160a881518110613c6257fe5b6020026020010181815250506101638160a981518110613c7e57fe5b6020026020010181815250506101678160aa81518110613c9a57fe5b60200260200101818152505061016b8160ab81518110613cb657fe5b60200260200101818152505061016f8160ac81518110613cd257fe5b6020026020010181815250506101738160ad81518110613cee57fe5b6020026020010181815250506101778160ae81518110613d0a57fe5b60200260200101818152505061017c8160af81518110613d2657fe5b6020026020010181815250506101808160b081518110613d4257fe5b6020026020010181815250506101848160b181518110613d5e57fe5b6020026020010181815250506101898160b281518110613d7a57fe5b60200260200101818152505061018d8160b381518110613d9657fe5b6020026020010181815250506101928160b481518110613db257fe5b6020026020010181815250506101968160b581518110613dce57fe5b60200260200101818152505061019b8160b681518110613dea57fe5b60200260200101818152505061019f8160b781518110613e0657fe5b6020026020010181815250506101a48160b881518110613e2257fe5b6020026020010181815250506101a98160b981518110613e3e57fe5b6020026020010181815250506101ad8160ba81518110613e5a57fe5b6020026020010181815250506101b28160bb81518110613e7657fe5b6020026020010181815250506101b78160bc81518110613e9257fe5b6020026020010181815250506101bc8160bd81518110613eae57fe5b6020026020010181815250506101c18160be81518110613eca57fe5b6020026020010181815250506101c68160bf81518110613ee657fe5b6020026020010181815250506101cb8160c081518110613f0257fe5b6020026020010181815250506101d08160c181518110613f1e57fe5b6020026020010181815250506101d58160c281518110613f3a57fe5b6020026020010181815250506101da8160c381518110613f5657fe5b6020026020010181815250506101df8160c481518110613f7257fe5b6020026020010181815250506101e48160c581518110613f8e57fe5b6020026020010181815250506101e98160c681518110613faa57fe5b6020026020010181815250506101ef8160c781518110613fc657fe5b6020026020010181815250506101f48160c881518110613fe257fe5b6020026020010181815250506101fa8160c981518110613ffe57fe5b6020026020010181815250506101ff8160ca8151811061401a57fe5b6020026020010181815250506102048160cb8151811061403657fe5b60200260200101818152505061020a8160cc8151811061405257fe5b6020026020010181815250506102108160cd8151811061406e57fe5b6020026020010181815250506102158160ce8151811061408a57fe5b60200260200101818152505061021b8160cf815181106140a657fe5b6020026020010181815250506102218160d0815181106140c257fe5b6020026020010181815250506102278160d1815181106140de57fe5b60200260200101818152505061022c8160d2815181106140fa57fe5b6020026020010181815250506102328160d38151811061411657fe5b6020026020010181815250506102388160d48151811061413257fe5b60200260200101818152505061023e8160d58151811061414e57fe5b6020026020010181815250506102448160d68151811061416a57fe5b60200260200101818152505061024a8160d78151811061418657fe5b6020026020010181815250506102518160d8815181106141a257fe5b6020026020010181815250506102578160d9815181106141be57fe5b60200260200101818152505061025d8160da815181106141da57fe5b6020026020010181815250506102638160db815181106141f657fe5b60200260200101818152505061026a8160dc8151811061421257fe5b6020026020010181815250506102708160dd8151811061422e57fe5b6020026020010181815250506102778160de8151811061424a57fe5b60200260200101818152505061027d8160df8151811061426657fe5b6020026020010181815250506102848160e08151811061428257fe5b60200260200101818152505061028b8160e18151811061429e57fe5b6020026020010181815250506102928160e2815181106142ba57fe5b6020026020010181815250506102988160e3815181106142d657fe5b60200260200101818152505061029f8160e4815181106142f257fe5b6020026020010181815250506102a68160e58151811061430e57fe5b6020026020010181815250506102ad8160e68151811061432a57fe5b6020026020010181815250506102b48160e78151811061434657fe5b6020026020010181815250506102bb8160e88151811061436257fe5b6020026020010181815250506102c38160e98151811061437e57fe5b6020026020010181815250506102ca8160ea8151811061439a57fe5b6020026020010181815250506102d18160eb815181106143b657fe5b6020026020010181815250506102d98160ec815181106143d257fe5b6020026020010181815250506102e08160ed815181106143ee57fe5b6020026020010181815250506102e88160ee8151811061440a57fe5b6020026020010181815250506102ef8160ef8151811061442657fe5b6020026020010181815250506102f78160f08151811061444257fe5b6020026020010181815250506102ff8160f18151811061445e57fe5b6020026020010181815250506103068160f28151811061447a57fe5b60200260200101818152505061030e8160f38151811061449657fe5b6020026020010181815250506103168160f4815181106144b257fe5b60200260200101818152505061031e8160f5815181106144ce57fe5b6020026020010181815250506103268160f6815181106144ea57fe5b60200260200101818152505061032e8160f78151811061450657fe5b6020026020010181815250506103378160f88151811061452257fe5b60200260200101818152505061033f8160f98151811061453e57fe5b6020026020010181815250506103478160fa8151811061455a57fe5b6020026020010181815250506103508160fb8151811061457657fe5b6020026020010181815250506103588160fc8151811061459257fe5b6020026020010181815250506103618160fd815181106145ae57fe5b60200260200101818152505061036a8160fe815181106145ca57fe5b6020026020010181815250506103728160ff815181106145e657fe5b60200260200101818152505061037b816101008151811061460357fe5b602002602001018181525050610384816101018151811061462057fe5b60200260200101818152505061038d816101028151811061463d57fe5b602002602001018181525050610396816101038151811061465a57fe5b60200260200101818152505061039f816101048151811061467757fe5b6020026020010181815250506103a9816101058151811061469457fe5b6020026020010181815250506103b281610106815181106146b157fe5b6020026020010181815250506103bb81610107815181106146ce57fe5b6020026020010181815250506103c581610108815181106146eb57fe5b6020026020010181815250506103ce816101098151811061470857fe5b6020026020010181815250506103d88161010a8151811061472557fe5b6020026020010181815250506103e28161010b8151811061474257fe5b6020026020010181815250506103ec8161010c8151811061475f57fe5b6020026020010181815250506103f68161010d8151811061477c57fe5b6020026020010181815250506104008161010e8151811061479957fe5b60200260200101818152505061040a8161010f815181106147b657fe5b60200260200101818152505061041481610110815181106147d357fe5b60200260200101818152505061041e81610111815181106147f057fe5b602002602001018181525050610429816101128151811061480d57fe5b602002602001018181525050610433816101138151811061482a57fe5b60200260200101818152505061043e816101148151811061484757fe5b602002602001018181525050610448816101158151811061486457fe5b602002602001018181525050610453816101168151811061488157fe5b60200260200101818152505061045e816101178151811061489e57fe5b60200260200101818152505061046981610118815181106148bb57fe5b60200260200101818152505061047481610119815181106148d857fe5b60200260200101818152505061047f8161011a815181106148f557fe5b60200260200101818152505061048a8161011b8151811061491257fe5b6020026020010181815250506104968161011c8151811061492f57fe5b6020026020010181815250506104a18161011d8151811061494c57fe5b6020026020010181815250506104ad8161011e8151811061496957fe5b6020026020010181815250506104b88161011f8151811061498657fe5b6020026020010181815250506104c481610120815181106149a357fe5b6020026020010181815250506104d081610121815181106149c057fe5b6020026020010181815250506104dc81610122815181106149dd57fe5b6020026020010181815250506104e881610123815181106149fa57fe5b6020026020010181815250506104f48161012481518110614a1757fe5b6020026020010181815250506105018161012581518110614a3457fe5b60200260200101818152505061050d8161012681518110614a5157fe5b60200260200101818152505061051a8161012781518110614a6e57fe5b6020026020010181815250506105268161012881518110614a8b57fe5b6020026020010181815250506105338161012981518110614aa857fe5b6020026020010181815250506105408161012a81518110614ac557fe5b60200260200101818152505061054d8161012b81518110614ae257fe5b60200260200101818152505061055a8161012c81518110614aff57fe5b6020908102919091010152905090565b6040805161012d8082526125c08201909252606091829190602082016125a0803683370190505090506000805b61012d811015614b8e57614b6c858281518110614b5557fe5b6020026020010151836119ea90919063ffffffff16565b915081838281518110614b7b57fe5b6020908102919091010152600101614b3c565b50909392505050565b60408051808201909152600081526060602082015290565b604051806101400160405280600a905b614bc7614c96565b815260200190600190039081614bbf5790505090565b604051806101800160405280600c905b614bf5614c96565b815260200190600190039081614bed5790505090565b604051806101e0016040528060008152602001600015158152602001600015158152602001600081526020016000815260200160008152602001600081526020016000815260200160008152602001600081526020016000815260200160008152602001614c77614c96565b8152602001614c84614cad565b8152602001614c91614cad565b905290565b604080518082019091526000808252602082015290565b604051806040016040528060008152602001600081525090565b80356001600160a01b038116811461067c57600080fd5b600060208284031215614cef578081fd5b61191e8383614cc7565b60008060408385031215614d0b578081fd5b614d158484614cc7565b946020939093013593505050565b600060208284031215614d34578081fd5b8151801515811461191e578182fd5b600060208284031215614d54578081fd5b5035919050565b600060208284031215614d6c578081fd5b5051919050565b600080600060608486031215614d87578081fd5b83359250614d988560208601614cc7565b9150604084013590509250925092565b6000614db48383614dc2565b505060400190565b15159052565b80516001600160a01b03168252602090810151910152565b80518252602090810151910152565b6001600160a01b0391909116815260200190565b6001600160a01b039384168152919092166020820152604081019190915260600190565b6001600160a01b03929092168252602082015260400190565b901515815260200190565b6000602080835283518082850152825b81811015614e7157858101830151858201604001528201614e55565b81811115614e825783604083870101525b50601f01601f1916929092016040019392505050565b6020808252601b908201527a536166654d6174683a206164646974696f6e206f766572666c6f7760281b604082015260600190565b60208082526021908201527f536166654d6174683a206d756c7469706c69636174696f6e206f766572666c6f6040820152607760f81b606082015260800190565b602080825282516001600160a01b031682820152828101516040808401819052815160608086018290526000949390926080929185019183880190875b818110156150295784518051845288810151614f698a860182614dbc565b5084810151614f7a86860182614dbc565b508088015184890152868101518785015260a0808201519085015260c0808201519085015260e08082015190850152610100808201519085015261012080820151908501526101408082015190850152610160808201519085015261018080820151614fe882870182614dc2565b50506101a08101516101c0614fff81870183614dda565b91909101519050615014610200850182614dda565b50938701936102409290920191600101614f4b565b50909998505050505050505050565b90815260200190565b6000610600820190508782526020878184015260408781850152866060850152608084018660005b600a81101561508b5761507d838351614da8565b925090840190600101615069565b50505061030084018560005b600c8110156150bb576150ab838351614dc2565b9183019190840190600101615097565b5050505050979650505050505050565b9a8b5260208b019990995260408a01979097526060890195909552608088019390935260a087019190915260c086015260e0850152610100840152610120830152610140820152610160019056fea2646970667358221220d7296e3708a3670787794b4f8aae11791da142d2f63ab64595977444f7f921c564736f6c634300060c0033",
  "compiler": {
    "name": "solc",
    "version": "0.6.12+commit.27d51765.Emscripten.clang",
    "optimizer": {
      "enabled": true,
      "runs": 1
    },
    "evmVersion": "petersburg"
  }
}