{
  "fileName": "Insurance.sol",
  "contractName": "Insurance",
  "source": "// SPDX-License-Identifier: MIT\npragma solidity ^0.6.12;\n\nimport \"./RewardsAndPenalties.sol\";\n\ncontract Insurance is RewardsAndPenalties {\n    uint baseInsuranceForBP = 3500; // trigger insurance with contract balance fall below 35%\n\n\n    bool isInInsuranceState = false; // if contract is only allowing insured money this becomes true;\n\n    uint optInInsuranceFeeBP = 1000; // 10%\n    uint optInInsuranceForBP = 10000; // 100%\n\n    function checkForBaseInsuranceTrigger() internal {\n        if (fourRXToken.balanceOf(address(this)) <= _calcPercentage(maxContractBalance, baseInsuranceForBP)) {\n            isInInsuranceState = true;\n        } else {\n            isInInsuranceState = false;\n        }\n    }\n\n    function getInsuredAvailableAmount(Investment memory investment, uint availableAmount) internal view returns (uint)\n    {\n        // Calc correct insured value by checking which insurance should be applied\n        uint insuredFor = baseInsuranceForBP;\n        if (investment.optInInsured) {\n            insuredFor = optInInsuranceForBP;\n        }\n\n        uint maxWithdrawalAllowed = _calcPercentage(investment.deposit, insuredFor);\n        require(maxWithdrawalAllowed < investment.withdrawn); // if contract is in insurance trigger, do not allow withdrawals for the users who already have withdrawn more then 35%\n\n        if (investment.withdrawn.add(availableAmount) > maxWithdrawalAllowed) {\n            availableAmount = maxWithdrawalAllowed - investment.withdrawn;\n        }\n\n        return availableAmount;\n    }\n\n    function _insureInvestment(Investment storage investment) internal {\n        require(!investment.optInInsured && investment.active);\n\n        investment.deposit = investment.deposit.sub(_calcPercentage(investment.deposit, optInInsuranceFeeBP));\n        investment.optInInsured = true;\n    }\n\n\n}\n",
  "sourcePath": "contracts/Insurance.sol",
  "abi": [
    {
      "anonymous": false,
      "inputs": [
        {
          "indexed": false,
          "internalType": "address",
          "name": "user",
          "type": "address"
        },
        {
          "indexed": false,
          "internalType": "address",
          "name": "uplink",
          "type": "address"
        },
        {
          "indexed": false,
          "internalType": "uint256",
          "name": "amount",
          "type": "uint256"
        }
      ],
      "name": "Deposit",
      "type": "event"
    },
    {
      "anonymous": false,
      "inputs": [
        {
          "indexed": false,
          "internalType": "address",
          "name": "user",
          "type": "address"
        }
      ],
      "name": "Exited",
      "type": "event"
    },
    {
      "anonymous": false,
      "inputs": [
        {
          "indexed": false,
          "internalType": "address",
          "name": "user",
          "type": "address"
        },
        {
          "indexed": false,
          "internalType": "uint256",
          "name": "amount",
          "type": "uint256"
        }
      ],
      "name": "ReInvest",
      "type": "event"
    },
    {
      "anonymous": false,
      "inputs": [
        {
          "indexed": false,
          "internalType": "address",
          "name": "user",
          "type": "address"
        },
        {
          "indexed": false,
          "internalType": "uint256",
          "name": "amount",
          "type": "uint256"
        }
      ],
      "name": "Withdraw",
      "type": "event"
    },
    {
      "inputs": [
        {
          "internalType": "uint256",
          "name": "",
          "type": "uint256"
        }
      ],
      "name": "depositBonuses",
      "outputs": [
        {
          "internalType": "uint256",
          "name": "",
          "type": "uint256"
        }
      ],
      "stateMutability": "view",
      "type": "function"
    },
    {
      "inputs": [
        {
          "internalType": "uint256",
          "name": "",
          "type": "uint256"
        }
      ],
      "name": "refPoolBonuses",
      "outputs": [
        {
          "internalType": "uint256",
          "name": "",
          "type": "uint256"
        }
      ],
      "stateMutability": "view",
      "type": "function"
    },
    {
      "inputs": [
        {
          "internalType": "uint256",
          "name": "",
          "type": "uint256"
        }
      ],
      "name": "refPoolUsers",
      "outputs": [
        {
          "internalType": "address",
          "name": "user",
          "type": "address"
        },
        {
          "internalType": "uint256",
          "name": "investmentId",
          "type": "uint256"
        }
      ],
      "stateMutability": "view",
      "type": "function"
    },
    {
      "inputs": [
        {
          "internalType": "uint256",
          "name": "",
          "type": "uint256"
        }
      ],
      "name": "sponsorPoolBonuses",
      "outputs": [
        {
          "internalType": "uint256",
          "name": "",
          "type": "uint256"
        }
      ],
      "stateMutability": "view",
      "type": "function"
    },
    {
      "inputs": [
        {
          "internalType": "uint256",
          "name": "",
          "type": "uint256"
        }
      ],
      "name": "sponsorPoolUsers",
      "outputs": [
        {
          "internalType": "address",
          "name": "user",
          "type": "address"
        },
        {
          "internalType": "uint256",
          "name": "investmentId",
          "type": "uint256"
        }
      ],
      "stateMutability": "view",
      "type": "function"
    }
  ],
  "bytecode": "0x60806040526127106000818155600190815562030d406002908155620151806003556175306005556103e860068190556102bc6007556113886008819055600980546001600160a01b0319167364b8cb4c04ba902010856d913b4e5df940748bf21790556032600a819055600b55600c5561012c600d8190556064600e819055600f949094556010929092556011929092556012819055601355610dac6053556054805460ff191690556055556056553480156100bb57600080fd5b506101c6806100cb6000396000f3fe608060405234801561001057600080fd5b50600436106100575760003560e01c806348a91a241461005c5780639c236aa81461008b578063d5766ebd146100cb578063df5a75ef146100e8578063ed56f6a114610105575b600080fd5b6100796004803603602081101561007257600080fd5b5035610122565b60408051918252519081900360200190f35b6100a8600480360360208110156100a157600080fd5b5035610140565b604080516001600160a01b03909316835260208301919091528051918290030190f35b610079600480360360208110156100e157600080fd5b5035610169565b610079600480360360208110156100fe57600080fd5b5035610176565b6100a86004803603602081101561011b57600080fd5b5035610183565b6048818154811061012f57fe5b600091825260209091200154905081565b603181600a811061014d57fe5b6002020180546001909101546001600160a01b03909116915082565b6046818154811061012f57fe5b6047818154811061012f57fe5b601981600c811061014d57fefea26469706673582212204debe356ac6fe3ebf8e276a2e8dc59a59d466f3d76c659bc62580f7bdbdc6f4764736f6c634300060c0033",
  "compiler": {
    "name": "solc",
    "version": "0.6.12+commit.27d51765.Emscripten.clang",
    "optimizer": {
      "enabled": true,
      "runs": 1
    },
    "evmVersion": "petersburg"
  }
}