{
  "fileName": "Insurance.sol",
  "contractName": "Insurance",
  "source": "// SPDX-License-Identifier: MIT\npragma solidity ^0.6.12;\n\nimport \"./RewardsAndPenalties.sol\";\n\n\ncontract Insurance is RewardsAndPenalties {\n    uint private constant BASE_INSURANCE_FOR_BP = 3500; // trigger insurance with contract balance fall below 35%\n    uint private constant OPT_IN_INSURANCE_FEE_BP = 1000; // 10%\n    uint private constant OPT_IN_INSURANCE_FOR_BP = 10000; // 100%\n\n    bool public isInInsuranceState = false; // if contract is only allowing insured money this becomes true;\n\n    function _checkForBaseInsuranceTrigger() internal {\n        if (fourRXToken.balanceOf(address(this)) <= _calcPercentage(maxContractBalance, BASE_INSURANCE_FOR_BP)) {\n            isInInsuranceState = true;\n        } else {\n            isInInsuranceState = false;\n        }\n    }\n\n    function _getInsuredAvailableAmount(Stake memory stake, uint withdrawalAmount) internal pure returns (uint)\n    {\n        uint availableAmount = withdrawalAmount;\n        // Calc correct insured value by checking which insurance should be applied\n        uint insuredFor = BASE_INSURANCE_FOR_BP;\n        if (stake.optInInsured) {\n            insuredFor = OPT_IN_INSURANCE_FOR_BP;\n        }\n\n        uint maxWithdrawalAllowed = _calcPercentage(stake.deposit, insuredFor);\n\n        require(maxWithdrawalAllowed >= stake.withdrawn.add(stake.penalty)); // if contract is in insurance trigger, do not allow withdrawals for the users who already have withdrawn more then 35%\n\n        if (stake.withdrawn.add(availableAmount).add(stake.penalty) > maxWithdrawalAllowed) {\n            availableAmount = maxWithdrawalAllowed.sub(stake.withdrawn).sub(stake.penalty);\n        }\n\n        return availableAmount;\n    }\n\n    function _insureStake(address user, Stake storage stake) internal {\n        require(!stake.optInInsured && stake.active);\n        require(fourRXToken.transferFrom(user, address(this), _calcPercentage(stake.deposit, OPT_IN_INSURANCE_FEE_BP)));\n\n        stake.optInInsured = true;\n    }\n}\n",
  "sourcePath": "contracts/Insurance.sol",
  "abi": [
    {
      "anonymous": false,
      "inputs": [
        {
          "indexed": false,
          "internalType": "address",
          "name": "user",
          "type": "address"
        },
        {
          "indexed": false,
          "internalType": "uint256",
          "name": "amount",
          "type": "uint256"
        },
        {
          "indexed": false,
          "internalType": "address",
          "name": "uplinkAddress",
          "type": "address"
        },
        {
          "indexed": false,
          "internalType": "uint256",
          "name": "uplinkStakeId",
          "type": "uint256"
        }
      ],
      "name": "Deposit",
      "type": "event"
    },
    {
      "anonymous": false,
      "inputs": [
        {
          "indexed": false,
          "internalType": "address",
          "name": "user",
          "type": "address"
        },
        {
          "indexed": false,
          "internalType": "uint256",
          "name": "stakeId",
          "type": "uint256"
        },
        {
          "indexed": false,
          "internalType": "uint256",
          "name": "amount",
          "type": "uint256"
        }
      ],
      "name": "Exited",
      "type": "event"
    },
    {
      "anonymous": false,
      "inputs": [
        {
          "indexed": false,
          "internalType": "uint256",
          "name": "refPoolAmount",
          "type": "uint256"
        },
        {
          "indexed": false,
          "internalType": "uint256",
          "name": "sponsirPoolAmount",
          "type": "uint256"
        }
      ],
      "name": "PoolDrawn",
      "type": "event"
    },
    {
      "anonymous": false,
      "inputs": [
        {
          "indexed": false,
          "internalType": "address",
          "name": "user",
          "type": "address"
        },
        {
          "indexed": false,
          "internalType": "uint256",
          "name": "amount",
          "type": "uint256"
        }
      ],
      "name": "ReInvest",
      "type": "event"
    },
    {
      "anonymous": false,
      "inputs": [
        {
          "indexed": false,
          "internalType": "address",
          "name": "user",
          "type": "address"
        },
        {
          "indexed": false,
          "internalType": "uint256",
          "name": "amount",
          "type": "uint256"
        }
      ],
      "name": "Withdrawn",
      "type": "event"
    },
    {
      "inputs": [],
      "name": "CONTRACT_BONUS_PER_UNIT_BP",
      "outputs": [
        {
          "internalType": "uint256",
          "name": "",
          "type": "uint256"
        }
      ],
      "stateMutability": "view",
      "type": "function"
    },
    {
      "inputs": [],
      "name": "CONTRACT_BONUS_UNIT",
      "outputs": [
        {
          "internalType": "uint256",
          "name": "",
          "type": "uint256"
        }
      ],
      "stateMutability": "view",
      "type": "function"
    },
    {
      "inputs": [],
      "name": "DAY",
      "outputs": [
        {
          "internalType": "uint256",
          "name": "",
          "type": "uint256"
        }
      ],
      "stateMutability": "view",
      "type": "function"
    },
    {
      "inputs": [],
      "name": "DEV_FEE_BP",
      "outputs": [
        {
          "internalType": "uint256",
          "name": "",
          "type": "uint256"
        }
      ],
      "stateMutability": "view",
      "type": "function"
    },
    {
      "inputs": [],
      "name": "EXIT_PENALTY_BP",
      "outputs": [
        {
          "internalType": "uint256",
          "name": "",
          "type": "uint256"
        }
      ],
      "stateMutability": "view",
      "type": "function"
    },
    {
      "inputs": [],
      "name": "HOLD_BONUS_PER_UNIT_BP",
      "outputs": [
        {
          "internalType": "uint256",
          "name": "",
          "type": "uint256"
        }
      ],
      "stateMutability": "view",
      "type": "function"
    },
    {
      "inputs": [],
      "name": "HOLD_BONUS_UNIT",
      "outputs": [
        {
          "internalType": "uint256",
          "name": "",
          "type": "uint256"
        }
      ],
      "stateMutability": "view",
      "type": "function"
    },
    {
      "inputs": [],
      "name": "LP_FEE_BP",
      "outputs": [
        {
          "internalType": "uint256",
          "name": "",
          "type": "uint256"
        }
      ],
      "stateMutability": "view",
      "type": "function"
    },
    {
      "inputs": [],
      "name": "MAX_CONTRACT_BONUS_BP",
      "outputs": [
        {
          "internalType": "uint256",
          "name": "",
          "type": "uint256"
        }
      ],
      "stateMutability": "view",
      "type": "function"
    },
    {
      "inputs": [],
      "name": "MAX_CONTRACT_REWARD_BP",
      "outputs": [
        {
          "internalType": "uint256",
          "name": "",
          "type": "uint256"
        }
      ],
      "stateMutability": "view",
      "type": "function"
    },
    {
      "inputs": [],
      "name": "MAX_HOLD_BONUS_BP",
      "outputs": [
        {
          "internalType": "uint256",
          "name": "",
          "type": "uint256"
        }
      ],
      "stateMutability": "view",
      "type": "function"
    },
    {
      "inputs": [],
      "name": "MAX_WITHDRAWAL_OVER_REWARD_THRESHOLD_BP",
      "outputs": [
        {
          "internalType": "uint256",
          "name": "",
          "type": "uint256"
        }
      ],
      "stateMutability": "view",
      "type": "function"
    },
    {
      "inputs": [],
      "name": "PERCENT_MULTIPLIER",
      "outputs": [
        {
          "internalType": "uint256",
          "name": "",
          "type": "uint256"
        }
      ],
      "stateMutability": "view",
      "type": "function"
    },
    {
      "inputs": [],
      "name": "REF_COMMISSION_BP",
      "outputs": [
        {
          "internalType": "uint256",
          "name": "",
          "type": "uint256"
        }
      ],
      "stateMutability": "view",
      "type": "function"
    },
    {
      "inputs": [],
      "name": "REF_POOL_FEE_BP",
      "outputs": [
        {
          "internalType": "uint256",
          "name": "",
          "type": "uint256"
        }
      ],
      "stateMutability": "view",
      "type": "function"
    },
    {
      "inputs": [],
      "name": "REWARD_THRESHOLD_BP",
      "outputs": [
        {
          "internalType": "uint256",
          "name": "",
          "type": "uint256"
        }
      ],
      "stateMutability": "view",
      "type": "function"
    },
    {
      "inputs": [],
      "name": "SPONSOR_POOL_FEE_BP",
      "outputs": [
        {
          "internalType": "uint256",
          "name": "",
          "type": "uint256"
        }
      ],
      "stateMutability": "view",
      "type": "function"
    },
    {
      "inputs": [],
      "name": "devAddress",
      "outputs": [
        {
          "internalType": "address",
          "name": "",
          "type": "address"
        }
      ],
      "stateMutability": "view",
      "type": "function"
    },
    {
      "inputs": [],
      "name": "drawPool",
      "outputs": [],
      "stateMutability": "nonpayable",
      "type": "function"
    },
    {
      "inputs": [],
      "name": "fourRXToken",
      "outputs": [
        {
          "internalType": "contract IERC20",
          "name": "",
          "type": "address"
        }
      ],
      "stateMutability": "view",
      "type": "function"
    },
    {
      "inputs": [],
      "name": "isInInsuranceState",
      "outputs": [
        {
          "internalType": "bool",
          "name": "",
          "type": "bool"
        }
      ],
      "stateMutability": "view",
      "type": "function"
    },
    {
      "inputs": [],
      "name": "maxContractBalance",
      "outputs": [
        {
          "internalType": "uint256",
          "name": "",
          "type": "uint256"
        }
      ],
      "stateMutability": "view",
      "type": "function"
    },
    {
      "inputs": [],
      "name": "poolCycle",
      "outputs": [
        {
          "internalType": "uint256",
          "name": "",
          "type": "uint256"
        }
      ],
      "stateMutability": "view",
      "type": "function"
    },
    {
      "inputs": [],
      "name": "poolDrewAt",
      "outputs": [
        {
          "internalType": "uint256",
          "name": "",
          "type": "uint256"
        }
      ],
      "stateMutability": "view",
      "type": "function"
    },
    {
      "inputs": [],
      "name": "refPoolBalance",
      "outputs": [
        {
          "internalType": "uint256",
          "name": "",
          "type": "uint256"
        }
      ],
      "stateMutability": "view",
      "type": "function"
    },
    {
      "inputs": [
        {
          "internalType": "uint256",
          "name": "",
          "type": "uint256"
        }
      ],
      "name": "refPoolBonuses",
      "outputs": [
        {
          "internalType": "uint256",
          "name": "",
          "type": "uint256"
        }
      ],
      "stateMutability": "view",
      "type": "function"
    },
    {
      "inputs": [
        {
          "internalType": "uint256",
          "name": "",
          "type": "uint256"
        }
      ],
      "name": "refPoolUsers",
      "outputs": [
        {
          "internalType": "address",
          "name": "user",
          "type": "address"
        },
        {
          "internalType": "uint256",
          "name": "stakeId",
          "type": "uint256"
        }
      ],
      "stateMutability": "view",
      "type": "function"
    },
    {
      "inputs": [],
      "name": "sponsorPoolBalance",
      "outputs": [
        {
          "internalType": "uint256",
          "name": "",
          "type": "uint256"
        }
      ],
      "stateMutability": "view",
      "type": "function"
    },
    {
      "inputs": [
        {
          "internalType": "uint256",
          "name": "",
          "type": "uint256"
        }
      ],
      "name": "sponsorPoolBonuses",
      "outputs": [
        {
          "internalType": "uint256",
          "name": "",
          "type": "uint256"
        }
      ],
      "stateMutability": "view",
      "type": "function"
    },
    {
      "inputs": [
        {
          "internalType": "uint256",
          "name": "",
          "type": "uint256"
        }
      ],
      "name": "sponsorPoolUsers",
      "outputs": [
        {
          "internalType": "address",
          "name": "user",
          "type": "address"
        },
        {
          "internalType": "uint256",
          "name": "stakeId",
          "type": "uint256"
        }
      ],
      "stateMutability": "view",
      "type": "function"
    },
    {
      "inputs": [],
      "name": "totalDepositRewards",
      "outputs": [
        {
          "internalType": "uint256",
          "name": "",
          "type": "uint256"
        }
      ],
      "stateMutability": "view",
      "type": "function"
    },
    {
      "inputs": [],
      "name": "totalExited",
      "outputs": [
        {
          "internalType": "uint256",
          "name": "",
          "type": "uint256"
        }
      ],
      "stateMutability": "view",
      "type": "function"
    },
    {
      "inputs": [
        {
          "internalType": "address",
          "name": "",
          "type": "address"
        }
      ],
      "name": "users",
      "outputs": [
        {
          "internalType": "address",
          "name": "wallet",
          "type": "address"
        }
      ],
      "stateMutability": "view",
      "type": "function"
    }
  ],
  "bytecode": "0x6080604052600380546001600160a01b0319167364b8cb4c04ba902010856d913b4e5df940748bf21790556038805460ff1916905534801561004057600080fd5b506109d0806100506000396000f3fe608060405234801561001057600080fd5b506004361061018b5760003560e01c806303162d2c146101905780630781235a146101aa5780630ac39f72146101b25780630f9fa6aa146101aa57806312dd5fe4146101aa57806327cfe856146101ba5780633ad10ef6146101c25780633df936c9146101e657806346c27f65146101ee578063498dc5b51461020a57806363b815fa1461021257806365fcb49e1461021a57806369da94d8146102225780637247b2b91461022a57806391994b2c146102325780639b6eec7d1461023a5780639c236aa814610242578063a00d498014610282578063a13a801a1461028a578063a87430ba14610292578063a9122af7146102b8578063aaf1a0da1461028a578063b963ddb4146102c0578063cabea10d146102c8578063d5766ebd146102d0578063d82daec7146102ed578063d902f40c146102f5578063df5a75ef146102fd578063e52314111461031a578063e7204ffb14610322578063ed56f6a11461032c578063f48e595a14610349578063fd0b825214610351575b600080fd5b610198610359565b60408051918252519081900360200190f35b61019861035f565b610198610365565b61019861036a565b6101ca610371565b604080516001600160a01b039092168252519081900360200190f35b610198610380565b6101f6610386565b604080519115158252519081900360200190f35b61019861038f565b610198610395565b61019861039b565b6101986103a1565b6101986103a7565b6101986103ad565b6101986103b3565b61025f6004803603602081101561025857600080fd5b50356103b9565b604080516001600160a01b03909316835260208301919091528051918290030190f35b6101986103e2565b6101986103e7565b6101ca600480360360208110156102a857600080fd5b50356001600160a01b03166103ec565b6101ca610407565b610198610416565b61019861041c565b610198600480360360208110156102e657600080fd5b5035610422565b610198610440565b610198610446565b6101986004803603602081101561031357600080fd5b503561044b565b610198610458565b61032a61045d565b005b61025f6004803603602081101561034257600080fd5b50356106d7565b6101986106e4565b6101986106e9565b61a8c081565b61012c81565b600281565b6201518081565b6003546001600160a01b031681565b60375481565b60385460ff1681565b61138881565b61271081565b60335481565b61924f81565b60005481565b60015481565b6101f481565b601d81600a81106103c657fe5b6002020180546001909101546001600160a01b03909116915082565b600581565b603281565b6004602052600090815260409020546001600160a01b031681565b6002546001600160a01b031681565b61032081565b60345481565b6031818154811061042f57fe5b600091825260209091200154905081565b60365481565b600181565b6032818154811061042f57fe5b606481565b60355462015180014211156106d55760005b600c811015610582576000600582600c811061048757fe5b60020201546001600160a01b031614156104a057610582565b600060046000600584600c81106104b357fe5b60020201546001600160a01b03168152602081019190915260400160002060365460318054929350610542926104ff929190869081106104ef57fe5b90600052602060002001546106ef565b82600101600585600c811061051057fe5b60020201600101548154811061052257fe5b90600052602060002090601102016007015461071090919063ffffffff16565b81600101600584600c811061055357fe5b60020201600101548154811061056557fe5b60009182526020909120600760119092020101555060010161046f565b5060005b600a811015610689576000601d82600a811061059e57fe5b60020201546001600160a01b031614156105b757610689565b600060046000601d84600a81106105ca57fe5b60020201546001600160a01b0316815260208101919091526040016000206037546032805492935061064992610606929190869081106104ef57fe5b82600101601d85600a811061061757fe5b60020201600101548154811061062957fe5b90600052602060002090601102016008015461071090919063ffffffff16565b81600101601d84600a811061065a57fe5b60020201600101548154811061066c57fe5b600091825260209091206008601190920201015550600101610586565b507f505fb5b242804521f868b1210d5697cefabaa21c3f697207aa5c02dc549116e2603654603754604051808381526020018281526020019250505060405180910390a16106d5610768565b565b600581600c81106103c657fe5b60fa81565b60355481565b60006107076127106107018585610844565b9061089d565b90505b92915050565b600082820183811015610707576040805162461bcd60e51b815260206004820152601b60248201527a536166654d6174683a206164646974696f6e206f766572666c6f7760281b604482015290519081900360640190fd5b60005b6031548110156107cd576000600582600c811061078457fe5b6002020180546001600160a01b0319166001600160a01b03929092169190911790556000600582600c81106107b557fe5b6002020160010181905550808060010191505061076b565b5060005b603254811015610833576000601d82600a81106107ea57fe5b6002020180546001600160a01b0319166001600160a01b03929092169190911790556000600582600c811061081b57fe5b600202016001018190555080806001019150506107d1565b506000603681905560375542603555565b6000826108535750600061070a565b8282028284828161086057fe5b04146107075760405162461bcd60e51b815260040180806020018281038252602181526020018061097a6021913960400191505060405180910390fd5b600061070783836040518060400160405280601a815260200179536166654d6174683a206469766973696f6e206279207a65726f60301b815250600081836109635760405162461bcd60e51b81526004018080602001828103825283818151815260200191508051906020019080838360005b83811015610928578181015183820152602001610910565b50505050905090810190601f1680156109555780820380516001836020036101000a031916815260200191505b509250505060405180910390fd5b50600083858161096f57fe5b049594505050505056fe536166654d6174683a206d756c7469706c69636174696f6e206f766572666c6f77a2646970667358221220d05dc7fba75751d2e3864c83e11406282d7dd108473b821898d1d5a0fed5992b64736f6c634300060c0033",
  "compiler": {
    "name": "solc",
    "version": "0.6.12+commit.27d51765.Emscripten.clang",
    "optimizer": {
      "enabled": true,
      "runs": 1
    },
    "evmVersion": "petersburg"
  }
}