{
  "fileName": "Insurance.sol",
  "contractName": "Insurance",
  "source": "// SPDX-License-Identifier: MIT\npragma solidity ^0.6.12;\n\nimport \"./RewardsAndPenalties.sol\";\n\n\ncontract Insurance is RewardsAndPenalties {\n    uint private constant BASE_INSURANCE_FOR_BP = 3500; // trigger insurance with contract balance fall below 35%\n    uint private constant OPT_IN_INSURANCE_FEE_BP = 1000; // 10%\n    uint private constant OPT_IN_INSURANCE_FOR_BP = 10000; // 100%\n\n    bool public isInInsuranceState = false; // if contract is only allowing insured money this becomes true;\n\n    function _checkForBaseInsuranceTrigger() internal {\n        if (fourRXToken.balanceOf(address(this)) <= _calcPercentage(maxContractBalance, BASE_INSURANCE_FOR_BP)) {\n            isInInsuranceState = true;\n        } else {\n            isInInsuranceState = false;\n        }\n    }\n\n    function _getInsuredAvailableAmount(Stake memory stake, uint withdrawalAmount) internal pure returns (uint)\n    {\n        uint availableAmount = withdrawalAmount;\n        // Calc correct insured value by checking which insurance should be applied\n        uint insuredFor = BASE_INSURANCE_FOR_BP;\n        if (stake.optInInsured) {\n            insuredFor = OPT_IN_INSURANCE_FOR_BP;\n        }\n\n        uint maxWithdrawalAllowed = _calcPercentage(stake.deposit, insuredFor);\n\n        require(maxWithdrawalAllowed >= stake.withdrawn.add(stake.penalty)); // if contract is in insurance trigger, do not allow withdrawals for the users who already have withdrawn more then 35%\n\n        if (stake.withdrawn.add(availableAmount).add(stake.penalty) > maxWithdrawalAllowed) {\n            availableAmount = maxWithdrawalAllowed.sub(stake.withdrawn).sub(stake.penalty);\n        }\n\n        return availableAmount;\n    }\n\n    function _insureStake(address user, Stake storage stake) internal {\n        require(!stake.optInInsured && stake.active);\n        require(fourRXToken.transferFrom(user, address(this), _calcPercentage(stake.deposit, OPT_IN_INSURANCE_FEE_BP)));\n\n        stake.optInInsured = true;\n    }\n}\n",
  "sourcePath": "contracts/Insurance.sol",
  "abi": [
    {
      "anonymous": false,
      "inputs": [
        {
          "indexed": false,
          "internalType": "address",
          "name": "user",
          "type": "address"
        },
        {
          "indexed": false,
          "internalType": "uint256",
          "name": "amount",
          "type": "uint256"
        },
        {
          "indexed": false,
          "internalType": "address",
          "name": "uplinkAddress",
          "type": "address"
        },
        {
          "indexed": false,
          "internalType": "uint256",
          "name": "uplinkStakeId",
          "type": "uint256"
        }
      ],
      "name": "Deposit",
      "type": "event"
    },
    {
      "anonymous": false,
      "inputs": [
        {
          "indexed": false,
          "internalType": "address",
          "name": "user",
          "type": "address"
        },
        {
          "indexed": false,
          "internalType": "uint256",
          "name": "stakeId",
          "type": "uint256"
        },
        {
          "indexed": false,
          "internalType": "uint256",
          "name": "amount",
          "type": "uint256"
        }
      ],
      "name": "Exited",
      "type": "event"
    },
    {
      "anonymous": false,
      "inputs": [
        {
          "indexed": false,
          "internalType": "uint256",
          "name": "refPoolAmount",
          "type": "uint256"
        },
        {
          "indexed": false,
          "internalType": "uint256",
          "name": "sponsorPoolAmount",
          "type": "uint256"
        }
      ],
      "name": "PoolDrawn",
      "type": "event"
    },
    {
      "anonymous": false,
      "inputs": [
        {
          "indexed": false,
          "internalType": "address",
          "name": "user",
          "type": "address"
        },
        {
          "indexed": false,
          "internalType": "uint256",
          "name": "amount",
          "type": "uint256"
        }
      ],
      "name": "ReInvest",
      "type": "event"
    },
    {
      "anonymous": false,
      "inputs": [
        {
          "indexed": false,
          "internalType": "address",
          "name": "user",
          "type": "address"
        },
        {
          "indexed": false,
          "internalType": "uint256",
          "name": "amount",
          "type": "uint256"
        }
      ],
      "name": "Withdrawn",
      "type": "event"
    },
    {
      "inputs": [],
      "name": "CONTRACT_BONUS_PER_UNIT_BP",
      "outputs": [
        {
          "internalType": "uint256",
          "name": "",
          "type": "uint256"
        }
      ],
      "stateMutability": "view",
      "type": "function"
    },
    {
      "inputs": [],
      "name": "CONTRACT_BONUS_UNIT",
      "outputs": [
        {
          "internalType": "uint256",
          "name": "",
          "type": "uint256"
        }
      ],
      "stateMutability": "view",
      "type": "function"
    },
    {
      "inputs": [],
      "name": "DAY",
      "outputs": [
        {
          "internalType": "uint256",
          "name": "",
          "type": "uint256"
        }
      ],
      "stateMutability": "view",
      "type": "function"
    },
    {
      "inputs": [],
      "name": "DEV_FEE_BP",
      "outputs": [
        {
          "internalType": "uint256",
          "name": "",
          "type": "uint256"
        }
      ],
      "stateMutability": "view",
      "type": "function"
    },
    {
      "inputs": [],
      "name": "EXIT_PENALTY_BP",
      "outputs": [
        {
          "internalType": "uint256",
          "name": "",
          "type": "uint256"
        }
      ],
      "stateMutability": "view",
      "type": "function"
    },
    {
      "inputs": [],
      "name": "HOLD_BONUS_PER_UNIT_BP",
      "outputs": [
        {
          "internalType": "uint256",
          "name": "",
          "type": "uint256"
        }
      ],
      "stateMutability": "view",
      "type": "function"
    },
    {
      "inputs": [],
      "name": "HOLD_BONUS_UNIT",
      "outputs": [
        {
          "internalType": "uint256",
          "name": "",
          "type": "uint256"
        }
      ],
      "stateMutability": "view",
      "type": "function"
    },
    {
      "inputs": [],
      "name": "LP_FEE_BP",
      "outputs": [
        {
          "internalType": "uint256",
          "name": "",
          "type": "uint256"
        }
      ],
      "stateMutability": "view",
      "type": "function"
    },
    {
      "inputs": [],
      "name": "MAX_CONTRACT_BONUS_BP",
      "outputs": [
        {
          "internalType": "uint256",
          "name": "",
          "type": "uint256"
        }
      ],
      "stateMutability": "view",
      "type": "function"
    },
    {
      "inputs": [],
      "name": "MAX_CONTRACT_REWARD_BP",
      "outputs": [
        {
          "internalType": "uint256",
          "name": "",
          "type": "uint256"
        }
      ],
      "stateMutability": "view",
      "type": "function"
    },
    {
      "inputs": [],
      "name": "MAX_HOLD_BONUS_BP",
      "outputs": [
        {
          "internalType": "uint256",
          "name": "",
          "type": "uint256"
        }
      ],
      "stateMutability": "view",
      "type": "function"
    },
    {
      "inputs": [],
      "name": "MAX_REF_POOL_USERS",
      "outputs": [
        {
          "internalType": "uint8",
          "name": "",
          "type": "uint8"
        }
      ],
      "stateMutability": "view",
      "type": "function"
    },
    {
      "inputs": [],
      "name": "MAX_SPONSOR_POOL_USERS",
      "outputs": [
        {
          "internalType": "uint8",
          "name": "",
          "type": "uint8"
        }
      ],
      "stateMutability": "view",
      "type": "function"
    },
    {
      "inputs": [],
      "name": "MAX_WITHDRAWAL_OVER_REWARD_THRESHOLD_BP",
      "outputs": [
        {
          "internalType": "uint256",
          "name": "",
          "type": "uint256"
        }
      ],
      "stateMutability": "view",
      "type": "function"
    },
    {
      "inputs": [],
      "name": "PERCENT_MULTIPLIER",
      "outputs": [
        {
          "internalType": "uint256",
          "name": "",
          "type": "uint256"
        }
      ],
      "stateMutability": "view",
      "type": "function"
    },
    {
      "inputs": [],
      "name": "REF_COMMISSION_BP",
      "outputs": [
        {
          "internalType": "uint256",
          "name": "",
          "type": "uint256"
        }
      ],
      "stateMutability": "view",
      "type": "function"
    },
    {
      "inputs": [],
      "name": "REF_POOL_FEE_BP",
      "outputs": [
        {
          "internalType": "uint256",
          "name": "",
          "type": "uint256"
        }
      ],
      "stateMutability": "view",
      "type": "function"
    },
    {
      "inputs": [],
      "name": "REWARD_THRESHOLD_BP",
      "outputs": [
        {
          "internalType": "uint256",
          "name": "",
          "type": "uint256"
        }
      ],
      "stateMutability": "view",
      "type": "function"
    },
    {
      "inputs": [],
      "name": "SPONSOR_POOL_FEE_BP",
      "outputs": [
        {
          "internalType": "uint256",
          "name": "",
          "type": "uint256"
        }
      ],
      "stateMutability": "view",
      "type": "function"
    },
    {
      "inputs": [
        {
          "internalType": "address",
          "name": "user",
          "type": "address"
        },
        {
          "internalType": "uint256",
          "name": "amount",
          "type": "uint256"
        },
        {
          "internalType": "uint8",
          "name": "stakeId",
          "type": "uint8"
        }
      ],
      "name": "_addRefPoolRecord",
      "outputs": [],
      "stateMutability": "nonpayable",
      "type": "function"
    },
    {
      "inputs": [],
      "name": "_cleanRefPoolUsers",
      "outputs": [],
      "stateMutability": "nonpayable",
      "type": "function"
    },
    {
      "inputs": [],
      "name": "devAddress",
      "outputs": [
        {
          "internalType": "address",
          "name": "",
          "type": "address"
        }
      ],
      "stateMutability": "view",
      "type": "function"
    },
    {
      "inputs": [],
      "name": "devBalance",
      "outputs": [
        {
          "internalType": "uint256",
          "name": "",
          "type": "uint256"
        }
      ],
      "stateMutability": "view",
      "type": "function"
    },
    {
      "inputs": [],
      "name": "drawPool",
      "outputs": [],
      "stateMutability": "nonpayable",
      "type": "function"
    },
    {
      "inputs": [],
      "name": "fourRXToken",
      "outputs": [
        {
          "internalType": "contract IERC20",
          "name": "",
          "type": "address"
        }
      ],
      "stateMutability": "view",
      "type": "function"
    },
    {
      "inputs": [],
      "name": "getPoolInfo",
      "outputs": [
        {
          "internalType": "uint32",
          "name": "",
          "type": "uint32"
        },
        {
          "internalType": "uint16",
          "name": "",
          "type": "uint16"
        },
        {
          "internalType": "uint256",
          "name": "",
          "type": "uint256"
        },
        {
          "internalType": "uint256",
          "name": "",
          "type": "uint256"
        }
      ],
      "stateMutability": "view",
      "type": "function"
    },
    {
      "inputs": [],
      "name": "getPoolParticipants",
      "outputs": [
        {
          "internalType": "address[]",
          "name": "",
          "type": "address[]"
        },
        {
          "internalType": "uint8[]",
          "name": "",
          "type": "uint8[]"
        },
        {
          "internalType": "uint256[]",
          "name": "",
          "type": "uint256[]"
        },
        {
          "internalType": "address[]",
          "name": "",
          "type": "address[]"
        },
        {
          "internalType": "uint8[]",
          "name": "",
          "type": "uint8[]"
        },
        {
          "internalType": "uint256[]",
          "name": "",
          "type": "uint256[]"
        }
      ],
      "stateMutability": "view",
      "type": "function"
    },
    {
      "inputs": [],
      "name": "isInInsuranceState",
      "outputs": [
        {
          "internalType": "bool",
          "name": "",
          "type": "bool"
        }
      ],
      "stateMutability": "view",
      "type": "function"
    },
    {
      "inputs": [],
      "name": "maxContractBalance",
      "outputs": [
        {
          "internalType": "uint256",
          "name": "",
          "type": "uint256"
        }
      ],
      "stateMutability": "view",
      "type": "function"
    },
    {
      "inputs": [],
      "name": "poolCycle",
      "outputs": [
        {
          "internalType": "uint16",
          "name": "",
          "type": "uint16"
        }
      ],
      "stateMutability": "view",
      "type": "function"
    },
    {
      "inputs": [],
      "name": "poolDrewAt",
      "outputs": [
        {
          "internalType": "uint32",
          "name": "",
          "type": "uint32"
        }
      ],
      "stateMutability": "view",
      "type": "function"
    },
    {
      "inputs": [],
      "name": "refPoolBalance",
      "outputs": [
        {
          "internalType": "uint256",
          "name": "",
          "type": "uint256"
        }
      ],
      "stateMutability": "view",
      "type": "function"
    },
    {
      "inputs": [
        {
          "internalType": "uint256",
          "name": "",
          "type": "uint256"
        }
      ],
      "name": "refPoolBonuses",
      "outputs": [
        {
          "internalType": "uint256",
          "name": "",
          "type": "uint256"
        }
      ],
      "stateMutability": "view",
      "type": "function"
    },
    {
      "inputs": [
        {
          "internalType": "uint256",
          "name": "",
          "type": "uint256"
        }
      ],
      "name": "refPoolUsers",
      "outputs": [
        {
          "internalType": "address",
          "name": "user",
          "type": "address"
        },
        {
          "internalType": "uint16",
          "name": "next",
          "type": "uint16"
        },
        {
          "internalType": "uint8",
          "name": "id",
          "type": "uint8"
        },
        {
          "internalType": "uint256",
          "name": "score",
          "type": "uint256"
        }
      ],
      "stateMutability": "view",
      "type": "function"
    },
    {
      "inputs": [],
      "name": "sponsorPoolBalance",
      "outputs": [
        {
          "internalType": "uint256",
          "name": "",
          "type": "uint256"
        }
      ],
      "stateMutability": "view",
      "type": "function"
    },
    {
      "inputs": [
        {
          "internalType": "uint256",
          "name": "",
          "type": "uint256"
        }
      ],
      "name": "sponsorPoolBonuses",
      "outputs": [
        {
          "internalType": "uint256",
          "name": "",
          "type": "uint256"
        }
      ],
      "stateMutability": "view",
      "type": "function"
    },
    {
      "inputs": [
        {
          "internalType": "uint256",
          "name": "",
          "type": "uint256"
        }
      ],
      "name": "sponsorPoolUsers",
      "outputs": [
        {
          "internalType": "address",
          "name": "user",
          "type": "address"
        },
        {
          "internalType": "uint16",
          "name": "next",
          "type": "uint16"
        },
        {
          "internalType": "uint8",
          "name": "id",
          "type": "uint8"
        },
        {
          "internalType": "uint256",
          "name": "score",
          "type": "uint256"
        }
      ],
      "stateMutability": "view",
      "type": "function"
    },
    {
      "inputs": [],
      "name": "totalDepositRewards",
      "outputs": [
        {
          "internalType": "uint256",
          "name": "",
          "type": "uint256"
        }
      ],
      "stateMutability": "view",
      "type": "function"
    },
    {
      "inputs": [],
      "name": "totalExited",
      "outputs": [
        {
          "internalType": "uint256",
          "name": "",
          "type": "uint256"
        }
      ],
      "stateMutability": "view",
      "type": "function"
    },
    {
      "inputs": [
        {
          "internalType": "address",
          "name": "",
          "type": "address"
        }
      ],
      "name": "users",
      "outputs": [
        {
          "internalType": "address",
          "name": "wallet",
          "type": "address"
        }
      ],
      "stateMutability": "view",
      "type": "function"
    }
  ],
  "bytecode": "0x6080604052600580546001600160a01b0319167364b8cb4c04ba902010856d913b4e5df940748bf2179055600e805460ff1916905534801561004057600080fd5b50611af2806100506000396000f3fe608060405234801561001057600080fd5b50600436106101d85760003560e01c806303162d2c146101dd5780630781235a146101f75780630ac39f72146101ff5780630f9fa6aa146101f757806312dd5fe4146101f7578063195c41a01461020757806327cfe856146102115780633ad10ef6146102195780633df936c91461023d57806346c27f6514610245578063498dc5b5146102615780634e8cfa601461026957806360246c881461028757806363b815fa146102bf57806365fcb49e146102c757806369da94d8146102cf5780637247b2b9146102d75780637c841590146102df57806391994b2c146102e75780639b6eec7d146102ef5780639c236aa8146102f7578063a00d498014610349578063a0708a6414610351578063a13a801a14610386578063a87430ba1461038e578063a9122af7146103b4578063aaf1a0da14610386578063b7272841146103bc578063b963ddb414610571578063cabea10d14610579578063cd9a1b6314610598578063d5766ebd146105a0578063d82daec7146105bd578063d902f40c146105c5578063df5a75ef146105cd578063e5231411146105ea578063e7204ffb146105f2578063ed56f6a1146105fa578063f48e595a14610617578063fd0b82521461061f575b600080fd5b6101e5610640565b60408051918252519081900360200190f35b6101e5610646565b6101e561064c565b61020f610651565b005b6101e5610669565b610221610670565b604080516001600160a01b039092168252519081900360200190f35b6101e561067f565b61024d610685565b604080519115158252519081900360200190f35b6101e561068e565b610271610694565b6040805160ff9092168252519081900360200190f35b61028f610699565b6040805163ffffffff909516855261ffff9093166020850152838301919091526060830152519081900360800190f35b6101e56106b7565b6101e56106bd565b6101e56106c3565b6101e56106c9565b6102716106cf565b6101e56106d4565b6101e56106da565b6103146004803603602081101561030d57600080fd5b50356106e0565b604080516001600160a01b03909516855261ffff909316602085015260ff909116838301526060830152519081900360800190f35b6101e561072b565b61020f6004803603606081101561036757600080fd5b5080356001600160a01b0316906020810135906040013560ff16610730565b6101e5610764565b610221600480360360208110156103a457600080fd5b50356001600160a01b0316610769565b610221610784565b6103c4610793565b6040518080602001806020018060200180602001806020018060200187810387528d818151815260200191508051906020019060200280838360005b83811015610418578181015183820152602001610400565b5050505090500187810386528c818151815260200191508051906020019060200280838360005b8381101561045757818101518382015260200161043f565b5050505090500187810385528b818151815260200191508051906020019060200280838360005b8381101561049657818101518382015260200161047e565b5050505090500187810384528a818151815260200191508051906020019060200280838360005b838110156104d55781810151838201526020016104bd565b50505050905001878103835289818151815260200191508051906020019060200280838360005b838110156105145781810151838201526020016104fc565b50505050905001878103825288818151815260200191508051906020019060200280838360005b8381101561055357818101518382015260200161053b565b505050509050019c5050505050505050505050505060405180910390f35b6101e5610bb0565b610581610bb6565b6040805161ffff9092168252519081900360200190f35b6101e5610bc0565b6101e5600480360360208110156105b657600080fd5b5035610bc6565b6101e5610be4565b6101e5610bea565b6101e5600480360360208110156105e357600080fd5b5035610bef565b6101e5610bfc565b61020f610c01565b6103146004803603602081101561061057600080fd5b5035610fbd565b6101e5610fca565b610627610fcf565b6040805163ffffffff9092168252519081900360200190f35b61a8c081565b61012c81565b600281565b61065d60016000611a26565b6106676001610fe1565b565b6201518081565b6005546001600160a01b031681565b600c5481565b600e5460ff1681565b61138881565b600a81565b600a54600c54600b5463ffffffff620100008404169261ffff169293565b61271081565b60095481565b61924f81565b60025481565b600c81565b60035481565b6101f481565b600081815481106106ed57fe5b6000918252602090912060029091020180546001909101546001600160a01b0382169250600160a01b820461ffff1691600160b01b900460ff169084565b600581565b61073c6001848361107c565b6107525761074d60018484846111b4565b61075f565b61075f60018484846112f1565b505050565b603281565b6006602052600090815260409020546001600160a01b031681565b6004546001600160a01b031681565b6060808080808080600a6040519080825280602002602001820160405280156107c6578160200160208202803683370190505b5060408051600a8082526101608201909252919250606091906020820161014080368337505060408051600a808252610160820190925292935060609291506020820161014080368337505060408051600c8082526101a0820190925292935060609291506020820161018080368337505060408051600c8082526101a0820190925292935060609291506020820161018080368337505060408051600c8082526101a08201909252929350606092915060208201610180803683370190505090506000610892611a4a565b60008261ffff16815481106108a357fe5b60009182526020918290206040805160808101825260029390930290910180546001600160a01b0381168452600160a01b810461ffff1694840194909452600160b01b90930460ff1690820152600190910154606082015290505b600a61ffff83161080156109195750602081015161ffff1615155b15610a17576000816020015161ffff168154811061093357fe5b60009182526020918290206040805160808101825260029390930290910180546001600160a01b038116808552600160a01b820461ffff90811696860196909652600160b01b90910460ff16928401929092526001015460608301528a51919350918a919085169081106109a357fe5b60200260200101906001600160a01b031690816001600160a01b0316815250508060400151878361ffff16815181106109d857fe5b602002602001019060ff16908160ff16815250508060600151868361ffff1681518110610a0157fe5b60209081029190910101526001909101906108fe565b60018054600093508390610a2757fe5b60009182526020918290206040805160808101825260029390930290910180546001600160a01b0381168452600160a01b810461ffff1694840194909452600160b01b90930460ff1690820152600190910154606082015290505b600c61ffff8316108015610a9d5750602081015161ffff1615155b15610b9b576001816020015161ffff1681548110610ab757fe5b60009182526020918290206040805160808101825260029390930290910180546001600160a01b038116808552600160a01b820461ffff90811696860196909652600160b01b90910460ff16928401929092526001015460608301528751919350918791908516908110610b2757fe5b60200260200101906001600160a01b031690816001600160a01b0316815250508060400151848361ffff1681518110610b5c57fe5b602002602001019060ff16908160ff16815250508060600151838361ffff1681518110610b8557fe5b6020908102919091010152600190910190610a82565b50959c949b5092995090975095509350915050565b61032081565b600a5461ffff1681565b600d5481565b60078181548110610bd357fe5b600091825260209091200154905081565b600b5481565b600181565b60088181548110610bd357fe5b606481565b600a546201518063ffffffff620100009092048216011642111561066757610c27611a4a565b6001600081548110610c3557fe5b600091825260208083206040805160808101825260029490940290910180546001600160a01b0381168552600160a01b810461ffff1693850193909352600160b01b90920460ff169083015260010154606082015291505b600c61ffff8216108015610ca85750602082015161ffff1615155b15610e01576001826020015161ffff1681548110610cc257fe5b600091825260209182902060408051608081018252600290930290910180546001600160a01b038116845261ffff600160a01b820481169585019590955260ff600160b01b9091041691830191909152600101546060820152600b5460078054929550610da793610d4993908616908110610d3957fe5b906000526020600020015461146a565b6006600085600001516001600160a01b03166001600160a01b03168152602001908152602001600020600101846040015160ff1681548110610d8757fe5b90600052602060002090600502016004015461148b90919063ffffffff16565b6006600084600001516001600160a01b03166001600160a01b03168152602001908152602001600020600101836040015160ff1681548110610de557fe5b6000918252602090912060046005909202010155600101610c8d565b60008081548110610e0e57fe5b600091825260208083206040805160808101825260029490940290910180546001600160a01b0381168552600160a01b810461ffff1693850193909352600160b01b90920460ff1690830152600101546060820152925090505b600a61ffff8216108015610e835750602082015161ffff1615155b15610f6e576000826020015161ffff1681548110610e9d57fe5b600091825260209182902060408051608081018252600290930290910180546001600160a01b038116845261ffff600160a01b820481169585019590955260ff600160b01b9091041691830191909152600101546060820152600c5460088054929550610f1493610d4993908616908110610d3957fe5b6006600084600001516001600160a01b03166001600160a01b03168152602001908152602001600020600101836040015160ff1681548110610f5257fe5b6000918252602090912060046005909202010155600101610e68565b7f505fb5b242804521f868b1210d5697cefabaa21c3f697207aa5c02dc549116e2600b54600c54604051808381526020018281526020019250505060405180910390a1610fb96114e3565b5050565b600181815481106106ed57fe5b60fa81565b600a5462010000900463ffffffff1681565b604080516080810182526000808252602080830182815293830182815260608401838152865460018181018955978552929093209351600290920290930180549451935160ff16600160b01b0260ff60b01b1961ffff95909516600160a01b0261ffff60a01b196001600160a01b03949094166001600160a01b03199097169690961792909216949094179290921691909117825551910155565b6000611086611a4a565b84600061ffff168154811061109757fe5b600091825260208083206040805160808101825260029490940290910180546001600160a01b0381168552600160a01b810461ffff1693850193909352600160b01b90920460ff169083015260010154606082015291505b602082015161ffff16156111ab57846001600160a01b031682600001516001600160a01b031614801561112b57508360ff16826040015160ff16145b15611138575060016111ab565b85826020015161ffff168154811061114c57fe5b60009182526020918290206040805160808101825260029390930290910180546001600160a01b0381168452600160a01b810461ffff1694840194909452600160b01b90930460ff1690820152600190910154606082015291506110ef565b95945050505050565b60006111c08584611531565b90506111cd858483611663565b6111d657600080fd5b846040518060800160405280866001600160a01b03168152602001878461ffff168154811061120157fe5b600091825260208083206002928302015461ffff600160a01b918290048116865260ff808b168785015260409687018c9052885460018181018b559987529584902088519690950290940180549388015196880151909416600160b01b0260ff60b01b199690911690910261ffff60a01b196001600160a01b039095166001600160a01b0319909316929092179390931617929092161781556060909101519082015585546112af916116f8565b858261ffff16815481106112bf57fe5b906000526020600020906002020160000160146101000a81548161ffff021916908361ffff1602179055505050505050565b6000806112ff86868561173a565b915091508161ffff16868261ffff168154811061131857fe5b6000918252602090912060029091020154600160a01b900461ffff161461133e57600080fd5b846001600160a01b0316868361ffff168154811061135857fe5b60009182526020909120600290910201546001600160a01b03161461137c57600080fd5b8260ff16868361ffff168154811061139057fe5b6000918252602090912060029091020154600160b01b900460ff16146113b557600080fd5b6113e9868361ffff16815481106113c857fe5b9060005260206000209060020201600101548561148b90919063ffffffff16565b9350858261ffff16815481106113fb57fe5b906000526020600020906002020160000160149054906101000a900461ffff16868261ffff168154811061142b57fe5b906000526020600020906002020160000160146101000a81548161ffff021916908361ffff160217905550611462868686866111b4565b505050505050565b600061148261271061147c858561187d565b906118d6565b90505b92915050565b600082820183811015611482576040805162461bcd60e51b815260206004820152601b60248201527a536166654d6174683a206164646974696f6e206f766572666c6f7760281b604482015290519081900360640190fd5b6114eb611915565b6114f3610651565b6000600b819055600c55600a805461ffff1965ffffffff000019909116620100004263ffffffff160217908116600161ffff92831601909116179055565b600061153b611a4a565b83600061ffff168154811061154c57fe5b600091825260208083206040805160808101825260029490940290910180546001600160a01b0381168552600160a01b810461ffff1693850193909352600160b01b90920460ff169083015260010154606082015291505b602082015161ffff16158015906115df57508385836020015161ffff16815481106115cb57fe5b906000526020600020906002020160010154115b1561165b575060208101518454859061ffff83169081106115fc57fe5b60009182526020918290206040805160808101825260029390930290910180546001600160a01b0381168452600160a01b810461ffff1694840194909452600160b01b90930460ff1690820152600190910154606082015291506115a4565b949350505050565b600061ffff8216158061165b5750838261ffff168154811061168157fe5b906000526020600020906002020160010154831115801561165b575083848361ffff16815481106116ae57fe5b906000526020600020906002020160000160149054906101000a900461ffff1661ffff16815481106116dc57fe5b9060005260206000209060020201600101548311949350505050565b600061148283836040518060400160405280601e81526020017f536166654d6174683a207375627472616374696f6e206f766572666c6f77000081525061192a565b600080611745611a4a565b85600061ffff168154811061175657fe5b600091825260208083206040805160808101825260029490940290910180546001600160a01b0381168552600160a01b810461ffff1693850193909352600160b01b90920460ff16908301526001015460608201529150805b602083015161ffff16158015906117f15750866001600160a01b031683600001516001600160a01b03161480156117ef57508560ff16836040015160ff16145b155b15611870575060208201518754909190889061ffff841690811061181157fe5b60009182526020918290206040805160808101825260029390930290910180546001600160a01b0381168452600160a01b810461ffff1694840194909452600160b01b90930460ff1690820152600190910154606082015292506117af565b9097909650945050505050565b60008261188c57506000611485565b8282028284828161189957fe5b04146114825760405162461bcd60e51b8152600401808060200182810382526021815260200180611a9c6021913960400191505060405180910390fd5b600061148283836040518060400160405280601a815260200179536166654d6174683a206469766973696f6e206279207a65726f60301b8152506119c1565b611920600080611a26565b6106676000610fe1565b600081848411156119b95760405162461bcd60e51b81526004018080602001828103825283818151815260200191508051906020019080838360005b8381101561197e578181015183820152602001611966565b50505050905090810190601f1680156119ab5780820380516001836020036101000a031916815260200191505b509250505060405180910390fd5b505050900390565b60008183611a105760405162461bcd60e51b815260206004820181815283516024840152835190928392604490910191908501908083836000831561197e578181015183820152602001611966565b506000838581611a1c57fe5b0495945050505050565b5080546000825560020290600052602060002090810190611a479190611a71565b50565b60408051608081018252600080825260208201819052918101829052606081019190915290565b5b80821115611a975780546001600160b81b031916815560006001820155600201611a72565b509056fe536166654d6174683a206d756c7469706c69636174696f6e206f766572666c6f77a26469706673582212204666691139ee8e0da378309ac59c07d2324d455bb435fc6b2b1d0cb81fec768c64736f6c634300060c0033",
  "compiler": {
    "name": "solc",
    "version": "0.6.12+commit.27d51765.Emscripten.clang",
    "optimizer": {
      "enabled": true,
      "runs": 1
    },
    "evmVersion": "petersburg"
  }
}