{
  "fileName": "Insurance.sol",
  "contractName": "Insurance",
  "source": "// SPDX-License-Identifier: MIT\npragma solidity ^0.6.12;\n\nimport \"./RewardsAndPenalties.sol\";\n\ncontract Insurance is RewardsAndPenalties {\n    uint private constant BASE_INSURANCE_FOR_BP = 3500; // trigger insurance with contract balance fall below 35%\n    uint private constant OPT_IN_INSURANCE_FEE_BP = 1000; // 10%\n    uint private constant OPT_IN_INSURANCE_FOR_BP = 10000; // 100%\n\n    bool public isInInsuranceState = false; // if contract is only allowing insured money this becomes true;\n\n    function checkForBaseInsuranceTrigger() internal {\n        if (fourRXToken.balanceOf(address(this)) <= _calcPercentage(maxContractBalance, BASE_INSURANCE_FOR_BP)) {\n            isInInsuranceState = true;\n        } else {\n            isInInsuranceState = false;\n        }\n    }\n\n    function getInsuredAvailableAmount(Stake memory stake, uint withdrawalAmount) internal pure returns (uint)\n    {\n        uint availableAmount = withdrawalAmount;\n        // Calc correct insured value by checking which insurance should be applied\n        uint insuredFor = BASE_INSURANCE_FOR_BP;\n        if (stake.optInInsured) {\n            insuredFor = OPT_IN_INSURANCE_FOR_BP;\n        }\n\n        uint maxWithdrawalAllowed = _calcPercentage(stake.deposit, insuredFor);\n        require(maxWithdrawalAllowed < stake.withdrawn); // if contract is in insurance trigger, do not allow withdrawals for the users who already have withdrawn more then 35%\n\n        if (stake.withdrawn.add(availableAmount) > maxWithdrawalAllowed) {\n            availableAmount = maxWithdrawalAllowed - stake.withdrawn;\n        }\n\n        return availableAmount;\n    }\n\n    function _insureInvestment(Stake storage stake) internal {\n        require(!stake.optInInsured && stake.active);\n\n        stake.deposit = stake.deposit.sub(_calcPercentage(stake.deposit, OPT_IN_INSURANCE_FEE_BP));\n        stake.optInInsured = true;\n    }\n}\n",
  "sourcePath": "contracts/Insurance.sol",
  "abi": [
    {
      "anonymous": false,
      "inputs": [
        {
          "indexed": false,
          "internalType": "address",
          "name": "user",
          "type": "address"
        },
        {
          "indexed": false,
          "internalType": "address",
          "name": "uplink",
          "type": "address"
        },
        {
          "indexed": false,
          "internalType": "uint256",
          "name": "amount",
          "type": "uint256"
        }
      ],
      "name": "Deposit",
      "type": "event"
    },
    {
      "anonymous": false,
      "inputs": [
        {
          "indexed": false,
          "internalType": "address",
          "name": "user",
          "type": "address"
        }
      ],
      "name": "Exited",
      "type": "event"
    },
    {
      "anonymous": false,
      "inputs": [
        {
          "indexed": false,
          "internalType": "address",
          "name": "user",
          "type": "address"
        },
        {
          "indexed": false,
          "internalType": "uint256",
          "name": "amount",
          "type": "uint256"
        }
      ],
      "name": "ReInvest",
      "type": "event"
    },
    {
      "anonymous": false,
      "inputs": [
        {
          "indexed": false,
          "internalType": "address",
          "name": "user",
          "type": "address"
        },
        {
          "indexed": false,
          "internalType": "uint256",
          "name": "amount",
          "type": "uint256"
        }
      ],
      "name": "Withdraw",
      "type": "event"
    },
    {
      "inputs": [],
      "name": "CONTRACT_BONUS_PER_UNIT_BP",
      "outputs": [
        {
          "internalType": "uint256",
          "name": "",
          "type": "uint256"
        }
      ],
      "stateMutability": "view",
      "type": "function"
    },
    {
      "inputs": [],
      "name": "CONTRACT_BONUS_UNIT",
      "outputs": [
        {
          "internalType": "uint256",
          "name": "",
          "type": "uint256"
        }
      ],
      "stateMutability": "view",
      "type": "function"
    },
    {
      "inputs": [],
      "name": "DAY",
      "outputs": [
        {
          "internalType": "uint256",
          "name": "",
          "type": "uint256"
        }
      ],
      "stateMutability": "view",
      "type": "function"
    },
    {
      "inputs": [],
      "name": "DEV_FEE_BP",
      "outputs": [
        {
          "internalType": "uint256",
          "name": "",
          "type": "uint256"
        }
      ],
      "stateMutability": "view",
      "type": "function"
    },
    {
      "inputs": [],
      "name": "EXIT_PENALTY_BP",
      "outputs": [
        {
          "internalType": "uint256",
          "name": "",
          "type": "uint256"
        }
      ],
      "stateMutability": "view",
      "type": "function"
    },
    {
      "inputs": [],
      "name": "HOLD_BONUS_PER_UNIT_BP",
      "outputs": [
        {
          "internalType": "uint256",
          "name": "",
          "type": "uint256"
        }
      ],
      "stateMutability": "view",
      "type": "function"
    },
    {
      "inputs": [],
      "name": "HOLD_BONUS_UNIT",
      "outputs": [
        {
          "internalType": "uint256",
          "name": "",
          "type": "uint256"
        }
      ],
      "stateMutability": "view",
      "type": "function"
    },
    {
      "inputs": [],
      "name": "LP_FEE_BP",
      "outputs": [
        {
          "internalType": "uint256",
          "name": "",
          "type": "uint256"
        }
      ],
      "stateMutability": "view",
      "type": "function"
    },
    {
      "inputs": [],
      "name": "MAX_CONTRACT_BONUS_BP",
      "outputs": [
        {
          "internalType": "uint256",
          "name": "",
          "type": "uint256"
        }
      ],
      "stateMutability": "view",
      "type": "function"
    },
    {
      "inputs": [],
      "name": "MAX_CONTRACT_REWARD_BP",
      "outputs": [
        {
          "internalType": "uint256",
          "name": "",
          "type": "uint256"
        }
      ],
      "stateMutability": "view",
      "type": "function"
    },
    {
      "inputs": [],
      "name": "MAX_HOLD_BONUS_BP",
      "outputs": [
        {
          "internalType": "uint256",
          "name": "",
          "type": "uint256"
        }
      ],
      "stateMutability": "view",
      "type": "function"
    },
    {
      "inputs": [],
      "name": "MAX_WITHDRAWAL_OVER_REWARD_THRESHOLD_BP",
      "outputs": [
        {
          "internalType": "uint256",
          "name": "",
          "type": "uint256"
        }
      ],
      "stateMutability": "view",
      "type": "function"
    },
    {
      "inputs": [],
      "name": "REF_COMMISSION_BP",
      "outputs": [
        {
          "internalType": "uint256",
          "name": "",
          "type": "uint256"
        }
      ],
      "stateMutability": "view",
      "type": "function"
    },
    {
      "inputs": [],
      "name": "REF_POOL_FEE_BP",
      "outputs": [
        {
          "internalType": "uint256",
          "name": "",
          "type": "uint256"
        }
      ],
      "stateMutability": "view",
      "type": "function"
    },
    {
      "inputs": [],
      "name": "REWARD_THRESHOLD_BP",
      "outputs": [
        {
          "internalType": "uint256",
          "name": "",
          "type": "uint256"
        }
      ],
      "stateMutability": "view",
      "type": "function"
    },
    {
      "inputs": [],
      "name": "SPONSOR_POOL_FEE_BP",
      "outputs": [
        {
          "internalType": "uint256",
          "name": "",
          "type": "uint256"
        }
      ],
      "stateMutability": "view",
      "type": "function"
    },
    {
      "inputs": [
        {
          "internalType": "uint256",
          "name": "",
          "type": "uint256"
        }
      ],
      "name": "depositBonuses",
      "outputs": [
        {
          "internalType": "uint256",
          "name": "",
          "type": "uint256"
        }
      ],
      "stateMutability": "view",
      "type": "function"
    },
    {
      "inputs": [],
      "name": "devAddress",
      "outputs": [
        {
          "internalType": "address",
          "name": "",
          "type": "address"
        }
      ],
      "stateMutability": "view",
      "type": "function"
    },
    {
      "inputs": [],
      "name": "fourRXToken",
      "outputs": [
        {
          "internalType": "contract IERC20",
          "name": "",
          "type": "address"
        }
      ],
      "stateMutability": "view",
      "type": "function"
    },
    {
      "inputs": [],
      "name": "isInInsuranceState",
      "outputs": [
        {
          "internalType": "bool",
          "name": "",
          "type": "bool"
        }
      ],
      "stateMutability": "view",
      "type": "function"
    },
    {
      "inputs": [],
      "name": "maxContractBalance",
      "outputs": [
        {
          "internalType": "uint256",
          "name": "",
          "type": "uint256"
        }
      ],
      "stateMutability": "view",
      "type": "function"
    },
    {
      "inputs": [],
      "name": "poolCycle",
      "outputs": [
        {
          "internalType": "uint256",
          "name": "",
          "type": "uint256"
        }
      ],
      "stateMutability": "view",
      "type": "function"
    },
    {
      "inputs": [],
      "name": "poolDrewAt",
      "outputs": [
        {
          "internalType": "uint256",
          "name": "",
          "type": "uint256"
        }
      ],
      "stateMutability": "view",
      "type": "function"
    },
    {
      "inputs": [],
      "name": "refPoolBalance",
      "outputs": [
        {
          "internalType": "uint256",
          "name": "",
          "type": "uint256"
        }
      ],
      "stateMutability": "view",
      "type": "function"
    },
    {
      "inputs": [
        {
          "internalType": "uint256",
          "name": "",
          "type": "uint256"
        }
      ],
      "name": "refPoolBonuses",
      "outputs": [
        {
          "internalType": "uint256",
          "name": "",
          "type": "uint256"
        }
      ],
      "stateMutability": "view",
      "type": "function"
    },
    {
      "inputs": [
        {
          "internalType": "uint256",
          "name": "",
          "type": "uint256"
        }
      ],
      "name": "refPoolUsers",
      "outputs": [
        {
          "internalType": "address",
          "name": "user",
          "type": "address"
        },
        {
          "internalType": "uint256",
          "name": "stakeId",
          "type": "uint256"
        }
      ],
      "stateMutability": "view",
      "type": "function"
    },
    {
      "inputs": [],
      "name": "sponsorPoolBalance",
      "outputs": [
        {
          "internalType": "uint256",
          "name": "",
          "type": "uint256"
        }
      ],
      "stateMutability": "view",
      "type": "function"
    },
    {
      "inputs": [
        {
          "internalType": "uint256",
          "name": "",
          "type": "uint256"
        }
      ],
      "name": "sponsorPoolBonuses",
      "outputs": [
        {
          "internalType": "uint256",
          "name": "",
          "type": "uint256"
        }
      ],
      "stateMutability": "view",
      "type": "function"
    },
    {
      "inputs": [
        {
          "internalType": "uint256",
          "name": "",
          "type": "uint256"
        }
      ],
      "name": "sponsorPoolUsers",
      "outputs": [
        {
          "internalType": "address",
          "name": "user",
          "type": "address"
        },
        {
          "internalType": "uint256",
          "name": "stakeId",
          "type": "uint256"
        }
      ],
      "stateMutability": "view",
      "type": "function"
    },
    {
      "inputs": [],
      "name": "totalActiveInvestments",
      "outputs": [
        {
          "internalType": "uint256",
          "name": "",
          "type": "uint256"
        }
      ],
      "stateMutability": "view",
      "type": "function"
    },
    {
      "inputs": [],
      "name": "totalDepositRewards",
      "outputs": [
        {
          "internalType": "uint256",
          "name": "",
          "type": "uint256"
        }
      ],
      "stateMutability": "view",
      "type": "function"
    },
    {
      "inputs": [],
      "name": "totalDeposits",
      "outputs": [
        {
          "internalType": "uint256",
          "name": "",
          "type": "uint256"
        }
      ],
      "stateMutability": "view",
      "type": "function"
    },
    {
      "inputs": [],
      "name": "totalExited",
      "outputs": [
        {
          "internalType": "uint256",
          "name": "",
          "type": "uint256"
        }
      ],
      "stateMutability": "view",
      "type": "function"
    },
    {
      "inputs": [],
      "name": "totalInvestments",
      "outputs": [
        {
          "internalType": "uint256",
          "name": "",
          "type": "uint256"
        }
      ],
      "stateMutability": "view",
      "type": "function"
    },
    {
      "inputs": [],
      "name": "totalPenalty",
      "outputs": [
        {
          "internalType": "uint256",
          "name": "",
          "type": "uint256"
        }
      ],
      "stateMutability": "view",
      "type": "function"
    },
    {
      "inputs": [],
      "name": "totalRefPoolRewards",
      "outputs": [
        {
          "internalType": "uint256",
          "name": "",
          "type": "uint256"
        }
      ],
      "stateMutability": "view",
      "type": "function"
    },
    {
      "inputs": [],
      "name": "totalRefRewards",
      "outputs": [
        {
          "internalType": "uint256",
          "name": "",
          "type": "uint256"
        }
      ],
      "stateMutability": "view",
      "type": "function"
    },
    {
      "inputs": [],
      "name": "totalSponsorPoolRewards",
      "outputs": [
        {
          "internalType": "uint256",
          "name": "",
          "type": "uint256"
        }
      ],
      "stateMutability": "view",
      "type": "function"
    },
    {
      "inputs": [],
      "name": "totalWithdrawn",
      "outputs": [
        {
          "internalType": "uint256",
          "name": "",
          "type": "uint256"
        }
      ],
      "stateMutability": "view",
      "type": "function"
    },
    {
      "inputs": [
        {
          "internalType": "address",
          "name": "",
          "type": "address"
        }
      ],
      "name": "users",
      "outputs": [
        {
          "internalType": "address",
          "name": "wallet",
          "type": "address"
        }
      ],
      "stateMutability": "view",
      "type": "function"
    }
  ],
  "bytecode": "0x6080604052600b80546001600160a01b0319167364b8cb4c04ba902010856d913b4e5df940748bf21790556041805460ff1916905534801561004057600080fd5b50610560806100506000396000f3fe608060405234801561001057600080fd5b50600436106101d85760003560e01c806303162d2c146101dd5780630781235a146101f75780630ac39f72146101ff5780630f9fa6aa146101f757806312dd5fe4146101f757806324cf3682146102075780632673ebf71461020f57806327cfe856146102175780633ad10ef61461021f5780633df936c91461024357806346c27f651461024b57806348a91a2414610267578063498dc5b5146102845780634b3197131461028c57806365fcb49e1461029457806369da94d81461029c57806370fd37cf146102a45780637247b2b9146102ac5780637d882097146102b45780638876bb3e146102bc57806391994b2c146102c45780639b6eec7d146102845780639c236aa8146102cc578063a00d49801461030c578063a13a801a14610314578063a87430ba1461031c578063a9122af714610342578063aaf1a0da14610314578063b963ddb41461034a578063bfe0e02014610352578063cabea10d1461035a578063d5766ebd14610362578063d82daec71461037f578063d902f40c14610387578063df5a75ef1461038f578063e5231411146103ac578063e6af61c8146103b4578063ed56f6a1146103bc578063f48e595a146103ac578063fd0b8252146103d9575b600080fd5b6101e56103e1565b60408051918252519081900360200190f35b6101e56103e7565b6101e56103ed565b6101e56103f2565b6101e56103f8565b6101e56103fe565b610227610405565b604080516001600160a01b039092168252519081900360200190f35b6101e5610414565b61025361041a565b604080519115158252519081900360200190f35b6101e56004803603602081101561027d57600080fd5b5035610423565b6101e5610441565b6101e5610447565b6101e561044d565b6101e5610453565b6101e5610459565b6101e561045f565b6101e5610465565b6101e561046b565b6101e5610471565b6102e9600480360360208110156102e257600080fd5b5035610477565b604080516001600160a01b03909316835260208301919091528051918290030190f35b6101e56104a0565b6101e56104a6565b6102276004803603602081101561033257600080fd5b50356001600160a01b03166104ab565b6102276104c6565b6101e56104d5565b6101e56104db565b6101e56104e1565b6101e56004803603602081101561037857600080fd5b50356104e7565b6101e56104f4565b6101e56104fa565b6101e5600480360360208110156103a557600080fd5b50356104ff565b6101e561050c565b6101e5610511565b6102e9600480360360208110156103d257600080fd5b5035610517565b6101e5610524565b61a8c081565b61012c81565b600281565b60035481565b60055481565b6201518081565b600b546001600160a01b031681565b60405481565b60415460ff1681565b603b818154811061043057fe5b600091825260209091200154905081565b61138881565b60015481565b603c5481565b61753081565b60025481565b60075481565b60005481565b60065481565b60095481565b602581600a811061048457fe5b6002020180546001909101546001600160a01b03909116915082565b6103e881565b603281565b600c602052600090815260409020546001600160a01b031681565b600a546001600160a01b031681565b6102bc81565b60045481565b603d5481565b6039818154811061043057fe5b603f5481565b600181565b603a818154811061043057fe5b606481565b60085481565b600d81600c811061048457fe5b603e548156fea26469706673582212200838982e5f26c808b0c98f27b7d0eee43efc27960b94c6c78f92d0873966c29a64736f6c634300060c0033",
  "compiler": {
    "name": "solc",
    "version": "0.6.12+commit.27d51765.Emscripten.clang",
    "optimizer": {
      "enabled": true,
      "runs": 1
    },
    "evmVersion": "petersburg"
  }
}