{
  "fileName": "Insurance.sol",
  "contractName": "Insurance",
  "source": "// SPDX-License-Identifier: MIT\npragma solidity ^0.6.12;\n\nimport \"./RewardsAndPenalties.sol\";\n\n\ncontract Insurance is RewardsAndPenalties {\n    uint private constant BASE_INSURANCE_FOR_BP = 3500; // trigger insurance with contract balance fall below 35%\n    uint private constant OPT_IN_INSURANCE_FEE_BP = 1000; // 10%\n    uint private constant OPT_IN_INSURANCE_FOR_BP = 10000; // 100%\n\n    bool public isInInsuranceState = false; // if contract is only allowing insured money this becomes true;\n\n    function _checkForBaseInsuranceTrigger() internal {\n        if (fourRXToken.balanceOf(address(this)) <= _calcPercentage(maxContractBalance, BASE_INSURANCE_FOR_BP)) {\n            isInInsuranceState = true;\n        } else {\n            isInInsuranceState = false;\n        }\n    }\n\n    function _getInsuredAvailableAmount(Stake memory stake, uint withdrawalAmount) internal pure returns (uint)\n    {\n        uint availableAmount = withdrawalAmount;\n        // Calc correct insured value by checking which insurance should be applied\n        uint insuredFor = BASE_INSURANCE_FOR_BP;\n        if (stake.optInInsured) {\n            insuredFor = OPT_IN_INSURANCE_FOR_BP;\n        }\n\n        uint maxWithdrawalAllowed = _calcPercentage(stake.deposit, insuredFor);\n\n        require(maxWithdrawalAllowed >= stake.withdrawn.add(stake.penalty)); // if contract is in insurance trigger, do not allow withdrawals for the users who already have withdrawn more then 35%\n\n        if (stake.withdrawn.add(availableAmount).add(stake.penalty) > maxWithdrawalAllowed) {\n            availableAmount = maxWithdrawalAllowed.sub(stake.withdrawn).sub(stake.penalty);\n        }\n\n        return availableAmount;\n    }\n\n    function _insureStake(address user, Stake storage stake) internal {\n        require(!stake.optInInsured && stake.active);\n        require(fourRXToken.transferFrom(user, address(this), _calcPercentage(stake.deposit, OPT_IN_INSURANCE_FEE_BP)));\n\n        stake.optInInsured = true;\n    }\n}\n",
  "sourcePath": "contracts/Insurance.sol",
  "abi": [
    {
      "anonymous": false,
      "inputs": [
        {
          "indexed": false,
          "internalType": "address",
          "name": "user",
          "type": "address"
        },
        {
          "indexed": false,
          "internalType": "address",
          "name": "uplink",
          "type": "address"
        },
        {
          "indexed": false,
          "internalType": "uint256",
          "name": "amount",
          "type": "uint256"
        }
      ],
      "name": "Deposit",
      "type": "event"
    },
    {
      "anonymous": false,
      "inputs": [
        {
          "indexed": false,
          "internalType": "address",
          "name": "user",
          "type": "address"
        }
      ],
      "name": "Exited",
      "type": "event"
    },
    {
      "anonymous": false,
      "inputs": [
        {
          "indexed": false,
          "internalType": "address",
          "name": "user",
          "type": "address"
        },
        {
          "indexed": false,
          "internalType": "uint256",
          "name": "amount",
          "type": "uint256"
        }
      ],
      "name": "ReInvest",
      "type": "event"
    },
    {
      "anonymous": false,
      "inputs": [
        {
          "indexed": false,
          "internalType": "address",
          "name": "user",
          "type": "address"
        },
        {
          "indexed": false,
          "internalType": "uint256",
          "name": "amount",
          "type": "uint256"
        }
      ],
      "name": "Withdraw",
      "type": "event"
    },
    {
      "inputs": [],
      "name": "CONTRACT_BONUS_PER_UNIT_BP",
      "outputs": [
        {
          "internalType": "uint256",
          "name": "",
          "type": "uint256"
        }
      ],
      "stateMutability": "view",
      "type": "function"
    },
    {
      "inputs": [],
      "name": "CONTRACT_BONUS_UNIT",
      "outputs": [
        {
          "internalType": "uint256",
          "name": "",
          "type": "uint256"
        }
      ],
      "stateMutability": "view",
      "type": "function"
    },
    {
      "inputs": [],
      "name": "DAY",
      "outputs": [
        {
          "internalType": "uint256",
          "name": "",
          "type": "uint256"
        }
      ],
      "stateMutability": "view",
      "type": "function"
    },
    {
      "inputs": [],
      "name": "DEV_FEE_BP",
      "outputs": [
        {
          "internalType": "uint256",
          "name": "",
          "type": "uint256"
        }
      ],
      "stateMutability": "view",
      "type": "function"
    },
    {
      "inputs": [],
      "name": "EXIT_PENALTY_BP",
      "outputs": [
        {
          "internalType": "uint256",
          "name": "",
          "type": "uint256"
        }
      ],
      "stateMutability": "view",
      "type": "function"
    },
    {
      "inputs": [],
      "name": "HOLD_BONUS_PER_UNIT_BP",
      "outputs": [
        {
          "internalType": "uint256",
          "name": "",
          "type": "uint256"
        }
      ],
      "stateMutability": "view",
      "type": "function"
    },
    {
      "inputs": [],
      "name": "HOLD_BONUS_UNIT",
      "outputs": [
        {
          "internalType": "uint256",
          "name": "",
          "type": "uint256"
        }
      ],
      "stateMutability": "view",
      "type": "function"
    },
    {
      "inputs": [],
      "name": "LP_FEE_BP",
      "outputs": [
        {
          "internalType": "uint256",
          "name": "",
          "type": "uint256"
        }
      ],
      "stateMutability": "view",
      "type": "function"
    },
    {
      "inputs": [],
      "name": "MAX_CONTRACT_BONUS_BP",
      "outputs": [
        {
          "internalType": "uint256",
          "name": "",
          "type": "uint256"
        }
      ],
      "stateMutability": "view",
      "type": "function"
    },
    {
      "inputs": [],
      "name": "MAX_CONTRACT_REWARD_BP",
      "outputs": [
        {
          "internalType": "uint256",
          "name": "",
          "type": "uint256"
        }
      ],
      "stateMutability": "view",
      "type": "function"
    },
    {
      "inputs": [],
      "name": "MAX_HOLD_BONUS_BP",
      "outputs": [
        {
          "internalType": "uint256",
          "name": "",
          "type": "uint256"
        }
      ],
      "stateMutability": "view",
      "type": "function"
    },
    {
      "inputs": [],
      "name": "MAX_WITHDRAWAL_OVER_REWARD_THRESHOLD_BP",
      "outputs": [
        {
          "internalType": "uint256",
          "name": "",
          "type": "uint256"
        }
      ],
      "stateMutability": "view",
      "type": "function"
    },
    {
      "inputs": [],
      "name": "PERCENT_MULTIPLIER",
      "outputs": [
        {
          "internalType": "uint256",
          "name": "",
          "type": "uint256"
        }
      ],
      "stateMutability": "view",
      "type": "function"
    },
    {
      "inputs": [],
      "name": "REF_COMMISSION_BP",
      "outputs": [
        {
          "internalType": "uint256",
          "name": "",
          "type": "uint256"
        }
      ],
      "stateMutability": "view",
      "type": "function"
    },
    {
      "inputs": [],
      "name": "REF_POOL_FEE_BP",
      "outputs": [
        {
          "internalType": "uint256",
          "name": "",
          "type": "uint256"
        }
      ],
      "stateMutability": "view",
      "type": "function"
    },
    {
      "inputs": [],
      "name": "REWARD_THRESHOLD_BP",
      "outputs": [
        {
          "internalType": "uint256",
          "name": "",
          "type": "uint256"
        }
      ],
      "stateMutability": "view",
      "type": "function"
    },
    {
      "inputs": [],
      "name": "SPONSOR_POOL_FEE_BP",
      "outputs": [
        {
          "internalType": "uint256",
          "name": "",
          "type": "uint256"
        }
      ],
      "stateMutability": "view",
      "type": "function"
    },
    {
      "inputs": [],
      "name": "devAddress",
      "outputs": [
        {
          "internalType": "address",
          "name": "",
          "type": "address"
        }
      ],
      "stateMutability": "view",
      "type": "function"
    },
    {
      "inputs": [],
      "name": "drawPool",
      "outputs": [],
      "stateMutability": "nonpayable",
      "type": "function"
    },
    {
      "inputs": [],
      "name": "fourRXToken",
      "outputs": [
        {
          "internalType": "contract IERC20",
          "name": "",
          "type": "address"
        }
      ],
      "stateMutability": "view",
      "type": "function"
    },
    {
      "inputs": [],
      "name": "isInInsuranceState",
      "outputs": [
        {
          "internalType": "bool",
          "name": "",
          "type": "bool"
        }
      ],
      "stateMutability": "view",
      "type": "function"
    },
    {
      "inputs": [],
      "name": "maxContractBalance",
      "outputs": [
        {
          "internalType": "uint256",
          "name": "",
          "type": "uint256"
        }
      ],
      "stateMutability": "view",
      "type": "function"
    },
    {
      "inputs": [],
      "name": "poolCycle",
      "outputs": [
        {
          "internalType": "uint256",
          "name": "",
          "type": "uint256"
        }
      ],
      "stateMutability": "view",
      "type": "function"
    },
    {
      "inputs": [],
      "name": "poolDrewAt",
      "outputs": [
        {
          "internalType": "uint256",
          "name": "",
          "type": "uint256"
        }
      ],
      "stateMutability": "view",
      "type": "function"
    },
    {
      "inputs": [],
      "name": "refPoolBalance",
      "outputs": [
        {
          "internalType": "uint256",
          "name": "",
          "type": "uint256"
        }
      ],
      "stateMutability": "view",
      "type": "function"
    },
    {
      "inputs": [
        {
          "internalType": "uint256",
          "name": "",
          "type": "uint256"
        }
      ],
      "name": "refPoolBonuses",
      "outputs": [
        {
          "internalType": "uint256",
          "name": "",
          "type": "uint256"
        }
      ],
      "stateMutability": "view",
      "type": "function"
    },
    {
      "inputs": [
        {
          "internalType": "uint256",
          "name": "",
          "type": "uint256"
        }
      ],
      "name": "refPoolUsers",
      "outputs": [
        {
          "internalType": "address",
          "name": "user",
          "type": "address"
        },
        {
          "internalType": "uint256",
          "name": "stakeId",
          "type": "uint256"
        }
      ],
      "stateMutability": "view",
      "type": "function"
    },
    {
      "inputs": [],
      "name": "sponsorPoolBalance",
      "outputs": [
        {
          "internalType": "uint256",
          "name": "",
          "type": "uint256"
        }
      ],
      "stateMutability": "view",
      "type": "function"
    },
    {
      "inputs": [
        {
          "internalType": "uint256",
          "name": "",
          "type": "uint256"
        }
      ],
      "name": "sponsorPoolBonuses",
      "outputs": [
        {
          "internalType": "uint256",
          "name": "",
          "type": "uint256"
        }
      ],
      "stateMutability": "view",
      "type": "function"
    },
    {
      "inputs": [
        {
          "internalType": "uint256",
          "name": "",
          "type": "uint256"
        }
      ],
      "name": "sponsorPoolUsers",
      "outputs": [
        {
          "internalType": "address",
          "name": "user",
          "type": "address"
        },
        {
          "internalType": "uint256",
          "name": "stakeId",
          "type": "uint256"
        }
      ],
      "stateMutability": "view",
      "type": "function"
    },
    {
      "inputs": [],
      "name": "totalActiveStakes",
      "outputs": [
        {
          "internalType": "uint256",
          "name": "",
          "type": "uint256"
        }
      ],
      "stateMutability": "view",
      "type": "function"
    },
    {
      "inputs": [],
      "name": "totalDepositRewards",
      "outputs": [
        {
          "internalType": "uint256",
          "name": "",
          "type": "uint256"
        }
      ],
      "stateMutability": "view",
      "type": "function"
    },
    {
      "inputs": [],
      "name": "totalDeposits",
      "outputs": [
        {
          "internalType": "uint256",
          "name": "",
          "type": "uint256"
        }
      ],
      "stateMutability": "view",
      "type": "function"
    },
    {
      "inputs": [],
      "name": "totalExited",
      "outputs": [
        {
          "internalType": "uint256",
          "name": "",
          "type": "uint256"
        }
      ],
      "stateMutability": "view",
      "type": "function"
    },
    {
      "inputs": [],
      "name": "totalPenalty",
      "outputs": [
        {
          "internalType": "uint256",
          "name": "",
          "type": "uint256"
        }
      ],
      "stateMutability": "view",
      "type": "function"
    },
    {
      "inputs": [],
      "name": "totalRefPoolRewards",
      "outputs": [
        {
          "internalType": "uint256",
          "name": "",
          "type": "uint256"
        }
      ],
      "stateMutability": "view",
      "type": "function"
    },
    {
      "inputs": [],
      "name": "totalRefRewards",
      "outputs": [
        {
          "internalType": "uint256",
          "name": "",
          "type": "uint256"
        }
      ],
      "stateMutability": "view",
      "type": "function"
    },
    {
      "inputs": [],
      "name": "totalSponsorPoolRewards",
      "outputs": [
        {
          "internalType": "uint256",
          "name": "",
          "type": "uint256"
        }
      ],
      "stateMutability": "view",
      "type": "function"
    },
    {
      "inputs": [],
      "name": "totalStakes",
      "outputs": [
        {
          "internalType": "uint256",
          "name": "",
          "type": "uint256"
        }
      ],
      "stateMutability": "view",
      "type": "function"
    },
    {
      "inputs": [],
      "name": "totalWithdrawn",
      "outputs": [
        {
          "internalType": "uint256",
          "name": "",
          "type": "uint256"
        }
      ],
      "stateMutability": "view",
      "type": "function"
    },
    {
      "inputs": [
        {
          "internalType": "address",
          "name": "",
          "type": "address"
        }
      ],
      "name": "users",
      "outputs": [
        {
          "internalType": "address",
          "name": "wallet",
          "type": "address"
        }
      ],
      "stateMutability": "view",
      "type": "function"
    }
  ],
  "bytecode": "0x60806040908152600b80546001600160a01b0319167364b8cb4c04ba902010856d913b4e5df940748bf2179055805460ff1916905534801561004057600080fd5b50610a79806100506000396000f3fe608060405234801561001057600080fd5b50600436106101e35760003560e01c806303162d2c146101e85780630781235a146102025780630ac39f721461020a5780630f9fa6aa1461020257806312dd5fe4146102025780631f079e01146102125780632673ebf71461021a57806327cfe856146102225780633ad10ef61461022a5780633df936c91461024e57806346c27f6514610256578063498dc5b5146102725780634b3197131461027a57806363b815fa1461028257806365fcb49e1461028a57806369da94d8146102925780637247b2b91461029a5780637d882097146102a25780638876bb3e146102aa57806391994b2c146102b25780639b6eec7d146102ba5780639c236aa8146102c2578063a00d498014610302578063a13a801a1461030a578063a87430ba14610312578063a9122af714610338578063aaf1a0da1461030a578063b963ddb414610340578063bf9befb114610348578063bfe0e02014610350578063cabea10d14610358578063d5766ebd14610360578063d82daec71461037d578063d902f40c14610385578063df5a75ef1461038d578063e5231411146103aa578063e6af61c8146103b2578063e7204ffb146103ba578063ed56f6a1146103c4578063f48e595a146103e1578063fd0b8252146103e9575b600080fd5b6101f06103f1565b60408051918252519081900360200190f35b6101f06103f7565b6101f06103fd565b6101f0610402565b6101f0610408565b6101f061040e565b610232610415565b604080516001600160a01b039092168252519081900360200190f35b6101f0610424565b61025e61042a565b604080519115158252519081900360200190f35b6101f0610433565b6101f0610439565b6101f061043f565b6101f0610445565b6101f061044b565b6101f0610451565b6101f0610457565b6101f061045d565b6101f0610463565b6101f0610469565b6102df600480360360208110156102d857600080fd5b503561046f565b604080516001600160a01b03909316835260208301919091528051918290030190f35b6101f0610498565b6101f061049d565b6102326004803603602081101561032857600080fd5b50356001600160a01b03166104a2565b6102326104bd565b6101f06104cc565b6101f06104d2565b6101f06104d8565b6101f06104de565b6101f06004803603602081101561037657600080fd5b50356104e4565b6101f0610502565b6101f0610508565b6101f0600480360360208110156103a357600080fd5b503561050d565b6101f061051a565b6101f061051f565b6103c2610525565b005b6102df600480360360208110156103da57600080fd5b5035610780565b6101f061078d565b6101f0610792565b61a8c081565b61012c81565b600281565b60035481565b60055481565b6201518081565b600b546001600160a01b031681565b603f5481565b60405460ff1681565b61138881565b60015481565b61271081565b603b5481565b61924f81565b60075481565b60005481565b60065481565b60095481565b6101f481565b602581600a811061047c57fe5b6002020180546001909101546001600160a01b03909116915082565b600581565b603281565b600c602052600090815260409020546001600160a01b031681565b600a546001600160a01b031681565b61032081565b60025481565b60045481565b603c5481565b603981815481106104f157fe5b600091825260209091200154905081565b603e5481565b600181565b603a81815481106104f157fe5b606481565b60085481565b603d54620151800142111561077e5760005b600c81101561064a576000600d82600c811061054f57fe5b60020201546001600160a01b031614156105685761064a565b6000600c6000600d84600c811061057b57fe5b60020201546001600160a01b031681526020810191909152604001600020603e546039805492935061060a926105c7929190869081106105b757fe5b9060005260206000200154610798565b82600101600d85600c81106105d857fe5b6002020160010154815481106105ea57fe5b9060005260206000209060110201600701546107b990919063ffffffff16565b81600101600d84600c811061061b57fe5b60020201600101548154811061062d57fe5b600091825260209091206007601190920201015550600101610537565b5060005b600a811015610751576000602582600a811061066657fe5b60020201546001600160a01b0316141561067f57610751565b6000600c6000602584600a811061069257fe5b60020201546001600160a01b031681526020810191909152604001600020603f54603a8054929350610711926106ce929190869081106105b757fe5b82600101602585600a81106106df57fe5b6002020160010154815481106106f157fe5b9060005260206000209060110201600801546107b990919063ffffffff16565b81600101602584600a811061072257fe5b60020201600101548154811061073457fe5b60009182526020909120600860119092020101555060010161064e565b50603e54600554610761916107b9565b600555603f54600654610773916107b9565b60065561077e610811565b565b600d81600c811061047c57fe5b60fa81565b603d5481565b60006107b06127106107aa85856108ed565b90610946565b90505b92915050565b6000828201838110156107b0576040805162461bcd60e51b815260206004820152601b60248201527a536166654d6174683a206164646974696f6e206f766572666c6f7760281b604482015290519081900360640190fd5b60005b603954811015610876576000600d82600c811061082d57fe5b6002020180546001600160a01b0319166001600160a01b03929092169190911790556000600d82600c811061085e57fe5b60020201600101819055508080600101915050610814565b5060005b603a548110156108dc576000602582600a811061089357fe5b6002020180546001600160a01b0319166001600160a01b03929092169190911790556000600d82600c81106108c457fe5b6002020160010181905550808060010191505061087a565b506000603e819055603f5542603d55565b6000826108fc575060006107b3565b8282028284828161090957fe5b04146107b05760405162461bcd60e51b8152600401808060200182810382526021815260200180610a236021913960400191505060405180910390fd5b60006107b083836040518060400160405280601a815260200179536166654d6174683a206469766973696f6e206279207a65726f60301b81525060008183610a0c5760405162461bcd60e51b81526004018080602001828103825283818151815260200191508051906020019080838360005b838110156109d15781810151838201526020016109b9565b50505050905090810190601f1680156109fe5780820380516001836020036101000a031916815260200191505b509250505060405180910390fd5b506000838581610a1857fe5b049594505050505056fe536166654d6174683a206d756c7469706c69636174696f6e206f766572666c6f77a26469706673582212209387151f7f36dd59427c40ad88a996e5c09402f8ee029df94c25086cb89af7e064736f6c634300060c0033",
  "compiler": {
    "name": "solc",
    "version": "0.6.12+commit.27d51765.Emscripten.clang",
    "optimizer": {
      "enabled": true,
      "runs": 1
    },
    "evmVersion": "petersburg"
  }
}