{
  "fileName": "Insurance.sol",
  "contractName": "Insurance",
  "source": "// SPDX-License-Identifier: MIT\npragma solidity ^0.6.12;\n\nimport \"./RewardsAndPenalties.sol\";\n\n\ncontract Insurance is RewardsAndPenalties {\n    uint private constant BASE_INSURANCE_FOR_BP = 3500; // trigger insurance with contract balance fall below 35%\n    uint private constant OPT_IN_INSURANCE_FEE_BP = 1000; // 10%\n    uint private constant OPT_IN_INSURANCE_FOR_BP = 10000; // 100%\n\n    bool public isInInsuranceState = false; // if contract is only allowing insured money this becomes true;\n\n    function _checkForBaseInsuranceTrigger() internal {\n        if (fourRXToken.balanceOf(address(this)) <= _calcPercentage(maxContractBalance, BASE_INSURANCE_FOR_BP)) {\n            isInInsuranceState = true;\n        } else {\n            isInInsuranceState = false;\n        }\n    }\n\n    function _getInsuredAvailableAmount(Stake memory stake, uint withdrawalAmount) internal pure returns (uint)\n    {\n        uint availableAmount = withdrawalAmount;\n        // Calc correct insured value by checking which insurance should be applied\n        uint insuredFor = BASE_INSURANCE_FOR_BP;\n        if (stake.optInInsured) {\n            insuredFor = OPT_IN_INSURANCE_FOR_BP;\n        }\n\n        uint maxWithdrawalAllowed = _calcPercentage(stake.deposit, insuredFor);\n\n        require(maxWithdrawalAllowed >= stake.withdrawn.add(stake.penalty)); // if contract is in insurance trigger, do not allow withdrawals for the users who already have withdrawn more then 35%\n\n        if (stake.withdrawn.add(availableAmount).add(stake.penalty) > maxWithdrawalAllowed) {\n            availableAmount = maxWithdrawalAllowed.sub(stake.withdrawn).sub(stake.penalty);\n        }\n\n        return availableAmount;\n    }\n\n    function _insureStake(address user, Stake storage stake) internal {\n        require(!stake.optInInsured && stake.active);\n        require(fourRXToken.transferFrom(user, address(this), _calcPercentage(stake.deposit, OPT_IN_INSURANCE_FEE_BP)));\n\n        stake.optInInsured = true;\n    }\n}\n",
  "sourcePath": "contracts/Insurance.sol",
  "abi": [
    {
      "anonymous": false,
      "inputs": [
        {
          "indexed": false,
          "internalType": "address",
          "name": "user",
          "type": "address"
        },
        {
          "indexed": false,
          "internalType": "uint256",
          "name": "amount",
          "type": "uint256"
        },
        {
          "indexed": false,
          "internalType": "address",
          "name": "uplinkAddress",
          "type": "address"
        },
        {
          "indexed": false,
          "internalType": "uint256",
          "name": "uplinkStakeId",
          "type": "uint256"
        }
      ],
      "name": "Deposit",
      "type": "event"
    },
    {
      "anonymous": false,
      "inputs": [
        {
          "indexed": false,
          "internalType": "address",
          "name": "user",
          "type": "address"
        },
        {
          "indexed": false,
          "internalType": "uint256",
          "name": "stakeId",
          "type": "uint256"
        },
        {
          "indexed": false,
          "internalType": "uint256",
          "name": "amount",
          "type": "uint256"
        }
      ],
      "name": "Exited",
      "type": "event"
    },
    {
      "anonymous": false,
      "inputs": [
        {
          "indexed": false,
          "internalType": "uint256",
          "name": "refPoolAmount",
          "type": "uint256"
        },
        {
          "indexed": false,
          "internalType": "uint256",
          "name": "sponsirPoolAmount",
          "type": "uint256"
        }
      ],
      "name": "PoolDrawn",
      "type": "event"
    },
    {
      "anonymous": false,
      "inputs": [
        {
          "indexed": false,
          "internalType": "address",
          "name": "user",
          "type": "address"
        },
        {
          "indexed": false,
          "internalType": "uint256",
          "name": "amount",
          "type": "uint256"
        }
      ],
      "name": "ReInvest",
      "type": "event"
    },
    {
      "anonymous": false,
      "inputs": [
        {
          "indexed": false,
          "internalType": "address",
          "name": "user",
          "type": "address"
        },
        {
          "indexed": false,
          "internalType": "uint256",
          "name": "amount",
          "type": "uint256"
        }
      ],
      "name": "Withdrawn",
      "type": "event"
    },
    {
      "inputs": [],
      "name": "CONTRACT_BONUS_PER_UNIT_BP",
      "outputs": [
        {
          "internalType": "uint256",
          "name": "",
          "type": "uint256"
        }
      ],
      "stateMutability": "view",
      "type": "function"
    },
    {
      "inputs": [],
      "name": "CONTRACT_BONUS_UNIT",
      "outputs": [
        {
          "internalType": "uint256",
          "name": "",
          "type": "uint256"
        }
      ],
      "stateMutability": "view",
      "type": "function"
    },
    {
      "inputs": [],
      "name": "DAY",
      "outputs": [
        {
          "internalType": "uint256",
          "name": "",
          "type": "uint256"
        }
      ],
      "stateMutability": "view",
      "type": "function"
    },
    {
      "inputs": [],
      "name": "DEV_FEE_BP",
      "outputs": [
        {
          "internalType": "uint256",
          "name": "",
          "type": "uint256"
        }
      ],
      "stateMutability": "view",
      "type": "function"
    },
    {
      "inputs": [],
      "name": "EXIT_PENALTY_BP",
      "outputs": [
        {
          "internalType": "uint256",
          "name": "",
          "type": "uint256"
        }
      ],
      "stateMutability": "view",
      "type": "function"
    },
    {
      "inputs": [],
      "name": "HOLD_BONUS_PER_UNIT_BP",
      "outputs": [
        {
          "internalType": "uint256",
          "name": "",
          "type": "uint256"
        }
      ],
      "stateMutability": "view",
      "type": "function"
    },
    {
      "inputs": [],
      "name": "HOLD_BONUS_UNIT",
      "outputs": [
        {
          "internalType": "uint256",
          "name": "",
          "type": "uint256"
        }
      ],
      "stateMutability": "view",
      "type": "function"
    },
    {
      "inputs": [],
      "name": "LP_FEE_BP",
      "outputs": [
        {
          "internalType": "uint256",
          "name": "",
          "type": "uint256"
        }
      ],
      "stateMutability": "view",
      "type": "function"
    },
    {
      "inputs": [],
      "name": "MAX_CONTRACT_BONUS_BP",
      "outputs": [
        {
          "internalType": "uint256",
          "name": "",
          "type": "uint256"
        }
      ],
      "stateMutability": "view",
      "type": "function"
    },
    {
      "inputs": [],
      "name": "MAX_CONTRACT_REWARD_BP",
      "outputs": [
        {
          "internalType": "uint256",
          "name": "",
          "type": "uint256"
        }
      ],
      "stateMutability": "view",
      "type": "function"
    },
    {
      "inputs": [],
      "name": "MAX_HOLD_BONUS_BP",
      "outputs": [
        {
          "internalType": "uint256",
          "name": "",
          "type": "uint256"
        }
      ],
      "stateMutability": "view",
      "type": "function"
    },
    {
      "inputs": [],
      "name": "MAX_WITHDRAWAL_OVER_REWARD_THRESHOLD_BP",
      "outputs": [
        {
          "internalType": "uint256",
          "name": "",
          "type": "uint256"
        }
      ],
      "stateMutability": "view",
      "type": "function"
    },
    {
      "inputs": [],
      "name": "PERCENT_MULTIPLIER",
      "outputs": [
        {
          "internalType": "uint256",
          "name": "",
          "type": "uint256"
        }
      ],
      "stateMutability": "view",
      "type": "function"
    },
    {
      "inputs": [],
      "name": "REF_COMMISSION_BP",
      "outputs": [
        {
          "internalType": "uint256",
          "name": "",
          "type": "uint256"
        }
      ],
      "stateMutability": "view",
      "type": "function"
    },
    {
      "inputs": [],
      "name": "REF_POOL_FEE_BP",
      "outputs": [
        {
          "internalType": "uint256",
          "name": "",
          "type": "uint256"
        }
      ],
      "stateMutability": "view",
      "type": "function"
    },
    {
      "inputs": [],
      "name": "REWARD_THRESHOLD_BP",
      "outputs": [
        {
          "internalType": "uint256",
          "name": "",
          "type": "uint256"
        }
      ],
      "stateMutability": "view",
      "type": "function"
    },
    {
      "inputs": [],
      "name": "SPONSOR_POOL_FEE_BP",
      "outputs": [
        {
          "internalType": "uint256",
          "name": "",
          "type": "uint256"
        }
      ],
      "stateMutability": "view",
      "type": "function"
    },
    {
      "inputs": [],
      "name": "devAddress",
      "outputs": [
        {
          "internalType": "address",
          "name": "",
          "type": "address"
        }
      ],
      "stateMutability": "view",
      "type": "function"
    },
    {
      "inputs": [],
      "name": "devBalance",
      "outputs": [
        {
          "internalType": "uint256",
          "name": "",
          "type": "uint256"
        }
      ],
      "stateMutability": "view",
      "type": "function"
    },
    {
      "inputs": [],
      "name": "drawPool",
      "outputs": [],
      "stateMutability": "nonpayable",
      "type": "function"
    },
    {
      "inputs": [],
      "name": "fourRXToken",
      "outputs": [
        {
          "internalType": "contract IERC20",
          "name": "",
          "type": "address"
        }
      ],
      "stateMutability": "view",
      "type": "function"
    },
    {
      "inputs": [],
      "name": "isInInsuranceState",
      "outputs": [
        {
          "internalType": "bool",
          "name": "",
          "type": "bool"
        }
      ],
      "stateMutability": "view",
      "type": "function"
    },
    {
      "inputs": [],
      "name": "maxContractBalance",
      "outputs": [
        {
          "internalType": "uint256",
          "name": "",
          "type": "uint256"
        }
      ],
      "stateMutability": "view",
      "type": "function"
    },
    {
      "inputs": [],
      "name": "poolCycle",
      "outputs": [
        {
          "internalType": "uint16",
          "name": "",
          "type": "uint16"
        }
      ],
      "stateMutability": "view",
      "type": "function"
    },
    {
      "inputs": [],
      "name": "poolDrewAt",
      "outputs": [
        {
          "internalType": "uint32",
          "name": "",
          "type": "uint32"
        }
      ],
      "stateMutability": "view",
      "type": "function"
    },
    {
      "inputs": [],
      "name": "refPoolBalance",
      "outputs": [
        {
          "internalType": "uint256",
          "name": "",
          "type": "uint256"
        }
      ],
      "stateMutability": "view",
      "type": "function"
    },
    {
      "inputs": [
        {
          "internalType": "uint256",
          "name": "",
          "type": "uint256"
        }
      ],
      "name": "refPoolBonuses",
      "outputs": [
        {
          "internalType": "uint256",
          "name": "",
          "type": "uint256"
        }
      ],
      "stateMutability": "view",
      "type": "function"
    },
    {
      "inputs": [
        {
          "internalType": "uint256",
          "name": "",
          "type": "uint256"
        }
      ],
      "name": "refPoolUsers",
      "outputs": [
        {
          "internalType": "address",
          "name": "user",
          "type": "address"
        },
        {
          "internalType": "uint8",
          "name": "stakeId",
          "type": "uint8"
        }
      ],
      "stateMutability": "view",
      "type": "function"
    },
    {
      "inputs": [],
      "name": "sponsorPoolBalance",
      "outputs": [
        {
          "internalType": "uint256",
          "name": "",
          "type": "uint256"
        }
      ],
      "stateMutability": "view",
      "type": "function"
    },
    {
      "inputs": [
        {
          "internalType": "uint256",
          "name": "",
          "type": "uint256"
        }
      ],
      "name": "sponsorPoolBonuses",
      "outputs": [
        {
          "internalType": "uint256",
          "name": "",
          "type": "uint256"
        }
      ],
      "stateMutability": "view",
      "type": "function"
    },
    {
      "inputs": [
        {
          "internalType": "uint256",
          "name": "",
          "type": "uint256"
        }
      ],
      "name": "sponsorPoolUsers",
      "outputs": [
        {
          "internalType": "address",
          "name": "user",
          "type": "address"
        },
        {
          "internalType": "uint8",
          "name": "stakeId",
          "type": "uint8"
        }
      ],
      "stateMutability": "view",
      "type": "function"
    },
    {
      "inputs": [],
      "name": "totalDepositRewards",
      "outputs": [
        {
          "internalType": "uint256",
          "name": "",
          "type": "uint256"
        }
      ],
      "stateMutability": "view",
      "type": "function"
    },
    {
      "inputs": [],
      "name": "totalExited",
      "outputs": [
        {
          "internalType": "uint256",
          "name": "",
          "type": "uint256"
        }
      ],
      "stateMutability": "view",
      "type": "function"
    },
    {
      "inputs": [
        {
          "internalType": "address",
          "name": "",
          "type": "address"
        }
      ],
      "name": "users",
      "outputs": [
        {
          "internalType": "address",
          "name": "wallet",
          "type": "address"
        }
      ],
      "stateMutability": "view",
      "type": "function"
    }
  ],
  "bytecode": "0x6080604052600380546001600160a01b0319167364b8cb4c04ba902010856d913b4e5df940748bf21790556022805460ff1916905534801561004057600080fd5b506109fa806100506000396000f3fe608060405234801561001057600080fd5b50600436106101965760003560e01c806303162d2c1461019b5780630781235a146101b55780630ac39f72146101bd5780630f9fa6aa146101b557806312dd5fe4146101b557806327cfe856146101c55780633ad10ef6146101cd5780633df936c9146101f157806346c27f65146101f9578063498dc5b51461021557806363b815fa1461021d57806365fcb49e1461022557806369da94d81461022d5780637247b2b91461023557806391994b2c1461023d5780639b6eec7d146102455780639c236aa81461024d578063a00d49801461028f578063a13a801a14610297578063a87430ba1461029f578063a9122af7146102c5578063aaf1a0da14610297578063b963ddb4146102cd578063cabea10d146102d5578063cd9a1b63146102f4578063d5766ebd146102fc578063d82daec714610319578063d902f40c14610321578063df5a75ef14610329578063e523141114610346578063e7204ffb1461034e578063ed56f6a114610358578063f48e595a14610375578063fd0b82521461037d575b600080fd5b6101a361039e565b60408051918252519081900360200190f35b6101a36103a4565b6101a36103aa565b6101a36103af565b6101d56103b6565b604080516001600160a01b039092168252519081900360200190f35b6101a36103c5565b6102016103cb565b604080519115158252519081900360200190f35b6101a36103d4565b6101a36103da565b6101a36103e0565b6101a36103e6565b6101a36103ec565b6101a36103f2565b6101a36103f8565b61026a6004803603602081101561026357600080fd5b50356103fe565b604080516001600160a01b03909316835260ff90911660208301528051918290030190f35b6101a3610426565b6101a361042b565b6101d5600480360360208110156102b557600080fd5b50356001600160a01b0316610430565b6101d561044b565b6101a361045a565b6102dd610460565b6040805161ffff9092168252519081900360200190f35b6101a361046a565b6101a36004803603602081101561031257600080fd5b5035610470565b6101a361048e565b6101a3610494565b6101a36004803603602081101561033f57600080fd5b5035610499565b6101a36104a6565b6103566104ab565b005b61026a6004803603602081101561036e57600080fd5b503561073b565b6101a3610748565b61038561074d565b6040805163ffffffff9092168252519081900360200190f35b61a8c081565b61012c81565b600281565b6201518081565b6003546001600160a01b031681565b60205481565b60225460ff1681565b61138881565b61271081565b601d5481565b61924f81565b60005481565b60015481565b6101f481565b601181600a811061040b57fe5b01546001600160a01b0381169150600160a01b900460ff1682565b600581565b603281565b6004602052600090815260409020546001600160a01b031681565b6002546001600160a01b031681565b61032081565b601e5461ffff1681565b60215481565b601b818154811061047d57fe5b600091825260209091200154905081565b601f5481565b600181565b601c818154811061047d57fe5b606481565b601e546201518063ffffffff62010000909204821601164211156107395760005b600c8110156105e5576000600582600c81106104e457fe5b01546001600160a01b031614156104fa576105e5565b600060046000600584600c811061050d57fe5b01546001600160a01b031681526020810191909152604001600020601f54601b805492935061059f926105569291908690811061054657fe5b906000526020600020015461075f565b82600101600585600c811061056757fe5b01548154600160a01b90910460ff1690811061057f57fe5b90600052602060002090600b02016005015461078090919063ffffffff16565b81600101600584600c81106105b057fe5b01548154600160a01b90910460ff169081106105c857fe5b600091825260209091206005600b909202010155506001016104cc565b5060005b600a8110156106f2576000601182600a811061060157fe5b01546001600160a01b03161415610617576106f2565b600060046000601184600a811061062a57fe5b01546001600160a01b031681526020808201929092526040016000209054601c80549293506106ac926106639291908690811061054657fe5b82600101601185600a811061067457fe5b01548154600160a01b90910460ff1690811061068c57fe5b90600052602060002090600b02016006015461078090919063ffffffff16565b81600101601184600a81106106bd57fe5b01548154600160a01b90910460ff169081106106d557fe5b600091825260209091206006600b909202010155506001016105e9565b50601f5460208054604080519384529183015280517f505fb5b242804521f868b1210d5697cefabaa21c3f697207aa5c02dc549116e29281900390910190a16107396107d8565b565b600581600c811061040b57fe5b60fa81565b601e5462010000900463ffffffff1681565b6000610777612710610771858561082e565b90610887565b90505b92915050565b600082820183811015610777576040805162461bcd60e51b815260206004820152601b60248201527a536166654d6174683a206164646974696f6e206f766572666c6f7760281b604482015290519081900360640190fd5b6107e460056000610963565b6107f060116000610975565b6000601f819055602055601e805461ffff1965ffffffff000019909116620100004263ffffffff160217908116600161ffff92831601909116179055565b60008261083d5750600061077a565b8282028284828161084a57fe5b04146107775760405162461bcd60e51b81526004018080602001828103825260218152602001806109a46021913960400191505060405180910390fd5b600061077783836040518060400160405280601a815260200179536166654d6174683a206469766973696f6e206279207a65726f60301b8152506000818361094d5760405162461bcd60e51b81526004018080602001828103825283818151815260200191508051906020019080838360005b838110156109125781810151838201526020016108fa565b50505050905090810190601f16801561093f5780820380516001836020036101000a031916815260200191505b509250505060405180910390fd5b50600083858161095957fe5b0495945050505050565b5061097290600c810190610980565b50565b5061097290600a8101905b5b8082111561099f5780546001600160a81b0319168155600101610981565b509056fe536166654d6174683a206d756c7469706c69636174696f6e206f766572666c6f77a2646970667358221220d723651e83a9f6fdb78eea3527fb4a853320054fc6342511e92e6f6437cce10164736f6c634300060c0033",
  "compiler": {
    "name": "solc",
    "version": "0.6.12+commit.27d51765.Emscripten.clang",
    "optimizer": {
      "enabled": true,
      "runs": 1
    },
    "evmVersion": "petersburg"
  }
}