{
  "fileName": "MasterChef.sol",
  "contractName": "MasterChef",
  "source": "// SPDX-License-Identifier: MIT\n\npragma solidity 0.6.12;\n\nimport \"@openzeppelin/contracts/token/ERC20/IERC20.sol\";\nimport \"@openzeppelin/contracts/token/ERC20/SafeERC20.sol\";\nimport \"@openzeppelin/contracts/utils/EnumerableSet.sol\";\nimport \"@openzeppelin/contracts/math/SafeMath.sol\";\nimport \"@openzeppelin/contracts/access/Ownable.sol\";\nimport \"./../ERC20/FRX.sol\";\n\n\ninterface IMigratorChef {\n    // Perform LP token migration from legacy UniswapV2 to SushiSwap.\n    // Take the current LP token address and return the new LP token address.\n    // Migrator should have full access to the caller's LP token.\n    // Return the new LP token address.\n    //\n    // XXX Migrator must have allowance access to UniswapV2 LP tokens.\n    // SushiSwap must mint EXACTLY the same amount of SushiSwap LP tokens or\n    // else something bad will happen. Traditional UniswapV2 does not\n    // do that so be careful!\n    function migrate(IERC20 token) external returns (IERC20);\n}\n// MasterChef is the master of FRX. He can make FRX and he is a fair guy.\n//\n// Note that it's ownable and the owner wields tremendous power. The ownership\n// will be transferred to a governance smart contract once FRX is sufficiently\n// distributed and the community can show to govern itself.\n//\n// Have fun reading it. Hopefully it's bug-free. God bless.\n\n\ncontract MasterChef is Ownable {\n    using SafeMath for uint256;\n    using SafeERC20 for IERC20;\n\n    // Info of each user.\n    struct UserInfo {\n        uint256 amount;     // How many LP tokens the user has provided.\n        uint256 rewardDebt; // Reward debt. See explanation below.\n        //\n        // We do some fancy math here. Basically, any point in time, the amount of FRXs\n        // entitled to a user but is pending to be distributed is:\n        //\n        //   pending reward = (user.amount * pool.accFRXPerShare) - user.rewardDebt\n        //\n        // Whenever a user deposits or withdraws LP tokens to a pool. Here's what happens:\n        //   1. The pool's `accFRXPerShare` (and `lastRewardBlock`) gets updated.\n        //   2. User receives the pending reward sent to his/her address.\n        //   3. User's `amount` gets updated.\n        //   4. User's `rewardDebt` gets updated.\n    }\n\n    // Info of each pool.\n    struct PoolInfo {\n        IERC20 lpToken;           // Address of LP token contract.\n        uint256 allocPoint;       // How many allocation points assigned to this pool. FRXs to distribute per block.\n        uint256 lastRewardBlock;  // Last block number that FRXs distribution occurs.\n        uint256 accFRXPerShare; // Accumulated FRXs per share, times 1e12. See below.\n    }\n\n    // The FRX TOKEN!\n    FRX public frx;\n    // Dev address.\n    address public devaddr;\n    // Block number when bonus FRX period ends.\n    uint256 public bonusEndBlock;\n    // FRX tokens created per block.\n    uint256 public frxPerBlock;\n    // Bonus muliplier for early frx makers.\n    uint256 public constant BONUS_MULTIPLIER = 10;\n    // The migrator contract. It has a lot of power. Can only be set through governance (owner).\n    IMigratorChef public migrator;\n\n    // Info of each pool.\n    PoolInfo[] public poolInfo;\n    // Info of each user that stakes LP tokens.\n    mapping(uint256 => mapping(address => UserInfo)) public userInfo;\n    // Total allocation points. Must be the sum of all allocation points in all pools.\n    uint256 public totalAllocPoint = 0;\n    // The block number when FRX mining starts.\n    uint256 public startBlock;\n\n    event Deposit(address indexed user, uint256 indexed pid, uint256 amount);\n    event Withdraw(address indexed user, uint256 indexed pid, uint256 amount);\n    event EmergencyWithdraw(address indexed user, uint256 indexed pid, uint256 amount);\n\n    constructor(\n        FRX _frx,\n        address _devaddr,\n        uint256 _frxPerBlock,\n        uint256 _startBlock,\n        uint256 _bonusEndBlock\n    ) public {\n        frx = _frx;\n        devaddr = _devaddr;\n        frxPerBlock = _frxPerBlock;\n        bonusEndBlock = _bonusEndBlock;\n        startBlock = _startBlock;\n    }\n\n    function poolLength() external view returns (uint256) {\n        return poolInfo.length;\n    }\n\n    // Add a new lp to the pool. Can only be called by the owner.\n    // XXX DO NOT add the same LP token more than once. Rewards will be messed up if you do.\n    function add(uint256 _allocPoint, IERC20 _lpToken, bool _withUpdate) public onlyOwner {\n        if (_withUpdate) {\n            massUpdatePools();\n        }\n        uint256 lastRewardBlock = block.number > startBlock ? block.number : startBlock;\n        totalAllocPoint = totalAllocPoint.add(_allocPoint);\n        poolInfo.push(PoolInfo({\n            lpToken : _lpToken,\n            allocPoint : _allocPoint,\n            lastRewardBlock : lastRewardBlock,\n            accFRXPerShare : 0\n        }));\n    }\n\n    // Update the given pool's FRX allocation point. Can only be called by the owner.\n    function set(uint256 _pid, uint256 _allocPoint, bool _withUpdate) public onlyOwner {\n        if (_withUpdate) {\n            massUpdatePools();\n        }\n        totalAllocPoint = totalAllocPoint.sub(poolInfo[_pid].allocPoint).add(_allocPoint);\n        poolInfo[_pid].allocPoint = _allocPoint;\n    }\n\n    // Set the migrator contract. Can only be called by the owner.\n    function setMigrator(IMigratorChef _migrator) public onlyOwner {\n        migrator = _migrator;\n    }\n\n    // Migrate lp token to another lp contract. Can be called by anyone. We trust that migrator contract is good.\n    function migrate(uint256 _pid) public {\n        require(address(migrator) != address(0), \"migrate: no migrator\");\n        PoolInfo storage pool = poolInfo[_pid];\n        IERC20 lpToken = pool.lpToken;\n        uint256 bal = lpToken.balanceOf(address(this));\n        lpToken.safeApprove(address(migrator), bal);\n        IERC20 newLpToken = migrator.migrate(lpToken);\n        require(bal == newLpToken.balanceOf(address(this)), \"migrate: bad\");\n        pool.lpToken = newLpToken;\n    }\n\n    // Return reward multiplier over the given _from to _to block.\n    function getMultiplier(uint256 _from, uint256 _to) public view returns (uint256) {\n        if (_to <= bonusEndBlock) {\n            return _to.sub(_from).mul(BONUS_MULTIPLIER);\n        } else if (_from >= bonusEndBlock) {\n            return _to.sub(_from);\n        } else {\n            return bonusEndBlock.sub(_from).mul(BONUS_MULTIPLIER).add(\n                _to.sub(bonusEndBlock)\n            );\n        }\n    }\n\n    // View function to see pending FRXs on frontend.\n    function pendingFRX(uint256 _pid, address _user) external view returns (uint256) {\n        PoolInfo storage pool = poolInfo[_pid];\n        UserInfo storage user = userInfo[_pid][_user];\n        uint256 accFRXPerShare = pool.accFRXPerShare;\n        uint256 lpSupply = pool.lpToken.balanceOf(address(this));\n        if (block.number > pool.lastRewardBlock && lpSupply != 0) {\n            uint256 multiplier = getMultiplier(pool.lastRewardBlock, block.number);\n            uint256 frxReward = multiplier.mul(frxPerBlock).mul(pool.allocPoint).div(totalAllocPoint);\n            accFRXPerShare = accFRXPerShare.add(frxReward.mul(1e12).div(lpSupply));\n        }\n        return user.amount.mul(accFRXPerShare).div(1e12).sub(user.rewardDebt);\n    }\n\n    // Update reward variables for all pools. Be careful of gas spending!\n    function massUpdatePools() public {\n        uint256 length = poolInfo.length;\n        for (uint256 pid = 0; pid < length; ++pid) {\n            updatePool(pid);\n        }\n    }\n\n    // Update reward variables of the given pool to be up-to-date.\n    function updatePool(uint256 _pid) public {\n        PoolInfo storage pool = poolInfo[_pid];\n        if (block.number <= pool.lastRewardBlock) {\n            return;\n        }\n        uint256 lpSupply = pool.lpToken.balanceOf(address(this));\n        if (lpSupply == 0) {\n            pool.lastRewardBlock = block.number;\n            return;\n        }\n        uint256 multiplier = getMultiplier(pool.lastRewardBlock, block.number);\n        uint256 frxReward = multiplier.mul(frxPerBlock).mul(pool.allocPoint).div(totalAllocPoint);\n        // @todo: This is where it needs to change, In our case pool should already have sufficient tokens,\n        // @todo: if not then call the parent contract distribute functions to receive tokens accordingly\n        // @todo: minting doesn't look good\n//        frx.mint(devaddr, frxReward.div(10));\n//        frx.mint(address(this), frxReward);\n        pool.accFRXPerShare = pool.accFRXPerShare.add(frxReward.mul(1e12).div(lpSupply));\n        pool.lastRewardBlock = block.number;\n    }\n\n    // Deposit LP tokens to MasterChef for FRX allocation.\n    function deposit(uint256 _pid, uint256 _amount) public {\n        PoolInfo storage pool = poolInfo[_pid];\n        UserInfo storage user = userInfo[_pid][msg.sender];\n        updatePool(_pid);\n        if (user.amount > 0) {\n            uint256 pending = user.amount.mul(pool.accFRXPerShare).div(1e12).sub(user.rewardDebt);\n            if (pending > 0) {\n                safeFrxTransfer(msg.sender, pending);\n            }\n        }\n        if (_amount > 0) {\n            pool.lpToken.safeTransferFrom(address(msg.sender), address(this), _amount);\n            user.amount = user.amount.add(_amount);\n        }\n        user.rewardDebt = user.amount.mul(pool.accFRXPerShare).div(1e12);\n        emit Deposit(msg.sender, _pid, _amount);\n    }\n\n    // Withdraw LP tokens from MasterChef.\n    function withdraw(uint256 _pid, uint256 _amount) public {\n        PoolInfo storage pool = poolInfo[_pid];\n        UserInfo storage user = userInfo[_pid][msg.sender];\n        require(user.amount >= _amount, \"withdraw: not good\");\n        updatePool(_pid);\n        uint256 pending = user.amount.mul(pool.accFRXPerShare).div(1e12).sub(user.rewardDebt);\n        if (pending > 0) {\n            safeFrxTransfer(msg.sender, pending);\n        }\n        if (_amount > 0) {\n            user.amount = user.amount.sub(_amount);\n            pool.lpToken.safeTransfer(address(msg.sender), _amount);\n        }\n        user.rewardDebt = user.amount.mul(pool.accFRXPerShare).div(1e12);\n        emit Withdraw(msg.sender, _pid, _amount);\n    }\n\n    // Withdraw without caring about rewards. EMERGENCY ONLY.\n    function emergencyWithdraw(uint256 _pid) public {\n        PoolInfo storage pool = poolInfo[_pid];\n        UserInfo storage user = userInfo[_pid][msg.sender];\n        uint256 amount = user.amount;\n        user.amount = 0;\n        user.rewardDebt = 0;\n        pool.lpToken.safeTransfer(address(msg.sender), amount);\n        emit EmergencyWithdraw(msg.sender, _pid, amount);\n    }\n\n    // Safe frx transfer function, just in case if rounding error causes pool to not have enough FRXs.\n    function safeFrxTransfer(address _to, uint256 _amount) internal {\n        uint256 frxBal = frx.balanceOf(address(this));\n        if (_amount > frxBal) {\n            frx.transfer(_to, frxBal);\n        } else {\n            frx.transfer(_to, _amount);\n        }\n    }\n\n    // Update dev address by the previous dev.\n    function dev(address _devaddr) public {\n        require(msg.sender == devaddr, \"dev: wut?\");\n        devaddr = _devaddr;\n    }\n}\n",
  "sourcePath": "contracts/Farm/MasterChef.sol",
  "abi": [
    {
      "inputs": [
        {
          "internalType": "contract FRX",
          "name": "_frx",
          "type": "address"
        },
        {
          "internalType": "address",
          "name": "_devaddr",
          "type": "address"
        },
        {
          "internalType": "uint256",
          "name": "_frxPerBlock",
          "type": "uint256"
        },
        {
          "internalType": "uint256",
          "name": "_startBlock",
          "type": "uint256"
        },
        {
          "internalType": "uint256",
          "name": "_bonusEndBlock",
          "type": "uint256"
        }
      ],
      "stateMutability": "nonpayable",
      "type": "constructor"
    },
    {
      "anonymous": false,
      "inputs": [
        {
          "indexed": true,
          "internalType": "address",
          "name": "user",
          "type": "address"
        },
        {
          "indexed": true,
          "internalType": "uint256",
          "name": "pid",
          "type": "uint256"
        },
        {
          "indexed": false,
          "internalType": "uint256",
          "name": "amount",
          "type": "uint256"
        }
      ],
      "name": "Deposit",
      "type": "event"
    },
    {
      "anonymous": false,
      "inputs": [
        {
          "indexed": true,
          "internalType": "address",
          "name": "user",
          "type": "address"
        },
        {
          "indexed": true,
          "internalType": "uint256",
          "name": "pid",
          "type": "uint256"
        },
        {
          "indexed": false,
          "internalType": "uint256",
          "name": "amount",
          "type": "uint256"
        }
      ],
      "name": "EmergencyWithdraw",
      "type": "event"
    },
    {
      "anonymous": false,
      "inputs": [
        {
          "indexed": true,
          "internalType": "address",
          "name": "previousOwner",
          "type": "address"
        },
        {
          "indexed": true,
          "internalType": "address",
          "name": "newOwner",
          "type": "address"
        }
      ],
      "name": "OwnershipTransferred",
      "type": "event"
    },
    {
      "anonymous": false,
      "inputs": [
        {
          "indexed": true,
          "internalType": "address",
          "name": "user",
          "type": "address"
        },
        {
          "indexed": true,
          "internalType": "uint256",
          "name": "pid",
          "type": "uint256"
        },
        {
          "indexed": false,
          "internalType": "uint256",
          "name": "amount",
          "type": "uint256"
        }
      ],
      "name": "Withdraw",
      "type": "event"
    },
    {
      "inputs": [],
      "name": "BONUS_MULTIPLIER",
      "outputs": [
        {
          "internalType": "uint256",
          "name": "",
          "type": "uint256"
        }
      ],
      "stateMutability": "view",
      "type": "function"
    },
    {
      "inputs": [
        {
          "internalType": "uint256",
          "name": "_allocPoint",
          "type": "uint256"
        },
        {
          "internalType": "contract IERC20",
          "name": "_lpToken",
          "type": "address"
        },
        {
          "internalType": "bool",
          "name": "_withUpdate",
          "type": "bool"
        }
      ],
      "name": "add",
      "outputs": [],
      "stateMutability": "nonpayable",
      "type": "function"
    },
    {
      "inputs": [],
      "name": "bonusEndBlock",
      "outputs": [
        {
          "internalType": "uint256",
          "name": "",
          "type": "uint256"
        }
      ],
      "stateMutability": "view",
      "type": "function"
    },
    {
      "inputs": [
        {
          "internalType": "uint256",
          "name": "_pid",
          "type": "uint256"
        },
        {
          "internalType": "uint256",
          "name": "_amount",
          "type": "uint256"
        }
      ],
      "name": "deposit",
      "outputs": [],
      "stateMutability": "nonpayable",
      "type": "function"
    },
    {
      "inputs": [
        {
          "internalType": "address",
          "name": "_devaddr",
          "type": "address"
        }
      ],
      "name": "dev",
      "outputs": [],
      "stateMutability": "nonpayable",
      "type": "function"
    },
    {
      "inputs": [],
      "name": "devaddr",
      "outputs": [
        {
          "internalType": "address",
          "name": "",
          "type": "address"
        }
      ],
      "stateMutability": "view",
      "type": "function"
    },
    {
      "inputs": [
        {
          "internalType": "uint256",
          "name": "_pid",
          "type": "uint256"
        }
      ],
      "name": "emergencyWithdraw",
      "outputs": [],
      "stateMutability": "nonpayable",
      "type": "function"
    },
    {
      "inputs": [],
      "name": "frx",
      "outputs": [
        {
          "internalType": "contract FRX",
          "name": "",
          "type": "address"
        }
      ],
      "stateMutability": "view",
      "type": "function"
    },
    {
      "inputs": [],
      "name": "frxPerBlock",
      "outputs": [
        {
          "internalType": "uint256",
          "name": "",
          "type": "uint256"
        }
      ],
      "stateMutability": "view",
      "type": "function"
    },
    {
      "inputs": [
        {
          "internalType": "uint256",
          "name": "_from",
          "type": "uint256"
        },
        {
          "internalType": "uint256",
          "name": "_to",
          "type": "uint256"
        }
      ],
      "name": "getMultiplier",
      "outputs": [
        {
          "internalType": "uint256",
          "name": "",
          "type": "uint256"
        }
      ],
      "stateMutability": "view",
      "type": "function"
    },
    {
      "inputs": [],
      "name": "massUpdatePools",
      "outputs": [],
      "stateMutability": "nonpayable",
      "type": "function"
    },
    {
      "inputs": [
        {
          "internalType": "uint256",
          "name": "_pid",
          "type": "uint256"
        }
      ],
      "name": "migrate",
      "outputs": [],
      "stateMutability": "nonpayable",
      "type": "function"
    },
    {
      "inputs": [],
      "name": "migrator",
      "outputs": [
        {
          "internalType": "contract IMigratorChef",
          "name": "",
          "type": "address"
        }
      ],
      "stateMutability": "view",
      "type": "function"
    },
    {
      "inputs": [],
      "name": "owner",
      "outputs": [
        {
          "internalType": "address",
          "name": "",
          "type": "address"
        }
      ],
      "stateMutability": "view",
      "type": "function"
    },
    {
      "inputs": [
        {
          "internalType": "uint256",
          "name": "_pid",
          "type": "uint256"
        },
        {
          "internalType": "address",
          "name": "_user",
          "type": "address"
        }
      ],
      "name": "pendingFRX",
      "outputs": [
        {
          "internalType": "uint256",
          "name": "",
          "type": "uint256"
        }
      ],
      "stateMutability": "view",
      "type": "function"
    },
    {
      "inputs": [
        {
          "internalType": "uint256",
          "name": "",
          "type": "uint256"
        }
      ],
      "name": "poolInfo",
      "outputs": [
        {
          "internalType": "contract IERC20",
          "name": "lpToken",
          "type": "address"
        },
        {
          "internalType": "uint256",
          "name": "allocPoint",
          "type": "uint256"
        },
        {
          "internalType": "uint256",
          "name": "lastRewardBlock",
          "type": "uint256"
        },
        {
          "internalType": "uint256",
          "name": "accFRXPerShare",
          "type": "uint256"
        }
      ],
      "stateMutability": "view",
      "type": "function"
    },
    {
      "inputs": [],
      "name": "poolLength",
      "outputs": [
        {
          "internalType": "uint256",
          "name": "",
          "type": "uint256"
        }
      ],
      "stateMutability": "view",
      "type": "function"
    },
    {
      "inputs": [],
      "name": "renounceOwnership",
      "outputs": [],
      "stateMutability": "nonpayable",
      "type": "function"
    },
    {
      "inputs": [
        {
          "internalType": "uint256",
          "name": "_pid",
          "type": "uint256"
        },
        {
          "internalType": "uint256",
          "name": "_allocPoint",
          "type": "uint256"
        },
        {
          "internalType": "bool",
          "name": "_withUpdate",
          "type": "bool"
        }
      ],
      "name": "set",
      "outputs": [],
      "stateMutability": "nonpayable",
      "type": "function"
    },
    {
      "inputs": [
        {
          "internalType": "contract IMigratorChef",
          "name": "_migrator",
          "type": "address"
        }
      ],
      "name": "setMigrator",
      "outputs": [],
      "stateMutability": "nonpayable",
      "type": "function"
    },
    {
      "inputs": [],
      "name": "startBlock",
      "outputs": [
        {
          "internalType": "uint256",
          "name": "",
          "type": "uint256"
        }
      ],
      "stateMutability": "view",
      "type": "function"
    },
    {
      "inputs": [],
      "name": "totalAllocPoint",
      "outputs": [
        {
          "internalType": "uint256",
          "name": "",
          "type": "uint256"
        }
      ],
      "stateMutability": "view",
      "type": "function"
    },
    {
      "inputs": [
        {
          "internalType": "address",
          "name": "newOwner",
          "type": "address"
        }
      ],
      "name": "transferOwnership",
      "outputs": [],
      "stateMutability": "nonpayable",
      "type": "function"
    },
    {
      "inputs": [
        {
          "internalType": "uint256",
          "name": "_pid",
          "type": "uint256"
        }
      ],
      "name": "updatePool",
      "outputs": [],
      "stateMutability": "nonpayable",
      "type": "function"
    },
    {
      "inputs": [
        {
          "internalType": "uint256",
          "name": "",
          "type": "uint256"
        },
        {
          "internalType": "address",
          "name": "",
          "type": "address"
        }
      ],
      "name": "userInfo",
      "outputs": [
        {
          "internalType": "uint256",
          "name": "amount",
          "type": "uint256"
        },
        {
          "internalType": "uint256",
          "name": "rewardDebt",
          "type": "uint256"
        }
      ],
      "stateMutability": "view",
      "type": "function"
    },
    {
      "inputs": [
        {
          "internalType": "uint256",
          "name": "_pid",
          "type": "uint256"
        },
        {
          "internalType": "uint256",
          "name": "_amount",
          "type": "uint256"
        }
      ],
      "name": "withdraw",
      "outputs": [],
      "stateMutability": "nonpayable",
      "type": "function"
    }
  ],
  "bytecode": "0x6080604052600060085534801561001557600080fd5b50604051611c74380380611c74833981810160405260a081101561003857600080fd5b5080516020820151604083015160608401516080909401519293919290919060006100616100e9565b600080546001600160a01b0319166001600160a01b0383169081178255604051929350917f8be0079c531659141344cd1fd0a4f28419497f9722a3daafe3b4186f6b6457e0908290a350600180546001600160a01b039687166001600160a01b03199182161790915560028054959096169416939093179093556004556003556009556100ed565b3390565b611b78806100fc6000396000f3fe608060405234801561001057600080fd5b506004361061013e5760003560e01c8063081e3eda146101435780631526fe271461015d57806317caf6f1146101aa5780631aed6553146101b25780631eaaa045146101ba57806323cf3118146101f05780633908874e14610216578063441a3e7014610242578063454b06081461026557806348cd4cb1146102825780634d9f7d601461028a57806351eb05a6146102925780635312ea8e146102af578063630b5ba1146102cc57806364482f79146102d4578063715018a6146102ff5780637cd07e47146103075780638aa285501461032b5780638d88a90e146103335780638da5cb5b146103595780638dbb1e3a1461036157806393f1a40b14610384578063995073e7146103c9578063d49e77cd146103d1578063e2bbb158146103d9578063f2fde38b146103fc575b600080fd5b61014b610422565b60408051918252519081900360200190f35b61017a6004803603602081101561017357600080fd5b5035610428565b604080516001600160a01b0390951685526020850193909352838301919091526060830152519081900360800190f35b61014b610469565b61014b61046f565b6101ee600480360360608110156101d057600080fd5b508035906001600160a01b0360208201351690604001351515610475565b005b6101ee6004803603602081101561020657600080fd5b50356001600160a01b03166105f0565b61014b6004803603604081101561022c57600080fd5b50803590602001356001600160a01b031661066a565b6101ee6004803603604081101561025857600080fd5b50803590602001356107e0565b6101ee6004803603602081101561027b57600080fd5b5035610933565b61014b610b8f565b61014b610b95565b6101ee600480360360208110156102a857600080fd5b5035610b9b565b6101ee600480360360208110156102c557600080fd5b5035610cc5565b6101ee610d61565b6101ee600480360360608110156102ea57600080fd5b50803590602081013590604001351515610d84565b6101ee610e55565b61030f610ee5565b604080516001600160a01b039092168252519081900360200190f35b61014b610ef4565b6101ee6004803603602081101561034957600080fd5b50356001600160a01b0316610ef9565b61030f610f66565b61014b6004803603604081101561037757600080fd5b5080359060200135610f75565b6103b06004803603604081101561039a57600080fd5b50803590602001356001600160a01b0316610fdb565b6040805192835260208301919091528051918290030190f35b61030f610fff565b61030f61100e565b6101ee600480360360408110156103ef57600080fd5b508035906020013561101d565b6101ee6004803603602081101561041257600080fd5b50356001600160a01b031661112f565b60065490565b6006818154811061043557fe5b600091825260209091206004909102018054600182015460028301546003909301546001600160a01b039092169350919084565b60085481565b60035481565b61047d611215565b6000546001600160a01b039081169116146104cd576040805162461bcd60e51b81526020600482018190526024820152600080516020611aa3833981519152604482015290519081900360640190fd5b80156104db576104db610d61565b600060095443116104ee576009546104f0565b435b6008549091506105009085611219565b600855604080516080810182526001600160a01b0394851681526020810195865290810191825260006060820181815260068054600181018255925291517ff652222313e28459528d920b65115c16c04f3efc82aaedc97be59f3f377c0d3f600490920291820180546001600160a01b031916919096161790945593517ff652222313e28459528d920b65115c16c04f3efc82aaedc97be59f3f377c0d40840155517ff652222313e28459528d920b65115c16c04f3efc82aaedc97be59f3f377c0d418301555090517ff652222313e28459528d920b65115c16c04f3efc82aaedc97be59f3f377c0d4290910155565b6105f8611215565b6000546001600160a01b03908116911614610648576040805162461bcd60e51b81526020600482018190526024820152600080516020611aa3833981519152604482015290519081900360640190fd5b600580546001600160a01b0319166001600160a01b0392909216919091179055565b6000806006848154811061067a57fe5b600091825260208083208784526007825260408085206001600160a01b03898116875290845281862060049586029093016003810154815484516370a0823160e01b81523098810198909852935191985093969395939492909116926370a08231926024808301939192829003018186803b1580156106f857600080fd5b505afa15801561070c573d6000803e3d6000fd5b505050506040513d602081101561072257600080fd5b505160028501549091504311801561073957508015155b156107a557600061074e856002015443610f75565b9050600061078160085461077b88600101546107756004548761127890919063ffffffff16565b90611278565b906112d1565b90506107a06107998461077b8464e8d4a51000611278565b8590611219565b935050505b6107d383600101546107cd64e8d4a5100061077b86886000015461127890919063ffffffff16565b90611310565b9450505050505b92915050565b6000600683815481106107ef57fe5b600091825260208083208684526007825260408085203386529092529220805460049092029092019250831115610862576040805162461bcd60e51b81526020600482015260126024820152711dda5d1a191c985dce881b9bdd0819dbdbd960721b604482015290519081900360640190fd5b61086b84610b9b565b600061089982600101546107cd64e8d4a5100061077b8760030154876000015461127890919063ffffffff16565b905080156108ab576108ab3382611352565b83156108d55781546108bd9085611310565b825582546108d5906001600160a01b031633866114e3565b600383015482546108f09164e8d4a510009161077b91611278565b6001830155604080518581529051869133917ff279e6a1f5e320cca91135676d9cb6e44ca8a08c0b88342bcdb1144f6511b5689181900360200190a35050505050565b6005546001600160a01b0316610987576040805162461bcd60e51b815260206004820152601460248201527336b4b3b930ba329d1037379036b4b3b930ba37b960611b604482015290519081900360640190fd5b60006006828154811061099657fe5b600091825260208083206004928302018054604080516370a0823160e01b81523095810195909552519195506001600160a01b0316939284926370a0823192602480840193829003018186803b1580156109ef57600080fd5b505afa158015610a03573d6000803e3d6000fd5b505050506040513d6020811015610a1957600080fd5b5051600554909150610a38906001600160a01b03848116911683611535565b6005546040805163ce5494bb60e01b81526001600160a01b0385811660048301529151600093929092169163ce5494bb9160248082019260209290919082900301818787803b158015610a8a57600080fd5b505af1158015610a9e573d6000803e3d6000fd5b505050506040513d6020811015610ab457600080fd5b5051604080516370a0823160e01b815230600482015290519192506001600160a01b038316916370a0823191602480820192602092909190829003018186803b158015610b0057600080fd5b505afa158015610b14573d6000803e3d6000fd5b505050506040513d6020811015610b2a57600080fd5b50518214610b6e576040805162461bcd60e51b815260206004820152600c60248201526b1b5a59dc985d194e8818985960a21b604482015290519081900360640190fd5b83546001600160a01b0319166001600160a01b039190911617909255505050565b60095481565b60045481565b600060068281548110610baa57fe5b9060005260206000209060040201905080600201544311610bcb5750610cc2565b8054604080516370a0823160e01b815230600482015290516000926001600160a01b0316916370a08231916024808301926020929190829003018186803b158015610c1557600080fd5b505afa158015610c29573d6000803e3d6000fd5b505050506040513d6020811015610c3f57600080fd5b5051905080610c55575043600290910155610cc2565b6000610c65836002015443610f75565b90506000610c8c60085461077b86600101546107756004548761127890919063ffffffff16565b9050610caf610ca48461077b8464e8d4a51000611278565b600386015490611219565b6003850155505043600290920191909155505b50565b600060068281548110610cd457fe5b600091825260208083208584526007825260408085203380875293528420805485825560018201959095556004909302018054909450919291610d24916001600160a01b039190911690836114e3565b604080518281529051859133917fbb757047c2b5f3974fe26b7c10f732e7bce710b0952a71082702781e62ae05959181900360200190a350505050565b60065460005b81811015610d8057610d7881610b9b565b600101610d67565b5050565b610d8c611215565b6000546001600160a01b03908116911614610ddc576040805162461bcd60e51b81526020600482018190526024820152600080516020611aa3833981519152604482015290519081900360640190fd5b8015610dea57610dea610d61565b610e2782610e2160068681548110610dfe57fe5b90600052602060002090600402016001015460085461131090919063ffffffff16565b90611219565b6008819055508160068481548110610e3b57fe5b906000526020600020906004020160010181905550505050565b610e5d611215565b6000546001600160a01b03908116911614610ead576040805162461bcd60e51b81526020600482018190526024820152600080516020611aa3833981519152604482015290519081900360640190fd5b600080546040516001600160a01b0390911690600080516020611ac3833981519152908390a3600080546001600160a01b0319169055565b6005546001600160a01b031681565b600a81565b6002546001600160a01b03163314610f44576040805162461bcd60e51b81526020600482015260096024820152686465763a207775743f60b81b604482015290519081900360640190fd5b600280546001600160a01b0319166001600160a01b0392909216919091179055565b6000546001600160a01b031690565b60006003548211610f9657610f8f600a6107758486611310565b90506107da565b6003548310610fa957610f8f8284611310565b610f8f610fc16003548461131090919063ffffffff16565b610e21600a6107758760035461131090919063ffffffff16565b60076020908152600092835260408084209091529082529020805460019091015482565b6001546001600160a01b031681565b6002546001600160a01b031681565b60006006838154811061102c57fe5b6000918252602080832086845260078252604080852033865290925292206004909102909101915061105d84610b9b565b8054156110a657600061109282600101546107cd64e8d4a5100061077b8760030154876000015461127890919063ffffffff16565b905080156110a4576110a43382611352565b505b82156110d25781546110c3906001600160a01b0316333086611648565b80546110cf9084611219565b81555b600382015481546110ed9164e8d4a510009161077b91611278565b6001820155604080518481529051859133917f90890809c654f11d6e72a28fa60149770a0d11ec6c92319d6ceb2bb0a4ea1a159181900360200190a350505050565b611137611215565b6000546001600160a01b03908116911614611187576040805162461bcd60e51b81526020600482018190526024820152600080516020611aa3833981519152604482015290519081900360640190fd5b6001600160a01b0381166111cc5760405162461bcd60e51b8152600401808060200182810382526026815260200180611a366026913960400191505060405180910390fd5b600080546040516001600160a01b0380851693921691600080516020611ac383398151915291a3600080546001600160a01b0319166001600160a01b0392909216919091179055565b3390565b600082820183811015611271576040805162461bcd60e51b815260206004820152601b60248201527a536166654d6174683a206164646974696f6e206f766572666c6f7760281b604482015290519081900360640190fd5b9392505050565b600082611287575060006107da565b8282028284828161129457fe5b04146112715760405162461bcd60e51b8152600401808060200182810382526021815260200180611a826021913960400191505060405180910390fd5b600061127183836040518060400160405280601a815260200179536166654d6174683a206469766973696f6e206279207a65726f60301b8152506116a8565b600061127183836040518060400160405280601e81526020017f536166654d6174683a207375627472616374696f6e206f766572666c6f77000081525061174a565b600154604080516370a0823160e01b815230600482015290516000926001600160a01b0316916370a08231916024808301926020929190829003018186803b15801561139d57600080fd5b505afa1580156113b1573d6000803e3d6000fd5b505050506040513d60208110156113c757600080fd5b505190508082111561145b576001546040805163a9059cbb60e01b81526001600160a01b038681166004830152602482018590529151919092169163a9059cbb9160448083019260209291908290030181600087803b15801561142957600080fd5b505af115801561143d573d6000803e3d6000fd5b505050506040513d602081101561145357600080fd5b506114de9050565b6001546040805163a9059cbb60e01b81526001600160a01b038681166004830152602482018690529151919092169163a9059cbb9160448083019260209291908290030181600087803b1580156114b157600080fd5b505af11580156114c5573d6000803e3d6000fd5b505050506040513d60208110156114db57600080fd5b50505b505050565b604080516001600160a01b038416602482015260448082018490528251808303909101815260649091019091526020810180516001600160e01b031663a9059cbb60e01b1790526114de9084906117a4565b8015806115bb575060408051636eb1769f60e11b81523060048201526001600160a01b03848116602483015291519185169163dd62ed3e91604480820192602092909190829003018186803b15801561158d57600080fd5b505afa1580156115a1573d6000803e3d6000fd5b505050506040513d60208110156115b757600080fd5b5051155b6115f65760405162461bcd60e51b8152600401808060200182810382526036815260200180611b0d6036913960400191505060405180910390fd5b604080516001600160a01b038416602482015260448082018490528251808303909101815260649091019091526020810180516001600160e01b031663095ea7b360e01b1790526114de9084906117a4565b604080516001600160a01b0380861660248301528416604482015260648082018490528251808303909101815260849091019091526020810180516001600160e01b03166323b872dd60e01b1790526116a29085906117a4565b50505050565b600081836117345760405162461bcd60e51b81526004018080602001828103825283818151815260200191508051906020019080838360005b838110156116f95781810151838201526020016116e1565b50505050905090810190601f1680156117265780820380516001836020036101000a031916815260200191505b509250505060405180910390fd5b50600083858161174057fe5b0495945050505050565b6000818484111561179c5760405162461bcd60e51b81526020600482018181528351602484015283519092839260449091019190850190808383600083156116f95781810151838201526020016116e1565b505050900390565b60606117f9826040518060400160405280602081526020017f5361666545524332303a206c6f772d6c6576656c2063616c6c206661696c6564815250856001600160a01b03166118559092919063ffffffff16565b8051909150156114de5780806020019051602081101561181857600080fd5b50516114de5760405162461bcd60e51b815260040180806020018281038252602a815260200180611ae3602a913960400191505060405180910390fd5b6060611864848460008561186c565b949350505050565b606030318311156118ae5760405162461bcd60e51b8152600401808060200182810382526026815260200180611a5c6026913960400191505060405180910390fd5b6118b7856119c9565b611908576040805162461bcd60e51b815260206004820152601d60248201527f416464726573733a2063616c6c20746f206e6f6e2d636f6e7472616374000000604482015290519081900360640190fd5b60006060866001600160a01b031685876040518082805190602001908083835b602083106119475780518252601f199092019160209182019101611928565b6001836020036101000a03801982511681845116808217855250505050505090500191505060006040518083038185875af1925050503d80600081146119a9576040519150601f19603f3d011682016040523d82523d6000602084013e6119ae565b606091505b50915091506119be8282866119cf565b979650505050505050565b3b151590565b606083156119de575081611271565b8251156119ee5782518084602001fd5b60405162461bcd60e51b81526020600482018181528451602484015284518593919283926044019190850190808383600083156116f95781810151838201526020016116e156fe4f776e61626c653a206e6577206f776e657220697320746865207a65726f2061646472657373416464726573733a20696e73756666696369656e742062616c616e636520666f722063616c6c536166654d6174683a206d756c7469706c69636174696f6e206f766572666c6f774f776e61626c653a2063616c6c6572206973206e6f7420746865206f776e65728be0079c531659141344cd1fd0a4f28419497f9722a3daafe3b4186f6b6457e05361666545524332303a204552433230206f7065726174696f6e20646964206e6f7420737563636565645361666545524332303a20617070726f76652066726f6d206e6f6e2d7a65726f20746f206e6f6e2d7a65726f20616c6c6f77616e6365a264697066735822122020d9ae715608b22301e8299860e87470d22cb05a872b7ddf63909dbb0ec24fb364736f6c634300060c0033",
  "compiler": {
    "name": "solc",
    "version": "0.6.12+commit.27d51765.Emscripten.clang",
    "optimizer": {
      "enabled": true,
      "runs": 1
    },
    "evmVersion": "petersburg"
  }
}