{
  "fileName": "PercentageCalculator.sol",
  "contractName": "PercentageCalculator",
  "source": "// SPDX-License-Identifier: MIT\npragma solidity ^0.6.12;\n\nimport \"@openzeppelin/contracts/math/SafeMath.sol\";\n\n\ncontract PercentageCalculator {\n    using SafeMath for uint;\n\n    uint public constant PERCENT_MULTIPLIER = 10000;\n\n    function _calcPercentage(uint amount, uint basisPoints) internal pure returns (uint) {\n        require(basisPoints >= 0);\n        return amount.mul(basisPoints).div(PERCENT_MULTIPLIER);\n    }\n\n    function _calcBasisPoints(uint base, uint interest) internal pure returns (uint) {\n        return interest.mul(PERCENT_MULTIPLIER).div(base);\n    }\n}\n",
  "sourcePath": "contracts/PercentageCalculator.sol",
  "abi": [
    {
      "inputs": [],
      "name": "PERCENT_MULTIPLIER",
      "outputs": [
        {
          "internalType": "uint256",
          "name": "",
          "type": "uint256"
        }
      ],
      "stateMutability": "view",
      "type": "function"
    }
  ],
  "bytecode": "0x6080604052348015600f57600080fd5b5060818061001e6000396000f3fe6080604052348015600f57600080fd5b506004361060285760003560e01c806363b815fa14602d575b600080fd5b60336045565b60408051918252519081900360200190f35b6127108156fea26469706673582212205690514306c5a69a89648c9f31f9349a85d9417751d7ac963565c7f29e760b8664736f6c634300060c0033",
  "compiler": {
    "name": "solc",
    "version": "0.6.12+commit.27d51765.Emscripten.clang",
    "optimizer": {
      "enabled": true,
      "runs": 1
    },
    "evmVersion": "petersburg"
  }
}