{
  "fileName": "Pools.sol",
  "contractName": "Pools",
  "source": "// SPDX-License-Identifier: MIT\npragma solidity ^0.6.12;\n\nimport \"./SharedVariables.sol\";\n\n\ncontract Pools is SharedVariables {\n\n    function _resetPools() internal {\n        for (uint i = 0; i < refPoolBonuses.length; i++) {\n            refPoolUsers[i].user = address(0);\n            refPoolUsers[i].stakeId = 0;\n        }\n\n        for (uint i = 0; i < sponsorPoolBonuses.length; i++) {\n            sponsorPoolUsers[i].user = address(0);\n            refPoolUsers[i].stakeId = 0;\n        }\n\n        refPoolBalance = 0;\n        sponsorPoolBalance = 0;\n        poolDrewAt = block.timestamp;\n    }\n\n    function _updateSponsorPoolUsers(User memory user, Stake memory stake) internal {\n        if (\n            sponsorPoolUsers[sponsorPoolUsers.length.sub(1)].user == address(0) ||\n            stake.sponsorPool.amount > users[sponsorPoolUsers[sponsorPoolUsers.length.sub(1)].user].stakes[sponsorPoolUsers[sponsorPoolUsers.length.sub(1)].stakeId].sponsorPool.amount\n        ) { // either last user is not set or last user's sponsor balance is less then this user\n\n            PoolUser memory shiftUser;\n\n            for (uint i = 0; i < sponsorPoolUsers.length; i++) {\n\n                if (sponsorPoolUsers[i].user == address(0)) {\n                    sponsorPoolUsers[i].user = user.wallet;\n                    sponsorPoolUsers[i].stakeId = stake.id;\n                    break;\n                }\n\n                if (stake.sponsorPool.amount > users[sponsorPoolUsers[i].user].stakes[sponsorPoolUsers[i].stakeId].sponsorPool.amount) {\n                    shiftUser = sponsorPoolUsers[i];\n                    sponsorPoolUsers[i].user = user.wallet;\n                    sponsorPoolUsers[i].stakeId = stake.id;\n                    PoolUser memory nextUser;\n                    for (uint j = i; i < sponsorPoolUsers.length; j++) {\n\n                        if (shiftUser.user == address(0)) {\n                            break;\n                        }\n\n                        nextUser = sponsorPoolUsers[j];\n                        sponsorPoolUsers[j] = shiftUser;\n                        shiftUser = nextUser;\n                    }\n//                    _shiftPool(i, shiftUser, sponsorPoolUsers);\n                    break;\n                }\n            }\n        }\n    }\n\n    // Reorganise top ref-pool users to draw pool for\n    function _updateRefPoolUsers(User memory user, Stake memory stake) internal {\n        if (\n            refPoolUsers[refPoolUsers.length - 1].user == address(0) ||\n            stake.refPool.amount > users[refPoolUsers[refPoolUsers.length - 1].user].stakes[refPoolUsers[refPoolUsers.length - 1].stakeId].refPool.amount\n        ) { // either last user is not set or last user's ref balance is less then this user\n\n            PoolUser memory shiftUser;\n\n            for (uint i = 0; i < refPoolUsers.length; i++) {\n\n                if (refPoolUsers[i].user == address(0)) {\n                    refPoolUsers[i].user = user.wallet;\n                    refPoolUsers[i].stakeId = stake.id;\n                    break;\n                }\n\n                if (stake.refPool.amount > users[refPoolUsers[i].user].stakes[refPoolUsers[i].stakeId].refPool.amount) {\n                    shiftUser = refPoolUsers[i];\n                    refPoolUsers[i].user = user.wallet;\n                    refPoolUsers[i].stakeId = stake.id;\n                    PoolUser memory nextUser;\n                    for (uint j = i; i < refPoolUsers.length; j++) {\n\n                        if (shiftUser.user == address(0)) {\n                            break;\n                        }\n\n                        nextUser = refPoolUsers[j];\n                        refPoolUsers[j] = shiftUser;\n                        shiftUser = nextUser;\n                    }\n//                    _shiftPool(i, shiftUser, refPoolUsers);\n                    break;\n                }\n            }\n        }\n    }\n\n    function drawPool() public {\n        if (block.timestamp > poolDrewAt + 1 days) {\n            for (uint i = 0; i < refPoolUsers.length; i++) {\n                if (refPoolUsers[i].user == address(0)) break;\n\n                User storage user = users[refPoolUsers[i].user];\n                user.stakes[refPoolUsers[i].stakeId].refPoolRewards = user.stakes[refPoolUsers[i].stakeId].refPoolRewards.add(_calcPercentage(refPoolBalance, refPoolBonuses[i]));\n            }\n\n            for (uint i = 0; i < sponsorPoolUsers.length; i++) {\n                if (sponsorPoolUsers[i].user == address(0)) break;\n\n                User storage user = users[sponsorPoolUsers[i].user];\n                user.stakes[sponsorPoolUsers[i].stakeId].sponsorPoolRewards = user.stakes[sponsorPoolUsers[i].stakeId].sponsorPoolRewards.add(_calcPercentage(sponsorPoolBalance, sponsorPoolBonuses[i]));\n            }\n\n            emit PoolDrawn(refPoolBalance, sponsorPoolBalance);\n\n            _resetPools();\n        }\n    }\n}\n",
  "sourcePath": "contracts/Pools.sol",
  "abi": [
    {
      "anonymous": false,
      "inputs": [
        {
          "indexed": false,
          "internalType": "address",
          "name": "user",
          "type": "address"
        },
        {
          "indexed": false,
          "internalType": "uint256",
          "name": "amount",
          "type": "uint256"
        },
        {
          "indexed": false,
          "internalType": "address",
          "name": "uplinkAddress",
          "type": "address"
        },
        {
          "indexed": false,
          "internalType": "uint256",
          "name": "uplinkStakeId",
          "type": "uint256"
        }
      ],
      "name": "Deposit",
      "type": "event"
    },
    {
      "anonymous": false,
      "inputs": [
        {
          "indexed": false,
          "internalType": "address",
          "name": "user",
          "type": "address"
        },
        {
          "indexed": false,
          "internalType": "uint256",
          "name": "stakeId",
          "type": "uint256"
        },
        {
          "indexed": false,
          "internalType": "uint256",
          "name": "amount",
          "type": "uint256"
        }
      ],
      "name": "Exited",
      "type": "event"
    },
    {
      "anonymous": false,
      "inputs": [
        {
          "indexed": false,
          "internalType": "uint256",
          "name": "refPoolAmount",
          "type": "uint256"
        },
        {
          "indexed": false,
          "internalType": "uint256",
          "name": "sponsirPoolAmount",
          "type": "uint256"
        }
      ],
      "name": "PoolDrawn",
      "type": "event"
    },
    {
      "anonymous": false,
      "inputs": [
        {
          "indexed": false,
          "internalType": "address",
          "name": "user",
          "type": "address"
        },
        {
          "indexed": false,
          "internalType": "uint256",
          "name": "amount",
          "type": "uint256"
        }
      ],
      "name": "ReInvest",
      "type": "event"
    },
    {
      "anonymous": false,
      "inputs": [
        {
          "indexed": false,
          "internalType": "address",
          "name": "user",
          "type": "address"
        },
        {
          "indexed": false,
          "internalType": "uint256",
          "name": "amount",
          "type": "uint256"
        }
      ],
      "name": "Withdrawn",
      "type": "event"
    },
    {
      "inputs": [],
      "name": "CONTRACT_BONUS_PER_UNIT_BP",
      "outputs": [
        {
          "internalType": "uint256",
          "name": "",
          "type": "uint256"
        }
      ],
      "stateMutability": "view",
      "type": "function"
    },
    {
      "inputs": [],
      "name": "CONTRACT_BONUS_UNIT",
      "outputs": [
        {
          "internalType": "uint256",
          "name": "",
          "type": "uint256"
        }
      ],
      "stateMutability": "view",
      "type": "function"
    },
    {
      "inputs": [],
      "name": "DAY",
      "outputs": [
        {
          "internalType": "uint256",
          "name": "",
          "type": "uint256"
        }
      ],
      "stateMutability": "view",
      "type": "function"
    },
    {
      "inputs": [],
      "name": "DEV_FEE_BP",
      "outputs": [
        {
          "internalType": "uint256",
          "name": "",
          "type": "uint256"
        }
      ],
      "stateMutability": "view",
      "type": "function"
    },
    {
      "inputs": [],
      "name": "EXIT_PENALTY_BP",
      "outputs": [
        {
          "internalType": "uint256",
          "name": "",
          "type": "uint256"
        }
      ],
      "stateMutability": "view",
      "type": "function"
    },
    {
      "inputs": [],
      "name": "HOLD_BONUS_PER_UNIT_BP",
      "outputs": [
        {
          "internalType": "uint256",
          "name": "",
          "type": "uint256"
        }
      ],
      "stateMutability": "view",
      "type": "function"
    },
    {
      "inputs": [],
      "name": "HOLD_BONUS_UNIT",
      "outputs": [
        {
          "internalType": "uint256",
          "name": "",
          "type": "uint256"
        }
      ],
      "stateMutability": "view",
      "type": "function"
    },
    {
      "inputs": [],
      "name": "LP_FEE_BP",
      "outputs": [
        {
          "internalType": "uint256",
          "name": "",
          "type": "uint256"
        }
      ],
      "stateMutability": "view",
      "type": "function"
    },
    {
      "inputs": [],
      "name": "MAX_CONTRACT_BONUS_BP",
      "outputs": [
        {
          "internalType": "uint256",
          "name": "",
          "type": "uint256"
        }
      ],
      "stateMutability": "view",
      "type": "function"
    },
    {
      "inputs": [],
      "name": "MAX_CONTRACT_REWARD_BP",
      "outputs": [
        {
          "internalType": "uint256",
          "name": "",
          "type": "uint256"
        }
      ],
      "stateMutability": "view",
      "type": "function"
    },
    {
      "inputs": [],
      "name": "MAX_HOLD_BONUS_BP",
      "outputs": [
        {
          "internalType": "uint256",
          "name": "",
          "type": "uint256"
        }
      ],
      "stateMutability": "view",
      "type": "function"
    },
    {
      "inputs": [],
      "name": "MAX_WITHDRAWAL_OVER_REWARD_THRESHOLD_BP",
      "outputs": [
        {
          "internalType": "uint256",
          "name": "",
          "type": "uint256"
        }
      ],
      "stateMutability": "view",
      "type": "function"
    },
    {
      "inputs": [],
      "name": "PERCENT_MULTIPLIER",
      "outputs": [
        {
          "internalType": "uint256",
          "name": "",
          "type": "uint256"
        }
      ],
      "stateMutability": "view",
      "type": "function"
    },
    {
      "inputs": [],
      "name": "REF_COMMISSION_BP",
      "outputs": [
        {
          "internalType": "uint256",
          "name": "",
          "type": "uint256"
        }
      ],
      "stateMutability": "view",
      "type": "function"
    },
    {
      "inputs": [],
      "name": "REF_POOL_FEE_BP",
      "outputs": [
        {
          "internalType": "uint256",
          "name": "",
          "type": "uint256"
        }
      ],
      "stateMutability": "view",
      "type": "function"
    },
    {
      "inputs": [],
      "name": "REWARD_THRESHOLD_BP",
      "outputs": [
        {
          "internalType": "uint256",
          "name": "",
          "type": "uint256"
        }
      ],
      "stateMutability": "view",
      "type": "function"
    },
    {
      "inputs": [],
      "name": "SPONSOR_POOL_FEE_BP",
      "outputs": [
        {
          "internalType": "uint256",
          "name": "",
          "type": "uint256"
        }
      ],
      "stateMutability": "view",
      "type": "function"
    },
    {
      "inputs": [],
      "name": "devAddress",
      "outputs": [
        {
          "internalType": "address",
          "name": "",
          "type": "address"
        }
      ],
      "stateMutability": "view",
      "type": "function"
    },
    {
      "inputs": [],
      "name": "drawPool",
      "outputs": [],
      "stateMutability": "nonpayable",
      "type": "function"
    },
    {
      "inputs": [],
      "name": "fourRXToken",
      "outputs": [
        {
          "internalType": "contract IERC20",
          "name": "",
          "type": "address"
        }
      ],
      "stateMutability": "view",
      "type": "function"
    },
    {
      "inputs": [],
      "name": "maxContractBalance",
      "outputs": [
        {
          "internalType": "uint256",
          "name": "",
          "type": "uint256"
        }
      ],
      "stateMutability": "view",
      "type": "function"
    },
    {
      "inputs": [],
      "name": "poolCycle",
      "outputs": [
        {
          "internalType": "uint256",
          "name": "",
          "type": "uint256"
        }
      ],
      "stateMutability": "view",
      "type": "function"
    },
    {
      "inputs": [],
      "name": "poolDrewAt",
      "outputs": [
        {
          "internalType": "uint256",
          "name": "",
          "type": "uint256"
        }
      ],
      "stateMutability": "view",
      "type": "function"
    },
    {
      "inputs": [],
      "name": "refPoolBalance",
      "outputs": [
        {
          "internalType": "uint256",
          "name": "",
          "type": "uint256"
        }
      ],
      "stateMutability": "view",
      "type": "function"
    },
    {
      "inputs": [
        {
          "internalType": "uint256",
          "name": "",
          "type": "uint256"
        }
      ],
      "name": "refPoolBonuses",
      "outputs": [
        {
          "internalType": "uint256",
          "name": "",
          "type": "uint256"
        }
      ],
      "stateMutability": "view",
      "type": "function"
    },
    {
      "inputs": [
        {
          "internalType": "uint256",
          "name": "",
          "type": "uint256"
        }
      ],
      "name": "refPoolUsers",
      "outputs": [
        {
          "internalType": "address",
          "name": "user",
          "type": "address"
        },
        {
          "internalType": "uint256",
          "name": "stakeId",
          "type": "uint256"
        }
      ],
      "stateMutability": "view",
      "type": "function"
    },
    {
      "inputs": [],
      "name": "sponsorPoolBalance",
      "outputs": [
        {
          "internalType": "uint256",
          "name": "",
          "type": "uint256"
        }
      ],
      "stateMutability": "view",
      "type": "function"
    },
    {
      "inputs": [
        {
          "internalType": "uint256",
          "name": "",
          "type": "uint256"
        }
      ],
      "name": "sponsorPoolBonuses",
      "outputs": [
        {
          "internalType": "uint256",
          "name": "",
          "type": "uint256"
        }
      ],
      "stateMutability": "view",
      "type": "function"
    },
    {
      "inputs": [
        {
          "internalType": "uint256",
          "name": "",
          "type": "uint256"
        }
      ],
      "name": "sponsorPoolUsers",
      "outputs": [
        {
          "internalType": "address",
          "name": "user",
          "type": "address"
        },
        {
          "internalType": "uint256",
          "name": "stakeId",
          "type": "uint256"
        }
      ],
      "stateMutability": "view",
      "type": "function"
    },
    {
      "inputs": [],
      "name": "totalDepositRewards",
      "outputs": [
        {
          "internalType": "uint256",
          "name": "",
          "type": "uint256"
        }
      ],
      "stateMutability": "view",
      "type": "function"
    },
    {
      "inputs": [],
      "name": "totalExited",
      "outputs": [
        {
          "internalType": "uint256",
          "name": "",
          "type": "uint256"
        }
      ],
      "stateMutability": "view",
      "type": "function"
    },
    {
      "inputs": [
        {
          "internalType": "address",
          "name": "",
          "type": "address"
        }
      ],
      "name": "users",
      "outputs": [
        {
          "internalType": "address",
          "name": "wallet",
          "type": "address"
        }
      ],
      "stateMutability": "view",
      "type": "function"
    }
  ],
  "bytecode": "0x6080604052600380546001600160a01b0319167364b8cb4c04ba902010856d913b4e5df940748bf217905534801561003657600080fd5b506109a0806100466000396000f3fe608060405234801561001057600080fd5b50600436106101805760003560e01c806303162d2c146101855780630781235a1461019f5780630ac39f72146101a75780630f9fa6aa1461019f57806312dd5fe41461019f57806327cfe856146101af5780633ad10ef6146101b75780633df936c9146101db578063498dc5b5146101e357806363b815fa146101eb57806365fcb49e146101f357806369da94d8146101fb5780637247b2b91461020357806391994b2c1461020b5780639b6eec7d146102135780639c236aa81461021b578063a00d49801461025b578063a13a801a14610263578063a87430ba1461026b578063a9122af714610291578063aaf1a0da14610263578063b963ddb414610299578063cabea10d146102a1578063d5766ebd146102a9578063d82daec7146102c6578063d902f40c146102ce578063df5a75ef146102d6578063e5231411146102f3578063e7204ffb146102fb578063ed56f6a114610305578063f48e595a14610322578063fd0b82521461032a575b600080fd5b61018d610332565b60408051918252519081900360200190f35b61018d610338565b61018d61033e565b61018d610343565b6101bf61034a565b604080516001600160a01b039092168252519081900360200190f35b61018d610359565b61018d61035f565b61018d610365565b61018d61036b565b61018d610371565b61018d610377565b61018d61037d565b61018d610383565b6102386004803603602081101561023157600080fd5b5035610389565b604080516001600160a01b03909316835260208301919091528051918290030190f35b61018d6103b2565b61018d6103b7565b6101bf6004803603602081101561028157600080fd5b50356001600160a01b03166103bc565b6101bf6103d7565b61018d6103e6565b61018d6103ec565b61018d600480360360208110156102bf57600080fd5b50356103f2565b61018d610410565b61018d610416565b61018d600480360360208110156102ec57600080fd5b503561041b565b61018d610428565b61030361042d565b005b6102386004803603602081101561031b57600080fd5b50356106a7565b61018d6106b4565b61018d6106b9565b61a8c081565b61012c81565b600281565b6201518081565b6003546001600160a01b031681565b60375481565b61138881565b61271081565b60335481565b61924f81565b60005481565b60015481565b6101f481565b601d81600a811061039657fe5b6002020180546001909101546001600160a01b03909116915082565b600581565b603281565b6004602052600090815260409020546001600160a01b031681565b6002546001600160a01b031681565b61032081565b60345481565b603181815481106103ff57fe5b600091825260209091200154905081565b60365481565b600181565b603281815481106103ff57fe5b606481565b60355462015180014211156106a55760005b600c811015610552576000600582600c811061045757fe5b60020201546001600160a01b0316141561047057610552565b600060046000600584600c811061048357fe5b60020201546001600160a01b03168152602081019190915260400160002060365460318054929350610512926104cf929190869081106104bf57fe5b90600052602060002001546106bf565b82600101600585600c81106104e057fe5b6002020160010154815481106104f257fe5b9060005260206000209060110201600701546106e090919063ffffffff16565b81600101600584600c811061052357fe5b60020201600101548154811061053557fe5b60009182526020909120600760119092020101555060010161043f565b5060005b600a811015610659576000601d82600a811061056e57fe5b60020201546001600160a01b0316141561058757610659565b600060046000601d84600a811061059a57fe5b60020201546001600160a01b03168152602081019190915260400160002060375460328054929350610619926105d6929190869081106104bf57fe5b82600101601d85600a81106105e757fe5b6002020160010154815481106105f957fe5b9060005260206000209060110201600801546106e090919063ffffffff16565b81600101601d84600a811061062a57fe5b60020201600101548154811061063c57fe5b600091825260209091206008601190920201015550600101610556565b507f505fb5b242804521f868b1210d5697cefabaa21c3f697207aa5c02dc549116e2603654603754604051808381526020018281526020019250505060405180910390a16106a5610738565b565b600581600c811061039657fe5b60fa81565b60355481565b60006106d76127106106d18585610814565b9061086d565b90505b92915050565b6000828201838110156106d7576040805162461bcd60e51b815260206004820152601b60248201527a536166654d6174683a206164646974696f6e206f766572666c6f7760281b604482015290519081900360640190fd5b60005b60315481101561079d576000600582600c811061075457fe5b6002020180546001600160a01b0319166001600160a01b03929092169190911790556000600582600c811061078557fe5b6002020160010181905550808060010191505061073b565b5060005b603254811015610803576000601d82600a81106107ba57fe5b6002020180546001600160a01b0319166001600160a01b03929092169190911790556000600582600c81106107eb57fe5b600202016001018190555080806001019150506107a1565b506000603681905560375542603555565b600082610823575060006106da565b8282028284828161083057fe5b04146106d75760405162461bcd60e51b815260040180806020018281038252602181526020018061094a6021913960400191505060405180910390fd5b60006106d783836040518060400160405280601a815260200179536166654d6174683a206469766973696f6e206279207a65726f60301b815250600081836109335760405162461bcd60e51b81526004018080602001828103825283818151815260200191508051906020019080838360005b838110156108f85781810151838201526020016108e0565b50505050905090810190601f1680156109255780820380516001836020036101000a031916815260200191505b509250505060405180910390fd5b50600083858161093f57fe5b049594505050505056fe536166654d6174683a206d756c7469706c69636174696f6e206f766572666c6f77a2646970667358221220d2d3fbc6f9393635137bdb350a08519a5caa1923f1e8264564888a834f36617064736f6c634300060c0033",
  "compiler": {
    "name": "solc",
    "version": "0.6.12+commit.27d51765.Emscripten.clang",
    "optimizer": {
      "enabled": true,
      "runs": 1
    },
    "evmVersion": "petersburg"
  }
}