{
  "fileName": "Pools.sol",
  "contractName": "Pools",
  "source": "// SPDX-License-Identifier: MIT\npragma solidity ^0.6.12;\n\nimport \"./SharedVariables.sol\";\n\ncontract Pools is SharedVariables {\n\n    function _resetPools() internal {\n        for (uint i = 0; i < refPoolBonuses.length; i++) {\n            refPoolUsers[i].user = address(0);\n            refPoolUsers[i].investmentId = 0;\n        }\n\n        for (uint i = 0; i < sponsorPoolBonuses.length; i++) {\n            sponsorPoolUsers[i].user = address(0);\n            refPoolUsers[i].investmentId = 0;\n        }\n\n        refPoolBalance = 0;\n        sponsorPoolBalance = 0;\n        poolDrewAt = block.timestamp;\n    }\n\n    function _updateSponsorPoolUsers(User memory user, Investment memory investment) internal {\n        if (\n            sponsorPoolUsers[sponsorPoolUsers.length.sub(1)].user == address(0) ||\n            investment.sponsorPool.amount > users[sponsorPoolUsers[sponsorPoolUsers.length.sub(1)].user].investments[sponsorPoolUsers[sponsorPoolUsers.length.sub(1)].investmentId].sponsorPool.amount\n        ) { // either last user is not set or last user's sponsor balance is less then this user\n\n            PoolUser memory shiftUser;\n\n            for (uint i = 0; i < sponsorPoolUsers.length; i++) {\n\n                if (sponsorPoolUsers[i].user == address(0)) {\n                    sponsorPoolUsers[i].user = user.wallet;\n                    sponsorPoolUsers[i].investmentId = investment.id;\n                    break;\n                }\n\n                if (investment.sponsorPool.amount > users[sponsorPoolUsers[i].user].investments[sponsorPoolUsers[i].investmentId].sponsorPool.amount) {\n                    shiftUser = sponsorPoolUsers[i];\n                    sponsorPoolUsers[i].user = user.wallet;\n                    sponsorPoolUsers[i].investmentId = investment.id;\n                    PoolUser memory nextUser;\n                    for (uint j = i; i < sponsorPoolUsers.length; j++) {\n\n                        if (shiftUser.user == address(0)) {\n                            break;\n                        }\n\n                        nextUser = sponsorPoolUsers[j];\n                        sponsorPoolUsers[j] = shiftUser;\n                        shiftUser = nextUser;\n                    }\n//                    _shiftPool(i, shiftUser, sponsorPoolUsers);\n                    break;\n                }\n            }\n        }\n    }\n\n    // Reorganise top ref-pool users to draw pool for\n    function _updateRefPoolUsers(User memory user, Investment memory investment) internal {\n        if (\n            refPoolUsers[refPoolUsers.length - 1].user == address(0) ||\n            investment.refPool.amount > users[refPoolUsers[refPoolUsers.length - 1].user].investments[refPoolUsers[refPoolUsers.length - 1].investmentId].refPool.amount\n        ) { // either last user is not set or last user's ref balance is less then this user\n\n            PoolUser memory shiftUser;\n\n            for (uint i = 0; i < refPoolUsers.length; i++) {\n\n                if (refPoolUsers[i].user == address(0)) {\n                    refPoolUsers[i].user = user.wallet;\n                    refPoolUsers[i].investmentId = investment.id;\n                    break;\n                }\n\n                if (investment.refPool.amount > users[refPoolUsers[i].user].investments[refPoolUsers[i].investmentId].refPool.amount) {\n                    shiftUser = refPoolUsers[i];\n                    refPoolUsers[i].user = user.wallet;\n                    refPoolUsers[i].investmentId = investment.id;\n                    PoolUser memory nextUser;\n                    for (uint j = i; i < refPoolUsers.length; j++) {\n\n                        if (shiftUser.user == address(0)) {\n                            break;\n                        }\n\n                        nextUser = refPoolUsers[j];\n                        refPoolUsers[j] = shiftUser;\n                        shiftUser = nextUser;\n                    }\n//                    _shiftPool(i, shiftUser, refPoolUsers);\n                    break;\n                }\n            }\n        }\n    }\n\n    function drawPool() internal {\n        if (block.timestamp > poolDrewAt + 1 days) {\n            for (uint i = 0; i < refPoolUsers.length; i++) {\n                if (refPoolUsers[i].user == address(0)) break;\n\n                User storage user = users[refPoolUsers[i].user];\n                user.investments[refPoolUsers[i].investmentId].refPoolRewards = user.investments[refPoolUsers[i].investmentId].refPoolRewards.add(_calcPercentage(refPoolBalance, refPoolBonuses[i]));\n            }\n\n            for (uint i = 0; i < sponsorPoolUsers.length; i++) {\n                if (sponsorPoolUsers[i].user == address(0)) break;\n\n                User storage user = users[sponsorPoolUsers[i].user];\n                user.investments[sponsorPoolUsers[i].investmentId].sponsorPoolRewards = user.investments[sponsorPoolUsers[i].investmentId].sponsorPoolRewards.add(_calcPercentage(sponsorPoolBalance, sponsorPoolBonuses[i]));\n            }\n\n            totalRefPoolRewards = totalRefPoolRewards.add(refPoolBalance);\n            totalSponsorPoolRewards = totalSponsorPoolRewards.add(sponsorPoolBalance);\n\n            _resetPools();\n        }\n    }\n}\n",
  "sourcePath": "contracts/Pools.sol",
  "abi": [
    {
      "anonymous": false,
      "inputs": [
        {
          "indexed": false,
          "internalType": "address",
          "name": "user",
          "type": "address"
        },
        {
          "indexed": false,
          "internalType": "address",
          "name": "uplink",
          "type": "address"
        },
        {
          "indexed": false,
          "internalType": "uint256",
          "name": "amount",
          "type": "uint256"
        }
      ],
      "name": "Deposit",
      "type": "event"
    },
    {
      "anonymous": false,
      "inputs": [
        {
          "indexed": false,
          "internalType": "address",
          "name": "user",
          "type": "address"
        }
      ],
      "name": "Exited",
      "type": "event"
    },
    {
      "anonymous": false,
      "inputs": [
        {
          "indexed": false,
          "internalType": "address",
          "name": "user",
          "type": "address"
        },
        {
          "indexed": false,
          "internalType": "uint256",
          "name": "amount",
          "type": "uint256"
        }
      ],
      "name": "ReInvest",
      "type": "event"
    },
    {
      "anonymous": false,
      "inputs": [
        {
          "indexed": false,
          "internalType": "address",
          "name": "user",
          "type": "address"
        },
        {
          "indexed": false,
          "internalType": "uint256",
          "name": "amount",
          "type": "uint256"
        }
      ],
      "name": "Withdraw",
      "type": "event"
    },
    {
      "inputs": [],
      "name": "contractBonusUnit",
      "outputs": [
        {
          "internalType": "uint256",
          "name": "",
          "type": "uint256"
        }
      ],
      "stateMutability": "view",
      "type": "function"
    },
    {
      "inputs": [],
      "name": "contractBonusUnitBonus",
      "outputs": [
        {
          "internalType": "uint256",
          "name": "",
          "type": "uint256"
        }
      ],
      "stateMutability": "view",
      "type": "function"
    },
    {
      "inputs": [
        {
          "internalType": "uint256",
          "name": "",
          "type": "uint256"
        }
      ],
      "name": "depositBonuses",
      "outputs": [
        {
          "internalType": "uint256",
          "name": "",
          "type": "uint256"
        }
      ],
      "stateMutability": "view",
      "type": "function"
    },
    {
      "inputs": [],
      "name": "depositRefPoolCommission",
      "outputs": [
        {
          "internalType": "uint256",
          "name": "",
          "type": "uint256"
        }
      ],
      "stateMutability": "view",
      "type": "function"
    },
    {
      "inputs": [],
      "name": "depositSponsorPoolCommission",
      "outputs": [
        {
          "internalType": "uint256",
          "name": "",
          "type": "uint256"
        }
      ],
      "stateMutability": "view",
      "type": "function"
    },
    {
      "inputs": [],
      "name": "devAddress",
      "outputs": [
        {
          "internalType": "address",
          "name": "",
          "type": "address"
        }
      ],
      "stateMutability": "view",
      "type": "function"
    },
    {
      "inputs": [],
      "name": "devCommission",
      "outputs": [
        {
          "internalType": "uint256",
          "name": "",
          "type": "uint256"
        }
      ],
      "stateMutability": "view",
      "type": "function"
    },
    {
      "inputs": [],
      "name": "exitPenalty",
      "outputs": [
        {
          "internalType": "uint256",
          "name": "",
          "type": "uint256"
        }
      ],
      "stateMutability": "view",
      "type": "function"
    },
    {
      "inputs": [],
      "name": "fourRXToken",
      "outputs": [
        {
          "internalType": "contract IERC20",
          "name": "",
          "type": "address"
        }
      ],
      "stateMutability": "view",
      "type": "function"
    },
    {
      "inputs": [],
      "name": "holdBonusUnitBonus",
      "outputs": [
        {
          "internalType": "uint256",
          "name": "",
          "type": "uint256"
        }
      ],
      "stateMutability": "view",
      "type": "function"
    },
    {
      "inputs": [],
      "name": "holdBonusUnlocksAt",
      "outputs": [
        {
          "internalType": "uint256",
          "name": "",
          "type": "uint256"
        }
      ],
      "stateMutability": "view",
      "type": "function"
    },
    {
      "inputs": [],
      "name": "lpCommission",
      "outputs": [
        {
          "internalType": "uint256",
          "name": "",
          "type": "uint256"
        }
      ],
      "stateMutability": "view",
      "type": "function"
    },
    {
      "inputs": [],
      "name": "maxContractBalance",
      "outputs": [
        {
          "internalType": "uint256",
          "name": "",
          "type": "uint256"
        }
      ],
      "stateMutability": "view",
      "type": "function"
    },
    {
      "inputs": [],
      "name": "maxContractBonus",
      "outputs": [
        {
          "internalType": "uint256",
          "name": "",
          "type": "uint256"
        }
      ],
      "stateMutability": "view",
      "type": "function"
    },
    {
      "inputs": [],
      "name": "maxContractRewards",
      "outputs": [
        {
          "internalType": "uint256",
          "name": "",
          "type": "uint256"
        }
      ],
      "stateMutability": "view",
      "type": "function"
    },
    {
      "inputs": [],
      "name": "maxHoldBonus",
      "outputs": [
        {
          "internalType": "uint256",
          "name": "",
          "type": "uint256"
        }
      ],
      "stateMutability": "view",
      "type": "function"
    },
    {
      "inputs": [],
      "name": "maxWithdrawalOverTenPercent",
      "outputs": [
        {
          "internalType": "uint256",
          "name": "",
          "type": "uint256"
        }
      ],
      "stateMutability": "view",
      "type": "function"
    },
    {
      "inputs": [],
      "name": "poolCycle",
      "outputs": [
        {
          "internalType": "uint256",
          "name": "",
          "type": "uint256"
        }
      ],
      "stateMutability": "view",
      "type": "function"
    },
    {
      "inputs": [],
      "name": "poolDrewAt",
      "outputs": [
        {
          "internalType": "uint256",
          "name": "",
          "type": "uint256"
        }
      ],
      "stateMutability": "view",
      "type": "function"
    },
    {
      "inputs": [],
      "name": "refCommission",
      "outputs": [
        {
          "internalType": "uint256",
          "name": "",
          "type": "uint256"
        }
      ],
      "stateMutability": "view",
      "type": "function"
    },
    {
      "inputs": [],
      "name": "refPoolBalance",
      "outputs": [
        {
          "internalType": "uint256",
          "name": "",
          "type": "uint256"
        }
      ],
      "stateMutability": "view",
      "type": "function"
    },
    {
      "inputs": [
        {
          "internalType": "uint256",
          "name": "",
          "type": "uint256"
        }
      ],
      "name": "refPoolBonuses",
      "outputs": [
        {
          "internalType": "uint256",
          "name": "",
          "type": "uint256"
        }
      ],
      "stateMutability": "view",
      "type": "function"
    },
    {
      "inputs": [
        {
          "internalType": "uint256",
          "name": "",
          "type": "uint256"
        }
      ],
      "name": "refPoolUsers",
      "outputs": [
        {
          "internalType": "address",
          "name": "user",
          "type": "address"
        },
        {
          "internalType": "uint256",
          "name": "investmentId",
          "type": "uint256"
        }
      ],
      "stateMutability": "view",
      "type": "function"
    },
    {
      "inputs": [],
      "name": "sponsorPoolBalance",
      "outputs": [
        {
          "internalType": "uint256",
          "name": "",
          "type": "uint256"
        }
      ],
      "stateMutability": "view",
      "type": "function"
    },
    {
      "inputs": [
        {
          "internalType": "uint256",
          "name": "",
          "type": "uint256"
        }
      ],
      "name": "sponsorPoolBonuses",
      "outputs": [
        {
          "internalType": "uint256",
          "name": "",
          "type": "uint256"
        }
      ],
      "stateMutability": "view",
      "type": "function"
    },
    {
      "inputs": [
        {
          "internalType": "uint256",
          "name": "",
          "type": "uint256"
        }
      ],
      "name": "sponsorPoolUsers",
      "outputs": [
        {
          "internalType": "address",
          "name": "user",
          "type": "address"
        },
        {
          "internalType": "uint256",
          "name": "investmentId",
          "type": "uint256"
        }
      ],
      "stateMutability": "view",
      "type": "function"
    },
    {
      "inputs": [],
      "name": "totalActiveInvestments",
      "outputs": [
        {
          "internalType": "uint256",
          "name": "",
          "type": "uint256"
        }
      ],
      "stateMutability": "view",
      "type": "function"
    },
    {
      "inputs": [],
      "name": "totalDepositRewards",
      "outputs": [
        {
          "internalType": "uint256",
          "name": "",
          "type": "uint256"
        }
      ],
      "stateMutability": "view",
      "type": "function"
    },
    {
      "inputs": [],
      "name": "totalDeposits",
      "outputs": [
        {
          "internalType": "uint256",
          "name": "",
          "type": "uint256"
        }
      ],
      "stateMutability": "view",
      "type": "function"
    },
    {
      "inputs": [],
      "name": "totalExited",
      "outputs": [
        {
          "internalType": "uint256",
          "name": "",
          "type": "uint256"
        }
      ],
      "stateMutability": "view",
      "type": "function"
    },
    {
      "inputs": [],
      "name": "totalInvestments",
      "outputs": [
        {
          "internalType": "uint256",
          "name": "",
          "type": "uint256"
        }
      ],
      "stateMutability": "view",
      "type": "function"
    },
    {
      "inputs": [],
      "name": "totalPenalty",
      "outputs": [
        {
          "internalType": "uint256",
          "name": "",
          "type": "uint256"
        }
      ],
      "stateMutability": "view",
      "type": "function"
    },
    {
      "inputs": [],
      "name": "totalRefPoolRewards",
      "outputs": [
        {
          "internalType": "uint256",
          "name": "",
          "type": "uint256"
        }
      ],
      "stateMutability": "view",
      "type": "function"
    },
    {
      "inputs": [],
      "name": "totalRefRewards",
      "outputs": [
        {
          "internalType": "uint256",
          "name": "",
          "type": "uint256"
        }
      ],
      "stateMutability": "view",
      "type": "function"
    },
    {
      "inputs": [],
      "name": "totalSponsorPoolRewards",
      "outputs": [
        {
          "internalType": "uint256",
          "name": "",
          "type": "uint256"
        }
      ],
      "stateMutability": "view",
      "type": "function"
    },
    {
      "inputs": [],
      "name": "totalWithdrawn",
      "outputs": [
        {
          "internalType": "uint256",
          "name": "",
          "type": "uint256"
        }
      ],
      "stateMutability": "view",
      "type": "function"
    },
    {
      "inputs": [
        {
          "internalType": "address",
          "name": "",
          "type": "address"
        }
      ],
      "name": "users",
      "outputs": [
        {
          "internalType": "address",
          "name": "wallet",
          "type": "address"
        },
        {
          "internalType": "bool",
          "name": "registered",
          "type": "bool"
        }
      ],
      "stateMutability": "view",
      "type": "function"
    }
  ],
  "bytecode": "0x6080604052612710600055600060015562030d40600255620151806003556175306005556103e86006556102bc6007556113886008557364b8cb4c04ba902010856d913b4e5df940748bf2600960006101000a8154816001600160a01b0302191690836001600160a01b031602179055506032600a556032600b55611388600c5561012c600d556064600e556001600f556002601055606460115561012c60125561012c6013553480156100b257600080fd5b50610576806100c26000396000f3fe608060405234801561001057600080fd5b50600436106101b75760003560e01c80630a32e91e146101bc57806316768ffc146101d657806324cf3682146101de5780632669e8ea146101e65780632673ebf7146101ee5780632eed8483146101f657806335ccbdbe146101fe5780633ad10ef6146102065780633df936c91461022a57806348a91a24146102325780634b3197131461024f5780634c17055214610257578063648441b61461025f57806365fcb49e1461026757806369cde4c01461026f57806370fd37cf146102775780637247b2b91461027f5780637d882097146102875780638876bb3e1461028f5780638b7e1a351461029757806391994b2c1461029f5780639c236aa8146102a7578063a63f4bdb146102e7578063a87430ba146102ef578063a9122af714610338578063acd2e1c014610340578063bfe0e02014610348578063c572e26714610350578063cabea10d14610358578063d5766ebd14610360578063d82daec71461037d578063df5a75ef14610385578063e6af61c8146103a2578063ebb7f586146103aa578063ed56f6a1146103b2578063ee8a4498146103cf578063fd0b8252146103d7575b600080fd5b6101c46103df565b60408051918252519081900360200190f35b6101c46103e5565b6101c46103eb565b6101c46103f1565b6101c46103f7565b6101c46103fd565b6101c4610403565b61020e610409565b604080516001600160a01b039092168252519081900360200190f35b6101c4610418565b6101c46004803603602081101561024857600080fd5b503561041e565b6101c461043c565b6101c4610442565b6101c4610448565b6101c461044e565b6101c4610454565b6101c461045a565b6101c4610460565b6101c4610466565b6101c461046c565b6101c4610472565b6101c4610478565b6102c4600480360360208110156102bd57600080fd5b503561047e565b604080516001600160a01b03909316835260208301919091528051918290030190f35b6101c46104a7565b6103156004803603602081101561030557600080fd5b50356001600160a01b03166104ad565b604080516001600160a01b03909316835290151560208301528051918290030190f35b61020e6104d4565b6101c46104e3565b6101c46104e9565b6101c46104ef565b6101c46104f5565b6101c46004803603602081101561037657600080fd5b50356104fb565b6101c4610508565b6101c46004803603602081101561039b57600080fd5b503561050e565b6101c461051b565b6101c4610521565b6102c4600480360360208110156103c857600080fd5b5035610527565b6101c4610534565b6101c461053a565b60085481565b600d5481565b604c5481565b600c5481565b604e5481565b60135481565b600b5481565b6009546001600160a01b031681565b60185481565b6048818154811061042b57fe5b600091825260209091200154905081565b604a5481565b600e5481565b60105481565b60145481565b60125481565b604b5481565b60505481565b60495481565b604f5481565b60115481565b60525481565b603181600a811061048b57fe5b6002020180546001909101546001600160a01b03909116915082565b60055481565b6045602052600090815260409020546001600160a01b03811690600160a01b900460ff1682565b6004546001600160a01b031681565b600a5481565b604d5481565b600f5481565b60155481565b6046818154811061042b57fe5b60175481565b6047818154811061042b57fe5b60515481565b60065481565b601981600c811061048b57fe5b60075481565b6016548156fea2646970667358221220db2dc72668d10be6ce4566c3da7937e7a6cff1e2185c0ef2e315931169db5da064736f6c634300060c0033",
  "compiler": {
    "name": "solc",
    "version": "0.6.12+commit.27d51765.Emscripten.clang",
    "optimizer": {
      "enabled": true,
      "runs": 1
    },
    "evmVersion": "petersburg"
  }
}