{
  "fileName": "Pools.sol",
  "contractName": "Pools",
  "source": "// SPDX-License-Identifier: MIT\npragma solidity ^0.6.12;\n\nimport \"./SharedVariables.sol\";\n\ncontract Pools is SharedVariables {\n\n    function _resetPools() internal {\n        for (uint i = 0; i < refPoolBonuses.length; i++) {\n            refPoolUsers[i].user = address(0);\n            refPoolUsers[i].investmentId = 0;\n        }\n\n        for (uint i = 0; i < sponsorPoolBonuses.length; i++) {\n            sponsorPoolUsers[i].user = address(0);\n            refPoolUsers[i].investmentId = 0;\n        }\n\n        refPoolBalance = 0;\n        sponsorPoolBalance = 0;\n        poolDrewAt = block.timestamp;\n    }\n\n    function _updateSponsorPoolUsers(User memory user, Investment memory investment) internal {\n        if (sponsorPoolUsers[sponsorPoolUsers.length.sub(1)].user == address(0)\n            || investment.sponsorPool.amount > users[sponsorPoolUsers[sponsorPoolUsers.length.sub(1)].user].investments[sponsorPoolUsers[sponsorPoolUsers.length.sub(1)].investmentId].sponsorPool.amount) { // either last user is not set or last user's sponsor balance is less then this user\n\n            PoolUser memory shiftUser;\n\n            for (uint i = 0; i < sponsorPoolUsers.length; i++) {\n\n                if (sponsorPoolUsers[i].user == address(0)) {\n                    sponsorPoolUsers[i].user = user.wallet;\n                    sponsorPoolUsers[i].investmentId = investment.id;\n                    break;\n                }\n\n                if (investment.sponsorPool.amount > users[sponsorPoolUsers[i].user].investments[sponsorPoolUsers[i].investmentId].sponsorPool.amount) {\n                    shiftUser = sponsorPoolUsers[i];\n                    sponsorPoolUsers[i].user = user.wallet;\n                    sponsorPoolUsers[i].investmentId = investment.id;\n                    PoolUser memory nextUser;\n                    for (uint j = i; i < sponsorPoolUsers.length; j++) {\n\n                        if (shiftUser.user == address(0)) {\n                            break;\n                        }\n\n                        nextUser = sponsorPoolUsers[j];\n                        sponsorPoolUsers[j] = shiftUser;\n                        shiftUser = nextUser;\n                    }\n//                    _shiftPool(i, shiftUser, sponsorPoolUsers);\n                    break;\n                }\n            }\n        }\n    }\n\n    // Reorganise top ref-pool users to draw pool for\n    function _updateRefPoolUsers(User memory user, Investment memory investment) internal {\n        if (refPoolUsers[refPoolUsers.length - 1].user == address(0)\n            || investment.refPool.amount > users[refPoolUsers[refPoolUsers.length - 1].user].investments[refPoolUsers[refPoolUsers.length - 1].investmentId].refPool.amount) { // either last user is not set or last user's ref balance is less then this user\n\n            PoolUser memory shiftUser;\n\n            for (uint i = 0; i < refPoolUsers.length; i++) {\n\n                if (refPoolUsers[i].user == address(0)) {\n                    refPoolUsers[i].user = user.wallet;\n                    refPoolUsers[i].investmentId = investment.id;\n                    break;\n                }\n\n                if (investment.refPool.amount > users[refPoolUsers[i].user].investments[refPoolUsers[i].investmentId].refPool.amount) {\n                    shiftUser = refPoolUsers[i];\n                    refPoolUsers[i].user = user.wallet;\n                    refPoolUsers[i].investmentId = investment.id;\n                    PoolUser memory nextUser;\n                    for (uint j = i; i < refPoolUsers.length; j++) {\n\n                        if (shiftUser.user == address(0)) {\n                            break;\n                        }\n\n                        nextUser = refPoolUsers[j];\n                        refPoolUsers[j] = shiftUser;\n                        shiftUser = nextUser;\n                    }\n//                    _shiftPool(i, shiftUser, refPoolUsers);\n                    break;\n                }\n            }\n        }\n    }\n\n    function drawPool() internal {\n        if (block.timestamp > poolDrewAt + 1 days) {\n            for (uint i = 0; i < refPoolUsers.length; i++) {\n                if (refPoolUsers[i].user == address(0)) break;\n\n                User storage user = users[refPoolUsers[i].user];\n                user.investments[refPoolUsers[i].investmentId].refPoolRewards = user.investments[refPoolUsers[i].investmentId].refPoolRewards.add(_calcPercentage(refPoolBalance, refPoolBonuses[i]));\n            }\n\n            for (uint i = 0; i < sponsorPoolUsers.length; i++) {\n                if (sponsorPoolUsers[i].user == address(0)) break;\n\n                User storage user = users[sponsorPoolUsers[i].user];\n                user.investments[sponsorPoolUsers[i].investmentId].sponsorPoolRewards = user.investments[sponsorPoolUsers[i].investmentId].sponsorPoolRewards.add(_calcPercentage(sponsorPoolBalance, sponsorPoolBonuses[i]));\n            }\n\n            totalRefPoolRewards = totalRefPoolRewards.add(refPoolBalance);\n            totalSponsorPoolRewards = totalSponsorPoolRewards.add(sponsorPoolBalance);\n\n            _resetPools();\n        }\n    }\n}\n",
  "sourcePath": "contracts/Pools.sol",
  "abi": [
    {
      "anonymous": false,
      "inputs": [
        {
          "indexed": false,
          "internalType": "address",
          "name": "user",
          "type": "address"
        },
        {
          "indexed": false,
          "internalType": "address",
          "name": "uplink",
          "type": "address"
        },
        {
          "indexed": false,
          "internalType": "uint256",
          "name": "amount",
          "type": "uint256"
        }
      ],
      "name": "Deposit",
      "type": "event"
    },
    {
      "anonymous": false,
      "inputs": [
        {
          "indexed": false,
          "internalType": "address",
          "name": "user",
          "type": "address"
        }
      ],
      "name": "Exited",
      "type": "event"
    },
    {
      "anonymous": false,
      "inputs": [
        {
          "indexed": false,
          "internalType": "address",
          "name": "user",
          "type": "address"
        },
        {
          "indexed": false,
          "internalType": "uint256",
          "name": "amount",
          "type": "uint256"
        }
      ],
      "name": "ReInvest",
      "type": "event"
    },
    {
      "anonymous": false,
      "inputs": [
        {
          "indexed": false,
          "internalType": "address",
          "name": "user",
          "type": "address"
        },
        {
          "indexed": false,
          "internalType": "uint256",
          "name": "amount",
          "type": "uint256"
        }
      ],
      "name": "Withdraw",
      "type": "event"
    },
    {
      "inputs": [
        {
          "internalType": "uint256",
          "name": "",
          "type": "uint256"
        }
      ],
      "name": "depositBonuses",
      "outputs": [
        {
          "internalType": "uint256",
          "name": "",
          "type": "uint256"
        }
      ],
      "stateMutability": "view",
      "type": "function"
    },
    {
      "inputs": [
        {
          "internalType": "uint256",
          "name": "",
          "type": "uint256"
        }
      ],
      "name": "refPoolBonuses",
      "outputs": [
        {
          "internalType": "uint256",
          "name": "",
          "type": "uint256"
        }
      ],
      "stateMutability": "view",
      "type": "function"
    },
    {
      "inputs": [
        {
          "internalType": "uint256",
          "name": "",
          "type": "uint256"
        }
      ],
      "name": "refPoolUsers",
      "outputs": [
        {
          "internalType": "address",
          "name": "user",
          "type": "address"
        },
        {
          "internalType": "uint256",
          "name": "investmentId",
          "type": "uint256"
        }
      ],
      "stateMutability": "view",
      "type": "function"
    },
    {
      "inputs": [
        {
          "internalType": "uint256",
          "name": "",
          "type": "uint256"
        }
      ],
      "name": "sponsorPoolBonuses",
      "outputs": [
        {
          "internalType": "uint256",
          "name": "",
          "type": "uint256"
        }
      ],
      "stateMutability": "view",
      "type": "function"
    },
    {
      "inputs": [
        {
          "internalType": "uint256",
          "name": "",
          "type": "uint256"
        }
      ],
      "name": "sponsorPoolUsers",
      "outputs": [
        {
          "internalType": "address",
          "name": "user",
          "type": "address"
        },
        {
          "internalType": "uint256",
          "name": "investmentId",
          "type": "uint256"
        }
      ],
      "stateMutability": "view",
      "type": "function"
    }
  ],
  "bytecode": "0x6080604052612710600055600060015562030d40600255620151806003556175306005556103e86006556102bc6007556113886008557364b8cb4c04ba902010856d913b4e5df940748bf2600960006101000a8154816001600160a01b0302191690836001600160a01b031602179055506032600a556032600b55611388600c5561012c600d556064600e556001600f556002601055606460115561012c60125561012c6013553480156100b257600080fd5b506101c6806100c26000396000f3fe608060405234801561001057600080fd5b50600436106100575760003560e01c806348a91a241461005c5780639c236aa81461008b578063d5766ebd146100cb578063df5a75ef146100e8578063ed56f6a114610105575b600080fd5b6100796004803603602081101561007257600080fd5b5035610122565b60408051918252519081900360200190f35b6100a8600480360360208110156100a157600080fd5b5035610140565b604080516001600160a01b03909316835260208301919091528051918290030190f35b610079600480360360208110156100e157600080fd5b5035610169565b610079600480360360208110156100fe57600080fd5b5035610176565b6100a86004803603602081101561011b57600080fd5b5035610183565b6048818154811061012f57fe5b600091825260209091200154905081565b603181600a811061014d57fe5b6002020180546001909101546001600160a01b03909116915082565b6046818154811061012f57fe5b6047818154811061012f57fe5b601981600c811061014d57fefea2646970667358221220cdacfce9cb39b41bf24d9fdf4aff2c70d0185e8a3f3663a33a08ce0b03346cef64736f6c634300060c0033",
  "compiler": {
    "name": "solc",
    "version": "0.6.12+commit.27d51765.Emscripten.clang",
    "optimizer": {
      "enabled": true,
      "runs": 1
    },
    "evmVersion": "petersburg"
  }
}