{
  "fileName": "Pools.sol",
  "contractName": "Pools",
  "source": "// SPDX-License-Identifier: MIT\npragma solidity ^0.6.12;\n\npragma experimental ABIEncoderV2;\nimport \"./SharedVariables.sol\";\nimport \"./Pools/SponsorPool.sol\";\nimport \"./Pools/ReferralPool.sol\";\nimport \"./libs/SortedLinkedList.sol\";\n\n\ncontract Pools is SponsorPool, ReferralPool, SharedVariables {\n\n    uint8 public constant MAX_REF_POOL_USERS = 12;\n    uint8 public constant MAX_SPONSOR_POOL_USERS = 10;\n\n    function _resetPools() internal {\n        _cleanSponsorPoolUsers();\n        _cleanRefPoolUsers();\n        delete refPoolBalance;\n        delete sponsorPoolBalance;\n        poolDrewAt = uint32(block.timestamp);\n        poolCycle++;\n    }\n\n    function _updateSponsorPoolUsers(User memory user, Stake memory stake) internal {\n        _addSponsorPoolRecord(user.wallet, stake.deposit, stake.id);\n    }\n\n    // Reorganise top ref-pool users to draw pool for\n    function _updateRefPoolUsers(User memory uplinkUser , Stake memory stake, uint8 uplinkUserStakeId) internal {\n        _addRefPoolRecord(uplinkUser.wallet, stake.deposit, uplinkUserStakeId);\n    }\n\n    function drawPool() public {\n        if (block.timestamp > poolDrewAt + 1 days) {\n\n            SortedLinkedList.Item memory current = refPoolUsers[0];\n            uint16 i = 0;\n\n            while (i < MAX_REF_POOL_USERS && current.next != SortedLinkedList.GUARD) {\n                current = refPoolUsers[current.next];\n                users[current.user].stakes[current.id].rewards = users[current.user].stakes[current.id].rewards.add(_calcPercentage(refPoolBalance, refPoolBonuses[i]));\n                i++;\n            }\n\n            current = sponsorPoolUsers[0];\n            i = 0;\n\n            while (i < MAX_SPONSOR_POOL_USERS && current.next != SortedLinkedList.GUARD) {\n                current = sponsorPoolUsers[current.next];\n                users[current.user].stakes[current.id].rewards = users[current.user].stakes[current.id].rewards.add(_calcPercentage(sponsorPoolBalance, sponsorPoolBonuses[i]));\n                i++;\n            }\n\n            emit PoolDrawn(refPoolBalance, sponsorPoolBalance);\n\n            _resetPools();\n        }\n    }\n\n    // pool info getters\n\n    function getPoolInfo() external view returns (uint32, uint16, uint, uint) {\n        return (poolDrewAt, poolCycle, sponsorPoolBalance, refPoolBalance);\n    }\n\n    function getPoolParticipants() external view returns (address[] memory, uint8[] memory, uint[] memory, address[] memory, uint8[] memory, uint[] memory) {\n        address[] memory sponsorPoolUsersAddresses = new address[](MAX_SPONSOR_POOL_USERS);\n        uint8[] memory sponsorPoolUsersStakeIds = new uint8[](MAX_SPONSOR_POOL_USERS);\n        uint[] memory sponsorPoolUsersAmounts = new uint[](MAX_SPONSOR_POOL_USERS);\n\n        address[] memory refPoolUsersAddresses = new address[](MAX_REF_POOL_USERS);\n        uint8[] memory refPoolUsersStakeIds = new uint8[](MAX_REF_POOL_USERS);\n        uint[] memory refPoolUsersAmounts = new uint[](MAX_REF_POOL_USERS);\n\n        uint16 i = 0;\n        SortedLinkedList.Item memory current = sponsorPoolUsers[i];\n\n        while (i < MAX_SPONSOR_POOL_USERS && current.next != SortedLinkedList.GUARD) {\n            current = sponsorPoolUsers[current.next];\n            sponsorPoolUsersAddresses[i] = current.user;\n            sponsorPoolUsersStakeIds[i] = current.id;\n            sponsorPoolUsersAmounts[i] = current.score;\n            i++;\n        }\n\n        i = 0;\n        current = refPoolUsers[i];\n\n        while (i < MAX_REF_POOL_USERS && current.next != SortedLinkedList.GUARD) {\n            current = refPoolUsers[current.next];\n            refPoolUsersAddresses[i] = current.user;\n            refPoolUsersStakeIds[i] = current.id;\n            refPoolUsersAmounts[i] = current.score;\n            i++;\n        }\n\n        return (sponsorPoolUsersAddresses, sponsorPoolUsersStakeIds, sponsorPoolUsersAmounts, refPoolUsersAddresses, refPoolUsersStakeIds, refPoolUsersAmounts);\n    }\n}\n",
  "sourcePath": "contracts/Pools.sol",
  "abi": [
    {
      "anonymous": false,
      "inputs": [
        {
          "indexed": false,
          "internalType": "address",
          "name": "user",
          "type": "address"
        },
        {
          "indexed": false,
          "internalType": "uint256",
          "name": "amount",
          "type": "uint256"
        },
        {
          "indexed": false,
          "internalType": "address",
          "name": "uplinkAddress",
          "type": "address"
        },
        {
          "indexed": false,
          "internalType": "uint256",
          "name": "uplinkStakeId",
          "type": "uint256"
        }
      ],
      "name": "Deposit",
      "type": "event"
    },
    {
      "anonymous": false,
      "inputs": [
        {
          "indexed": false,
          "internalType": "address",
          "name": "user",
          "type": "address"
        },
        {
          "indexed": false,
          "internalType": "uint256",
          "name": "stakeId",
          "type": "uint256"
        },
        {
          "indexed": false,
          "internalType": "uint256",
          "name": "amount",
          "type": "uint256"
        }
      ],
      "name": "Exited",
      "type": "event"
    },
    {
      "anonymous": false,
      "inputs": [
        {
          "indexed": false,
          "internalType": "uint256",
          "name": "refPoolAmount",
          "type": "uint256"
        },
        {
          "indexed": false,
          "internalType": "uint256",
          "name": "sponsorPoolAmount",
          "type": "uint256"
        }
      ],
      "name": "PoolDrawn",
      "type": "event"
    },
    {
      "anonymous": false,
      "inputs": [
        {
          "indexed": false,
          "internalType": "address",
          "name": "user",
          "type": "address"
        },
        {
          "indexed": false,
          "internalType": "uint256",
          "name": "amount",
          "type": "uint256"
        }
      ],
      "name": "ReInvest",
      "type": "event"
    },
    {
      "anonymous": false,
      "inputs": [
        {
          "indexed": false,
          "internalType": "address",
          "name": "user",
          "type": "address"
        },
        {
          "indexed": false,
          "internalType": "uint256",
          "name": "amount",
          "type": "uint256"
        }
      ],
      "name": "Withdrawn",
      "type": "event"
    },
    {
      "inputs": [],
      "name": "CONTRACT_BONUS_PER_UNIT_BP",
      "outputs": [
        {
          "internalType": "uint256",
          "name": "",
          "type": "uint256"
        }
      ],
      "stateMutability": "view",
      "type": "function"
    },
    {
      "inputs": [],
      "name": "CONTRACT_BONUS_UNIT",
      "outputs": [
        {
          "internalType": "uint256",
          "name": "",
          "type": "uint256"
        }
      ],
      "stateMutability": "view",
      "type": "function"
    },
    {
      "inputs": [],
      "name": "DAY",
      "outputs": [
        {
          "internalType": "uint256",
          "name": "",
          "type": "uint256"
        }
      ],
      "stateMutability": "view",
      "type": "function"
    },
    {
      "inputs": [],
      "name": "DEV_FEE_BP",
      "outputs": [
        {
          "internalType": "uint256",
          "name": "",
          "type": "uint256"
        }
      ],
      "stateMutability": "view",
      "type": "function"
    },
    {
      "inputs": [],
      "name": "EXIT_PENALTY_BP",
      "outputs": [
        {
          "internalType": "uint256",
          "name": "",
          "type": "uint256"
        }
      ],
      "stateMutability": "view",
      "type": "function"
    },
    {
      "inputs": [],
      "name": "HOLD_BONUS_PER_UNIT_BP",
      "outputs": [
        {
          "internalType": "uint256",
          "name": "",
          "type": "uint256"
        }
      ],
      "stateMutability": "view",
      "type": "function"
    },
    {
      "inputs": [],
      "name": "HOLD_BONUS_UNIT",
      "outputs": [
        {
          "internalType": "uint256",
          "name": "",
          "type": "uint256"
        }
      ],
      "stateMutability": "view",
      "type": "function"
    },
    {
      "inputs": [],
      "name": "LP_FEE_BP",
      "outputs": [
        {
          "internalType": "uint256",
          "name": "",
          "type": "uint256"
        }
      ],
      "stateMutability": "view",
      "type": "function"
    },
    {
      "inputs": [],
      "name": "MAX_CONTRACT_BONUS_BP",
      "outputs": [
        {
          "internalType": "uint256",
          "name": "",
          "type": "uint256"
        }
      ],
      "stateMutability": "view",
      "type": "function"
    },
    {
      "inputs": [],
      "name": "MAX_CONTRACT_REWARD_BP",
      "outputs": [
        {
          "internalType": "uint256",
          "name": "",
          "type": "uint256"
        }
      ],
      "stateMutability": "view",
      "type": "function"
    },
    {
      "inputs": [],
      "name": "MAX_HOLD_BONUS_BP",
      "outputs": [
        {
          "internalType": "uint256",
          "name": "",
          "type": "uint256"
        }
      ],
      "stateMutability": "view",
      "type": "function"
    },
    {
      "inputs": [],
      "name": "MAX_REF_POOL_USERS",
      "outputs": [
        {
          "internalType": "uint8",
          "name": "",
          "type": "uint8"
        }
      ],
      "stateMutability": "view",
      "type": "function"
    },
    {
      "inputs": [],
      "name": "MAX_SPONSOR_POOL_USERS",
      "outputs": [
        {
          "internalType": "uint8",
          "name": "",
          "type": "uint8"
        }
      ],
      "stateMutability": "view",
      "type": "function"
    },
    {
      "inputs": [],
      "name": "MAX_WITHDRAWAL_OVER_REWARD_THRESHOLD_BP",
      "outputs": [
        {
          "internalType": "uint256",
          "name": "",
          "type": "uint256"
        }
      ],
      "stateMutability": "view",
      "type": "function"
    },
    {
      "inputs": [],
      "name": "PERCENT_MULTIPLIER",
      "outputs": [
        {
          "internalType": "uint256",
          "name": "",
          "type": "uint256"
        }
      ],
      "stateMutability": "view",
      "type": "function"
    },
    {
      "inputs": [],
      "name": "REF_COMMISSION_BP",
      "outputs": [
        {
          "internalType": "uint256",
          "name": "",
          "type": "uint256"
        }
      ],
      "stateMutability": "view",
      "type": "function"
    },
    {
      "inputs": [],
      "name": "REF_POOL_FEE_BP",
      "outputs": [
        {
          "internalType": "uint256",
          "name": "",
          "type": "uint256"
        }
      ],
      "stateMutability": "view",
      "type": "function"
    },
    {
      "inputs": [],
      "name": "REWARD_THRESHOLD_BP",
      "outputs": [
        {
          "internalType": "uint256",
          "name": "",
          "type": "uint256"
        }
      ],
      "stateMutability": "view",
      "type": "function"
    },
    {
      "inputs": [],
      "name": "SPONSOR_POOL_FEE_BP",
      "outputs": [
        {
          "internalType": "uint256",
          "name": "",
          "type": "uint256"
        }
      ],
      "stateMutability": "view",
      "type": "function"
    },
    {
      "inputs": [
        {
          "internalType": "address",
          "name": "user",
          "type": "address"
        },
        {
          "internalType": "uint256",
          "name": "amount",
          "type": "uint256"
        },
        {
          "internalType": "uint8",
          "name": "stakeId",
          "type": "uint8"
        }
      ],
      "name": "_addRefPoolRecord",
      "outputs": [],
      "stateMutability": "nonpayable",
      "type": "function"
    },
    {
      "inputs": [],
      "name": "_cleanRefPoolUsers",
      "outputs": [],
      "stateMutability": "nonpayable",
      "type": "function"
    },
    {
      "inputs": [],
      "name": "devAddress",
      "outputs": [
        {
          "internalType": "address",
          "name": "",
          "type": "address"
        }
      ],
      "stateMutability": "view",
      "type": "function"
    },
    {
      "inputs": [],
      "name": "devBalance",
      "outputs": [
        {
          "internalType": "uint256",
          "name": "",
          "type": "uint256"
        }
      ],
      "stateMutability": "view",
      "type": "function"
    },
    {
      "inputs": [],
      "name": "drawPool",
      "outputs": [],
      "stateMutability": "nonpayable",
      "type": "function"
    },
    {
      "inputs": [],
      "name": "fourRXToken",
      "outputs": [
        {
          "internalType": "contract IERC20",
          "name": "",
          "type": "address"
        }
      ],
      "stateMutability": "view",
      "type": "function"
    },
    {
      "inputs": [],
      "name": "getPoolInfo",
      "outputs": [
        {
          "internalType": "uint32",
          "name": "",
          "type": "uint32"
        },
        {
          "internalType": "uint16",
          "name": "",
          "type": "uint16"
        },
        {
          "internalType": "uint256",
          "name": "",
          "type": "uint256"
        },
        {
          "internalType": "uint256",
          "name": "",
          "type": "uint256"
        }
      ],
      "stateMutability": "view",
      "type": "function"
    },
    {
      "inputs": [],
      "name": "getPoolParticipants",
      "outputs": [
        {
          "internalType": "address[]",
          "name": "",
          "type": "address[]"
        },
        {
          "internalType": "uint8[]",
          "name": "",
          "type": "uint8[]"
        },
        {
          "internalType": "uint256[]",
          "name": "",
          "type": "uint256[]"
        },
        {
          "internalType": "address[]",
          "name": "",
          "type": "address[]"
        },
        {
          "internalType": "uint8[]",
          "name": "",
          "type": "uint8[]"
        },
        {
          "internalType": "uint256[]",
          "name": "",
          "type": "uint256[]"
        }
      ],
      "stateMutability": "view",
      "type": "function"
    },
    {
      "inputs": [],
      "name": "maxContractBalance",
      "outputs": [
        {
          "internalType": "uint256",
          "name": "",
          "type": "uint256"
        }
      ],
      "stateMutability": "view",
      "type": "function"
    },
    {
      "inputs": [],
      "name": "poolCycle",
      "outputs": [
        {
          "internalType": "uint16",
          "name": "",
          "type": "uint16"
        }
      ],
      "stateMutability": "view",
      "type": "function"
    },
    {
      "inputs": [],
      "name": "poolDrewAt",
      "outputs": [
        {
          "internalType": "uint32",
          "name": "",
          "type": "uint32"
        }
      ],
      "stateMutability": "view",
      "type": "function"
    },
    {
      "inputs": [],
      "name": "refPoolBalance",
      "outputs": [
        {
          "internalType": "uint256",
          "name": "",
          "type": "uint256"
        }
      ],
      "stateMutability": "view",
      "type": "function"
    },
    {
      "inputs": [
        {
          "internalType": "uint256",
          "name": "",
          "type": "uint256"
        }
      ],
      "name": "refPoolBonuses",
      "outputs": [
        {
          "internalType": "uint256",
          "name": "",
          "type": "uint256"
        }
      ],
      "stateMutability": "view",
      "type": "function"
    },
    {
      "inputs": [
        {
          "internalType": "uint256",
          "name": "",
          "type": "uint256"
        }
      ],
      "name": "refPoolUsers",
      "outputs": [
        {
          "internalType": "address",
          "name": "user",
          "type": "address"
        },
        {
          "internalType": "uint16",
          "name": "next",
          "type": "uint16"
        },
        {
          "internalType": "uint8",
          "name": "id",
          "type": "uint8"
        },
        {
          "internalType": "uint256",
          "name": "score",
          "type": "uint256"
        }
      ],
      "stateMutability": "view",
      "type": "function"
    },
    {
      "inputs": [],
      "name": "sponsorPoolBalance",
      "outputs": [
        {
          "internalType": "uint256",
          "name": "",
          "type": "uint256"
        }
      ],
      "stateMutability": "view",
      "type": "function"
    },
    {
      "inputs": [
        {
          "internalType": "uint256",
          "name": "",
          "type": "uint256"
        }
      ],
      "name": "sponsorPoolBonuses",
      "outputs": [
        {
          "internalType": "uint256",
          "name": "",
          "type": "uint256"
        }
      ],
      "stateMutability": "view",
      "type": "function"
    },
    {
      "inputs": [
        {
          "internalType": "uint256",
          "name": "",
          "type": "uint256"
        }
      ],
      "name": "sponsorPoolUsers",
      "outputs": [
        {
          "internalType": "address",
          "name": "user",
          "type": "address"
        },
        {
          "internalType": "uint16",
          "name": "next",
          "type": "uint16"
        },
        {
          "internalType": "uint8",
          "name": "id",
          "type": "uint8"
        },
        {
          "internalType": "uint256",
          "name": "score",
          "type": "uint256"
        }
      ],
      "stateMutability": "view",
      "type": "function"
    },
    {
      "inputs": [],
      "name": "totalDepositRewards",
      "outputs": [
        {
          "internalType": "uint256",
          "name": "",
          "type": "uint256"
        }
      ],
      "stateMutability": "view",
      "type": "function"
    },
    {
      "inputs": [],
      "name": "totalExited",
      "outputs": [
        {
          "internalType": "uint256",
          "name": "",
          "type": "uint256"
        }
      ],
      "stateMutability": "view",
      "type": "function"
    },
    {
      "inputs": [
        {
          "internalType": "address",
          "name": "",
          "type": "address"
        }
      ],
      "name": "users",
      "outputs": [
        {
          "internalType": "address",
          "name": "wallet",
          "type": "address"
        }
      ],
      "stateMutability": "view",
      "type": "function"
    }
  ],
  "bytecode": "0x6080604052600580546001600160a01b0319167364b8cb4c04ba902010856d913b4e5df940748bf217905534801561003657600080fd5b50611a7e806100466000396000f3fe608060405234801561001057600080fd5b50600436106101cd5760003560e01c806303162d2c146101d25780630781235a146101f05780630ac39f72146101f85780630f9fa6aa146101f057806312dd5fe4146101f0578063195c41a01461020057806327cfe8561461020a5780633ad10ef6146102125780633df936c914610227578063498dc5b51461022f5780634e8cfa601461023757806360246c881461024c57806363b815fa1461026457806365fcb49e1461026c57806369da94d8146102745780637247b2b91461027c5780637c8415901461028457806391994b2c1461028c5780639b6eec7d146102945780639c236aa81461029c578063a00d4980146102bf578063a0708a64146102c7578063a13a801a146102da578063a87430ba146102e2578063a9122af7146102f5578063aaf1a0da146102da578063b7272841146102fd578063b963ddb414610317578063cabea10d1461031f578063cd9a1b6314610334578063d5766ebd1461033c578063d82daec71461034f578063d902f40c14610357578063df5a75ef1461035f578063e523141114610372578063e7204ffb1461037a578063ed56f6a114610382578063f48e595a14610395578063fd0b82521461039d575b600080fd5b6101da6103b2565b6040516101e791906119eb565b60405180910390f35b6101da6103b8565b6101da6103be565b6102086103c3565b005b6101da6103db565b61021a6103e2565b6040516101e79190611850565b6101da6103f1565b6101da6103f7565b61023f6103fd565b6040516101e79190611a3a565b610254610402565b6040516101e79493929190611a13565b6101da610420565b6101da610426565b6101da61042c565b6101da610432565b61023f610438565b6101da61043d565b6101da610443565b6102af6102aa366004611794565b610449565b6040516101e79493929190611864565b6101da610494565b6102086102d5366004611743565b610499565b6101da6104cd565b61021a6102f036600461171c565b6104d2565b61021a6104ed565b6103056104fc565b6040516101e796959493929190611891565b6101da610919565b61032761091f565b6040516101e791906119dc565b6101da610929565b6101da61034a366004611794565b61092f565b6101da61094d565b6101da610953565b6101da61036d366004611794565b610958565b6101da610965565b61020861096a565b6102af610390366004611794565b610d20565b6101da610d2d565b6103a5610d32565b6040516101e79190611a02565b61a8c081565b61012c81565b600281565b6103cf600160006116a7565b6103d96001610d44565b565b6201518081565b6005546001600160a01b031681565b600c5481565b61138881565b600a81565b600a54600c54600b5463ffffffff620100008404169261ffff169293565b61271081565b60095481565b61924f81565b60025481565b600c81565b60035481565b6101f481565b6000818154811061045657fe5b6000918252602090912060029091020180546001909101546001600160a01b0382169250600160a01b820461ffff1691600160b01b900460ff169084565b600581565b6104a560018483610ddf565b6104bb576104b66001848484610f17565b6104c8565b6104c86001848484611054565b505050565b603281565b6006602052600090815260409020546001600160a01b031681565b6004546001600160a01b031681565b6060808080808080600a60405190808252806020026020018201604052801561052f578160200160208202803683370190505b5060408051600a8082526101608201909252919250606091906020820161014080368337505060408051600a808252610160820190925292935060609291506020820161014080368337505060408051600c8082526101a0820190925292935060609291506020820161018080368337505060408051600c8082526101a0820190925292935060609291506020820161018080368337505060408051600c8082526101a082019092529293506060929150602082016101808036833701905050905060006105fb6116cb565b60008261ffff168154811061060c57fe5b60009182526020918290206040805160808101825260029390930290910180546001600160a01b0381168452600160a01b810461ffff1694840194909452600160b01b90930460ff1690820152600190910154606082015290505b600a61ffff83161080156106825750602081015161ffff1615155b15610780576000816020015161ffff168154811061069c57fe5b60009182526020918290206040805160808101825260029390930290910180546001600160a01b038116808552600160a01b820461ffff90811696860196909652600160b01b90910460ff16928401929092526001015460608301528a51919350918a9190851690811061070c57fe5b60200260200101906001600160a01b031690816001600160a01b0316815250508060400151878361ffff168151811061074157fe5b602002602001019060ff16908160ff16815250508060600151868361ffff168151811061076a57fe5b6020908102919091010152600190910190610667565b6001805460009350839061079057fe5b60009182526020918290206040805160808101825260029390930290910180546001600160a01b0381168452600160a01b810461ffff1694840194909452600160b01b90930460ff1690820152600190910154606082015290505b600c61ffff83161080156108065750602081015161ffff1615155b15610904576001816020015161ffff168154811061082057fe5b60009182526020918290206040805160808101825260029390930290910180546001600160a01b038116808552600160a01b820461ffff90811696860196909652600160b01b90910460ff1692840192909252600101546060830152875191935091879190851690811061089057fe5b60200260200101906001600160a01b031690816001600160a01b0316815250508060400151848361ffff16815181106108c557fe5b602002602001019060ff16908160ff16815250508060600151838361ffff16815181106108ee57fe5b60209081029190910101526001909101906107eb565b50959c949b5092995090975095509350915050565b61032081565b600a5461ffff1681565b600d5481565b6007818154811061093c57fe5b600091825260209091200154905081565b600b5481565b600181565b6008818154811061093c57fe5b606481565b600a546201518063ffffffff62010000909204821601164211156103d9576109906116cb565b600160008154811061099e57fe5b600091825260208083206040805160808101825260029490940290910180546001600160a01b0381168552600160a01b810461ffff1693850193909352600160b01b90920460ff169083015260010154606082015291505b600c61ffff8216108015610a115750602082015161ffff1615155b15610b6a576001826020015161ffff1681548110610a2b57fe5b600091825260209182902060408051608081018252600290930290910180546001600160a01b038116845261ffff600160a01b820481169585019590955260ff600160b01b9091041691830191909152600101546060820152600b5460078054929550610b1093610ab293908616908110610aa257fe5b90600052602060002001546111cd565b6006600085600001516001600160a01b03166001600160a01b03168152602001908152602001600020600101846040015160ff1681548110610af057fe5b9060005260206000209060050201600401546111ee90919063ffffffff16565b6006600084600001516001600160a01b03166001600160a01b03168152602001908152602001600020600101836040015160ff1681548110610b4e57fe5b60009182526020909120600460059092020101556001016109f6565b60008081548110610b7757fe5b600091825260208083206040805160808101825260029490940290910180546001600160a01b0381168552600160a01b810461ffff1693850193909352600160b01b90920460ff1690830152600101546060820152925090505b600a61ffff8216108015610bec5750602082015161ffff1615155b15610cd7576000826020015161ffff1681548110610c0657fe5b600091825260209182902060408051608081018252600290930290910180546001600160a01b038116845261ffff600160a01b820481169585019590955260ff600160b01b9091041691830191909152600101546060820152600c5460088054929550610c7d93610ab293908616908110610aa257fe5b6006600084600001516001600160a01b03166001600160a01b03168152602001908152602001600020600101836040015160ff1681548110610cbb57fe5b6000918252602090912060046005909202010155600101610bd1565b7f505fb5b242804521f868b1210d5697cefabaa21c3f697207aa5c02dc549116e2600b54600c54604051610d0c9291906119f4565b60405180910390a1610d1c61121c565b5050565b6001818154811061045657fe5b60fa81565b600a5462010000900463ffffffff1681565b604080516080810182526000808252602080830182815293830182815260608401838152865460018181018955978552929093209351600290920290930180549451935160ff16600160b01b0260ff60b01b1961ffff95909516600160a01b0261ffff60a01b196001600160a01b03949094166001600160a01b03199097169690961792909216949094179290921691909117825551910155565b6000610de96116cb565b84600061ffff1681548110610dfa57fe5b600091825260208083206040805160808101825260029490940290910180546001600160a01b0381168552600160a01b810461ffff1693850193909352600160b01b90920460ff169083015260010154606082015291505b602082015161ffff1615610f0e57846001600160a01b031682600001516001600160a01b0316148015610e8e57508360ff16826040015160ff16145b15610e9b57506001610f0e565b85826020015161ffff1681548110610eaf57fe5b60009182526020918290206040805160808101825260029390930290910180546001600160a01b0381168452600160a01b810461ffff1694840194909452600160b01b90930460ff169082015260019091015460608201529150610e52565b95945050505050565b6000610f23858461126a565b9050610f3085848361139c565b610f3957600080fd5b846040518060800160405280866001600160a01b03168152602001878461ffff1681548110610f6457fe5b600091825260208083206002928302015461ffff600160a01b918290048116865260ff808b168785015260409687018c9052885460018181018b559987529584902088519690950290940180549388015196880151909416600160b01b0260ff60b01b199690911690910261ffff60a01b196001600160a01b039095166001600160a01b03199093169290921793909316179290921617815560609091015190820155855461101291611431565b858261ffff168154811061102257fe5b906000526020600020906002020160000160146101000a81548161ffff021916908361ffff1602179055505050505050565b600080611062868685611473565b915091508161ffff16868261ffff168154811061107b57fe5b6000918252602090912060029091020154600160a01b900461ffff16146110a157600080fd5b846001600160a01b0316868361ffff16815481106110bb57fe5b60009182526020909120600290910201546001600160a01b0316146110df57600080fd5b8260ff16868361ffff16815481106110f357fe5b6000918252602090912060029091020154600160b01b900460ff161461111857600080fd5b61114c868361ffff168154811061112b57fe5b906000526020600020906002020160010154856111ee90919063ffffffff16565b9350858261ffff168154811061115e57fe5b906000526020600020906002020160000160149054906101000a900461ffff16868261ffff168154811061118e57fe5b906000526020600020906002020160000160146101000a81548161ffff021916908361ffff1602179055506111c586868686610f17565b505050505050565b60006111e56127106111df85856115b6565b906115f0565b90505b92915050565b6000828201838110156111e55760405162461bcd60e51b815260040161121390611966565b60405180910390fd5b61122461162f565b61122c6103c3565b6000600b819055600c55600a805461ffff1965ffffffff000019909116620100004263ffffffff160217908116600161ffff92831601909116179055565b60006112746116cb565b83600061ffff168154811061128557fe5b600091825260208083206040805160808101825260029490940290910180546001600160a01b0381168552600160a01b810461ffff1693850193909352600160b01b90920460ff169083015260010154606082015291505b602082015161ffff161580159061131857508385836020015161ffff168154811061130457fe5b906000526020600020906002020160010154115b15611394575060208101518454859061ffff831690811061133557fe5b60009182526020918290206040805160808101825260029390930290910180546001600160a01b0381168452600160a01b810461ffff1694840194909452600160b01b90930460ff1690820152600190910154606082015291506112dd565b949350505050565b600061ffff821615806113945750838261ffff16815481106113ba57fe5b9060005260206000209060020201600101548311158015611394575083848361ffff16815481106113e757fe5b906000526020600020906002020160000160149054906101000a900461ffff1661ffff168154811061141557fe5b9060005260206000209060020201600101548311949350505050565b60006111e583836040518060400160405280601e81526020017f536166654d6174683a207375627472616374696f6e206f766572666c6f770000815250611644565b60008061147e6116cb565b85600061ffff168154811061148f57fe5b600091825260208083206040805160808101825260029490940290910180546001600160a01b0381168552600160a01b810461ffff1693850193909352600160b01b90920460ff16908301526001015460608201529150805b602083015161ffff161580159061152a5750866001600160a01b031683600001516001600160a01b031614801561152857508560ff16836040015160ff16145b155b156115a9575060208201518754909190889061ffff841690811061154a57fe5b60009182526020918290206040805160808101825260029390930290910180546001600160a01b0381168452600160a01b810461ffff1694840194909452600160b01b90930460ff1690820152600190910154606082015292506114e8565b9097909650945050505050565b6000826115c5575060006111e8565b828202828482816115d257fe5b04146111e55760405162461bcd60e51b81526004016112139061199b565b60006111e583836040518060400160405280601a815260200179536166654d6174683a206469766973696f6e206279207a65726f60301b815250611670565b61163a6000806116a7565b6103d96000610d44565b600081848411156116685760405162461bcd60e51b81526004016112139190611913565b505050900390565b600081836116915760405162461bcd60e51b81526004016112139190611913565b50600083858161169d57fe5b0495945050505050565b50805460008255600202906000526020600020908101906116c891906116f2565b50565b60408051608081018252600080825260208201819052918101829052606081019190915290565b5b808211156117185780546001600160b81b0319168155600060018201556002016116f3565b5090565b60006020828403121561172d578081fd5b81356001600160a01b03811681146111e5578182fd5b600080600060608486031215611757578182fd5b83356001600160a01b038116811461176d578283fd5b925060208401359150604084013560ff81168114611789578182fd5b809150509250925092565b6000602082840312156117a5578081fd5b5035919050565b6000815180845260208085019450808401835b838110156117e45781516001600160a01b0316875295820195908201906001016117bf565b509495945050505050565b6000815180845260208085019450808401835b838110156117e457815187529582019590820190600101611802565b6000815180845260208085019450808401835b838110156117e457815160ff1687529582019590820190600101611831565b6001600160a01b0391909116815260200190565b6001600160a01b0394909416845261ffff92909216602084015260ff166040830152606082015260800190565b600060c082526118a460c08301896117ac565b82810360208401526118b6818961181e565b905082810360408401526118ca81886117ef565b905082810360608401526118de81876117ac565b905082810360808401526118f2818661181e565b905082810360a084015261190681856117ef565b9998505050505050505050565b6000602080835283518082850152825b8181101561193f57858101830151858201604001528201611923565b818111156119505783604083870101525b50601f01601f1916929092016040019392505050565b6020808252601b908201527a536166654d6174683a206164646974696f6e206f766572666c6f7760281b604082015260600190565b60208082526021908201527f536166654d6174683a206d756c7469706c69636174696f6e206f766572666c6f6040820152607760f81b606082015260800190565b61ffff91909116815260200190565b90815260200190565b918252602082015260400190565b63ffffffff91909116815260200190565b63ffffffff94909416845261ffff9290921660208401526040830152606082015260800190565b60ff9190911681526020019056fea2646970667358221220a93fff5d97602040b713f29505635e2dc7927135bda825c4789d8372dd6ac48164736f6c634300060c0033",
  "compiler": {
    "name": "solc",
    "version": "0.6.12+commit.27d51765.Emscripten.clang",
    "optimizer": {
      "enabled": true,
      "runs": 1
    },
    "evmVersion": "petersburg"
  }
}