{
  "fileName": "Pools.sol",
  "contractName": "Pools",
  "source": "// SPDX-License-Identifier: MIT\npragma solidity ^0.6.12;\n\nimport \"./SharedVariables.sol\";\n\n\ncontract Pools is SharedVariables {\n\n    function _resetPools() internal {\n        for (uint i = 0; i < refPoolBonuses.length; i++) {\n            refPoolUsers[i].user = address(0);\n            refPoolUsers[i].stakeId = 0;\n        }\n\n        for (uint i = 0; i < sponsorPoolBonuses.length; i++) {\n            sponsorPoolUsers[i].user = address(0);\n            refPoolUsers[i].stakeId = 0;\n        }\n\n        refPoolBalance = 0;\n        sponsorPoolBalance = 0;\n        poolDrewAt = block.timestamp;\n    }\n\n    function _updateSponsorPoolUsers(User memory user, Stake memory stake) internal {\n        if (\n            sponsorPoolUsers[sponsorPoolUsers.length.sub(1)].user == address(0) ||\n            stake.sponsorPool.amount > users[sponsorPoolUsers[sponsorPoolUsers.length.sub(1)].user].stakes[sponsorPoolUsers[sponsorPoolUsers.length.sub(1)].stakeId].sponsorPool.amount\n        ) { // either last user is not set or last user's sponsor balance is less then this user\n\n            PoolUser memory shiftUser;\n\n            for (uint i = 0; i < sponsorPoolUsers.length; i++) {\n\n                if (sponsorPoolUsers[i].user == address(0)) {\n                    sponsorPoolUsers[i].user = user.wallet;\n                    sponsorPoolUsers[i].stakeId = stake.id;\n                    break;\n                }\n\n                if (stake.sponsorPool.amount > users[sponsorPoolUsers[i].user].stakes[sponsorPoolUsers[i].stakeId].sponsorPool.amount) {\n                    shiftUser = sponsorPoolUsers[i];\n                    sponsorPoolUsers[i].user = user.wallet;\n                    sponsorPoolUsers[i].stakeId = stake.id;\n                    PoolUser memory nextUser;\n                    for (uint j = i; i < sponsorPoolUsers.length; j++) {\n\n                        if (shiftUser.user == address(0)) {\n                            break;\n                        }\n\n                        nextUser = sponsorPoolUsers[j];\n                        sponsorPoolUsers[j] = shiftUser;\n                        shiftUser = nextUser;\n                    }\n//                    _shiftPool(i, shiftUser, sponsorPoolUsers);\n                    break;\n                }\n            }\n        }\n    }\n\n    // Reorganise top ref-pool users to draw pool for\n    function _updateRefPoolUsers(User memory user, Stake memory stake) internal {\n        if (\n            refPoolUsers[refPoolUsers.length - 1].user == address(0) ||\n            stake.refPool.amount > users[refPoolUsers[refPoolUsers.length - 1].user].stakes[refPoolUsers[refPoolUsers.length - 1].stakeId].refPool.amount\n        ) { // either last user is not set or last user's ref balance is less then this user\n\n            PoolUser memory shiftUser;\n\n            for (uint i = 0; i < refPoolUsers.length; i++) {\n\n                if (refPoolUsers[i].user == address(0)) {\n                    refPoolUsers[i].user = user.wallet;\n                    refPoolUsers[i].stakeId = stake.id;\n                    break;\n                }\n\n                if (stake.refPool.amount > users[refPoolUsers[i].user].stakes[refPoolUsers[i].stakeId].refPool.amount) {\n                    shiftUser = refPoolUsers[i];\n                    refPoolUsers[i].user = user.wallet;\n                    refPoolUsers[i].stakeId = stake.id;\n                    PoolUser memory nextUser;\n                    for (uint j = i; i < refPoolUsers.length; j++) {\n\n                        if (shiftUser.user == address(0)) {\n                            break;\n                        }\n\n                        nextUser = refPoolUsers[j];\n                        refPoolUsers[j] = shiftUser;\n                        shiftUser = nextUser;\n                    }\n//                    _shiftPool(i, shiftUser, refPoolUsers);\n                    break;\n                }\n            }\n        }\n    }\n\n    function drawPool() public {\n        if (block.timestamp > poolDrewAt + 1 days) {\n            for (uint i = 0; i < refPoolUsers.length; i++) {\n                if (refPoolUsers[i].user == address(0)) break;\n\n                User storage user = users[refPoolUsers[i].user];\n                user.stakes[refPoolUsers[i].stakeId].refPoolRewards = user.stakes[refPoolUsers[i].stakeId].refPoolRewards.add(_calcPercentage(refPoolBalance, refPoolBonuses[i]));\n            }\n\n            for (uint i = 0; i < sponsorPoolUsers.length; i++) {\n                if (sponsorPoolUsers[i].user == address(0)) break;\n\n                User storage user = users[sponsorPoolUsers[i].user];\n                user.stakes[sponsorPoolUsers[i].stakeId].sponsorPoolRewards = user.stakes[sponsorPoolUsers[i].stakeId].sponsorPoolRewards.add(_calcPercentage(sponsorPoolBalance, sponsorPoolBonuses[i]));\n            }\n\n            totalRefPoolRewards = totalRefPoolRewards.add(refPoolBalance);\n            totalSponsorPoolRewards = totalSponsorPoolRewards.add(sponsorPoolBalance);\n\n            _resetPools();\n        }\n    }\n}\n",
  "sourcePath": "contracts/Pools.sol",
  "abi": [
    {
      "anonymous": false,
      "inputs": [
        {
          "indexed": false,
          "internalType": "address",
          "name": "user",
          "type": "address"
        },
        {
          "indexed": false,
          "internalType": "address",
          "name": "uplink",
          "type": "address"
        },
        {
          "indexed": false,
          "internalType": "uint256",
          "name": "amount",
          "type": "uint256"
        }
      ],
      "name": "Deposit",
      "type": "event"
    },
    {
      "anonymous": false,
      "inputs": [
        {
          "indexed": false,
          "internalType": "address",
          "name": "user",
          "type": "address"
        }
      ],
      "name": "Exited",
      "type": "event"
    },
    {
      "anonymous": false,
      "inputs": [
        {
          "indexed": false,
          "internalType": "address",
          "name": "user",
          "type": "address"
        },
        {
          "indexed": false,
          "internalType": "uint256",
          "name": "amount",
          "type": "uint256"
        }
      ],
      "name": "ReInvest",
      "type": "event"
    },
    {
      "anonymous": false,
      "inputs": [
        {
          "indexed": false,
          "internalType": "address",
          "name": "user",
          "type": "address"
        },
        {
          "indexed": false,
          "internalType": "uint256",
          "name": "amount",
          "type": "uint256"
        }
      ],
      "name": "Withdraw",
      "type": "event"
    },
    {
      "inputs": [],
      "name": "CONTRACT_BONUS_PER_UNIT_BP",
      "outputs": [
        {
          "internalType": "uint256",
          "name": "",
          "type": "uint256"
        }
      ],
      "stateMutability": "view",
      "type": "function"
    },
    {
      "inputs": [],
      "name": "CONTRACT_BONUS_UNIT",
      "outputs": [
        {
          "internalType": "uint256",
          "name": "",
          "type": "uint256"
        }
      ],
      "stateMutability": "view",
      "type": "function"
    },
    {
      "inputs": [],
      "name": "DAY",
      "outputs": [
        {
          "internalType": "uint256",
          "name": "",
          "type": "uint256"
        }
      ],
      "stateMutability": "view",
      "type": "function"
    },
    {
      "inputs": [],
      "name": "DEV_FEE_BP",
      "outputs": [
        {
          "internalType": "uint256",
          "name": "",
          "type": "uint256"
        }
      ],
      "stateMutability": "view",
      "type": "function"
    },
    {
      "inputs": [],
      "name": "EXIT_PENALTY_BP",
      "outputs": [
        {
          "internalType": "uint256",
          "name": "",
          "type": "uint256"
        }
      ],
      "stateMutability": "view",
      "type": "function"
    },
    {
      "inputs": [],
      "name": "HOLD_BONUS_PER_UNIT_BP",
      "outputs": [
        {
          "internalType": "uint256",
          "name": "",
          "type": "uint256"
        }
      ],
      "stateMutability": "view",
      "type": "function"
    },
    {
      "inputs": [],
      "name": "HOLD_BONUS_UNIT",
      "outputs": [
        {
          "internalType": "uint256",
          "name": "",
          "type": "uint256"
        }
      ],
      "stateMutability": "view",
      "type": "function"
    },
    {
      "inputs": [],
      "name": "LP_FEE_BP",
      "outputs": [
        {
          "internalType": "uint256",
          "name": "",
          "type": "uint256"
        }
      ],
      "stateMutability": "view",
      "type": "function"
    },
    {
      "inputs": [],
      "name": "MAX_CONTRACT_BONUS_BP",
      "outputs": [
        {
          "internalType": "uint256",
          "name": "",
          "type": "uint256"
        }
      ],
      "stateMutability": "view",
      "type": "function"
    },
    {
      "inputs": [],
      "name": "MAX_CONTRACT_REWARD_BP",
      "outputs": [
        {
          "internalType": "uint256",
          "name": "",
          "type": "uint256"
        }
      ],
      "stateMutability": "view",
      "type": "function"
    },
    {
      "inputs": [],
      "name": "MAX_HOLD_BONUS_BP",
      "outputs": [
        {
          "internalType": "uint256",
          "name": "",
          "type": "uint256"
        }
      ],
      "stateMutability": "view",
      "type": "function"
    },
    {
      "inputs": [],
      "name": "MAX_WITHDRAWAL_OVER_REWARD_THRESHOLD_BP",
      "outputs": [
        {
          "internalType": "uint256",
          "name": "",
          "type": "uint256"
        }
      ],
      "stateMutability": "view",
      "type": "function"
    },
    {
      "inputs": [],
      "name": "PERCENT_MULTIPLIER",
      "outputs": [
        {
          "internalType": "uint256",
          "name": "",
          "type": "uint256"
        }
      ],
      "stateMutability": "view",
      "type": "function"
    },
    {
      "inputs": [],
      "name": "REF_COMMISSION_BP",
      "outputs": [
        {
          "internalType": "uint256",
          "name": "",
          "type": "uint256"
        }
      ],
      "stateMutability": "view",
      "type": "function"
    },
    {
      "inputs": [],
      "name": "REF_POOL_FEE_BP",
      "outputs": [
        {
          "internalType": "uint256",
          "name": "",
          "type": "uint256"
        }
      ],
      "stateMutability": "view",
      "type": "function"
    },
    {
      "inputs": [],
      "name": "REWARD_THRESHOLD_BP",
      "outputs": [
        {
          "internalType": "uint256",
          "name": "",
          "type": "uint256"
        }
      ],
      "stateMutability": "view",
      "type": "function"
    },
    {
      "inputs": [],
      "name": "SPONSOR_POOL_FEE_BP",
      "outputs": [
        {
          "internalType": "uint256",
          "name": "",
          "type": "uint256"
        }
      ],
      "stateMutability": "view",
      "type": "function"
    },
    {
      "inputs": [],
      "name": "devAddress",
      "outputs": [
        {
          "internalType": "address",
          "name": "",
          "type": "address"
        }
      ],
      "stateMutability": "view",
      "type": "function"
    },
    {
      "inputs": [],
      "name": "drawPool",
      "outputs": [],
      "stateMutability": "nonpayable",
      "type": "function"
    },
    {
      "inputs": [],
      "name": "fourRXToken",
      "outputs": [
        {
          "internalType": "contract IERC20",
          "name": "",
          "type": "address"
        }
      ],
      "stateMutability": "view",
      "type": "function"
    },
    {
      "inputs": [],
      "name": "maxContractBalance",
      "outputs": [
        {
          "internalType": "uint256",
          "name": "",
          "type": "uint256"
        }
      ],
      "stateMutability": "view",
      "type": "function"
    },
    {
      "inputs": [],
      "name": "poolCycle",
      "outputs": [
        {
          "internalType": "uint256",
          "name": "",
          "type": "uint256"
        }
      ],
      "stateMutability": "view",
      "type": "function"
    },
    {
      "inputs": [],
      "name": "poolDrewAt",
      "outputs": [
        {
          "internalType": "uint256",
          "name": "",
          "type": "uint256"
        }
      ],
      "stateMutability": "view",
      "type": "function"
    },
    {
      "inputs": [],
      "name": "refPoolBalance",
      "outputs": [
        {
          "internalType": "uint256",
          "name": "",
          "type": "uint256"
        }
      ],
      "stateMutability": "view",
      "type": "function"
    },
    {
      "inputs": [
        {
          "internalType": "uint256",
          "name": "",
          "type": "uint256"
        }
      ],
      "name": "refPoolBonuses",
      "outputs": [
        {
          "internalType": "uint256",
          "name": "",
          "type": "uint256"
        }
      ],
      "stateMutability": "view",
      "type": "function"
    },
    {
      "inputs": [
        {
          "internalType": "uint256",
          "name": "",
          "type": "uint256"
        }
      ],
      "name": "refPoolUsers",
      "outputs": [
        {
          "internalType": "address",
          "name": "user",
          "type": "address"
        },
        {
          "internalType": "uint256",
          "name": "stakeId",
          "type": "uint256"
        }
      ],
      "stateMutability": "view",
      "type": "function"
    },
    {
      "inputs": [],
      "name": "sponsorPoolBalance",
      "outputs": [
        {
          "internalType": "uint256",
          "name": "",
          "type": "uint256"
        }
      ],
      "stateMutability": "view",
      "type": "function"
    },
    {
      "inputs": [
        {
          "internalType": "uint256",
          "name": "",
          "type": "uint256"
        }
      ],
      "name": "sponsorPoolBonuses",
      "outputs": [
        {
          "internalType": "uint256",
          "name": "",
          "type": "uint256"
        }
      ],
      "stateMutability": "view",
      "type": "function"
    },
    {
      "inputs": [
        {
          "internalType": "uint256",
          "name": "",
          "type": "uint256"
        }
      ],
      "name": "sponsorPoolUsers",
      "outputs": [
        {
          "internalType": "address",
          "name": "user",
          "type": "address"
        },
        {
          "internalType": "uint256",
          "name": "stakeId",
          "type": "uint256"
        }
      ],
      "stateMutability": "view",
      "type": "function"
    },
    {
      "inputs": [],
      "name": "totalActiveStakes",
      "outputs": [
        {
          "internalType": "uint256",
          "name": "",
          "type": "uint256"
        }
      ],
      "stateMutability": "view",
      "type": "function"
    },
    {
      "inputs": [],
      "name": "totalDepositRewards",
      "outputs": [
        {
          "internalType": "uint256",
          "name": "",
          "type": "uint256"
        }
      ],
      "stateMutability": "view",
      "type": "function"
    },
    {
      "inputs": [],
      "name": "totalDeposits",
      "outputs": [
        {
          "internalType": "uint256",
          "name": "",
          "type": "uint256"
        }
      ],
      "stateMutability": "view",
      "type": "function"
    },
    {
      "inputs": [],
      "name": "totalExited",
      "outputs": [
        {
          "internalType": "uint256",
          "name": "",
          "type": "uint256"
        }
      ],
      "stateMutability": "view",
      "type": "function"
    },
    {
      "inputs": [],
      "name": "totalPenalty",
      "outputs": [
        {
          "internalType": "uint256",
          "name": "",
          "type": "uint256"
        }
      ],
      "stateMutability": "view",
      "type": "function"
    },
    {
      "inputs": [],
      "name": "totalRefPoolRewards",
      "outputs": [
        {
          "internalType": "uint256",
          "name": "",
          "type": "uint256"
        }
      ],
      "stateMutability": "view",
      "type": "function"
    },
    {
      "inputs": [],
      "name": "totalRefRewards",
      "outputs": [
        {
          "internalType": "uint256",
          "name": "",
          "type": "uint256"
        }
      ],
      "stateMutability": "view",
      "type": "function"
    },
    {
      "inputs": [],
      "name": "totalSponsorPoolRewards",
      "outputs": [
        {
          "internalType": "uint256",
          "name": "",
          "type": "uint256"
        }
      ],
      "stateMutability": "view",
      "type": "function"
    },
    {
      "inputs": [],
      "name": "totalStakes",
      "outputs": [
        {
          "internalType": "uint256",
          "name": "",
          "type": "uint256"
        }
      ],
      "stateMutability": "view",
      "type": "function"
    },
    {
      "inputs": [],
      "name": "totalWithdrawn",
      "outputs": [
        {
          "internalType": "uint256",
          "name": "",
          "type": "uint256"
        }
      ],
      "stateMutability": "view",
      "type": "function"
    },
    {
      "inputs": [
        {
          "internalType": "address",
          "name": "",
          "type": "address"
        }
      ],
      "name": "users",
      "outputs": [
        {
          "internalType": "address",
          "name": "wallet",
          "type": "address"
        }
      ],
      "stateMutability": "view",
      "type": "function"
    }
  ],
  "bytecode": "0x6080604052600b80546001600160a01b0319167364b8cb4c04ba902010856d913b4e5df940748bf217905534801561003657600080fd5b50610a49806100466000396000f3fe608060405234801561001057600080fd5b50600436106101d85760003560e01c806303162d2c146101dd5780630781235a146101f75780630ac39f72146101ff5780630f9fa6aa146101f757806312dd5fe4146101f75780631f079e01146102075780632673ebf71461020f57806327cfe856146102175780633ad10ef61461021f5780633df936c914610243578063498dc5b51461024b5780634b3197131461025357806363b815fa1461025b57806365fcb49e1461026357806369da94d81461026b5780637247b2b9146102735780637d8820971461027b5780638876bb3e1461028357806391994b2c1461028b5780639b6eec7d146102935780639c236aa81461029b578063a00d4980146102db578063a13a801a146102e3578063a87430ba146102eb578063a9122af714610311578063aaf1a0da146102e3578063b963ddb414610319578063bf9befb114610321578063bfe0e02014610329578063cabea10d14610331578063d5766ebd14610339578063d82daec714610356578063d902f40c1461035e578063df5a75ef14610366578063e523141114610383578063e6af61c81461038b578063e7204ffb14610393578063ed56f6a11461039d578063f48e595a146103ba578063fd0b8252146103c2575b600080fd5b6101e56103ca565b60408051918252519081900360200190f35b6101e56103d0565b6101e56103d6565b6101e56103db565b6101e56103e1565b6101e56103e7565b6102276103ee565b604080516001600160a01b039092168252519081900360200190f35b6101e56103fd565b6101e5610403565b6101e5610409565b6101e561040f565b6101e5610415565b6101e561041b565b6101e5610421565b6101e5610427565b6101e561042d565b6101e5610433565b6101e5610439565b6102b8600480360360208110156102b157600080fd5b503561043f565b604080516001600160a01b03909316835260208301919091528051918290030190f35b6101e5610468565b6101e561046d565b6102276004803603602081101561030157600080fd5b50356001600160a01b0316610472565b61022761048d565b6101e561049c565b6101e56104a2565b6101e56104a8565b6101e56104ae565b6101e56004803603602081101561034f57600080fd5b50356104b4565b6101e56104d2565b6101e56104d8565b6101e56004803603602081101561037c57600080fd5b50356104dd565b6101e56104ea565b6101e56104ef565b61039b6104f5565b005b6102b8600480360360208110156103b357600080fd5b5035610750565b6101e561075d565b6101e5610762565b61a8c081565b61012c81565b600281565b60035481565b60055481565b6201518081565b600b546001600160a01b031681565b603f5481565b61138881565b60015481565b61271081565b603b5481565b61924f81565b60075481565b60005481565b60065481565b60095481565b6101f481565b602581600a811061044c57fe5b6002020180546001909101546001600160a01b03909116915082565b600581565b603281565b600c602052600090815260409020546001600160a01b031681565b600a546001600160a01b031681565b61032081565b60025481565b60045481565b603c5481565b603981815481106104c157fe5b600091825260209091200154905081565b603e5481565b600181565b603a81815481106104c157fe5b606481565b60085481565b603d54620151800142111561074e5760005b600c81101561061a576000600d82600c811061051f57fe5b60020201546001600160a01b031614156105385761061a565b6000600c6000600d84600c811061054b57fe5b60020201546001600160a01b031681526020810191909152604001600020603e54603980549293506105da926105979291908690811061058757fe5b9060005260206000200154610768565b82600101600d85600c81106105a857fe5b6002020160010154815481106105ba57fe5b90600052602060002090601102016007015461078990919063ffffffff16565b81600101600d84600c81106105eb57fe5b6002020160010154815481106105fd57fe5b600091825260209091206007601190920201015550600101610507565b5060005b600a811015610721576000602582600a811061063657fe5b60020201546001600160a01b0316141561064f57610721565b6000600c6000602584600a811061066257fe5b60020201546001600160a01b031681526020810191909152604001600020603f54603a80549293506106e19261069e9291908690811061058757fe5b82600101602585600a81106106af57fe5b6002020160010154815481106106c157fe5b90600052602060002090601102016008015461078990919063ffffffff16565b81600101602584600a81106106f257fe5b60020201600101548154811061070457fe5b60009182526020909120600860119092020101555060010161061e565b50603e5460055461073191610789565b600555603f5460065461074391610789565b60065561074e6107e1565b565b600d81600c811061044c57fe5b60fa81565b603d5481565b600061078061271061077a85856108bd565b90610916565b90505b92915050565b600082820183811015610780576040805162461bcd60e51b815260206004820152601b60248201527a536166654d6174683a206164646974696f6e206f766572666c6f7760281b604482015290519081900360640190fd5b60005b603954811015610846576000600d82600c81106107fd57fe5b6002020180546001600160a01b0319166001600160a01b03929092169190911790556000600d82600c811061082e57fe5b600202016001018190555080806001019150506107e4565b5060005b603a548110156108ac576000602582600a811061086357fe5b6002020180546001600160a01b0319166001600160a01b03929092169190911790556000600d82600c811061089457fe5b6002020160010181905550808060010191505061084a565b506000603e819055603f5542603d55565b6000826108cc57506000610783565b828202828482816108d957fe5b04146107805760405162461bcd60e51b81526004018080602001828103825260218152602001806109f36021913960400191505060405180910390fd5b600061078083836040518060400160405280601a815260200179536166654d6174683a206469766973696f6e206279207a65726f60301b815250600081836109dc5760405162461bcd60e51b81526004018080602001828103825283818151815260200191508051906020019080838360005b838110156109a1578181015183820152602001610989565b50505050905090810190601f1680156109ce5780820380516001836020036101000a031916815260200191505b509250505060405180910390fd5b5060008385816109e857fe5b049594505050505056fe536166654d6174683a206d756c7469706c69636174696f6e206f766572666c6f77a26469706673582212205b5c0f1fb256352b8eec0e3a2321b524929a97c217f54da7a189ecdd4ca87c8a64736f6c634300060c0033",
  "compiler": {
    "name": "solc",
    "version": "0.6.12+commit.27d51765.Emscripten.clang",
    "optimizer": {
      "enabled": true,
      "runs": 1
    },
    "evmVersion": "petersburg"
  }
}