{
  "fileName": "ReferralPool.sol",
  "contractName": "ReferralPool",
  "source": "// SPDX-License-Identifier: MIT\npragma solidity ^0.6.12;\n\nimport \"../libs/SortedLinkedList.sol\";\n\n\ncontract ReferralPool {\n\n    SortedLinkedList.Item[] public refPoolUsers;\n\n    function _addRefPoolRecord(address user, uint amount, uint8 stakeId) public {\n        if (!SortedLinkedList.isInList(refPoolUsers, user, stakeId)) {\n            SortedLinkedList.addNode(refPoolUsers, user, amount, stakeId);\n        } else {\n            SortedLinkedList.updateNode(refPoolUsers, user, amount, stakeId);\n        }\n    }\n\n    function _cleanRefPoolUsers() public {\n        delete refPoolUsers;\n        SortedLinkedList.initNodes(refPoolUsers);\n    }\n}\n",
  "sourcePath": "contracts/Pools/ReferralPool.sol",
  "abi": [
    {
      "inputs": [
        {
          "internalType": "address",
          "name": "user",
          "type": "address"
        },
        {
          "internalType": "uint256",
          "name": "amount",
          "type": "uint256"
        },
        {
          "internalType": "uint8",
          "name": "stakeId",
          "type": "uint8"
        }
      ],
      "name": "_addRefPoolRecord",
      "outputs": [],
      "stateMutability": "nonpayable",
      "type": "function"
    },
    {
      "inputs": [],
      "name": "_cleanRefPoolUsers",
      "outputs": [],
      "stateMutability": "nonpayable",
      "type": "function"
    },
    {
      "inputs": [
        {
          "internalType": "uint256",
          "name": "",
          "type": "uint256"
        }
      ],
      "name": "refPoolUsers",
      "outputs": [
        {
          "internalType": "address",
          "name": "user",
          "type": "address"
        },
        {
          "internalType": "uint16",
          "name": "next",
          "type": "uint16"
        },
        {
          "internalType": "uint8",
          "name": "id",
          "type": "uint8"
        },
        {
          "internalType": "uint256",
          "name": "score",
          "type": "uint256"
        }
      ],
      "stateMutability": "view",
      "type": "function"
    }
  ],
  "bytecode": "0x608060405234801561001057600080fd5b50610ae3806100206000396000f3fe608060405234801561001057600080fd5b50600436106100415760003560e01c8063195c41a014610046578063a0708a6414610050578063ed56f6a114610085575b600080fd5b61004e6100d7565b005b61004e6004803603606081101561006657600080fd5b5080356001600160a01b0316906020810135906040013560ff166100ee565b6100a26004803603602081101561009b57600080fd5b5035610122565b604080516001600160a01b03909516855261ffff909316602085015260ff909116838301526060830152519081900360800190f35b6100e2600080610a38565b6100ec600061016d565b565b6100fa60008483610208565b6101105761010b6000848484610340565b61011d565b61011d600084848461047d565b505050565b6000818154811061012f57fe5b6000918252602090912060029091020180546001909101546001600160a01b0382169250600160a01b820461ffff1691600160b01b900460ff169084565b604080516080810182526000808252602080830182815293830182815260608401838152865460018181018955978552929093209351600290920290930180549451935160ff16600160b01b0260ff60b01b1961ffff95909516600160a01b0261ffff60a01b196001600160a01b03949094166001600160a01b03199097169690961792909216949094179290921691909117825551910155565b6000610212610a5c565b84600061ffff168154811061022357fe5b600091825260208083206040805160808101825260029490940290910180546001600160a01b0381168552600160a01b810461ffff1693850193909352600160b01b90920460ff169083015260010154606082015291505b602082015161ffff161561033757846001600160a01b031682600001516001600160a01b03161480156102b757508360ff16826040015160ff16145b156102c457506001610337565b85826020015161ffff16815481106102d857fe5b60009182526020918290206040805160808101825260029390930290910180546001600160a01b0381168452600160a01b810461ffff1694840194909452600160b01b90930460ff16908201526001909101546060820152915061027b565b95945050505050565b600061034c85846105f6565b9050610359858483610728565b61036257600080fd5b846040518060800160405280866001600160a01b03168152602001878461ffff168154811061038d57fe5b600091825260208083206002928302015461ffff600160a01b918290048116865260ff808b168785015260409687018c9052885460018181018b559987529584902088519690950290940180549388015196880151909416600160b01b0260ff60b01b199690911690910261ffff60a01b196001600160a01b039095166001600160a01b03199093169290921793909316179290921617815560609091015190820155855461043b916107bd565b858261ffff168154811061044b57fe5b906000526020600020906002020160000160146101000a81548161ffff021916908361ffff1602179055505050505050565b60008061048b868685610806565b915091508161ffff16868261ffff16815481106104a457fe5b6000918252602090912060029091020154600160a01b900461ffff16146104ca57600080fd5b846001600160a01b0316868361ffff16815481106104e457fe5b60009182526020909120600290910201546001600160a01b03161461050857600080fd5b8260ff16868361ffff168154811061051c57fe5b6000918252602090912060029091020154600160b01b900460ff161461054157600080fd5b610575868361ffff168154811061055457fe5b9060005260206000209060020201600101548561094990919063ffffffff16565b9350858261ffff168154811061058757fe5b906000526020600020906002020160000160149054906101000a900461ffff16868261ffff16815481106105b757fe5b906000526020600020906002020160000160146101000a81548161ffff021916908361ffff1602179055506105ee86868686610340565b505050505050565b6000610600610a5c565b83600061ffff168154811061061157fe5b600091825260208083206040805160808101825260029490940290910180546001600160a01b0381168552600160a01b810461ffff1693850193909352600160b01b90920460ff169083015260010154606082015291505b602082015161ffff16158015906106a457508385836020015161ffff168154811061069057fe5b906000526020600020906002020160010154115b15610720575060208101518454859061ffff83169081106106c157fe5b60009182526020918290206040805160808101825260029390930290910180546001600160a01b0381168452600160a01b810461ffff1694840194909452600160b01b90930460ff169082015260019091015460608201529150610669565b949350505050565b600061ffff821615806107205750838261ffff168154811061074657fe5b9060005260206000209060020201600101548311158015610720575083848361ffff168154811061077357fe5b906000526020600020906002020160000160149054906101000a900461ffff1661ffff16815481106107a157fe5b9060005260206000209060020201600101548311949350505050565b60006107ff83836040518060400160405280601e81526020017f536166654d6174683a207375627472616374696f6e206f766572666c6f7700008152506109a1565b9392505050565b600080610811610a5c565b85600061ffff168154811061082257fe5b600091825260208083206040805160808101825260029490940290910180546001600160a01b0381168552600160a01b810461ffff1693850193909352600160b01b90920460ff16908301526001015460608201529150805b602083015161ffff16158015906108bd5750866001600160a01b031683600001516001600160a01b03161480156108bb57508560ff16836040015160ff16145b155b1561093c575060208201518754909190889061ffff84169081106108dd57fe5b60009182526020918290206040805160808101825260029390930290910180546001600160a01b0381168452600160a01b810461ffff1694840194909452600160b01b90930460ff16908201526001909101546060820152925061087b565b9097909650945050505050565b6000828201838110156107ff576040805162461bcd60e51b815260206004820152601b60248201527a536166654d6174683a206164646974696f6e206f766572666c6f7760281b604482015290519081900360640190fd5b60008184841115610a305760405162461bcd60e51b81526004018080602001828103825283818151815260200191508051906020019080838360005b838110156109f55781810151838201526020016109dd565b50505050905090810190601f168015610a225780820380516001836020036101000a031916815260200191505b509250505060405180910390fd5b505050900390565b5080546000825560020290600052602060002090810190610a599190610a83565b50565b60408051608081018252600080825260208201819052918101829052606081019190915290565b5b80821115610aa95780546001600160b81b031916815560006001820155600201610a84565b509056fea2646970667358221220be43bb95f7a435607e18fc6f2af57bd0605f35b67e70338426bfa0b51e66a31f64736f6c634300060c0033",
  "compiler": {
    "name": "solc",
    "version": "0.6.12+commit.27d51765.Emscripten.clang",
    "optimizer": {
      "enabled": true,
      "runs": 1
    },
    "evmVersion": "petersburg"
  }
}