{
  "fileName": "RewardsAndPenalties.sol",
  "contractName": "RewardsAndPenalties",
  "source": "// SPDX-License-Identifier: MIT\npragma solidity ^0.6.12;\n\nimport \"@openzeppelin/contracts/math/SafeMath.sol\";\nimport \"./Pools.sol\";\n\n\ncontract RewardsAndPenalties is Pools {\n    using SafeMath for uint;\n\n    function _distributeReferralReward(uint amount, Stake memory stake) internal {\n        if (\n            stake.uplink.uplinkAddress != address(0) &&\n            users[stake.uplink.uplinkAddress].stakes[stake.uplink.uplinkInvestmentId].active\n        ) {\n            User storage uplinkUser = users[stake.uplink.uplinkAddress];\n\n            uint commission = _calcPercentage(amount, REF_COMMISSION_BP);\n\n            uplinkUser.stakes[stake.uplink.uplinkInvestmentId].refCommission = uplinkUser.stakes[stake.uplink.uplinkInvestmentId].refCommission.add(commission);\n\n            if (stake.refPool.cycle != poolCycle) {\n                stake.refPool.cycle = poolCycle;\n                stake.refPool.amount = 0;\n            }\n\n            stake.refPool.amount = stake.refPool.amount.add(amount);\n\n            _updateRefPoolUsers(uplinkUser, stake);\n\n            totalRefRewards = totalRefRewards.add(commission);\n        }\n    }\n\n    function _calcDepositRewards(uint amount) internal pure returns (uint) {\n        uint rewardPercent = 0;\n\n        if (amount > 5000000) {\n            rewardPercent = 50;\n        } else if (amount > 1000000) {\n            rewardPercent = 40;\n        } else if (amount > 800000) {\n            rewardPercent = 35;\n        } else if (amount > 500000) {\n            rewardPercent = 30;\n        } else if (amount > 250000) {\n            rewardPercent = 25;\n        } else if (amount > 100000) {\n            rewardPercent = 20;\n        } else if (amount > 50000) {\n            rewardPercent = 15;\n        } else if (amount > 25000) {\n            rewardPercent = 10;\n        } else if (amount > 10000) {\n            rewardPercent = 5;\n        } else if (amount > 5000) {\n            rewardPercent = 2;\n        } else if (amount > 2000) {\n            rewardPercent = 1;\n        }\n\n        return _calcPercentage(amount, rewardPercent);\n    }\n\n    function _calcContractBonus(Stake memory stake) internal view returns (uint) {\n        uint contractBonusPercent = fourRXToken.balanceOf(address(this)).mul(CONTRACT_BONUS_PER_UNIT_BP).div(CONTRACT_BONUS_UNIT);\n\n        if (contractBonusPercent > MAX_CONTRACT_BONUS_BP) {\n            contractBonusPercent = MAX_CONTRACT_BONUS_BP;\n        }\n\n        return _calcPercentage(stake.deposit, contractBonusPercent);\n    }\n\n    function _calcHoldRewards(Stake memory stake) internal view returns (uint) {\n        uint holdPeriods = _calcDays(stake.holdFrom, block.timestamp).mul(DAY).div(HOLD_BONUS_UNIT);\n        uint holdBonusPercent = holdPeriods.mul(HOLD_BONUS_PER_UNIT_BP);\n\n        if (holdBonusPercent > MAX_HOLD_BONUS_BP) {\n            holdBonusPercent = MAX_HOLD_BONUS_BP;\n        }\n\n        return _calcPercentage(stake.deposit, holdBonusPercent);\n    }\n\n    function _calcRewardsWithoutHoldBonus(Stake memory stake) internal view returns (uint) {\n        uint poolRewardsAmount = stake.refPoolRewards.add(stake.sponsorPoolRewards);\n        uint refCommissionAmount = stake.refCommission;\n\n        uint interest = _calcPercentage(stake.deposit, getInterestTillDays(_calcDays(stake.interestCountFrom, block.timestamp)));\n\n        uint contractBonus = _calcContractBonus(stake);\n\n        uint totalRewardsWithoutHoldBonus = poolRewardsAmount.add(refCommissionAmount).add(interest).add(contractBonus);\n\n        return totalRewardsWithoutHoldBonus;\n    }\n\n    function _calcRewards(Stake memory stake) internal view returns (uint) {\n        uint rewards = _calcRewardsWithoutHoldBonus(stake);\n\n        if (_calcBasisPoints(stake.deposit, rewards) >= REWARD_THRESHOLD_BP) {\n            rewards = rewards.add(_calcHoldRewards(stake));\n        }\n\n        uint maxRewards = _calcPercentage(stake.deposit, MAX_CONTRACT_REWARD_BP);\n\n        if (rewards > maxRewards) {\n            rewards = maxRewards;\n        }\n\n        return rewards;\n    }\n\n    function _calcPenalty(Stake memory stake, uint withdrawalAmount) internal pure returns (uint) {\n        uint basisPoints = _calcBasisPoints(stake.deposit, withdrawalAmount);\n        // If user's rewards are more then 3% -- No penalty\n        if (basisPoints >= REWARD_THRESHOLD_BP) {\n            return 0;\n        }\n\n        return _calcPercentage(withdrawalAmount, PERCENT_MULTIPLIER.sub(basisPoints.mul(PERCENT_MULTIPLIER).div(REWARD_THRESHOLD_BP)));\n    }\n}\n",
  "sourcePath": "contracts/RewardsAndPenalties.sol",
  "abi": [
    {
      "anonymous": false,
      "inputs": [
        {
          "indexed": false,
          "internalType": "address",
          "name": "user",
          "type": "address"
        },
        {
          "indexed": false,
          "internalType": "address",
          "name": "uplink",
          "type": "address"
        },
        {
          "indexed": false,
          "internalType": "uint256",
          "name": "amount",
          "type": "uint256"
        }
      ],
      "name": "Deposit",
      "type": "event"
    },
    {
      "anonymous": false,
      "inputs": [
        {
          "indexed": false,
          "internalType": "address",
          "name": "user",
          "type": "address"
        }
      ],
      "name": "Exited",
      "type": "event"
    },
    {
      "anonymous": false,
      "inputs": [
        {
          "indexed": false,
          "internalType": "address",
          "name": "user",
          "type": "address"
        },
        {
          "indexed": false,
          "internalType": "uint256",
          "name": "amount",
          "type": "uint256"
        }
      ],
      "name": "ReInvest",
      "type": "event"
    },
    {
      "anonymous": false,
      "inputs": [
        {
          "indexed": false,
          "internalType": "address",
          "name": "user",
          "type": "address"
        },
        {
          "indexed": false,
          "internalType": "uint256",
          "name": "amount",
          "type": "uint256"
        }
      ],
      "name": "Withdraw",
      "type": "event"
    },
    {
      "inputs": [],
      "name": "CONTRACT_BONUS_PER_UNIT_BP",
      "outputs": [
        {
          "internalType": "uint256",
          "name": "",
          "type": "uint256"
        }
      ],
      "stateMutability": "view",
      "type": "function"
    },
    {
      "inputs": [],
      "name": "CONTRACT_BONUS_UNIT",
      "outputs": [
        {
          "internalType": "uint256",
          "name": "",
          "type": "uint256"
        }
      ],
      "stateMutability": "view",
      "type": "function"
    },
    {
      "inputs": [],
      "name": "DAY",
      "outputs": [
        {
          "internalType": "uint256",
          "name": "",
          "type": "uint256"
        }
      ],
      "stateMutability": "view",
      "type": "function"
    },
    {
      "inputs": [],
      "name": "DEV_FEE_BP",
      "outputs": [
        {
          "internalType": "uint256",
          "name": "",
          "type": "uint256"
        }
      ],
      "stateMutability": "view",
      "type": "function"
    },
    {
      "inputs": [],
      "name": "EXIT_PENALTY_BP",
      "outputs": [
        {
          "internalType": "uint256",
          "name": "",
          "type": "uint256"
        }
      ],
      "stateMutability": "view",
      "type": "function"
    },
    {
      "inputs": [],
      "name": "HOLD_BONUS_PER_UNIT_BP",
      "outputs": [
        {
          "internalType": "uint256",
          "name": "",
          "type": "uint256"
        }
      ],
      "stateMutability": "view",
      "type": "function"
    },
    {
      "inputs": [],
      "name": "HOLD_BONUS_UNIT",
      "outputs": [
        {
          "internalType": "uint256",
          "name": "",
          "type": "uint256"
        }
      ],
      "stateMutability": "view",
      "type": "function"
    },
    {
      "inputs": [],
      "name": "LP_FEE_BP",
      "outputs": [
        {
          "internalType": "uint256",
          "name": "",
          "type": "uint256"
        }
      ],
      "stateMutability": "view",
      "type": "function"
    },
    {
      "inputs": [],
      "name": "MAX_CONTRACT_BONUS_BP",
      "outputs": [
        {
          "internalType": "uint256",
          "name": "",
          "type": "uint256"
        }
      ],
      "stateMutability": "view",
      "type": "function"
    },
    {
      "inputs": [],
      "name": "MAX_CONTRACT_REWARD_BP",
      "outputs": [
        {
          "internalType": "uint256",
          "name": "",
          "type": "uint256"
        }
      ],
      "stateMutability": "view",
      "type": "function"
    },
    {
      "inputs": [],
      "name": "MAX_HOLD_BONUS_BP",
      "outputs": [
        {
          "internalType": "uint256",
          "name": "",
          "type": "uint256"
        }
      ],
      "stateMutability": "view",
      "type": "function"
    },
    {
      "inputs": [],
      "name": "MAX_WITHDRAWAL_OVER_REWARD_THRESHOLD_BP",
      "outputs": [
        {
          "internalType": "uint256",
          "name": "",
          "type": "uint256"
        }
      ],
      "stateMutability": "view",
      "type": "function"
    },
    {
      "inputs": [],
      "name": "PERCENT_MULTIPLIER",
      "outputs": [
        {
          "internalType": "uint256",
          "name": "",
          "type": "uint256"
        }
      ],
      "stateMutability": "view",
      "type": "function"
    },
    {
      "inputs": [],
      "name": "REF_COMMISSION_BP",
      "outputs": [
        {
          "internalType": "uint256",
          "name": "",
          "type": "uint256"
        }
      ],
      "stateMutability": "view",
      "type": "function"
    },
    {
      "inputs": [],
      "name": "REF_POOL_FEE_BP",
      "outputs": [
        {
          "internalType": "uint256",
          "name": "",
          "type": "uint256"
        }
      ],
      "stateMutability": "view",
      "type": "function"
    },
    {
      "inputs": [],
      "name": "REWARD_THRESHOLD_BP",
      "outputs": [
        {
          "internalType": "uint256",
          "name": "",
          "type": "uint256"
        }
      ],
      "stateMutability": "view",
      "type": "function"
    },
    {
      "inputs": [],
      "name": "SPONSOR_POOL_FEE_BP",
      "outputs": [
        {
          "internalType": "uint256",
          "name": "",
          "type": "uint256"
        }
      ],
      "stateMutability": "view",
      "type": "function"
    },
    {
      "inputs": [
        {
          "internalType": "uint256",
          "name": "",
          "type": "uint256"
        }
      ],
      "name": "depositBonuses",
      "outputs": [
        {
          "internalType": "uint256",
          "name": "",
          "type": "uint256"
        }
      ],
      "stateMutability": "view",
      "type": "function"
    },
    {
      "inputs": [],
      "name": "devAddress",
      "outputs": [
        {
          "internalType": "address",
          "name": "",
          "type": "address"
        }
      ],
      "stateMutability": "view",
      "type": "function"
    },
    {
      "inputs": [],
      "name": "fourRXToken",
      "outputs": [
        {
          "internalType": "contract IERC20",
          "name": "",
          "type": "address"
        }
      ],
      "stateMutability": "view",
      "type": "function"
    },
    {
      "inputs": [],
      "name": "maxContractBalance",
      "outputs": [
        {
          "internalType": "uint256",
          "name": "",
          "type": "uint256"
        }
      ],
      "stateMutability": "view",
      "type": "function"
    },
    {
      "inputs": [],
      "name": "poolCycle",
      "outputs": [
        {
          "internalType": "uint256",
          "name": "",
          "type": "uint256"
        }
      ],
      "stateMutability": "view",
      "type": "function"
    },
    {
      "inputs": [],
      "name": "poolDrewAt",
      "outputs": [
        {
          "internalType": "uint256",
          "name": "",
          "type": "uint256"
        }
      ],
      "stateMutability": "view",
      "type": "function"
    },
    {
      "inputs": [],
      "name": "refPoolBalance",
      "outputs": [
        {
          "internalType": "uint256",
          "name": "",
          "type": "uint256"
        }
      ],
      "stateMutability": "view",
      "type": "function"
    },
    {
      "inputs": [
        {
          "internalType": "uint256",
          "name": "",
          "type": "uint256"
        }
      ],
      "name": "refPoolBonuses",
      "outputs": [
        {
          "internalType": "uint256",
          "name": "",
          "type": "uint256"
        }
      ],
      "stateMutability": "view",
      "type": "function"
    },
    {
      "inputs": [
        {
          "internalType": "uint256",
          "name": "",
          "type": "uint256"
        }
      ],
      "name": "refPoolUsers",
      "outputs": [
        {
          "internalType": "address",
          "name": "user",
          "type": "address"
        },
        {
          "internalType": "uint256",
          "name": "stakeId",
          "type": "uint256"
        }
      ],
      "stateMutability": "view",
      "type": "function"
    },
    {
      "inputs": [],
      "name": "sponsorPoolBalance",
      "outputs": [
        {
          "internalType": "uint256",
          "name": "",
          "type": "uint256"
        }
      ],
      "stateMutability": "view",
      "type": "function"
    },
    {
      "inputs": [
        {
          "internalType": "uint256",
          "name": "",
          "type": "uint256"
        }
      ],
      "name": "sponsorPoolBonuses",
      "outputs": [
        {
          "internalType": "uint256",
          "name": "",
          "type": "uint256"
        }
      ],
      "stateMutability": "view",
      "type": "function"
    },
    {
      "inputs": [
        {
          "internalType": "uint256",
          "name": "",
          "type": "uint256"
        }
      ],
      "name": "sponsorPoolUsers",
      "outputs": [
        {
          "internalType": "address",
          "name": "user",
          "type": "address"
        },
        {
          "internalType": "uint256",
          "name": "stakeId",
          "type": "uint256"
        }
      ],
      "stateMutability": "view",
      "type": "function"
    },
    {
      "inputs": [],
      "name": "totalActiveInvestments",
      "outputs": [
        {
          "internalType": "uint256",
          "name": "",
          "type": "uint256"
        }
      ],
      "stateMutability": "view",
      "type": "function"
    },
    {
      "inputs": [],
      "name": "totalDepositRewards",
      "outputs": [
        {
          "internalType": "uint256",
          "name": "",
          "type": "uint256"
        }
      ],
      "stateMutability": "view",
      "type": "function"
    },
    {
      "inputs": [],
      "name": "totalDeposits",
      "outputs": [
        {
          "internalType": "uint256",
          "name": "",
          "type": "uint256"
        }
      ],
      "stateMutability": "view",
      "type": "function"
    },
    {
      "inputs": [],
      "name": "totalExited",
      "outputs": [
        {
          "internalType": "uint256",
          "name": "",
          "type": "uint256"
        }
      ],
      "stateMutability": "view",
      "type": "function"
    },
    {
      "inputs": [],
      "name": "totalInvestments",
      "outputs": [
        {
          "internalType": "uint256",
          "name": "",
          "type": "uint256"
        }
      ],
      "stateMutability": "view",
      "type": "function"
    },
    {
      "inputs": [],
      "name": "totalPenalty",
      "outputs": [
        {
          "internalType": "uint256",
          "name": "",
          "type": "uint256"
        }
      ],
      "stateMutability": "view",
      "type": "function"
    },
    {
      "inputs": [],
      "name": "totalRefPoolRewards",
      "outputs": [
        {
          "internalType": "uint256",
          "name": "",
          "type": "uint256"
        }
      ],
      "stateMutability": "view",
      "type": "function"
    },
    {
      "inputs": [],
      "name": "totalRefRewards",
      "outputs": [
        {
          "internalType": "uint256",
          "name": "",
          "type": "uint256"
        }
      ],
      "stateMutability": "view",
      "type": "function"
    },
    {
      "inputs": [],
      "name": "totalSponsorPoolRewards",
      "outputs": [
        {
          "internalType": "uint256",
          "name": "",
          "type": "uint256"
        }
      ],
      "stateMutability": "view",
      "type": "function"
    },
    {
      "inputs": [],
      "name": "totalWithdrawn",
      "outputs": [
        {
          "internalType": "uint256",
          "name": "",
          "type": "uint256"
        }
      ],
      "stateMutability": "view",
      "type": "function"
    },
    {
      "inputs": [
        {
          "internalType": "address",
          "name": "",
          "type": "address"
        }
      ],
      "name": "users",
      "outputs": [
        {
          "internalType": "address",
          "name": "wallet",
          "type": "address"
        }
      ],
      "stateMutability": "view",
      "type": "function"
    }
  ],
  "bytecode": "0x6080604052600b80546001600160a01b0319167364b8cb4c04ba902010856d913b4e5df940748bf217905534801561003657600080fd5b50610549806100466000396000f3fe608060405234801561001057600080fd5b50600436106101d85760003560e01c806303162d2c146101dd5780630781235a146101f75780630ac39f72146101ff5780630f9fa6aa146101f757806312dd5fe4146101f757806324cf3682146102075780632673ebf71461020f57806327cfe856146102175780633ad10ef61461021f5780633df936c91461024357806348a91a241461024b578063498dc5b5146102685780634b3197131461027057806363b815fa1461027857806365fcb49e1461028057806369da94d81461028857806370fd37cf146102905780637247b2b9146102985780637d882097146102a05780638876bb3e146102a857806391994b2c146102b05780639b6eec7d146102685780639c236aa8146102b8578063a00d4980146102f8578063a13a801a14610300578063a87430ba14610308578063a9122af71461032e578063aaf1a0da14610300578063b963ddb414610336578063bfe0e0201461033e578063cabea10d14610346578063d5766ebd1461034e578063d82daec71461036b578063d902f40c14610373578063df5a75ef1461037b578063e523141114610398578063e6af61c8146103a0578063ed56f6a1146103a8578063f48e595a14610398578063fd0b8252146103c5575b600080fd5b6101e56103cd565b60408051918252519081900360200190f35b6101e56103d3565b6101e56103d9565b6101e56103de565b6101e56103e4565b6101e56103ea565b6102276103f1565b604080516001600160a01b039092168252519081900360200190f35b6101e5610400565b6101e56004803603602081101561026157600080fd5b5035610406565b6101e5610424565b6101e561042a565b6101e5610430565b6101e5610436565b6101e561043c565b6101e5610442565b6101e5610448565b6101e561044e565b6101e5610454565b6101e561045a565b6102d5600480360360208110156102ce57600080fd5b5035610460565b604080516001600160a01b03909316835260208301919091528051918290030190f35b6101e5610489565b6101e561048f565b6102276004803603602081101561031e57600080fd5b50356001600160a01b0316610494565b6102276104af565b6101e56104be565b6101e56104c4565b6101e56104ca565b6101e56004803603602081101561036457600080fd5b50356104d0565b6101e56104dd565b6101e56104e3565b6101e56004803603602081101561039157600080fd5b50356104e8565b6101e56104f5565b6101e56104fa565b6102d5600480360360208110156103be57600080fd5b5035610500565b6101e561050d565b61a8c081565b61012c81565b600281565b60035481565b60055481565b6201518081565b600b546001600160a01b031681565b60405481565b603b818154811061041357fe5b600091825260209091200154905081565b61138881565b60015481565b61271081565b603c5481565b61753081565b60025481565b60075481565b60005481565b60065481565b60095481565b602581600a811061046d57fe5b6002020180546001909101546001600160a01b03909116915082565b6103e881565b603281565b600c602052600090815260409020546001600160a01b031681565b600a546001600160a01b031681565b6102bc81565b60045481565b603d5481565b6039818154811061041357fe5b603f5481565b600181565b603a818154811061041357fe5b606481565b60085481565b600d81600c811061046d57fe5b603e548156fea264697066735822122001d7415986011434c23934f3bc741b1c26faed8702fda00c9077b4d72c1dda3264736f6c634300060c0033",
  "compiler": {
    "name": "solc",
    "version": "0.6.12+commit.27d51765.Emscripten.clang",
    "optimizer": {
      "enabled": true,
      "runs": 1
    },
    "evmVersion": "petersburg"
  }
}