{
  "fileName": "RewardsAndPenalties.sol",
  "contractName": "RewardsAndPenalties",
  "source": "// SPDX-License-Identifier: MIT\npragma solidity ^0.6.12;\n\nimport \"@openzeppelin/contracts/math/SafeMath.sol\";\nimport \"./Pools.sol\";\n\n\ncontract RewardsAndPenalties is Pools {\n    using SafeMath for uint;\n\n    function _distributeReferralReward(uint amount, Stake memory stake, address uplinkAddress, uint8 uplinkStakeId) internal {\n        User storage uplinkUser = users[uplinkAddress];\n\n        uint commission = _calcPercentage(amount, REF_COMMISSION_BP);\n\n        uplinkUser.stakes[uplinkStakeId].rewards = uplinkUser.stakes[uplinkStakeId].rewards.add(commission);\n\n        _updateRefPoolUsers(uplinkUser, stake, uplinkStakeId);\n    }\n\n    function _calcDepositRewards(uint amount) internal pure returns (uint) {\n        uint rewardPercent = 0;\n\n        if (amount > 175) {\n            rewardPercent = 50; // 0.5%\n        } else if (amount > 150) {\n            rewardPercent = 40; // 0.4%\n        } else if (amount > 135) {\n            rewardPercent = 35; // 0.35%\n        } else if (amount > 119) {\n            rewardPercent = 30; // 0.3%\n        } else if (amount > 100) {\n            rewardPercent = 25; // 0.25%\n        } else if (amount > 89) {\n            rewardPercent = 20; // 0.2%\n        } else if (amount > 75) {\n            rewardPercent = 15; // 0.15%\n        } else if (amount > 59) {\n            rewardPercent = 10; // 0.1%\n        } else if (amount > 45) {\n            rewardPercent = 5; // 0.05%\n        } else if (amount > 20) {\n            rewardPercent = 2; // 0.02%\n        } else if (amount > 9) {\n            rewardPercent = 1; // 0.01%\n        }\n\n        return _calcPercentage(amount, rewardPercent);\n    }\n\n    function _calcContractBonus(Stake memory stake) internal view returns (uint) {\n        uint contractBonusPercent = fourRXToken.balanceOf(address(this)).mul(CONTRACT_BONUS_PER_UNIT_BP).div(CONTRACT_BONUS_UNIT);\n\n        if (contractBonusPercent > MAX_CONTRACT_BONUS_BP) {\n            contractBonusPercent = MAX_CONTRACT_BONUS_BP;\n        }\n\n        return _calcPercentage(stake.deposit, contractBonusPercent);\n    }\n\n    function _calcHoldRewards(Stake memory stake) internal view returns (uint) {\n        uint holdPeriods = _calcDays(stake.holdFrom, block.timestamp).mul(DAY).div(HOLD_BONUS_UNIT);\n        uint holdBonusPercent = holdPeriods.mul(HOLD_BONUS_PER_UNIT_BP);\n\n        if (holdBonusPercent > MAX_HOLD_BONUS_BP) {\n            holdBonusPercent = MAX_HOLD_BONUS_BP;\n        }\n\n        return _calcPercentage(stake.deposit, holdBonusPercent);\n    }\n\n    function _calcRewardsWithoutHoldBonus(Stake memory stake) internal view returns (uint) {\n        uint interest = _calcPercentage(stake.deposit, _getInterestTillDays(_calcDays(stake.interestCountFrom, block.timestamp)));\n\n        uint contractBonus = _calcContractBonus(stake);\n\n        uint totalRewardsWithoutHoldBonus = stake.rewards.add(interest).add(contractBonus);\n\n        return totalRewardsWithoutHoldBonus;\n    }\n\n    function _calcRewards(Stake memory stake) internal view returns (uint) {\n        uint rewards = _calcRewardsWithoutHoldBonus(stake);\n\n        if (_calcBasisPoints(stake.deposit, rewards) >= REWARD_THRESHOLD_BP) {\n            rewards = rewards.add(_calcHoldRewards(stake));\n        }\n\n        uint maxRewards = _calcPercentage(stake.deposit, MAX_CONTRACT_REWARD_BP);\n\n        if (rewards > maxRewards) {\n            rewards = maxRewards;\n        }\n\n        return rewards;\n    }\n\n    function _calcPenalty(Stake memory stake, uint withdrawalAmount) internal pure returns (uint) {\n        uint basisPoints = _calcBasisPoints(stake.deposit, withdrawalAmount);\n        // If user's rewards are more then REWARD_THRESHOLD_BP -- No penalty\n        if (basisPoints >= REWARD_THRESHOLD_BP) {\n            return 0;\n        }\n\n        return _calcPercentage(withdrawalAmount, PERCENT_MULTIPLIER.sub(basisPoints.mul(PERCENT_MULTIPLIER).div(REWARD_THRESHOLD_BP)));\n    }\n}\n",
  "sourcePath": "contracts/RewardsAndPenalties.sol",
  "abi": [
    {
      "anonymous": false,
      "inputs": [
        {
          "indexed": false,
          "internalType": "address",
          "name": "user",
          "type": "address"
        },
        {
          "indexed": false,
          "internalType": "uint256",
          "name": "amount",
          "type": "uint256"
        },
        {
          "indexed": false,
          "internalType": "address",
          "name": "uplinkAddress",
          "type": "address"
        },
        {
          "indexed": false,
          "internalType": "uint256",
          "name": "uplinkStakeId",
          "type": "uint256"
        }
      ],
      "name": "Deposit",
      "type": "event"
    },
    {
      "anonymous": false,
      "inputs": [
        {
          "indexed": false,
          "internalType": "address",
          "name": "user",
          "type": "address"
        },
        {
          "indexed": false,
          "internalType": "uint256",
          "name": "stakeId",
          "type": "uint256"
        },
        {
          "indexed": false,
          "internalType": "uint256",
          "name": "amount",
          "type": "uint256"
        }
      ],
      "name": "Exited",
      "type": "event"
    },
    {
      "anonymous": false,
      "inputs": [
        {
          "indexed": false,
          "internalType": "uint256",
          "name": "refPoolAmount",
          "type": "uint256"
        },
        {
          "indexed": false,
          "internalType": "uint256",
          "name": "sponsorPoolAmount",
          "type": "uint256"
        }
      ],
      "name": "PoolDrawn",
      "type": "event"
    },
    {
      "anonymous": false,
      "inputs": [
        {
          "indexed": false,
          "internalType": "address",
          "name": "user",
          "type": "address"
        },
        {
          "indexed": false,
          "internalType": "uint256",
          "name": "amount",
          "type": "uint256"
        }
      ],
      "name": "ReInvest",
      "type": "event"
    },
    {
      "anonymous": false,
      "inputs": [
        {
          "indexed": false,
          "internalType": "address",
          "name": "user",
          "type": "address"
        },
        {
          "indexed": false,
          "internalType": "uint256",
          "name": "amount",
          "type": "uint256"
        }
      ],
      "name": "Withdrawn",
      "type": "event"
    },
    {
      "inputs": [],
      "name": "CONTRACT_BONUS_PER_UNIT_BP",
      "outputs": [
        {
          "internalType": "uint256",
          "name": "",
          "type": "uint256"
        }
      ],
      "stateMutability": "view",
      "type": "function"
    },
    {
      "inputs": [],
      "name": "CONTRACT_BONUS_UNIT",
      "outputs": [
        {
          "internalType": "uint256",
          "name": "",
          "type": "uint256"
        }
      ],
      "stateMutability": "view",
      "type": "function"
    },
    {
      "inputs": [],
      "name": "DAY",
      "outputs": [
        {
          "internalType": "uint256",
          "name": "",
          "type": "uint256"
        }
      ],
      "stateMutability": "view",
      "type": "function"
    },
    {
      "inputs": [],
      "name": "DEV_FEE_BP",
      "outputs": [
        {
          "internalType": "uint256",
          "name": "",
          "type": "uint256"
        }
      ],
      "stateMutability": "view",
      "type": "function"
    },
    {
      "inputs": [],
      "name": "EXIT_PENALTY_BP",
      "outputs": [
        {
          "internalType": "uint256",
          "name": "",
          "type": "uint256"
        }
      ],
      "stateMutability": "view",
      "type": "function"
    },
    {
      "inputs": [],
      "name": "HOLD_BONUS_PER_UNIT_BP",
      "outputs": [
        {
          "internalType": "uint256",
          "name": "",
          "type": "uint256"
        }
      ],
      "stateMutability": "view",
      "type": "function"
    },
    {
      "inputs": [],
      "name": "HOLD_BONUS_UNIT",
      "outputs": [
        {
          "internalType": "uint256",
          "name": "",
          "type": "uint256"
        }
      ],
      "stateMutability": "view",
      "type": "function"
    },
    {
      "inputs": [],
      "name": "LP_FEE_BP",
      "outputs": [
        {
          "internalType": "uint256",
          "name": "",
          "type": "uint256"
        }
      ],
      "stateMutability": "view",
      "type": "function"
    },
    {
      "inputs": [],
      "name": "MAX_CONTRACT_BONUS_BP",
      "outputs": [
        {
          "internalType": "uint256",
          "name": "",
          "type": "uint256"
        }
      ],
      "stateMutability": "view",
      "type": "function"
    },
    {
      "inputs": [],
      "name": "MAX_CONTRACT_REWARD_BP",
      "outputs": [
        {
          "internalType": "uint256",
          "name": "",
          "type": "uint256"
        }
      ],
      "stateMutability": "view",
      "type": "function"
    },
    {
      "inputs": [],
      "name": "MAX_HOLD_BONUS_BP",
      "outputs": [
        {
          "internalType": "uint256",
          "name": "",
          "type": "uint256"
        }
      ],
      "stateMutability": "view",
      "type": "function"
    },
    {
      "inputs": [],
      "name": "MAX_REF_POOL_USERS",
      "outputs": [
        {
          "internalType": "uint8",
          "name": "",
          "type": "uint8"
        }
      ],
      "stateMutability": "view",
      "type": "function"
    },
    {
      "inputs": [],
      "name": "MAX_SPONSOR_POOL_USERS",
      "outputs": [
        {
          "internalType": "uint8",
          "name": "",
          "type": "uint8"
        }
      ],
      "stateMutability": "view",
      "type": "function"
    },
    {
      "inputs": [],
      "name": "MAX_WITHDRAWAL_OVER_REWARD_THRESHOLD_BP",
      "outputs": [
        {
          "internalType": "uint256",
          "name": "",
          "type": "uint256"
        }
      ],
      "stateMutability": "view",
      "type": "function"
    },
    {
      "inputs": [],
      "name": "PERCENT_MULTIPLIER",
      "outputs": [
        {
          "internalType": "uint256",
          "name": "",
          "type": "uint256"
        }
      ],
      "stateMutability": "view",
      "type": "function"
    },
    {
      "inputs": [],
      "name": "REF_COMMISSION_BP",
      "outputs": [
        {
          "internalType": "uint256",
          "name": "",
          "type": "uint256"
        }
      ],
      "stateMutability": "view",
      "type": "function"
    },
    {
      "inputs": [],
      "name": "REF_POOL_FEE_BP",
      "outputs": [
        {
          "internalType": "uint256",
          "name": "",
          "type": "uint256"
        }
      ],
      "stateMutability": "view",
      "type": "function"
    },
    {
      "inputs": [],
      "name": "REWARD_THRESHOLD_BP",
      "outputs": [
        {
          "internalType": "uint256",
          "name": "",
          "type": "uint256"
        }
      ],
      "stateMutability": "view",
      "type": "function"
    },
    {
      "inputs": [],
      "name": "SPONSOR_POOL_FEE_BP",
      "outputs": [
        {
          "internalType": "uint256",
          "name": "",
          "type": "uint256"
        }
      ],
      "stateMutability": "view",
      "type": "function"
    },
    {
      "inputs": [
        {
          "internalType": "address",
          "name": "user",
          "type": "address"
        },
        {
          "internalType": "uint256",
          "name": "amount",
          "type": "uint256"
        },
        {
          "internalType": "uint8",
          "name": "stakeId",
          "type": "uint8"
        }
      ],
      "name": "_addRefPoolRecord",
      "outputs": [],
      "stateMutability": "nonpayable",
      "type": "function"
    },
    {
      "inputs": [],
      "name": "_cleanRefPoolUsers",
      "outputs": [],
      "stateMutability": "nonpayable",
      "type": "function"
    },
    {
      "inputs": [],
      "name": "devAddress",
      "outputs": [
        {
          "internalType": "address",
          "name": "",
          "type": "address"
        }
      ],
      "stateMutability": "view",
      "type": "function"
    },
    {
      "inputs": [],
      "name": "devBalance",
      "outputs": [
        {
          "internalType": "uint256",
          "name": "",
          "type": "uint256"
        }
      ],
      "stateMutability": "view",
      "type": "function"
    },
    {
      "inputs": [],
      "name": "drawPool",
      "outputs": [],
      "stateMutability": "nonpayable",
      "type": "function"
    },
    {
      "inputs": [],
      "name": "fourRXToken",
      "outputs": [
        {
          "internalType": "contract IERC20",
          "name": "",
          "type": "address"
        }
      ],
      "stateMutability": "view",
      "type": "function"
    },
    {
      "inputs": [],
      "name": "getPoolInfo",
      "outputs": [
        {
          "internalType": "uint32",
          "name": "",
          "type": "uint32"
        },
        {
          "internalType": "uint16",
          "name": "",
          "type": "uint16"
        },
        {
          "internalType": "uint256",
          "name": "",
          "type": "uint256"
        },
        {
          "internalType": "uint256",
          "name": "",
          "type": "uint256"
        }
      ],
      "stateMutability": "view",
      "type": "function"
    },
    {
      "inputs": [],
      "name": "getPoolParticipants",
      "outputs": [
        {
          "internalType": "address[]",
          "name": "",
          "type": "address[]"
        },
        {
          "internalType": "uint8[]",
          "name": "",
          "type": "uint8[]"
        },
        {
          "internalType": "uint256[]",
          "name": "",
          "type": "uint256[]"
        },
        {
          "internalType": "address[]",
          "name": "",
          "type": "address[]"
        },
        {
          "internalType": "uint8[]",
          "name": "",
          "type": "uint8[]"
        },
        {
          "internalType": "uint256[]",
          "name": "",
          "type": "uint256[]"
        }
      ],
      "stateMutability": "view",
      "type": "function"
    },
    {
      "inputs": [],
      "name": "maxContractBalance",
      "outputs": [
        {
          "internalType": "uint256",
          "name": "",
          "type": "uint256"
        }
      ],
      "stateMutability": "view",
      "type": "function"
    },
    {
      "inputs": [],
      "name": "poolCycle",
      "outputs": [
        {
          "internalType": "uint16",
          "name": "",
          "type": "uint16"
        }
      ],
      "stateMutability": "view",
      "type": "function"
    },
    {
      "inputs": [],
      "name": "poolDrewAt",
      "outputs": [
        {
          "internalType": "uint32",
          "name": "",
          "type": "uint32"
        }
      ],
      "stateMutability": "view",
      "type": "function"
    },
    {
      "inputs": [],
      "name": "refPoolBalance",
      "outputs": [
        {
          "internalType": "uint256",
          "name": "",
          "type": "uint256"
        }
      ],
      "stateMutability": "view",
      "type": "function"
    },
    {
      "inputs": [
        {
          "internalType": "uint256",
          "name": "",
          "type": "uint256"
        }
      ],
      "name": "refPoolBonuses",
      "outputs": [
        {
          "internalType": "uint256",
          "name": "",
          "type": "uint256"
        }
      ],
      "stateMutability": "view",
      "type": "function"
    },
    {
      "inputs": [
        {
          "internalType": "uint256",
          "name": "",
          "type": "uint256"
        }
      ],
      "name": "refPoolUsers",
      "outputs": [
        {
          "internalType": "address",
          "name": "user",
          "type": "address"
        },
        {
          "internalType": "uint16",
          "name": "next",
          "type": "uint16"
        },
        {
          "internalType": "uint8",
          "name": "id",
          "type": "uint8"
        },
        {
          "internalType": "uint256",
          "name": "score",
          "type": "uint256"
        }
      ],
      "stateMutability": "view",
      "type": "function"
    },
    {
      "inputs": [],
      "name": "sponsorPoolBalance",
      "outputs": [
        {
          "internalType": "uint256",
          "name": "",
          "type": "uint256"
        }
      ],
      "stateMutability": "view",
      "type": "function"
    },
    {
      "inputs": [
        {
          "internalType": "uint256",
          "name": "",
          "type": "uint256"
        }
      ],
      "name": "sponsorPoolBonuses",
      "outputs": [
        {
          "internalType": "uint256",
          "name": "",
          "type": "uint256"
        }
      ],
      "stateMutability": "view",
      "type": "function"
    },
    {
      "inputs": [
        {
          "internalType": "uint256",
          "name": "",
          "type": "uint256"
        }
      ],
      "name": "sponsorPoolUsers",
      "outputs": [
        {
          "internalType": "address",
          "name": "user",
          "type": "address"
        },
        {
          "internalType": "uint16",
          "name": "next",
          "type": "uint16"
        },
        {
          "internalType": "uint8",
          "name": "id",
          "type": "uint8"
        },
        {
          "internalType": "uint256",
          "name": "score",
          "type": "uint256"
        }
      ],
      "stateMutability": "view",
      "type": "function"
    },
    {
      "inputs": [],
      "name": "totalDepositRewards",
      "outputs": [
        {
          "internalType": "uint256",
          "name": "",
          "type": "uint256"
        }
      ],
      "stateMutability": "view",
      "type": "function"
    },
    {
      "inputs": [],
      "name": "totalExited",
      "outputs": [
        {
          "internalType": "uint256",
          "name": "",
          "type": "uint256"
        }
      ],
      "stateMutability": "view",
      "type": "function"
    },
    {
      "inputs": [
        {
          "internalType": "address",
          "name": "",
          "type": "address"
        }
      ],
      "name": "users",
      "outputs": [
        {
          "internalType": "address",
          "name": "wallet",
          "type": "address"
        }
      ],
      "stateMutability": "view",
      "type": "function"
    }
  ],
  "bytecode": "0x6080604052600580546001600160a01b0319167364b8cb4c04ba902010856d913b4e5df940748bf217905534801561003657600080fd5b50611ac2806100466000396000f3fe608060405234801561001057600080fd5b50600436106101cd5760003560e01c806303162d2c146101d25780630781235a146101ec5780630ac39f72146101f45780630f9fa6aa146101ec57806312dd5fe4146101ec578063195c41a0146101fc57806327cfe856146102065780633ad10ef61461020e5780633df936c914610232578063498dc5b51461023a5780634e8cfa601461024257806360246c881461026057806363b815fa1461029857806365fcb49e146102a057806369da94d8146102a85780637247b2b9146102b05780637c841590146102b857806391994b2c146102c05780639b6eec7d146102c85780639c236aa8146102d0578063a00d498014610322578063a0708a641461032a578063a13a801a1461035f578063a87430ba14610367578063a9122af71461038d578063aaf1a0da1461035f578063b727284114610395578063b963ddb41461054a578063cabea10d14610552578063cd9a1b6314610571578063d5766ebd14610579578063d82daec714610596578063d902f40c1461059e578063df5a75ef146105a6578063e5231411146105c3578063e7204ffb146105cb578063ed56f6a1146105d3578063f48e595a146105f0578063fd0b8252146105f8575b600080fd5b6101da610619565b60408051918252519081900360200190f35b6101da61061f565b6101da610625565b61020461062a565b005b6101da610642565b610216610649565b604080516001600160a01b039092168252519081900360200190f35b6101da610658565b6101da61065e565b61024a610664565b6040805160ff9092168252519081900360200190f35b610268610669565b6040805163ffffffff909516855261ffff9093166020850152838301919091526060830152519081900360800190f35b6101da610687565b6101da61068d565b6101da610693565b6101da610699565b61024a61069f565b6101da6106a4565b6101da6106aa565b6102ed600480360360208110156102e657600080fd5b50356106b0565b604080516001600160a01b03909516855261ffff909316602085015260ff909116838301526060830152519081900360800190f35b6101da6106fb565b6102046004803603606081101561034057600080fd5b5080356001600160a01b0316906020810135906040013560ff16610700565b6101da610734565b6102166004803603602081101561037d57600080fd5b50356001600160a01b0316610739565b610216610754565b61039d610763565b6040518080602001806020018060200180602001806020018060200187810387528d818151815260200191508051906020019060200280838360005b838110156103f15781810151838201526020016103d9565b5050505090500187810386528c818151815260200191508051906020019060200280838360005b83811015610430578181015183820152602001610418565b5050505090500187810385528b818151815260200191508051906020019060200280838360005b8381101561046f578181015183820152602001610457565b5050505090500187810384528a818151815260200191508051906020019060200280838360005b838110156104ae578181015183820152602001610496565b50505050905001878103835289818151815260200191508051906020019060200280838360005b838110156104ed5781810151838201526020016104d5565b50505050905001878103825288818151815260200191508051906020019060200280838360005b8381101561052c578181015183820152602001610514565b505050509050019c5050505050505050505050505060405180910390f35b6101da610b80565b61055a610b86565b6040805161ffff9092168252519081900360200190f35b6101da610b90565b6101da6004803603602081101561058f57600080fd5b5035610b96565b6101da610bb4565b6101da610bba565b6101da600480360360208110156105bc57600080fd5b5035610bbf565b6101da610bcc565b610204610bd1565b6102ed600480360360208110156105e957600080fd5b5035610f8d565b6101da610f9a565b610600610f9f565b6040805163ffffffff9092168252519081900360200190f35b61a8c081565b61012c81565b600281565b610636600160006119f6565b6106406001610fb1565b565b6201518081565b6005546001600160a01b031681565b600c5481565b61138881565b600a81565b600a54600c54600b5463ffffffff620100008404169261ffff169293565b61271081565b60095481565b61924f81565b60025481565b600c81565b60035481565b6101f481565b600081815481106106bd57fe5b6000918252602090912060029091020180546001909101546001600160a01b0382169250600160a01b820461ffff1691600160b01b900460ff169084565b600581565b61070c6001848361104c565b6107225761071d6001848484611184565b61072f565b61072f60018484846112c1565b505050565b603281565b6006602052600090815260409020546001600160a01b031681565b6004546001600160a01b031681565b6060808080808080600a604051908082528060200260200182016040528015610796578160200160208202803683370190505b5060408051600a8082526101608201909252919250606091906020820161014080368337505060408051600a808252610160820190925292935060609291506020820161014080368337505060408051600c8082526101a0820190925292935060609291506020820161018080368337505060408051600c8082526101a0820190925292935060609291506020820161018080368337505060408051600c8082526101a08201909252929350606092915060208201610180803683370190505090506000610862611a1a565b60008261ffff168154811061087357fe5b60009182526020918290206040805160808101825260029390930290910180546001600160a01b0381168452600160a01b810461ffff1694840194909452600160b01b90930460ff1690820152600190910154606082015290505b600a61ffff83161080156108e95750602081015161ffff1615155b156109e7576000816020015161ffff168154811061090357fe5b60009182526020918290206040805160808101825260029390930290910180546001600160a01b038116808552600160a01b820461ffff90811696860196909652600160b01b90910460ff16928401929092526001015460608301528a51919350918a9190851690811061097357fe5b60200260200101906001600160a01b031690816001600160a01b0316815250508060400151878361ffff16815181106109a857fe5b602002602001019060ff16908160ff16815250508060600151868361ffff16815181106109d157fe5b60209081029190910101526001909101906108ce565b600180546000935083906109f757fe5b60009182526020918290206040805160808101825260029390930290910180546001600160a01b0381168452600160a01b810461ffff1694840194909452600160b01b90930460ff1690820152600190910154606082015290505b600c61ffff8316108015610a6d5750602081015161ffff1615155b15610b6b576001816020015161ffff1681548110610a8757fe5b60009182526020918290206040805160808101825260029390930290910180546001600160a01b038116808552600160a01b820461ffff90811696860196909652600160b01b90910460ff16928401929092526001015460608301528751919350918791908516908110610af757fe5b60200260200101906001600160a01b031690816001600160a01b0316815250508060400151848361ffff1681518110610b2c57fe5b602002602001019060ff16908160ff16815250508060600151838361ffff1681518110610b5557fe5b6020908102919091010152600190910190610a52565b50959c949b5092995090975095509350915050565b61032081565b600a5461ffff1681565b600d5481565b60078181548110610ba357fe5b600091825260209091200154905081565b600b5481565b600181565b60088181548110610ba357fe5b606481565b600a546201518063ffffffff620100009092048216011642111561064057610bf7611a1a565b6001600081548110610c0557fe5b600091825260208083206040805160808101825260029490940290910180546001600160a01b0381168552600160a01b810461ffff1693850193909352600160b01b90920460ff169083015260010154606082015291505b600c61ffff8216108015610c785750602082015161ffff1615155b15610dd1576001826020015161ffff1681548110610c9257fe5b600091825260209182902060408051608081018252600290930290910180546001600160a01b038116845261ffff600160a01b820481169585019590955260ff600160b01b9091041691830191909152600101546060820152600b5460078054929550610d7793610d1993908616908110610d0957fe5b906000526020600020015461143a565b6006600085600001516001600160a01b03166001600160a01b03168152602001908152602001600020600101846040015160ff1681548110610d5757fe5b90600052602060002090600502016004015461145b90919063ffffffff16565b6006600084600001516001600160a01b03166001600160a01b03168152602001908152602001600020600101836040015160ff1681548110610db557fe5b6000918252602090912060046005909202010155600101610c5d565b60008081548110610dde57fe5b600091825260208083206040805160808101825260029490940290910180546001600160a01b0381168552600160a01b810461ffff1693850193909352600160b01b90920460ff1690830152600101546060820152925090505b600a61ffff8216108015610e535750602082015161ffff1615155b15610f3e576000826020015161ffff1681548110610e6d57fe5b600091825260209182902060408051608081018252600290930290910180546001600160a01b038116845261ffff600160a01b820481169585019590955260ff600160b01b9091041691830191909152600101546060820152600c5460088054929550610ee493610d1993908616908110610d0957fe5b6006600084600001516001600160a01b03166001600160a01b03168152602001908152602001600020600101836040015160ff1681548110610f2257fe5b6000918252602090912060046005909202010155600101610e38565b7f505fb5b242804521f868b1210d5697cefabaa21c3f697207aa5c02dc549116e2600b54600c54604051808381526020018281526020019250505060405180910390a1610f896114b3565b5050565b600181815481106106bd57fe5b60fa81565b600a5462010000900463ffffffff1681565b604080516080810182526000808252602080830182815293830182815260608401838152865460018181018955978552929093209351600290920290930180549451935160ff16600160b01b0260ff60b01b1961ffff95909516600160a01b0261ffff60a01b196001600160a01b03949094166001600160a01b03199097169690961792909216949094179290921691909117825551910155565b6000611056611a1a565b84600061ffff168154811061106757fe5b600091825260208083206040805160808101825260029490940290910180546001600160a01b0381168552600160a01b810461ffff1693850193909352600160b01b90920460ff169083015260010154606082015291505b602082015161ffff161561117b57846001600160a01b031682600001516001600160a01b03161480156110fb57508360ff16826040015160ff16145b156111085750600161117b565b85826020015161ffff168154811061111c57fe5b60009182526020918290206040805160808101825260029390930290910180546001600160a01b0381168452600160a01b810461ffff1694840194909452600160b01b90930460ff1690820152600190910154606082015291506110bf565b95945050505050565b60006111908584611501565b905061119d858483611633565b6111a657600080fd5b846040518060800160405280866001600160a01b03168152602001878461ffff16815481106111d157fe5b600091825260208083206002928302015461ffff600160a01b918290048116865260ff808b168785015260409687018c9052885460018181018b559987529584902088519690950290940180549388015196880151909416600160b01b0260ff60b01b199690911690910261ffff60a01b196001600160a01b039095166001600160a01b03199093169290921793909316179290921617815560609091015190820155855461127f916116c8565b858261ffff168154811061128f57fe5b906000526020600020906002020160000160146101000a81548161ffff021916908361ffff1602179055505050505050565b6000806112cf86868561170a565b915091508161ffff16868261ffff16815481106112e857fe5b6000918252602090912060029091020154600160a01b900461ffff161461130e57600080fd5b846001600160a01b0316868361ffff168154811061132857fe5b60009182526020909120600290910201546001600160a01b03161461134c57600080fd5b8260ff16868361ffff168154811061136057fe5b6000918252602090912060029091020154600160b01b900460ff161461138557600080fd5b6113b9868361ffff168154811061139857fe5b9060005260206000209060020201600101548561145b90919063ffffffff16565b9350858261ffff16815481106113cb57fe5b906000526020600020906002020160000160149054906101000a900461ffff16868261ffff16815481106113fb57fe5b906000526020600020906002020160000160146101000a81548161ffff021916908361ffff16021790555061143286868686611184565b505050505050565b600061145261271061144c858561184d565b906118a6565b90505b92915050565b600082820183811015611452576040805162461bcd60e51b815260206004820152601b60248201527a536166654d6174683a206164646974696f6e206f766572666c6f7760281b604482015290519081900360640190fd5b6114bb6118e5565b6114c361062a565b6000600b819055600c55600a805461ffff1965ffffffff000019909116620100004263ffffffff160217908116600161ffff92831601909116179055565b600061150b611a1a565b83600061ffff168154811061151c57fe5b600091825260208083206040805160808101825260029490940290910180546001600160a01b0381168552600160a01b810461ffff1693850193909352600160b01b90920460ff169083015260010154606082015291505b602082015161ffff16158015906115af57508385836020015161ffff168154811061159b57fe5b906000526020600020906002020160010154115b1561162b575060208101518454859061ffff83169081106115cc57fe5b60009182526020918290206040805160808101825260029390930290910180546001600160a01b0381168452600160a01b810461ffff1694840194909452600160b01b90930460ff169082015260019091015460608201529150611574565b949350505050565b600061ffff8216158061162b5750838261ffff168154811061165157fe5b906000526020600020906002020160010154831115801561162b575083848361ffff168154811061167e57fe5b906000526020600020906002020160000160149054906101000a900461ffff1661ffff16815481106116ac57fe5b9060005260206000209060020201600101548311949350505050565b600061145283836040518060400160405280601e81526020017f536166654d6174683a207375627472616374696f6e206f766572666c6f7700008152506118fa565b600080611715611a1a565b85600061ffff168154811061172657fe5b600091825260208083206040805160808101825260029490940290910180546001600160a01b0381168552600160a01b810461ffff1693850193909352600160b01b90920460ff16908301526001015460608201529150805b602083015161ffff16158015906117c15750866001600160a01b031683600001516001600160a01b03161480156117bf57508560ff16836040015160ff16145b155b15611840575060208201518754909190889061ffff84169081106117e157fe5b60009182526020918290206040805160808101825260029390930290910180546001600160a01b0381168452600160a01b810461ffff1694840194909452600160b01b90930460ff16908201526001909101546060820152925061177f565b9097909650945050505050565b60008261185c57506000611455565b8282028284828161186957fe5b04146114525760405162461bcd60e51b8152600401808060200182810382526021815260200180611a6c6021913960400191505060405180910390fd5b600061145283836040518060400160405280601a815260200179536166654d6174683a206469766973696f6e206279207a65726f60301b815250611991565b6118f06000806119f6565b6106406000610fb1565b600081848411156119895760405162461bcd60e51b81526004018080602001828103825283818151815260200191508051906020019080838360005b8381101561194e578181015183820152602001611936565b50505050905090810190601f16801561197b5780820380516001836020036101000a031916815260200191505b509250505060405180910390fd5b505050900390565b600081836119e05760405162461bcd60e51b815260206004820181815283516024840152835190928392604490910191908501908083836000831561194e578181015183820152602001611936565b5060008385816119ec57fe5b0495945050505050565b5080546000825560020290600052602060002090810190611a179190611a41565b50565b60408051608081018252600080825260208201819052918101829052606081019190915290565b5b80821115611a675780546001600160b81b031916815560006001820155600201611a42565b509056fe536166654d6174683a206d756c7469706c69636174696f6e206f766572666c6f77a26469706673582212205d7d677a5d0023f42750947d646310388be72fe7199de8e68d1004cc8b49f38064736f6c634300060c0033",
  "compiler": {
    "name": "solc",
    "version": "0.6.12+commit.27d51765.Emscripten.clang",
    "optimizer": {
      "enabled": true,
      "runs": 1
    },
    "evmVersion": "petersburg"
  }
}