{
  "fileName": "RewardsAndPenalties.sol",
  "contractName": "RewardsAndPenalties",
  "source": "// SPDX-License-Identifier: MIT\npragma solidity ^0.6.12;\n\nimport \"./Pools.sol\";\n\ncontract RewardsAndPenalties is Pools {\n\n    function _distributeReferralReward(uint amount, Investment memory investment) internal {\n        if (investment.uplink.uplinkAddress != address(0) && users[investment.uplink.uplinkAddress].investments[investment.uplink.uplinkInvestmentId].active) {\n            User storage uplinkUser = users[investment.uplink.uplinkAddress];\n\n            uint commission = _calcPercentage(amount, refCommission);\n\n            uplinkUser.investments[investment.uplink.uplinkInvestmentId].refCommission = uplinkUser.investments[investment.uplink.uplinkInvestmentId].refCommission.add(commission);\n\n            if (investment.refPool.cycle != poolCycle) {\n                investment.refPool.cycle = poolCycle;\n                investment.refPool.amount = 0;\n            }\n\n            investment.refPool.amount = investment.refPool.amount.add(amount);\n\n            _updateRefPoolUsers(uplinkUser, investment);\n\n            totalRefRewards = totalRefRewards.add(commission);\n        }\n    }\n\n    function _calcDepositRewards(uint amount) internal view returns (uint) {\n        uint rewardPercent = 0;\n\n        if (amount > 5000000) {\n            rewardPercent = 50;\n        } else if (amount > 1000000) {\n            rewardPercent = 40;\n        } else if (amount > 800000) {\n            rewardPercent = 35;\n        } else if (amount > 500000) {\n            rewardPercent = 30;\n        } else if (amount > 250000) {\n            rewardPercent = 25;\n        } else if (amount > 100000) {\n            rewardPercent = 20;\n        } else if (amount > 50000) {\n            rewardPercent = 15;\n        } else if (amount > 25000) {\n            rewardPercent = 10;\n        } else if (amount > 10000) {\n            rewardPercent = 5;\n        } else if (amount > 5000) {\n            rewardPercent = 2;\n        } else if (amount > 2000) {\n            rewardPercent = 1;\n        }\n\n        return _calcPercentage(amount, rewardPercent);\n    }\n\n    function _calcContractBonus(Investment memory investment) internal view returns (uint) {\n        uint contractBonusPercent = fourRXToken.balanceOf(address(this)).div(contractBonusUnit).mul(contractBonusUnitBonus);\n\n        if (contractBonusPercent > maxContractBonus) {\n            contractBonusPercent = maxContractBonus;\n        }\n\n        return _calcPercentage(investment.deposit, contractBonusPercent);\n    }\n\n    function _calcHoldRewards(Investment memory investment) internal view returns (uint) {\n        uint holdPeriods = _calcDays(investment.holdFrom, block.timestamp).mul(2);\n        uint holdBonusPercent = holdPeriods.mul(holdBonusUnitBonus);\n\n        if (holdBonusPercent > maxHoldBonus) {\n            holdBonusPercent = maxHoldBonus;\n        }\n\n        return _calcPercentage(investment.deposit, holdBonusPercent);\n    }\n\n    function _calcRewardsWithoutHoldBonus(Investment memory investment) internal view returns (uint) {\n        uint poolRewardsAmount = investment.refPoolRewards.add(investment.sponsorPoolRewards);\n        uint refCommissionAmount = investment.refCommission;\n\n        uint interest = _calcPercentage(investment.deposit, getInterestTillDays(_calcDays(investment.interestCountFrom, block.timestamp)));\n\n        uint contractBonus = _calcContractBonus(investment);\n\n        uint totalRewardsWithoutHoldBonus = poolRewardsAmount.add(refCommissionAmount).add(interest).add(contractBonus);\n\n        return totalRewardsWithoutHoldBonus;\n    }\n\n    function _calcRewards(Investment memory investment) internal view returns (uint) {\n        uint rewards = _calcRewardsWithoutHoldBonus(investment);\n\n        if (_calcBasisPoints(investment.deposit, rewards) >= holdBonusUnlocksAt) {\n            rewards = rewards.add(_calcHoldRewards(investment));\n        }\n\n        uint maxRewards = _calcPercentage(investment.deposit, maxContractRewards);\n\n        if (rewards > maxRewards) {\n            rewards = maxRewards;\n        }\n\n        return rewards;\n    }\n\n    function _calcPenalty(Investment memory investment, uint withdrawalAmount) internal view returns (uint) {\n        uint basisPoints = _calcBasisPoints(investment.deposit, withdrawalAmount);\n        // If user's rewards are more then 3% -- No penalty\n        if (basisPoints >= holdBonusUnlocksAt) {\n            return 0;\n        }\n        // If user's rewards are less then then 2% -- 66% penalty\n        if (basisPoints < 200) {\n            return _calcPercentage(withdrawalAmount, 6600);\n        }\n\n        // If user's rewards are less then then 3% and greater or equals to 2% -- 33% penalty\n        return _calcPercentage(withdrawalAmount, 3300);\n    }\n}\n",
  "sourcePath": "contracts/RewardsAndPenalties.sol",
  "abi": [
    {
      "anonymous": false,
      "inputs": [
        {
          "indexed": false,
          "internalType": "address",
          "name": "user",
          "type": "address"
        },
        {
          "indexed": false,
          "internalType": "address",
          "name": "uplink",
          "type": "address"
        },
        {
          "indexed": false,
          "internalType": "uint256",
          "name": "amount",
          "type": "uint256"
        }
      ],
      "name": "Deposit",
      "type": "event"
    },
    {
      "anonymous": false,
      "inputs": [
        {
          "indexed": false,
          "internalType": "address",
          "name": "user",
          "type": "address"
        }
      ],
      "name": "Exited",
      "type": "event"
    },
    {
      "anonymous": false,
      "inputs": [
        {
          "indexed": false,
          "internalType": "address",
          "name": "user",
          "type": "address"
        },
        {
          "indexed": false,
          "internalType": "uint256",
          "name": "amount",
          "type": "uint256"
        }
      ],
      "name": "ReInvest",
      "type": "event"
    },
    {
      "anonymous": false,
      "inputs": [
        {
          "indexed": false,
          "internalType": "address",
          "name": "user",
          "type": "address"
        },
        {
          "indexed": false,
          "internalType": "uint256",
          "name": "amount",
          "type": "uint256"
        }
      ],
      "name": "Withdraw",
      "type": "event"
    },
    {
      "inputs": [
        {
          "internalType": "uint256",
          "name": "",
          "type": "uint256"
        }
      ],
      "name": "depositBonuses",
      "outputs": [
        {
          "internalType": "uint256",
          "name": "",
          "type": "uint256"
        }
      ],
      "stateMutability": "view",
      "type": "function"
    },
    {
      "inputs": [
        {
          "internalType": "uint256",
          "name": "",
          "type": "uint256"
        }
      ],
      "name": "refPoolBonuses",
      "outputs": [
        {
          "internalType": "uint256",
          "name": "",
          "type": "uint256"
        }
      ],
      "stateMutability": "view",
      "type": "function"
    },
    {
      "inputs": [
        {
          "internalType": "uint256",
          "name": "",
          "type": "uint256"
        }
      ],
      "name": "refPoolUsers",
      "outputs": [
        {
          "internalType": "address",
          "name": "user",
          "type": "address"
        },
        {
          "internalType": "uint256",
          "name": "investmentId",
          "type": "uint256"
        }
      ],
      "stateMutability": "view",
      "type": "function"
    },
    {
      "inputs": [
        {
          "internalType": "uint256",
          "name": "",
          "type": "uint256"
        }
      ],
      "name": "sponsorPoolBonuses",
      "outputs": [
        {
          "internalType": "uint256",
          "name": "",
          "type": "uint256"
        }
      ],
      "stateMutability": "view",
      "type": "function"
    },
    {
      "inputs": [
        {
          "internalType": "uint256",
          "name": "",
          "type": "uint256"
        }
      ],
      "name": "sponsorPoolUsers",
      "outputs": [
        {
          "internalType": "address",
          "name": "user",
          "type": "address"
        },
        {
          "internalType": "uint256",
          "name": "investmentId",
          "type": "uint256"
        }
      ],
      "stateMutability": "view",
      "type": "function"
    }
  ],
  "bytecode": "0x6080604052612710600055600060015562030d40600255620151806003556175306005556103e86006556102bc6007556113886008557364b8cb4c04ba902010856d913b4e5df940748bf2600960006101000a8154816001600160a01b0302191690836001600160a01b031602179055506032600a556032600b55611388600c5561012c600d556064600e556001600f556002601055606460115561012c60125561012c6013553480156100b257600080fd5b506101c6806100c26000396000f3fe608060405234801561001057600080fd5b50600436106100575760003560e01c806348a91a241461005c5780639c236aa81461008b578063d5766ebd146100cb578063df5a75ef146100e8578063ed56f6a114610105575b600080fd5b6100796004803603602081101561007257600080fd5b5035610122565b60408051918252519081900360200190f35b6100a8600480360360208110156100a157600080fd5b5035610140565b604080516001600160a01b03909316835260208301919091528051918290030190f35b610079600480360360208110156100e157600080fd5b5035610169565b610079600480360360208110156100fe57600080fd5b5035610176565b6100a86004803603602081101561011b57600080fd5b5035610183565b6048818154811061012f57fe5b600091825260209091200154905081565b603181600a811061014d57fe5b6002020180546001909101546001600160a01b03909116915082565b6046818154811061012f57fe5b6047818154811061012f57fe5b601981600c811061014d57fefea264697066735822122073928148fea3e6db335520b0ffa40eb93a85e2c72eca3ba6b29e28e87a76f29264736f6c634300060c0033",
  "compiler": {
    "name": "solc",
    "version": "0.6.12+commit.27d51765.Emscripten.clang",
    "optimizer": {
      "enabled": true,
      "runs": 1
    },
    "evmVersion": "petersburg"
  }
}