{
  "fileName": "RewardsAndPenalties.sol",
  "contractName": "RewardsAndPenalties",
  "source": "// SPDX-License-Identifier: MIT\npragma solidity ^0.6.12;\n\nimport \"@openzeppelin/contracts/math/SafeMath.sol\";\nimport \"./Pools.sol\";\n\n\ncontract RewardsAndPenalties is Pools {\n    using SafeMath for uint;\n\n    function _distributeReferralReward(uint amount, Stake memory stake, address uplinkAddress, uint uplinkStakeId) internal {\n        User storage uplinkUser = users[uplinkAddress];\n\n        uint commission = _calcPercentage(amount, REF_COMMISSION_BP);\n\n        uplinkUser.stakes[uplinkStakeId].refCommission = uplinkUser.stakes[uplinkStakeId].refCommission.add(commission);\n\n        // @todo: check correctness of this\n        if (stake.refPool.cycle != poolCycle) {\n            stake.refPool.cycle = poolCycle;\n            stake.refPool.amount = 0;\n        }\n\n        stake.refPool.amount = stake.refPool.amount.add(amount);\n\n        _updateRefPoolUsers(uplinkUser, stake);\n    }\n\n    function _calcDepositRewards(uint amount) internal pure returns (uint) {\n        uint rewardPercent = 0;\n\n        if (amount > 175) {\n            rewardPercent = 50; // 0.5%\n        } else if (amount > 150) {\n            rewardPercent = 40; // 0.4%\n        } else if (amount > 135) {\n            rewardPercent = 35; // 0.35%\n        } else if (amount > 119) {\n            rewardPercent = 30; // 0.3%\n        } else if (amount > 100) {\n            rewardPercent = 25; // 0.25%\n        } else if (amount > 89) {\n            rewardPercent = 20; // 0.2%\n        } else if (amount > 75) {\n            rewardPercent = 15; // 0.15%\n        } else if (amount > 59) {\n            rewardPercent = 10; // 0.1%\n        } else if (amount > 45) {\n            rewardPercent = 5; // 0.05%\n        } else if (amount > 20) {\n            rewardPercent = 2; // 0.02%\n        } else if (amount > 9) {\n            rewardPercent = 1; // 0.01%\n        }\n\n        return _calcPercentage(amount, rewardPercent);\n    }\n\n    function _calcContractBonus(Stake memory stake) internal view returns (uint) {\n        uint contractBonusPercent = fourRXToken.balanceOf(address(this)).mul(CONTRACT_BONUS_PER_UNIT_BP).div(CONTRACT_BONUS_UNIT);\n\n        if (contractBonusPercent > MAX_CONTRACT_BONUS_BP) {\n            contractBonusPercent = MAX_CONTRACT_BONUS_BP;\n        }\n\n        return _calcPercentage(stake.deposit, contractBonusPercent);\n    }\n\n    function _calcHoldRewards(Stake memory stake) internal view returns (uint) {\n        uint holdPeriods = _calcDays(stake.holdFrom, block.timestamp).mul(DAY).div(HOLD_BONUS_UNIT);\n        uint holdBonusPercent = holdPeriods.mul(HOLD_BONUS_PER_UNIT_BP);\n\n        if (holdBonusPercent > MAX_HOLD_BONUS_BP) {\n            holdBonusPercent = MAX_HOLD_BONUS_BP;\n        }\n\n        return _calcPercentage(stake.deposit, holdBonusPercent);\n    }\n\n    function _calcRewardsWithoutHoldBonus(Stake memory stake) internal view returns (uint) {\n        uint poolRewardsAmount = stake.refPoolRewards.add(stake.sponsorPoolRewards);\n        uint refCommissionAmount = stake.refCommission;\n\n        uint interest = _calcPercentage(stake.deposit, _getInterestTillDays(_calcDays(stake.interestCountFrom, block.timestamp)));\n\n        uint contractBonus = _calcContractBonus(stake);\n\n        uint totalRewardsWithoutHoldBonus = poolRewardsAmount.add(refCommissionAmount).add(interest).add(contractBonus);\n\n        return totalRewardsWithoutHoldBonus;\n    }\n\n    function _calcRewards(Stake memory stake) internal view returns (uint) {\n        uint rewards = _calcRewardsWithoutHoldBonus(stake);\n\n        if (_calcBasisPoints(stake.deposit, rewards) >= REWARD_THRESHOLD_BP) {\n            rewards = rewards.add(_calcHoldRewards(stake));\n        }\n\n        uint maxRewards = _calcPercentage(stake.deposit, MAX_CONTRACT_REWARD_BP);\n\n        if (rewards > maxRewards) {\n            rewards = maxRewards;\n        }\n\n        return rewards;\n    }\n\n    function _calcPenalty(Stake memory stake, uint withdrawalAmount) internal pure returns (uint) {\n        uint basisPoints = _calcBasisPoints(stake.deposit, withdrawalAmount);\n        // If user's rewards are more then REWARD_THRESHOLD_BP -- No penalty\n        if (basisPoints >= REWARD_THRESHOLD_BP) {\n            return 0;\n        }\n\n        return _calcPercentage(withdrawalAmount, PERCENT_MULTIPLIER.sub(basisPoints.mul(PERCENT_MULTIPLIER).div(REWARD_THRESHOLD_BP)));\n    }\n}\n",
  "sourcePath": "contracts/RewardsAndPenalties.sol",
  "abi": [
    {
      "anonymous": false,
      "inputs": [
        {
          "indexed": false,
          "internalType": "address",
          "name": "user",
          "type": "address"
        },
        {
          "indexed": false,
          "internalType": "uint256",
          "name": "amount",
          "type": "uint256"
        },
        {
          "indexed": false,
          "internalType": "address",
          "name": "uplinkAddress",
          "type": "address"
        },
        {
          "indexed": false,
          "internalType": "uint256",
          "name": "uplinkStakeId",
          "type": "uint256"
        }
      ],
      "name": "Deposit",
      "type": "event"
    },
    {
      "anonymous": false,
      "inputs": [
        {
          "indexed": false,
          "internalType": "address",
          "name": "user",
          "type": "address"
        },
        {
          "indexed": false,
          "internalType": "uint256",
          "name": "stakeId",
          "type": "uint256"
        },
        {
          "indexed": false,
          "internalType": "uint256",
          "name": "amount",
          "type": "uint256"
        }
      ],
      "name": "Exited",
      "type": "event"
    },
    {
      "anonymous": false,
      "inputs": [
        {
          "indexed": false,
          "internalType": "uint256",
          "name": "refPoolAmount",
          "type": "uint256"
        },
        {
          "indexed": false,
          "internalType": "uint256",
          "name": "sponsirPoolAmount",
          "type": "uint256"
        }
      ],
      "name": "PoolDrawn",
      "type": "event"
    },
    {
      "anonymous": false,
      "inputs": [
        {
          "indexed": false,
          "internalType": "address",
          "name": "user",
          "type": "address"
        },
        {
          "indexed": false,
          "internalType": "uint256",
          "name": "amount",
          "type": "uint256"
        }
      ],
      "name": "ReInvest",
      "type": "event"
    },
    {
      "anonymous": false,
      "inputs": [
        {
          "indexed": false,
          "internalType": "address",
          "name": "user",
          "type": "address"
        },
        {
          "indexed": false,
          "internalType": "uint256",
          "name": "amount",
          "type": "uint256"
        }
      ],
      "name": "Withdrawn",
      "type": "event"
    },
    {
      "inputs": [],
      "name": "CONTRACT_BONUS_PER_UNIT_BP",
      "outputs": [
        {
          "internalType": "uint256",
          "name": "",
          "type": "uint256"
        }
      ],
      "stateMutability": "view",
      "type": "function"
    },
    {
      "inputs": [],
      "name": "CONTRACT_BONUS_UNIT",
      "outputs": [
        {
          "internalType": "uint256",
          "name": "",
          "type": "uint256"
        }
      ],
      "stateMutability": "view",
      "type": "function"
    },
    {
      "inputs": [],
      "name": "DAY",
      "outputs": [
        {
          "internalType": "uint256",
          "name": "",
          "type": "uint256"
        }
      ],
      "stateMutability": "view",
      "type": "function"
    },
    {
      "inputs": [],
      "name": "DEV_FEE_BP",
      "outputs": [
        {
          "internalType": "uint256",
          "name": "",
          "type": "uint256"
        }
      ],
      "stateMutability": "view",
      "type": "function"
    },
    {
      "inputs": [],
      "name": "EXIT_PENALTY_BP",
      "outputs": [
        {
          "internalType": "uint256",
          "name": "",
          "type": "uint256"
        }
      ],
      "stateMutability": "view",
      "type": "function"
    },
    {
      "inputs": [],
      "name": "HOLD_BONUS_PER_UNIT_BP",
      "outputs": [
        {
          "internalType": "uint256",
          "name": "",
          "type": "uint256"
        }
      ],
      "stateMutability": "view",
      "type": "function"
    },
    {
      "inputs": [],
      "name": "HOLD_BONUS_UNIT",
      "outputs": [
        {
          "internalType": "uint256",
          "name": "",
          "type": "uint256"
        }
      ],
      "stateMutability": "view",
      "type": "function"
    },
    {
      "inputs": [],
      "name": "LP_FEE_BP",
      "outputs": [
        {
          "internalType": "uint256",
          "name": "",
          "type": "uint256"
        }
      ],
      "stateMutability": "view",
      "type": "function"
    },
    {
      "inputs": [],
      "name": "MAX_CONTRACT_BONUS_BP",
      "outputs": [
        {
          "internalType": "uint256",
          "name": "",
          "type": "uint256"
        }
      ],
      "stateMutability": "view",
      "type": "function"
    },
    {
      "inputs": [],
      "name": "MAX_CONTRACT_REWARD_BP",
      "outputs": [
        {
          "internalType": "uint256",
          "name": "",
          "type": "uint256"
        }
      ],
      "stateMutability": "view",
      "type": "function"
    },
    {
      "inputs": [],
      "name": "MAX_HOLD_BONUS_BP",
      "outputs": [
        {
          "internalType": "uint256",
          "name": "",
          "type": "uint256"
        }
      ],
      "stateMutability": "view",
      "type": "function"
    },
    {
      "inputs": [],
      "name": "MAX_WITHDRAWAL_OVER_REWARD_THRESHOLD_BP",
      "outputs": [
        {
          "internalType": "uint256",
          "name": "",
          "type": "uint256"
        }
      ],
      "stateMutability": "view",
      "type": "function"
    },
    {
      "inputs": [],
      "name": "PERCENT_MULTIPLIER",
      "outputs": [
        {
          "internalType": "uint256",
          "name": "",
          "type": "uint256"
        }
      ],
      "stateMutability": "view",
      "type": "function"
    },
    {
      "inputs": [],
      "name": "REF_COMMISSION_BP",
      "outputs": [
        {
          "internalType": "uint256",
          "name": "",
          "type": "uint256"
        }
      ],
      "stateMutability": "view",
      "type": "function"
    },
    {
      "inputs": [],
      "name": "REF_POOL_FEE_BP",
      "outputs": [
        {
          "internalType": "uint256",
          "name": "",
          "type": "uint256"
        }
      ],
      "stateMutability": "view",
      "type": "function"
    },
    {
      "inputs": [],
      "name": "REWARD_THRESHOLD_BP",
      "outputs": [
        {
          "internalType": "uint256",
          "name": "",
          "type": "uint256"
        }
      ],
      "stateMutability": "view",
      "type": "function"
    },
    {
      "inputs": [],
      "name": "SPONSOR_POOL_FEE_BP",
      "outputs": [
        {
          "internalType": "uint256",
          "name": "",
          "type": "uint256"
        }
      ],
      "stateMutability": "view",
      "type": "function"
    },
    {
      "inputs": [],
      "name": "devAddress",
      "outputs": [
        {
          "internalType": "address",
          "name": "",
          "type": "address"
        }
      ],
      "stateMutability": "view",
      "type": "function"
    },
    {
      "inputs": [],
      "name": "devBalance",
      "outputs": [
        {
          "internalType": "uint256",
          "name": "",
          "type": "uint256"
        }
      ],
      "stateMutability": "view",
      "type": "function"
    },
    {
      "inputs": [],
      "name": "drawPool",
      "outputs": [],
      "stateMutability": "nonpayable",
      "type": "function"
    },
    {
      "inputs": [],
      "name": "fourRXToken",
      "outputs": [
        {
          "internalType": "contract IERC20",
          "name": "",
          "type": "address"
        }
      ],
      "stateMutability": "view",
      "type": "function"
    },
    {
      "inputs": [],
      "name": "maxContractBalance",
      "outputs": [
        {
          "internalType": "uint256",
          "name": "",
          "type": "uint256"
        }
      ],
      "stateMutability": "view",
      "type": "function"
    },
    {
      "inputs": [],
      "name": "poolCycle",
      "outputs": [
        {
          "internalType": "uint16",
          "name": "",
          "type": "uint16"
        }
      ],
      "stateMutability": "view",
      "type": "function"
    },
    {
      "inputs": [],
      "name": "poolDrewAt",
      "outputs": [
        {
          "internalType": "uint32",
          "name": "",
          "type": "uint32"
        }
      ],
      "stateMutability": "view",
      "type": "function"
    },
    {
      "inputs": [],
      "name": "refPoolBalance",
      "outputs": [
        {
          "internalType": "uint256",
          "name": "",
          "type": "uint256"
        }
      ],
      "stateMutability": "view",
      "type": "function"
    },
    {
      "inputs": [
        {
          "internalType": "uint256",
          "name": "",
          "type": "uint256"
        }
      ],
      "name": "refPoolBonuses",
      "outputs": [
        {
          "internalType": "uint256",
          "name": "",
          "type": "uint256"
        }
      ],
      "stateMutability": "view",
      "type": "function"
    },
    {
      "inputs": [
        {
          "internalType": "uint256",
          "name": "",
          "type": "uint256"
        }
      ],
      "name": "refPoolUsers",
      "outputs": [
        {
          "internalType": "address",
          "name": "user",
          "type": "address"
        },
        {
          "internalType": "uint8",
          "name": "stakeId",
          "type": "uint8"
        }
      ],
      "stateMutability": "view",
      "type": "function"
    },
    {
      "inputs": [],
      "name": "sponsorPoolBalance",
      "outputs": [
        {
          "internalType": "uint256",
          "name": "",
          "type": "uint256"
        }
      ],
      "stateMutability": "view",
      "type": "function"
    },
    {
      "inputs": [
        {
          "internalType": "uint256",
          "name": "",
          "type": "uint256"
        }
      ],
      "name": "sponsorPoolBonuses",
      "outputs": [
        {
          "internalType": "uint256",
          "name": "",
          "type": "uint256"
        }
      ],
      "stateMutability": "view",
      "type": "function"
    },
    {
      "inputs": [
        {
          "internalType": "uint256",
          "name": "",
          "type": "uint256"
        }
      ],
      "name": "sponsorPoolUsers",
      "outputs": [
        {
          "internalType": "address",
          "name": "user",
          "type": "address"
        },
        {
          "internalType": "uint8",
          "name": "stakeId",
          "type": "uint8"
        }
      ],
      "stateMutability": "view",
      "type": "function"
    },
    {
      "inputs": [],
      "name": "totalDepositRewards",
      "outputs": [
        {
          "internalType": "uint256",
          "name": "",
          "type": "uint256"
        }
      ],
      "stateMutability": "view",
      "type": "function"
    },
    {
      "inputs": [],
      "name": "totalExited",
      "outputs": [
        {
          "internalType": "uint256",
          "name": "",
          "type": "uint256"
        }
      ],
      "stateMutability": "view",
      "type": "function"
    },
    {
      "inputs": [
        {
          "internalType": "address",
          "name": "",
          "type": "address"
        }
      ],
      "name": "users",
      "outputs": [
        {
          "internalType": "address",
          "name": "wallet",
          "type": "address"
        }
      ],
      "stateMutability": "view",
      "type": "function"
    }
  ],
  "bytecode": "0x6080604052600380546001600160a01b0319167364b8cb4c04ba902010856d913b4e5df940748bf217905534801561003657600080fd5b506109ca806100466000396000f3fe608060405234801561001057600080fd5b506004361061018b5760003560e01c806303162d2c146101905780630781235a146101aa5780630ac39f72146101b25780630f9fa6aa146101aa57806312dd5fe4146101aa57806327cfe856146101ba5780633ad10ef6146101c25780633df936c9146101e6578063498dc5b5146101ee57806363b815fa146101f657806365fcb49e146101fe57806369da94d8146102065780637247b2b91461020e57806391994b2c146102165780639b6eec7d1461021e5780639c236aa814610226578063a00d498014610268578063a13a801a14610270578063a87430ba14610278578063a9122af71461029e578063aaf1a0da14610270578063b963ddb4146102a6578063cabea10d146102ae578063cd9a1b63146102cd578063d5766ebd146102d5578063d82daec7146102f2578063d902f40c146102fa578063df5a75ef14610302578063e52314111461031f578063e7204ffb14610327578063ed56f6a114610331578063f48e595a1461034e578063fd0b825214610356575b600080fd5b610198610377565b60408051918252519081900360200190f35b61019861037d565b610198610383565b610198610388565b6101ca61038f565b604080516001600160a01b039092168252519081900360200190f35b61019861039e565b6101986103a4565b6101986103aa565b6101986103b0565b6101986103b6565b6101986103bc565b6101986103c2565b6101986103c8565b6102436004803603602081101561023c57600080fd5b50356103ce565b604080516001600160a01b03909316835260ff90911660208301528051918290030190f35b6101986103f6565b6101986103fb565b6101ca6004803603602081101561028e57600080fd5b50356001600160a01b0316610400565b6101ca61041b565b61019861042a565b6102b6610430565b6040805161ffff9092168252519081900360200190f35b61019861043a565b610198600480360360208110156102eb57600080fd5b5035610440565b61019861045e565b610198610464565b6101986004803603602081101561031857600080fd5b5035610469565b610198610476565b61032f61047b565b005b6102436004803603602081101561034757600080fd5b503561070b565b610198610718565b61035e61071d565b6040805163ffffffff9092168252519081900360200190f35b61a8c081565b61012c81565b600281565b6201518081565b6003546001600160a01b031681565b60205481565b61138881565b61271081565b601d5481565b61924f81565b60005481565b60015481565b6101f481565b601181600a81106103db57fe5b01546001600160a01b0381169150600160a01b900460ff1682565b600581565b603281565b6004602052600090815260409020546001600160a01b031681565b6002546001600160a01b031681565b61032081565b601e5461ffff1681565b60215481565b601b818154811061044d57fe5b600091825260209091200154905081565b601f5481565b600181565b601c818154811061044d57fe5b606481565b601e546201518063ffffffff62010000909204821601164211156107095760005b600c8110156105b5576000600582600c81106104b457fe5b01546001600160a01b031614156104ca576105b5565b600060046000600584600c81106104dd57fe5b01546001600160a01b031681526020810191909152604001600020601f54601b805492935061056f926105269291908690811061051657fe5b906000526020600020015461072f565b82600101600585600c811061053757fe5b01548154600160a01b90910460ff1690811061054f57fe5b90600052602060002090600b02016005015461075090919063ffffffff16565b81600101600584600c811061058057fe5b01548154600160a01b90910460ff1690811061059857fe5b600091825260209091206005600b9092020101555060010161049c565b5060005b600a8110156106c2576000601182600a81106105d157fe5b01546001600160a01b031614156105e7576106c2565b600060046000601184600a81106105fa57fe5b01546001600160a01b031681526020808201929092526040016000209054601c805492935061067c926106339291908690811061051657fe5b82600101601185600a811061064457fe5b01548154600160a01b90910460ff1690811061065c57fe5b90600052602060002090600b02016006015461075090919063ffffffff16565b81600101601184600a811061068d57fe5b01548154600160a01b90910460ff169081106106a557fe5b600091825260209091206006600b909202010155506001016105b9565b50601f5460208054604080519384529183015280517f505fb5b242804521f868b1210d5697cefabaa21c3f697207aa5c02dc549116e29281900390910190a16107096107a8565b565b600581600c81106103db57fe5b60fa81565b601e5462010000900463ffffffff1681565b600061074761271061074185856107fe565b90610857565b90505b92915050565b600082820183811015610747576040805162461bcd60e51b815260206004820152601b60248201527a536166654d6174683a206164646974696f6e206f766572666c6f7760281b604482015290519081900360640190fd5b6107b460056000610933565b6107c060116000610945565b6000601f819055602055601e805461ffff1965ffffffff000019909116620100004263ffffffff160217908116600161ffff92831601909116179055565b60008261080d5750600061074a565b8282028284828161081a57fe5b04146107475760405162461bcd60e51b81526004018080602001828103825260218152602001806109746021913960400191505060405180910390fd5b600061074783836040518060400160405280601a815260200179536166654d6174683a206469766973696f6e206279207a65726f60301b8152506000818361091d5760405162461bcd60e51b81526004018080602001828103825283818151815260200191508051906020019080838360005b838110156108e25781810151838201526020016108ca565b50505050905090810190601f16801561090f5780820380516001836020036101000a031916815260200191505b509250505060405180910390fd5b50600083858161092957fe5b0495945050505050565b5061094290600c810190610950565b50565b5061094290600a8101905b5b8082111561096f5780546001600160a81b0319168155600101610951565b509056fe536166654d6174683a206d756c7469706c69636174696f6e206f766572666c6f77a26469706673582212201d670f381e4061e297b2c9948494764248ec7405a1bc9ac6547c78f5aa1e14a664736f6c634300060c0033",
  "compiler": {
    "name": "solc",
    "version": "0.6.12+commit.27d51765.Emscripten.clang",
    "optimizer": {
      "enabled": true,
      "runs": 1
    },
    "evmVersion": "petersburg"
  }
}