{
  "fileName": "RewardsAndPenalties.sol",
  "contractName": "RewardsAndPenalties",
  "source": "// SPDX-License-Identifier: MIT\npragma solidity ^0.6.12;\n\nimport \"@openzeppelin/contracts/math/SafeMath.sol\";\nimport \"./Pools.sol\";\n\n\ncontract RewardsAndPenalties is Pools {\n    using SafeMath for uint;\n\n    function _distributeReferralReward(uint amount, Stake memory stake) internal {\n        if (\n            stake.uplink.uplinkAddress != address(0) &&\n            users[stake.uplink.uplinkAddress].stakes[stake.uplink.uplinkStakeId].active\n        ) {\n            User storage uplinkUser = users[stake.uplink.uplinkAddress];\n\n            uint commission = _calcPercentage(amount, REF_COMMISSION_BP);\n\n            uplinkUser.stakes[stake.uplink.uplinkStakeId].refCommission = uplinkUser.stakes[stake.uplink.uplinkStakeId].refCommission.add(commission);\n\n            if (stake.refPool.cycle != poolCycle) {\n                stake.refPool.cycle = poolCycle;\n                stake.refPool.amount = 0;\n            }\n\n            stake.refPool.amount = stake.refPool.amount.add(amount);\n\n            _updateRefPoolUsers(uplinkUser, stake);\n\n            totalRefRewards = totalRefRewards.add(commission);\n        }\n    }\n\n    function _calcDepositRewards(uint amount) internal pure returns (uint) {\n        uint rewardPercent = 0;\n\n        if (amount > 175) {\n            rewardPercent = 50; // 0.5%\n        } else if (amount > 150) {\n            rewardPercent = 40; // 0.4%\n        } else if (amount > 135) {\n            rewardPercent = 35; // 0.35%\n        } else if (amount > 119) {\n            rewardPercent = 30; // 0.3%\n        } else if (amount > 100) {\n            rewardPercent = 25; // 0.25%\n        } else if (amount > 89) {\n            rewardPercent = 20; // 0.2%\n        } else if (amount > 75) {\n            rewardPercent = 15; // 0.15%\n        } else if (amount > 59) {\n            rewardPercent = 10; // 0.1%\n        } else if (amount > 45) {\n            rewardPercent = 5; // 0.05%\n        } else if (amount > 20) {\n            rewardPercent = 2; // 0.02%\n        } else if (amount > 9) {\n            rewardPercent = 1; // 0.01%\n        }\n\n        return _calcPercentage(amount, rewardPercent);\n    }\n\n    function _calcContractBonus(Stake memory stake) internal view returns (uint) {\n        uint contractBonusPercent = fourRXToken.balanceOf(address(this)).mul(CONTRACT_BONUS_PER_UNIT_BP).div(CONTRACT_BONUS_UNIT);\n\n        if (contractBonusPercent > MAX_CONTRACT_BONUS_BP) {\n            contractBonusPercent = MAX_CONTRACT_BONUS_BP;\n        }\n\n        return _calcPercentage(stake.deposit, contractBonusPercent);\n    }\n\n    function _calcHoldRewards(Stake memory stake) internal view returns (uint) {\n        uint holdPeriods = _calcDays(stake.holdFrom, block.timestamp).mul(DAY).div(HOLD_BONUS_UNIT);\n        uint holdBonusPercent = holdPeriods.mul(HOLD_BONUS_PER_UNIT_BP);\n\n        if (holdBonusPercent > MAX_HOLD_BONUS_BP) {\n            holdBonusPercent = MAX_HOLD_BONUS_BP;\n        }\n\n        return _calcPercentage(stake.deposit, holdBonusPercent);\n    }\n\n    function _calcRewardsWithoutHoldBonus(Stake memory stake) internal view returns (uint) {\n        uint poolRewardsAmount = stake.refPoolRewards.add(stake.sponsorPoolRewards);\n        uint refCommissionAmount = stake.refCommission;\n\n        uint interest = _calcPercentage(stake.deposit, _getInterestTillDays(_calcDays(stake.interestCountFrom, block.timestamp)));\n\n        uint contractBonus = _calcContractBonus(stake);\n\n        uint totalRewardsWithoutHoldBonus = poolRewardsAmount.add(refCommissionAmount).add(interest).add(contractBonus);\n\n        return totalRewardsWithoutHoldBonus;\n    }\n\n    function _calcRewards(Stake memory stake) internal view returns (uint) {\n        uint rewards = _calcRewardsWithoutHoldBonus(stake);\n\n        if (_calcBasisPoints(stake.deposit, rewards) >= REWARD_THRESHOLD_BP) {\n            rewards = rewards.add(_calcHoldRewards(stake));\n        }\n\n        uint maxRewards = _calcPercentage(stake.deposit, MAX_CONTRACT_REWARD_BP);\n\n        if (rewards > maxRewards) {\n            rewards = maxRewards;\n        }\n\n        return rewards;\n    }\n\n    function _calcPenalty(Stake memory stake, uint withdrawalAmount) internal pure returns (uint) {\n        uint basisPoints = _calcBasisPoints(stake.deposit, withdrawalAmount);\n        // If user's rewards are more then REWARD_THRESHOLD_BP -- No penalty\n        if (basisPoints >= REWARD_THRESHOLD_BP) {\n            return 0;\n        }\n\n        return _calcPercentage(withdrawalAmount, PERCENT_MULTIPLIER.sub(basisPoints.mul(PERCENT_MULTIPLIER).div(REWARD_THRESHOLD_BP)));\n    }\n}\n",
  "sourcePath": "contracts/RewardsAndPenalties.sol",
  "abi": [
    {
      "anonymous": false,
      "inputs": [
        {
          "indexed": false,
          "internalType": "address",
          "name": "user",
          "type": "address"
        },
        {
          "indexed": false,
          "internalType": "address",
          "name": "uplink",
          "type": "address"
        },
        {
          "indexed": false,
          "internalType": "uint256",
          "name": "amount",
          "type": "uint256"
        }
      ],
      "name": "Deposit",
      "type": "event"
    },
    {
      "anonymous": false,
      "inputs": [
        {
          "indexed": false,
          "internalType": "address",
          "name": "user",
          "type": "address"
        }
      ],
      "name": "Exited",
      "type": "event"
    },
    {
      "anonymous": false,
      "inputs": [
        {
          "indexed": false,
          "internalType": "address",
          "name": "user",
          "type": "address"
        },
        {
          "indexed": false,
          "internalType": "uint256",
          "name": "amount",
          "type": "uint256"
        }
      ],
      "name": "ReInvest",
      "type": "event"
    },
    {
      "anonymous": false,
      "inputs": [
        {
          "indexed": false,
          "internalType": "address",
          "name": "user",
          "type": "address"
        },
        {
          "indexed": false,
          "internalType": "uint256",
          "name": "amount",
          "type": "uint256"
        }
      ],
      "name": "Withdraw",
      "type": "event"
    },
    {
      "inputs": [],
      "name": "CONTRACT_BONUS_PER_UNIT_BP",
      "outputs": [
        {
          "internalType": "uint256",
          "name": "",
          "type": "uint256"
        }
      ],
      "stateMutability": "view",
      "type": "function"
    },
    {
      "inputs": [],
      "name": "CONTRACT_BONUS_UNIT",
      "outputs": [
        {
          "internalType": "uint256",
          "name": "",
          "type": "uint256"
        }
      ],
      "stateMutability": "view",
      "type": "function"
    },
    {
      "inputs": [],
      "name": "DAY",
      "outputs": [
        {
          "internalType": "uint256",
          "name": "",
          "type": "uint256"
        }
      ],
      "stateMutability": "view",
      "type": "function"
    },
    {
      "inputs": [],
      "name": "DEV_FEE_BP",
      "outputs": [
        {
          "internalType": "uint256",
          "name": "",
          "type": "uint256"
        }
      ],
      "stateMutability": "view",
      "type": "function"
    },
    {
      "inputs": [],
      "name": "EXIT_PENALTY_BP",
      "outputs": [
        {
          "internalType": "uint256",
          "name": "",
          "type": "uint256"
        }
      ],
      "stateMutability": "view",
      "type": "function"
    },
    {
      "inputs": [],
      "name": "HOLD_BONUS_PER_UNIT_BP",
      "outputs": [
        {
          "internalType": "uint256",
          "name": "",
          "type": "uint256"
        }
      ],
      "stateMutability": "view",
      "type": "function"
    },
    {
      "inputs": [],
      "name": "HOLD_BONUS_UNIT",
      "outputs": [
        {
          "internalType": "uint256",
          "name": "",
          "type": "uint256"
        }
      ],
      "stateMutability": "view",
      "type": "function"
    },
    {
      "inputs": [],
      "name": "LP_FEE_BP",
      "outputs": [
        {
          "internalType": "uint256",
          "name": "",
          "type": "uint256"
        }
      ],
      "stateMutability": "view",
      "type": "function"
    },
    {
      "inputs": [],
      "name": "MAX_CONTRACT_BONUS_BP",
      "outputs": [
        {
          "internalType": "uint256",
          "name": "",
          "type": "uint256"
        }
      ],
      "stateMutability": "view",
      "type": "function"
    },
    {
      "inputs": [],
      "name": "MAX_CONTRACT_REWARD_BP",
      "outputs": [
        {
          "internalType": "uint256",
          "name": "",
          "type": "uint256"
        }
      ],
      "stateMutability": "view",
      "type": "function"
    },
    {
      "inputs": [],
      "name": "MAX_HOLD_BONUS_BP",
      "outputs": [
        {
          "internalType": "uint256",
          "name": "",
          "type": "uint256"
        }
      ],
      "stateMutability": "view",
      "type": "function"
    },
    {
      "inputs": [],
      "name": "MAX_WITHDRAWAL_OVER_REWARD_THRESHOLD_BP",
      "outputs": [
        {
          "internalType": "uint256",
          "name": "",
          "type": "uint256"
        }
      ],
      "stateMutability": "view",
      "type": "function"
    },
    {
      "inputs": [],
      "name": "PERCENT_MULTIPLIER",
      "outputs": [
        {
          "internalType": "uint256",
          "name": "",
          "type": "uint256"
        }
      ],
      "stateMutability": "view",
      "type": "function"
    },
    {
      "inputs": [],
      "name": "REF_COMMISSION_BP",
      "outputs": [
        {
          "internalType": "uint256",
          "name": "",
          "type": "uint256"
        }
      ],
      "stateMutability": "view",
      "type": "function"
    },
    {
      "inputs": [],
      "name": "REF_POOL_FEE_BP",
      "outputs": [
        {
          "internalType": "uint256",
          "name": "",
          "type": "uint256"
        }
      ],
      "stateMutability": "view",
      "type": "function"
    },
    {
      "inputs": [],
      "name": "REWARD_THRESHOLD_BP",
      "outputs": [
        {
          "internalType": "uint256",
          "name": "",
          "type": "uint256"
        }
      ],
      "stateMutability": "view",
      "type": "function"
    },
    {
      "inputs": [],
      "name": "SPONSOR_POOL_FEE_BP",
      "outputs": [
        {
          "internalType": "uint256",
          "name": "",
          "type": "uint256"
        }
      ],
      "stateMutability": "view",
      "type": "function"
    },
    {
      "inputs": [],
      "name": "devAddress",
      "outputs": [
        {
          "internalType": "address",
          "name": "",
          "type": "address"
        }
      ],
      "stateMutability": "view",
      "type": "function"
    },
    {
      "inputs": [],
      "name": "drawPool",
      "outputs": [],
      "stateMutability": "nonpayable",
      "type": "function"
    },
    {
      "inputs": [],
      "name": "fourRXToken",
      "outputs": [
        {
          "internalType": "contract IERC20",
          "name": "",
          "type": "address"
        }
      ],
      "stateMutability": "view",
      "type": "function"
    },
    {
      "inputs": [],
      "name": "maxContractBalance",
      "outputs": [
        {
          "internalType": "uint256",
          "name": "",
          "type": "uint256"
        }
      ],
      "stateMutability": "view",
      "type": "function"
    },
    {
      "inputs": [],
      "name": "poolCycle",
      "outputs": [
        {
          "internalType": "uint256",
          "name": "",
          "type": "uint256"
        }
      ],
      "stateMutability": "view",
      "type": "function"
    },
    {
      "inputs": [],
      "name": "poolDrewAt",
      "outputs": [
        {
          "internalType": "uint256",
          "name": "",
          "type": "uint256"
        }
      ],
      "stateMutability": "view",
      "type": "function"
    },
    {
      "inputs": [],
      "name": "refPoolBalance",
      "outputs": [
        {
          "internalType": "uint256",
          "name": "",
          "type": "uint256"
        }
      ],
      "stateMutability": "view",
      "type": "function"
    },
    {
      "inputs": [
        {
          "internalType": "uint256",
          "name": "",
          "type": "uint256"
        }
      ],
      "name": "refPoolBonuses",
      "outputs": [
        {
          "internalType": "uint256",
          "name": "",
          "type": "uint256"
        }
      ],
      "stateMutability": "view",
      "type": "function"
    },
    {
      "inputs": [
        {
          "internalType": "uint256",
          "name": "",
          "type": "uint256"
        }
      ],
      "name": "refPoolUsers",
      "outputs": [
        {
          "internalType": "address",
          "name": "user",
          "type": "address"
        },
        {
          "internalType": "uint256",
          "name": "stakeId",
          "type": "uint256"
        }
      ],
      "stateMutability": "view",
      "type": "function"
    },
    {
      "inputs": [],
      "name": "sponsorPoolBalance",
      "outputs": [
        {
          "internalType": "uint256",
          "name": "",
          "type": "uint256"
        }
      ],
      "stateMutability": "view",
      "type": "function"
    },
    {
      "inputs": [
        {
          "internalType": "uint256",
          "name": "",
          "type": "uint256"
        }
      ],
      "name": "sponsorPoolBonuses",
      "outputs": [
        {
          "internalType": "uint256",
          "name": "",
          "type": "uint256"
        }
      ],
      "stateMutability": "view",
      "type": "function"
    },
    {
      "inputs": [
        {
          "internalType": "uint256",
          "name": "",
          "type": "uint256"
        }
      ],
      "name": "sponsorPoolUsers",
      "outputs": [
        {
          "internalType": "address",
          "name": "user",
          "type": "address"
        },
        {
          "internalType": "uint256",
          "name": "stakeId",
          "type": "uint256"
        }
      ],
      "stateMutability": "view",
      "type": "function"
    },
    {
      "inputs": [],
      "name": "totalActiveStakes",
      "outputs": [
        {
          "internalType": "uint256",
          "name": "",
          "type": "uint256"
        }
      ],
      "stateMutability": "view",
      "type": "function"
    },
    {
      "inputs": [],
      "name": "totalDepositRewards",
      "outputs": [
        {
          "internalType": "uint256",
          "name": "",
          "type": "uint256"
        }
      ],
      "stateMutability": "view",
      "type": "function"
    },
    {
      "inputs": [],
      "name": "totalDeposits",
      "outputs": [
        {
          "internalType": "uint256",
          "name": "",
          "type": "uint256"
        }
      ],
      "stateMutability": "view",
      "type": "function"
    },
    {
      "inputs": [],
      "name": "totalExited",
      "outputs": [
        {
          "internalType": "uint256",
          "name": "",
          "type": "uint256"
        }
      ],
      "stateMutability": "view",
      "type": "function"
    },
    {
      "inputs": [],
      "name": "totalPenalty",
      "outputs": [
        {
          "internalType": "uint256",
          "name": "",
          "type": "uint256"
        }
      ],
      "stateMutability": "view",
      "type": "function"
    },
    {
      "inputs": [],
      "name": "totalRefPoolRewards",
      "outputs": [
        {
          "internalType": "uint256",
          "name": "",
          "type": "uint256"
        }
      ],
      "stateMutability": "view",
      "type": "function"
    },
    {
      "inputs": [],
      "name": "totalRefRewards",
      "outputs": [
        {
          "internalType": "uint256",
          "name": "",
          "type": "uint256"
        }
      ],
      "stateMutability": "view",
      "type": "function"
    },
    {
      "inputs": [],
      "name": "totalSponsorPoolRewards",
      "outputs": [
        {
          "internalType": "uint256",
          "name": "",
          "type": "uint256"
        }
      ],
      "stateMutability": "view",
      "type": "function"
    },
    {
      "inputs": [],
      "name": "totalStakes",
      "outputs": [
        {
          "internalType": "uint256",
          "name": "",
          "type": "uint256"
        }
      ],
      "stateMutability": "view",
      "type": "function"
    },
    {
      "inputs": [],
      "name": "totalWithdrawn",
      "outputs": [
        {
          "internalType": "uint256",
          "name": "",
          "type": "uint256"
        }
      ],
      "stateMutability": "view",
      "type": "function"
    },
    {
      "inputs": [
        {
          "internalType": "address",
          "name": "",
          "type": "address"
        }
      ],
      "name": "users",
      "outputs": [
        {
          "internalType": "address",
          "name": "wallet",
          "type": "address"
        }
      ],
      "stateMutability": "view",
      "type": "function"
    }
  ],
  "bytecode": "0x6080604052600b80546001600160a01b0319167364b8cb4c04ba902010856d913b4e5df940748bf217905534801561003657600080fd5b50610a49806100466000396000f3fe608060405234801561001057600080fd5b50600436106101d85760003560e01c806303162d2c146101dd5780630781235a146101f75780630ac39f72146101ff5780630f9fa6aa146101f757806312dd5fe4146101f75780631f079e01146102075780632673ebf71461020f57806327cfe856146102175780633ad10ef61461021f5780633df936c914610243578063498dc5b51461024b5780634b3197131461025357806363b815fa1461025b57806365fcb49e1461026357806369da94d81461026b5780637247b2b9146102735780637d8820971461027b5780638876bb3e1461028357806391994b2c1461028b5780639b6eec7d146102935780639c236aa81461029b578063a00d4980146102db578063a13a801a146102e3578063a87430ba146102eb578063a9122af714610311578063aaf1a0da146102e3578063b963ddb414610319578063bf9befb114610321578063bfe0e02014610329578063cabea10d14610331578063d5766ebd14610339578063d82daec714610356578063d902f40c1461035e578063df5a75ef14610366578063e523141114610383578063e6af61c81461038b578063e7204ffb14610393578063ed56f6a11461039d578063f48e595a146103ba578063fd0b8252146103c2575b600080fd5b6101e56103ca565b60408051918252519081900360200190f35b6101e56103d0565b6101e56103d6565b6101e56103db565b6101e56103e1565b6101e56103e7565b6102276103ee565b604080516001600160a01b039092168252519081900360200190f35b6101e56103fd565b6101e5610403565b6101e5610409565b6101e561040f565b6101e5610415565b6101e561041b565b6101e5610421565b6101e5610427565b6101e561042d565b6101e5610433565b6101e5610439565b6102b8600480360360208110156102b157600080fd5b503561043f565b604080516001600160a01b03909316835260208301919091528051918290030190f35b6101e5610468565b6101e561046d565b6102276004803603602081101561030157600080fd5b50356001600160a01b0316610472565b61022761048d565b6101e561049c565b6101e56104a2565b6101e56104a8565b6101e56104ae565b6101e56004803603602081101561034f57600080fd5b50356104b4565b6101e56104d2565b6101e56104d8565b6101e56004803603602081101561037c57600080fd5b50356104dd565b6101e56104ea565b6101e56104ef565b61039b6104f5565b005b6102b8600480360360208110156103b357600080fd5b5035610750565b6101e561075d565b6101e5610762565b61a8c081565b61012c81565b600281565b60035481565b60055481565b6201518081565b600b546001600160a01b031681565b603f5481565b61138881565b60015481565b61271081565b603b5481565b61924f81565b60075481565b60005481565b60065481565b60095481565b6101f481565b602581600a811061044c57fe5b6002020180546001909101546001600160a01b03909116915082565b600581565b603281565b600c602052600090815260409020546001600160a01b031681565b600a546001600160a01b031681565b61032081565b60025481565b60045481565b603c5481565b603981815481106104c157fe5b600091825260209091200154905081565b603e5481565b600181565b603a81815481106104c157fe5b606481565b60085481565b603d54620151800142111561074e5760005b600c81101561061a576000600d82600c811061051f57fe5b60020201546001600160a01b031614156105385761061a565b6000600c6000600d84600c811061054b57fe5b60020201546001600160a01b031681526020810191909152604001600020603e54603980549293506105da926105979291908690811061058757fe5b9060005260206000200154610768565b82600101600d85600c81106105a857fe5b6002020160010154815481106105ba57fe5b90600052602060002090601102016007015461078990919063ffffffff16565b81600101600d84600c81106105eb57fe5b6002020160010154815481106105fd57fe5b600091825260209091206007601190920201015550600101610507565b5060005b600a811015610721576000602582600a811061063657fe5b60020201546001600160a01b0316141561064f57610721565b6000600c6000602584600a811061066257fe5b60020201546001600160a01b031681526020810191909152604001600020603f54603a80549293506106e19261069e9291908690811061058757fe5b82600101602585600a81106106af57fe5b6002020160010154815481106106c157fe5b90600052602060002090601102016008015461078990919063ffffffff16565b81600101602584600a81106106f257fe5b60020201600101548154811061070457fe5b60009182526020909120600860119092020101555060010161061e565b50603e5460055461073191610789565b600555603f5460065461074391610789565b60065561074e6107e1565b565b600d81600c811061044c57fe5b60fa81565b603d5481565b600061078061271061077a85856108bd565b90610916565b90505b92915050565b600082820183811015610780576040805162461bcd60e51b815260206004820152601b60248201527a536166654d6174683a206164646974696f6e206f766572666c6f7760281b604482015290519081900360640190fd5b60005b603954811015610846576000600d82600c81106107fd57fe5b6002020180546001600160a01b0319166001600160a01b03929092169190911790556000600d82600c811061082e57fe5b600202016001018190555080806001019150506107e4565b5060005b603a548110156108ac576000602582600a811061086357fe5b6002020180546001600160a01b0319166001600160a01b03929092169190911790556000600d82600c811061089457fe5b6002020160010181905550808060010191505061084a565b506000603e819055603f5542603d55565b6000826108cc57506000610783565b828202828482816108d957fe5b04146107805760405162461bcd60e51b81526004018080602001828103825260218152602001806109f36021913960400191505060405180910390fd5b600061078083836040518060400160405280601a815260200179536166654d6174683a206469766973696f6e206279207a65726f60301b815250600081836109dc5760405162461bcd60e51b81526004018080602001828103825283818151815260200191508051906020019080838360005b838110156109a1578181015183820152602001610989565b50505050905090810190601f1680156109ce5780820380516001836020036101000a031916815260200191505b509250505060405180910390fd5b5060008385816109e857fe5b049594505050505056fe536166654d6174683a206d756c7469706c69636174696f6e206f766572666c6f77a2646970667358221220aebecd97d1fd4185c614683feb8be95f8e8401c94b102573bfdcf35c439ac4ca64736f6c634300060c0033",
  "compiler": {
    "name": "solc",
    "version": "0.6.12+commit.27d51765.Emscripten.clang",
    "optimizer": {
      "enabled": true,
      "runs": 1
    },
    "evmVersion": "petersburg"
  }
}