{
  "fileName": "SharedVariables.sol",
  "contractName": "SharedVariables",
  "source": "// SPDX-License-Identifier: MIT\npragma solidity ^0.6.12;\n\nimport '@openzeppelin/contracts/token/ERC20/IERC20.sol';\nimport \"./InterestCalculator.sol\";\nimport \"./Events.sol\";\nimport \"./SafePercentageCalculator.sol\";\nimport \"./utils/Utils.sol\";\n\ncontract SharedVariables is SafePercentageCalculator, InterestCalculator, Events, Utils {\n    using SafeMath for uint;\n\n    IERC20 fourRXToken;\n    uint maxContractRewards = 30000; // 300%\n    uint lpCommission = 1000;\n    uint refCommission = 700;\n\n    uint devCommission = 5000; // 5%\n    address devAddress = 0x64B8cb4C04Ba902010856d913B4e5DF940748Bf2; // Dummy address replace it for prod/dev\n\n    uint depositRefPoolCommission = 50;\n    uint depositSponsorPoolCommission = 50;\n    uint exitPenalty = 5000;\n\n    // Contract bonus\n    uint maxContractBonus = 300; // maximum bonus a user can get 3%\n    uint contractBonusUnit = 100;    // For each 100 unit balance of contract, gives\n    uint contractBonusUnitBonus = 1; // 0.01% extra interest\n\n    uint holdBonusUnitBonus = 2; // 0.02% hold bonus for each 12 hours of hold\n    uint maxHoldBonus = 100; // Maximum 1% hold bonus\n    uint holdBonusUnlocksAt = 300; // User will only get hold bonus if his rewards are more then 10% of his deposit\n\n    uint maxWithdrawalOverTenPercent = 300; // Max daily withdrawal limit if user is above 10%\n\n    uint maxContractBalance;\n\n    uint poolCycle;\n    uint poolDrewAt;\n\n    uint refPoolBalance;\n    uint sponsorPoolBalance;\n\n    struct PoolUser {\n        address user;\n        uint investmentId;\n    }\n\n    PoolUser[12] public refPoolUsers;\n    PoolUser[10] public sponsorPoolUsers;\n\n    struct RefPool {\n        uint cycle;\n        uint amount;\n    }\n\n    struct SponsorPool {\n        uint cycle;\n        uint amount;\n    }\n\n    struct Uplink {\n        address uplinkAddress;\n        uint uplinkInvestmentId;\n    }\n\n    struct Investment {\n        uint id;\n        bool active;\n        uint interestCountFrom; // TimeStamp from which interest should be counted\n        uint holdFrom; // Timestamp from which hold should be counted\n        uint deposit; // Initial Deposit\n        Uplink uplink; // Referrer\n        uint refCommission; // Ref rewards\n        uint refPoolRewards; // Ref Pool Rewards\n        uint sponsorPoolRewards; // Sponsor Pool Rewards\n        uint lastWithdrawalAt; // date time of last withdrawals so we don't allow more then 3% a day\n        RefPool refPool; // To store this user's last 24 hour RefPool entries\n        SponsorPool sponsorPool; // To store this user's last 24 hour Sponsor Pool entries\n        uint withdrawn;\n        bool optInInsured; // Is insured ???\n        uint penalty;\n    }\n\n    struct User {\n        address wallet; // Wallet Address\n        bool registered;\n        Investment[] investments;\n    }\n\n    mapping (address => User) users;\n\n    uint[] public refPoolBonuses;\n    uint[] public sponsorPoolBonuses;\n\n    uint[] public depositBonuses;\n\n    // Stats\n    uint totalDeposits;\n    uint totalWithdrawn;\n    uint totalInvestments;\n    uint totalActiveInvestments;\n    uint totalRefRewards;\n    uint totalRefPoolRewards;\n    uint totalSponsorPoolRewards;\n    uint totalDepositRewards;\n    uint totalPenalty;\n    uint totalExited;\n}\n",
  "sourcePath": "contracts/SharedVariables.sol",
  "abi": [
    {
      "anonymous": false,
      "inputs": [
        {
          "indexed": false,
          "internalType": "address",
          "name": "user",
          "type": "address"
        },
        {
          "indexed": false,
          "internalType": "address",
          "name": "uplink",
          "type": "address"
        },
        {
          "indexed": false,
          "internalType": "uint256",
          "name": "amount",
          "type": "uint256"
        }
      ],
      "name": "Deposit",
      "type": "event"
    },
    {
      "anonymous": false,
      "inputs": [
        {
          "indexed": false,
          "internalType": "address",
          "name": "user",
          "type": "address"
        }
      ],
      "name": "Exited",
      "type": "event"
    },
    {
      "anonymous": false,
      "inputs": [
        {
          "indexed": false,
          "internalType": "address",
          "name": "user",
          "type": "address"
        },
        {
          "indexed": false,
          "internalType": "uint256",
          "name": "amount",
          "type": "uint256"
        }
      ],
      "name": "ReInvest",
      "type": "event"
    },
    {
      "anonymous": false,
      "inputs": [
        {
          "indexed": false,
          "internalType": "address",
          "name": "user",
          "type": "address"
        },
        {
          "indexed": false,
          "internalType": "uint256",
          "name": "amount",
          "type": "uint256"
        }
      ],
      "name": "Withdraw",
      "type": "event"
    },
    {
      "inputs": [
        {
          "internalType": "uint256",
          "name": "",
          "type": "uint256"
        }
      ],
      "name": "depositBonuses",
      "outputs": [
        {
          "internalType": "uint256",
          "name": "",
          "type": "uint256"
        }
      ],
      "stateMutability": "view",
      "type": "function"
    },
    {
      "inputs": [
        {
          "internalType": "uint256",
          "name": "",
          "type": "uint256"
        }
      ],
      "name": "refPoolBonuses",
      "outputs": [
        {
          "internalType": "uint256",
          "name": "",
          "type": "uint256"
        }
      ],
      "stateMutability": "view",
      "type": "function"
    },
    {
      "inputs": [
        {
          "internalType": "uint256",
          "name": "",
          "type": "uint256"
        }
      ],
      "name": "refPoolUsers",
      "outputs": [
        {
          "internalType": "address",
          "name": "user",
          "type": "address"
        },
        {
          "internalType": "uint256",
          "name": "investmentId",
          "type": "uint256"
        }
      ],
      "stateMutability": "view",
      "type": "function"
    },
    {
      "inputs": [
        {
          "internalType": "uint256",
          "name": "",
          "type": "uint256"
        }
      ],
      "name": "sponsorPoolBonuses",
      "outputs": [
        {
          "internalType": "uint256",
          "name": "",
          "type": "uint256"
        }
      ],
      "stateMutability": "view",
      "type": "function"
    },
    {
      "inputs": [
        {
          "internalType": "uint256",
          "name": "",
          "type": "uint256"
        }
      ],
      "name": "sponsorPoolUsers",
      "outputs": [
        {
          "internalType": "address",
          "name": "user",
          "type": "address"
        },
        {
          "internalType": "uint256",
          "name": "investmentId",
          "type": "uint256"
        }
      ],
      "stateMutability": "view",
      "type": "function"
    }
  ],
  "bytecode": "0x6080604052612710600055600060015562030d40600255620151806003556175306005556103e86006556102bc6007556113886008557364b8cb4c04ba902010856d913b4e5df940748bf2600960006101000a8154816001600160a01b0302191690836001600160a01b031602179055506032600a556032600b55611388600c5561012c600d556064600e556001600f556002601055606460115561012c60125561012c6013553480156100b257600080fd5b506101c6806100c26000396000f3fe608060405234801561001057600080fd5b50600436106100575760003560e01c806348a91a241461005c5780639c236aa81461008b578063d5766ebd146100cb578063df5a75ef146100e8578063ed56f6a114610105575b600080fd5b6100796004803603602081101561007257600080fd5b5035610122565b60408051918252519081900360200190f35b6100a8600480360360208110156100a157600080fd5b5035610140565b604080516001600160a01b03909316835260208301919091528051918290030190f35b610079600480360360208110156100e157600080fd5b5035610169565b610079600480360360208110156100fe57600080fd5b5035610176565b6100a86004803603602081101561011b57600080fd5b5035610183565b6048818154811061012f57fe5b600091825260209091200154905081565b603181600a811061014d57fe5b6002020180546001909101546001600160a01b03909116915082565b6046818154811061012f57fe5b6047818154811061012f57fe5b601981600c811061014d57fefea264697066735822122080452d5299ab1302aa25b917a33d8c95d01b5795ce565ba2c18f1b1be742a90b64736f6c634300060c0033",
  "compiler": {
    "name": "solc",
    "version": "0.6.12+commit.27d51765.Emscripten.clang",
    "optimizer": {
      "enabled": true,
      "runs": 1
    },
    "evmVersion": "petersburg"
  }
}