{
  "fileName": "SharedVariables.sol",
  "contractName": "SharedVariables",
  "source": "// SPDX-License-Identifier: MIT\npragma solidity ^0.6.12;\n\nimport \"@openzeppelin/contracts/token/ERC20/IERC20.sol\";\nimport \"./InterestCalculator.sol\";\nimport \"./Events.sol\";\nimport \"./PercentageCalculator.sol\";\nimport \"./utils/Utils.sol\";\nimport \"./Constants.sol\";\nimport \"./StatsVars.sol\";\n\n\ncontract SharedVariables is Constants, StatsVars, PercentageCalculator, InterestCalculator, Events, Utils {\n    using SafeMath for uint;\n\n    IERC20 public fourRXToken;\n\n    address public devAddress = 0x64B8cb4C04Ba902010856d913B4e5DF940748Bf2; // Dummy address replace it for prod/dev\n\n    struct PoolUser {\n        address user; // user's address\n        uint8 stakeId;\n    }\n\n    struct Pool {\n        uint16 cycle;\n        uint amount;\n    }\n\n    struct Stake {\n        uint8 id;\n        bool active;\n        bool optInInsured; // Is insured ???\n\n        uint32 holdFrom; // Timestamp from which hold should be counted\n        uint32 interestCountFrom; // TimeStamp from which interest should be counted, from the beginning\n        uint32 lastWithdrawalAt; // date time of last withdrawals so we don't allow more then 3% a day\n\n        uint deposit; // Initial Deposit\n        uint withdrawn; // Total withdrawn from this stake\n        uint penalty; // Total penalty on this stale\n\n        // Rewards\n        uint refCommission; // Ref rewards\n        uint refPoolRewards; // Ref Pool Rewards\n        uint sponsorPoolRewards; // Sponsor Pool Rewards\n\n        Pool refPool; // To store this user's last 24 hour RefPool entries\n        Pool sponsorPool; // To store this user's last 24 hour Sponsor Pool entries\n    }\n\n    struct User {\n        address wallet; // Wallet Address\n        Stake[] stakes;\n    }\n\n    mapping (address => User) public users;\n\n    PoolUser[12] public refPoolUsers;\n    PoolUser[10] public sponsorPoolUsers;\n\n    uint[] public refPoolBonuses;\n    uint[] public sponsorPoolBonuses;\n\n    uint public maxContractBalance;\n\n    uint16 public poolCycle;\n    uint32 public poolDrewAt;\n\n    uint public refPoolBalance;\n    uint public sponsorPoolBalance;\n\n    uint public devBalance;\n}\n",
  "sourcePath": "contracts/SharedVariables.sol",
  "abi": [
    {
      "anonymous": false,
      "inputs": [
        {
          "indexed": false,
          "internalType": "address",
          "name": "user",
          "type": "address"
        },
        {
          "indexed": false,
          "internalType": "uint256",
          "name": "amount",
          "type": "uint256"
        },
        {
          "indexed": false,
          "internalType": "address",
          "name": "uplinkAddress",
          "type": "address"
        },
        {
          "indexed": false,
          "internalType": "uint256",
          "name": "uplinkStakeId",
          "type": "uint256"
        }
      ],
      "name": "Deposit",
      "type": "event"
    },
    {
      "anonymous": false,
      "inputs": [
        {
          "indexed": false,
          "internalType": "address",
          "name": "user",
          "type": "address"
        },
        {
          "indexed": false,
          "internalType": "uint256",
          "name": "stakeId",
          "type": "uint256"
        },
        {
          "indexed": false,
          "internalType": "uint256",
          "name": "amount",
          "type": "uint256"
        }
      ],
      "name": "Exited",
      "type": "event"
    },
    {
      "anonymous": false,
      "inputs": [
        {
          "indexed": false,
          "internalType": "uint256",
          "name": "refPoolAmount",
          "type": "uint256"
        },
        {
          "indexed": false,
          "internalType": "uint256",
          "name": "sponsirPoolAmount",
          "type": "uint256"
        }
      ],
      "name": "PoolDrawn",
      "type": "event"
    },
    {
      "anonymous": false,
      "inputs": [
        {
          "indexed": false,
          "internalType": "address",
          "name": "user",
          "type": "address"
        },
        {
          "indexed": false,
          "internalType": "uint256",
          "name": "amount",
          "type": "uint256"
        }
      ],
      "name": "ReInvest",
      "type": "event"
    },
    {
      "anonymous": false,
      "inputs": [
        {
          "indexed": false,
          "internalType": "address",
          "name": "user",
          "type": "address"
        },
        {
          "indexed": false,
          "internalType": "uint256",
          "name": "amount",
          "type": "uint256"
        }
      ],
      "name": "Withdrawn",
      "type": "event"
    },
    {
      "inputs": [],
      "name": "CONTRACT_BONUS_PER_UNIT_BP",
      "outputs": [
        {
          "internalType": "uint256",
          "name": "",
          "type": "uint256"
        }
      ],
      "stateMutability": "view",
      "type": "function"
    },
    {
      "inputs": [],
      "name": "CONTRACT_BONUS_UNIT",
      "outputs": [
        {
          "internalType": "uint256",
          "name": "",
          "type": "uint256"
        }
      ],
      "stateMutability": "view",
      "type": "function"
    },
    {
      "inputs": [],
      "name": "DAY",
      "outputs": [
        {
          "internalType": "uint256",
          "name": "",
          "type": "uint256"
        }
      ],
      "stateMutability": "view",
      "type": "function"
    },
    {
      "inputs": [],
      "name": "DEV_FEE_BP",
      "outputs": [
        {
          "internalType": "uint256",
          "name": "",
          "type": "uint256"
        }
      ],
      "stateMutability": "view",
      "type": "function"
    },
    {
      "inputs": [],
      "name": "EXIT_PENALTY_BP",
      "outputs": [
        {
          "internalType": "uint256",
          "name": "",
          "type": "uint256"
        }
      ],
      "stateMutability": "view",
      "type": "function"
    },
    {
      "inputs": [],
      "name": "HOLD_BONUS_PER_UNIT_BP",
      "outputs": [
        {
          "internalType": "uint256",
          "name": "",
          "type": "uint256"
        }
      ],
      "stateMutability": "view",
      "type": "function"
    },
    {
      "inputs": [],
      "name": "HOLD_BONUS_UNIT",
      "outputs": [
        {
          "internalType": "uint256",
          "name": "",
          "type": "uint256"
        }
      ],
      "stateMutability": "view",
      "type": "function"
    },
    {
      "inputs": [],
      "name": "LP_FEE_BP",
      "outputs": [
        {
          "internalType": "uint256",
          "name": "",
          "type": "uint256"
        }
      ],
      "stateMutability": "view",
      "type": "function"
    },
    {
      "inputs": [],
      "name": "MAX_CONTRACT_BONUS_BP",
      "outputs": [
        {
          "internalType": "uint256",
          "name": "",
          "type": "uint256"
        }
      ],
      "stateMutability": "view",
      "type": "function"
    },
    {
      "inputs": [],
      "name": "MAX_CONTRACT_REWARD_BP",
      "outputs": [
        {
          "internalType": "uint256",
          "name": "",
          "type": "uint256"
        }
      ],
      "stateMutability": "view",
      "type": "function"
    },
    {
      "inputs": [],
      "name": "MAX_HOLD_BONUS_BP",
      "outputs": [
        {
          "internalType": "uint256",
          "name": "",
          "type": "uint256"
        }
      ],
      "stateMutability": "view",
      "type": "function"
    },
    {
      "inputs": [],
      "name": "MAX_WITHDRAWAL_OVER_REWARD_THRESHOLD_BP",
      "outputs": [
        {
          "internalType": "uint256",
          "name": "",
          "type": "uint256"
        }
      ],
      "stateMutability": "view",
      "type": "function"
    },
    {
      "inputs": [],
      "name": "PERCENT_MULTIPLIER",
      "outputs": [
        {
          "internalType": "uint256",
          "name": "",
          "type": "uint256"
        }
      ],
      "stateMutability": "view",
      "type": "function"
    },
    {
      "inputs": [],
      "name": "REF_COMMISSION_BP",
      "outputs": [
        {
          "internalType": "uint256",
          "name": "",
          "type": "uint256"
        }
      ],
      "stateMutability": "view",
      "type": "function"
    },
    {
      "inputs": [],
      "name": "REF_POOL_FEE_BP",
      "outputs": [
        {
          "internalType": "uint256",
          "name": "",
          "type": "uint256"
        }
      ],
      "stateMutability": "view",
      "type": "function"
    },
    {
      "inputs": [],
      "name": "REWARD_THRESHOLD_BP",
      "outputs": [
        {
          "internalType": "uint256",
          "name": "",
          "type": "uint256"
        }
      ],
      "stateMutability": "view",
      "type": "function"
    },
    {
      "inputs": [],
      "name": "SPONSOR_POOL_FEE_BP",
      "outputs": [
        {
          "internalType": "uint256",
          "name": "",
          "type": "uint256"
        }
      ],
      "stateMutability": "view",
      "type": "function"
    },
    {
      "inputs": [],
      "name": "devAddress",
      "outputs": [
        {
          "internalType": "address",
          "name": "",
          "type": "address"
        }
      ],
      "stateMutability": "view",
      "type": "function"
    },
    {
      "inputs": [],
      "name": "devBalance",
      "outputs": [
        {
          "internalType": "uint256",
          "name": "",
          "type": "uint256"
        }
      ],
      "stateMutability": "view",
      "type": "function"
    },
    {
      "inputs": [],
      "name": "fourRXToken",
      "outputs": [
        {
          "internalType": "contract IERC20",
          "name": "",
          "type": "address"
        }
      ],
      "stateMutability": "view",
      "type": "function"
    },
    {
      "inputs": [],
      "name": "maxContractBalance",
      "outputs": [
        {
          "internalType": "uint256",
          "name": "",
          "type": "uint256"
        }
      ],
      "stateMutability": "view",
      "type": "function"
    },
    {
      "inputs": [],
      "name": "poolCycle",
      "outputs": [
        {
          "internalType": "uint16",
          "name": "",
          "type": "uint16"
        }
      ],
      "stateMutability": "view",
      "type": "function"
    },
    {
      "inputs": [],
      "name": "poolDrewAt",
      "outputs": [
        {
          "internalType": "uint32",
          "name": "",
          "type": "uint32"
        }
      ],
      "stateMutability": "view",
      "type": "function"
    },
    {
      "inputs": [],
      "name": "refPoolBalance",
      "outputs": [
        {
          "internalType": "uint256",
          "name": "",
          "type": "uint256"
        }
      ],
      "stateMutability": "view",
      "type": "function"
    },
    {
      "inputs": [
        {
          "internalType": "uint256",
          "name": "",
          "type": "uint256"
        }
      ],
      "name": "refPoolBonuses",
      "outputs": [
        {
          "internalType": "uint256",
          "name": "",
          "type": "uint256"
        }
      ],
      "stateMutability": "view",
      "type": "function"
    },
    {
      "inputs": [
        {
          "internalType": "uint256",
          "name": "",
          "type": "uint256"
        }
      ],
      "name": "refPoolUsers",
      "outputs": [
        {
          "internalType": "address",
          "name": "user",
          "type": "address"
        },
        {
          "internalType": "uint8",
          "name": "stakeId",
          "type": "uint8"
        }
      ],
      "stateMutability": "view",
      "type": "function"
    },
    {
      "inputs": [],
      "name": "sponsorPoolBalance",
      "outputs": [
        {
          "internalType": "uint256",
          "name": "",
          "type": "uint256"
        }
      ],
      "stateMutability": "view",
      "type": "function"
    },
    {
      "inputs": [
        {
          "internalType": "uint256",
          "name": "",
          "type": "uint256"
        }
      ],
      "name": "sponsorPoolBonuses",
      "outputs": [
        {
          "internalType": "uint256",
          "name": "",
          "type": "uint256"
        }
      ],
      "stateMutability": "view",
      "type": "function"
    },
    {
      "inputs": [
        {
          "internalType": "uint256",
          "name": "",
          "type": "uint256"
        }
      ],
      "name": "sponsorPoolUsers",
      "outputs": [
        {
          "internalType": "address",
          "name": "user",
          "type": "address"
        },
        {
          "internalType": "uint8",
          "name": "stakeId",
          "type": "uint8"
        }
      ],
      "stateMutability": "view",
      "type": "function"
    },
    {
      "inputs": [],
      "name": "totalDepositRewards",
      "outputs": [
        {
          "internalType": "uint256",
          "name": "",
          "type": "uint256"
        }
      ],
      "stateMutability": "view",
      "type": "function"
    },
    {
      "inputs": [],
      "name": "totalExited",
      "outputs": [
        {
          "internalType": "uint256",
          "name": "",
          "type": "uint256"
        }
      ],
      "stateMutability": "view",
      "type": "function"
    },
    {
      "inputs": [
        {
          "internalType": "address",
          "name": "",
          "type": "address"
        }
      ],
      "name": "users",
      "outputs": [
        {
          "internalType": "address",
          "name": "wallet",
          "type": "address"
        }
      ],
      "stateMutability": "view",
      "type": "function"
    }
  ],
  "bytecode": "0x6080604052600380546001600160a01b0319167364b8cb4c04ba902010856d913b4e5df940748bf217905534801561003657600080fd5b506104c0806100466000396000f3fe608060405234801561001057600080fd5b50600436106101805760003560e01c806303162d2c146101855780630781235a1461019f5780630ac39f72146101a75780630f9fa6aa1461019f57806312dd5fe41461019f57806327cfe856146101af5780633ad10ef6146101b75780633df936c9146101db578063498dc5b5146101e357806363b815fa146101eb57806365fcb49e146101f357806369da94d8146101fb5780637247b2b91461020357806391994b2c1461020b5780639b6eec7d146102135780639c236aa81461021b578063a00d49801461025d578063a13a801a14610265578063a87430ba1461026d578063a9122af714610293578063aaf1a0da14610265578063b963ddb41461029b578063cabea10d146102a3578063cd9a1b63146102c2578063d5766ebd146102ca578063d82daec7146102e7578063d902f40c146102ef578063df5a75ef146102f7578063e523141114610314578063ed56f6a11461031c578063f48e595a14610339578063fd0b825214610341575b600080fd5b61018d610362565b60408051918252519081900360200190f35b61018d610368565b61018d61036e565b61018d610373565b6101bf61037a565b604080516001600160a01b039092168252519081900360200190f35b61018d610389565b61018d61038f565b61018d610395565b61018d61039b565b61018d6103a1565b61018d6103a7565b61018d6103ad565b61018d6103b3565b6102386004803603602081101561023157600080fd5b50356103b9565b604080516001600160a01b03909316835260ff90911660208301528051918290030190f35b61018d6103e1565b61018d6103e6565b6101bf6004803603602081101561028357600080fd5b50356001600160a01b03166103eb565b6101bf610406565b61018d610415565b6102ab61041b565b6040805161ffff9092168252519081900360200190f35b61018d610425565b61018d600480360360208110156102e057600080fd5b503561042b565b61018d610449565b61018d61044f565b61018d6004803603602081101561030d57600080fd5b5035610454565b61018d610461565b6102386004803603602081101561033257600080fd5b5035610466565b61018d610473565b610349610478565b6040805163ffffffff9092168252519081900360200190f35b61a8c081565b61012c81565b600281565b6201518081565b6003546001600160a01b031681565b60205481565b61138881565b61271081565b601d5481565b61924f81565b60005481565b60015481565b6101f481565b601181600a81106103c657fe5b01546001600160a01b0381169150600160a01b900460ff1682565b600581565b603281565b6004602052600090815260409020546001600160a01b031681565b6002546001600160a01b031681565b61032081565b601e5461ffff1681565b60215481565b601b818154811061043857fe5b600091825260209091200154905081565b601f5481565b600181565b601c818154811061043857fe5b606481565b600581600c81106103c657fe5b60fa81565b601e5462010000900463ffffffff168156fea2646970667358221220b0c13fc82d0b3d6c8d4adc9e975bd3eb2d67010b2cfb40ac3707e6c92ea85b1464736f6c634300060c0033",
  "compiler": {
    "name": "solc",
    "version": "0.6.12+commit.27d51765.Emscripten.clang",
    "optimizer": {
      "enabled": true,
      "runs": 1
    },
    "evmVersion": "petersburg"
  }
}