{
  "fileName": "SharedVariables.sol",
  "contractName": "SharedVariables",
  "source": "// SPDX-License-Identifier: MIT\npragma solidity ^0.6.12;\n\nimport \"@openzeppelin/contracts/token/ERC20/IERC20.sol\";\nimport \"./InterestCalculator.sol\";\nimport \"./Events.sol\";\nimport \"./SafePercentageCalculator.sol\";\nimport \"./utils/Utils.sol\";\n\ncontract SharedVariables is SafePercentageCalculator, InterestCalculator, Events, Utils {\n    using SafeMath for uint;\n\n    IERC20 public fourRXToken;\n    uint public maxContractRewards = 30000; // 300%\n    uint public lpCommission = 1000;\n    uint public refCommission = 700;\n\n    uint public devCommission = 5000; // 5%\n    address public devAddress = 0x64B8cb4C04Ba902010856d913B4e5DF940748Bf2; // Dummy address replace it for prod/dev\n\n    uint public depositRefPoolCommission = 50;\n    uint public depositSponsorPoolCommission = 50;\n    uint public exitPenalty = 5000;\n\n    // Contract bonus\n    uint public maxContractBonus = 300; // maximum bonus a user can get 3%\n    uint public contractBonusUnit = 100;    // For each 100 unit balance of contract, gives\n    uint public contractBonusUnitBonus = 1; // 0.01% extra interest\n\n    uint public holdBonusUnitBonus = 2; // 0.02% hold bonus for each 12 hours of hold\n    uint public maxHoldBonus = 100; // Maximum 1% hold bonus\n    uint public holdBonusUnlocksAt = 300; // User will only get hold bonus if his rewards are more then 10% of his deposit\n\n    uint public maxWithdrawalOverTenPercent = 300; // Max daily withdrawal limit if user is above 10%\n\n    uint public maxContractBalance;\n\n    uint public poolCycle;\n    uint public poolDrewAt;\n\n    uint public refPoolBalance;\n    uint public sponsorPoolBalance;\n\n    struct PoolUser {\n        address user;\n        uint investmentId;\n    }\n\n    PoolUser[12] public refPoolUsers;\n    PoolUser[10] public sponsorPoolUsers;\n\n    struct RefPool {\n        uint cycle;\n        uint amount;\n    }\n\n    struct SponsorPool {\n        uint cycle;\n        uint amount;\n    }\n\n    struct Uplink {\n        address uplinkAddress;\n        uint uplinkInvestmentId;\n    }\n\n    struct Investment {\n        uint id;\n        bool active;\n        uint interestCountFrom; // TimeStamp from which interest should be counted\n        uint holdFrom; // Timestamp from which hold should be counted\n        uint deposit; // Initial Deposit\n        Uplink uplink; // Referrer\n        uint refCommission; // Ref rewards\n        uint refPoolRewards; // Ref Pool Rewards\n        uint sponsorPoolRewards; // Sponsor Pool Rewards\n        uint lastWithdrawalAt; // date time of last withdrawals so we don't allow more then 3% a day\n        RefPool refPool; // To store this user's last 24 hour RefPool entries\n        SponsorPool sponsorPool; // To store this user's last 24 hour Sponsor Pool entries\n        uint withdrawn;\n        bool optInInsured; // Is insured ???\n        uint penalty;\n    }\n\n    struct User {\n        address wallet; // Wallet Address\n        bool registered;\n        Investment[] investments;\n    }\n\n    mapping (address => User) public users;\n\n    uint[] public refPoolBonuses;\n    uint[] public sponsorPoolBonuses;\n\n    uint[] public depositBonuses;\n\n    // Stats\n    uint public totalDeposits;\n    uint public totalWithdrawn;\n    uint public totalInvestments;\n    uint public totalActiveInvestments;\n    uint public totalRefRewards;\n    uint public totalRefPoolRewards;\n    uint public totalSponsorPoolRewards;\n    uint public totalDepositRewards;\n    uint public totalPenalty;\n    uint public totalExited;\n}\n",
  "sourcePath": "contracts/SharedVariables.sol",
  "abi": [
    {
      "anonymous": false,
      "inputs": [
        {
          "indexed": false,
          "internalType": "address",
          "name": "user",
          "type": "address"
        },
        {
          "indexed": false,
          "internalType": "address",
          "name": "uplink",
          "type": "address"
        },
        {
          "indexed": false,
          "internalType": "uint256",
          "name": "amount",
          "type": "uint256"
        }
      ],
      "name": "Deposit",
      "type": "event"
    },
    {
      "anonymous": false,
      "inputs": [
        {
          "indexed": false,
          "internalType": "address",
          "name": "user",
          "type": "address"
        }
      ],
      "name": "Exited",
      "type": "event"
    },
    {
      "anonymous": false,
      "inputs": [
        {
          "indexed": false,
          "internalType": "address",
          "name": "user",
          "type": "address"
        },
        {
          "indexed": false,
          "internalType": "uint256",
          "name": "amount",
          "type": "uint256"
        }
      ],
      "name": "ReInvest",
      "type": "event"
    },
    {
      "anonymous": false,
      "inputs": [
        {
          "indexed": false,
          "internalType": "address",
          "name": "user",
          "type": "address"
        },
        {
          "indexed": false,
          "internalType": "uint256",
          "name": "amount",
          "type": "uint256"
        }
      ],
      "name": "Withdraw",
      "type": "event"
    },
    {
      "inputs": [],
      "name": "contractBonusUnit",
      "outputs": [
        {
          "internalType": "uint256",
          "name": "",
          "type": "uint256"
        }
      ],
      "stateMutability": "view",
      "type": "function"
    },
    {
      "inputs": [],
      "name": "contractBonusUnitBonus",
      "outputs": [
        {
          "internalType": "uint256",
          "name": "",
          "type": "uint256"
        }
      ],
      "stateMutability": "view",
      "type": "function"
    },
    {
      "inputs": [
        {
          "internalType": "uint256",
          "name": "",
          "type": "uint256"
        }
      ],
      "name": "depositBonuses",
      "outputs": [
        {
          "internalType": "uint256",
          "name": "",
          "type": "uint256"
        }
      ],
      "stateMutability": "view",
      "type": "function"
    },
    {
      "inputs": [],
      "name": "depositRefPoolCommission",
      "outputs": [
        {
          "internalType": "uint256",
          "name": "",
          "type": "uint256"
        }
      ],
      "stateMutability": "view",
      "type": "function"
    },
    {
      "inputs": [],
      "name": "depositSponsorPoolCommission",
      "outputs": [
        {
          "internalType": "uint256",
          "name": "",
          "type": "uint256"
        }
      ],
      "stateMutability": "view",
      "type": "function"
    },
    {
      "inputs": [],
      "name": "devAddress",
      "outputs": [
        {
          "internalType": "address",
          "name": "",
          "type": "address"
        }
      ],
      "stateMutability": "view",
      "type": "function"
    },
    {
      "inputs": [],
      "name": "devCommission",
      "outputs": [
        {
          "internalType": "uint256",
          "name": "",
          "type": "uint256"
        }
      ],
      "stateMutability": "view",
      "type": "function"
    },
    {
      "inputs": [],
      "name": "exitPenalty",
      "outputs": [
        {
          "internalType": "uint256",
          "name": "",
          "type": "uint256"
        }
      ],
      "stateMutability": "view",
      "type": "function"
    },
    {
      "inputs": [],
      "name": "fourRXToken",
      "outputs": [
        {
          "internalType": "contract IERC20",
          "name": "",
          "type": "address"
        }
      ],
      "stateMutability": "view",
      "type": "function"
    },
    {
      "inputs": [],
      "name": "holdBonusUnitBonus",
      "outputs": [
        {
          "internalType": "uint256",
          "name": "",
          "type": "uint256"
        }
      ],
      "stateMutability": "view",
      "type": "function"
    },
    {
      "inputs": [],
      "name": "holdBonusUnlocksAt",
      "outputs": [
        {
          "internalType": "uint256",
          "name": "",
          "type": "uint256"
        }
      ],
      "stateMutability": "view",
      "type": "function"
    },
    {
      "inputs": [],
      "name": "lpCommission",
      "outputs": [
        {
          "internalType": "uint256",
          "name": "",
          "type": "uint256"
        }
      ],
      "stateMutability": "view",
      "type": "function"
    },
    {
      "inputs": [],
      "name": "maxContractBalance",
      "outputs": [
        {
          "internalType": "uint256",
          "name": "",
          "type": "uint256"
        }
      ],
      "stateMutability": "view",
      "type": "function"
    },
    {
      "inputs": [],
      "name": "maxContractBonus",
      "outputs": [
        {
          "internalType": "uint256",
          "name": "",
          "type": "uint256"
        }
      ],
      "stateMutability": "view",
      "type": "function"
    },
    {
      "inputs": [],
      "name": "maxContractRewards",
      "outputs": [
        {
          "internalType": "uint256",
          "name": "",
          "type": "uint256"
        }
      ],
      "stateMutability": "view",
      "type": "function"
    },
    {
      "inputs": [],
      "name": "maxHoldBonus",
      "outputs": [
        {
          "internalType": "uint256",
          "name": "",
          "type": "uint256"
        }
      ],
      "stateMutability": "view",
      "type": "function"
    },
    {
      "inputs": [],
      "name": "maxWithdrawalOverTenPercent",
      "outputs": [
        {
          "internalType": "uint256",
          "name": "",
          "type": "uint256"
        }
      ],
      "stateMutability": "view",
      "type": "function"
    },
    {
      "inputs": [],
      "name": "poolCycle",
      "outputs": [
        {
          "internalType": "uint256",
          "name": "",
          "type": "uint256"
        }
      ],
      "stateMutability": "view",
      "type": "function"
    },
    {
      "inputs": [],
      "name": "poolDrewAt",
      "outputs": [
        {
          "internalType": "uint256",
          "name": "",
          "type": "uint256"
        }
      ],
      "stateMutability": "view",
      "type": "function"
    },
    {
      "inputs": [],
      "name": "refCommission",
      "outputs": [
        {
          "internalType": "uint256",
          "name": "",
          "type": "uint256"
        }
      ],
      "stateMutability": "view",
      "type": "function"
    },
    {
      "inputs": [],
      "name": "refPoolBalance",
      "outputs": [
        {
          "internalType": "uint256",
          "name": "",
          "type": "uint256"
        }
      ],
      "stateMutability": "view",
      "type": "function"
    },
    {
      "inputs": [
        {
          "internalType": "uint256",
          "name": "",
          "type": "uint256"
        }
      ],
      "name": "refPoolBonuses",
      "outputs": [
        {
          "internalType": "uint256",
          "name": "",
          "type": "uint256"
        }
      ],
      "stateMutability": "view",
      "type": "function"
    },
    {
      "inputs": [
        {
          "internalType": "uint256",
          "name": "",
          "type": "uint256"
        }
      ],
      "name": "refPoolUsers",
      "outputs": [
        {
          "internalType": "address",
          "name": "user",
          "type": "address"
        },
        {
          "internalType": "uint256",
          "name": "investmentId",
          "type": "uint256"
        }
      ],
      "stateMutability": "view",
      "type": "function"
    },
    {
      "inputs": [],
      "name": "sponsorPoolBalance",
      "outputs": [
        {
          "internalType": "uint256",
          "name": "",
          "type": "uint256"
        }
      ],
      "stateMutability": "view",
      "type": "function"
    },
    {
      "inputs": [
        {
          "internalType": "uint256",
          "name": "",
          "type": "uint256"
        }
      ],
      "name": "sponsorPoolBonuses",
      "outputs": [
        {
          "internalType": "uint256",
          "name": "",
          "type": "uint256"
        }
      ],
      "stateMutability": "view",
      "type": "function"
    },
    {
      "inputs": [
        {
          "internalType": "uint256",
          "name": "",
          "type": "uint256"
        }
      ],
      "name": "sponsorPoolUsers",
      "outputs": [
        {
          "internalType": "address",
          "name": "user",
          "type": "address"
        },
        {
          "internalType": "uint256",
          "name": "investmentId",
          "type": "uint256"
        }
      ],
      "stateMutability": "view",
      "type": "function"
    },
    {
      "inputs": [],
      "name": "totalActiveInvestments",
      "outputs": [
        {
          "internalType": "uint256",
          "name": "",
          "type": "uint256"
        }
      ],
      "stateMutability": "view",
      "type": "function"
    },
    {
      "inputs": [],
      "name": "totalDepositRewards",
      "outputs": [
        {
          "internalType": "uint256",
          "name": "",
          "type": "uint256"
        }
      ],
      "stateMutability": "view",
      "type": "function"
    },
    {
      "inputs": [],
      "name": "totalDeposits",
      "outputs": [
        {
          "internalType": "uint256",
          "name": "",
          "type": "uint256"
        }
      ],
      "stateMutability": "view",
      "type": "function"
    },
    {
      "inputs": [],
      "name": "totalExited",
      "outputs": [
        {
          "internalType": "uint256",
          "name": "",
          "type": "uint256"
        }
      ],
      "stateMutability": "view",
      "type": "function"
    },
    {
      "inputs": [],
      "name": "totalInvestments",
      "outputs": [
        {
          "internalType": "uint256",
          "name": "",
          "type": "uint256"
        }
      ],
      "stateMutability": "view",
      "type": "function"
    },
    {
      "inputs": [],
      "name": "totalPenalty",
      "outputs": [
        {
          "internalType": "uint256",
          "name": "",
          "type": "uint256"
        }
      ],
      "stateMutability": "view",
      "type": "function"
    },
    {
      "inputs": [],
      "name": "totalRefPoolRewards",
      "outputs": [
        {
          "internalType": "uint256",
          "name": "",
          "type": "uint256"
        }
      ],
      "stateMutability": "view",
      "type": "function"
    },
    {
      "inputs": [],
      "name": "totalRefRewards",
      "outputs": [
        {
          "internalType": "uint256",
          "name": "",
          "type": "uint256"
        }
      ],
      "stateMutability": "view",
      "type": "function"
    },
    {
      "inputs": [],
      "name": "totalSponsorPoolRewards",
      "outputs": [
        {
          "internalType": "uint256",
          "name": "",
          "type": "uint256"
        }
      ],
      "stateMutability": "view",
      "type": "function"
    },
    {
      "inputs": [],
      "name": "totalWithdrawn",
      "outputs": [
        {
          "internalType": "uint256",
          "name": "",
          "type": "uint256"
        }
      ],
      "stateMutability": "view",
      "type": "function"
    },
    {
      "inputs": [
        {
          "internalType": "address",
          "name": "",
          "type": "address"
        }
      ],
      "name": "users",
      "outputs": [
        {
          "internalType": "address",
          "name": "wallet",
          "type": "address"
        },
        {
          "internalType": "bool",
          "name": "registered",
          "type": "bool"
        }
      ],
      "stateMutability": "view",
      "type": "function"
    }
  ],
  "bytecode": "0x6080604052612710600055600060015562030d40600255620151806003556175306005556103e86006556102bc6007556113886008557364b8cb4c04ba902010856d913b4e5df940748bf2600960006101000a8154816001600160a01b0302191690836001600160a01b031602179055506032600a556032600b55611388600c5561012c600d556064600e556001600f556002601055606460115561012c60125561012c6013553480156100b257600080fd5b50610576806100c26000396000f3fe608060405234801561001057600080fd5b50600436106101b75760003560e01c80630a32e91e146101bc57806316768ffc146101d657806324cf3682146101de5780632669e8ea146101e65780632673ebf7146101ee5780632eed8483146101f657806335ccbdbe146101fe5780633ad10ef6146102065780633df936c91461022a57806348a91a24146102325780634b3197131461024f5780634c17055214610257578063648441b61461025f57806365fcb49e1461026757806369cde4c01461026f57806370fd37cf146102775780637247b2b91461027f5780637d882097146102875780638876bb3e1461028f5780638b7e1a351461029757806391994b2c1461029f5780639c236aa8146102a7578063a63f4bdb146102e7578063a87430ba146102ef578063a9122af714610338578063acd2e1c014610340578063bfe0e02014610348578063c572e26714610350578063cabea10d14610358578063d5766ebd14610360578063d82daec71461037d578063df5a75ef14610385578063e6af61c8146103a2578063ebb7f586146103aa578063ed56f6a1146103b2578063ee8a4498146103cf578063fd0b8252146103d7575b600080fd5b6101c46103df565b60408051918252519081900360200190f35b6101c46103e5565b6101c46103eb565b6101c46103f1565b6101c46103f7565b6101c46103fd565b6101c4610403565b61020e610409565b604080516001600160a01b039092168252519081900360200190f35b6101c4610418565b6101c46004803603602081101561024857600080fd5b503561041e565b6101c461043c565b6101c4610442565b6101c4610448565b6101c461044e565b6101c4610454565b6101c461045a565b6101c4610460565b6101c4610466565b6101c461046c565b6101c4610472565b6101c4610478565b6102c4600480360360208110156102bd57600080fd5b503561047e565b604080516001600160a01b03909316835260208301919091528051918290030190f35b6101c46104a7565b6103156004803603602081101561030557600080fd5b50356001600160a01b03166104ad565b604080516001600160a01b03909316835290151560208301528051918290030190f35b61020e6104d4565b6101c46104e3565b6101c46104e9565b6101c46104ef565b6101c46104f5565b6101c46004803603602081101561037657600080fd5b50356104fb565b6101c4610508565b6101c46004803603602081101561039b57600080fd5b503561050e565b6101c461051b565b6101c4610521565b6102c4600480360360208110156103c857600080fd5b5035610527565b6101c4610534565b6101c461053a565b60085481565b600d5481565b604c5481565b600c5481565b604e5481565b60135481565b600b5481565b6009546001600160a01b031681565b60185481565b6048818154811061042b57fe5b600091825260209091200154905081565b604a5481565b600e5481565b60105481565b60145481565b60125481565b604b5481565b60505481565b60495481565b604f5481565b60115481565b60525481565b603181600a811061048b57fe5b6002020180546001909101546001600160a01b03909116915082565b60055481565b6045602052600090815260409020546001600160a01b03811690600160a01b900460ff1682565b6004546001600160a01b031681565b600a5481565b604d5481565b600f5481565b60155481565b6046818154811061042b57fe5b60175481565b6047818154811061042b57fe5b60515481565b60065481565b601981600c811061048b57fe5b60075481565b6016548156fea2646970667358221220d45f67cb44ac9f6444166d303d9d2a007767361b0644b4dadb8773913130f88564736f6c634300060c0033",
  "compiler": {
    "name": "solc",
    "version": "0.6.12+commit.27d51765.Emscripten.clang",
    "optimizer": {
      "enabled": true,
      "runs": 1
    },
    "evmVersion": "petersburg"
  }
}