{
  "fileName": "SharedVariables.sol",
  "contractName": "SharedVariables",
  "source": "// SPDX-License-Identifier: MIT\npragma solidity ^0.6.12;\n\nimport \"@openzeppelin/contracts/token/ERC20/IERC20.sol\";\nimport \"./InterestCalculator.sol\";\nimport \"./Events.sol\";\nimport \"./PercentageCalculator.sol\";\nimport \"./utils/Utils.sol\";\nimport \"./Constants.sol\";\nimport \"./StatsVars.sol\";\n\n\ncontract SharedVariables is Constants, StatsVars, PercentageCalculator, InterestCalculator, Events, Utils {\n    using SafeMath for uint;\n\n    IERC20 public fourRXToken;\n\n    address public devAddress = 0x64B8cb4C04Ba902010856d913B4e5DF940748Bf2; // Dummy address replace it for prod/dev\n\n    struct PoolUser {\n        address user; // user's address\n        uint stakeId;\n    }\n\n    struct Pool {\n        uint cycle;\n        uint amount;\n    }\n\n    struct Uplink {\n        address uplinkAddress;\n        uint uplinkStakeId;\n    }\n\n    struct Stake {\n        uint id;\n        bool active;\n        bool optInInsured; // Is insured ???\n\n        uint holdFrom; // Timestamp from which hold should be counted\n        uint deposit; // Initial Deposit\n        uint withdrawn; // Total withdrawn from this stake\n        uint penalty; // Total penalty on this stale\n\n        // Rewards\n        uint refCommission; // Ref rewards\n        uint refPoolRewards; // Ref Pool Rewards\n        uint sponsorPoolRewards; // Sponsor Pool Rewards\n\n        uint interestCountFrom; // TimeStamp from which interest should be counted, from the beginning\n        uint lastWithdrawalAt; // date time of last withdrawals so we don't allow more then 3% a day\n\n        Uplink uplink; // Referrer\n        Pool refPool; // To store this user's last 24 hour RefPool entries\n        Pool sponsorPool; // To store this user's last 24 hour Sponsor Pool entries\n    }\n\n    struct User {\n        address wallet; // Wallet Address\n        Stake[] stakes;\n    }\n\n    mapping (address => User) public users;\n\n    PoolUser[12] public refPoolUsers;\n    PoolUser[10] public sponsorPoolUsers;\n\n    uint[] public refPoolBonuses;\n    uint[] public sponsorPoolBonuses;\n\n    uint[] public depositBonuses;\n\n    uint public maxContractBalance;\n\n    uint public poolCycle;\n    uint public poolDrewAt;\n\n    uint public refPoolBalance;\n    uint public sponsorPoolBalance;\n}\n",
  "sourcePath": "contracts/SharedVariables.sol",
  "abi": [
    {
      "anonymous": false,
      "inputs": [
        {
          "indexed": false,
          "internalType": "address",
          "name": "user",
          "type": "address"
        },
        {
          "indexed": false,
          "internalType": "address",
          "name": "uplink",
          "type": "address"
        },
        {
          "indexed": false,
          "internalType": "uint256",
          "name": "amount",
          "type": "uint256"
        }
      ],
      "name": "Deposit",
      "type": "event"
    },
    {
      "anonymous": false,
      "inputs": [
        {
          "indexed": false,
          "internalType": "address",
          "name": "user",
          "type": "address"
        }
      ],
      "name": "Exited",
      "type": "event"
    },
    {
      "anonymous": false,
      "inputs": [
        {
          "indexed": false,
          "internalType": "address",
          "name": "user",
          "type": "address"
        },
        {
          "indexed": false,
          "internalType": "uint256",
          "name": "amount",
          "type": "uint256"
        }
      ],
      "name": "ReInvest",
      "type": "event"
    },
    {
      "anonymous": false,
      "inputs": [
        {
          "indexed": false,
          "internalType": "address",
          "name": "user",
          "type": "address"
        },
        {
          "indexed": false,
          "internalType": "uint256",
          "name": "amount",
          "type": "uint256"
        }
      ],
      "name": "Withdraw",
      "type": "event"
    },
    {
      "inputs": [],
      "name": "CONTRACT_BONUS_PER_UNIT_BP",
      "outputs": [
        {
          "internalType": "uint256",
          "name": "",
          "type": "uint256"
        }
      ],
      "stateMutability": "view",
      "type": "function"
    },
    {
      "inputs": [],
      "name": "CONTRACT_BONUS_UNIT",
      "outputs": [
        {
          "internalType": "uint256",
          "name": "",
          "type": "uint256"
        }
      ],
      "stateMutability": "view",
      "type": "function"
    },
    {
      "inputs": [],
      "name": "DAY",
      "outputs": [
        {
          "internalType": "uint256",
          "name": "",
          "type": "uint256"
        }
      ],
      "stateMutability": "view",
      "type": "function"
    },
    {
      "inputs": [],
      "name": "DEV_FEE_BP",
      "outputs": [
        {
          "internalType": "uint256",
          "name": "",
          "type": "uint256"
        }
      ],
      "stateMutability": "view",
      "type": "function"
    },
    {
      "inputs": [],
      "name": "EXIT_PENALTY_BP",
      "outputs": [
        {
          "internalType": "uint256",
          "name": "",
          "type": "uint256"
        }
      ],
      "stateMutability": "view",
      "type": "function"
    },
    {
      "inputs": [],
      "name": "HOLD_BONUS_PER_UNIT_BP",
      "outputs": [
        {
          "internalType": "uint256",
          "name": "",
          "type": "uint256"
        }
      ],
      "stateMutability": "view",
      "type": "function"
    },
    {
      "inputs": [],
      "name": "HOLD_BONUS_UNIT",
      "outputs": [
        {
          "internalType": "uint256",
          "name": "",
          "type": "uint256"
        }
      ],
      "stateMutability": "view",
      "type": "function"
    },
    {
      "inputs": [],
      "name": "LP_FEE_BP",
      "outputs": [
        {
          "internalType": "uint256",
          "name": "",
          "type": "uint256"
        }
      ],
      "stateMutability": "view",
      "type": "function"
    },
    {
      "inputs": [],
      "name": "MAX_CONTRACT_BONUS_BP",
      "outputs": [
        {
          "internalType": "uint256",
          "name": "",
          "type": "uint256"
        }
      ],
      "stateMutability": "view",
      "type": "function"
    },
    {
      "inputs": [],
      "name": "MAX_CONTRACT_REWARD_BP",
      "outputs": [
        {
          "internalType": "uint256",
          "name": "",
          "type": "uint256"
        }
      ],
      "stateMutability": "view",
      "type": "function"
    },
    {
      "inputs": [],
      "name": "MAX_HOLD_BONUS_BP",
      "outputs": [
        {
          "internalType": "uint256",
          "name": "",
          "type": "uint256"
        }
      ],
      "stateMutability": "view",
      "type": "function"
    },
    {
      "inputs": [],
      "name": "MAX_WITHDRAWAL_OVER_REWARD_THRESHOLD_BP",
      "outputs": [
        {
          "internalType": "uint256",
          "name": "",
          "type": "uint256"
        }
      ],
      "stateMutability": "view",
      "type": "function"
    },
    {
      "inputs": [],
      "name": "PERCENT_MULTIPLIER",
      "outputs": [
        {
          "internalType": "uint256",
          "name": "",
          "type": "uint256"
        }
      ],
      "stateMutability": "view",
      "type": "function"
    },
    {
      "inputs": [],
      "name": "REF_COMMISSION_BP",
      "outputs": [
        {
          "internalType": "uint256",
          "name": "",
          "type": "uint256"
        }
      ],
      "stateMutability": "view",
      "type": "function"
    },
    {
      "inputs": [],
      "name": "REF_POOL_FEE_BP",
      "outputs": [
        {
          "internalType": "uint256",
          "name": "",
          "type": "uint256"
        }
      ],
      "stateMutability": "view",
      "type": "function"
    },
    {
      "inputs": [],
      "name": "REWARD_THRESHOLD_BP",
      "outputs": [
        {
          "internalType": "uint256",
          "name": "",
          "type": "uint256"
        }
      ],
      "stateMutability": "view",
      "type": "function"
    },
    {
      "inputs": [],
      "name": "SPONSOR_POOL_FEE_BP",
      "outputs": [
        {
          "internalType": "uint256",
          "name": "",
          "type": "uint256"
        }
      ],
      "stateMutability": "view",
      "type": "function"
    },
    {
      "inputs": [
        {
          "internalType": "uint256",
          "name": "",
          "type": "uint256"
        }
      ],
      "name": "depositBonuses",
      "outputs": [
        {
          "internalType": "uint256",
          "name": "",
          "type": "uint256"
        }
      ],
      "stateMutability": "view",
      "type": "function"
    },
    {
      "inputs": [],
      "name": "devAddress",
      "outputs": [
        {
          "internalType": "address",
          "name": "",
          "type": "address"
        }
      ],
      "stateMutability": "view",
      "type": "function"
    },
    {
      "inputs": [],
      "name": "fourRXToken",
      "outputs": [
        {
          "internalType": "contract IERC20",
          "name": "",
          "type": "address"
        }
      ],
      "stateMutability": "view",
      "type": "function"
    },
    {
      "inputs": [],
      "name": "maxContractBalance",
      "outputs": [
        {
          "internalType": "uint256",
          "name": "",
          "type": "uint256"
        }
      ],
      "stateMutability": "view",
      "type": "function"
    },
    {
      "inputs": [],
      "name": "poolCycle",
      "outputs": [
        {
          "internalType": "uint256",
          "name": "",
          "type": "uint256"
        }
      ],
      "stateMutability": "view",
      "type": "function"
    },
    {
      "inputs": [],
      "name": "poolDrewAt",
      "outputs": [
        {
          "internalType": "uint256",
          "name": "",
          "type": "uint256"
        }
      ],
      "stateMutability": "view",
      "type": "function"
    },
    {
      "inputs": [],
      "name": "refPoolBalance",
      "outputs": [
        {
          "internalType": "uint256",
          "name": "",
          "type": "uint256"
        }
      ],
      "stateMutability": "view",
      "type": "function"
    },
    {
      "inputs": [
        {
          "internalType": "uint256",
          "name": "",
          "type": "uint256"
        }
      ],
      "name": "refPoolBonuses",
      "outputs": [
        {
          "internalType": "uint256",
          "name": "",
          "type": "uint256"
        }
      ],
      "stateMutability": "view",
      "type": "function"
    },
    {
      "inputs": [
        {
          "internalType": "uint256",
          "name": "",
          "type": "uint256"
        }
      ],
      "name": "refPoolUsers",
      "outputs": [
        {
          "internalType": "address",
          "name": "user",
          "type": "address"
        },
        {
          "internalType": "uint256",
          "name": "stakeId",
          "type": "uint256"
        }
      ],
      "stateMutability": "view",
      "type": "function"
    },
    {
      "inputs": [],
      "name": "sponsorPoolBalance",
      "outputs": [
        {
          "internalType": "uint256",
          "name": "",
          "type": "uint256"
        }
      ],
      "stateMutability": "view",
      "type": "function"
    },
    {
      "inputs": [
        {
          "internalType": "uint256",
          "name": "",
          "type": "uint256"
        }
      ],
      "name": "sponsorPoolBonuses",
      "outputs": [
        {
          "internalType": "uint256",
          "name": "",
          "type": "uint256"
        }
      ],
      "stateMutability": "view",
      "type": "function"
    },
    {
      "inputs": [
        {
          "internalType": "uint256",
          "name": "",
          "type": "uint256"
        }
      ],
      "name": "sponsorPoolUsers",
      "outputs": [
        {
          "internalType": "address",
          "name": "user",
          "type": "address"
        },
        {
          "internalType": "uint256",
          "name": "stakeId",
          "type": "uint256"
        }
      ],
      "stateMutability": "view",
      "type": "function"
    },
    {
      "inputs": [],
      "name": "totalActiveStakes",
      "outputs": [
        {
          "internalType": "uint256",
          "name": "",
          "type": "uint256"
        }
      ],
      "stateMutability": "view",
      "type": "function"
    },
    {
      "inputs": [],
      "name": "totalDepositRewards",
      "outputs": [
        {
          "internalType": "uint256",
          "name": "",
          "type": "uint256"
        }
      ],
      "stateMutability": "view",
      "type": "function"
    },
    {
      "inputs": [],
      "name": "totalDeposits",
      "outputs": [
        {
          "internalType": "uint256",
          "name": "",
          "type": "uint256"
        }
      ],
      "stateMutability": "view",
      "type": "function"
    },
    {
      "inputs": [],
      "name": "totalExited",
      "outputs": [
        {
          "internalType": "uint256",
          "name": "",
          "type": "uint256"
        }
      ],
      "stateMutability": "view",
      "type": "function"
    },
    {
      "inputs": [],
      "name": "totalPenalty",
      "outputs": [
        {
          "internalType": "uint256",
          "name": "",
          "type": "uint256"
        }
      ],
      "stateMutability": "view",
      "type": "function"
    },
    {
      "inputs": [],
      "name": "totalRefPoolRewards",
      "outputs": [
        {
          "internalType": "uint256",
          "name": "",
          "type": "uint256"
        }
      ],
      "stateMutability": "view",
      "type": "function"
    },
    {
      "inputs": [],
      "name": "totalRefRewards",
      "outputs": [
        {
          "internalType": "uint256",
          "name": "",
          "type": "uint256"
        }
      ],
      "stateMutability": "view",
      "type": "function"
    },
    {
      "inputs": [],
      "name": "totalSponsorPoolRewards",
      "outputs": [
        {
          "internalType": "uint256",
          "name": "",
          "type": "uint256"
        }
      ],
      "stateMutability": "view",
      "type": "function"
    },
    {
      "inputs": [],
      "name": "totalStakes",
      "outputs": [
        {
          "internalType": "uint256",
          "name": "",
          "type": "uint256"
        }
      ],
      "stateMutability": "view",
      "type": "function"
    },
    {
      "inputs": [],
      "name": "totalWithdrawn",
      "outputs": [
        {
          "internalType": "uint256",
          "name": "",
          "type": "uint256"
        }
      ],
      "stateMutability": "view",
      "type": "function"
    },
    {
      "inputs": [
        {
          "internalType": "address",
          "name": "",
          "type": "address"
        }
      ],
      "name": "users",
      "outputs": [
        {
          "internalType": "address",
          "name": "wallet",
          "type": "address"
        }
      ],
      "stateMutability": "view",
      "type": "function"
    }
  ],
  "bytecode": "0x6080604052600b80546001600160a01b0319167364b8cb4c04ba902010856d913b4e5df940748bf217905534801561003657600080fd5b50610549806100466000396000f3fe608060405234801561001057600080fd5b50600436106101d85760003560e01c806303162d2c146101dd5780630781235a146101f75780630ac39f72146101ff5780630f9fa6aa146101f757806312dd5fe4146101f75780631f079e01146102075780632673ebf71461020f57806327cfe856146102175780633ad10ef61461021f5780633df936c91461024357806348a91a241461024b578063498dc5b5146102685780634b3197131461027057806363b815fa1461027857806365fcb49e1461028057806369da94d8146102885780637247b2b9146102905780637d882097146102985780638876bb3e146102a057806391994b2c146102a85780639b6eec7d146102685780639c236aa8146102b0578063a00d4980146102f0578063a13a801a146102f8578063a87430ba14610300578063a9122af714610326578063aaf1a0da146102f8578063b963ddb41461032e578063bf9befb114610336578063bfe0e0201461033e578063cabea10d14610346578063d5766ebd1461034e578063d82daec71461036b578063d902f40c14610373578063df5a75ef1461037b578063e523141114610398578063e6af61c8146103a0578063ed56f6a1146103a8578063f48e595a14610398578063fd0b8252146103c5575b600080fd5b6101e56103cd565b60408051918252519081900360200190f35b6101e56103d3565b6101e56103d9565b6101e56103de565b6101e56103e4565b6101e56103ea565b6102276103f1565b604080516001600160a01b039092168252519081900360200190f35b6101e5610400565b6101e56004803603602081101561026157600080fd5b5035610406565b6101e5610424565b6101e561042a565b6101e5610430565b6101e5610436565b6101e561043c565b6101e5610442565b6101e5610448565b6101e561044e565b6101e5610454565b6102cd600480360360208110156102c657600080fd5b503561045a565b604080516001600160a01b03909316835260208301919091528051918290030190f35b6101e5610483565b6101e5610489565b6102276004803603602081101561031657600080fd5b50356001600160a01b031661048e565b6102276104a9565b6101e56104b8565b6101e56104be565b6101e56104c4565b6101e56104ca565b6101e56004803603602081101561036457600080fd5b50356104d0565b6101e56104dd565b6101e56104e3565b6101e56004803603602081101561039157600080fd5b50356104e8565b6101e56104f5565b6101e56104fa565b6102cd600480360360208110156103be57600080fd5b5035610500565b6101e561050d565b61a8c081565b61012c81565b600281565b60035481565b60055481565b6201518081565b600b546001600160a01b031681565b60405481565b603b818154811061041357fe5b600091825260209091200154905081565b61138881565b60015481565b61271081565b603c5481565b61753081565b60075481565b60005481565b60065481565b60095481565b602581600a811061046757fe5b6002020180546001909101546001600160a01b03909116915082565b6103e881565b603281565b600c602052600090815260409020546001600160a01b031681565b600a546001600160a01b031681565b6102bc81565b60025481565b60045481565b603d5481565b6039818154811061041357fe5b603f5481565b600181565b603a818154811061041357fe5b606481565b60085481565b600d81600c811061046757fe5b603e548156fea26469706673582212204586957cd17b704d471a97ae80407d9f0a239cb0a1f7319cd73d086ad8c9615664736f6c634300060c0033",
  "compiler": {
    "name": "solc",
    "version": "0.6.12+commit.27d51765.Emscripten.clang",
    "optimizer": {
      "enabled": true,
      "runs": 1
    },
    "evmVersion": "petersburg"
  }
}