{
  "fileName": "SharedVariables.sol",
  "contractName": "SharedVariables",
  "source": "// SPDX-License-Identifier: MIT\npragma solidity ^0.6.12;\n\nimport \"@openzeppelin/contracts/token/ERC20/IERC20.sol\";\nimport \"./InterestCalculator.sol\";\nimport \"./Events.sol\";\nimport \"./PercentageCalculator.sol\";\nimport \"./utils/Utils.sol\";\nimport \"./Constants.sol\";\nimport \"./StatsVars.sol\";\n\n\ncontract SharedVariables is Constants, StatsVars, PercentageCalculator, InterestCalculator, Events, Utils {\n    using SafeMath for uint;\n\n    IERC20 public fourRXToken;\n\n    address public devAddress = 0x64B8cb4C04Ba902010856d913B4e5DF940748Bf2; // Dummy address replace it for prod/dev\n\n    struct PoolUser {\n        address user; // user's address\n        uint stakeId;\n    }\n\n    struct Pool {\n        uint cycle;\n        uint amount;\n    }\n\n    struct Uplink {\n        address uplinkAddress;\n        uint uplinkStakeId;\n    }\n\n    struct Stake {\n        uint id;\n        bool active;\n        bool optInInsured; // Is insured ???\n\n        uint holdFrom; // Timestamp from which hold should be counted\n        uint deposit; // Initial Deposit\n        uint withdrawn; // Total withdrawn from this stake\n        uint penalty; // Total penalty on this stale\n\n        // Rewards\n        uint refCommission; // Ref rewards\n        uint refPoolRewards; // Ref Pool Rewards\n        uint sponsorPoolRewards; // Sponsor Pool Rewards\n\n        uint interestCountFrom; // TimeStamp from which interest should be counted, from the beginning\n        uint lastWithdrawalAt; // date time of last withdrawals so we don't allow more then 3% a day\n\n        Uplink uplink; // Referrer\n        Pool refPool; // To store this user's last 24 hour RefPool entries\n        Pool sponsorPool; // To store this user's last 24 hour Sponsor Pool entries\n    }\n\n    struct User {\n        address wallet; // Wallet Address\n        Stake[] stakes;\n    }\n\n    mapping (address => User) public users;\n\n    PoolUser[12] public refPoolUsers;\n    PoolUser[10] public sponsorPoolUsers;\n\n    uint[] public refPoolBonuses;\n    uint[] public sponsorPoolBonuses;\n\n    uint public maxContractBalance;\n\n    uint public poolCycle;\n    uint public poolDrewAt;\n\n    uint public refPoolBalance;\n    uint public sponsorPoolBalance;\n}\n",
  "sourcePath": "contracts/SharedVariables.sol",
  "abi": [
    {
      "anonymous": false,
      "inputs": [
        {
          "indexed": false,
          "internalType": "address",
          "name": "user",
          "type": "address"
        },
        {
          "indexed": false,
          "internalType": "uint256",
          "name": "amount",
          "type": "uint256"
        },
        {
          "indexed": false,
          "internalType": "address",
          "name": "uplinkAddress",
          "type": "address"
        },
        {
          "indexed": false,
          "internalType": "uint256",
          "name": "uplinkStakeId",
          "type": "uint256"
        }
      ],
      "name": "Deposit",
      "type": "event"
    },
    {
      "anonymous": false,
      "inputs": [
        {
          "indexed": false,
          "internalType": "address",
          "name": "user",
          "type": "address"
        },
        {
          "indexed": false,
          "internalType": "uint256",
          "name": "stakeId",
          "type": "uint256"
        },
        {
          "indexed": false,
          "internalType": "uint256",
          "name": "amount",
          "type": "uint256"
        }
      ],
      "name": "Exited",
      "type": "event"
    },
    {
      "anonymous": false,
      "inputs": [
        {
          "indexed": false,
          "internalType": "uint256",
          "name": "refPoolAmount",
          "type": "uint256"
        },
        {
          "indexed": false,
          "internalType": "uint256",
          "name": "sponsirPoolAmount",
          "type": "uint256"
        }
      ],
      "name": "PoolDrawn",
      "type": "event"
    },
    {
      "anonymous": false,
      "inputs": [
        {
          "indexed": false,
          "internalType": "address",
          "name": "user",
          "type": "address"
        },
        {
          "indexed": false,
          "internalType": "uint256",
          "name": "amount",
          "type": "uint256"
        }
      ],
      "name": "ReInvest",
      "type": "event"
    },
    {
      "anonymous": false,
      "inputs": [
        {
          "indexed": false,
          "internalType": "address",
          "name": "user",
          "type": "address"
        },
        {
          "indexed": false,
          "internalType": "uint256",
          "name": "amount",
          "type": "uint256"
        }
      ],
      "name": "Withdrawn",
      "type": "event"
    },
    {
      "inputs": [],
      "name": "CONTRACT_BONUS_PER_UNIT_BP",
      "outputs": [
        {
          "internalType": "uint256",
          "name": "",
          "type": "uint256"
        }
      ],
      "stateMutability": "view",
      "type": "function"
    },
    {
      "inputs": [],
      "name": "CONTRACT_BONUS_UNIT",
      "outputs": [
        {
          "internalType": "uint256",
          "name": "",
          "type": "uint256"
        }
      ],
      "stateMutability": "view",
      "type": "function"
    },
    {
      "inputs": [],
      "name": "DAY",
      "outputs": [
        {
          "internalType": "uint256",
          "name": "",
          "type": "uint256"
        }
      ],
      "stateMutability": "view",
      "type": "function"
    },
    {
      "inputs": [],
      "name": "DEV_FEE_BP",
      "outputs": [
        {
          "internalType": "uint256",
          "name": "",
          "type": "uint256"
        }
      ],
      "stateMutability": "view",
      "type": "function"
    },
    {
      "inputs": [],
      "name": "EXIT_PENALTY_BP",
      "outputs": [
        {
          "internalType": "uint256",
          "name": "",
          "type": "uint256"
        }
      ],
      "stateMutability": "view",
      "type": "function"
    },
    {
      "inputs": [],
      "name": "HOLD_BONUS_PER_UNIT_BP",
      "outputs": [
        {
          "internalType": "uint256",
          "name": "",
          "type": "uint256"
        }
      ],
      "stateMutability": "view",
      "type": "function"
    },
    {
      "inputs": [],
      "name": "HOLD_BONUS_UNIT",
      "outputs": [
        {
          "internalType": "uint256",
          "name": "",
          "type": "uint256"
        }
      ],
      "stateMutability": "view",
      "type": "function"
    },
    {
      "inputs": [],
      "name": "LP_FEE_BP",
      "outputs": [
        {
          "internalType": "uint256",
          "name": "",
          "type": "uint256"
        }
      ],
      "stateMutability": "view",
      "type": "function"
    },
    {
      "inputs": [],
      "name": "MAX_CONTRACT_BONUS_BP",
      "outputs": [
        {
          "internalType": "uint256",
          "name": "",
          "type": "uint256"
        }
      ],
      "stateMutability": "view",
      "type": "function"
    },
    {
      "inputs": [],
      "name": "MAX_CONTRACT_REWARD_BP",
      "outputs": [
        {
          "internalType": "uint256",
          "name": "",
          "type": "uint256"
        }
      ],
      "stateMutability": "view",
      "type": "function"
    },
    {
      "inputs": [],
      "name": "MAX_HOLD_BONUS_BP",
      "outputs": [
        {
          "internalType": "uint256",
          "name": "",
          "type": "uint256"
        }
      ],
      "stateMutability": "view",
      "type": "function"
    },
    {
      "inputs": [],
      "name": "MAX_WITHDRAWAL_OVER_REWARD_THRESHOLD_BP",
      "outputs": [
        {
          "internalType": "uint256",
          "name": "",
          "type": "uint256"
        }
      ],
      "stateMutability": "view",
      "type": "function"
    },
    {
      "inputs": [],
      "name": "PERCENT_MULTIPLIER",
      "outputs": [
        {
          "internalType": "uint256",
          "name": "",
          "type": "uint256"
        }
      ],
      "stateMutability": "view",
      "type": "function"
    },
    {
      "inputs": [],
      "name": "REF_COMMISSION_BP",
      "outputs": [
        {
          "internalType": "uint256",
          "name": "",
          "type": "uint256"
        }
      ],
      "stateMutability": "view",
      "type": "function"
    },
    {
      "inputs": [],
      "name": "REF_POOL_FEE_BP",
      "outputs": [
        {
          "internalType": "uint256",
          "name": "",
          "type": "uint256"
        }
      ],
      "stateMutability": "view",
      "type": "function"
    },
    {
      "inputs": [],
      "name": "REWARD_THRESHOLD_BP",
      "outputs": [
        {
          "internalType": "uint256",
          "name": "",
          "type": "uint256"
        }
      ],
      "stateMutability": "view",
      "type": "function"
    },
    {
      "inputs": [],
      "name": "SPONSOR_POOL_FEE_BP",
      "outputs": [
        {
          "internalType": "uint256",
          "name": "",
          "type": "uint256"
        }
      ],
      "stateMutability": "view",
      "type": "function"
    },
    {
      "inputs": [],
      "name": "devAddress",
      "outputs": [
        {
          "internalType": "address",
          "name": "",
          "type": "address"
        }
      ],
      "stateMutability": "view",
      "type": "function"
    },
    {
      "inputs": [],
      "name": "fourRXToken",
      "outputs": [
        {
          "internalType": "contract IERC20",
          "name": "",
          "type": "address"
        }
      ],
      "stateMutability": "view",
      "type": "function"
    },
    {
      "inputs": [],
      "name": "maxContractBalance",
      "outputs": [
        {
          "internalType": "uint256",
          "name": "",
          "type": "uint256"
        }
      ],
      "stateMutability": "view",
      "type": "function"
    },
    {
      "inputs": [],
      "name": "poolCycle",
      "outputs": [
        {
          "internalType": "uint256",
          "name": "",
          "type": "uint256"
        }
      ],
      "stateMutability": "view",
      "type": "function"
    },
    {
      "inputs": [],
      "name": "poolDrewAt",
      "outputs": [
        {
          "internalType": "uint256",
          "name": "",
          "type": "uint256"
        }
      ],
      "stateMutability": "view",
      "type": "function"
    },
    {
      "inputs": [],
      "name": "refPoolBalance",
      "outputs": [
        {
          "internalType": "uint256",
          "name": "",
          "type": "uint256"
        }
      ],
      "stateMutability": "view",
      "type": "function"
    },
    {
      "inputs": [
        {
          "internalType": "uint256",
          "name": "",
          "type": "uint256"
        }
      ],
      "name": "refPoolBonuses",
      "outputs": [
        {
          "internalType": "uint256",
          "name": "",
          "type": "uint256"
        }
      ],
      "stateMutability": "view",
      "type": "function"
    },
    {
      "inputs": [
        {
          "internalType": "uint256",
          "name": "",
          "type": "uint256"
        }
      ],
      "name": "refPoolUsers",
      "outputs": [
        {
          "internalType": "address",
          "name": "user",
          "type": "address"
        },
        {
          "internalType": "uint256",
          "name": "stakeId",
          "type": "uint256"
        }
      ],
      "stateMutability": "view",
      "type": "function"
    },
    {
      "inputs": [],
      "name": "sponsorPoolBalance",
      "outputs": [
        {
          "internalType": "uint256",
          "name": "",
          "type": "uint256"
        }
      ],
      "stateMutability": "view",
      "type": "function"
    },
    {
      "inputs": [
        {
          "internalType": "uint256",
          "name": "",
          "type": "uint256"
        }
      ],
      "name": "sponsorPoolBonuses",
      "outputs": [
        {
          "internalType": "uint256",
          "name": "",
          "type": "uint256"
        }
      ],
      "stateMutability": "view",
      "type": "function"
    },
    {
      "inputs": [
        {
          "internalType": "uint256",
          "name": "",
          "type": "uint256"
        }
      ],
      "name": "sponsorPoolUsers",
      "outputs": [
        {
          "internalType": "address",
          "name": "user",
          "type": "address"
        },
        {
          "internalType": "uint256",
          "name": "stakeId",
          "type": "uint256"
        }
      ],
      "stateMutability": "view",
      "type": "function"
    },
    {
      "inputs": [],
      "name": "totalDepositRewards",
      "outputs": [
        {
          "internalType": "uint256",
          "name": "",
          "type": "uint256"
        }
      ],
      "stateMutability": "view",
      "type": "function"
    },
    {
      "inputs": [],
      "name": "totalExited",
      "outputs": [
        {
          "internalType": "uint256",
          "name": "",
          "type": "uint256"
        }
      ],
      "stateMutability": "view",
      "type": "function"
    },
    {
      "inputs": [
        {
          "internalType": "address",
          "name": "",
          "type": "address"
        }
      ],
      "name": "users",
      "outputs": [
        {
          "internalType": "address",
          "name": "wallet",
          "type": "address"
        }
      ],
      "stateMutability": "view",
      "type": "function"
    }
  ],
  "bytecode": "0x6080604052600380546001600160a01b0319167364b8cb4c04ba902010856d913b4e5df940748bf217905534801561003657600080fd5b50610466806100466000396000f3fe608060405234801561001057600080fd5b50600436106101755760003560e01c806303162d2c1461017a5780630781235a146101945780630ac39f721461019c5780630f9fa6aa1461019457806312dd5fe41461019457806327cfe856146101a45780633ad10ef6146101ac5780633df936c9146101d0578063498dc5b5146101d857806363b815fa146101e057806365fcb49e146101e857806369da94d8146101f05780637247b2b9146101f857806391994b2c146102005780639b6eec7d146102085780639c236aa814610210578063a00d498014610250578063a13a801a14610258578063a87430ba14610260578063a9122af714610286578063aaf1a0da14610258578063b963ddb41461028e578063cabea10d14610296578063d5766ebd1461029e578063d82daec7146102bb578063d902f40c146102c3578063df5a75ef146102cb578063e5231411146102e8578063ed56f6a1146102f0578063f48e595a1461030d578063fd0b825214610315575b600080fd5b61018261031d565b60408051918252519081900360200190f35b610182610323565b610182610329565b61018261032e565b6101b4610335565b604080516001600160a01b039092168252519081900360200190f35b610182610344565b61018261034a565b610182610350565b610182610356565b61018261035c565b610182610362565b610182610368565b61018261036e565b61022d6004803603602081101561022657600080fd5b5035610374565b604080516001600160a01b03909316835260208301919091528051918290030190f35b61018261039d565b6101826103a2565b6101b46004803603602081101561027657600080fd5b50356001600160a01b03166103a7565b6101b46103c2565b6101826103d1565b6101826103d7565b610182600480360360208110156102b457600080fd5b50356103dd565b6101826103fb565b610182610401565b610182600480360360208110156102e157600080fd5b5035610406565b610182610413565b61022d6004803603602081101561030657600080fd5b5035610418565b610182610425565b61018261042a565b61a8c081565b61012c81565b600281565b6201518081565b6003546001600160a01b031681565b60375481565b61138881565b61271081565b60335481565b61924f81565b60005481565b60015481565b6101f481565b601d81600a811061038157fe5b6002020180546001909101546001600160a01b03909116915082565b600581565b603281565b6004602052600090815260409020546001600160a01b031681565b6002546001600160a01b031681565b61032081565b60345481565b603181815481106103ea57fe5b600091825260209091200154905081565b60365481565b600181565b603281815481106103ea57fe5b606481565b600581600c811061038157fe5b60fa81565b6035548156fea26469706673582212200b506fbc69cbdee3d3f726a9214ab70b40479639fe4359febb53df0a2ed11ece64736f6c634300060c0033",
  "compiler": {
    "name": "solc",
    "version": "0.6.12+commit.27d51765.Emscripten.clang",
    "optimizer": {
      "enabled": true,
      "runs": 1
    },
    "evmVersion": "petersburg"
  }
}