{
  "fileName": "SortedLinkedList.sol",
  "contractName": "SortedLinkedList",
  "source": "pragma solidity 0.6.12;\n\ncontract SortedLinkedList{\n\n    mapping(address => uint256) public scores;\n    mapping(address => address) _nextStudents;\n    uint256 public listSize;\n    address constant GUARD = address(1);\n\n    constructor() public {\n        _nextStudents[GUARD] = GUARD;\n    }\n\n    function addStudent(address student, uint256 score, address candidateStudent) public {\n        require(_nextStudents[student] == address(0));\n        require(_nextStudents[candidateStudent] != address(0));\n        require(_verifyIndex(candidateStudent, score, _nextStudents[candidateStudent]));\n        scores[student] = score;\n        _nextStudents[student] = _nextStudents[candidateStudent];\n        _nextStudents[candidateStudent] = student;\n        listSize++;\n    }\n\n    function increaseScore(\n        address student,\n        uint256 score,\n        address oldCandidateStudent,\n        address newCandidateStudent\n    ) public {\n        updateScore(student, scores[student] + score, oldCandidateStudent, newCandidateStudent);\n    }\n\n    function reduceScore(\n        address student,\n        uint256 score,\n        address oldCandidateStudent,\n        address newCandidateStudent\n    ) public {\n        updateScore(student, scores[student] - score, oldCandidateStudent, newCandidateStudent);\n    }\n\n    function updateScore(\n        address student,\n        uint256 newScore,\n        address oldCandidateStudent,\n        address newCandidateStudent\n    ) public {\n        require(_nextStudents[student] != address(0));\n        require(_nextStudents[oldCandidateStudent] != address(0));\n        require(_nextStudents[newCandidateStudent] != address(0));\n        if(oldCandidateStudent == newCandidateStudent)\n        {\n            require(_isPrevStudent(student, oldCandidateStudent));\n            require(_verifyIndex(newCandidateStudent, newScore, _nextStudents[student]));\n            scores[student] = newScore;\n        } else {\n            removeStudent(student, oldCandidateStudent);\n            addStudent(student, newScore, newCandidateStudent);\n        }\n    }\n\n    function removeStudent(address student, address candidateStudent) public {\n        require(_nextStudents[student] != address(0));\n        require(_isPrevStudent(student, candidateStudent));\n        _nextStudents[candidateStudent] = _nextStudents[student];\n        _nextStudents[student] = address(0);\n        scores[student] = 0;\n        listSize--;\n    }\n\n    function getTop(uint256 k) public view returns(address[] memory) {\n        require(k <= listSize);\n        address[] memory studentLists = new address[](k);\n        address currentAddress = _nextStudents[GUARD];\n        for(uint256 i = 0; i < k; ++i) {\n            studentLists[i] = currentAddress;\n            currentAddress = _nextStudents[currentAddress];\n        }\n        return studentLists;\n    }\n\n\n    function _verifyIndex(address prevStudent, uint256 newValue, address nextStudent)\n    internal\n    view\n    returns(bool)\n    {\n        return (prevStudent == GUARD || scores[prevStudent] >= newValue) &&\n        (nextStudent == GUARD || newValue > scores[nextStudent]);\n    }\n\n    function _isPrevStudent(address student, address prevStudent) internal view returns(bool) {\n        return _nextStudents[prevStudent] == student;\n    }\n}\n",
  "sourcePath": "contracts/SortedLinkedList/SortedLinkedList.sol",
  "abi": [
    {
      "inputs": [],
      "stateMutability": "nonpayable",
      "type": "constructor"
    },
    {
      "inputs": [
        {
          "internalType": "address",
          "name": "student",
          "type": "address"
        },
        {
          "internalType": "uint256",
          "name": "score",
          "type": "uint256"
        },
        {
          "internalType": "address",
          "name": "candidateStudent",
          "type": "address"
        }
      ],
      "name": "addStudent",
      "outputs": [],
      "stateMutability": "nonpayable",
      "type": "function"
    },
    {
      "inputs": [
        {
          "internalType": "uint256",
          "name": "k",
          "type": "uint256"
        }
      ],
      "name": "getTop",
      "outputs": [
        {
          "internalType": "address[]",
          "name": "",
          "type": "address[]"
        }
      ],
      "stateMutability": "view",
      "type": "function"
    },
    {
      "inputs": [
        {
          "internalType": "address",
          "name": "student",
          "type": "address"
        },
        {
          "internalType": "uint256",
          "name": "score",
          "type": "uint256"
        },
        {
          "internalType": "address",
          "name": "oldCandidateStudent",
          "type": "address"
        },
        {
          "internalType": "address",
          "name": "newCandidateStudent",
          "type": "address"
        }
      ],
      "name": "increaseScore",
      "outputs": [],
      "stateMutability": "nonpayable",
      "type": "function"
    },
    {
      "inputs": [],
      "name": "listSize",
      "outputs": [
        {
          "internalType": "uint256",
          "name": "",
          "type": "uint256"
        }
      ],
      "stateMutability": "view",
      "type": "function"
    },
    {
      "inputs": [
        {
          "internalType": "address",
          "name": "student",
          "type": "address"
        },
        {
          "internalType": "uint256",
          "name": "score",
          "type": "uint256"
        },
        {
          "internalType": "address",
          "name": "oldCandidateStudent",
          "type": "address"
        },
        {
          "internalType": "address",
          "name": "newCandidateStudent",
          "type": "address"
        }
      ],
      "name": "reduceScore",
      "outputs": [],
      "stateMutability": "nonpayable",
      "type": "function"
    },
    {
      "inputs": [
        {
          "internalType": "address",
          "name": "student",
          "type": "address"
        },
        {
          "internalType": "address",
          "name": "candidateStudent",
          "type": "address"
        }
      ],
      "name": "removeStudent",
      "outputs": [],
      "stateMutability": "nonpayable",
      "type": "function"
    },
    {
      "inputs": [
        {
          "internalType": "address",
          "name": "",
          "type": "address"
        }
      ],
      "name": "scores",
      "outputs": [
        {
          "internalType": "uint256",
          "name": "",
          "type": "uint256"
        }
      ],
      "stateMutability": "view",
      "type": "function"
    },
    {
      "inputs": [
        {
          "internalType": "address",
          "name": "student",
          "type": "address"
        },
        {
          "internalType": "uint256",
          "name": "newScore",
          "type": "uint256"
        },
        {
          "internalType": "address",
          "name": "oldCandidateStudent",
          "type": "address"
        },
        {
          "internalType": "address",
          "name": "newCandidateStudent",
          "type": "address"
        }
      ],
      "name": "updateScore",
      "outputs": [],
      "stateMutability": "nonpayable",
      "type": "function"
    }
  ],
  "bytecode": "0x608060405234801561001057600080fd5b506001600081905260208190527fcc69885fda6bcc1a4ace058b4a62bf5e179ea78fd58a1ccd71c22cc9b688792f80546001600160a01b03191690911790556106ce8061005e6000396000f3fe608060405234801561001057600080fd5b50600436106100785760003560e01c80631a82eed41461007d57806337caa8b6146100ad5780636fd192bf1461011a57806376dd110f146101565780638ba80ec51461018e5780638d11ce0d146101ca578063972c535614610200578063ce90a59614610208575b600080fd5b6100ab6004803603604081101561009357600080fd5b506001600160a01b0381358116916020013516610244565b005b6100ca600480360360208110156100c357600080fd5b50356102d5565b60408051602080825283518183015283519192839290830191858101910280838360005b838110156101065781810151838201526020016100ee565b505050509050019250505060405180910390f35b6100ab6004803603608081101561013057600080fd5b506001600160a01b038135811691602081013591604082013581169160600135166103bb565b61017c6004803603602081101561016c57600080fd5b50356001600160a01b03166103e9565b60408051918252519081900360200190f35b6100ab600480360360808110156101a457600080fd5b506001600160a01b038135811691602081013591604082013581169160600135166103fb565b6100ab600480360360608110156101e057600080fd5b506001600160a01b03813581169160208101359160409091013516610424565b61017c610501565b6100ab6004803603608081101561021e57600080fd5b506001600160a01b03813581169160208101359160408201358116916060013516610507565b6001600160a01b038281166000908152600160205260409020541661026857600080fd5b6102728282610606565b61027b57600080fd5b6001600160a01b039182166000818152600160209081526040808320805495871684528184208054969097166001600160a01b03199687161790965592825284549093169093559082905281205560028054600019019055565b60606002548211156102e657600080fd5b6060826001600160401b03811180156102fe57600080fd5b50604051908082528060200260200182016040528015610328578160200160208202803683370190505b50600160008181526020919091527fcc69885fda6bcc1a4ace058b4a62bf5e179ea78fd58a1ccd71c22cc9b688792f549192506001600160a01b03909116905b848110156103b2578183828151811061037d57fe5b6001600160a01b0392831660209182029290920181019190915292811660009081526001938490526040902054169101610368565b50909392505050565b6001600160a01b0384166000908152602081905260409020546103e390859085018484610507565b50505050565b60006020819052908152604090205481565b6001600160a01b0384166000908152602081905260409020546103e39085908590038484610507565b6001600160a01b03838116600090815260016020526040902054161561044957600080fd5b6001600160a01b038181166000908152600160205260409020541661046d57600080fd5b6001600160a01b03808216600090815260016020526040902054610495918391859116610628565b61049e57600080fd5b6001600160a01b039283166000818152602081815260408083209590955592851680825260019384905284822080548484529583208054969097166001600160a01b03199687161790965590528354909216909117909155600280549091019055565b60025481565b6001600160a01b038481166000908152600160205260409020541661052b57600080fd5b6001600160a01b038281166000908152600160205260409020541661054f57600080fd5b6001600160a01b038181166000908152600160205260409020541661057357600080fd5b806001600160a01b0316826001600160a01b031614156105f1576105978483610606565b6105a057600080fd5b6001600160a01b038085166000908152600160205260409020546105c8918391869116610628565b6105d157600080fd5b6001600160a01b03841660009081526020819052604090208390556103e3565b6105fb8483610244565b6103e3848483610424565b6001600160a01b03908116600090815260016020526040902054811691161490565b60006001600160a01b0384166001148061065a57506001600160a01b0384166000908152602081905260409020548311155b801561069057506001600160a01b0382166001148061069057506001600160a01b03821660009081526020819052604090205483115b94935050505056fea264697066735822122019ac4cb36a4b381519a40ee49cf52fb9b17c0867591447a6109670ff6f7242c164736f6c634300060c0033",
  "compiler": {
    "name": "solc",
    "version": "0.6.12+commit.27d51765.Emscripten.clang",
    "optimizer": {
      "enabled": true,
      "runs": 1
    },
    "evmVersion": "petersburg"
  }
}