{
  "fileName": "SponsorPool.sol",
  "contractName": "SponsorPool",
  "source": "// SPDX-License-Identifier: MIT\npragma solidity ^0.6.12;\n\nimport \"../libs/SortedLinkedList.sol\";\n\ncontract SponsorPool {\n    SortedLinkedList.Item[] public sponsorPoolUsers;\n\n    function _addSponsorPoolRecord(address user, uint amount, uint8 stakeId) internal {\n        SortedLinkedList.addNode(sponsorPoolUsers, user, amount, stakeId);\n    }\n\n    function _cleanSponsorPoolUsers() internal {\n        delete sponsorPoolUsers;\n        SortedLinkedList.initNodes(sponsorPoolUsers);\n    }\n}\n",
  "sourcePath": "contracts/Pools/SponsorPool.sol",
  "abi": [
    {
      "inputs": [
        {
          "internalType": "uint256",
          "name": "",
          "type": "uint256"
        }
      ],
      "name": "sponsorPoolUsers",
      "outputs": [
        {
          "internalType": "address",
          "name": "user",
          "type": "address"
        },
        {
          "internalType": "uint16",
          "name": "next",
          "type": "uint16"
        },
        {
          "internalType": "uint8",
          "name": "id",
          "type": "uint8"
        },
        {
          "internalType": "uint256",
          "name": "score",
          "type": "uint256"
        }
      ],
      "stateMutability": "view",
      "type": "function"
    }
  ],
  "bytecode": "0x608060405234801561001057600080fd5b5060fc8061001f6000396000f3fe6080604052348015600f57600080fd5b506004361060285760003560e01c80639c236aa814602d575b600080fd5b604760048036036020811015604157600080fd5b5035607c565b604080516001600160a01b03909516855261ffff909316602085015260ff909116838301526060830152519081900360800190f35b60008181548110608857fe5b6000918252602090912060029091020180546001909101546001600160a01b0382169250600160a01b820461ffff1691600160b01b900460ff16908456fea2646970667358221220b5b444af995cad542782d5e53be2c863868419a2ee57bb82a32e510d4be190f164736f6c634300060c0033",
  "compiler": {
    "name": "solc",
    "version": "0.6.12+commit.27d51765.Emscripten.clang",
    "optimizer": {
      "enabled": true,
      "runs": 1
    },
    "evmVersion": "petersburg"
  }
}