{
  "fileName": "StatsVars.sol",
  "contractName": "StatsVars",
  "source": "// SPDX-License-Identifier: MIT\npragma solidity ^0.6.12;\n\n\ncontract StatsVars {\n    // Stats\n    uint public totalDepositRewards;\n    uint public totalExited;\n}\n",
  "sourcePath": "contracts/StatsVars.sol",
  "abi": [
    {
      "inputs": [],
      "name": "totalDepositRewards",
      "outputs": [
        {
          "internalType": "uint256",
          "name": "",
          "type": "uint256"
        }
      ],
      "stateMutability": "view",
      "type": "function"
    },
    {
      "inputs": [],
      "name": "totalExited",
      "outputs": [
        {
          "internalType": "uint256",
          "name": "",
          "type": "uint256"
        }
      ],
      "stateMutability": "view",
      "type": "function"
    }
  ],
  "bytecode": "0x6080604052348015600f57600080fd5b5060978061001e6000396000f3fe6080604052348015600f57600080fd5b506004361060325760003560e01c80637247b2b914603757806391994b2c14604f575b600080fd5b603d6055565b60408051918252519081900360200190f35b603d605b565b60005481565b6001548156fea2646970667358221220e228d5196cead2e407e267c97e168d069cc12065de7139b1e2c9b59341cf0cdb64736f6c634300060c0033",
  "compiler": {
    "name": "solc",
    "version": "0.6.12+commit.27d51765.Emscripten.clang",
    "optimizer": {
      "enabled": true,
      "runs": 1
    },
    "evmVersion": "petersburg"
  }
}