{
  "fileName": "StatsVars.sol",
  "contractName": "StatsVars",
  "source": "// SPDX-License-Identifier: MIT\npragma solidity ^0.6.12;\n\n\ncontract StatsVars {\n    // Stats\n    uint public totalDeposits;\n    uint public totalWithdrawn;\n    uint public totalStakes;\n    uint public totalActiveStakes;\n    uint public totalRefRewards;\n    uint public totalRefPoolRewards;\n    uint public totalSponsorPoolRewards;\n    uint public totalDepositRewards;\n    uint public totalPenalty;\n    uint public totalExited;\n}\n",
  "sourcePath": "contracts/StatsVars.sol",
  "abi": [
    {
      "inputs": [],
      "name": "totalActiveStakes",
      "outputs": [
        {
          "internalType": "uint256",
          "name": "",
          "type": "uint256"
        }
      ],
      "stateMutability": "view",
      "type": "function"
    },
    {
      "inputs": [],
      "name": "totalDepositRewards",
      "outputs": [
        {
          "internalType": "uint256",
          "name": "",
          "type": "uint256"
        }
      ],
      "stateMutability": "view",
      "type": "function"
    },
    {
      "inputs": [],
      "name": "totalDeposits",
      "outputs": [
        {
          "internalType": "uint256",
          "name": "",
          "type": "uint256"
        }
      ],
      "stateMutability": "view",
      "type": "function"
    },
    {
      "inputs": [],
      "name": "totalExited",
      "outputs": [
        {
          "internalType": "uint256",
          "name": "",
          "type": "uint256"
        }
      ],
      "stateMutability": "view",
      "type": "function"
    },
    {
      "inputs": [],
      "name": "totalPenalty",
      "outputs": [
        {
          "internalType": "uint256",
          "name": "",
          "type": "uint256"
        }
      ],
      "stateMutability": "view",
      "type": "function"
    },
    {
      "inputs": [],
      "name": "totalRefPoolRewards",
      "outputs": [
        {
          "internalType": "uint256",
          "name": "",
          "type": "uint256"
        }
      ],
      "stateMutability": "view",
      "type": "function"
    },
    {
      "inputs": [],
      "name": "totalRefRewards",
      "outputs": [
        {
          "internalType": "uint256",
          "name": "",
          "type": "uint256"
        }
      ],
      "stateMutability": "view",
      "type": "function"
    },
    {
      "inputs": [],
      "name": "totalSponsorPoolRewards",
      "outputs": [
        {
          "internalType": "uint256",
          "name": "",
          "type": "uint256"
        }
      ],
      "stateMutability": "view",
      "type": "function"
    },
    {
      "inputs": [],
      "name": "totalStakes",
      "outputs": [
        {
          "internalType": "uint256",
          "name": "",
          "type": "uint256"
        }
      ],
      "stateMutability": "view",
      "type": "function"
    },
    {
      "inputs": [],
      "name": "totalWithdrawn",
      "outputs": [
        {
          "internalType": "uint256",
          "name": "",
          "type": "uint256"
        }
      ],
      "stateMutability": "view",
      "type": "function"
    }
  ],
  "bytecode": "0x608060405234801561001057600080fd5b50610167806100206000396000f3fe608060405234801561001057600080fd5b506004361061008e5760003560e01c80631f079e01146100935780632673ebf7146100ad5780634b319713146100b55780637247b2b9146100bd5780637d882097146100c55780638876bb3e146100cd57806391994b2c146100d5578063bf9befb1146100dd578063bfe0e020146100e5578063e6af61c8146100ed575b600080fd5b61009b6100f5565b60408051918252519081900360200190f35b61009b6100fb565b61009b610101565b61009b610107565b61009b61010d565b61009b610113565b61009b610119565b61009b61011f565b61009b610125565b61009b61012b565b60035481565b60055481565b60015481565b60075481565b60005481565b60065481565b60095481565b60025481565b60045481565b6008548156fea2646970667358221220382a36cfcd0156c026b50d209fb0978d6d07c535d02d612471d312c5aeb7f0f964736f6c634300060c0033",
  "compiler": {
    "name": "solc",
    "version": "0.6.12+commit.27d51765.Emscripten.clang",
    "optimizer": {
      "enabled": true,
      "runs": 1
    },
    "evmVersion": "petersburg"
  }
}