{
  "fileName": "Utils.sol",
  "contractName": "Utils",
  "source": "// SPDX-License-Identifier: MIT\npragma solidity ^0.6.12;\n\nimport \"@openzeppelin/contracts/math/SafeMath.sol\";\n\n\ncontract Utils {\n    using SafeMath for uint;\n\n    uint public constant DAY = 86400; // Seconds in a day\n\n    function _calcDays(uint start, uint end) internal pure returns (uint) {\n        return end.sub(start).div(DAY);\n    }\n}\n",
  "sourcePath": "contracts/utils/Utils.sol",
  "abi": [
    {
      "inputs": [],
      "name": "DAY",
      "outputs": [
        {
          "internalType": "uint256",
          "name": "",
          "type": "uint256"
        }
      ],
      "stateMutability": "view",
      "type": "function"
    }
  ],
  "bytecode": "0x6080604052348015600f57600080fd5b5060828061001e6000396000f3fe6080604052348015600f57600080fd5b506004361060285760003560e01c806327cfe85614602d575b600080fd5b60336045565b60408051918252519081900360200190f35b620151808156fea26469706673582212204ee4905de13247425c338884489d56b4fcaff1c67358bebcdaeae313e591db7a64736f6c634300060c0033",
  "compiler": {
    "name": "solc",
    "version": "0.6.12+commit.27d51765.Emscripten.clang",
    "optimizer": {
      "enabled": true,
      "runs": 1
    },
    "evmVersion": "petersburg"
  }
}